:020000040800F2
:10000000D8A40020C5BE00087D8E00087F8E0008A1
:10001000918E0008958E0008998E0008000000005F
:100020000000000000000000000000009D8E00089D
:100030009F8E0008000000002FE1000893E30008F5
:10004000DFBE0008DFBE0008DFBE0008DFBE00081C
:10005000DFBE0008DFBE0008DFBE0008DFBE00080C
:10006000DFBE0008DFBE0008DFBE0008DFBE0008FC
:10007000DFBE0008DFBE000809410008DFBE00083F
:10008000DFBE00085D1D0008DFBE0008DFBE0008FF
:1000900013090008DFBE0008DFBE0008DFBE00084D
:1000A000DFBE0008DFBE0008DFBE0008DFBE0008BC
:1000B0003D030008AB050008DFBE0008DFBE0008F6
:1000C000DFBE0008DFBE0008DFBE0008DFBE00089C
:1000D000DFBE0008DFBE0008831D00085D41000888
:1000E000DFBE0008DFBE0008DFBE0008DFBE00087C
:1000F000DFBE0008DFBE0008DFBE0008DFBE00086C
:10010000DFBE0008DFBE0008DFBE0008DFBE00085B
:10011000DFBE0008DFBE0008DFBE0008DFBE00084B
:10012000DFBE0008DFBE0008DFBE0008DFBE00083B
:10013000DFBE0008DFBE0008DFBE0008DFBE00082B
:100140008D0F0008A9110008DFBE0008DFBE0008FF
:10015000DFBE0008DFBE00084D1C0008DFBE00083F
:10016000DFBE0008DFBE0008DFBE0008DFBE0008FB
:10017000DFBE0008DFBE0008DFBE0008DFBE0008EB
:10018000DFBE0008DFBE0008DFF80CD00EF07AFBFF
:1001900000480047B51A0008D8A4002030BF72B646
:1001A000704762B6704780F30888704710B5082022
:1001B0000EF0C0FF044600206060204610BD012004
:1001C00044494871704710B504F030F9424804F0D2
:1001D00094F905F037FB404805F0BDFB06F0B6FE8C
:1001E00008F0A6F8FFF7EBFF002019E0002100EB74
:1001F00080023A4B03EB4202517000EB800203EBAA
:10020000420291714FF47A7100EB800203EB4202DB
:100210005180002100EB800203EB42029180401CE0
:100220000228E3DBFFF7C2FF2D49486010BD002222
:100230000A7803780B700270704770B506460C465A
:10024000354600E06D6815B16868A042FAD14CB13E
:100250006068686020460EF045FF21480078401E27
:100260001F49087070BD02460B46114605E008881C
:10027000984201D10846704749680029F7D100200B
:10028000F9E72DE9F041074688463C4641462046BD
:10029000FFF7E9FF08B1BDE8F081002602E06468DD
:1002A000701CC6B20E480078B04201DD002CF6D1B9
:1002B0006CB108200EF03EFF0546A5F8008060688E
:1002C0006860656006480078401C0549087000BFFA
:1002D000E1E70000C603002000680040280100207C
:1002E000040000201FB5012108460AF078FB95485C
:1002F00002900B20ADF804000020ADF80600ADF828
:100300000C0001A94FF080400AF021FD01221146A6
:1003100090070BF0BDF9012188070AF0A1FD1C2010
:100320008DF8000002208DF801008DF802000120F8
:100330008DF80300684609F034F91FBD10B501219E
:1003400088070BF0BCF9012875D100246FE0C4EBDD
:10035000C40000EB40007C4901EB8000407800289D
:1003600064D00DF09DFEC4EBC40101EB4101764A5F
:1003700002EB8101096C411AC4EBC40000EB4000A0
:1003800002EB8000B0F8440081421BD9C4EBC400EA
:1003900000EB4000114601EB800090F84700012877
:1003A00010D1C4EBC40000EB400001EB8000808F53
:1003B000401C81B2C4EBC40000EB400002EB8000A3
:1003C000818708E00021C4EBC40000EB40005E4AD6
:1003D00002EB80008187C4EBC40000EB40005A4967
:1003E00001EB8000808FB0F57A7F13DD0121C4EB33
:1003F000C40000EB4000544A02EB8000C1770220A9
:1004000008F02AFA032008F00DFD4FF4FA7008F006
:100410002AFB0BE0002008F005FD0021C4EBC4001E
:1004200000EB4000484A02EB8000C177641C042CBA
:100430008DD3002405E07FE0204607F0BEFD601C60
:10044000C4B2082CF8DB002474E004EBC40000EB19
:1004500004103E4901EB80004078002868D00DF080
:100460001FFE04EBC40101EB0411384A02EB8101C9
:10047000096D411A04EBC40000EB041002EB80008C
:10048000B0F8540081421DD904EBC40000EB041005
:10049000114601EB800090F85700012812D104EBBF
:1004A000C40000EB041001EB8000B0F84C00401CCD
:1004B00081B204EBC40000EB041002EB8000A0F852
:1004C0004C1009E0002104EBC40000EB04101F4AAB
:1004D00002EB8000A0F84C1004EBC40000EB041009
:1004E0001A4901EB8000B0F84C00642813DD0121AB
:1004F00004EBC40000EB0410144A02EB800080F807
:100500002F10022008F0A8F9042008F08BFCC82066
:1005100008F0A9FA0CE0002008F084FC002104EBAC
:10052000C40000EB0410094A02EB800080F82F1091
:10053000601CC4B2042C88DB012188070BF0D0F8C2
:1005400010BD00005FAE0A00642600205428002081
:100550001FB5012102200AF042FA42F6DF60029044
:100560000720ADF804000020ADF80600ADF80C003F
:1005700001A942480AF0EBFB012211463F480BF06B
:1005800087F801213D480AF06BFC1D208DF8000022
:1005900001208DF8010000208DF8020001208DF867
:1005A0000300684608F0FDFF1FBD10B50121334868
:1005B0000BF085F801285FD107F0AFFA002432E094
:1005C00004EB041000EB40002D4911F8200028B383
:1005D00004EB041000EB400001EB80004078F0B128
:1005E00004EB041000EB400001EB80008078012850
:1005F00006D0022805D004280BD005280DD104E030
:100600000CE020B206F0C4FF08E020B207F019F8B1
:1006100004E020B207F0D2F900E000BF02E020B20F
:1006200007F00FF8641C082CCADB03F0A9FE144C79
:10063000B4F96A32B4F99E21B4F9D210B4F90600C3
:1006400003F045FEB4F99A35B4F9CE24B4F9021496
:10065000B4F9360303F0E2FD0A490B4807F0B9FD8F
:100660000A490B4807F0B5FD0A49074807F0B1FDF4
:10067000012102480BF034F810BD000000040040D6
:10068000942A00203C580020006800405856002062
:1006900000640040205A002000B58BB001214806BC
:1006A0000AF09DF9012108460AF066F909220B219A
:1006B000FA4809F0A6FF09220C21F84809F0A1FF29
:1006C00002208DF81C004FF4C050069006A9F34894
:1006D00009F00CFF00208DF826008DF827008DF81A
:1006E00028008DF829008DF82A008DF82B008DF850
:1006F00022008DF8230008208DF8240003208DF8B7
:100700002500ADF8200008A9E54808F0CEFF00203C
:100710008DF8120001208DF8130000208DF81400D0
:1007200046F2A000ADF8080046F2C000ADF80A009D
:1007300046F2E000ADF80C004FF4C240ADF80E00F8
:100740000020ADF8100001208DF8150002A809F076
:1007500036F803208DF8120001208DF813000020D8
:100760008DF814004FF4C840ADF8080046F22000A0
:10077000ADF80A0046F24000ADF80C0046F2600009
:10078000ADF80E000020ADF8100001208DF8150026
:1007900002A809F014F814208DF8040003208DF845
:1007A000050000208DF8060001208DF8070001A843
:1007B00008F0F7FE01220221B94809F0FFFA0BB058
:1007C00000BD10B50446B7484088401C1E2190FB70
:1007D000F1F201FB1200B3490988884203D10120DC
:1007E000B149887110BD20688038AE494A88091D1A
:1007F00001EB02110860A17AAA484288001D00EBB3
:1008000002100171A27AA7494B88091D01EB03115F
:10081000481D04F10B010DF005FEA2484088401C64
:100820001E2190FBF1F201FB12009E49488000BF9F
:10083000D8E710B501469B484088401C1E2290FB1B
:10084000F2F302FB1300974A1288904203D1012071
:10085000954A907110BDA1F18002924B5C881B1DDE
:1008600003EB04131A6005238E4A5488121D02EB11
:100870000412137142238B4A5488121D02EB041296
:100880005371884A5488121D02EB04129371472356
:10089000844A5488121D02EB0412D3714A1FD0B24D
:1008A00000EB001202EB4202804B03EB8202B2F932
:1008B000142000EE102AB8EEC00AF3EE0E0A20EE65
:1008C000200A00EB001202EB420203EB8202D2ED9F
:1008D000320A80EE201ABDEEC10A10EE102A12B2C2
:1008E000734B23F810201A4632F810306D4A5488A2
:1008F000121D02EB0412138100BF6A484088401C9D
:100900001E2290FBF2F302FB1300664A508000BFE8
:10091000A0E710B586B00221614809F0B7FA0028B7
:1009200075D002215E4809F04CFB02215C4809F0B9
:100930008AFA01AA00215A4809F025F99DF80C000D
:10094000002864D19DF80D000028FAD140F205314D
:10095000019888420BD0491C0198884207D0491C55
:100960000198884203D00198B0F5427F7DD101986B
:10097000401FC4B29DF80F0043280FD19DF810000E
:1009800057280BD19DF81100482807D19DF8120077
:10099000552803D101A8FFF714FFD0E09DF80F0000
:1009A000432835D19DF81000482831D1BDF81100F9
:1009B0003F4921F81400084630F9140000EE100AEF
:1009C000F8EEC00AB3EE0E1A80EE810A04EB0410B2
:1009D00000EB4000354901EB8000D0ED320A20EEFB
:1009E000200ABDEEC00A10EE100A00B204EB04119A
:1009F00001EB41012D4A02EB81018880012004EBCB
:100A0000041101EB410102EB8101487097E019E10B
:100A10009DF80F00532818D19DF81000502814D1CC
:100A2000BDF81100234921F81400084630F81410CD
:100A300004EB041000EB40001C4A02EB8000A0F81D
:100A4000961001A8FFF7BDFE79E09DF80F004D2834
:100A500032D19DF810004F282ED19DF811000128A9
:100A60002AD1052004EB041100E069E001EB41010B
:100A70000E4A02EB81018870012004EB041101EBA6
:100A8000410102EB8101487004EB041101EB4101CB
:100A900002F8210001A8FFF794FE50E00000024098
:100AA0000064004058560020C6030020942A00200D
:100AB0000C000020140000209DF80F004D2819D1D3
:100AC0009DF810004F2815D19DF8110090B9002015
:100AD00004EB041101EB4101604A02F8210004EB30
:100AE000041101EB410102EB8101487001A8FFF7FD
:100AF00068FE24E09DF80F00532810D19DF81000E7
:100B000054280CD1002004EB041101EB4101534A9D
:100B100002EB8101487001A8FFF753FE0FE09DF83A
:100B20000F0042280BD19DF81000422807D19DF8F4
:100B30001100472803D1019988B2FFF77AFE00BF60
:100B40000198B0F5487F7DD1BDF80F004449088079
:100B5000BDF811004880BDF813008880BDF815006D
:100B6000C8800846B0F9000000EE100AB8EEC00ACE
:100B7000B3EE0E1AC0EE010A384890ED320A20EEAC
:100B8000800ABDEEC00A10EE100A00B23349888018
:100B900001204870052088703148B0F9020000EE4D
:100BA000100AB8EEC00AB3EE0E1AC0EE010A0846EB
:100BB00090ED650A20EE800ABDEEC00A10EE100A24
:100BC00001B22648A0F8D010012180F8CD100521EF
:100BD00080F8CE102248B0F9040000EE100AB8EEFA
:100BE000C00AB3EE0E1AC0EE010A1C4890ED980A36
:100BF00020EE800ABDEEC00A10EE100A01B21748BE
:100C0000A0F89C11012180F89911052180F89A1112
:100C10001348B0F9040000EE100AB8EEC00AB3EEB3
:100C20000E1AC0EE010A0D4890EDCB0A20EE800AA4
:100C3000BDEEC00A10EE100A01B20848A0F8681212
:100C4000012100E007E080F86512052180F86612B6
:100C500001A8FFF7B6FD06B010BD0000942A0020E1
:100C60000C0000202DE9F0418AB004460D461646DE
:100C70001F46DDF840800121022009F07DFE0121A0
:100C80004FF0C06009F0ABFEFE4808F0F5FC092209
:100C90000521FD4809F0B5FC09220621FA4809F0B2
:100CA000B0FC02208DF824006020089008A9F648C6
:100CB00009F01CFC40208DF8000002208DF8010096
:100CC00000208DF8020001208DF80300684608F02E
:100CD00068FC41208DF8000002208DF80100012001
:100CE0008DF802008DF80300684608F05AFC0020D9
:100CF0008DF81A008DF81B008DF81C008DF81D0072
:100D00008DF81E008DF81F008DF816808DF81740A5
:100D10008DF818608DF81950ADF8147005A9D948F0
:100D200008F0C3FC0E208DF80E0001208DF80F0096
:100D300000208DF8100044F22000ADF8040044F2C9
:100D40004000ADF8060044F26000ADF808004FF432
:100D50008140ADF80A000020ADF80C0001208DF8AC
:100D6000110001A808F02BFD0F208DF80E000120C6
:100D70008DF80F0000208DF8100044F2A000ADF8AF
:100D8000040044F2C000ADF8060044F2E000ADF803
:100D900008004FF48240ADF80A000020ADF80C00C6
:100DA00001208DF8110001A808F009FD10208DF830
:100DB0000E0001208DF80F0000208DF8100045F284
:100DC0002000ADF8040045F24000ADF8060045F201
:100DD0006000ADF808004FF4A140ADF80A00012012
:100DE000ADF80C008DF8110001A808F0E8FC112006
:100DF0008DF80E0001208DF80F0000208DF81000F6
:100E000045F2A000ADF8040045F2C000ADF80600C0
:100E100045F2E000ADF808004FF4A240ADF80A003A
:100E20000120ADF80C008DF8110001A808F0C7FCF6
:100E300012208DF80E0001208DF80F0000208DF893
:100E400010004FF48150ADF804004FF48250ADF81B
:100E500006004FF48350ADF808004FF48450ADF80D
:100E60000A000120ADF80C008DF8110001A808F06F
:100E7000A6FC13208DF80E0001208DF80F00002035
:100E80008DF810004FF48550ADF804004FF48650F3
:100E9000ADF806004FF48750ADF808004FF48850C5
:100EA000ADF80A000120ADF80C008DF8110001A882
:100EB00008F085FC14208DF80E0000208DF80F003E
:100EC00001208DF810000020ADF804004FF4904090
:100ED000ADF806004FF6FF70ADF808004FF478400B
:100EE000ADF80A000120ADF80C008DF8110001A842
:100EF00008F065FC15208DF80E0001208DF80F001C
:100F000000208DF810004BF22000ADF804004BF2E9
:100F10004000ADF806004BF26000ADF808004BF25F
:100F20008000ADF80A000120ADF80C008DF811002A
:100F300001A808F044FC16208DF80E0001208DF861
:100F40000F0000208DF810004FF40150ADF80400A0
:100F50004FF40250ADF80600ADF80800ADF80A00F5
:100F60000120ADF80C008DF8110001A808F027FC55
:100F700001221021434808F021FF012202214148AB
:100F800008F01CFF00200AB0BDE8F08110B586B063
:100F900001AA00213B4808F0F6FD9DF80C0000284E
:100FA0007CD19DF80C00002878D19DF80E0008280F
:100FB00074D10198B0F5007F70D90198B0F5027F27
:100FC0006CD80198401EC4B2304850F82400304913
:100FD00041F824000DF064F82C4941F824009DF8F4
:100FE00012109DF8110041EA002001B204EB041038
:100FF00000EB4000274A02EB800001839DF81000BF
:101000009DF80F1040EA012001B204EB041000EB40
:10101000400002EB800001849DF814109DF813003D
:1010200041EA002001B204EB041000EB400002EBA7
:101030008000C1829DF8151004EB041000EB400005
:1010400002EB8000418404EB041000EB40001146E9
:1010500001EB8000C06900EE100AB8EEC00ADFEDB7
:101060000E0A60EE200A04EB041000EB400001EBD6
:10107000800090F8C20000EE100AB8EE401A80EE30
:10108000810A0CE00068004000040240F4030020E4
:10109000D4030020942A00200000B44324E004EB91
:1010A000041000EB400001EB800090ED321AC0EE1E
:1010B000010A04EB041000EB400001EB8000B0F8E3
:1010C000C00000EE100AB8EE400A80EE801ABDEEB5
:1010D000C10A10EE100A00B204EB041101EB410149
:1010E00002EB8101888200BF0221FE4808F069FFFF
:1010F0000221FC4808F0A7FE06B010BDF0B585B08F
:1011000007460D46002412200090019000208DF823
:1011100008008DF809008DF80A5000BF05E0395D20
:101120000DF10B000155601C84B2AC42F7DB69463F
:10113000EC4808F033FC0646002401E0601C84B251
:101140003146E84808F0C2FC18B940F6FF70844206
:10115000F4DB40F6FF70844202DB012005B0F0BDF5
:101160000020FBE74168491C4160002101730169CF
:10117000491E0161818A491C1E2291FBF2F302FB88
:101180001311818270474168491C4160002101733D
:101190000169491E0161818A491C1E2291FBF2F3FB
:1011A00002FB13118182704710B586B01021CD4823
:1011B00008F06CFE002874D001AA0121C94808F08B
:1011C000E2FC1021C74808F0FCFE1021C54808F0D9
:1011D0003AFE0198B0F5B06F74D940F2855101988C
:1011E00088426FD89DF80D0000286BD10198A0F2BD
:1011F0008150C4B2002104EBC40000EB0410BA4AD1
:1012000002EB800080F857109DF80F004F2809D19D
:101210009DF81000602805D19DF81100602801D1CB
:10122000012000E000209DF80F10432909D19DF80E
:101230001010622905D19DF81110602901D10121FA
:1012400000E0002108439DF80F10432909D19DF8C3
:101250001010642905D19DF81110602901D10121D8
:1012600000E0002108439DF80F10432909D19DF8A3
:1012700010106B2905D19DF81110602901D10121B1
:1012800000E0002108439DF80F1043290AD19DF882
:1012900010106C2906D19DF81110602902D101218E
:1012A00001E0F2E2002108439DF80F104B290AD11A
:1012B0009DF81010402906D19DF81110602902D127
:1012C000012101E047E1002108439DF80F104B295F
:1012D00009D19DF81010772905D19DF811106029CA
:1012E00001D1012100E00021084330B1C4EB841199
:1012F0007E4A02EBC100FFF746FF9DF80F004B2826
:1013000016D19DF81000402812D19DF811006028D8
:101310000ED19DF81300C01008B1012000E000209C
:1013200004EBC40101EB04116F4A02EB8101487028
:101330009DF80F004F2810D19DF8100060280CD1A7
:101340009DF81100602808D19DF8130004EBC4013A
:1013500001EB0411644A02F821009DF80F004328B4
:1013600049D19DF81000622845D19DF811006028F0
:1013700041D1DDF8131004EBC40000EB04105A4A0D
:1013800002EB8000016104EBC40000EB0410114685
:1013900001EB800090ED180A1FEDC11AC1EE000AA2
:1013A00004EBC40000EB041001EB8000006900EEC8
:1013B000100AB8EEC00A20EE800AB1EE001AC0EEA4
:1013C000010A04EBC40000EB041001EB8000B0F84C
:1013D0005C0000EE100AB8EE400A80EE801ABDEE06
:1013E000C10A10EE100A00B204EBC40101EB0411B3
:1013F00002EB810188809DF80F00432849D19DF8B8
:101400001000642845D19DF81100602841D1DDF815
:10141000131004EBC40000EB0410334A02EB80000D
:10142000416204EBC40000EB0410114601EB8000A4
:1014300090ED180A1FEDE81AC1EE000A04EBC40093
:1014400000EB041001EB8000406A00EE100AB8EED9
:10145000C00A20EE800AB1EE001AC0EE010A04EBC9
:10146000C40000EB041001EB8000B0F85C0000EE5B
:10147000100AB8EE400A80EE801ABDEEC10A10EEE6
:10148000100A00B204EBC40101EB041102EB81016C
:1014900008839DF80F00432811D19DF810006B2898
:1014A0000DD19DF81100602809D1DDF8131004EB6F
:1014B000C40000EB04100C4A02EB8000C1609DF8F0
:1014C0000F00432818D19DF810006C2814D19DF806
:1014D0001100602810D1DDF8131004EBC40000EBFC
:1014E000041005E00068004054280020A4480020B3
:1014F000F64A02EB800001629DF80F004B2829D1CB
:101500009DF81000772825D19DF81100602821D181
:10151000DDF8131004EBC40000EB0410EB4A02EBFF
:101520008000816204EBC40000EB0410114601EB63
:101530008000806A00EE100AB8EEC00ADFEDE40A0F
:1015400080EE201A04EBC40000EB041001EB8000D5
:1015500080ED071A00BF0198B0F5207F7ED9019871
:10156000B0F5227F7AD89DF80D00002876D1019839
:10157000A0F28120C4B20021C4EBC40000EB400003
:10158000D44A02EB800080F847109DF80F004128F4
:101590000BD19DF81000432807D19DF8120000F0F0
:1015A0004000012801D0012000E000209DF80F102C
:1015B00042290BD19DF81010472907D19DF8121030
:1015C00001F04001012901D0012100E00021084380
:1015D0009DF80F104A290BD19DF81010562907D1FC
:1015E0009DF8121001F04001012901D0012100E015
:1015F000002108439DF80F104D290BD19DF81010C4
:101600004F2907D19DF8121001F04001012901D0A6
:10161000012100E0002108439DF80F1050290BD153
:101620009DF81010522907D19DF8121001F04001C9
:10163000012901D0012100E0002108439DF80F108D
:1016400053290CD19DF81010442908D19DF812108F
:1016500001F04001012902D0012101E0FDE000215B
:1016600008439DF80F1053290BD19DF810105429F1
:1016700007D19DF8121001F04001012901D001218C
:1016800000E0002108439DF80F1054290BD19DF86C
:101690001010432907D19DF8121001F040010129D3
:1016A00001D0012100E0002108439DF80F105529C9
:1016B0000BD19DF810104D2907D19DF8121001F0A3
:1016C0004001012901D0012100E00021084330B18F
:1016D000C4EB8411804A02EBC100FFF743FD9DF883
:1016E0000F004D2825D19DF810004F2821D19DF8DD
:1016F000120000F0400001281BD09DF813000128C3
:101700000ED19DF8130008B1012000E00020C4EBC9
:10171000C40101EB41016F4A02EB8101487008E00E
:101720000020C4EBC40101EB41016A4A02EB8101D4
:1017300048709DF80F0056282FD19DF810005828AA
:101740002BD19DF8120000F04000012825D0DDF8D3
:101750001310C4EBC40000EB40005E4A02EB8000B3
:101760004161C4EBC40000EB4000114601EB800076
:10177000B0F84C003C2190FBF1F1C4EBC40000EB4D
:10178000400002EB8000406990FBF1F1C4EBC40023
:1017900000EB400002EB800041619DF80F005028F3
:1017A00041D19DF8100058283DD19DF8120000F05D
:1017B0004000012837D0DDF81300C4EBC40101EB71
:1017C0004101444A02EB81018861C4EBC40101EB91
:1017D000410102EB810191ED140A9FED401AC1EE27
:1017E000000A00EE100AB8EEC00A60EE800AC4EBF0
:1017F000C40101EB410102EB8101B1F84C1000EE94
:10180000101AB8EE400A80EE801ABDEEC10A10EE42
:10181000101A09B2C4EBC40202EB42022D4B03EBD7
:101820008202118200BF9DF80F00492814D19DF853
:101830001000512810D19DF8120000F0400001283E
:101840000AD0BDF8130001B2C4EBC40000EB4000A5
:10185000204A02EB8000418200BF0198812813D307
:101860000198882810D89DF80D0068B90198813832
:10187000C4B2621C022343EA021242F44071184AC5
:101880005068FEF7FEFC00BF00BF06B010BD30B5CB
:1018900085B005460021134808F0F8F910B900207A
:1018A00005B030BD6A4600210F4808F06CF90024ED
:1018B00004E00DF10B00005D2855641C9DF80A0042
:1018C000A042F6D89DF80A00EAE70000542800205C
:1018D0000000084364260020D43C00200000B443EC
:1018E00004000020006400400068004042E0012045
:1018F000B7EE000A07F0B2FD0220B0EE000A07F0D2
:10190000ADFD0320B0EE080A07F0A8FD04209FED0E
:10191000840A07F0A3FD0520B1EE040A07F09EFD3E
:101920000620B1EE080A07F099FD0720B1EE0C0A77
:1019300007F094FD0820B2EE000A07F08FFD0920A1
:10194000B2EE020A07F08AFD7649096800EE901AA5
:10195000F8EE600AB0EE600A0A2007F07FFD0A2068
:1019600007F0CDFD0146704800F059F94FF496702C
:101970000CF0E6FABBE705E006F07EFB40F24C40D7
:101980000CF0DEFAF8E706E0012006F005FF4FF460
:101990007A700CF0D5FAF7E725E001241DE001216B
:1019A000204605F007F80121204604F086FF0121BA
:1019B000204604F0FDFE0121204604F07BFE0121BB
:1019C000204604F0F9FD0121204604F077FD0121B5
:1019D000204605F06CF8601CC4B2052CDFDB4FF428
:1019E0007A700CF0ADFAD8E706E0012003F0B3FE00
:1019F0004FF496600CF0A4FAF7E707E007F0BDF9A2
:101A000007F029F94FF496700CF09AFAF6E705E022
:101A100001F0DFF940F6B8300CF092FAF8E770B553
:101A20000446002500BF022006F016FF002007F044
:101A3000F9F901F0CEF90CF0C2FC0CF057FB0546A9
:101A40000D233A4A00213A480BF034FF1E23394A4D
:101A5000002139480BF02EFF0A23384A002138486C
:101A60000BF028FF0F23374A002137480BF022FFE5
:101A70001023364A002136480BF01CFF0923354A53
:101A8000002135480BF016FF0E23344A002134485C
:101A90000BF010FF01203349087081F8CC0081F869
:101AA000980181F8640205200CF082F928460CF0B8
:101AB00021FB70BD08B54FF4FA6006F0D4FF0AF0C0
:101AC00067F94FF4A06007F067FD06F0ABFE07F082
:101AD000C2F807F087F900F0DBF800F049F806F0EB
:101AE000E5FF07F029F9002003230822194600909A
:101AF000FFF7B8F8FEF7D0FD06F060FBFEF7F2FB4B
:101B0000FEF726FDFEF75FFB0AF026FB0523164ACB
:101B1000002116480BF0CEFE0AF045FC002008BD5F
:101B20000000C84324040040005D00201410002081
:101B30000F1A000814120020FB190008141A0020C4
:101B4000E9190008141E0020991900081422002029
:101B500087190008141600207719000814260020A1
:101B6000ED180008942A0020140800201F1A00080D
:101B70001CB54048006840F010003E4908603D48F0
:101B80001438006840F480003A4914390860012094
:101B9000022100230A46CDE900104FF4C061364807
:101BA00007F0E8FA07220921334807F0C3FA0722B1
:101BB0000A21314807F0BEFA40F2D9202F490881A6
:101BC0004FF4037088810846008820F020000880C8
:101BD000032325220121062007F01EFA4FF480700E
:101BE000274B264A121D04210090264807F058F979
:101BF00001221021234808F0A0FB032346220021E4
:101C0000072007F009FA1D48808A40F080001B4930
:101C100088820846808940F4005088811CBD70B5D8
:101C200004460D461848807A78B92A462146144859
:101C30000CF0F8FB2946134808F013FB012111486A
:101C400008F0EEFA01201049887270BD10B50F49F6
:101C50000C4808F08FFB01280AD10C49094808F00C
:101C600058FB0A49074808F0AFFB00200649887274
:101C700010BD000044380240000002400010014046
:101C800046010020B8640240C603002000800028FE
:101C90001CB5F448006840F40030F2490860F1488F
:101CA0001038006840F40010EE4910390860012037
:101CB000022100230A46CDE900100C21EA4807F072
:101CC00059FA07220221E84807F034FA07220321D3
:101CD000E54807F02FFA4FF4B670E44908800C206D
:101CE000091D0880E1480838008820F02000DF49FD
:101CF00008390880DD48001D008840F02000DB49DD
:101D0000091D0880032326220121042007F084F9FD
:101D10004FF48070D64BD54A121F04210090D5484D
:101D200007F0BEF801221021D24808F006FB032379
:101D300011220121072007F06FF9CC480C300088F0
:101D400040F08000C9490C310880C848001D008857
:101D500040F40050C549091D08801CBD10B5C64996
:101D6000C44808F007FB01280AD1C349C14808F05C
:101D7000D0FAC149BF4808F027FB0020BF49C8720C
:101D800010BD10B52DED028B002440F22531B7486F
:101D9000083809F048FF58B1B448083809F081FE06
:101DA0000020B74908702021B6480CF054FBF8E336
:101DB00040F22551AD48083809F035FF0028F6D02B
:101DC0002021AA48083809F025FF40F22551A748EC
:101DD000083809F05FFFA548083809F062FEC4B270
:101DE000A748007800F0400008B3A548007800F04C
:101DF000800020BBFF2C06D1A148007840F0800075
:101E00009F4908701BE09E48007800F03F019D4804
:101E100044549B480078401C994908700846007853
:101E200000F03F0028280ADD0020087007E0EE2CB3
:101E300005D19348007840F04000914908709048DF
:101E4000007800F080000028B1D08F4890F821027F
:101E5000012804D18C4890F823028C4908708A48E4
:101E600090F82302092872D2DFE800F00523242528
:101E7000F1FA71F9F800844890F82502082815D184
:101E8000012080F3138800BF00BFBFF34F8F80484D
:101E9000006800F4E0607F490843001D7C49086049
:101EA000BFF34F8F00BF00BF00BFFDE700BF00BF03
:101EB000F0E3FDE7FCE7744890F82502C01E0B280C
:101EC00044D2DFE800F006C2C2454F66C2C2C27209
:101ED0007E006C48C01D0CF05FFFB0EE408AF0EE53
:101EE000608A51EC180B0CF0D1FA6B498860654898
:101EF000C01D0CF051FFB0EE408AF0EE608A51EC4C
:101F0000180B0CF0C3FA0146634841645D48C01DDC
:101F10000CF042FFB0EE408AF0EE608A51EC180BF4
:101F20000CF0B4FA01465C48C0F880105548C01D5A
:101F30000CF032FFB0EE408AF0EE608A51EC180BE4
:101F40000CF0A4FA01465448C0F8BC107DE0B5E39B
:101F500001205149087081F83C0081F8780081F82F
:101F6000B40072E002204C49887002214A4880F88F
:101F70003E1080F87A1080F8B6100120464948706B
:101F80000121454880F83D1080F8791080F8B5109F
:101F90005BE003204049887003213F4880F83E10F1
:101FA00080F87A1080F8B6104FE000203A49487067
:101FB0000021394880F83D1080F8791080F8B5107C
:101FC00043E03048C01D0CF0E7FEB0EE408AF0EE72
:101FD000608A51EC180B0CF091FA00EE100A2E48B2
:101FE00080ED040A2748C01D0CF0D6FEB0EE408AF2
:101FF000F0EE608A51EC180B0CF080FA00EE100A3B
:10200000254880ED130A1F48C01D0CF0C5FEB0EE38
:10201000408AF0EE608A51EC180B0CF06FFA00EE7B
:10202000100A1D4880ED220A1648C01D0CF0B4FEAF
:10203000B0EE408AF0EE608A51EC180B0CF05EFABC
:1020400000EE100A144880ED310A00BF00BF0E48B0
:1020500090F82502C01E1A287BD21FE0F9E32EE378
:102060009AE100004038024000000240084400406D
:1020700066020020A060024000802020C6030020ED
:1020800023000020660300204601002022000020DB
:102090000CED00E00000FA05105C0020DFE800F025
:1020A0000D1B2939495A69798999A8B8C859D8F3B3
:1020B000F1F0EFEEEDECEBEAE9E8002008E00021BA
:1020C00000EB001202EB4202F54B03F82210401C19
:1020D0000828F4DB5EE1F3480CF05EFEB0EE408AC7
:1020E000F0EE608A51EC180B0CF0EFF9EC498870B7
:1020F00050E1EC480CF050FEB0EE408AF0EE608A01
:1021000051EC180B0CF0E1F9C1B2E54880F8CE10A3
:1021100040E1E4480CF040FEB0EE408AF0EE608A08
:1021200051EC180B0CF0D1F9C1B2DD4880F89A11CE
:1021300030E1DC480CF030FEB0EE408AF0EE608A10
:1021400051EC180B0CF0C1F9C1B2D54880F86612F9
:1021500020E11EE1D3480CF01FFEB0EE408AF0EE05
:10216000608A51EC180B0CF091F901B2CC48018156
:1021700010E1CC480CF010FEB0EE408AF0EE608A20
:1021800051EC180B0CF082F901B2C548A0F8D4103C
:1021900000E1C4480CF000FEB0EE408AF0EE608A28
:1021A00051EC180B0CF072F901B2BD48A0F8A01167
:1021B000F0E0BC480CF0F0FDB0EE408AF0EE608A32
:1021C00051EC180B0CF062F901B2B548A0F86C1292
:1021D000E0E0B4480CF0E0FDB0EE408AF0EE608A3A
:1021E00051EC180B0CF052F900B2AD498880D1E0E7
:1021F000AC480CF0D1FDB0EE408AF0EE608A51ECB4
:10220000180B0CF043F901B2A548A0F8D010C1E0BA
:10221000A4480CF0C1FDB0EE408AF0EE608A51ECAB
:10222000180B0CF033F901B29D48A0F89C11B1E0F5
:102230009C480CF0B1FDB0EE408AF0EE608A51ECA3
:10224000180B0CF023F901B29548A0F86812A1E030
:1022500094480CF0A1FDB0EE408AF0EE608A51EC9B
:10226000180B0CF032F981B28D48A0F8961091E06D
:1022700084E078E06CE061E055E049E03DE032E088
:1022800021E010E0FFE787480CF086FDB0EE408AC1
:10229000F0EE608A51EC180B0CF017F981B280480F
:1022A000A0F8621176E07F480CF076FDB0EE408A2F
:1022B000F0EE608A51EC180B0CF007F981B2784807
:1022C000A0F82E1266E077480CF066FDB0EE408A6A
:1022D000F0EE608A51EC180B0CF0F7F881B2704800
:1022E000A0F8FA1256E0704890F8280208B10120D0
:1022F00000E000206A4908704CE06B4890F8280222
:1023000008B1012000E00020654981F8CC0041E0DF
:10231000654890F8280208B1012000E000206049DB
:1023200081F8980136E0604890F8280208B1012051
:1023300000E000205A4981F864022BE05A4890F8E6
:10234000280208B1012000E000205549487021E032
:10235000554890F8280208B1012100E000215048BA
:1023600080F8CD1016E0504890F8280208B10121FD
:1023700000E000214A4880F899110BE04A4890F8A3
:10238000280208B1012100E00021454880F86512CB
:1023900000E000BF00BF8BE5434890F82502C01E57
:1023A0001A287CD2DFE800F00D1B2B3B4B5B6B82C5
:1023B00092A2B2C2D27BE2FEFBFAF9F8F7F6F5F48C
:1023C000F3F2002008E0002100EB001202EB4202D1
:1023D000334B03F82210401C0828F4DB6CE1314831
:1023E0000CF0DAFCB0EE408AF0EE608A51EC180B8B
:1023F0000CF06BF8C1B22A4880F832135CE129482E
:102400000CF0CAFCB0EE408AF0EE608A51EC180B7A
:102410000CF05BF8C1B2224880F8FE134CE1214871
:102420000CF0BAFCB0EE408AF0EE608A51EC180B6A
:102430000CF04BF8C1B21A4880F8CA143CE11948B4
:102440000CF0AAFCB0EE408AF0EE608A51EC180B5A
:102450000CF03BF8C1B2124880F896152CE11148F7
:102460000CF09AFCB0EE408AF0EE608A51EC180B4A
:102470000CF00CF801B20A48A0F838131CE1094826
:102480000CF08AFCB0EE408AF0EE608A51EC180B3A
:102490000BF0FCFF01B20248A0F804140CE10AE1C1
:1024A000942A00206D03002046010020FD480CF016
:1024B00073FCB0EE408AF0EE608A51EC180B0BF022
:1024C000E5FF01B2F848A0F8D014F5E0F5480CF0AB
:1024D00063FCB0EE408AF0EE608A51EC180B0BF012
:1024E000D5FF01B2F048A0F89C15E5E0ED480CF0EE
:1024F00053FCB0EE408AF0EE608A51EC180B0BF002
:10250000C5FF01B2E848A0F83413D5E0E5480CF067
:1025100043FCB0EE408AF0EE608A51EC180B0BF0F1
:10252000B5FF01B2E048A0F80014C5E0DD480CF0AA
:1025300033FCB0EE408AF0EE608A51EC180B0BF0E1
:10254000A5FF01B2D848A0F8CC14B5E0D5480CF0EE
:1025500023FCB0EE408AF0EE608A51EC180B0BF0D1
:1025600095FF01B2D048A0F89815A5E0CD480CF031
:1025700013FCB0EE408AF0EE608A51EC180B0BF0C1
:10258000A4FF81B2C848A0F8C61395E088E07BE0BC
:102590006FE063E057E04BE03FE033E022E011E022
:1025A00000E0FDE3BF480CF0F7FBB0EE408AF0EE30
:1025B000608A51EC180B0BF088FF81B2BA48A0F882
:1025C000921479E0B7480CF0E7FBB0EE408AF0EEE9
:1025D000608A51EC180B0BF078FF81B2B248A0F87A
:1025E0005E1569E0AF480CF0D7FBB0EE408AF0EE24
:1025F000608A51EC180B0BF068FF81B2AA48A0F872
:102600002A1659E0A94890F8280208B1012000E0F4
:102610000020A54981F830034EE0A44890F8280234
:1026200008B1012000E000209F4981F8FC0343E04D
:102630009E4890F8280208B1012000E000209A4945
:1026400081F8C80438E0994890F8280208B10120C0
:1026500000E00020944981F894052DE0934890F81B
:10266000280208B1012100E000218F4880F83113D1
:1026700022E08E4890F8280208B1012100E00021F4
:10268000894880F8FD1317E0884890F8280210B1B7
:10269000012101E07FE30021834880F8C9140BE0A9
:1026A000824890F8280208B1012100E000217E480C
:1026B00080F8951500E000BF00BF6CE300BF7B48C9
:1026C00090F82502C01E0B2817D2DFE800F006178D
:1026D0001628394A5F749AC3F8000121084603F0AE
:1026E00011FC0121022003F00DFC0121032003F065
:1026F00009FC0121042003F005FCF1E0012108465A
:1027000003F058FA0121022003F054FA01210320BA
:1027100003F050FA0121042003F04CFAE0E001211B
:10272000084603F0C7F90121022003F0C3F9012193
:10273000032003F0BFF90121042003F0BBF9CFE02F
:102740000121084603F032FB0121022003F02EFB99
:102750000121032003F02AFB0121042003F026FBC2
:10276000BEE001220321104603F026F901220321D5
:10277000022003F021F901220321084603F01CF98D
:1027800001220321042003F017F9A9E001221146D8
:10279000104603F011F901221146022003F00CF952
:1027A00001221146032003F007F9012211460420FB
:1027B00003F002F994E03B480CF0EEFAB0EE408AE8
:1027C000F0EE608A51EC180B0BF060FE384908609F
:1027D000012208460168104603F08CFD01223448AE
:1027E0000168022003F086FD0122314801680320C0
:1027F00003F080FD01222E480168042003F07AFDD9
:102800006EE028480CF0C8FAB0EE408AF0EE608A1C
:1028100051EC180B0BF03AFE2649086001220846DD
:102820000168104603F0D4FD0122224800684142AD
:10283000022003F0CDFD01221E4800684142032022
:1028400003F0C6FD01221B480168042003F0C0FD0F
:1028500046E047E013480CF09FFAB0EE408AF0EEF5
:10286000608A51EC180B0BF011FE1349086001222D
:1028700008460168104603F0C3FB01220E480068B9
:102880004142022003F0BCFB01220B480068414298
:10289000032003F0B5FB012207480168042003F080
:1028A000AFFB1DE06D030020942A002046010020AC
:1028B0005C0000205800002054000020FFE70121A8
:1028C000084603F096FC0121022003F092FC01214E
:1028D000032003F08EFC0121042003F08AFC00BFDA
:1028E00000BF00BFF84890F825021A2821D2DFE87F
:1028F00000F0200D21374D6393C5EFEEEDECEBEAD0
:10290000E9E8E7E6E5E4E3E2E1E0DFDEEF480CF0EA
:1029100043FAB0EE408AF0EE608A51EC180B0BF0EF
:10292000D4FDEB490870084601780122104601F0F9
:1029300008FE2FE2E5480CF02FFAB0EE408AF0EEE8
:10294000608A51EC180B0BF0C0FDE14981F854008E
:10295000084690F854100122022001F0F2FD19E21D
:10296000DA480CF019FAB0EE408AF0EE608A51ECC9
:10297000180B0BF0AAFDD64981F8A800084690F87C
:10298000A8100122032001F0DCFD03E2CF480CF087
:1029900003FAB0EE408AF0EE608A51EC180B0BF0AF
:1029A00094FDCB4981F8FC00084690F8FC10012208
:1029B000042001F0C6FDEDE1C5480078022813D1DE
:1029C000C2480CF0E9F9B0EE408AF0EE608A51ECB2
:1029D000180B0BF05BFDBF49086001220846016837
:1029E000104602F001F916E0B9480078052812D126
:1029F000B6480CF0D1F9B0EE408AF0EE608A51ECA6
:102A0000180B0BF043FDB449086001220846016829
:102A1000104601F07EFFBDE1AD4890F85400022859
:102A200013D1AA480CF0B8F9B0EE408AF0EE608AF3
:102A300051EC180B0BF02AFDA6490860012208464C
:102A40000168022002F0D0F817E0A14890F8540085
:102A5000052812D19D480CF09FF9B0EE408AF0EEA7
:102A6000608A51EC180B0BF011FD9B4908600122A4
:102A700008460168022001F04CFF8BE1944890F871
:102A8000A800022825D191480CF086F9B0EE408AC2
:102A9000F0EE608A51EC180B0BF0F8FC8D490860E1
:102AA000012208460168032002F09EF829E060E157
:102AB00055E159E149E1F7E04CE135E123E111E16C
:102AC000DEE0C9E0B4E09FE08AE075E060E04BE062
:102AD00018E07F4890F8A800052812D17B480CF038
:102AE0005BF9B0EE408AF0EE608A51EC180B0BF007
:102AF000CDFC79490860012208460168032001F0F5
:102B000008FF47E1724890F8FC00022813D16F4893
:102B10000CF042F9B0EE408AF0EE608A51EC180BEE
:102B20000BF0B4FC6B4908600122084601680420E0
:102B300002F05AF817E0664890F8FC00052812D118
:102B400062480CF029F9B0EE408AF0EE608A51EC50
:102B5000180B0BF09BFC60490860012208460168D5
:102B6000042001F0D6FE15E158480CF015F9B0EE3E
:102B7000408AF0EE608A51EC180B0BF087FC574945
:102B80000860012208460168104601F041FF01E19A
:102B90004E480CF001F9B0EE408AF0EE608A51EC3C
:102BA000180B0BF073FC4D490860012208460168C0
:102BB000022001F02DFFEDE044480CF0EDF8B0EEFE
:102BC000408AF0EE608A51EC180B0BF05FFC434931
:102BD0000860012208460168032001F019FFD9E0CE
:102BE0003A480CF0D9F8B0EE408AF0EE608A51EC29
:102BF000180B0BF04BFC39490860012208460168AC
:102C0000042001F005FFC5E030480CF0C5F8B0EE37
:102C1000408AF0EE608A51EC180B0BF037FC30491B
:102C20000860012208460168104601F070FFB1E01B
:102C300026480CF0B1F8B0EE408AF0EE608A51EC14
:102C4000180B0BF023FC2649086001220846016896
:102C5000022001F05CFF9DE01C480CF09DF8B0EEF6
:102C6000408AF0EE608A51EC180B0BF00FFC1C4907
:102C70000860012208460168032001F048FF89E04E
:102C800012480CF089F8B0EE408AF0EE608A51EC00
:102C9000180B0BF0FBFB1249086001220846016883
:102CA000042001F034FF75E0074890F8280208B1CD
:102CB000012000E0002006494870084641780122C2
:102CC000104601F01CFD65E0460100206D03002068
:102CD00064260020480000203C0000204400002022
:102CE0004C000020FE4890F8280208B1012100E0C5
:102CF0000021FC4880F8551090F855100122022060
:102D000001F0FDFC46E0F64890F8280208B10121E8
:102D100000E00021F34880F8A91090F8A9100122E2
:102D2000032001F0ECFC35E0ED4890F8280208B1F2
:102D3000012100E00021EB4880F8FD1090F8FD1023
:102D40000122042001F0DBFC24E00121084601F00F
:102D5000FFFC1FE00121022001F0FAFC1AE0012132
:102D6000032001F0F5FC15E00121042001F0F0FC46
:102D700010E00121084601F067FD0121022001F069
:102D800063FD0121032001F05FFD0121042001F01A
:102D90005BFD00BF00BF00BF0020D349087000E00A
:102DA00003E02021D1480BF056FBBDEC028B10BD97
:102DB00010B50446CE48C07A50B92146CD4807F038
:102DC00050FA0121CB4807F02BFA0120C849C872FC
:102DD00010BD10B50024EE222146641CC6484254A2
:102DE000B1222146641C425410222146641C4254E4
:102DF00000222146641C42542146641C4254214650
:102E0000641C425405222146641C4254012220467F
:102E1000611CCCB2B8490A54FF222046611CCCB2D6
:102E2000B5490A54FC222046611CCCB2B2490A546E
:102E3000FF222046611CCCB2AF490A542046611CD7
:102E4000CCB2AD490A54AD480078062881F0B48070
:102E5000DFE810F0B2080600080009000A005E046E
:102E600001F0ABB8FCE7FBE7EE222046611CCCB2D8
:102E7000A1490A54B1222046611CCCB29E490A5491
:102E800012222046611CCCB29B490A5400222046E3
:102E9000611CCCB298490A5404222046611CCCB271
:102EA00095490A549648807800287CD00022204614
:102EB000611CCCB290490A5404222046611CCCB259
:102EC0008D490A5400222046611CCCB28A490A541A
:102ED0008B4882788BA18C480BF048FF8A480BF016
:102EE000C5FAC2B22046611CCCB283490A54081903
:102EF00085490BF0C2FA84480BF0B8FA2044C4B2FA
:102F000000222046611CCCB27B490A54082220468C
:102F1000611CCCB278490A5400222046611CCCB214
:102F200075490A547648B0F9182076A176480BF016
:102F30001DFF75480BF09AFAC2B22046611CCCB254
:102F40006D490A54081970490BF097FA6E480BF056
:102F50008DFA2044C4B200222046611CCCB26649DE
:102F60000A540C222046611CCCB263490A54002248
:102F70002046611CCCB260490A546148B0F9142063
:102F800060A161480BF0F2FE5F480BF06FFAC2B22D
:102F90002046611CCCB258490A5408195A490BF012
:102FA0006CFA594800E06CE00BF060FA2044C4B2BF
:102FB00000222046611CCCB24F490A5411222046FF
:102FC000611CCCB24C490A5400222046611CCCB290
:102FD00049490A544A48B0F896204AA14A480BF099
:102FE000C5FE49480BF042FAC2B22046611CCCB281
:102FF00041490A54081944490BF03FFA42480BF082
:1030000035FA2044C4B200222046611CCCB23A49B1
:103010000A5415222046611CCCB237490A540022BA
:103020002046611CCCB234490A5401222046611C5E
:10303000CCB231490A54324802782046611CCCB2E5
:103040002D490A5400222046611CCCB22A490A5458
:1030500019222046611CCCB227490A54002220467E
:10306000611CCCB224490A5401222046611CCCB216
:1030700021490A54224842782046611CCCB21E499C
:103080000A541F4890F8CE0000287DD00022204628
:10309000611CCCB218490A5405222046611CCCB2EE
:1030A00015490A5400222046611CCCB212490A5428
:1030B000134890F8CE2013A113480BF057FE124886
:1030C0000BF0D4F9C2B22046611CCCB20A490A54B2
:1030D00008190D490BF0D1F90B480BF0C7F915E0B1
:1030E0004601002064260020230000206603002003
:1030F000C6030020A06002406602002022000020DB
:10310000942A002025640000182600202044C4B220
:1031100000222046611CCCB2FE490A5409222046F6
:10312000611CCCB2FB490A5400222046611CCCB27F
:10313000F8490A54F848B0F9E420AFF23801F748EA
:103140000BF014FEF5480BF091F9C2B22046611C59
:10315000CCB2F0490A540819F0490BF08EF9EF4847
:103160000BF084F92044C4B200222046611CCCB28A
:10317000E8490A540D222046611CCCB2E5490A54A4
:1031800000222046611C00E088E0CCB2E1490A54EC
:10319000E148B0F9E020AFF29401E0480BF0E6FD21
:1031A000DE480BF063F9C2B22046611CCCB2D949AB
:1031B0000A540819D9490BF060F9D8480BF056F9B0
:1031C0002044C4B200222046611CCCB2D1490A542A
:1031D00012222046611CCCB2CE490A54002220465D
:1031E000611CCCB2CB490A54CB48B0F86221AFF293
:1031F000EC01CA480BF0BAFDC8480BF037F9C2B26F
:103200002046611CCCB2C3490A540819C3490BF0CB
:1032100034F9C2480BF02AF92044C4B200222046F7
:10322000611CCCB2BB490A5416222046611CCCB2A8
:10323000B8490A5400222046611CCCB2B5490A5450
:1032400001222046611CCCB2B2490A54B24890F81F
:10325000CC202046611CCCB2AE490A540022204644
:10326000611CCCB2AB490A541A222046611CCCB274
:10327000A8490A5400222046611CCCB2A5490A5430
:1032800001222046611CCCB2A2490A54A24890F8FF
:10329000CD202046611CCCB29E490A549E4890F82D
:1032A0009A0100287DD000222046611CCCB29949A9
:1032B0000A5406222046611CCCB296490A540022C8
:1032C0002046611CCCB293490A54934890F89A2145
:1032D000AFF2D01191480BF049FD90480BF0C6F8C1
:1032E000C2B22046611CCCB28A490A5408198B49E3
:1032F0000BF0C3F889480BF0B9F82044C4B200229F
:103300002046611CCCB283490A540A222046611C23
:10331000CCB280490A5400222046611CCCB27D49BF
:103320000A547D48B0F9B021AFF228217B480BF058
:103330001DFD7A480BF09AF8C2B22046611CCCB24F
:1033400074490A54081975490BF097F873480BF043
:103350008DF82044C4B200222046611CCCB26D49D5
:103360000A540E222046611CCCB26A490A5400223B
:103370002046611CCCB267490A546748B0F9AC21B9
:10338000AFF2802165480BF0F1FC64480BF06EF859
:10339000C2B22046611CCCB25E490A5408195F498A
:1033A00000E072E00BF069F85C480BF05FF8204435
:1033B000C4B200222046611CCCB256490A541322E2
:1033C0002046611CCCB253490A5400222046611C9D
:1033D000CCB250490A545048B0F82E22AFF2DC214A
:1033E0004E480BF0C3FC4D480BF040F8C2B22046EB
:1033F000611CCCB247490A54081948490BF03DF802
:1034000046480BF033F82044C4B200222046611C29
:10341000CCB240490A5417222046611CCCB23D4927
:103420000A5400222046611CCCB23A490A540122B7
:103430002046611CCCB237490A54374890F898218D
:103440002046611CCCB233490A5400222046611C3C
:10345000CCB230490A541B222046611CCCB22D4903
:103460000A5400222046611CCCB22A490A54012287
:103470002046611CCCB227490A54274890F899216C
:103480002046611CCCB223490A54234890F86602B6
:1034900000287DD000222046611CCCB21D490A5470
:1034A00007222046611CCCB21A490A540022204649
:1034B000611CCCB217490A54174890F86622AFF243
:1034C000BC3116480BF052FC14480AF0CFFFC2B2D0
:1034D0002046611CCCB20F490A5408190F490AF062
:1034E000CCFF0E480AF0C2FF2044C4B2002220469E
:1034F000611CCCB207490A540B222046611CCCB295
:1035000004490A5400222046611CCCB201490A54E5
:10351000014805E066020020942A002018260020B9
:10352000B0F97C22AFF22441FE480BF01FFCFD48AD
:103530000AF09CFFC2B22046611CCCB2FA490A5480
:103540000819F8490AF099FFF6480AF08FFF20445D
:10355000C4B200222046611CCCB2F3490A540F22A7
:103560002046611CCCB2F0490A5400222046611C5E
:10357000CCB2ED490A54ED48B0F97822AFF27C4163
:10358000E8480BF0F3FBE7480AF070FFC2B200E036
:1035900079E02046611CCCB2E3490A540819E1499C
:1035A0000AF06BFFDF480AF061FF2044C4B200223A
:1035B0002046611CCCB2DC490A5414222046611C0E
:1035C000CCB2D9490A5400222046611CCCB2D6495B
:1035D0000A54D648B0F8FA22AFF2D841D1480BF0DD
:1035E000C5FBD0480AF042FFC2B22046611CCCB2F3
:1035F000CD490A540819CB490AF03FFFC9480AF0DF
:1036000035FF2044C4B200222046611CCCB2C6491A
:103610000A5418222046611CCCB2C3490A54002225
:103620002046611CCCB2C0490A5401222046611CCC
:10363000CCB2BD490A54BD4890F864222046611CB2
:10364000CCB2B9490A5400222046611CCCB2B6491A
:103650000A541C222046611CCCB2B3490A540022F1
:103660002046611CCCB2B0490A5401222046611C9C
:10367000CCB2AD490A54AD4890F865222046611C91
:10368000CCB2A9490A5400222046611CCCB2A649FA
:103690000A5410222046611CCCB2A3490A540022CD
:1036A0002046611CCCB2A0490A54A1484068406839
:1036B0000288A0A19B480BF059FB9A480AF0D6FE5D
:1036C000C2B22146601CC4B2974842540146081950
:1036D00094490AF0D2FE93480AF0C8FE2044C4B2CE
:1036E000FF222046611CCCB28F490A54FC2220469E
:1036F000611CCCB28C490A54FF222046611CCCB21A
:1037000089490A542046611CCCB287490A54FDE31A
:10371000EE222046611CCCB283490A54B1222046D5
:10372000611CCCB280490A5412222046611CCCB2E2
:103730007D490A5400222046611CCCB27A490A54C1
:1037400005222046611CCCB277490A54774890F88C
:10375000320300287DD000222046611CCCB2724981
:103760000A5404222046611CCCB26F490A5400223C
:103770002046611CCCB26C490A546C4890F8322344
:10378000AFF2806167480BF0F1FA66480AF06EFE0E
:10379000C2B22046611CCCB263490A54081961497F
:1037A0000AF06BFE5F480AF061FE2044C4B20022BA
:1037B0002046611CCCB25C490A5408222046611C98
:1037C000CCB259490A5400222046611CCCB2564959
:1037D0000A545648B0F94823AFF2D86151480BF06B
:1037E000C5FA50480AF042FEC2B22046611CCCB273
:1037F0004D490A5408194B490AF03FFE49480AF05E
:1038000035FE2044C4B200222046611CCCB2464999
:103810000A540C222046611CCCB243490A540022AF
:103820002046611CCCB240490A544048B0F94423B8
:10383000AFF230713B480BF099FA3A480AF016FEA5
:10384000C2B22046611CCCB237490A540819354926
:1038500000E07DE00AF011FE32480AF007FE204445
:10386000C4B200222046611CCCB22F490A54112256
:103870002146601CC4B22C48425400222046611CE0
:10388000CCB229490A542948B0F8C623AFF28C714A
:1038900024480BF06BFA23480AF0E8FDC2B2204638
:1038A000611CCCB220490A5408191E490AF0E5FDF2
:1038B0001C480AF0DBFD2044C4B200222046611CF3
:1038C000CCB219490A5415222046611CCCB21649C3
:1038D0000A5400222046611CCCB213490A5401222A
:1038E0002046611CCCB210490A54104890F830238D
:1038F0002046611CCCB20C490A5400222046611CAF
:10390000CCB209490A5419222046611CCCB206499E
:103910000A5400222046611CCCB203490A540122F9
:10392000204609E01826002066020020942A002084
:103930000400002025780000611CCCB2FE490A5426
:10394000FE4890F831232046611CCCB2FA490A5453
:10395000FA4890F8FE0300287DD000222046611C22
:10396000CCB2F5490A5405222046611CCCB2F2497A
:103970000A5400222046611CCCB2EF490A54EF4899
:1039800090F8FE23AFF68401ED480BF0EFF9EC4818
:103990000AF06CFDC2B22046611CCCB2E6490A5462
:1039A0000819E7490AF069FDE5480AF05FFD20447F
:1039B000C4B200222146601CC4B2DF48425409222E
:1039C0002046611CCCB2DC490A5400222046611C0E
:1039D000CCB2D9490A54D948B0F91424AFF6DC0165
:1039E000D7480BF0C3F9D6480AF040FDC2B22046D2
:1039F000611CCCB2D0490A540819D1490AF03DFDE6
:103A0000CF480AF033FD2044C4B200222046611C96
:103A1000CCB2C9490A540D222046611CCCB2C64919
:103A20000A5400222046611CCCB2C3490A54C34840
:103A3000B0F91024AFF63411C1480BF097F9C04823
:103A40000AF014FDC2B22046611CCCB2BA490A5435
:103A50000819BB4900E072E00AF00FFDB8480AF00F
:103A600005FD2044C4B200222046611CCCB2B249FC
:103A70000A5412222046611CCCB2AF490A540022DB
:103A80002146601CC4B2AC484254AC48B0F8922401
:103A9000AFF69011AA480BF069F9A9480AF0E6FCC4
:103AA000C2B22046611CCCB2A3490A540819A449E9
:103AB0000AF0E3FCA2480AF0D9FC2044C4B2002278
:103AC0002046611CCCB29C490A5416222046611C37
:103AD000CCB299490A5400222046611CCCB29649C6
:103AE0000A5401222046611CCCB293490A549348DF
:103AF00090F8FC232046611CCCB28F490A54002266
:103B00002046611CCCB28C490A541A222046611C02
:103B1000CCB289490A5400222046611CCCB28649A5
:103B20000A5401222046611CCCB283490A548348BE
:103B300090F8FD232046611CCCB27F490A547F488F
:103B400090F8CA0400287DD000222046611CCCB227
:103B500079490A5406222046611CCCB276490A549F
:103B600000222046611CCCB273490A54734890F875
:103B7000CA24AFF6702172480BF0F8F870480AF0CA
:103B800075FCC2B22046611CCCB26B490A540819BC
:103B90006B490AF072FC6A480AF068FC2044C4B21F
:103BA00000222046611CCCB263490A540A222046F6
:103BB000611CCCB260490A5400222046611CCCB280
:103BC0005D490A545D48B0F9E024AFF6C8215C486D
:103BD0000BF0CCF85A480AF049FCC2B22046611CEE
:103BE000CCB255490A54081955490AF046FC5448C4
:103BF0000AF03CFC2044C4B200222146601CC4B23E
:103C00004D4842540E222046611CCCB24A490A5407
:103C100000222046611CCCB247490A544748B0F9FB
:103C2000DC24AFF6203146480BF0A0F844480AF0F7
:103C30001DFCC2B22046611CCCB23F490A5408198F
:103C40003F4900E072E00AF018FC3D480AF00EFC23
:103C50002044C4B200222046611CCCB236490A542A
:103C600013222046611CCCB233490A54002220465C
:103C7000611CCCB230490A543048B0F85E25AFF62A
:103C80007C312F480BF072F82D480AF0EFFBC2B2DE
:103C90002046611CCCB228490A54081928490AF068
:103CA000ECFB27480AF0E2FB2044C4B20022204685
:103CB000611CCCB220490A5417222046611CCCB2A8
:103CC0001D490A5400222046611CCCB21A490A54EC
:103CD00001222046611CCCB217490A54174890F8BB
:103CE000C8242046611CCCB213490A540022204645
:103CF000611CCCB210490A541B222146601CC4B27C
:103D00000D48425400222146601CC4B20A48425465
:103D100001222046611CCCB207490A54074890F89A
:103D2000C9242046611CCCB203490A54034890F8C8
:103D3000960500287ED005E066020020942A002027
:103D40001826002000222046611CCCB29D490A544E
:103D500007222046611CCCB29A490A540022204610
:103D6000611CCCB297490A54974890F89625AFF653
:103D70006C4196480AF0FAFF94480AF077FBC2B209
:103D80002146601CC4B28F484254014608198F492D
:103D90000AF073FB8D480AF069FB2044C4B200228C
:103DA0002146601CC4B2874842540B222046611C45
:103DB000CCB284490A5400222046611CCCB281490D
:103DC0000A548148B0F9AC25AFF6C8417F480AF0E3
:103DD000CDFF7E480AF04AFBC2B22046611CCCB23D
:103DE00078490A54081979490AF047FB77480AF0DC
:103DF0003DFB2044C4B200222046611CCCB2714974
:103E00000A540F222146601CC4B26E48425400225C
:103E10002046611CCCB26B490A546B48B0F9A82506
:103E2000AFF6205169480AF0A1FF68480AF01EFB6E
:103E3000C2B200E07BE02046611CCCB261490A546A
:103E4000081962490AF019FB60480AF00FFB204488
:103E5000C4B200222046611CCCB25A490A54142232
:103E60002146601CC4B25748425400222046611CBF
:103E7000CCB254490A545448B0F82A26AFF67C51C3
:103E800052480AF073FF51480AF0F0FAC2B22046D5
:103E9000611CCCB24B490A5408194C490AF0EDFA9E
:103EA0004A480AF0E3FA2044C4B200222046611CCA
:103EB000CCB244490A5418222046611CCCB2414974
:103EC0000A5400222046611CCCB23E490A54012209
:103ED0002046611CCCB23B490A543B4890F89425DB
:103EE0002146601CC4B23748425400222046611C5F
:103EF000CCB234490A541C222046611CCCB2314950
:103F00000A5400222146601CC4B200E055E02D484E
:103F1000425401222046611CCCB22A490A542A4844
:103F200090F895252146601CC4B2264842540022D0
:103F30002146601CC4B22348425410222146601C12
:103F4000C4B22048425400222146601CC4B21D481D
:103F500042541F48406840680288AFF228611B48FD
:103F60000AF004FF19480AF081FAC2B22046611C27
:103F7000CCB214490A54081914490AF07EFA1348BD
:103F80000AF074FA2044C4B2FF222146601CC4B275
:103F90000C484254FC222046611CCCB209490A5408
:103FA000FF222146601CC4B2064842542046611CD0
:103FB000CCB204490A5400E000BF00BF2046FEF71F
:103FC000F7FE10BD66020020942A0020182600206B
:103FD0000400002000B597B00121042006F0CCFCBD
:103FE0000121880406F0FBFC0121480506F0C4FC11
:103FF00007220A21634806F004FB07220B216148CF
:1040000006F0FFFA4FF44060119002208DF848004E
:1040100000208DF84A0003208DF8490000208DF81B
:104020004B0011A9574806F061FA4FF4E1301390A4
:104030000020ADF85000ADF85200ADF85400ADF8D6
:1040400058000C20ADF8560013A94F4807F072FC39
:10405000012240F225514C4807F0AAFD27208DF897
:10406000400002208DF8410003208DF8420001201D
:104070008DF8430010A805F094FA444805F0F4FFC9
:104080004FF00060019000200590402004904048CF
:1040900003903D48001D02900015079000200690F7
:1040A000099008900A904FF440300B9000200C903B
:1040B00001200D9000200F900E9001A9334806F0CA
:1040C00075F83449314806F024F932492F4806F092
:1040D0007BF90E208DF8400002208DF8410004206D
:1040E0008DF8420001208DF8430010A805F059FA20
:1040F00001221021254806F020F9012280212248C2
:1041000007F04DFD17B000BD10B522491F4806F05D
:1041100031F901280AD11F491C4806F0FAF81D4957
:104120001A4806F051F900201B49087310BD70B5FC
:1041300004460D461848007B78B92A4621461448A3
:104140000AF070F92946114806F08BF801210F4852
:1041500006F066F801201049087370BD10B540F2F2
:104160002551094807F05FFD50B12021064807F0AE
:1041700051FD40F22551044807F08CFD04F09EFBF0
:1041800010BD000000080240004800405860024096
:104190008603002000800018C603002000228261F0
:1041A0000160C26100230362436280ED031A80ED67
:1041B000010AC0ED020AC0ED041A70470168826965
:1041C000891AC161C269016A511A00EE101AB8EE6B
:1041D000C00AD0ED010A20EE200A90ED021AC16952
:1041E00000EE901AF8EEE00A01EE200AC269416A78
:1041F0000A44016AA2EB410100EE901AF8EEE00ACF
:1042000090ED031A01EE200ABDEEC00A10EE101A5E
:104210004161026A4262C269026270472DE9F0415F
:1042200086B004460D4616461F464FF00008002093
:104230008DF80C008DF80D0008208DF80E0040F26E
:10424000FF18CDF80480042003F090FD28B9200A5F
:104250008DF80F008DF8104005E000208DF80F005C
:1042600000218DF81010052003F080FD28B9290ADF
:104270008DF811108DF8125004E000218DF8111006
:104280008DF81210062003F071FD28B9310A8DF85F
:1042900013108DF8146004E000218DF813108DF8D0
:1042A0001410072003F062FD28B9390A8DF81510A3
:1042B0008DF8167004E000218DF815108DF8161099
:1042C00001A9584805F06AFB06B0BDE8F0812DE968
:1042D000F04186B004460D4616461F464FF00008D2
:1042E00000208DF80C008DF80D0008208DF80E00D0
:1042F0004FF40078CDF80480002003F037FD28B992
:10430000200A8DF80F008DF8104005E000208DF890
:104310000F0000218DF81010012003F027FD28B9AF
:10432000290A8DF811108DF8125004E000218DF843
:1043300011108DF81210022003F018FD28B9310A6F
:104340008DF813108DF8146004E000218DF813101F
:104350008DF81410032003F009FD28B9390A8DF8EF
:1043600015108DF8167004E000218DF815108DF8E9
:10437000161001A92B4805F011FB06B0BDE8F0812D
:1043800000204BE000EB001101EB4101264A02EB5B
:104390008101B1F90610002908DD00EB001101EBE5
:1043A000410102EB8101B1F9061009E000EB0011B7
:1043B00001EB41011C4A02EB8101B1F906104942AF
:1043C00000EB001202EB4202174B03EB8202B2F841
:1043D000C420914220DD00EB001101EB41011A469F
:1043E00002EB8101B1F90610002902DA4FF0FF312A
:1043F00000E0012100EB001202EB42020A4B03EB4A
:104400008202B2F8C42051430AB200EB001101EB62
:10441000410103EB8101CA80411CC8B20828B1DB0D
:104420007047000000680040942A002010B54FF447
:104430008050FA490880B7EE000A084680ED010A6C
:104440004FF48050F6490880B7EE000A084680ED28
:10445000010A4FF48050F3490880B7EE000A08467D
:1044600080ED010A0020F04908709FEDF00A08462F
:1044700080ED010A012008724FF47A704881012012
:1044800008734FF4FA70C881C00008828010E849B0
:1044900008820020E749087048708870C870087169
:1044A00048718871C871E448DC4A06CAC0E9131231
:1044B0000020E1494870022008704FF4967088800F
:1044C0006421DD488160C1800021C1601422D64989
:1044D000203009F0A7FFD848D5490A684263898887
:1044E0000187D348C188D4484187D14CA168E2688C
:1044F000236964693C301EC010BD10B586B0044607
:10450000002001908DF80D008DF80C0008208DF82A
:104510000E0001208DF80F0000218DF810108DF88D
:1045200011108DF812108DF813108DF814108DF8ED
:1045300015108DF8161001A9204605F02FFA06B0C7
:1045400010BD70B504460D461646BC484088401C58
:104550001E2190FBF1F201FB1200B8490988884244
:1045600003D10120B649C87170BD04F54070B3494C
:104570004A88091D01EB021108600821AF484288F2
:10458000001D00EB021001715521AC484288001D4E
:1045900000EB021041714D21A8484288001D00EB3C
:1045A000021081710021A5484288001D00EB021015
:1045B000C171A2484288001D00EB021001729F48A1
:1045C0004188001D00EB0110457200219B48428884
:1045D000001D00EB0210817298484288001D00EB1C
:1045E0000210C17295484288001D00EB0210017351
:1045F00092484088401C1E2190FBF1F201FB120002
:104600008E4948800121601EC0EBC00000EB4000D5
:10461000894A02EB800080F8471009F041FD611ED5
:10462000C1EBC10101EB4101834A02EB8101086446
:1046300000BF99E770B504460D4680484088401C8D
:104640001E2190FBF1F201FB12007C49098888428F
:1046500003D101207A49C87170BD04F540707749D3
:104660004A88091D01EB0211086004217348428841
:10467000001D00EB02100171532170484288001D9B
:1046800000EB0210417156216C484288001D00EB7E
:1046900002108171002169484288001D00EB021060
:1046A000C17166484288001D00EB02100172634828
:1046B0004188001D00EB0110457360484088401C94
:1046C0001E2190FBF1F201FB12005C4948800121A0
:1046D000601EC0EBC00000EB4000574A02EB8000B8
:1046E00080F8471009F0DCFC611EC1EBC10101EB51
:1046F0004101514A02EB8101086400BFACE770B58B
:1047000086B005460C46164605F54070019000201F
:104710008DF80D008DF80C0008208DF80E004D204E
:104720008DF80F004F218DF8101000218DF8111019
:104730008DF812108DF813408DF814108DF81510A7
:104740008DF8161001A93F4805F028F906B070BD94
:1047500070B504460D4639484088401C1E2190FB28
:10476000F1F201FB120035490988884203D101208A
:104770003349C87170BD04F5407030494A88091D3D
:1047800001EB0211086004212C484288001D00EB57
:1047900002100171422129484288001D00EB0210DD
:1047A0004171472125484288001D00EB02108171AC
:1047B000002122484288001D00EB0210C1711F48F1
:1047C0004288001D00EB021001721C484188001D48
:1047D00000EB0110457319484088401C1E2190FBD6
:1047E000F1F201FB1200154948800121601EC0EB67
:1047F000C00000EB4000104A02EB800080F8471038
:1048000009F04EFC611EC1EBC10101EB41010A4AF6
:1048100002EB8101086400BFACE700002400002027
:104820002C000020340000203826002000003444F2
:104830004C26002008280020642600203C58002038
:10484000C60300200068004070B504460D46F948D4
:104850004088401C1E2190FBF1F201FB1200F5493B
:104860000988884203D10120F349C87170BD04F55D
:104870004070F0494A88091D01EB021108600421CB
:10488000EC484288001D00EB021001715321E948F9
:104890004288001D00EB021041715421E548428816
:1048A000001D00EB021081710021E2484288001DCA
:1048B00000EB0210C171DF484288001D00EB0210BE
:1048C0000172DC484188001D00EB01104573D94896
:1048D0004088401C1E2190FBF1F201FB1200D549DB
:1048E00048800121601EC0EBC00000EB4000D34AAD
:1048F00002EB800080F8471009F0D2FB611EC1EB8B
:10490000C10101EB4101CD4A02EB8101086400BF06
:10491000ACE72DE9F04104460D461646601EC0EB9B
:10492000C00000EB4000C54901EB8000B0F84C002E
:1049300080003C2190FBF1F000FB05F7BD4840886A
:10494000401C1E2190FBF1F201FB1200B9490988BD
:10495000884204D10120B849C871BDE8F08104F54E
:104960004070B4494A88091D01EB02110860082112
:10497000B0484288001D00EB021001715321AD4880
:104980004288001D00EB021041715021A948428865
:10499000001D00EB021081710021A6484288001D15
:1049A00000EB0210C171A3484288001D00EB021009
:1049B0000172A0484188001D00EB0110C0F8097089
:1049C0009C484188001D00EB0110467399484088BF
:1049D000401C1E2190FBF1F201FB1200954948801A
:1049E0000121601EC0EBC00000EB4000934A02EBC7
:1049F000800080F8471009F053FB611EC1EBC10134
:104A000001EB41018D4A02EB8101086400BFA4E77C
:104A10002DE9F04104460D461646601EC0EBC0006D
:104A200000EB4000854901EB8000B0F84C008000AD
:104A30003C2190FBF1F000FB05F77E484088401CCC
:104A40001E2190FBF1F201FB12007A49098888428D
:104A500004D101207849C871BDE8F08104F54070A7
:104A600074494A88091D01EB021108600821714848
:104A70004288001D00EB0210017150216D484288F0
:104A8000001D00EB0210417141216A484288001D5F
:104A900000EB02108171002166484288001D00EB86
:104AA0000210C17163484288001D00EB02100172C0
:104AB00060484188001D00EB0110C0F809705D4896
:104AC0004188001D00EB011046735A484088401C85
:104AD0001E2190FBF1F201FB120056494880012192
:104AE000601EC0EBC00000EB4000544A02EB8000A7
:104AF00080F8471009F0D4FA611EC1EBC10101EB47
:104B000041014E4A02EB8101086400BFA4E770B581
:104B100004460D46164647484088401C1E2190FB1F
:104B2000F1F201FB120043490988884203D10120B8
:104B30004149C87170BD04F540703E494A88091D5D
:104B400001EB0211086008213A484288001D00EB81
:104B500002100171502137484288001D00EB0210FD
:104B60004171582133484288001D00EB02108171C9
:104B7000002130484288001D00EB0210C1712D4811
:104B80004288001D00EB021001722A484188001D76
:104B900000EB0110C0F8095026484188001D00EBC9
:104BA0000110467323484088401C1E2190FBF1F2FF
:104BB00001FB12001F4948800121601EC0EBC000AC
:104BC00000EB40001D4A02EB800080F8471009F01E
:104BD00067FA611EC1EBC10101EB4101174A02EB0B
:104BE0008101086400BFA5E72DE9F04104460D46A8
:104BF0001646601EC0EBC00000EB40000F4901EB01
:104C00008000B0F84C0080003C2190FBF1F000FBEC
:104C100005F708484088401C1E2190FBF1F201FB7B
:104C200012000449098888420AD101200249C8714A
:104C3000BDE8F0813C580020C60300206426002017
:104C400004F54070FE494A88091D01EB0211086015
:104C50000821FB484288001D00EB021001714A2127
:104C6000F7484288001D00EB021041715621F448BC
:104C70004288001D00EB021081710021F04842883B
:104C8000001D00EB0210C171ED484288001D00EBD1
:104C900002100172EA484188001D00EB0110C0F8C3
:104CA0000970E7484188001D00EB01104673E44895
:104CB0004088401C1E2190FBF1F201FB1200E049EC
:104CC00048800121601EC0EBC00000EB4000DD4ABF
:104CD00002EB800080F8471009F0E2F9611EC1EB99
:104CE000C10101EB4101D74A02EB8101086400BF19
:104CF0009EE770B504460D461646D1484088401CD4
:104D00001E2190FBF1F201FB1200CD490988884277
:104D100003D10120CC49C87170BD04F54070C84969
:104D20004A88091D01EB021108600821C448428825
:104D3000001D00EB021001715221C1484288001D84
:104D400000EB021041714D21BD484288001D00EB6F
:104D5000021081710021BA484288001D00EB021048
:104D6000C171B7484288001D00EB02100172B448BF
:104D70004188001D00EB0110C0F80950B04841887F
:104D8000001D00EB01104673AD484088401C1E21F9
:104D900090FBF1F201FB1200A94948800121601E3D
:104DA000C0EBC00000EB4000A64A02EB800080F898
:104DB000471009F075F9611EC1EBC10101EB41011A
:104DC000A04A02EB8101086400BFA5E770B5044664
:104DD0000D4616469A484088401C1E2190FBF1F271
:104DE00001FB120096490988884203D101209649A7
:104DF000C87170BD04F5407091494A88091D01EBE6
:104E00000211086008218E484288001D00EB021044
:104E1000017150218A484288001D00EB0210417147
:104E2000562187484288001D00EB02108171002145
:104E300083484288001D00EB0210C17180484288FF
:104E4000001D00EB021001727D484188001D00EB3F
:104E50000110457200217A484288001D00EB0210C3
:104E6000817277484288001D00EB0210C1727448BD
:104E70004288001D00EB0210017371484188001D3B
:104E800000EB011046736E484088401C1E2190FBC9
:104E9000F1F201FB12006A4948800121601EC0EB5B
:104EA000C00000EB4000674A02EB800080F847102A
:104EB00009F0F6F8611EC1EBC10101EB4101614A45
:104EC00002EB8101086400BF93E72DE9F04104463D
:104ED0000D4616461F465A484088401C1E2190FB2E
:104EE000F1F201FB120056490988884204D10120E1
:104EF0005549C871BDE8F08104F5407050494A88B1
:104F0000091D01EB0211086008214D484288001D6F
:104F100000EB021001714D2149484288001D00EB51
:104F200002104171502146484288001D00EB0210DA
:104F3000817143484188001D00EB0110C5710021BB
:104F40003F484288001D00EB021001723C48418836
:104F5000001D00EB0110C0F8096039484188001DB0
:104F600000EB0110477336484088401C1E2190FB1F
:104F7000F1F201FB1200324948800121601EC0EBB2
:104F8000C00000EB40002F4A02EB800080F8471081
:104F900009F086F8611EC1EBC10101EB4101294A0C
:104FA00002EB8101086400BFA4E72DE9F04104464B
:104FB0000D4616461F4622484088401C1E2190FB85
:104FC000F1F201FB12001E490988884204D1012038
:104FD0001D49C871BDE8F08104F5407018494A8840
:104FE000091D01EB02110860082115484288001DC7
:104FF00000EB02100171512111484288001D00EBA5
:105000000210417150210E484288001D00EB021031
:1050100081710B484188001D00EB0110C571002112
:1050200007484288001D00EB0210017204484188C5
:10503000001D00EB0110C0F809600148418805E03F
:105040003C58002064260020C6030020001D00EB11
:1050500001104773FC484088401C1E2190FBF1F270
:1050600001FB1200F84948800121601EC0EBC0001E
:1050700000EB4000F54A02EB800080F8471009F091
:105080000FF8611EC1EBC10101EB4101EF4A02EBD8
:105090008101086400BF9DE72DE9F04104460D46FB
:1050A00016461F46E8484088401C1E2190FBF1F23E
:1050B00001FB1200E4490988884204D10120E44937
:1050C000C871BDE8F08104F54070DF494A88091DC8
:1050D00001EB021108600821DB484288001D00EB4B
:1050E000021001715121D8484288001D00EB0210C6
:1050F00041715421D4484288001D00EB0210817197
:10510000D1484188001D00EB0110C5710021CE4837
:105110004288001D00EB02100172CB484188001D3F
:1051200000EB0110C0F80960C7484188001D00EB82
:1051300001104773C4484088401C1E2190FBF1F2C7
:1051400001FB1200C04948800121601EC0EBC00075
:1051500000EB4000BD4A02EB800080F8471008F0E9
:105160009FFF611EC1EBC10101EB4101B74A02EB98
:105170008101086400BFA4E72DE9F04104460D4613
:1051800016461F46B0484088401C1E2190FBF1F295
:1051900001FB1200AC490988884204D10120AC49C6
:1051A000C871BDE8F08104F54070A7494A88091D1F
:1051B00001EB021108600821A3484288001D00EBA2
:1051C000021001715121A0484288001D00EB02101D
:1051D000417156219C484288001D00EB02108171EC
:1051E00099484188001D00EB0110C57100219648C7
:1051F0004288001D00EB0210017293484188001D97
:1052000000EB0110C0F809608F484188001D00EBD9
:10521000011047738C484088401C1E2190FBF1F21E
:1052200001FB1200884948800121601EC0EBC000CC
:1052300000EB4000854A02EB800080F8471008F040
:105240002FFF611EC1EBC10101EB41017F4A02EB5F
:105250008101086400BFA4E770B504460D461646F8
:1052600079484088401C1E2190FBF1F201FB12009E
:1052700075490988884203D101207549C87170BDFC
:1052800004F5407070494A88091D01EB021108605D
:1052900008216D484288001D00EB02100171502169
:1052A00069484288001D00EB021041715421664894
:1052B0004288001D00EB0210817100216248428883
:1052C000001D00EB0210C1715F484288001D00EB19
:1052D000021001725C484188001D00EB011045720C
:1052E000002159484288001D00EB02108172564887
:1052F0004288001D00EB0210C17253484288001D15
:1053000000EB0210017350484188001D00EB0110B2
:1053100046734D484088401C1E2190FBF1F201FB72
:105320001200494948800121601EC0EBC00000EB1B
:105330004000464A02EB800080F8471008F0B0FEBB
:10534000611EC1EBC10101EB4101404A02EB810149
:10535000086400BF93E770B504460D463A4840889C
:10536000401C1E2190FBF1F201FB12003649098816
:10537000884203D101203649C87170BD04F54070E0
:1053800031494A88091D01EB0211086004212E48A9
:105390004288001D00EB021001714A212A48428810
:1053A000001D00EB02104171562127484288001D64
:1053B00000EB02108171002123484288001D00EBA0
:1053C0000210C17120484288001D00EB02100172DA
:1053D0001D484188001D00EB011045731A484088A4
:1053E000401C1E2190FBF1F201FB1200164948807F
:1053F0000121601EC0EBC00000EB4000134A02EB2D
:10540000800080F8471008F04BFE611EC1EBC1011F
:1054100001EB41010D4A02EB8101086400BFACE7DA
:1054200070B504460D4608484088401C1E2190FB7C
:10543000F1F201FB12000449098888420AD10120D7
:105440000349C87170BD00003C580020642600204C
:10545000C603002004F54070F1494A88091D01EB9C
:10546000021108600421EE484288001D00EB021082
:1054700001715021EA484288001D00EB0210417181
:105480004121E7484288001D00EB02108171002194
:10549000E3484288001D00EB0210C171E0484288D9
:1054A000001D00EB02100172DD484188001D00EB79
:1054B00001104573DA484088401C1E2190FBF1F230
:1054C00001FB1200D64948800121601EC0EBC000DC
:1054D00000EB4000D34A02EB800080F8471008F050
:1054E000DFFD611EC1EBC10101EB4101CD4A02EBC1
:1054F0008101086400BFA5E770B504460D46C848A1
:105500004088401C1E2190FBF1F201FB1200C449AF
:105510000988884203D10120C349C87170BD04F5D0
:105520004070BF494A88091D01EB0211086004213F
:10553000BB484288001D00EB021001715021B848A1
:105540004288001D00EB021041715821B448428886
:10555000001D00EB021081710021B1484288001D3E
:1055600000EB0210C171AE484288001D00EB021032
:105570000172AB484188001D00EB01104573A8483B
:105580004088401C1E2190FBF1F201FB1200A4494F
:1055900048800121601EC0EBC00000EB4000A14A22
:1055A00002EB800080F8471008F07AFD611EC1EB25
:1055B000C10101EB41019B4A02EB8101086400BF7C
:1055C000ACE770B504460D4695484088401C1E2146
:1055D00090FBF1F201FB120091490988884203D146
:1055E00001209149C87170BD04F540708C494A880A
:1055F000091D01EB02110860042189484288001D41
:1056000000EB02100171532185484288001D00EB18
:1056100002104171502182484288001D00EB0210A7
:10562000817100217E484288001D00EB0210C1718B
:105630007B484288001D00EB0210017278484188C7
:10564000001D00EB0110457375484088401C1E2169
:1056500090FBF1F201FB1200714948800121601EAC
:10566000C0EBC00000EB40006E4A02EB800080F807
:10567000471008F015FD611EC1EBC10101EB4101AE
:10568000684A02EB8101086400BFACE770B50446CC
:105690000D4663484088401C1E2190FBF1F201FB3F
:1056A00012005F490988884203D101205E49C87110
:1056B00070BD04F540705A494A88091D01EB02117A
:1056C0000860042156484288001D00EB0210017159
:1056D000552153484288001D00EB021041714D21B5
:1056E0004F484288001D00EB0210817100214C4898
:1056F0004288001D00EB0210C17149484288001D1C
:1057000000EB0210017246484188001D00EB0110B9
:10571000457343484088401C1E2190FBF1F201FB79
:1057200012003F4948800121601EC0EBC00000EB21
:1057300040003C4A02EB800080F8471008F0B0FCC3
:10574000611EC1EBC10101EB4101364A02EB81014F
:10575000086400BFACE710B504463448407940B156
:105760000122334801782046FEF7EBFE00202F4946
:105770004871322003F077F92C48407850B101226B
:105780002C4801782046FEF7BAFF0020294908700E
:10579000264948702548007830B101212046FEF79F
:1057A000D7FF002021490870322003F05CF91F4820
:1057B000807940B10122204801682046FFF714FAA1
:1057C00000201A4988711948807840B101221B488D
:1057D00001682046FFF71CF900201449887013481F
:1057E000C07840B10122164801682046FFF791F8C1
:1057F00000200E49C8700D48C07930B10121204603
:10580000FFF722F800200949C8710848007930B133
:1058100001212046FEF70EFF00200449087110BD4B
:105820003C58002064260020C603002008280020E1
:1058300040000020410000204800002044000020DB
:105840003C0000204FF48050FE490880B7EE000A6B
:10585000084680ED010A0020FB4908709FEDFB0A15
:10586000084680ED010A012008724FF4FA70488161
:1058700001200873C820C8814FF47A600882401064
:10588000F3490882F349EF4A05CAC1E9170200202B
:105890004870032008704FF4967088806421ED48AA
:1058A000C1609FEDED0A80ED020A002101616430C4
:1058B000E44A06CAC0E917120021643880F865106E
:1058C0000320E44981F864004FF49671E148A0F8A0
:1058D0006810642101679FEDE00A80ED1B0A00213A
:1058E0004167C830D74A06CAC0E917120021C83834
:1058F00080F8C9100320D74981F8C8004FF4967189
:10590000D448A0F8CC106421C0F8D4109FEDD20A7E
:1059100080ED340A0021C0F8D81000F59670C94A0D
:1059200006CAC0E917120021CA4880F82D110320C9
:10593000C84981F82C014FF49671C648A0F830117F
:105940006421C0F838119FEDC40A80ED4D0A002192
:10595000C0F83C11704710B586B004460020BF491E
:105960008870C87008718871C8710872887248722E
:10597000487148700870C87201908DF80D008DF85C
:105980000C0008208DF80E0001208DF80F0000217A
:105990008DF810108DF811108DF812108DF813106D
:1059A0008DF814108DF815108DF8161001A92046E9
:1059B00003F0F4FF06B010BD70B504460D46164660
:1059C000A7484088401C1E2190FBF1F201FB120009
:1059D000A3490988884203D10120A249C87170BD3A
:1059E00004F5C0609E494A88091D01EB0211086058
:1059F00008219B484288001D00EB02100171222102
:105A000097484288001D00EB0210417160219448C4
:105A10004288001D00EB0210817191484288001DF0
:105A200000EB0210C17100218D484288001D00EB7F
:105A3000021001728A484288001D00EB0210457274
:105A400087484288001D00EB02108172844842881A
:105A5000001D00EB0210C17281484288001D00EB5E
:105A6000021001737E484188001D00EB011046734F
:105A70007B484088401C1E2190FBF1F201FB120084
:105A8000774948800121601E00EBC00202EB001044
:105A9000704A02EB800080F8571008F001FB611E8D
:105AA00001EBC10202EB01116A4A02EB81010865B8
:105AB00000BF94E770B504460D4669484088401C15
:105AC0001E2190FBF1F201FB120065490988884212
:105AD00003D101206349C87170BD04F5C0606049FD
