:020000040800F2
:1000000018B1002031D30008E9A20008EBA20008D3
:10001000FDA2000801A3000805A3000800000000DD
:1000200000000000000000000000000009A300081C
:100030000BA30008000000009BF50008FFF7000874
:100040004BD300084BD300084BD300084BD3000818
:100050004BD300084BD300084BD300084BD3000808
:100060004BD300084BD300084BD300084BD30008F8
:100070004BD300084BD30008B14D00084BD3000808
:100080004BD30008152200084BD300084BD30008BF
:100090004D0B00084BD300084BD300084BD300088E
:1000A0004BD300084BD300084BD300084BD30008B8
:1000B0003F030008B30600084BD300084BD30008E9
:1000C0004BD300084BD300084BD300084BD3000898
:1000D0004BD300084BD300083B220008054E000814
:1000E0004BD300084BD300084BD300084BD3000878
:1000F0004BD300084BD300084BD300084BD3000868
:100100004BD300084BD300084BD300084BD3000857
:100110004BD300084BD300084BD300084BD3000847
:100120004BD300084BD300084BD300084BD3000837
:100130004BD300084BD300084BD300084BD3000827
:100140002F130008671500084BD300084BD3000895
:100150004BD300084BD30008052100084BD30008FF
:100160004BD300084BD300084BD300084BD30008F7
:100170004BD300084BD300084BD300084BD30008E7
:100180004BD300084BD30008DFF80CD00FF0B0FDC4
:1001900000480047711F000818B1002030BF72B638
:1001A000704762B6704780F30888704710B5082022
:1001B00010F0F4F9044600206060204610BD0120D4
:1001C00044494871704710B506F024F9424806F0DA
:1001D000D4F907F01BFF404807F0AFFF04F0A0FF81
:1001E00007F03CFCFFF7EBFF002019E0002100EBDB
:1001F00080023A4B03EB4202517000EB800203EBAA
:10020000420291714FF47A7100EB800203EB4202DB
:100210005180002100EB800203EB42029180401CE0
:100220000228E3DBFFF7C2FF2D49486010BD002222
:100230000A7803780B700270704770B506460C465A
:10024000354600E06D6815B16868A042FAD14CB13E
:1002500060686860204610F079F921480078401EF7
:100260001F49087070BD02460B46114605E008881C
:10027000984201D10846704749680029F7D100200B
:10028000F9E72DE9F041074688463C4641462046BD
:10029000FFF7E9FF08B1BDE8F081002602E06468DD
:1002A000701CC6B20E480078B04201DD002CF6D1B9
:1002B0006CB1082010F072F90546A5F8008060685E
:1002C0006860656006480078401C0549087000BFFA
:1002D000E1E70000C603002000680040280100207C
:1002E000040000201FB5012108460BF0AEFD41F6C9
:1002F000573002900520ADF804000020ADF806004C
:10030000ADF80C0001A94FF080400BF056FF012220
:10031000114690070CF0F2FB012188070BF0D6FF85
:100320001C208DF8000003208DF8010001208DF8BD
:1003300002008DF8030068460AF069FB1FBD70B526
:10034000012188070CF0F1FB01287DD100247DE01C
:10035000C4EB0410BC4901EB800090F83200012886
:100360002BD1C4EB041011F8200030B30FF0CEF8FD
:10037000C4EB0411B44A02EB8101C96A411AC4EB0F
:10038000041002EB8000008E814216D9C4EB0410E9
:10039000114601EB800090F8320001280DD1C4EB2A
:1003A000041001EB800090F82800401CC4EB0411FD
:1003B00002EB810181F8280007E00020C4EB041162
:1003C000A14A02EB810181F82800C4EB04109E4988
:1003D00001EB800090F82800642818DD0121C4EBAF
:1003E0000410994A02EB800080F82510022009F0E1
:1003F00061FC621C032343EA021242F48071934AB7
:100400005068FFF73EFF022009F042FF1AE000208B
:1004100009F03EFF0021C4EB04108B4A02EB800080
:1004200080F82510621C032343EA021242F4807113
:10043000864A5068FFF717FF0546844948682946F1
:10044000FFF7FBFE601C00E0F9E0C4B2042CFFF6ED
:100450007FAF00246FE0C4EBC40000EB40007C4998
:1004600001EB80004078002864D00FF04FF8C4EB17
:10047000C40101EB4101764A02EB8101096C411A8A
:10048000C4EBC40000EB400002EB8000B0F8440075
:1004900081421BD9C4EBC40000EB4000114601EBC4
:1004A000800090F84700012810D1C4EBC40000EB95
:1004B000400001EB8000808F401C81B2C4EBC4007F
:1004C00000EB400002EB8000818708E00021C4EBD4
:1004D000C40000EB40005E4A02EB80008187C4EB61
:1004E000C40000EB40005A4901EB8000808FB0F55A
:1004F0007A7F13DD0121C4EBC40000EB4000544AB5
:1005000002EB8000C177022009F0D4FB032009F040
:10051000BFFE4FF4FA7009F0D4FC0BE0002009F0A4
:10052000B7FE0021C4EBC40000EB4000484A02EBD8
:100530008000C177641C042C8DD3002404E0204685
:1005400005F03AFE601CC4B2082CF8DB002474E00D
:1005500004EBC40000EB04103E4901EB800040783E
:1005600090B30EF0D3FF04EBC40101EB0411394A40
:1005700002EB8101096D411A04EBC40000EB041089
:1005800002EB8000B0F8540081421ED904EBC40095
:1005900000EB0410114601EB800090F85700012891
:1005A00013D104EBC40000EB041001EB8000B0F8A1
:1005B0004C00401C81B204EBC40000EB041002EBC1
:1005C0008000A0F84C100AE035E0002104EBC400E4
:1005D00000EB04101F4A02EB8000A0F84C1004EB63
:1005E000C40000EB04101B4901EB8000B0F84C0084
:1005F000642813DD012104EBC40000EB0410154A4C
:1006000002EB800080F82F10022009F053FB042039
:1006100009F03EFEC82009F054FC0CE0002009F06F
:1006200037FE002104EBC40000EB0410094A02EB82
:10063000800080F82F10601CC4B2042C88DB0121DC
:1006400088070CF083FA70BD402F002004000020C2
:10065000802D00206C3000201FB5012102200BF0FE
:10066000F4FB42F6DF6002900720ADF804000020A2
:10067000ADF80600ADF80C0001A980480BF09DFD17
:10068000012211467D480CF039FA01217B480BF01C
:100690001DFE1D208DF8000001208DF801000020B6
:1006A0008DF8020001208DF8030068460AF0AFF9CA
:1006B0001FBD70B5012171480CF037FA01287AD1BD
:1006C00005F020FB002432E004EBC40000EB400006
:1006D0006B4911F8300028B304EBC40000EB400074
:1006E00001EBC0004078F0B104EBC40000EB400027
:1006F00001EBC0008078012806D0022805D004282C
:100700000BD005280DD104E00CE020B205F031F843
:1007100008E020B205F088F804E020B205F041FAC4
:1007200000E000BF02E020B205F07EF8641C082C57
:10073000CADB04F0A0FC524CB4F99032B4F9B821F1
:10074000B4F9E010B4F9080004F029FCB4F9F0356C
:10075000B4F91825B4F94014B4F9680304F0B2FBF5
:10076000002477E0C4EB0410464911F8200000286B
:1007700068D0C4EB041001EB80004078F0B3C4EB08
:10078000041001EB80008078B0B1012804D0022869
:1007900021D0032845D135E0C4EB0411394A02EBDE
:1007A0008101D1ED010AB0EE600A611CC8B20021DE
:1007B00007F0A3FA36E05FE0C4EB0411314A02EB24
:1007C0008101D1ED040AB0EE600A611CC8B20021BB
:1007D00007F0DBF926E0C4EB04122A4B03EB82029C
:1007E0009268C4EB0413274D05EB830393F838306C
:1007F00002FB03F1621CD0B2002200E013E007F01C
:1008000026FA0FE0C4EB04111E4A02EB8101D1ED80
:100810000D0AB0EE600A611CC8B2002107F0D1FADF
:1008200000E000BF15E0C4EB0411164A02EB8101A1
:10083000D1ED0D0AB0EE600A611CC8B2002107F0CC
:10084000C0FA06E0611CC8B200219FED0F0A07F054
:1008500054FA641C082C85DB0C490D4809F061F939
:100860000C490D4809F05DF90C49094809F059F99E
:10087000012102480CF06AF970BD0000000400403C
:1008800094260020402F0020000000007865002002
:100890000068004094630020006400405C67002012
:1008A00000B58BB0012148060BF0CFFA01210846B4
:1008B0000BF098FA09220B21FE480BF0D8F8092218
:1008C0000C21FC480BF0D3F802208DF818004FF4EF
:1008D000C050059005A9F7480BF03EF814208DF89C
:1008E000280003208DF8290000208DF82A0001201F
:1008F0008DF82B000AA80AF08AF8EF480AF0F2F8FF
:1009000007A80AF013FA00208DF822008DF82300C2
:100910008DF824008DF825008DF826008DF827002D
:100920008DF81E008DF81F0008208DF82000032090
:100930008DF82100ADF81C0007A9DF480AF0EBF89C
:1009400001208DF80E008DF80F0000208DF81000AA
:1009500046F2A000ADF8040046F2C000ADF8060073
:1009600046F2E000ADF808004FF4C240ADF80A00CE
:100970000020ADF80C0001208DF8110001A80AF04C
:1009800054F903208DF80E0001208DF80F0000208F
:100990008DF810004FF4C840ADF8040046F2200076
:1009A000ADF8060046F24000ADF8080046F26000DF
:1009B000ADF80A000020ADF80C0001208DF8110000
:1009C00001A80AF032F904208DF80E0000208DF8FD
:1009D0000F0001208DF810000820ADF8040042F649
:1009E0000400ADF806004FF6FF70ADF80800ADF852
:1009F0000A000020ADF80C0001208DF8110001A8BC
:100A00000AF013F901220221AB480AF00DFC0BB0E9
:100A100000BD10B50446A9484088401C1E2190FB2B
:100A2000F1F201FB1200A5490988884203D1012097
:100A3000A349887110BD20688038A0494A88091DE3
:100A400001EB02110860A17A9C484288001D00EB6E
:100A500002100171A27A99494B88091D01EB03111B
:100A6000481D04F10B010EF013FF94484088401C10
:100A70001E2190FBF1F201FB12009049488000BF5B
:100A8000D8E710B501468D484088401C1E2290FBD7
:100A9000F2F302FB1300894A1288904203D101202D
:100AA000874A907110BDA1F18002844B5C881B1DA8
:100AB00003EB04131A600523804A5488121D02EBCD
:100AC0000412137142237D4A5488121D02EB041252
:100AD00053717A4A5488121D02EB04129371472312
:100AE000764A5488121D02EB0412D3714A1FD0B209
:100AF00000EBC00202EB4202724B03EBC2029269AE
:100B000000EE102AB8EEC00AF3EE0E0A20EE200A1C
:100B1000BDEEC00A10EE102A12B26B4B23F8102063
:100B20001A4632F81030654A5488121D02EB04123E
:100B3000138100BF61484088401C1E2290FBF2F3E5
:100B400002FB13005D4A508000BFABE710B586B0D2
:100B5000022159480AF0D0FB00287CD002215648D7
:100B60000AF065FC022154480AF0A3FB01AA002107
:100B700051480AF03EFA9DF80C0000286CD19DF80F
:100B80000D000028FAD140F20531019888420BD0BF
:100B9000491C0198884207D0491C0198884203D01B
:100BA0000198B0F5427F7CD10198401FC4B29DF8F6
:100BB0000F0043280FD19DF8100057280BD19DF846
:100BC0001100482807D19DF81200552803D101A82B
:100BD000FFF71FFFC7E09DF80F00432828D19DF8BD
:100BE0001000482824D1BDF81100374921F814001D
:100BF000084630F9140000EE100AB8EEC00AF3EE11
:100C00000E0A80EE201ABDEEC10A10EE100A04EBA7
:100C1000C40101EB41012B4A02EBC10148600120F4
:100C200004EBC40101EB410102EBC10148709AE001
:100C30009DF80F0053281BD19DF81000502817D1A4
:100C4000BDF81100214921F81400084630F81410AD
:100C500004EBC40001E046E1F9E000EB4000194A72
:100C600002EBC000A0F8A21001A8FFF7D2FE7AE0C4
:100C70009DF80F004D2833D19DF810004F282FD13B
:100C80009DF8110001282BD1052004EBC40101EBD4
:100C900041010C4A02EBC1018870012004EBC40140
:100CA00000E061E001EB410102EBC101487004EB9F
:100CB000C4010DE000000240006400409463002085
:100CC000C6030020942600200C0000201400002001
:100CD00001EB410102F8310001A8FFF79AFE42E062
:100CE0009DF80F004D2819D19DF810004F2815D1FF
:100CF0009DF8110090B9002004EBC40101EB410103
:100D00007A4A02F8310004EBC40101EB410102EB25
:100D1000C101487001A8FFF77CFE24E09DF80F0098
:100D2000532810D19DF8100054280CD1002004EB5A
:100D3000C40101EB41016D4A02EBC101487001A8F9
:100D4000FFF767FE0FE09DF80F0042280BD19DF8DA
:100D50001000422807D19DF81100472803D10199BE
:100D600088B2FFF78EFE00BF0198B0F5487F6ED1C4
:100D7000BDF80F005E490880BDF811004880BDF83D
:100D800013008880BDF81500C8800846B0F900003F
:100D900000EE100AB8EEC00AF3EE0E0A80EE201A3A
:100DA000BDEEC10A10EE100A50494860012048709B
:100DB000052088704E48B0F9020000EE100AB8EE27
:100DC000C00AF3EE0E0A80EE201ABDEEC10A10EE44
:100DD000100AC1F8DC000121444880F8D91005212F
:100DE00080F8DA104248B0F9040000EE100AB8EEBC
:100DF000C00AF3EE0E0A80EE201ABDEEC10A10EE14
:100E0000100A3A49C1F8B4010121384880F8B111FB
:100E1000052180F8B2113648B0F9060000EE100A3C
:100E2000B8EEC00AF3EE0E0A80EE201ABDEEC10A3B
:100E300010EE100A2D49C1F88C0201212B4880F8D0
:100E40008912052180F88A1201A8FFF7E2FD9DF8BA
:100E50000C00042847D127490298884243D19DF8C5
:100E600010006B283FD19DF811004C283BD19DF814
:100E7000120001280CD1AA211C48C0F86413494271
:100E8000C0F83C14AA21C0F814154942C0F8EC156A
:100E90009DF8120060B95F211448C0F864134942FC
:100EA000C0F83C145F21C0F814154942C0F8EC1595
:100EB000BDF8130081B20D48A0F80214BDF813006C
:100EC00081B20A48A0F8DA14BDF8130081B20748CD
:100ED000A0F8B215BDF8130081B20448A0F88A1634
:100EE00001A8FFF796FD06B010BD00009426002073
:100EF0000C000020000501002DE9F0418AB00446F5
:100F00000D4616469846109F012188060AF09DFF5F
:100F1000012102200AF066FF09220521FE480AF09D
:100F2000A6FD09220621FC480AF0A1FD02208DF849
:100F300014006020049004A9F7480AF00DFD402039
:100F40008DF8240002208DF8250001208DF8260060
:100F50008DF8270009A809F05AFDF04809F0C2FDF4
:100F600006A809F0E3FE00208DF81E008DF81F0092
:100F70008DF820008DF821008DF822008DF82300D7
:100F80008DF81A708DF81B408DF81C608DF81D507F
:100F90000320ADF8180006A9E04809F0BCFD0E20BA
:100FA0008DF80A0001208DF80B0000208DF80C0050
:100FB00044F22000ADF8000044F24000ADF8020019
:100FC00044F26000ADF804004FF48140ADF8060033
:100FD0000020ADF8080001208DF80D00684609F0EA
:100FE00024FE0F208DF80A0001208DF80B00002050
:100FF0008DF80C0044F2A000ADF8000044F2C000EF
:10100000ADF8020044F2E000ADF804004FF4824075
:10101000ADF806000020ADF8080001208DF80D00A5
:10102000684609F002FE10208DF80A0001208DF8B4
:101030000B0000208DF80C0045F22000ADF80000F8
:1010400045F24000ADF8020045F26000ADF8040042
:101050004FF4A140ADF806000120ADF808008DF86E
:101060000D00684609F0E1FD11208DF80A0001200D
:101070008DF80B0000208DF80C0045F2A000ADF8B3
:10108000000045F2C000ADF8020045F2E000ADF806
:1010900004004FF4A240ADF806000120ADF80800AE
:1010A0008DF80D00684609F0C0FD12208DF80A0089
:1010B00001208DF80B0000208DF80C004FF48150BA
:1010C000ADF800004FF48250ADF802004FF48350A9
:1010D000ADF804004FF48450ADF806000120ADF8DF
:1010E00008008DF80D00684609F09FFD13208DF86B
:1010F0000A0001208DF80B0000208DF80C004FF441
:101100008550ADF800004FF48650ADF802004FF462
:101110008750ADF804004FF48850ADF80600012068
:10112000ADF808008DF80D00684609F07EFD14202A
:101130008DF80A0000208DF80B0001208DF80C00BE
:101140000020ADF800004FF49040ADF802004FF6DB
:10115000FF70ADF804004FF47840ADF806000120B0
:10116000ADF808008DF80D00684609F05EFD152009
:101170008DF80A0001208DF80B0000208DF80C007E
:101180004BF22000ADF800004BF24000ADF8020039
:101190004BF26000ADF804004BF28000ADF80600A1
:1011A0000120ADF808008DF80D00684609F03DFDFE
:1011B00016208DF80A0001208DF80B0000208DF814
:1011C0000C004FF40150ADF800004FF40250ADF8A0
:1011D0000200ADF80400ADF806000120ADF80800EB
:1011E0008DF80D00684609F020FD012210214B48C2
:1011F0000AF01AF80122022148480AF015F80020E6
:101200000AB0BDE8F08170B5044604EBC40000EB01
:101210004000434901EBC000B0F90800002808DD98
:1012200004EBC40000EB400001EBC000B0F9080083
:1012300009E004EBC40000EB4000394901EBC000B9
:10124000B0F90800404204EBC40101EB4101344A0B
:1012500002EBC101B1F8D010884220DD04EBC400DC
:1012600000EB4000114601EBC000B0F90800002877
:1012700002DA4FF0FF3000E0012004EBC40101EB83
:101280004101274A02EBC101B1F8D010484301B235
:1012900004EBC40000EB400002EBC000018104EB52
:1012A000C40000EB40001E4911F8300040B9002195
:1012B00004EBC40000EB4000194A02EBC0000181BE
:1012C000042C04DA4FF400701649086003E040F281
:1012D000FF10144908600020124948720872082063
:1012E000887204F00B00450004EBC40000EB4000E2
:1012F0000B4901EBC00001890A480B3041530246FB
:101300006B1CD1185019FEF792FF032C01D0072C4B
:101310000CD10449014807E0000402400068004085
:10132000942600201404002009F06EFD70BD10B555
:1013300086B001AA0021FE4809F05BFE9DF80C0072
:1013400000287DD19DF80C00002879D19DF80E0071
:10135000082875D10198B0F5007F71D90198B0F5D2
:10136000027F6DD80198401EC4B2F24850F82400A4
:10137000F14941F824000EF0C9F8EE4941F8240083
:101380009DF812109DF8110041EA002001B204EB13
:10139000C40000EB4000E94A02EBC000C1839DF8A5
:1013A00010009DF80F1040EA012104EBC40000EB8F
:1013B000400002EBC00041629DF814109DF813003C
:1013C00041EA002001B204EBC40000EB400002EB54
:1013D000C00081839DF8151004EBC40000EB4000B1
:1013E00002EBC000018504EBC40000EB4000114695
:1013F00001EBC000006A00EE100AB8EEC00ADFED93
:10140000D00A60EE200A04EBC40000EB400001EBC0
:10141000C00090F8CE0000EE100AB8EE401A80EE40
:10142000810A04EBC40000EB400001EBC00090ED2A
:10143000351AC0EE010A04EBC40000EB400000E0E6
:1014400031E001EBC000B0F8CC0000EE100AB8EEBD
:10145000400A80EE801ABDEEC10A10EE100A04EBBD
:10146000C40101EB410102EBC101886104EBC4003E
:1014700000EB4000114601EBC00090F8460088B92F
:10148000012104EBC40000EB400002EBC00080F837
:101490004610002104EBC40000EB400002EBC0004A
:1014A000A0F8B41000BF0221A14809F0C0FF02213A
:1014B0009F4809F0FEFE06B010BDF0B585B00746A6
:1014C0000D46002412200090019000208DF80800A5
:1014D0008DF809008DF80A5000BF05E0395D0DF167
:1014E0000B000155601C84B2AC42F7DB69469048A2
:1014F00009F08AFC0646002401E0601C84B23146F3
:101500008B4809F019FD18B940F6FF708442F4DBEE
:1015100040F6FF70844202DB012005B0F0BD0020E0
:10152000FBE74168491C4160002101730169491EC4
:101530000161818A491C1E2291FBF2F302FB131107
:10154000818270474168491C416000210173016933
:10155000491E0161818A491C1E2291FBF2F302FBA4
:1015600013118182704710B586B01021704809F0C0
:10157000C3FE002874D001AA01216D4809F039FD8D
:1015800010216B4809F053FF1021694809F091FEC2
:101590000198B0F5B06F74D940F285510198884236
:1015A0006FD89DF80D0000286BD10198A0F28150F2
:1015B000C4B2002104EBC40000EB0410614A02EB4A
:1015C000800080F857109DF80F004F2809D19DF832
:1015D0001000602805D19DF81100602801D101207C
:1015E00000E000209DF80F10432909D19DF810104C
:1015F000622905D19DF81110602901D1012100E077
:10160000002108439DF80F10432909D19DF81010BF
:10161000642905D19DF81110602901D1012100E054
:10162000002108439DF80F10432909D19DF810109F
:101630006B2905D19DF81110602901D1012100E02D
:10164000002108439DF80F1043290AD19DF810107E
:101650006C2906D19DF81110602902D1012101E009
:1016600065E3002108439DF80F104B290AD19DF82E
:101670001010402906D19DF81110602902D10121D6
:1016800001E04FE1002108439DF80F104B2909D1DB
:101690009DF81010772905D19DF81110602901D10E
:1016A000012100E00021084330B1C4EB8411264A37
:1016B00002EBC100FFF746FF9DF80F004B2816D143
:1016C0009DF81000402812D19DF8110060280ED11D
:1016D0009DF81300C01008B1012000E0002004EBC9
:1016E000C40101EB0411174A02EB810148709DF817
:1016F0000F004F2810D19DF8100060280CD19DF8E4
:101700001100602808D19DF8130004EBC40101EB1F
:1017100004110C4A02F821009DF80F00432858D10B
:101720009DF81000622854D19DF8110060280DE04A
:1017300000680040F4030020D40300209426002019
:101740000000B4436C300020E055002041D1DDF8AA
:10175000131004EBC40000EB0410FE4A02EB8000FF
:10176000016104EBC40000EB0410114601EB8000A2
:1017700090ED180A1FED0E1AC1EE000A04EBC4002A
:1017800000EB041001EB8000006900EE100AB8EED7
:10179000C00A20EE800AB1EE001AC0EE010A04EB86
:1017A000C40000EB041001EB8000B0F85C0000EE18
:1017B000100AB8EE400A80EE801ABDEEC10A10EEA3
:1017C000100A00B204EBC40101EB041102EB810129
:1017D00088809DF80F00432849D19DF810006428A7
:1017E00045D19DF81100602841D1DDF8131004EBBC
:1017F000C40000EB0410D74A02EB8000416204EB06
:10180000C40000EB0410114601EB800090ED180AB3
:101810001FED351AC1EE000A04EBC40000EB041002
:1018200001EB8000406A00EE100AB8EEC00A20EE1C
:10183000800AB1EE001AC0EE010A04EBC40000EB0E
:10184000041001EB8000B0F85C0000EE100AB8EE66
:10185000400A80EE801ABDEEC10A10EE100A00B2F6
:1018600004EBC40101EB041102EB810108839DF834
:101870000F00432811D19DF810006B280DD19DF861
:101880001100602809D1DDF8131004EBC40000EB4F
:101890000410B04A02EB8000C1609DF80F0043289D
:1018A00011D19DF810006C280DD19DF81100602811
:1018B00009D1DDF8131004EBC40000EB0410A54AB5
:1018C00002EB800001629DF80F004B2829D19DF8A2
:1018D0001000772825D19DF81100602821D1DDF86E
:1018E000131004EBC40000EB04109A4A02EB8000D2
:1018F000816204EBC40000EB0410114601EB800090
:10190000806A00EE100AB8EEC00ADFED930A80EE9E
:10191000201A04EBC40000EB041001EB800080ED02
:10192000071A00BF0198B0F5207F7DD90198B0F566
:10193000227F79D89DF80D00002875D10198A0F27A
:101940008120C4B20021C4EBC40000EB4000834AF4
:1019500002EB800080F847109DF80F0041280BD162
:101960009DF81000432807D19DF8120000F04000B8
:10197000012801D0012000E000209DF80F1042292D
:101980000BD19DF81010472907D19DF8121001F0D6
:101990004001012901D0012100E0002108439DF808
:1019A0000F104A290BD19DF81010562907D19DF828
:1019B000121001F04001012901D0012100E00021B5
:1019C00008439DF80F104D290BD19DF810104F2999
:1019D00007D19DF8121001F04001012901D0012129
:1019E00000E0002108439DF80F1050290BD19DF80D
:1019F0001010522907D19DF8121001F04001012961
:101A000001D0012100E0002108439DF80F10532967
:101A10000DD19DF81010442909D19DF8121001F044
:101A20004001012903D000E0FAE0012100E000219B
:101A300008439DF80F1053290BD19DF8101054291D
:101A400007D19DF8121001F04001012901D00121B8
:101A500000E0002108439DF80F1054290BD19DF898
:101A60001010432907D19DF8121001F040010129FF
:101A700001D0012100E0002108439DF80F105529F5
:101A80000BD19DF810104D2907D19DF8121001F0CF
:101A90004001012901D0012100E00021084330B1BB
:101AA000C4EB84112E4A02EBC100FFF73AFD9DF80A
:101AB0000F004D2817D19DF810004F2813D19DF825
:101AC000120000F0400001280DD09DF8130008B16D
:101AD000012000E00020C4EBC40101EB41011F4ADA
:101AE00002EB810148709DF80F0056282FD19DF818
:101AF000100058282BD19DF8120000F0400001285A
:101B000025D0DDF81310C4EBC40000EB4000134AED
:101B100002EB80004161C4EBC40000EB40001146C1
:101B200001EB8000B0F84C003C2190FBF1F1C4EBDC
:101B3000C40000EB400002EB8000406990FBF1F133
:101B4000C4EBC40000EB400002EB800041619DF853
:101B50000F0007E06C30002000000843802D0020BB
:101B6000104A0020502841D19DF8100058283DD13E
:101B70009DF8120000F04000012837D0DDF8130076
:101B8000C4EBC40101EB4101794A02EB8101886198
:101B9000C4EBC40101EB410102EB810191ED140A98
:101BA0009FED741AC1EE000A00EE100AB8EEC00AEA
:101BB00060EE800AC4EBC40101EB410102EB81013C
:101BC000B1F84C1000EE101AB8EE400A80EE801A00
:101BD000BDEEC10A10EE101A09B2C4EBC40202EB4A
:101BE0004202634B03EB8202118200BF9DF80F009B
:101BF000492814D19DF81000512810D19DF81200E9
:101C000000F0400001280AD0BDF8130001B2C4EB77
:101C1000C40000EB4000564A02EB8000418200BF46
:101C20000198812821D3019888281ED89DF80D009D
:101C3000D8B901988138C4B2621C022343EA021267
:101C400042F440714C4A5068FEF71BFB4FF0805144
:101C5000019841EA00409DF80F1040EA01209DF8EC
:101C6000101008434549086000BF9DF80C00042887
:101C70005CD19DF80D00E8BB002000900021029887
:101C800000F0FE00C0EB00103D4A02EB800080F83F
:101C9000321009210298B1EB102F46D16946B7EEF8
:101CA000000A0DF10F0008F0ECF80298C0B2C0EB8A
:101CB0000010334901EB800090F8380000EE900AE4
:101CC000F8EE600A80EE201ABDEEC10A10EE100A8E
:101CD000029901F0FE01C1EB0111294A02EB8101D9
:101CE00088616946B2EE040A0DF10F0008F0D9F8D8
:101CF000029800E01AE000F0FE00C0EB001020495E
:101D000001EB800080ED050A69469FED1E0A0DF18A
:101D10000F0008F0C6F8029800F0FE00C0EB0010BB
:101D2000174901EB800080ED080A00BF00BF06B034
:101D300010BD30B585B005460021134809F0DCF927
:101D400010B9002005B030BD6A4600210F4809F0E7
:101D500050F9002404E00DF10B00005D2855641CCF
:101D60009DF80A00A042F6D89DF80A00EAE70000B4
:101D7000802D00200000B4430400002060000020FB
:101D8000402F002000007A440064004000680040BA
:101D900042E00120B7EE000A08F096FD0220B0EE06
:101DA000000A08F091FD0320B0EE080A08F08CFD4F
:101DB00004209FED890A08F087FD0520B1EE040A92
:101DC00008F082FD0620B1EE080A08F07DFD07202C
:101DD000B1EE0C0A08F078FD0820B2EE000A08F017
:101DE00073FD0920B2EE020A08F06EFD7B49096816
:101DF00000EE901AF8EE600AB0EE600A0A2008F0D1
:101E000063FD0A2008F0B1FD0146754800F063F952
:101E10004FF4FA700DF0CAFABBE74FF47A700DF088
:101E2000C5FA01206F4981F8600381F8380481F810
:101E3000100581F8E80501216A4880F8611380F8EF
:101E4000391480F8111580F8E91505E004F02AFA34
:101E500040F24C400DF0AAFAF8E706E0012006F047
:101E60008BF84FF47A700DF0A1FAF7E703E04FF426
:101E70007A700DF09BFAFAE725E0012005F07CFD71
:101E800001241AE00121204605F0A5FC32200DF0C6
:101E90008DFA0121204605F09EFA32200DF086FAD7
:101EA0000121204605F0CDFB32200DF07FFA012103
:101EB000204605F0FCFA601CC4B2052CE2DB4FF4AE
:101EC00096600DF073FAD8E707E008F084F908F09F
:101ED000F0F84FF496700DF069FAF6E705E001F0BE
:101EE000B1FA40F6B8300DF061FAF8E770B5044683
:101EF000002500BF022007F0DDFE002008F0C8F931
:101F000001F0A0FA0DF091FC0DF026FB05460D2323
:101F1000354A002135480CF003FF1E23344A0021C6
:101F200034480CF0FDFE0A23334A002133480CF0FC
:101F3000F7FE0F23324A002132480CF0F1FE102345
:101F4000314A002131480CF0EBFE0923304A0021D0
:101F500030480CF0E5FE0E232F4A00212F480CF0EC
:101F6000DFFE05200DF05AF928460DF0F9FA70BD94
:101F700008B54FF4FA6007F0A4FF0BF03FF94FF4F7
:101F8000A06008F03FFDFEF78BFC00200323082231
:101F900019460090FEF7B0FF07F0B8FD07F070FE9D
:101FA00008F056F900F0D0F800F03EF807F0ACFF6A
:101FB00008F0F0F8FEF796F9FEF74EFBFEF703F98E
:101FC0000BF000FB0523164A002116480CF0A8FE72
:101FD0000BF01FFC002008BD0000C8432404004093
:101FE000406900209426002024100020DD1E0008F7
:101FF00024120020C91E0008241A0020791E00089F
:10200000241E00206D1E0008242200205B1E0008F4
:10201000241600201B1E000824260020911D000805
:1020200024080020ED1E00081CB54048006840F060
:1020300010003E4908603D481438006840F48000B4
:102040003A49143908600120022100230A46CDE9EB
:1020500000104FF4C061364808F0C2FA0722092187
:10206000334808F09DFA07220A21314808F098FA0F
:1020700040F2D9202F4908814FF403708881084627
:10208000008820F02000088003232522012106205B
:1020900008F0F8F94FF48070274B264A121D0421EE
:1020A0000090264808F032F901221021234809F057
:1020B0007AFB032346220021072008F0E3F91D489C
:1020C000808A40F080001B4988820846808940F45D
:1020D000005088811CBD70B504460D461848807AB2
:1020E00078B92A46214614480DF0D2FB29461348F8
:1020F00009F0EDFA0121114809F0C8FA0120104950
:10210000887270BD10B50F490C4809F069FB0128B1
:102110000AD10C49094809F032FB0A49074809F07D
:1021200089FB00200649887210BD00004438024037
:10213000000002400010014046010020B864024047
:10214000C6030020008000281CB5FC48006840F44D
:102150000030FA490860F9481038006840F400106F
:10216000F649103908600120022100230A46CDE912
:1021700000100C21F24808F033FA07220221F0483F
:1021800008F00EFA07220321ED4808F009FA4FF48F
:10219000B670EC4908800C20091D0880E948083811
:1021A000008820F02000E74908390880E548001D34
:1021B000008840F02000E349091D088003232622FF
:1021C0000121042008F05EF94FF48070DE4BDD4AF7
:1021D000121F04210090DD4808F098F80122102118
:1021E000DA4809F0E0FA032311220121072008F060
:1021F00049F9D4480C30008840F08000D1490C31B6
:102200000880D048001D008840F40050CD49091DC9
:1022100008801CBD10B5CE49CC4809F0E1FA012870
:102220000AD1CB49C94809F0AAFAC949C74809F0F7
:1022300001FB0020C749C87210BD10B52DED028BFF
:10224000002440F22531BF4808380AF022FF60B16F
:10225000BC4808380AF05BFE0020BF490870202106
:10226000BE480DF02EFB01F0D9B840F22551B5481B
:1022700008380AF00EFF0028F5D02021B1480838B0
:102280000AF0FEFE40F22551AE4808380AF038FF49
:10229000AC4808380AF03BFEC4B2AF48007800F002
:1022A000400008B3AC48007800F0800020BBFF2C51
:1022B00006D1A948007840F08000A74908701BE0CB
:1022C000A548007800F03F01A4484454A248007893
:1022D000401CA14908700846007800F03F002828FB
:1022E0000ADD0020087007E0EE2C05D19A4800783E
:1022F00040F04000984908709748007800F080004E
:102300000028B0D0964890F8200212287ED10120F3
:1023100007F0D0FC924890F82102102877D2DFE82D
:1023200000F008121C28343F4A5560778C9DAEBAE5
:10233000C8D601208B49087081F8D80081F8B00117
:1023400081F88802C7E000208649087081F8D8002B
:1023500081F8B00181F88802BDE001208149487010
:102360000121804880F8D91080F8B11180F88912D5
:10237000B1E000207B49487000217A4880F8D910EC
:1023800080F8B11180F88912A5E00120754981F823
:10239000600381F8380481F8100581F8E8059AE0B7
:1023A0000020704981F8600381F8380481F8100535
:1023B00081F8E8058FE001216A4880F8611380F810
:1023C000391480F8111580F8E91584E0002165487A
:1023D00080F8611380F8391480F8111580F8E91538
:1023E00079E001221146104604F0C9F90122114694
:1023F000022004F0C4F901221146032004F0BFF9C1
:1024000001221146042004F0BAF964E064E061E0BE
:1024100001220021104604F0B2F9012200211046E9
:1024200004F0ADF901220021032004F0A8F90122F3
:102430000021042004F0A3F94DE00121084604F036
:10244000C7F90121022004F0C3F90121032004F09F
:10245000BFF90121042004F0BBF93CE0012108464A
:1024600004F032FA0121022004F02EFA01210320A7
:1024700004F02AFA0121042004F026FA2BE00020BF
:102480003849486000213748C0F8DC10C0F8B41162
:10249000C0F88C121FE02D2032494860414231487B
:1024A000C0F8DC102D21C0F8B4114942C0F88C12DC
:1024B00011E05A202B49486041422A48C0F8DC10FC
:1024C0005A21C0F8B4114942C0F88C1203E007F059
:1024D00023FC00E000BF00BF214890F82102012842
:1024E00004D11F4890F823021F4908701C4890F837
:1024F000230209287DD2DFE800F005404142FEFDBD
:102500007CFCFB00164890F82502082832D10120F7
:1025100080F3138800BF00BFBFF34F8F13480068DC
:1025200000F4E06012490843001D10490860BFF341
:102530004F8F00BF00BF00BFFDE7000040380240E2
:10254000000002400844004066020020A0600240F3
:1025500000802020C60300201D000020660300200C
:1025600046010020942600201C0000200CED00E015
:102570000000FA0500BF00BFD8E3FDE7FCE7F8481C
:1025800090F82502C01E0B2842D2DFE800F006C0FA
:10259000C0424C63C0C0C06F7B00F2480DF030FEFB
:1025A000B0EE408AF0EE608A51EC180B0DF0A4F901
:1025B000ED498860EB480DF023FEB0EE408AF0EE66
:1025C000608A51EC180B0DF097F90146E64841641A
:1025D000E4480DF015FEB0EE408AF0EE608A51EC52
:1025E000180B0DF089F90146DF48C0F88010DD486E
:1025F00000E09CE30DF004FEB0EE408AF0EE608A4D
:1026000051EC180B0DF078F90146D748C0F8BC1012
:102610007DE00120D449087081F83C0081F8780001
:1026200081F8B40073E00220CF4988700221CE48BF
:1026300080F83E1080F87A1080F8B6100120CA4960
:1026400048700121C84880F83D1080F8791080F862
:10265000B5105CE00320C44988700321C24880F8AB
:102660003E1080F87A1080F8B61050E00020BE4985
:1026700048700021BC4880F83D1080F8791080F83F
:10268000B51044E0B7480DF0BBFDB0EE408AF0EE67
:10269000608A51EC180B0DF067F900EE100AB24891
:1026A00080ED040AAF480DF0ABFDB0EE408AF0EECD
:1026B000608A51EC180B0DF057F900EE100AAA4889
:1026C00080ED130AA7480DF09BFDB0EE408AF0EEB6
:1026D000608A51EC180B0DF047F900EE100AA24881
:1026E00080ED220A9F480DF08BFDB0EE408A03E09A
:1026F000F0E31DE395E10CE0F0EE608A51EC180B7D
:102700000DF032F900EE100A974880ED310A00BF53
:1027100000BF934890F82502C01E1A2879D2DFE83E
:1027200000F00D1B2939495968798999A7B6C578F0
:10273000D4EFFFECEBEAE9E8E7E6E5E4002008E0A7
:10274000002100EBC00202EB4202884B03F832107A
:10275000401C0828F4DB62E182480DF051FDB0EE28
:10276000408AF0EE608A51EC180B0DF0E4F87F49D6
:10277000887054E17B480DF043FDB0EE408AF0EEE6
:10278000608A51EC180B0DF0D6F8C1B2774880F88A
:10279000DA1044E173480DF033FDB0EE408AF0EEFC
:1027A000608A51EC180B0DF0C6F8C1B26F4880F882
:1027B000B21134E16B480DF023FDB0EE408AF0EE2B
:1027C000608A51EC180B0DF0B6F8C1B2674880F87A
:1027D0008A1224E163480DF013FDB0EE408AF0EE5A
:1027E000608A51EC180B0DF087F801B25F48418107
:1027F00015E15C480DF004FDB0EE408AF0EE608A11
:1028000051EC180B0DF078F801B25848A0F8E2101E
:1028100005E103E153480DF0F3FCB0EE408AF0EE21
:10282000608A51EC180B0DF067F801B24F48A0F820
:10283000BA11F4E04B480DF0E3FCB0EE408AF0EE44
:10284000608A51EC180B0DF057F801B24748A0F818
:102850009212E4E043480DF0D3FCB0EE408AF0EE73
:10286000608A51EC180B0DF047F840494860D6E0FB
:102870003C480DF0C5FCB0EE408AF0EE608A51ECA9
:10288000180B0DF039F83949C1F8DC00C7E03548BC
:102890000DF0B6FCB0EE408AF0EE608A51EC180BF9
:1028A0000DF02AF83149C1F8B401B8E02D480DF017
:1028B000A7FCB0EE408AF0EE608A51EC180B0DF0E8
:1028C0001BF82A49C1F88C02A9E026480DF098FCB3
:1028D000B0EE408AF0EE608A51EC180B0DF02BF848
:1028E00081B22248A0F8A21099E08CE080E074E068
:1028F00069E05DE051E045E03AE021E010E0FFE70B
:1029000018480DF07DFCB0EE408AF0EE608A51EC84
:10291000180B0DF010F881B21448A0F87A117EE07F
:1029200010480DF06DFCB0EE408AF0EE608A51EC7C
:10293000180B0DF000F881B20C48A0F852126EE0AE
:1029400008480DF05DFCB0EE408AF0EE608A51EC74
:10295000180B0CF0F0FF81B20448A0F82A135EE0D7
:10296000460100206D030020402F00209426002007
:10297000FE4890F8280208B1012000E00020FC4940
:1029800008704CE0F94890F8280208B1012000E0F6
:102990000020F74981F8D80041E0F44890F8280277
:1029A00008B1012000E00020F14981F8B00136E0D3
:1029B000EE4890F8280208B1012000E00020EC4920
:1029C00081F888022BE0E94890F8280208B101203C
:1029D00000E00020E649487021E0E44890F8280231
:1029E00008B1012100E00021E14880F8D91016E08B
:1029F000DE4890F8280208B1012100E00021DC48FF
:102A000080F8B1110BE0D94890F8280208B10121F3
:102A100000E00021D64880F8891200E000BF00BF26
:102A2000AAE5D24890F82502C01E1A287CD2DFE819
:102A300000F00D1B2B3B4B5B6B7C8C9CABBAC97BBA
:102A4000D8F3F1F0EFEEEDECEBEAE9E8002008E076
:102A5000002100EBC00202EB4202C54B03F832102A
:102A6000401C0828F4DB60E1C2480DF0C9FBB0EE61
:102A7000408AF0EE608A51EC180B0CF05CFFC1B29A
:102A8000BB4880F8621350E1BA480DF0B9FBB0EED4
:102A9000408AF0EE608A51EC180B0CF04CFFC1B28A
:102AA000B34880F83A1440E1B2480DF0A9FBB0EE0B
:102AB000408AF0EE608A51EC180B0CF03CFFC1B27A
:102AC000AB4880F8121530E1AA480DF099FBB0EE42
:102AD000408AF0EE608A51EC180B0CF02CFFC1B26A
:102AE000A34880F8EA1520E1A2480DF089FBB0EE7A
:102AF000408AF0EE608A51EC180B0CF0FDFE01B23A
:102B00009B48A0F86A1310E19A480DF079FBB0EEEB
:102B1000408AF0EE608A51EC180B0CF0EDFE01B229
:102B20009348A0F8421400E1FEE092480DF068FBE3
:102B3000B0EE408AF0EE608A51EC180B0CF0DCFE2F
:102B400001B28B48A0F81A15EFE08A480DF058FB47
:102B5000B0EE408AF0EE608A51EC180B0CF0CCFE1F
:102B600001B28348A0F8F215DFE082480DF048FB7F
:102B7000B0EE408AF0EE608A51EC180B0CF0BCFE0F
:102B80007B49C1F86403D0E07A480DF039FBB0EE20
:102B9000408AF0EE608A51EC180B0CF0ADFE7449DF
:102BA000C1F83C04C1E073480DF02AFBB0EE408A46
:102BB000F0EE608A51EC180B0CF09EFE6C49C1F8E7
:102BC0001405B2E06B480DF01BFBB0EE408AF0EE4E
:102BD000608A51EC180B0CF08FFE6549C1F8EC05CA
:102BE000A3E064480DF00CFBB0EE408AF0EE608A82
:102BF00051EC180B0CF09FFE81B25D48A0F8021456
:102C000093E086E07AE06EE062E056E04AE03EE083
:102C100032E021E010E0FFE756480DF0F1FAB0EEA7
:102C2000408AF0EE608A51EC180B0CF084FE81B201
:102C30004F48A0F8DA1478E04E480DF0E1FAB0EE13
:102C4000408AF0EE608A51EC180B0CF074FE81B2F1
:102C50004748A0F8B21568E046480DF0D1FAB0EE4A
:102C6000408AF0EE608A51EC180B0CF064FE81B2E1
:102C70003F48A0F88A1658E03C4890F8280208B16E
:102C8000012000E000203A4981F860034DE0374818
:102C900090F8280208B1012000E00020344981F8B2
:102CA000380442E0314890F8280208B1012000E0E1
:102CB00000202F4981F8100537E02C4890F82802B1
:102CC00008B1012000E00020294981F8E8052CE046
:102CD000264890F8280208B1012100E0002124488C
:102CE00080F8611321E0214890F8280208B1012101
:102CF00000E000211E4880F8391416E01B4890F8C7
:102D0000280208B1012100E00021194880F81115BE
:102D10000BE0164890F8280208B1012100E00021DC
:102D2000134880F8E91500E000BF00BF6DE300BF65
:102D30000E4890F82502C01E0B281FD2DFE800F0D5
:102D4000061F1E304152677CA2CBF40001210846C9
:102D500005F03DFD0121022005F039FD0121032090
:102D600005F035FD0121042006E0000046010020A9
:102D7000942600206D03002005F029FDE5E00121E7
:102D8000084605F0FCFA0121022005F0F8FA0121BD
:102D9000032005F0F4FA0121042005F0F0FAD4E054
:102DA0000121084605F06BFA0121022005F067FABF
:102DB0000121032005F063FA0121042005F05FFAE8
:102DC000C3E00121084605F0D6FB0121022005F0F1
:102DD000D2FB0121032005F0CEFB0121042005F0E8
:102DE000CAFBB2E001220321104605F0CAF9012214
:102DF0000321022005F0C5F901220321084605F050
:102E0000C0F901220321042005F0BBF99DE0012255
:102E10001146104605F0B5F901221146022005F0D1
:102E2000B0F901221146032005F0ABF90122114649
:102E3000042005F0A6F988E0FA480DF0E1F9B0EEBB
:102E4000408AF0EE608A51EC180B0CF055FDF64903
:102E50000860012208460168104605F0B1FE012213
:102E6000F1480168022005F0ABFE0122EE4801683E
:102E7000032005F0A5FE0122EB480168042005F0BF
:102E80009FFE62E0E7480DF0BBF9B0EE408AF0EE3D
:102E9000608A51EC180B0CF02FFDE4490860012208
:102EA00008460168104605F000FF0122DF4800686F
:102EB0004142022005F0F9FE0122DC48006841424F
:102EC000032005F0F2FE0122D8480168042005F035
:102ED000ECFE3AE03BE0D3480DF092F9B0EE408AC8
:102EE000F0EE608A51EC180B0CF006FDD04908603A
:102EF000012208460168104605F0F3FC0122CC4887
:102F000000684142022005F0ECFC0122C84800683C
:102F10004142032005F0E5FC0122C5480168042078
:102F200005F0DFFC11E0FFE70121084605F0C7FDD1
:102F30000121022005F0C3FD0121032005F0BFFDA2
:102F40000121042005F0BBFD00BF00BF00BFB94850
:102F500090F825021A2821D2DFE800F0200D213751
:102F60004D6393C5EFEEEDECEBEAE9E8E7E6E5E467
:102F7000E3E2E1E0DFDEAB480DF042F9B0EE408A7B
:102F8000F0EE608A51EC180B0CF0D5FCAA490870E1
:102F9000084601780122104603F013FB34E2A148F1
:102FA0000DF02EF9B0EE408AF0EE608A51EC180B6D
:102FB0000CF0C1FCA04981F85400084690F8541068
:102FC0000122022003F0FDFA1EE296480DF018F9E6
:102FD000B0EE408AF0EE608A51EC180B0CF0ABFCBE
:102FE000954981F8A800084690F8A810012203200E
:102FF00003F0E7FA08E28B480DF002F9B0EE408AE0
:10300000F0EE608A51EC180B0CF095FC8A4981F8BF
:10301000FC00084690F8FC100122042003F0D1FACD
:10302000F2E185480078022813D17E480DF0E8F8D7
:10303000B0EE408AF0EE608A51EC180B0CF05CFCAC
:103040007E490860012208460168104603F013FE1D
:1030500016E079480078052812D172480DF0D0F8B2
:10306000B0EE408AF0EE608A51EC180B0CF044FC94
:1030700073490860012208460168104603F089FC84
:10308000C2E16D4890F85400022813D165480DF054
:10309000B7F8B0EE408AF0EE608A51EC180B0CF0F5
:1030A0002BFC66490860012208460168022003F0F3
:1030B000E2FD17E0604890F85400052812D1594805
:1030C0000DF09EF8B0EE408AF0EE608A51EC180BDD
:1030D0000CF012FC5A4908600122084601680220DF
:1030E00003F057FC90E1544890F8A800022825D13D
:1030F0004C480DF085F8B0EE408AF0EE608A51EC55
:10310000180B0CF0F9FB4D490860012208460168D4
:10311000032003F0B0FD29E065E15AE15EE14EE1F4
:103120000AE151E13AE128E116E1F1E0DCE0C7E033
:10313000B2E09DE088E060E04BE018E03E4890F8A7
:10314000A800052812D137480DF05AF8B0EE408A91
:10315000F0EE608A51EC180B0CF0CEFB3849086099
:10316000012208460168032003F013FC4CE13248B9
:1031700090F8FC00022813D12A480DF041F8B0EE77
:10318000408AF0EE608A51EC180B0CF0B5FB2B492D
:103190000860012208460168042003F06CFD17E076
:1031A000254890F8FC00052812D11E480DF028F89B
:1031B000B0EE408AF0EE608A51EC180B0CF09CFBEC
:1031C0001F490860012208460168042003F0E1FB62
:1031D0001AE114480DF014F8B0EE408AF0EE608A5F
:1031E00051EC180B0CF088FB1649086001220846C8
:1031F0000168104603F04CFC06E10A480DF000F8A7
:10320000B0EE408AF0EE608A51EC180B0CF074FBC3
:103210000C490860012208460168022003F038FCCE
:10322000F2E000006D0300208C00002088000020E8
:103230008400002046010020802D0020580000203E
:103240004C00002054000020FE480CF0D9FFB0EEE6
:10325000408AF0EE608A51EC180B0CF04DFBFA49F5
:103260000860012208460168032003F011FCCBE04E
:10327000F4480CF0C5FFB0EE408AF0EE608A51ECE5
:10328000180B0CF039FBF14908600122EE48016887
:10329000042003F0FDFBB7E0EA480CF0B1FFB0EE0C
:1032A000408AF0EE608A51EC180B0CF025FBE749E0
:1032B0000860012208460168104603F068FCA3E09C
:1032C000E0480CF09DFFB0EE408AF0EE608A51ECD1
:1032D000180B0CF011FBDD4908600122084601685B
:1032E000022003F054FC8FE0D6480CF089FFB0EECA
:1032F000408AF0EE608A51EC180B0CF0FDFAD349CD
:103300000860012208460168032003F040FC7BE0CE
:10331000CC480CF075FFB0EE408AF0EE608A51ECBC
:10332000180B0CF0E9FAC949086001220846016847
:10333000042003F02CFC67E0C54890F8280208B18F
:10334000012000E00020C34948700846417801226E
:10335000104603F014FA57E0BD4890F8280208B16F
:10336000012100E00021BB4880F8551090F855106D
:103370000122022003F003FA46E0B54890F8280243
:1033800008B1012100E00021B24880F8A91090F8AE
:10339000A9100122032003F0F2F935E0AC4890F8BF
:1033A000280208B1012100E00021AA4880F8FD10A0
:1033B00090F8FD100122042003F0E1F924E001213E
:1033C000084603F005FA1FE00121022003F000FA8D
:1033D0001AE00121032003F0FBF915E0012104208C
:1033E00003F0F6F910E00121084603F06DFA01211F
:1033F000022003F069FA0121032003F065FA01219C
:10340000042003F061FA00BF00BF00BF0020924912
:10341000087020218B48C01F0CF053FABDEC028BC2
:1034200010BD10B504468D48C07A50B921468C486D
:1034300008F04DF901218A4808F028F90120874950
:10344000C87210BD10B50024EE222146641C8548C8
:103450004254B1222146641C425410222146641C6D
:10346000425400222146641C42542146641C4254AA
:103470002146641C425405222146641C4254012208
:103480002046611CCCB277490A54FF222046611CB9
:10349000CCB274490A54FC222046611CCCB271495A
:1034A0000A54FF222046611CCCB26E490A542046C1
:1034B000611CCCB26B490A546B480078092881F032
:1034C000CA83DFE810F0C80B09000B000C000D00E8
:1034D0006604C80BC80BB70801F0BEBBFCE7FBE7EE
:1034E000EE222046611CCCB25E490A54B12220462D
:1034F000611CCCB25B490A5412222046611CCCB23A
:1035000058490A5400222046611CCCB255490A543D
:1035100004222046611CCCB252490A545348807898
:1035200000287DD000222046611CCCB24D490A54AF
:1035300004222046611CCCB24A490A54002220468B
:10354000611CCCB247490A544848827848A149488E
:103550000CF042FE47480CF0BFF9C2B22046611C95
:10356000CCB240490A54081942490CF0BCF9414810
:103570000CF0B2F92044C4B200222046611CCCB247
:1035800038490A5408222046611CCCB235490A54F5
:1035900000222046611CCCB232490A543348B0F9AB
:1035A0001E2033A133480CF017FE32480CF094F97A
:1035B000C2B22046611CCCB22A490A5408192D49CE
:1035C0000CF091F92B480CF087F92044C4B200228A
:1035D0002046611CCCB223490A540C222046611CAF
:1035E000CCB220490A5400222046611CCCB21D49AD
:1035F0000A541E4882691EA11E480CF0EDFD1D48AC
:103600000CF06AF9C2B22046611CCCB215490A54CA
:10361000081918490CF067F916480CF05DF900E03C
:1036200086E02044C4B200222046611CCCB20D4981
:103630000A5411222046611CCCB20A490A540022C5
:10364000204619E06D030020540000205C0000209B
:1036500046010020802D00201D000020C603002010
:10366000A0600240660200201C000020942600207A
:103670002564000028260020611CCCB2FE490A54B3
:10368000FE48B0F8A220AFF21801FD480CF0A4FDEE
:10369000FB480CF021F9C2B22046611CCCB2F649BD
:1036A0000A540819F6490CF01EF9F5480CF014F903
:1036B0002044C4B200222046611CCCB2EE490A5418
:1036C00015222046611CCCB2EB490A540022204648
:1036D000611CCCB2E8490A5401222046611CCCB2DC
:1036E000E5490A54E54802782046611CCCB2E2491B
:1036F0000A5400222046611CCCB2DF490A54192228
:103700002046611CCCB2DC490A5400222046611CD0
:10371000CCB2D9490A5401222046611CCCB2D64908
:103720000A54D64842782046611CCCB2D2490A5489
:10373000D24890F8DA0000287DD000222046611C93
:10374000CCB2CD490A5405222046611CCCB2CA49EC
:103750000A5400222046611CCCB2C7490A54C7480B
:1037600090F8DA20AFF2F801C5480CF035FDC448F6
:103770000CF0B2F8C2B22046611CCCB2BE490A5469
:103780000819BF490CF0AFF8BD480CF0A5F820446B
:10379000C4B200222046611CCCB2B7490A540922A7
:1037A0002046611CCCB2B4490A5400222046611C58
:1037B000CCB2B1490A54B148B0F9F620AFF2501179
:1037C000AF480CF009FDAE480CF086F8C2B22046B6
:1037D000611CCCB2A8490A540819A9490CF083F815
:1037E000A7480CF079F82044C4B200222046611C9E
:1037F000CCB2A1490A540D222046611CCCB29E498C
:103800000A5400222046611CCCB29B490A549B48B2
:10381000D0F8F020AFF2A81199480CF0DDFC9848E0
:103820000CF05AF8C2B22046611CCCB292490A543C
:103830000819934900E072E00CF055F890480CF03C
:103840004BF82044C4B200222046611CCCB28A4905
:103850000A5412222046611CCCB287490A54002225
:103860002046611CCCB284490A548448B0F87A21BD
:10387000AFF2042182480CF0AFFC81480CF02CF828
:10388000C2B22046611CCCB27B490A5408197C495B
:103890000CF029F87A480CF01FF82044C4B200223A
:1038A0002046611CCCB274490A5416222046611C81
:1038B000CCB271490A5400222046611CCCB26E4938
:1038C0000A5401222046611CCCB26B490A546B4851
:1038D00090F8D8202046611CCCB267490A540022D7
:1038E0002046611CCCB264490A541A222046611C4D
:1038F000CCB261490A5400222046611CCCB25E4918
:103900000A5401222046611CCCB25B490A545B4830
:1039100090F8D9202046611CCCB257490A54574828
:1039200090F8B20100287DD000222046611CCCB264
:1039300051490A5406222046611CCCB24E490A5411
:1039400000222046611CCCB24B490A544B4890F8E7
:10395000B221AFF2E4214A480CF03EFC48480BF09B
:10396000BBFFC2B22046611CCCB243490A540819BD
:1039700043490BF0B8FF42480BF0AEFF2044C4B2FD
:1039800000222046611CCCB23B490A540A22204640
:10399000611CCCB238490A5400222046611CCCB2CA
:1039A00035490A543548B0F9CE21AFF23C3134489C
:1039B0000CF012FC32480BF08FFFC2B22046611CA3
:1039C000CCB22D490A5408192D490BF08CFF2C4814
:1039D0000BF082FF2044C4B200222046611CCCB20E
:1039E00025490A540E222046611CCCB222490A54B1
:1039F00000222046611CCCB21F490A541F48D0F84F
:103A0000C821AFF294311E480CF0E6FB1C480BF0C5
:103A100063FFC2B22046611CCCB217490A54081990
:103A2000174900E079E00BF05EFF15480BF054FFFA
:103A30002044C4B200222046611CCCB20E490A5474
:103A400013222146601CC4B20B4842540022204677
:103A5000611CCCB208490A540848B0F85222AFF2AF
:103A6000F03107480CF0B8FB05480BF035FFC2B247
:103A70002046611CCCB205E066020020942600209E
:103A800028260020FE490A540819FE490BF02BFF96
:103A9000FC480BF021FF2044C4B200222046611CE8
:103AA000CCB2F7490A5417222046611CCCB2F44923
:103AB0000A5400222046611CCCB2F1490A5401226A
:103AC0002046611CCCB2EE490A54EF4890F8B02170
:103AD0002146601CC4B2EA48425400222046611CC0
:103AE000CCB2E7490A541B222046611CCCB2E449FF
:103AF0000A5400222046611CCCB2E1490A5401223A
:103B00002046611CCCB2DE490A54DF4890F8B1214E
:103B10002046611CCCB2DA490A54DB4890F88A028C
:103B200000287DD000222046611CCCB2D4490A5422
:103B300007222146601CC4B2D148425400222046CC
:103B4000611CCCB2CE490A54CF4890F88A22AFF219
:103B5000E041CC480CF040FBCA480BF0BDFEC2B2BD
:103B60002046611CCCB2C6490A540819C5490BF05D
:103B7000BAFEC4480BF0B0FE2044C4B20022204676
:103B8000611CCCB2BE490A540B222046611CCCB247
:103B9000BB490A5400222046611CCCB2B8490A54E1
:103BA000B948B0F9A622AFF23851B6480CF014FB70
:103BB000B4480BF091FEC2B22046611CCCB2B049B1
:103BC0000A540819AF490BF08EFEAE480BF084FE84
:103BD0002044C4B200222046611CCCB2A8490A5439
:103BE0000F222146601CC4B2A54842540022204640
:103BF000611CCCB2A2490A54A348D0F8A022AFF26B
:103C00009051A0480CF0E8FA9E480BF065FEC2B255
:103C10002046611CCCB29A490A540819994900E01F
:103C200072E00BF060FE97480BF056FE2044C4B2E1
:103C300000222046611CCCB291490A54142220462D
:103C4000611CCCB28E490A5400222046611CCCB2C1
:103C50008B490A548C48B0F82A23AFF2EC518948BA
:103C60000CF0BAFA87480BF037FEC2B22046611C4E
:103C7000CCB283490A54081982490BF034FE8148BA
:103C80000BF02AFE2044C4B200222046611CCCB2B4
:103C90007B490A5418222046611CCCB278490A5448
:103CA00000222046611CCCB275490A5401222046EC
:103CB000611CCCB272490A54734890F8882220469D
:103CC000611CCCB26E490A5400222046611CCCB261
:103CD0006B490A541C222046611CCCB268490A5424
:103CE00000222046611CCCB265490A5401222046BC
:103CF000611CCCB262490A54634890F8892220467C
:103D0000611CCCB25E490A5400222046611CCCB230
:103D10005B490A5410222046611CCCB258490A540F
:103D200000222046611CCCB255490A5457484068CD
:103D30004068028856A153480CF04EFA51480BF0E7
:103D4000CBFDC2B22046611CCCB24D490A540819C1
:103D50004C490BF0C8FD4B480BF0BEFD2044C4B2EB
:103D6000FF222046611CCCB245490A54FC22204661
:103D7000611CCCB242490A54FF222046611CCCB2DD
:103D80003F490A542046611CCCB23D490A5400F018
:103D900063BFEE222046611CCCB239490A54B122DD
:103DA0002046611CCCB236490A5412222046611CBE
:103DB000CCB233490A5400222046611CCCB23049AF
:103DC0000A5405222046611CCCB22D490A542E48C3
:103DD00090F8620300287DD000222046611CCCB2FE
:103DE00027490A5404222046611CCCB224490A54B3
:103DF00000222046611CCCB221490A54224890F886
:103E00006223AFF294711F480CF0E6F91D480BF0E5
:103E100063FDC2B22046611CCCB219490A5408198C
:103E200018490BF060FD17480BF056FD2044C4B252
:103E300000222046611CCCB211490A5408222046B7
:103E4000611CCCB20E490A5400222046611CCCB23F
:103E50000B490A540C48B0F97E23AFF2EC710948C3
:103E60000CF0BAF907480BF037FDC2B22046611CCE
:103E7000CCB203490A54081902490BF034FD09E099
:103E8000660200202826002094260020040000203E
:103E900025780000FE480BF01FFD2044C4B200222C
:103EA0002046611CCCB2FB490A540C222046611CFE
:103EB000CCB2F8490A5400222046611CCCB2F54924
:103EC0000A54F548D0F87823AFF65C01F0480CF0BE
:103ED00083F900E07DE0EE480BF0FEFCC2B2204624
:103EE000611CCCB2EB490A540819E9490BF0FBFC00
:103EF000E7480BF0F1FC2044C4B200222046611CCC
:103F0000CCB2E4490A5411222046611CCCB2E149EA
:103F10000A5400222046611CCCB2DE490A54DE4815
:103F2000B0F80224AFF6B801D9480CF055F9D848DA
:103F30000BF0D2FCC2B22046611CCCB2D5490A5467
:103F40000819D3490BF0CFFCD1480BF0C5FC204435
:103F5000C4B200222046611CCCB2CE490A541522BC
:103F60002046611CCCB2CB490A5400222046611C79
:103F7000CCB2C8490A5401222046611CCCB2C549C2
:103F80000A54C54890F860232046611CCCB2C14950
:103F90000A5400222046611CCCB2BE490A541922A0
:103FA0002046611CCCB2BB490A5400222046611C49
:103FB000CCB2B8490A5401222046611CCCB2B549A2
:103FC0000A54B54890F861232046611CCCB2B1492F
:103FD0000A54B14890F83A0400287DD000222046C7
:103FE000611CCCB2AB490A5405222046611CCCB2FC
:103FF000A8490A5400222046611CCCB2A5490A54A3
:10400000A54890F83A24AFF69811A1480CF0E4F8CE
:104010009F480BF061FCC2B22046611CCCB29D49A6
:104020000A5408199A490BF05EFC99480BF054FCAD
:104030002044C4B200222046611CCCB295490A54E7
:1040400009222046611CCCB292490A540022204623
:10405000611CCCB28F490A548F48B0F95624AFF690
:10406000F0118B480CF0B8F889480BF035FCC2B25F
:104070002146601CC4B2874842540146081984494D
:104080000BF031FC82480BF027FC2044C4B2002224
:104090002046611CCCB27F490A540D222046611C87
:1040A000CCB27C490A5400222046611CCCB279492A
:1040B0000A547948D0F85024AFF64C2174480CF0DB
:1040C0008BF873480BF008FCC2B22046611CCCB2DE
:1040D00070490A54081900E073E06D490BF003FCC5
:1040E0006B480BF0F9FB2044C4B200222046611C4F
:1040F000CCB268490A5412222046611CCCB26549F0
:104100000A5400222146601CC4B2624842546248EC
:10411000B0F8DA24AFF6A8215D480CF05DF85C48F1
:104120000BF0DAFBC2B22046611CCCB259490A54EA
:10413000081957490BF0D7FB55480BF0CDFB20442D
:10414000C4B200222046611CCCB252490A54162245
:104150002046611CCCB24F490A5400222046611C03
:10416000CCB24C490A5401222046611CCCB24949C8
:104170000A54494890F838242046611CCCB245497D
:104180000A5400222046611CCCB242490A541A2229
:104190002046611CCCB23F490A5400222046611CD3
:1041A000CCB23C490A5401222046611CCCB23949A8
:1041B0000A54394890F839242046611CCCB235495C
:1041C0000A54354890F81205002867D0002220468E
:1041D000611CCCB22F490A5406222046611CCCB285
:1041E0002C490A5400222046611CCCB229490A54A9
:1041F000294890F81225AFF6883125480BF0ECFFDE
:1042000023480BF069FBC2B22046611CCCB22149A5
:104210000A5408191E490BF066FB1D480BF05CFBA5
:104220002044C4B200222046611CCCB219490A5471
:104230000A222046611CCCB216490A5400222046AC
:10424000611CCCB213490A541348B0F92E25AFF6BD
:10425000E0310F480BF0C0FF0D480BF03DFBC2B240
:104260002046611CCCB20B490A54081908490BF0CE
:104270003AFB07480BF030FB2044C4B20022204632
:10428000611CCCB203490A540E222046611C06E090
:104290002826002066020020942600208EE0CCB262
:1042A000FE490A5400222046611CCCB2FB490A5444
:1042B000FB48D0F82825AFF64841FA480BF08CFFB0
:1042C000F8480BF009FBC2B22046611CCCB2F3499E
:1042D0000A540819F3490BF006FBF2480BF0FCFAFC
:1042E0002044C4B200222046611CCCB2EB490A54DF
:1042F00013222046611CCCB2E8490A540022204611
:10430000611CCCB2E5490A54E548B0F8B225AFF6D5
:10431000A041E4480BF060FFE2480BF0DDFAC2B2C6
:104320002046611CCCB2DD490A540819DD490BF066
:10433000DAFADC480BF0D0FA2044C4B2002220465E
:10434000611CCCB2D5490A5417222046611CCCB25C
:10435000D2490A5400222046611CCCB2CF490A54EB
:1043600001222046611CCCB2CC490A54CC4890F8BA
:1043700010252046611CCCB2C8490A5400222046B0
:10438000611CCCB2C5490A541B222146601CC4B230
:10439000C248425400222146601CC4B2BF48425465
:1043A00001222046611CCCB2BC490A54BC4890F89A
:1043B00011252046611CCCB2B8490A54B84890F87F
:1043C000EA0500287DD000222046611CCCB2B3490A
:1043D0000A5407222046611CCCB2B0490A5400227C
:1043E0002046611CCCB2AD490A54AD4890F8EA258C
:1043F000AFF68451AB480BF0EFFEAA480BF06CFA15
:10440000C2B22046611CCCB2A4490A540819A5497D
:104410000BF069FAA3480BF05FFA2044C4B2002203
:104420002046611CCCB29D490A540B222046611CD7
:10443000CCB29A490A5400222046611CCCB297495A
:104440000A549748B0F90626AFF6DC5195480BF0B0
:10445000C3FE94480BF040FAC2B22046611CCCB2B5
:104460008E490A5408198F490BF03DFA8D480BF01C
:1044700033FA2044C4B200222046611CCCB28749E2
:104480000A540F222046611CCCB284490A540022EF
:104490002046611CCCB281490A548148D0F80026DC
:1044A000AFF634617F480BF097FE7E480BF014FAAC
:1044B000C2B22046611CCCB278490A540819794925
:1044C00000E072E00BF00FFA76480BF005FA20449A
:1044D000C4B200222046611CCCB270490A54142296
:1044E0002046611CCCB26D490A5400222046611C52
:1044F000CCB26A490A546A48B0F88A26AFF690618D
:1045000068480BF069FE67480BF0E6F9C2B2204636
:10451000611CCCB261490A54081962490BF0E3F9F5
:1045200060480BF0D9F92044C4B200222046611C37
:10453000CCB25A490A5418222046611CCCB25749C1
:104540000A5400222046611CCCB254490A5401226C
:104550002046611CCCB251490A54514890F8E825D4
:104560002046611CCCB24D490A5400222046611CF1
:10457000CCB24A490A541C222046611CCCB247499D
:104580000A5400222046611CCCB244490A5401223C
:104590002046611CCCB241490A54414890F8E925B3
:1045A0002146601CC4B23D48425400222046611C92
:1045B000CCB23A490A5410222046611CCCB2374989
:1045C0000A5400222046611CCCB234490A543648B1
:1045D000406840680288AFF2487132480BF0FCFD39
:1045E00030480BF079F9C2B22046611CCCB22B499D
:1045F0000A5408192B490BF076F92A480BF06CF98C
:104600002044C4B2FF222046611CCCB223490A5484
:10461000FC222046611CCCB220490A54FF222046CD
:10462000611CCCB21D490A542046611CCCB21B4906
:104630000A5411E3EE222046611CCCB217490A54F9
:10464000B1222046611CCCB214490A5412222046E1
:10465000611CCCB211490A5400222046611CCCB224
:104660000E490A5408222046611CCCB20B490A5458
:104670000E48007800287DD000222046611CCCB274
:1046800006490A5401222046611CCCB203490A544F
:1046900000222046611CCCB2004909E066020020DD
:1046A000942600202826002004000020802D0020D1
:1046B0000A54FE480278FEA1FE480BF08DFDFD482D
:1046C0000BF00AF9C2B22046611CCCB2FA490A5476
:1046D0000819F8490BF007F9F6480BF0FDF82044EB
:1046E000C4B200222046611CCCB2F3490A54052210
:1046F0002046611CCCB2F0490A5400222046611CBD
:10470000CCB2ED490A54E9484269E9A1E9480BF005
:1047100063FDE8480BF0E0F8C2B22046611CCCB261
:10472000E5490A540819E3490BF0DDF8E1480BF0BC
:10473000D3F82044C4B200222046611CCCB2DE492A
:104740000A5409222046611CCCB2DB490A540022DB
:104750002046611CCCB2D8490A54D4488269D4A1FD
:10476000D4480BF039FDD3480BF0B6F8C2B220465E
:10477000611C00E02AE0CCB2CF490A540819CD49A7
:104780000BF0B1F8CB480BF0A7F82044C4B20022DC
:104790002046611CCCB2C8490A5415222046611C2F
:1047A000CCB2C5490A5400222046611CCCB2C24991
:1047B0000A5401222046611CCCB2BF490A54BB48AE
:1047C00042782046611CCCB2BB490A54B74890F8E5
:1047D000540000287ED000222046611CCCB2B6498D
:1047E0000A5402222046611CCCB2B3490A5400226A
:1047F0002046611CCCB2B0490A54AC4890F8542011
:10480000ABA1AC480BF0E8FCAA480BF065F8C2B2CB
:104810002046611CCCB2A8490A540819A5490BF0DE
:1048200062F8A4480BF058F82044C4B20022204695
:10483000611CCCB2A0490A5406222046611CCCB2AD
:104840009D490A5400222046611CCCB29A490A5460
:104850009648826E96A197480BF0BEFC95480BF0E7
:104860003BF8C2B22046611CCCB293490A540819E5
:1048700090490BF038F88F480BF02EF82044C4B262
:1048800000222046611CCCB28B490A540A222046E1
:10489000611CCCB288490A5400222046611CCCB26B
:1048A00085490A548148C26E81A182480BF094FC6C
:1048B00080480BF011F8C2B22146601CC4B27E4899
:1048C0004254014608197B490BF00DF879480BF06A
:1048D00003F800E021E02044C4B200222046611C1D
:1048E000CCB275490A5411222046611CCCB27249DF
:1048F0000A5400222046611CCCB26F490A5401229E
:104900002046611CCCB26C490A54684890F8552086
:104910002046611CCCB268490A54644890F8A8004B
:1049200000287DD000222046611CCCB262490A5486
:1049300003222046611CCCB25F490A540022204663
:10494000611CCCB25C490A54584890F8A82058A180
:1049500058480BF041FC57480AF0BEFFC2B220464F
:10496000611CCCB254490A54081952490AF0BBFFE1
:1049700050480AF0B1FF2044C4B200222046611C16
:10498000CCB24D490A5407222046611CCCB24A4998
:104990000A5400222046611CCCB247490A544348BD
:1049A000D0F8BC2042A143480BF016FC41480AF065
:1049B00093FFC2B22046611CCCB23F490A54081989
:1049C0003C490AF090FF3B480AF086FF2044C4B2FD
:1049D00000222046611CCCB237490A540B222046E3
:1049E000611CCCB234490A5400222046611CCCB26E
:1049F00031490A542D48D0F8C0202DA12D480BF084
:104A0000EBFB2C480AF068FFC2B22046611CCCB216
:104A100029490A54081927490AF065FF254800E08A
:104A200023E00AF059FF2044C4B200222046611C52
:104A3000CCB221490A5412222146601CC4B21E483D
:104A4000425400222146601CC4B21B484254012239
:104A50002046611CCCB218490A54144890F8A92089
:104A60002146601CC4B214484254104890F8FC001F
:104A700000287CD000222146601CC4B20E4842545B
:104A800004222046611CCCB20B490A540022204665
:104A9000611CCCB208490A54044890F8FC2004A1D7
:104AA00004480BF099FB034808E00000802D00202B
:104AB0002564000028260020660200200AF00CFF72
:104AC000C2B22046611CCCB266490A540819664934
:104AD0000AF009FF64480AF0FFFE2044C4B2002235
:104AE0002146601CC4B25F48425408222146601C23
:104AF000C4B25C48425400222046611CCCB25949E1
:104B00000A545A48D0F81021AFF25C0156480BF015
:104B100063FB55480AF0E0FEC2B22046611CCCB2ED
:104B200050490A54081950490AF0DDFE4E480AF06F
:104B3000D3FE2044C4B200222046611CCCB24949B5
:104B40000A540C222046611CCCB246490A54002269
:104B50002046611CCCB243490A544448B0F90C21A8
:104B6000AFF2B40140480BF037FB3F4800E030E0C3
:104B70000AF0B2FEC2B22046611CCCB239490A54D6
:104B8000081939490AF0AFFE37480AF0A5FE20445B
:104B9000C4B200222146601CC4B2324842541322DF
:104BA0002146601CC4B22F48425400222146601C9A
:104BB000C4B22C48425401222046611CCCB229497F
:104BC0000A542A4890F8FD202046611CCCB22549A1
:104BD0000A5400222046611CCCB222490A541E22EB
:104BE0002146601CC4B21F48425400222046611C6A
:104BF000CCB21C490A541E481EA102681A480BF088
:104C0000EBFA19480AF068FEC2B22046611CCCB229
:104C100014490A54081914490AF065FE12480AF0AA
:104C20005BFE2044C4B2FF222146601CC4B20D4882
:104C30004254FC222046611CCCB20A490A54FF228D
:104C40002146601CC4B2074842542046611CCCB2C5
:104C500004490A5400E000BF00BF2046FEF7E1FB14
:104C600010BD00006602002028260020802D0020B4
:104C7000600000202523580A0000000000B597B00E
:104C80000121042007F0AEF80121880407F0DDF8C7
:104C90000121480507F0A6F807220A21634806F01B
:104CA000E6FE07220B21614806F0E1FE4FF440606A
:104CB000119002208DF8480000208DF84A00032052
:104CC0008DF8490000208DF84B0011A9574806F0D7
:104CD00043FE4FF4E13013900020ADF85000ADF8E2
:104CE0005200ADF85400ADF858000C20ADF8560055
:104CF00013A94F4808F054F8012240F225514C48BE
:104D000008F08CF927208DF8400004208DF8410030
:104D100000208DF8420001208DF8430010A805F016
:104D200076FE444806F0D6FB4FF00060019000206C
:104D3000059040200490404803903D48001D02909B
:104D40000015079000200690099008900A904FF4F3
:104D500040300B9000200C9001200D9000200F900F
:104D60000E9001A9334806F057FC3449314806F04B
:104D700006FD32492F4806F05DFD0E208DF84000FB
:104D800002208DF8410004208DF8420001208DF8AA
:104D9000430010A805F03BFE01221021254806F033
:104DA00002FD01228021224808F02FF917B000BD32
:104DB00010B522491F4806F013FD01280AD11F49EA
:104DC0001C4806F0DCFC1D491A4806F033FD0020A3
:104DD0001B49087310BD70B504460D461848007B8A
:104DE00078B92A46214614480AF052FD294611484E
:104DF00006F06DFC01210F4806F048FC0120104927
:104E0000087370BD10B540F22551094808F041F90A
:104E100050B12021064808F033F940F225510448EA
:104E200008F06EF904F078FF10BD000000080240A1
:104E300000480040586002408603002000800018AF
:104E4000C6030020002282610160C2610023036268
:104E5000436280ED031A80ED010AC0ED020AC0ED45
:104E6000041A704701688269891AC161C269016ABE
:104E7000511A00EE101AB8EEC00AD0ED010A20EE69
:104E8000200A90ED021AC16900EE901AF8EEE00ACD
:104E900001EE200AC269416A0A44016AA2EB41019B
:104EA00000EE901AF8EEE00A90ED031A01EE200AE7
:104EB000BDEEC00A10EE101A4161026A4262C26978
:104EC000026270472DE9F04186B004460D46164651
:104ED0001F464FF0000800208DF80C008DF80D00E3
:104EE00008208DF80E0040F2FF18CDF80480042051
:104EF00001F031F850B9884890F86003012805D1D5
:104F0000200A8DF80F008DF8104005E000208DF884
:104F10000F0000218DF81010052001F01CF850B989
:104F20007D4890F83804012805D1290A8DF8111020
:104F30008DF8125004E000218DF811108DF8121038
:104F4000062001F008F850B9734890F810050128C0
:104F500005D1310A8DF813108DF8146004E000219A
:104F60008DF813108DF81410072000F0F4FF50B9DD
:104F7000694890F8E805012805D1390A8DF815101F
:104F80008DF8167004E000218DF815108DF81610BC
:104F900001A9624805F038FF06B0BDE8F0812DE9AF
:104FA000F04186B004460D4616461F464FF00008F5
:104FB00000208DF80C008DF80D0008208DF80E00F3
:104FC0004FF40078CDF80480002000F0C4FF48B909
:104FD00051480078012805D1200A8DF80F008DF87E
:104FE000104005E000208DF80F0000218DF8101012
:104FF000012000F0B0FF50B9474890F8D8000128D0
:1050000005D1290A8DF811108DF8125004E0002105
:105010008DF811108DF81210022000F09CFF50B98D
:105020003D4890F8B001012805D1310A8DF81310E0
:105030008DF8146004E000218DF813108DF8141021
:10504000032000F088FF50B9334890F88802012807
:1050500005D1390A8DF815108DF8167004E000217D
:105060008DF815108DF8161001A92C4805F0CCFE0E
:1050700006B0BDE8F08100204BE000EBC00101EB81
:105080004101254A02EBC101B1F90810002908DDF0
:1050900000EBC00101EB410102EBC101B1F90810C5
:1050A00009E000EBC00101EB41011B4A02EBC10129
:1050B000B1F90810494200EBC00202EB4202164B64
:1050C00003EBC202B2F8D020914220DD00EBC00118
:1050D00001EB41011A4602EBC101B1F908100029A8
:1050E00002DA4FF0FF3100E0012100EBC00202EBD9
:1050F0004202094B03EBC202B2F8D02051430AB27C
:1051000000EBC00101EB410103EBC1010A81411C2D
:10511000C8B20828B1DB7047942600200068004020
:1051200010B54FF40050FE490880FE490880132056
:10513000FB4988702420FB49887043F69910F84990
:10514000888042F22830F74988809FEDF70AF448BA
:1051500080ED020A9FEDF50A084680ED020A002064
:10516000F34908709FEDF30A084680ED010A01201B
:1051700008724FF47A704881012008734FF47A70F6
:10518000C88140000882012088740020C8744FF450
:10519000FA60E949888300204860E848E14B0ECB7B
:1051A0004C300EC00020E549803908704870052059
:1051B0008870002048606421E048803841813221B5
:1051C0000181C168DFEDDE1A9FEDDE1ADFEDDE0A38
:1051D000B0EE0C0A4830FFF735FED8488038B0F9F9
:1051E0000A10F7EE001A9FEDD91ADFEDD90AB1EED9
:1051F000040A7030FFF726FE1422CD49CF4818303C
:105200000AF046FBCD48D830C64B0ECB4C300EC012
:105210000020CA49803981F8D8000021C748803869
:1052200080F8D910052180F8DA100021C0F8DC10D0
:105230006421A0F8E2103221A0F8E010C168DFED8F
:10524000C01A9FEDC01ADFEDC00AB0EE0C0A00F5DF
:105250009070FFF7F7FDB9488038B0F90A10F7EE03
:10526000001A9FEDBA1ADFEDBA0AB1EE040A00F592
:10527000A470FFF7E7FD1422AD49B048F0300AF002
:1052800007FBB448A74B0ECB4C300EC00020AB49F7
:10529000803981F8B0010021A848803880F8B11128
:1052A000052180F8B2110021C0F8B4116421A0F8E2
:1052B000BA113221A0F8B811C168DFEDA11A9FED33
:1052C000A11ADFEDA10AB0EE0C0A00F5FC70FFF7A1
:1052D000B9FD9A488038B0F90A10F7EE001A9FED30
:1052E0009B1ADFED9B0AB1EE040A00F50870FFF788
:1052F000A9FD14228E49974818300AF0C9FA95483A
:10530000D830884B0ECB4C300EC000208B498039F2
:1053100081F8880200218948803880F889120521A7
:1053200080F88A120021C0F88C126421A0F8921231
:105330003221A0F89012C168DFED811A9FED811A29
:10534000DFED810AB0EE0C0A00F53470FFF77AFD4C
:105350007A488038B0F90A10F7EE001A9FED7B1AF0
:10536000DFED7B0AB1EE040A00F53E70FFF76AFD3F
:1053700014226F497748F0300AF08AFA7648684B71
:105380000ECB4C300EC000206C49803981F8600390
:1053900000216A48803880F86113052180F8621383
:1053A0005F21C0F864136421A0F86A133221A0F8C9
:1053B0006813C168DFED621A9FED621ADFED640ABF
:1053C000B2EE000A00F56A70FFF73CFD5B488038DA
:1053D000B0F90A10F7EE001A9FED5A1ADFED5C0AD9
:1053E000B2EE000A00F57470FFF72CFD142250494C
:1053F000594818300AF04CFA5748D830484B0ECB71
:105400004C300EC000204D49803981F8380400210D
:105410004A48803880F83914052180F83A146FF032
:105420005E01C0F83C146421A0F842143221A0F8B7
:105430004014C168DFED421A9FED421ADFED440AC5
:10544000B2EE000A00F59060FFF7FCFC3B488038A4
:10545000B0F90A10F7EE001A9FED3A1ADFED3C0A98
:10546000B2EE000A00F59560FFF7ECFC142230491B
:105470003948F0300AF00CFA3848294B0ECB4C3042
:105480000EC000202D49803981F8100500212B48DD
:10549000803880F81115052180F812155F21C0F8B9
:1054A00014156421A0F81A153221A0F81815C16846
:1054B000DFED231A9FED231ADFED250AB2EE000A75
:1054C00000F5AB60FFF7BEFC1C488038B0F90A104D
:1054D000F7EE001A9FED1B1ADFED1D0AB2EE000A6F
:1054E00000F5B060FFF7AEFC142211491B481830DC
:1054F0000AF0CEF91948D830094B0ECB4C300EC00B
:1055000000200E49803981F8E80500210B488038D9
:1055100080F8E915052180F8EA156FF05E011FE0BB
:105520005426002048260020F6283C4077BEC34081
:10553000602600200000E14474260020142700208B
:10554000CDCCCC3E000000008FC2F53DCDCC4C3E12
:105550009A99993EC4280020742A0020242C002007
:10556000C0F8EC156421A0F8F2153221A0F8F0156E
:10557000C1685FED0D1A1FED0D1A5FED0B0AB2EE5B
:10558000000A00F5C660FFF75DFCFB48B0F90A10A1
:10559000F7EE001A1FED151A5FED130AB2EE000ABE
:1055A00000F5CB60FFF74EFC1422F449F4480AF0F2
:1055B0006FF90024BBE004EBC40000EB4000EE49AF
:1055C00001EBC000EF490968C0F8AC10ED48416834
:1055D00004EBC40000EB4000E74A02EBC000C0F857
:1055E000B01004EBC40101EB410102EBC10101F178
:1055F000B4000A22E34908310AF04AF9E148418A35
:1056000004EBC40000EB4000DB4A02EBC000A0F852
:10561000BE1004EBC40000EB4000114601EBC000DB
:10562000AC30D84A53699169D269C0E90531C26189
:1056300004EBC40000EB4000CF4901EBC000D0ED0B
:10564000270A04EBC40000EB400001EBC00090F817
:10565000CE0000EE100AB8EE400A20EE800A04EBFD
:10566000C40000EB400001EBC000D0ED350A60EE55
:10567000200A04EBC40000EB400001EBC000B0F8CE
:10568000CC0000EE100AB8EE400A20EE800ADFEDF2
:10569000BE0A80EE201ABCEEC10A04EBC40000EB87
:1056A000400001EBC00080ED2B0A04EBC40000EBCE
:1056B000400001EBC000406800EE100AB8EEC00ADE
:1056C00004EBC40000EB400001EBC000D0ED350A54
:1056D00060EE200A04EBC40000EB400001EBC000C8
:1056E00090F8CE0000EE100AB8EE400A60EE800A94
:1056F00004EBC40000EB400001EBC000B0F8CC00AC
:1057000000EE100AB8EE400A20EE800ADFED9E0A95
:1057100080EE201ABDEEC10A10EE100A04EBC4019F
:1057200001EB4101944A02EBC101C860641C082CE2
:10573000FFF641AF00209549C87088704870087125
:10574000087000BF0BE044F62C4200EBC00101EBF7
:105750004101894B03EBC101A1F8A220401C0428A0
:10576000F1DB10BD002245210A5402620021816153
:10577000704710B5044604EBC40000EB40007E49BE
:1057800001EBC000D0ED200A04EBC40000EB4000A8
:1057900001EBC000B0F90A0000EE100AB8EEC00A32
:1057A00020EE800ABDEEC00A10EE100A04EBC40120
:1057B00001EB4101704A02EBC101086704EBC40030
:1057C00000EB4000114601EBC000B0F91E1004EBE5
:1057D000C40000EB400002EBC000C0F8881004EBEE
:1057E000C40101EB410102EBC10101F17000FFF7BF
:1057F00039FB04EBC40000EB40005F4901EBC00043
:10580000018904EBC40000EB40005B4A02EBC000DE
:10581000D0F88400084401B204EBC40000EB40005F
:1058200002EBC000018110BD10B5044604EBC400BA
:1058300000EB4000504901EBC000406800EE100A48
:10584000B8EEC00A04EBC40000EB400001EBC0005E
:10585000D0ED350A60EE200A04EBC40000EB4000F6
:1058600001EBC00090F8CE0000EE100AB8EE400A3E
:1058700060EE800A04EBC40000EB400001EBC000C6
:10588000B0F8CC0000EE100AB8EE400A20EE800A14
:10589000DFED3D0A80EE201ABDEEC10A10EE100ABF
:1058A00004EBC40101EB4101334A02EBC101C860C2
:1058B00004EBC40000EB4000114601EBC000C068DF
:1058C00004EBC40101EB410102EBC101886404EB6C
:1058D000C40000EB4000114601EBC000407870B9F5
:1058E00004EBC40000EB400001EBC000D0F8B000B6
:1058F00004EBC40101EB410102EBC101886404EB3C
:10590000C40000EB40001C4901EBC00090F8980077
:1059100088B304EBC40000EB400001EBC000806CD6
:10592000002807DD04EBC40000EB400001EBC000E1
:10593000806C08E004EBC40000EB40000E4901EB72
:10594000C000806C404204EBC40101EB41010A4AF3
:1059500002EBC101D1F8AC1088422BD904EBC40092
:1059600000EB4000114601EBC000806C00280FDA0C
:105970004FF0FF300DE01DE094260020602600204F
:10598000142D0020742600200000B44320000020C5
:10599000012004EBC40101EB4101FE4A02EBC1010D
:1059A000D1F8AC10484304EBC40101EB410102EB18
:1059B000C101886404EBC40000EB4000F54901EB31
:1059C000C000016A04EBC40000EB4000F14A02EBA6
:1059D000C000016604EBC40101EB410102EBC1010F
:1059E00001F14800FFF73EFA04EBC40000EB400071
:1059F000E84901EBC000D0ED160A04EBC40000EB4F
:105A0000400001EBC000C06D00EE100AB8EEC00A05
:105A100020EE800ABDEEC00A10EE100A04EBC401AD
:105A200001EB4101DB4A02EBC101086704EBC40052
:105A300000EB4000114601EBC00090F8A00088B3D5
:105A400004EBC40000EB400001EBC000006F002835
:105A500007DD04EBC40000EB400001EBC000006F69
:105A600008E004EBC40000EB4000CA4901EBC000B1
:105A7000006F404204EBC40101EB4101C54A02EB57
:105A8000C101B1F8A21088421FDD04EBC40000EB95
:105A90004000114601EBC000006F002803DA4FF010
:105AA000FF3001E011E0012004EBC40101EB4101F2
:105AB000B84A02EBC101B1F8A210484304EBC4019B
:105AC00001EB410102EBC101086704EBC40000EBEC
:105AD0004000B04901EBC000B0F91E1004EBC40057
