:020000040800F2
:1000000020B3002021D3000831A4000833A4000845
:1000100045A4000849A400084DA400080000000001
:1000200000000000000000000000000051A40008D3
:1000300053A40008000000008BF50008EFF700084B
:100040003BD300083BD300083BD300083BD3000858
:100050003BD300083BD300083BD300083BD3000848
:100060003BD300083BD300083BD300083BD3000838
:100070003BD300083BD30008D14E00083BD3000817
:100080003BD30008D12100083BD300083BD3000834
:10009000890B00083BD300083BD300083BD3000882
:1000A0003BD300083BD300083BD300083BD30008F8
:1000B0003D030008FF0600083BD300083BD30008BF
:1000C0003BD300083BD300083BD300083BD30008D8
:1000D0003BD300083BD30008F7210008254F000858
:1000E0003BD300083BD300083BD300083BD30008B8
:1000F0003BD300083BD300083BD300083BD30008A8
:100100003BD300083BD300083BD300083BD3000897
:100110003BD300083BD300083BD300083BD3000887
:100120003BD300083BD300083BD300083BD3000877
:100130003BD300083BD300083BD300083BD3000867
:1001400089130008671500083BD300083BD300085B
:100150003BD300083BD30008C12000083BD3000874
:100160003BD300083BD300083BD300083BD3000837
:100170003BD300083BD300083BD300083BD3000827
:100180003BD300083BD30008DFF80CD00FF0A8FDEC
:10019000004800472F1F000820B3002030BF72B670
:1001A000704762B6704780F30888704710B5082022
:1001B00010F018FA044600206060204610BD0120AF
:1001C00044494871704710B506F0C8F9424806F036
:1001D00078FA07F0BFFF404808F053F805F030F810
:1001E00007F0E0FCFFF7EBFF002019E0002100EB37
:1001F00080023A4B03EB4202517000EB800203EBAA
:10020000420291714FF47A7100EB800203EB4202DB
:100210005180002100EB800203EB42029180401CE0
:100220000228E3DBFFF7C2FF2D49486010BD002222
:100230000A7803780B700270704770B506460C465A
:10024000354600E06D6815B16868A042FAD14CB13E
:1002500060686860204610F09DF921480078401ED3
:100260001F49087070BD02460B46114605E008881C
:10027000984201D10846704749680029F7D100200B
:10028000F9E72DE9F041074688463C4641462046BD
:10029000FFF7E9FF08B1BDE8F081002602E06468DD
:1002A000701CC6B20E480078B04201DD002CF6D1B9
:1002B0006CB1082010F096F90546A5F8008060683A
:1002C0006860656006480078401C0549087000BFFA
:1002D000E1E70000D2030020006800403401002064
:1002E000040000201FB5012108460BF0A6FDE348DD
:1002F00002900520ADF804000020ADF80600ADF82E
:100300000C0001A94FF080400BF04FFF0122114675
:1003100090070CF0EBFB012188070BF0CFFF1C20AE
:100320008DF8000003208DF8010001208DF80200F7
:100330008DF8030068460AF062FB1FBD70B501210D
:1003400088070CF0EAFB01287ED1012180070CF020
:10035000F5FB002476E0C4EB0410C94901EB8000F2
:1003600090F83200012823D1C4EB041011F82000CA
:10037000F0B10FF0C3F8C4EB0411C14A02EB8101E4
:10038000C96A411AC4EB041002EB8000008E81425E
:100390000ED9C4EB0410114601EB800090F8280040
:1003A000401CC4EB041102EB810181F8280007E036
:1003B0000020C4EB0411B24A02EB810181F828004D
:1003C000C4EB0410AE4901EB800090F8280014281B
:1003D0001BDD0121C4EB0410A94A02EB800080F868
:1003E0002510022009F00AFD621C032343EA0212D1
:1003F00042F48071A34A5068FFF743FF022009F0DE
:10040000EBFFC82009F001FE1AE0002009F0E4FF2C
:100410000021C4EB04109A4A02EB800080F82510FA
:10042000621C032343EA021242F48071954A506829
:10043000FFF719FF0546934948682946FFF7FDFE77
:10044000601CC4B2042C00E016E184DB00246DE0E3
:10045000C4EBC40000EB40008B4901EB8000407806
:10046000002862D00FF04AF8C4EBC40101EB41014F
:10047000854A02EB8101096C411AC4EBC40000EB10
:10048000400002EB8000B0F8440081421BD9C4EB6D
:10049000C40000EB4000114601EB800090F84700DB
:1004A000012810D1C4EBC40000EB400001EB800038
:1004B000808F401C81B2C4EBC40000EB400002EB13
:1004C0008000818708E00021C4EBC40000EB4000FD
:1004D0006D4A02EB80008187C4EBC40000EB400052
:1004E000694901EB8000808F642812DD0121C4EB93
:1004F000C40000EB4000644A02EB8000C177022098
:1005000009F07CFC032009F067FF642009F07DFD01
:100510000BE0002009F060FF0021C4EBC40000EBF9
:100520004000594A02EB8000C177641C042C8FD331
:10053000002404E0204605F0DFFE601CC4B2082C55
:10054000F8DB524890F8430000BB504890F81B017C
:10055000E0B94E4890F8F301C0B94C4890F8CB028E
:10056000A0B94A4890F8A30380B9484890F87B04A2
:1005700060B9464890F8530540B9444890F82B06B6
:1005800020B943A244A145480FF04AFE002471E07F
:1005900004EBC40000EB0410414901EB80004078FB
:1005A00090B30EF0ABFF04EBC40101EB04113C4A25
:1005B00002EB8101096D411A04EBC40000EB041049
:1005C00002EB8000B0F8540081421ED904EBC40055
:1005D00000EB0410114601EB800090F85700012851
:1005E00013D104EBC40000EB041001EB8000B0F861
:1005F0004C00401C81B204EBC40000EB041002EB81
:100600008000A0F84C100AE032E0002104EBC400A6
:1006100000EB0410224A02EB8000A0F84C1004EB1F
:10062000C40000EB04101E4901EB8000B0F84C0040
:10063000642810DD012104EBC40000EB0410184A0B
:1006400002EB800080F82F10022009F0D7FB042075
:1006500009F0C2FE0CE0002009F0BEFE002104EB10
:10066000C40000EB04100E4A02EB800080F82F104B
:10067000601CC4B2042C8BDB70BD00005FAE0A00AE
:100680007031002004000020B02F0020C42800207A
:10069000282A5F202A29000025730000310000204D
:1006A0009C3200201FB5012102200BF0C6FB42F650
:1006B000DF6002900720ADF804000020ADF80600CE
:1006C000ADF80C0001A97D480BF06FFD0122114629
:1006D0007A480CF00BFA012178480BF0EFFD1D2051
:1006E0008DF8000001208DF8010000208DF8020037
:1006F00001208DF8030068460AF081F91FBD70B52E
:1007000001216E480CF009FA01287CD101216B48C7
:100710000CF014FA002432E004EBC40000EB4000BB
:10072000674911F8300028B304EBC40000EB400027
:1007300001EBC0004078F0B104EBC40000EB4000D6
:1007400001EBC0008078012806D0022805D00428DB
:100750000BD005280DD104E00CE020B205F097F88D
:1007600008E020B205F0EEF804E020B205F05AFAF5
:1007700000E000BF02E020B205F0E4F8641C082CA1
:10078000CADB04F008FD4E4CB4F99032B4F9B8213C
:10079000B4F9E010B4F9080004F091FCB4F9F035B4
:1007A000B4F91825B4F94014B4F9680304F01AFC3C
:1007B000002477E0C4EB0410424911F8200000281F
:1007C00068D0C4EB041001EB80004078F0B3C4EBB8
:1007D000041001EB80008078B0B1012804D0022819
:1007E00021D0032845D135E0C4EB0411354A02EB92
:1007F0008101D1ED010AB0EE600A611CC8B200218E
:1008000007F01EFB36E057E0C4EB04112D4A02EB63
:100810008101D1ED040AB0EE600A611CC8B200216A
:1008200007F056FA26E0C4EB0412264B03EB8202D3
:100830009268C4EB0413234D05EB830393F838301F
:1008400002FB03F1621CD0B2002200E013E007F0CB
:10085000A1FA0FE0C4EB04111A4A02EB8101D1EDB9
:100860000D0AB0EE600A611CC8B2002107F04CFB13
:1008700000E000BF15E0C4EB0411124A02EB810155
:10088000D1ED0D0AB0EE600A611CC8B2002107F07C
:100890003BFB06E0611CC8B200219FED0B0A07F08C
:1008A000CFFA641C042C85DB0849094809F0DDF9FE
:1008B0000849094809F0D9F970BD0000000400405A
:1008C000C42800207031002000000000A86700202C
:1008D00000680040C46500200064004000B58BB093
:1008E000012148060BF0A9FA012108460BF072FA23
:1008F00009220B21FE480BF0B2F809220C21FC481A
:100900000BF0ADF802208DF818004FF4C0500590A0
:1009100005A9F7480BF018F814208DF828000320DB
:100920008DF8290000208DF82A0001208DF82B0079
:100930000AA80AF064F8EF480AF0CCF807A80AF011
:10094000EDF900208DF822008DF823008DF82400A9
:100950008DF825008DF826008DF827008DF81E00F3
:100960008DF81F0008208DF8200003208DF821004D
:10097000ADF81C0007A9DF480AF0C5F801208DF882
:100980000E008DF80F0000208DF8100046F2A00038
:10099000ADF8040046F2C000ADF8060046F2E000F3
:1009A000ADF808004FF4C240ADF80A000020ADF8E1
:1009B0000C0001208DF8110001A80AF02EF9032087
:1009C0008DF80E0001208DF80F0000208DF810002A
:1009D0004FF4C840ADF8040046F22000ADF8060020
:1009E00046F24000ADF8080046F26000ADF80A009B
:1009F0000020ADF80C0001208DF8110001A80AF0CC
:100A00000CF904208DF80E0000208DF80F00012055
:100A10008DF810000820ADF8040042F60400ADF88F
:100A200006004FF6FF70ADF80800ADF80A00002090
:100A3000ADF80C0001208DF8110001A80AF0EDF8C6
:100A400001220221AB480AF0E7FB0BB000BD10B554
:100A50000446A9484088401C1E2190FBF1F201FB8E
:100A60001200A5490988884203D10120A349887151
:100A700010BD20688038A0494A88091D01EB021189
:100A80000860A17A9C484288001D00EB02100171A9
:100A9000A27A99494B88091D01EB0311481D04F105
:100AA0000B010EF0EDFE94484088401C1E2190FB87
:100AB000F1F201FB12009049488000BFD8E710B561
:100AC00001468D484088401C1E2290FBF2F302FB39
:100AD0001300894A1288904203D10120874A9071FD
:100AE00010BDA1F18002844B5C881B1D03EB041335
:100AF0001A600523804A5488121D02EB04121371F8
:100B000042237D4A5488121D02EB041253717A4A23
:100B10005488121D02EB041293714723764A5488BD
:100B2000121D02EB0412D3714A1FD0B200EBC002B7
:100B300002EB4202724B03EBC202926900EE102AF2
:100B4000B8EEC00AF3EE0E0A20EE200ABDEEC00A8F
:100B500010EE102A12B26B4B23F810201A4632F80E
:100B60001030654A5488121D02EB0412138100BF35
:100B700061484088401C1E2290FBF2F302FB1300E8
:100B80005D4A508000BFABE710B586B002215948DE
:100B90000AF0AAFB00287CD0022156480AF03FFC4C
:100BA000022154480AF07DFB01AA002151480AF0B5
:100BB00018FA9DF80C0000286CD19DF80D00002853
:100BC000FAD140F20531019888420BD0491C0198B6
:100BD000884207D0491C0198884203D00198B0F59B
:100BE000427F7CD10198401FC4B29DF80F0043287A
:100BF0000FD19DF8100057280BD19DF811004828FF
:100C000007D19DF81200552803D101A8FFF71FFF57
:100C1000C7E09DF80F00432828D19DF81000482810
:100C200024D1BDF81100374921F81400084630F9E5
:100C3000140000EE100AB8EEC00AF3EE0E0A80EEC1
:100C4000201ABDEEC10A10EE100A04EBC40101EB3C
:100C500041012B4A02EBC1014860012004EBC401B1
:100C600001EB410102EBC10148709AE09DF80F00D1
:100C700053281BD19DF81000502817D1BDF8110042
:100C8000214921F81400084630F8141004EBC40080
:100C900001E046E1F9E000EB4000194A02EBC00038
:100CA000A0F8A21001A8FFF7D2FE7AE09DF80F008D
:100CB0004D2833D19DF810004F282FD19DF81100F9
:100CC00001282BD1052004EBC40101EB41010C4AA2
:100CD00002EBC1018870012004EBC40100E061E077
:100CE00001EB410102EBC101487004EBC4010DE0CE
:100CF0000000024000640040C4650020D2030020D0
:100D0000C42800200C0000201400002001EB410149
:100D100002F8310001A8FFF79AFE42E09DF80F00AB
:100D20004D2819D19DF810004F2815D19DF81100BC
:100D300090B9002004EBC40101EB41017A4A02F8AA
:100D4000310004EBC40101EB410102EBC101487029
:100D500001A8FFF77CFE24E09DF80F00532810D176
:100D60009DF8100054280CD1002004EBC40101EBC5
:100D700041016D4A02EBC101487001A8FFF767FE0F
:100D80000FE09DF80F0042280BD19DF8100042287B
:100D900007D19DF81100472803D1019988B2FFF7C8
:100DA0008EFE00BF0198B0F5487F6ED1BDF80F00F0
:100DB0005E490880BDF811004880BDF813008880A6
:100DC000BDF81500C8800846B0F9000000EE100A12
:100DD000B8EEC00AF3EE0E0A80EE201ABDEEC10A8C
:100DE00010EE100A504948600120487005208870B4
:100DF0004E48B0F9020000EE100AB8EEC00AF3EE59
:100E00000E0A80EE201ABDEEC10A10EE100AC1F8DB
:100E1000DC000121444880F8D910052180F8DA105F
:100E20004248B0F9040000EE100AB8EEC00AF3EE32
:100E30000E0A80EE201ABDEEC10A10EE100A3A49E1
:100E4000C1F8B4010121384880F8B111052180F8BA
:100E5000B2113648B0F9060000EE100AB8EEC00A2A
:100E6000F3EE0E0A80EE201ABDEEC10A10EE100A53
:100E70002D49C1F88C0201212B4880F889120521E7
:100E800080F88A1201A8FFF7E2FD9DF80C00042803
:100E900047D127490298884243D19DF810006B281A
:100EA0003FD19DF811004C283BD19DF8120001283C
:100EB0000CD1AA211C48C0F864134942C0F83C1464
:100EC000AA21C0F814154942C0F8EC159DF812008B
:100ED00060B95F211448C0F864134942C0F83C145B
:100EE0005F21C0F814154942C0F8EC15BDF8130095
:100EF00081B20D48A0F80214BDF8130081B20A486F
:100F0000A0F8DA14BDF8130081B20748A0F8B215B2
:100F1000BDF8130081B20448A0F88A1601A8FFF7B3
:100F200096FD06B010BD0000C42800200C00002073
:100F3000000501002DE9F0418AB004460D46164631
:100F40009846109F012188060AF077FF01210220B0
:100F50000AF040FF09220521FE480AF080FD09221F
:100F60000621FC480AF07BFD02208DF81400602069
:100F7000049004A9F7480AF0E7FC40208DF824000B
:100F800002208DF8250000208DF8260001208DF824
:100F9000270009A809F033FD41208DF82400022024
:100FA0008DF8250001208DF826008DF8270009A86E
:100FB00009F025FDE84809F08DFD06A809F0AEFE10
:100FC00000208DF81E008DF81F008DF820008DF890
:100FD00021008DF822008DF823008DF81A708DF80D
:100FE0001B408DF81C608DF81D500320ADF81800D3
:100FF00006A9D94809F087FD0E208DF80A000120C6
:101000008DF80B0000208DF80C0044F22000ADF8A4
:10101000000044F24000ADF8020044F26000ADF878
:1010200004004FF48140ADF806000020ADF8080040
:1010300001208DF80D00684609F0EFFD0F208DF8B6
:101040000A0001208DF80B0000208DF80C0044F2FE
:10105000A000ADF8000044F2C000ADF8020044F278
:10106000E000ADF804004FF48240ADF80600002027
:10107000ADF8080001208DF80D00684609F0CDFD9F
:1010800010208DF80A0001208DF80B0000208DF84B
:101090000C0045F22000ADF8000045F24000ADF82C
:1010A000020045F26000ADF804004FF4A140ADF835
:1010B00006000120ADF808008DF80D00684609F023
:1010C000ACFD11208DF80A0001208DF80B000020E6
:1010D0008DF80C0045F2A000ADF8000045F2C0000C
:1010E000ADF8020045F2E000ADF804004FF4A24074
:1010F000ADF806000120ADF808008DF80D00684637
:1011000009F08BFD12208DF80A0001208DF80B00EC
:1011100000208DF80C004FF48150ADF800004FF422
:101120008250ADF802004FF48350ADF804004FF444
:101130008450ADF806000120ADF808008DF80D00D0
:10114000684609F06AFD13208DF80A0001208DF829
:101150000B0000208DF80C004FF48550ADF8000016
:101160004FF48650ADF802004FF48750ADF80400FC
:101170004FF48850ADF806000120ADF808008DF856
:101180000D00684609F049FD14208DF80A00002082
:101190008DF80B0001208DF80C000020ADF8000048
:1011A0004FF49040ADF802004FF6FF70ADF8040028
:1011B0004FF47840ADF806000120ADF808008DF836
:1011C0000D00684609F029FD15208DF80A00012060
:1011D0008DF80B0000208DF80C004BF22000ADF8CC
:1011E00000004BF24000ADF802004BF26000ADF899
:1011F00004004BF28000ADF806000120ADF80800B5
:101200008DF80D00684609F008FD16208DF80A00DB
:1012100001208DF80B0000208DF80C004FF40150D8
:10122000ADF800004FF40250ADF80200ADF8040034
:10123000ADF806000120ADF808008DF80D006846F5
:1012400009F0EBFC01221021434809F0E5FF0122DF
:101250000221414809F0E0FF00200AB0BDE8F0811A
:1012600070B5044604EBC40000EB40003B4901EBC1
:10127000C000B0F90800002808DD04EBC40000EB52
:10128000400001EBC000B0F9080009E004EBC40025
:1012900000EB4000314901EBC000B0F908004042CA
:1012A00004EBC40101EB41012C4A02EBC101B1F88E
:1012B000D010884220DD04EBC40000EB4000114652
:1012C00001EBC000B0F90800002802DA4FF0FF304F
:1012D00000E0012004EBC40101EB41011F4A02EBD5
:1012E000C101B1F8D010484301B204EBC40000EBD7
:1012F000400002EBC000018104EBC40000EB4000A1
:10130000164911F8300040B9002104EBC40000EB8D
:101310004000124A02EBC0000181042C04DA4FF4B1
:1013200000700F49086003E040F2FF100C490860AC
:1013300000200B49487208720820887204F00B00E4
:10134000450004EBC40000EB4000044901EBC00081
:10135000018907E00004024000680040C428002022
:1013600040040020FE48415302466B1CD11850191E
:10137000FEF75DFF032C01D0072C04D1F8490B398F
:10138000F84809F039FD70BD10B586B001AA0021FA
:10139000F44809F026FE9DF80C0000287ED19DF847
:1013A0000C0000287FD19DF80E0008287BD1019801
:1013B000B0F5007F77D90198B0F5027F73D8019816
:1013C000401EC4B2E84850F82400E84941F824001F
:1013D0000EF094F8E44941F82400084650F824003F
:1013E000E24951F82410401AE14941F824009DF8DF
:1013F00012109DF8110041EA002001B204EBC40074
:1014000000EB4000DB4A02EBC000C1839DF81000F6
:101410009DF80F1040EA012104EBC40000EB4000EE
:1014200002EBC00041629DF814109DF8130041EAE0
:10143000002001B204EBC40000EB400002EBC0004E
:1014400081839DF8151004EBC40000EB400002EB13
:10145000C000018504F097FC04EBC40000EB4000E1
:10146000C44901EBC00090F84600D8B9012104EB53
:10147000C40000EB4000BF4A02EBC00080F84610F9
:10148000002104EBC40000EB400002EBC000A0F818
:10149000B41004EBC40000EB400000E003E002EBFA
:1014A000C000016200BF0221AE4809F0B8FF02216E
:1014B000AC4809F0F6FE06B010BDF0B585B00746A1
:1014C0000D46002412200090019000208DF80800A5
:1014D0008DF809008DF80A5000BF05E0395D0DF167
:1014E0000B000155601C84B2AC42F7DB69469D4895
:1014F00009F082FC0646002401E0601C84B23146FB
:10150000984809F011FD18B940F6FF708442F4DBE9
:1015100040F6FF70844202DB012005B0F0BD0020E0
:10152000FBE74168491C4160002101730169491EC4
:101530000161818A491C1E2291FBF2F302FB131107
:10154000818270474168491C416000210173016933
:10155000491E0161818A491C1E2291FBF2F302FBA4
:1015600013118182704710B586B010217D4809F0B3
:10157000BBFE002874D001AA01217A4809F031FD90
:101580001021784809F04BFF1021764809F089FEB8
:101590000198B0F5B06F74D940F285510198884236
:1015A0006FD89DF80D0000286BD10198A0F28150F2
:1015B000C4B2002104EBC40000EB04106E4A02EB3D
:1015C000800080F857109DF80F004F2809D19DF832
:1015D0001000602805D19DF81100602801D101207C
:1015E00000E000209DF80F10432909D19DF810104C
:1015F000622905D19DF81110602901D1012100E077
:10160000002108439DF80F10432909D19DF81010BF
:10161000642905D19DF81110602901D1012100E054
:10162000002108439DF80F10432909D19DF810109F
:101630006B2905D19DF81110602901D1012100E02D
:10164000002108439DF80F1043290AD19DF810107E
:101650006C2906D19DF81110602902D1012101E009
:101660006BE3002108439DF80F104B290AD19DF828
:101670001010402906D19DF81110602902D10121D6
:1016800001E053E1002108439DF80F104B2909D1D7
:101690009DF81010772905D19DF81110602901D10E
:1016A000012100E00021084330B1C4EB8411334A2A
:1016B00002EBC100FFF746FF9DF80F004B2816D143
:1016C0009DF81000402812D19DF8110060280ED11D
:1016D0009DF81300C01008B1012000E0002004EBC9
:1016E000C40101EB0411244A02EB810148709DF80A
:1016F0000F004F2810D19DF8100060280CD19DF8E4
:101700001100602808D19DF8130004EBC40101EB1F
:101710000411194A02F821009DF80F0043285CD1FA
:101720009DF81000622858D19DF81100602854D10E
:10173000DDF8131004EBC40000EB04100E4A02EBBA
:101740008000016104EBC40000EB0410114601EBC2
:10175000800090ED180A9FED0A1AC1EE000A11E010
:101760004B0400200068004000040020E00300203B
:1017700020040020C42800209C32002010580020A3
:101780000000B44304EBC40000EB041001EB800044
:10179000006900EE100AB8EEC00A20EE800AB1EE31
:1017A000001AC0EE010A04EBC40000EB041001EBC8
:1017B0008000B0F85C0000EE100AB8EE400A80EE3F
:1017C000801ABDEEC10A10EE100A00B204EBC4018B
:1017D00001EB041102EB810188809DF80F00432882
:1017E00049D19DF81000642845D19DF8110060286A
:1017F00041D1DDF8131004EBC40000EB0410FE4AE5
:1018000002EB8000416204EBC40000EB04101146BF
:1018100001EB800090ED180A1FED271AC1EE000AB7
:1018200004EBC40000EB041001EB8000406A00EE02
:10183000100AB8EEC00A20EE800AB1EE001AC0EE1F
:10184000010A04EBC40000EB041001EB8000B0F8C7
:101850005C0000EE100AB8EE400A80EE801ABDEE81
:10186000C10A10EE100A00B204EBC40101EB04112E
:1018700002EB810108839DF80F00432811D19DF8E8
:1018800010006B280DD19DF81100602809D1DDF8FA
:10189000131004EBC40000EB0410D74A02EB8000E5
:1018A000C1609DF80F00432811D19DF810006C28ED
:1018B0000DD19DF81100602809D1DDF8131004EB5B
:1018C000C40000EB0410CC4A02EB800001629DF8DA
:1018D0000F004B2829D19DF81000772825D19DF8BD
:1018E0001100602821D1DDF8131004EBC40000EBD7
:1018F0000410C14A02EB8000816204EBC40000EBDB
:101900000410114601EB8000806A00EE100AB8EE68
:10191000C00ADFEDBA0A80EE201A04EBC40000EB27
:10192000041001EB800080ED071A00BF0198B0F5AC
:10193000207F7DD90198B0F5227F79D89DF80D00E0
:10194000002875D10198A0F28120C4B20021C4EB17
:10195000C40000EB4000AA4A02EB800080F8471068
:101960009DF80F0041280BD19DF81000432807D1A6
:101970009DF8120000F04000012801D0012000E095
:1019800000209DF80F1042290BD19DF81010472917
:1019900007D19DF8121001F04001012901D0012169
:1019A00000E0002108439DF80F104A290BD19DF853
:1019B0001010562907D19DF8121001F0400101299D
:1019C00001D0012100E0002108439DF80F104D29AE
:1019D0000BD19DF810104F2907D19DF8121001F07E
:1019E0004001012901D0012100E0002108439DF8B8
:1019F0000F1050290BD19DF81010522907D19DF8D6
:101A0000121001F04001012901D0012100E0002164
:101A100008439DF80F1053290DD19DF8101044294B
:101A200009D19DF8121001F04001012903D000E016
:101A3000FCE0012100E0002108439DF80F1053292C
:101A40000BD19DF81010542907D19DF8121001F008
:101A50004001012901D0012100E0002108439DF847
:101A60000F1054290BD19DF81010432907D19DF870
:101A7000121001F04001012901D0012100E00021F4
:101A800008439DF80F1055290BD19DF810104D29D2
:101A900007D19DF8121001F04001012901D0012168
:101AA00000E00021084330B1C4EB8411554A02EB39
:101AB000C100FFF736FD9DF80F004D2817D19DF8A6
:101AC00010004F2813D19DF8120000F040000128AB
:101AD0000DD09DF8130008B1012000E00020C4EBF8
:101AE000C40101EB4101464A02EB810148709DF8B7
:101AF0000F0056282FD19DF8100058282BD19DF8A3
:101B0000120000F04000012825D0DDF81310C4EBCE
:101B1000C40000EB40003A4A02EB80004161C4EB94
:101B2000C40000EB4000114601EB8000B0F84C000F
:101B30003C2190FBF1F1C4EBC40000EB400002EB50
:101B40008000406990FBF1F1C4EBC40000EB400061
:101B500002EB800041619DF80F00502841D19DF8B3
:101B6000100058283DD19DF8120000F040000128D7
:101B700037D0DDF81300C4EBC40101EB4101204A6A
:101B800002EB81018861C4EBC40101EB410102EB6E
:101B9000810191ED140A9FED1C1AC1EE000A00EEBE
:101BA000100AB8EEC00A60EE800AC4EBC40101EB73
:101BB000410102EB8101B1F84C1000EE101AB8EEB1
:101BC000400A80EE801ABDEEC10A10EE101A09B26A
:101BD000C4EBC40202EB4202094B03EB8202118206
:101BE00000BF9DF80F0049281FD19DF81000512813
:101BF0001BD19DF8120009E09C3200200000084330
:101C0000B02F0020404C00200000B44300F0400002
:101C100001280AD0BDF8130001B2C4EBC40000EBE8
:101C20004000694A02EB8000418200BF0198812890
:101C300021D3019888281ED89DF80D00D8B90198A5
:101C40008138C4B2621C022343EA021242F440719A
:101C50005E4A5068FEF715FB4FF08071019841EA2B
:101C600000409DF80F1040EA01209DF81010084335
:101C70005749086000BF9DF80C0004285CD19DF80E
:101C80000D00E8BB002000900021029800F0FE004B
:101C9000C0EB00104F4A02EB800080F8321009219F
:101CA0000298B1EB102F46D16946B7EE000A0DF14C
:101CB0000F0008F08AF90298C0B2C0EB0010454945
:101CC00001EB800090F8380000EE900AF8EE600A10
:101CD00080EE201ABDEEC10A10EE100A029901F042
:101CE000FE01C1EB01113B4A02EB810188616946AB
:101CF000B2EE040A0DF10F0008F077F9029800E047
:101D00001AE000F0FE00C0EB0010324901EB800049
:101D100080ED050A69469FED300A0DF10F0008F0CD
:101D200064F9029800F0FE00C0EB0010294901EBB5
:101D3000800080ED080A00BF00BF06B010BD30B5BE
:101D400085B005460021254809F0CEF910B90020DC
:101D500005B030BD6A460021214809F042F900244F
:101D600004E00DF10B00005D2855641C9DF80A008D
:101D7000A042F6D89DF80A00EAE710B586B00446FE
:101D80004FF48230029000208DF80D0004208DF871
:101D90000C008DF80E008DF80F0034B193218DF8F2
:101DA00010104E218DF8111005E085218DF81010CE
:101DB00046218DF8111001218DF8121001A9084853
:101DC00009F01AF806B010BDB02F00200400002062
:101DD0006C0000207031002000007A440064004054
:101DE0000068004006E06C496C4807F03EFF0220A6
:101DF0000DF0D4FAF7E706E0012006F061F94FF4A0
:101E00007A700DF0CBFAF7E70120654981F860039D
:101E100081F8380481F8100581F8E805012160484F
:101E200080F8611380F8391480F8111580F8E915ED
:101E30004FF47A700DF0B2FA0121594880F8A513D9
:101E400080F87D1480F8551580F82D1605E004F013
:101E5000BDFA40F24C400DF0A1FAF8E703E04FF470
:101E60007A700DF09BFAFAE70CE0012005F028FEED
:101E7000012001E0411CC8B20528FBDB4FF496604D
:101E80000DF08CFAF1E707E008F049FA08F0B5F92F
:101E90004FF496700DF082FAF6E705E001F07BFB57
:101EA0004FF47A700DF07AFAF8E770B50446002521
:101EB00000BF022007F0A2FF002008F08DFA01F019
:101EC0006AFB0DF0AAFC0DF03FFB05460D23354AD9
:101ED000002135480CF01CFF1E23344A00213448F1
:101EE0000CF016FF0A23334A002133480CF010FF90
:101EF0000F23324A002132480CF00AFF0923314AED
:101F0000002131480CF004FF1023304A00213048F2
:101F10000CF0FEFE1F232F4A00212F480CF0F8FE84
:101F200005200DF073F928460DF012FB70BD08B5C1
:101F30004FF4FA6008F069F80BF058F94FF4A0601C
:101F400008F058FDFEF7CAFC0020032308221946BA
:101F50000090FEF7EFFF07F07DFE07F035FF08F079
:101F60001BFA00F0CFF800F03DF808F071F808F027
:101F7000B5F9FEF7B7F9FEF795FBFEF724F90BF07C
:101F800019FB0523154A002115480CF0C1FE0BF082
:101F900038FC002008BD00008C690020006800406B
:101FA000C4280020541000209B1E0008541200205A
:101FB000871E0008541A0020691E0008541E0020C5
:101FC0005D1E000854160020091E0008542200203F
:101FD000F71D000854280020E51D000854080020C3
:101FE000AB1E00081CB54048006840F010003E4998
:101FF00008603D481438006840F480003A491439BC
:1020000008600120022100230A46CDE900104FF4A8
:10201000C061364808F088FB07220921334808F0E0
:1020200063FB07220A21314808F05EFB40F2D92009
:102030002F4908814FF4037088810846008820F0FA
:1020400020000880032325220121062008F0BEFA83
:102050004FF48070274B264A121D04210090264819
:1020600008F0F8F901221021234809F094FB03231A
:1020700046220021072008F0A9FA1D48808A40F076
:1020800080001B4988820846808940F4005088817E
:102090001CBD70B504460D461848807A78B92A46AA
:1020A000214614480DF0ECFB2946134809F007FBC4
:1020B0000121114809F0E2FA01201049887270BD2F
:1020C00010B50F490C4809F083FB01280AD10C49CF
:1020D000094809F04CFB0A49074809F0A3FB002016
:1020E0000649887210BD00004438024000000240DA
:1020F0000010014052010020B8640240D2030020C9
:10210000008000281CB5FA48006840F40030F84907
:102110000860F7481038006840F40010F44910399E
:1021200008600120022100230A46CDE900100C219D
:10213000F04808F0F9FA07220221EE4808F0D4FA34
:1021400007220321EB4808F0CFFA4FF4B670EA49B2
:1021500008800C20091D0880E7480838008820F016
:102160002000E54908390880E348001D008840F058
:102170002000E149091D08800323262202210420B2
:1021800008F024FA4FF48070DC4BDB4A121F042164
:102190000090DB4808F05EF901221021D84809F0D0
:1021A000FAFA032311220221072008F00FFAD2487D
:1021B0000C30008840F08000CF490C310880CE48B8
:1021C000001D008840F40050CB49091D08801CBD4B
:1021D00010B5CC49CA4809F0FBFA01280AD1C9490F
:1021E000C74809F0C4FAC749C54809F01BFB0020DD
:1021F000C549C87210BD10B52DED028B002440F208
:102200002531BD4808380AF03CFF60B1BA480838AB
:102210000AF075FE0020BD4908702021BC480DF071
:1022200048FB01F0A4B940F22551B34808380AF040
:1022300028FF0028F5D02021AF4808380AF018FF01
:1022400040F22551AC4808380AF052FFAA48083835
:102250000AF055FEC4B2AD48007800F0400008B363
:10226000AA48007800F0800020BBFF2C06D1A748C8
:10227000007840F08000A54908701BE0A348007872
:1022800000F03F01A2484454A0480078401C9F49F8
:1022900008700846007800F03F0028280ADD00207A
:1022A000087007E0EE2C05D19848007840F0400017
:1022B000964908709548007800F080000028B0D05A
:1022C000944890F8200212287BD1924890F821027D
:1022D000102877D2DFE800F008121C28343F4A5556
:1022E00060778C9DAEBAC8D601208B49087081F802
:1022F000D80081F8B00181F88802C7E00020864943
:10230000087081F8D80081F8B00181F88802BDE03A
:1023100001208149487001217F4880F8D91080F858
:10232000B11180F88912B1E000207B49487000218A
:10233000794880F8D91080F8B11180F88912A5E0A9
:102340000120754981F8600381F8380481F810058F
:1023500081F8E8059AE000206F4981F8600381F870
:10236000380481F8100581F8E8058FE001216A48FA
:1023700080F8611380F8391480F8111580F8E91598
:1023800084E00021644880F8611380F8391480F8F3
:10239000111580F8E91579E001221146104604F084
:1023A00092FA01221146022004F08DFA0122114610
:1023B000032004F088FA01221146042004F083FA75
:1023C00064E064E061E001220021104604F07BFA41
:1023D00001220021104604F076FA01220021032098
:1023E00004F071FA01220021042004F06CFA4DE09F
:1023F0000121084604F090FA0121022004F08CFA31
:102400000121032004F088FA0121042004F084FA59
:102410003CE00121084604F0FBFA0121022004F00F
:10242000F7FA0121032004F0F3FA0121042004F05B
:10243000EFFA2BE000203849486000213648C0F808
:10244000DC10C0F8B411C0F88C121FE02D20324906
:10245000486041423048C0F8DC102D21C0F8B4116A
:102460004942C0F88C1211E05A202B494860414281
:102470002948C0F8DC105A21C0F8B4114942C0F80C
:102480008C1203E007F0ECFC00E000BF00BF214825
:1024900090F82102012804D11E4890F823021F4918
:1024A00008701C4890F82302092876D2DFE800F073
:1024B000053FC3C4FDFC75FBFA00164890F82502E1
:1024C000082831D1012080F3138800BF00BFBFF37B
:1024D0004F8F1348006800F4E06012490843001D64
:1024E0000F490860BFF34F8F00BF00BF00BFFDE77B
:1024F00040380240000002400844004072020020C0
:10250000A060024000802020D20300201D00002097
:102510007203002052010020C42800201C0000206B
:102520000CED00E00000FA0500BF00BFEBE3F74848
:1025300090F82502001F11287BD2DFE800F0202F41
:102540003E3F4041420F17184309447A7A617200B6
:102550000120EF49087081F83C006AE00020EC4956
:1025600048700021EA4880F83D1062E061E00120F7
:10257000E74948700121E64880F83D1059E0E548F8
:102580000DF062FEB0EE408AF0EE608A51EC180B5E
:102590000DF0AAF9DE4988604BE0F3E3DD480DF069
:1025A00053FEB0EE408AF0EE608A51EC180B0DF04D
:1025B0009BF90146D64841643BE03AE039E038E017
:1025C00037E036E035E0D3480DF03EFEB0EE408A0D
:1025D000F0EE608A51EC180B0DF0A5F9CC4988702B
:1025E000CC480DF031FEB0EE408AF0EE608A51EC3E
:1025F000180B0DF098F9C1B2C54880F83E1018E0EC
:102600000020FFF7BAFB642007F0FFFC0120FFF772
:10261000B4FB0120BE4948700121BD4880F83D103F
:1026200007E00320BA4988700321B94880F83E10BA
:1026300000BF00BF7AE779E7B44890F82502C01ED2
:102640000B2845D2DFE800F006BEBE454F66BEBE91
:10265000BE727E00AF480DF0F7FDB0EE408AF0EE9E
:10266000608A51EC180B0DF03FF9A9498860A94820
:102670000DF0EAFDB0EE408AF0EE608A51EC180BE6
:102680000DF032F90146A2484164A2480DF0DCFD8C
:10269000B0EE408AF0EE608A51EC180B0DF024F990
:1026A000014603E0FEE3E4E330E28DE09848C0F841
:1026B000801098480DF0C8FDB0EE408AF0EE608AB8
:1026C00051EC180B0DF010F901469148C0F8BC1000
:1026D00078E001208E49087081F83C0081F878008C
:1026E00081F8B4006EE00220894988700221884890
:1026F00080F83E1080F87A1080F8B61001208449E6
:1027000048700121824880F83D1080F8791080F8E7
:10271000B51057E003207E49887003217C4880F87B
:102720003E1080F87A1080F8B6104BE0002078490F
:1027300048700021764880F83D1080F8791080F8C4
:10274000B5103FE073480DF07FFDB0EE408AF0EE2B
:10275000608A51EC180B0DF0FFF800EE100A6C487F
:1027600080ED040A6B480DF06FFDB0EE408AF0EE8C
:10277000608A51EC180B0DF0EFF800EE100A644877
:1027800080ED130A63480DF05FFDB0EE408AF0EE75
:10279000608A51EC180B0DF0DFF800EE100A5C486F
:1027A00080ED220A5B480DF04FFDB0EE408AF0EE5E
:1027B000608A51EC180B0DF0CFF800EE100A544867
:1027C00080ED310A00BF00BF504890F82502C01EBE
:1027D0001C287AD2DFE800F00E1C2A3A4A5A697A9D
:1027E0008AA2B0BFCE79DDF9F7F6F5F4F3F2F1F095
:1027F000EFEE79ED002008E0002100EBC00202EBD3
:102800004202454B03F83210401C0828F4DB7BE100
:1028100040480DF019FDB0EE408AF0EE608A51ECB0
:10282000180B0DF080F83C4988706DE139480DF0C7
:102830000BFDB0EE408AF0EE608A51EC180B0DF003
:1028400072F8C1B2344880F8DA105DE131480DF019
:10285000FBFCB0EE408AF0EE608A51EC180B0DF0F4
:1028600062F8C1B22C4880F8B2114DE129480DF050
:10287000EBFCB0EE408AF0EE608A51EC180B0DF0E4
:1028800052F8C1B2244880F88A123DE121480DF087
:10289000DBFCB0EE408AF0EE608A51EC180B0DF0D4
:1028A00023F801B21C4841812EE11A480DF0CCFCFE
:1028B000B0EE408AF0EE608A51EC180B0DF014F87F
:1028C00001B21548A0F8E2101EE11CE111480DF01C
:1028D000BBFCB0EE408AF0EE608A51EC180B0DF0B4
:1028E00003F801B20C48A0F8BA110DE109480DF047
:1028F000ABFCB0EE408AF0EE608A51EC180B0CF0A5
:10290000F3FF01B20448A0F89212FDE0520100204A
:102910007031002079030020C4280020FA480DF00F
:1029200093FCB0EE408AF0EE608A51EC180B0CF08C
:10293000DBFFF6494860E7E0F3480DF085FCB0EEB8
:10294000408AF0EE608A51EC180B0CF0CDFFEF4995
:10295000C1F8DC00D8E0EC480DF076FCB0EE408A1F
:10296000F0EE608A51EC180B0CF0BEFFE749C1F89D
:10297000B401C9E0E4480DF067FCB0EE408AF0EE27
:10298000608A51EC180B0CF0AFFFE049C1F88C02E3
:10299000BAE0DD480DF058FCB0EE408AF0EE608AF7
:1029A00051EC180B0CF0BFFF81B2D848A0F8A21070
:1029B000AAE090E084E078E06CE061E055E049E076
:1029C0003DE032E021E010E0FFE7CF480DF03CFCB5
:1029D000B0EE408AF0EE608A51EC180B0CF0A3FFC9
:1029E00081B2CA48A0F87A118EE0C7480DF02CFCDD
:1029F000B0EE408AF0EE608A51EC180B0CF093FFB9
:102A000081B2C248A0F852127EE0BF480DF01CFC13
:102A1000B0EE408AF0EE608A51EC180B0CF083FFA8
:102A200081B2BA48A0F82A136EE0B94890F828029B
:102A300008B1012000E00020B449087064E0B44807
:102A400090F8280208B1012000E00020AF4981F889
:102A5000D80059E0AE4890F8280208B1012000E003
:102A60000020AA4981F8B0014EE0A94890F8280258
:102A700008B1012000E00020A44981F8880243E069
:102A8000A34890F8280208B1012000E000209F49E7
:102A9000487039E09E4890F8280208B1012100E012
:102AA00000219A4880F8D9102EE0994890F8280221
:102AB00008B1012100E00021944880F8B11123E021
:102AC000934890F8280208B1012100E000218F48C6
:102AD00080F8891218E000218C4880F8C01080F836
:102AE000981180F8701280F8481380F8201480F84C
:102AF000F81480F8D01580F8A81686A287A1884817
:102B00000DF08EFB00E000BF00BF0FE5804890F89D
:102B10002502C01E1C287DD2DFE800F00E1C2C3CD4
:102B20004C5C6C7D8D9DACBBCA7CD9F4F3F2F1F0AA
:102B3000EFEEEDECEBEA7CE9002008E0002100EB91
:102B4000C00202EB4202714B03F83210401C08280D
:102B5000F4DB8BE16C480DF077FBB0EE408AF0EED1
:102B6000608A51EC180B0CF0DEFEC1B2674880F8A9
:102B700062137BE164480DF067FBB0EE408AF0EE33
:102B8000608A51EC180B0CF0CEFEC1B25F4880F8A1
:102B90003A146BE15C480DF057FBB0EE408AF0EE62
:102BA000608A51EC180B0CF0BEFEC1B2574880F899
:102BB00012155BE154480DF047FBB0EE408AF0EE91
:102BC000608A51EC180B0CF0AEFEC1B24F4880F891
:102BD000EA154BE14C480DF037FBB0EE408AF0EEC1
:102BE000608A51EC180B0CF07FFE01B24748A0F848
:102BF0006A133BE144480DF027FBB0EE408AF0EE4B
:102C0000608A51EC180B0CF06FFE01B23F48A0F83F
:102C100042142BE129E13C480DF016FBB0EE408A4E
:102C2000F0EE608A51EC180B0CF05EFE01B23748F2
:102C3000A0F81A151AE134480DF006FBB0EE408AF0
:102C4000F0EE608A51EC180B0CF04EFE01B22F48EA
:102C5000A0F8F2150AE12C480DF0F6FAB0EE408A21
:102C6000F0EE608A51EC180B0CF03EFE2749C1F8DB
:102C70006403FBE024480DF0E7FAB0EE408AF0EE82
:102C8000608A51EC180B0CF02FFE2049C1F83C046F
:102C9000ECE01D480DF0D8FAB0EE408AF0EE608A04
:102CA00051EC180B0CF020FE1849C1F81405DDE0BA
:102CB00015480DF0C9FAB0EE408AF0EE608A51EC8A
:102CC000180B0CF011FE1149C1F8EC05CEE00E48CE
:102CD0000DF0BAFAB0EE408AF0EE608A51EC180BB3
:102CE0000CF021FE81B20948A0F80214BEE0A2E077
:102CF00096E08AE07EE072E066E05AE04EE042E074
:102D000030E01FE00EE0F2E379030020C428002049
:102D100052010020282D2D205F2A29002573000054
:102D200031000020FE480DF08FFAB0EE408AF0EE40
:102D3000608A51EC180B0CF0F6FD81B2F948A0F84E
:102D4000DA1493E0F6480DF07FFAB0EE408AF0EE28
:102D5000608A51EC180B0CF0E6FD81B2F148A0F846
:102D6000B21583E0EE480DF06FFAB0EE408AF0EE57
:102D7000608A51EC180B0CF0D6FD81B2E948A0F83E
:102D80008A1673E074E0E84890F8280208B1012040
:102D900000E00020E34981F8600367E0E24890F832
:102DA000280208B1012000E00020DE4981F8380443
:102DB0005CE0DD4890F8280208B1012000E0002026
:102DC000D84981F8100551E0D74890F8280208B199
:102DD000012000E00020D34981F8E80546E0D24810
:102DE00090F8280208B1012100E00021CD4880F8C8
:102DF00061133BE0CC4890F8280208B1012100E0C3
:102E00000021C84880F8391430E0C74890F82802FB
:102E100008B1012100E00021C24880F8111525E029
:102E2000C14890F8280208B1012100E00021BD4806
:102E300080F8E9151AE00021BA4880F8C01080F83F
:102E4000981180F8701280F8481380F8201480F8E8
:102E5000F81480F8D01580F8A816AFF24812AFF237
:102E60004411B2480DF0DCF900E000BF00BF65E39B
:102E700000BFAD4890F82502C01E0B2819D2DFE82C
:102E800000F00619FD2A3B4C61769CC4EC00012140
:102E9000084605F040FD0121022005F03CFD01211E
:102EA000032000E0ECE005F036FD0121042005F0F0
:102EB00032FDE3E00121084605F005FB0121022077
:102EC00005F001FB0121032005F0FDFA012104209A
:102ED00005F0F9FAD2E00121084605F074FA012163
:102EE000022005F070FA0121032005F06CFA01219F
:102EF000042005F068FAC1E00121084605F0DFFB77
:102F00000121022005F0DBFB0121032005F0D7FBA6
:102F10000121042005F0D3FBB0E00122032110467B
:102F200005F0D3F901220321022005F0CEF9012298
:102F30000321084605F0C9F901220321042005F008
:102F4000C4F99BE001221146104605F0BEF90122AA
:102F50001146022005F0B9F901221146032005F0BF
:102F6000B4F901221146042005F0AFF986E06C485F
:102F70000DF06AF9B0EE408AF0EE608A51EC180B61
:102F80000CF0B2FC6A49086001220846016810464C
:102F900005F0BAFE012266480168022005F0B4FE81
:102FA000012263480168032005F0AEFE012260485B
:102FB0000168042005F0A8FE60E059480DF044F9CE
:102FC000B0EE408AF0EE608A51EC180B0CF08CFCED
:102FD00058490860012208460168104605F009FFBB
:102FE0000122544800684142022005F002FF0122FC
:102FF000504800684142032005F0FBFE01224D4885
:103000000168042005F0F5FE38E045480DF01CF994
:10301000B0EE408AF0EE608A51EC180B0CF064FCC4
:1030200045490860012208460168104605F0FDFC8C
:103030000122414800684142022005F0F6FC0122CD
:103040003D4800684142032005F0EFFC01223A4868
:103050000168042005F0E9FC10E00121084605F0B4
:10306000D2FD0121022005F0CEFD0121032005F053
:10307000CAFD0121042005F0C6FD00BF00BF00BF4E
:10308000294890F825021A2821D2DFE800F0200D07
:1030900021375E74A4D6FEFDFCFBFAF9F8F7F6F5CD
:1030A000F4F3F2F1F0EFEEED1D480DF0CDF8B0EED7
:1030B000408AF0EE608A51EC180B0CF034FC1F498A
:1030C0000870084601780122104603F01EFB34E226
:1030D00013480DF0B9F8B0EE408AF0EE608A51EC7A
:1030E000180B0CF020FC154981F85400084690F8A4
:1030F00054100122022003F008FB1EE208480DF0E4
:10310000A3F8B0EE408AF0EE608A51EC180B0CF098
:103110000AFC0A4981F8A800084690F8A8100FE0B8
:1031200079030020C4280020520100203100002033
:10313000980000209400002090000020B02F002074
:103140000122032003F0E1FAF7E1FE480DF07CF8DC
:10315000B0EE408AF0EE608A51EC180B0CF0E3FB05
:10316000F94981F8FC00084690F8FC10012204207F
:1031700003F0CBFAE1E1F4480078022813D1F148DA
:103180000DF062F8B0EE408AF0EE608A51EC180B58
:103190000CF0AAFBED4908600122084601681046C0
:1031A00003F00DFE16E0E8480078052812D1E54846
:1031B0000DF04AF8B0EE408AF0EE608A51EC180B40
:1031C0000CF092FBE24908600122084601681046B3
:1031D00003F083FCB1E1DC4890F85400022813D1DD
:1031E000D8480DF031F8B0EE408AF0EE608A51EC2C
:1031F000180B0CF079FBD5490860012208460168DC
:10320000022003F0DCFD17E0CF4890F854000528B9
:1032100012D1CC480DF018F8B0EE408AF0EE608A7A
:1032200051EC180B0CF060FBC949086001220846FC
:103230000168022003F051FC7FE1C34890F8A80028
:10324000022826D1BF480CF0FFFFB0EE408AF0EE16
:10325000608A51EC180B0CF047FBBC490860012256
:1032600008460168032011E056E14BE14FE13FE1E0
:10327000FAE042E12AE118E106E1E1E0CCE0B7E062
:10328000A2E08DE078E063E04EE01BE003F097FD04
:1032900017E0AD4890F8A800052812D1A9480CF015
:1032A000D3FFB0EE408AF0EE608A51EC180B0CF0C0
:1032B0001BFBA7490860012208460168032003F0B0
:1032C0000CFC3AE1A04890F8FC00022813D19D487C
:1032D0000CF0BAFFB0EE408AF0EE608A51EC180BA9
:1032E0000CF002FB9949086001220846016804209D
:1032F00003F065FD17E0944890F8FC00052812D112
:1033000090480CF0A1FFB0EE408AF0EE608A51ECDC
:10331000180B0CF0E9FA8E49086001220846016892
:10332000042003F0DAFB08E186480CF08DFFB0EED4
:10333000408AF0EE608A51EC180B0CF0D5FA854902
:103340000860012208460168104603F045FCF4E0DD
:103350007C480CF079FFB0EE408AF0EE608A51ECC8
:10336000180B0CF0C1FA7B4908600122084601687D
:10337000022003F031FCE0E072480CF065FFB0EE93
:10338000408AF0EE608A51EC180B0CF0ADFA7149EE
:103390000860012208460168032003F01DFCCCE010
:1033A00068480CF051FFB0EE408AF0EE608A51ECB4
:1033B000180B0CF099FA6849086001226548016809
:1033C000042003F009FCB8E05E480CF03DFFB0EECD
:1033D000408AF0EE608A51EC180B0CF085FA5E49D9
:1033E0000860012208460168104603F074FCA4E05E
:1033F00054480CF029FFB0EE408AF0EE608A51ECA0
:10340000180B0CF071FA5449086001220846016853
:10341000022003F060FC90E04A480CF015FFB0EE8B
:10342000408AF0EE608A51EC180B0CF05DFA4A49C4
:103430000860012208460168032003F04CFC7CE090
:1034400040480CF001FFB0EE408AF0EE608A51EC8B
:10345000180B0CF049FA404908600122084601683F
:10346000042003F038FC68E03C4890F8280208B1DA
:10347000012000E0002034494870084641780122CC
:10348000104603F020FA58E0344890F8280208B1BA
:10349000012100E000212C4880F8551090F85510CB
:1034A0000122022003F00FFA47E02C4890F828028E
:1034B00008B1012100E00021234880F8A91090F80C
:1034C000A9100122032003F0FEF936E0234890F80A
:1034D000280208B1012100E000211B4880F8FD10FE
:1034E00090F8FD100122042003F0EDF925E025E01D
:1034F0000121084603F010FA1FE00121022003F029
:103500000BFA1AE00121032003F006FA15E001216D
:10351000042003F001FA10E00121084603F078FAD4
:103520000121022003F074FA0121032003F070FA54
:103530000121042003F06CFA00BF00BF00BF00208F
:1035400007490FE079030020B02F0020640000201D
:103550005800002060000020680000205201002078
:103560001D00002008702021FE480CF0A2F9BDECDF
:10357000028B10BD10B50446FB48C07A50B92146F5
:10358000FA4808F09CF80121F84808F077F8012083
:10359000F549C87210BD10B50024EE222146641C06
:1035A000F3484254B1222146641C42541022214661
:1035B000641C425400222146641C42542146641C6F
:1035C00042542146641C425405222146641C425444
:1035D00001222046611CCCB2E5490A54FF22204654
:1035E000611CCCB2E2490A54FC222046611CCCB2D8
:1035F000DF490A54FF222046611CCCB2DC490A5440
:103600002046611CCCB2DA490A54DA48007809280D
:1036100081F0AF83DFE810F0AD0B09000B000C0068
:103620000D005504AD0BAD0BA40801F0A3BBFCE7E6
:10363000FBE7EE222046611CCCB2CD490A54B122F0
:103640002046611CCCB2CA490A5412222046611C91
:10365000CCB2C7490A5400222046611CCCB2C449EE
:103660000A5404222046611CCCB2C1490A54C24803
:10367000807800287ED000222046611CCCB2BC4954
:103680000A5404222046611CCCB2B9490A540022D3
:103690002046611CCCB2B6490A54B7488278B7A11B
:1036A000B7480CF0BDFDB6480CF00EF9C2B220468A
:1036B000611CCCB2AE490A540819B1490CF00BF99F
:1036C000AF480CF001F92044C4B200222046611C2E
:1036D000CCB2A7490A5408222046611CCCB2A449A6
:1036E0000A5400222046611CCCB2A1490A54A248C7
:1036F000B0F91E20A1A1A2480CF092FDA0480CF048
:10370000E3F8C2B22046611CCCB299490A540819A8
:103710009B490CF0E0F89A480CF0D6F82044C4B26B
:1037200000222046611CCCB291490A540C2220464A
:10373000611CCCB28E490A5400222046611CCCB2D6
:103740008B490A548C4882698CA18D480CF068FD25
:103750008B480CF0B9F8C2B22046611CCCB2844947
:103760000A54081986490CF0B6F885480CF0ACF8F4
:10377000204400E069E0C4B200222046611CCCB2C3
:103780007B490A5411222046611CCCB278490A5464
:1037900000222046611CCCB275490A547648B0F824
:1037A000A22076A176480CF03BFD75480CF08CF811
:1037B000C2B22046611CCCB26D490A540819704946
:1037C0000CF089F86E480CF07FF82044C4B2002257
:1037D0002046611CCCB266490A5415222046611C61
:1037E000CCB263490A5400222046611CCCB2604925
:1037F0000A5401222046611CCCB25D490A545E483D
:1038000002782046611CCCB259490A540022204655
:10381000611CCCB256490A5419222046611CCCB214
:1038200053490A5400222046611CCCB250490A5424
:1038300001222046611CCCB24D490A544E484278C0
:103840002046611CCCB24A490A544B4890F8DA0031
:1038500000287DD000222046611CCCB244490A5485
:1038600005222046611CCCB241490A540022204660
:10387000611CCCB23E490A543F4890F8DA203FA17F
:103880003F480CF0CDFC3E480CF01EF8C2B220467A
:10389000611CCCB236490A54081939490CF01BF89E
:1038A00037480CF011F82044C4B200222046611CB5
:1038B000CCB22F490A5409222046611CCCB22C49B3
:1038C0000A5400222046611CCCB229490A542A48D5
:1038D000B0F9F62029A12A480CF0A2FC28480BF0E8
:1038E000F3FFC2B22046611CCCB221490A54081928
:1038F00023490BF0F0FF22480BF0E6FF2044C4B24E
:1039000000222046611CCCB219490A540D222046DF
:10391000611CCCB216490A5400222046611CCCB26C
:1039200013490A541448D0F8F02014A114480CF09C
:1039300077FC13480BF0C8FFC2B22046611CCCB222
:103940000B490A5408190E490BF0C5FF0C4800E05A
:1039500080E00BF0B9FF2044C4B200222046611C75
:10396000CCB20FE072030020D2030020A06002401E
:10397000720200201C000020C428002025640000E2
:1039800058280020FE490A5412222046611CCCB25D
:10399000FB490A5400222046611CCCB2F8490A5463
:1039A000F848B0F87A21AFF22C01F7480CF038FC57
:1039B000F5480BF089FFC2B22046611CCCB2F04939
:1039C0000A540819F0490BF086FFEF480BF07CFF12
:1039D0002044C4B200222046611CCCB2E8490A54FB
:1039E00016222046611CCCB2E5490A54002220462A
:1039F000611CCCB2E2490A5401222046611CCCB2BF
:103A0000DF490A54DF4890F8D8202046611CCCB228
:103A1000DB490A5400222046611CCCB2D8490A5422
:103A20001A222046611CCCB2D5490A5400222046F5
:103A3000611CCCB2D2490A5401222046611CCCB28E
:103A4000CF490A54CF4890F8D9202046611CCCB207
:103A5000CB490A54CB4890F8B20100287DD000220F
:103A60002046611CCCB2C6490A5406222046611C7D
:103A7000CCB2C3490A5400222046611CCCB2C049D2
:103A80000A54C04890F8B221AFF21011BE480CF0B1
:103A9000C7FBBD480BF018FFC2B22046611CCCB278
:103AA000B7490A540819B8490BF015FFB6480BF08E
:103AB0000BFF2044C4B200222046611CCCB2B049A6
:103AC0000A540A222046611CCCB2AD490A54002295
:103AD0002046611CCCB2AA490A54AA48B0F9CE21AA
:103AE000AFF26811A8480CF09BFBA7480BF0ECFE66
:103AF000C2B22046611CCCB2A1490A540819A2499D
:103B00000BF0E9FEA0480BF0DFFE2044C4B2002217
:103B10002046611CCCB29A490A540E222046611CF0
:103B2000CCB297490A5400222046611CCCB2944979
:103B30000A549448D0F8C821AFF2C01192480CF052
:103B40006FFB91480BF0C0FEC2B22046611CCCB2A4
:103B50008B490A5408198C4900E072E00BF0BBFE57
:103B600089480BF0B1FE2044C4B200222046611CFB
:103B7000CCB283490A5413222046611CCCB280493E
:103B80000A5400222046611CCCB27D490A547D486B
:103B9000B0F85222AFF21C217B480CF041FB7A486E
:103BA0000BF092FEC2B22046611CCCB274490A549A
:103BB000081975490BF08FFE73480BF085FE204401
:103BC000C4B200222046611CCCB26D490A541722AF
:103BD0002046611CCCB26A490A5400222046611C6E
:103BE000CCB267490A5401222046611CCCB2644918
:103BF0000A54644890F8B0212046611CCCB2604958
:103C00000A5400222046611CCCB25D490A541B2292
:103C10002046611CCCB25A490A5400222046611C3D
:103C2000CCB257490A5401222046611CCCB25449F7
:103C30000A54544890F8B1212046611CCCB2504936
:103C40000A54504890F88A0200287DD0002220466D
:103C5000611CCCB24A490A5407222046611CCCB2EE
:103C600047490A5400222046611CCCB244490A54F8
:103C7000444890F88A22AFF2FC2143480CF0D0FA75
:103C800041480BF021FEC2B22046611CCCB23C4937
:103C90000A5408193C490BF01EFE3B480BF014FE79
:103CA0002044C4B200222046611CCCB234490A54DC
:103CB0000B222046611CCCB231490A540022204616
:103CC000611CCCB22E490A542E48B0F9A622AFF29C
:103CD00054312D480CF0A4FA2B480BF0F5FDC2B27C
:103CE0002046611CCCB226490A54081926490BF01B
:103CF000F2FD25480BF0E8FD2044C4B20022204626
:103D0000611CCCB21E490A540F222046611CCCB261
:103D10001B490A5400222046611CCCB218490A549F
:103D20001848D0F8A022AFF2AC3117480CF078FA5E
:103D300015480BF0C9FDC2B22046611CCCB2104937
:103D40000A540819104900E079E00BF0C4FD0E4850
:103D50000BF0BAFD2044C4B200222046611CCCB254
:103D600007490A5414222046611CCCB204490A5463
:103D700000222046611CCCB201490A54014805E0EA
:103D800072020020C428002058280020B0F82A23FE
:103D9000AFF21841FE480CF043FAFD480BF094FDD9
:103DA000C2B22046611CCCB2FA490A540819F8493B
:103DB0000BF091FDF6480BF087FD2044C4B20022C1
:103DC0002046611CCCB2F3490A5418222046611CDB
:103DD000CCB2F0490A5400222046611CCCB2ED4915
:103DE0000A5401222046611CCCB2EA490A54EA482E
:103DF00090F888222046611CCCB2E6490A54002281
:103E00002046611CCCB2E3490A541C222046611CA6
:103E1000CCB2E0490A5400222046611CCCB2DD49F4
:103E20000A5401222046611CCCB2DA490A54DA480D
:103E300090F889222046611CCCB2D6490A5400224F
:103E40002046611CCCB2D3490A5410222046611C82
:103E5000CCB2D0490A5400222046611CCCB2CD49D4
:103E60000A54CE4ACEA1CA480CF0DAF9C8480BF081
:103E70002BFDC2B22046611CCCB2C6490A540819B7
:103E8000C3490BF028FDC2480BF01EFD2044C4B20C
:103E9000FF222046611CCCB2BE490A54FC222046B7
:103EA000611CCCB2BB490A54FF222046611CCCB233
:103EB000B8490A542046611CCCB2B6490A5400F0F5
:103EC00059BFEE222046611CCCB2B2490A54B1223D
:103ED0002046611CCCB2AF490A5412222146601C14
:103EE000C4B2AC48425400222046611CCCB2A9495D
:103EF0000A5405222046611CCCB2A6490A54A648A1
:103F000090F8620300287DD000222046611CCCB2CC
:103F1000A0490A5404222046611CCCB29D490A548F
:103F200000222046611CCCB29A490A549A4890F863
:103F30006223AFF2B85196480CF072F994480BF036
:103F4000C3FCC2B22046611CCCB292490A54081983
:103F50008F490BF0C0FC8E480BF0B6FC2044C4B275
:103F600000222046611CCCB28A490A54082220460D
:103F7000611CCCB287490A5400222046611CCCB295
:103F800084490A548448B0F97E23AFF21061804816
:103F90000CF046F97E480BF097FCC2B22046611C3B
:103FA000CCB27C490A54081979490BF094FC784842
:103FB0000BF08AFC2044C4B200222046611CCCB223
:103FC00074490A540C222046611CCCB271490A542F
:103FD00000222046611CCCB26E490A546E48D0F8CB
:103FE0007823AFF268616A480CF01AF968480BF060
:103FF0006BFCC2B22046611CCCB266490A54081957
:10400000634900E072E00BF066FC61480BF05CFC79
:104010002044C4B200222046611CCCB25D490A543F
:1040200011222046611CCCB25A490A540022204673
:10403000611CCCB257490A545748B0F80224AFF279
:10404000C46153480CF0ECF851480BF03DFCC2B28F
:104050002046611CCCB24F490A5408194C490BF058
:104060003AFC4B480BF030FC2044C4B200222046FE
:10407000611CCCB247490A5415222046611CCCB2BF
:1040800044490A5400222046611CCCB241490A54DA
:1040900001222046611CCCB23E490A543E4890F8A9
:1040A00060232046611CCCB23A490A5400222046C3
:1040B000611CCCB237490A5419222046611CCCB28B
:1040C00034490A5400222046611CCCB231490A54BA
:1040D00001222046611CCCB22E490A542E4890F889
:1040E00061232046611CCCB22A490A542A4890F820
:1040F0003A0400287ED000222046611CCCB225491B
:104100000A5405222046611CCCB222490A540022DE
:104110002046611CCCB21F490A541F4890F83A242B
:10412000AFF2A8711A480CF07BF819480BF0CCFBE1
:10413000C2B22046611CCCB216490A54081914496F
:104140000BF0C9FB12480BF0BFFB2044C4B20022A5
:104150002046611CCCB20F490A5409222046611C3A
:10416000CCB20C490A5400222046611CCCB2094949
:104170000A540948B0F95624AFF6000104480CF07F
:104180004FF803480BF0A0FBC2B22046611C09E0C7
:104190005828002072020020C4280020310000208E
:1041A00025730000CCB2FE490A540819FD490BF0F2
:1041B00092FBFC480BF088FB2044C4B2002220464E
:1041C000611CCCB2F6490A540D222046611CCCB2C7
:1041D000F3490A5400222046611CCCB2F0490A542B
:1041E000F148D0F85024AFF66C01EE480CF018F806
:1041F000EC4800E07DE00BF067FBC2B22146601C9A
:10420000C4B2E748425401460819E6490BF063FB83
:10421000E4480BF059FB2044C4B200222046611C44
:10422000CCB2DF490A5412222046611CCCB2DC49D0
:104230000A5400222146601CC4B2D9484254DA48CC
:10424000B0F8DA24AFF6CC01D6480BF0E9FFD54838
:104250000BF03AFBC2B22046611CCCB2D0490A54E2
:104260000819D0490BF037FBCE480BF02DFB20444A
:10427000C4B200222146601CC4B2C948425416226E
:104280002146601CC4B2C648425400222046611C2C
:10429000CCB2C3490A5401222046611CCCB2C049A9
:1042A0000A54C14890F838242046611CCCB2BC495D
:1042B0000A5400222046611CCCB2B9490A541A2281
:1042C0002046611CCCB2B6490A5400222046611C2B
:1042D000CCB2B3490A5401222046611CCCB2B04989
:1042E0000A54B14890F839242046611CCCB2AC493C
:1042F0000A54AD4890F8120500287DD000222046CF
:10430000611CCCB2A6490A5406222046611CCCB2DC
:10431000A3490A5400222046611CCCB2A0490A5489
:10432000A14890F81225AFF6AC119E480BF078FF2B
:104330009C480BF0C9FAC2B22046611CCCB2984925
:104340000A54081997490BF0C6FA96480BF0BCFAC4
:104350002044C4B200222046611CCCB290490A54C9
:104360000A222046611CCCB28D490A540022204604
:10437000611CCCB28A490A548B48B0F92E25AFF69D
:10438000042188480BF04CFF86480BF09DFAC2B21E
:104390002046611CCCB282490A54081981490BF0AD
:1043A0009AFA80480BF090FA2044C4B200222046CA
:1043B000611CCCB27A490A540E222046611CCCB250
:1043C00077490A5400222046611CCCB274490A5431
:1043D0007548D0F82825AFF65C2172480BF020FF15
:1043E00070480BF071FAC2B22046611CCCB26C4925
:1043F0000A5408196B4900E072E00BF06CFA694846
:104400000BF062FA2044C4B200222046611CCCB2F8
:1044100063490A5413222046611CCCB260490A54F5
:1044200000222046611CCCB25D490A545E48B0F8B7
:10443000B225AFF6B8215B480BF0F2FE59480BF0FD
:1044400043FAC2B22046611CCCB255490A5408193D
:1044500054490BF040FA53480BF036FA2044C4B2EA
:1044600000222046611CCCB24D490A541722204636
:10447000611CCCB24A490A5400222046611CCCB2CD
:1044800047490A5401222046611CCCB244490A54CF
:10449000454890F810252146601CC4B2404842545B
:1044A00000222046611CCCB23D490A541B22204602
:1044B000611CCCB23A490A5400222046611CCCB29D
:1044C00037490A5401222046611CCCB234490A54AF
:1044D000354890F811252046611CCCB230490A5469
:1044E000314890F8EA0500287ED000222146601C61
:1044F000C4B22B48425407222046611CCCB2284942
:104500000A5400222046611CCCB225490A54264890
:1045100090F8EA25AFF69C3122480BF081FE214845
:104520000BF0D2F9C2B22046611CCCB21C490A542D
:1045300008191C490BF0CFF91A480BF0C5F92044B3
:10454000C4B200222046611CCCB215490A540B2289
:104550002046611CCCB212490A5400222046611C3C
:10456000CCB20F490A541048B0F90626AFF6F43120
:104570000C480BF055FE0B480BF0A6F9C2B22046D2
:10458000611CCCB206490A54081906490BF0A3F97C
:1045900004480BF099F92044C4B20022204605E0FB
:1045A0007202002058280020C4280020611CCCB2D0
:1045B000FE490A540F222046611CCCB2FB490A5422
:1045C00000222046611CCCB2F8490A54F848D0F8C1
:1045D0000026AFF65841F7480BF022FEF5480BF0E5
:1045E00073F9C2B2204600E078E0611CCCB2EF491A
:1045F0000A540819EF490BF06EF9EE480BF064F914
:104600002044C4B200222046611CCCB2E7490A54BF
:1046100014222046611CCCB2E4490A5400222046F0
:10462000611CCCB2E1490A54E148B0F88A26AFF6E1
:10463000B441E0480BF0F4FDDE480BF045F9C2B29E
:104640002046611CCCB2D9490A540819D9490BF04B
:1046500042F9D8480BF038F92044C4B20022204671
:10466000611CCCB2D1490A5418222146601CC4B244
:10467000CE48425400222046611CCCB2CB490A5499
:1046800001222046611CCCB2C8490A54C84890F89F
:10469000E8252046611CCCB2C4490A5400222046B9
:1046A000611CCCB2C1490A541C222046611CCCB208
:1046B000BE490A5400222046611CCCB2BB490A54B0
:1046C00001222046611CCCB2B8490A54B84890F87F
:1046D000E9252046611CCCB2B4490A540022214687
:1046E000601CC4B2B148425410222146601CC4B2BE
:1046F000AE48425400222146601CC4B2AB4842542A
:10470000AD4AAFF26451AB480BF08AFDA9480BF0FB
:10471000DBF8C2B22046611CCCB2A4490A54081985
:10472000A4490BF0D8F8A3480BF0CEF82044C4B24B
:10473000FF222046611CCCB29C490A54FC22204630
:10474000611CCCB299490A54FF222046611CCCB2AC
:1047500096490A542046611CCCB294490A5409E394
:10476000EE222046611CCCB290490A54B122204668
:10477000611CCCB28D490A5412222046611CCCB275
:104780008A490A5400222046611CCCB287490A5447
:1047900008222146601CC4B28448425487480078ED
:1047A00000287DD000222046611CCCB27F490A54EB
:1047B00001222046611CCCB27C490A5400222046CA
:1047C000611CCCB279490A547C480278AFF6546136
:1047D00078480BF025FD77480BF076F8C2B22046FA
:1047E000611CCCB271490A54081972490BF073F874
:1047F00070480BF069F82044C4B200222046611CC6
:10480000CCB26A490A5405222046611CCCB26749E1
:104810000A5400222046611CCCB264490A546748FD
:104820004269AFF6A86163480BF0FAFC61480BF0EF
:104830004BF8C2B22046611CCCB25C490A5408193C
:104840005C490BF048F85B480BF03EF82044C4B2DA
:1048500000222046611CCCB254490A540922204649
:10486000611CCCB251490A5400222046611CCCB2D2
:104870004E490A5451488269AFF600714D480BF019
:10488000CFFC4C480BF020F8C2B22046611CCCB2E1
:1048900046490A54081947490BF01DF8454800E0FD
:1048A00022E00BF011F82044C4B200222046611C23
:1048B000CCB23E490A5415222046611CCCB23B4979
:1048C0000A5400222046611CCCB238490A54012205
:1048D0002046611CCCB235490A54384842782046FB
:1048E000611CCCB231490A54344890F85400002875
:1048F00066D000222046611CCCB22C490A54022208
:104900002146601CC4B22948425400222046611C42
:10491000CCB226490A54294890F85420AFF6A47125
:1049200024480BF07DFC23480AF0CEFFC2B220469B
:10493000611CCCB21D490A5408191E490AF0CBFF6C
:104940001C480AF0C1FF2044C4B200222046611C6A
:10495000CCB216490A5406222046611CCCB2134937
:104960000A5400222046611CCCB210490A54134854
:10497000826EAFF6F8710F480BF052FC0D480AF04A
:10498000A3FFC2B22146601CC4B20848425401468B
:10499000081908490AF09FFF06480AF095FF2044CD
:1049A000C4B200222146601CC4B20AE07202002098
:1049B000C42800205828002031000020B02F0020FB
:1049C00045E0EF4842540A222046611CCCB2EC4933
:1049D0000A5400222046611CCCB2E9490A54E94835
:1049E000C26EE9A1E9480BF01BFCE8480AF06CFF35
:1049F000C2B22046611CCCB2E1490A540819E3490D
:104A00000AF069FFE1480AF05FFF2044C4B20022C7
:104A10002046611CCCB2DA490A5411222046611C9E
:104A2000CCB2D7490A5400222046611CCCB2D449EA
:104A30000A5401222046611CCCB2D1490A54D14803
:104A400090F855202146601CC4B2CD484254CD4850
:104A500090F8A80000287DD000222046611CCCB22E
:104A6000C7490A5403222046611CCCB2C4490A54E7
:104A700000222046611CCCB2C1490A54C14890F8BA
:104A8000A820C1A1C1480BF0CBFBC0480AF01CFF15
:104A9000C2B22046611CCCB2B9490A540819BB49BC
:104AA0000AF019FFB9480AF00FFF2044C4B20022EF
:104AB0002046611CCCB2B2490A5407222046611C30
:104AC000CCB2AF490A5400222146601CC4B2AC48A3
:104AD0004254AC48D0F8BC20ABA1AC480BF0A0FBD2
:104AE000AA480AF0F1FEC2B22046611CCCB2A44929
:104AF0000A540819A5490AF0EEFEA4480AF0E4FE9B
:104B00002044C4B200222046611CCCB29C490A5405
:104B10000B222046611CCCB299490A54002221463E
:104B2000601CC4B2964842549648D0F8C02096A162
:104B300096480BF075FB95480AF0C6FEC2B22046B7
:104B4000611CCCB28E490A54081990490AF0C3FE80
:104B50008E4800E023E00AF0B7FE2044C4B20022F1
:104B60002146601CC4B28648425412222046611C71
:104B7000CCB283490A5400222046611CCCB2804941
:104B80000A5401222046611CCCB27D490A547D485A
:104B900090F8A9202146601CC4B279484254794853
:104BA00090F8FC0000287DD000222046611CCCB289
:104BB00073490A5404222046611CCCB270490A543D
:104BC00000222046611CCCB26D490A546D4890F811
:104BD000FC206DA16D480BF023FB6C480AF074FEBD
:104BE000C2B22046611CCCB265490A540819674913
:104BF0000AF071FE65480AF067FE2044C4B2002244
:104C00002046611CCCB25E490A5408222046611C31
:104C1000CCB25B490A5400222046611CCCB25849F0
:104C20000A545848D0F8102157A158480BF0F8FA08
:104C300056480AF049FEC2B22046611CCCB2504927
:104C40000A54081951490AF046FE50480AF03CFE41
:104C50002044C4B200222046611CCCB248490A5408
:104C60000C222046611CCCB245490A540022214640
:104C7000601CC4B2424842544248B0F90C2142A1DF
:104C800042480BF0CDFA41480AF01EFEC2B220465F
:104C9000611CCCB23A490A5408193C490AF01BFE7F
:104CA0003A4800E023E00AF00FFE2044C4B200229C
:104CB0002046611CCCB232490A5413222046611CA2
:104CC000CCB22F490A5400222146601CC4B22C48A1
:104CD000425401222046611CCCB229490A54294879
:104CE00090F8FD202146601CC4B2254842540022A1
:104CF0002046611CCCB222490A541E222146601C67
:104D0000C4B21F48425400222146601CC4B21C4851
:104D100042541F481FA102681C480BF081FA1B482F
:104D20000AF0D2FDC2B22046611CCCB214490A542A
:104D3000081916490AF0CFFD14480AF0C5FD2044B1
:104D4000C4B2FF222046611CCCB20D490A54FC2299
:104D50002046611CCCB20A490A54FF222046611C3D
:104D6000CCB207490A542046611CCCB204490A540B
:104D700000E000BF00BF2046FEF7FCFB10BD0000B6
:104D800072020020B02F0020256400005828002067
:104D90006C0000202523580A0000000000B597B0E1
:104DA0000121042007F016F80121880407F045F8D6
:104DB0000121480507F00EF807220A21634806F092
:104DC0004EFE07220B21614806F049FE4FF4406079
:104DD000119002208DF8480000208DF84A00032031
:104DE0008DF8490000208DF84B0011A9574806F0B6
:104DF000ABFD4FF4E13013900020ADF85000ADF85A
:104E00005200ADF85400ADF858000C20ADF8560033
:104E100013A94F4807F0BCFF012240F225514C482E
:104E200008F0F4F827208DF8400004208DF84100A8
:104E300000208DF8420001208DF8430010A805F0F5
:104E4000DEFD444806F03EFB4FF00060019000207C
:104E5000059040200490404803903D48001D02907A
:104E60000015079000200690099008900A904FF4D2
:104E700040300B9000200C9001200D9000200F90EE
:104E80000E9001A9334806F0BFFB3449314806F0C3
:104E90006EFC32492F4806F0C5FC0E208DF840000C
:104EA00002208DF8410004208DF8420001208DF889
:104EB000430010A805F0A3FD01221021254806F0AB
:104EC0006AFC01228021224808F097F817B000BD43
:104ED00010B522491F4806F07BFC01280AD11F4962
:104EE0001C4806F044FC1D491A4806F09BFC0020B3
:104EF0001B49087310BD70B504460D461848007B69
:104F000078B92A46214614480AF0BAFC29461148C5
:104F100006F0D5FB01210F4806F0B0FB0120104937
:104F2000087370BD10B540F22551094808F0A9F882
:104F300050B12021064808F09BF840F22551044862
:104F400008F0D6F804F08CFF10BD00000008024005
:104F50000048004058600240920300200080001882
:104F6000D2030020002282610160C261002303623B
:104F7000436280ED031A80ED010AC0ED020AC0ED24
:104F8000041A704701688269891AC161C269016A9D
:104F9000511A00EE101AB8EEC00AD0ED010A20EE48
:104FA000200A90ED021AC16900EE901AF8EEE00AAC
:104FB00001EE200AC269416A0A44016AA2EB41017A
:104FC00000EE901AF8EEE00A90ED031A01EE200AC6
:104FD000BDEEC00A10EE101A4161026A4262C26957
:104FE000026270472DE9F04186B004460D46164630
:104FF0001F464FF0000800208DF80C008DF80D00C2
:1050000008208DF80E0040F2FF18CDF8048004202F
:1050100001F024F850B9884890F86003012805D1C0
:10502000200A8DF80F008DF8104005E000208DF863
:105030000F0000218DF81010052001F00FF850B975
:105040007D4890F83804012805D1290A8DF81110FF
:105050008DF8125004E000218DF811108DF8121017
:10506000062000F0FBFF50B9734890F810050128A6
:1050700005D1310A8DF813108DF8146004E0002179
:105080008DF813108DF81410072000F0E7FF50B9C9
:10509000694890F8E805012805D1390A8DF81510FE
:1050A0008DF8167004E000218DF815108DF816109B
:1050B00001A9624805F0A0FE06B0BDE8F0812DE927
:1050C000F04186B004460D4616461F464FF00008D4
:1050D00000208DF80C008DF80D0008208DF80E00D2
:1050E0004FF40078CDF80480002000F0B7FF48B9F5
:1050F00051480078012805D1200A8DF80F008DF85D
:10510000104005E000208DF80F0000218DF81010F0
:10511000012000F0A3FF50B9474890F8D8000128BB
:1051200005D1290A8DF811108DF8125004E00021E4
:105130008DF811108DF81210022000F08FFF50B979
:105140003D4890F8B001012805D1310A8DF81310BF
:105150008DF8146004E000218DF813108DF8141000
:10516000032000F07BFF50B9334890F888020128F3
:1051700005D1390A8DF815108DF8167004E000215C
:105180008DF815108DF8161001A92C4805F034FE85
:1051900006B0BDE8F08100204BE000EBC00101EB60
:1051A0004101254A02EBC101B1F90810002908DDCF
:1051B00000EBC00101EB410102EBC101B1F90810A4
:1051C00009E000EBC00101EB41011B4A02EBC10108
:1051D000B1F90810494200EBC00202EB4202164B43
:1051E00003EBC202B2F8D020914220DD00EBC001F7
:1051F00001EB41011A4602EBC101B1F90810002987
:1052000002DA4FF0FF3100E0012100EBC00202EBB7
:105210004202094B03EBC202B2F8D02051430AB25A
:1052200000EBC00101EB410103EBC1010A81411C0C
:10523000C8B20828B1DB7047C428002000680040CD
:1052400010B54FF40050FE490880FE490880132035
:10525000FB4988702420FB49887043F69910F8496F
:10526000888042F22830F7498880B7EE000AF44877
:1052700080ED020A9FEDF40A084680ED020A002044
:10528000F24908709FEDF20A084680ED010A0120FC
:1052900008724FF47A704881012008734FF47A70D5
:1052A000C88140000882012088740020C8744FF42F
:1052B000FA60E849888300204860E748E14B0ECB5C
:1052C0004C300EC00020E449803908704870052039
:1052D0008870002048606421DF4880384181322195
:1052E0000181C168DFEDDD1A9FEDDD1ADFEDDD0A1A
:1052F000B0EE0C0A4830FFF735FED7488038B0F9D9
:105300000A10F7EE001A9FEDD81ADFEDD80AB1EEB9
:10531000040A7030FFF726FE1422CC49CE4818301C
:105320000AF0AEFACC48D830C64B0ECB4C300EC08B
:105330000020C949803981F8D8000021C64880384A
:1053400080F8D910052180F8DA100021C0F8DC10AF
:105350006421A0F8E2103221A0F8E010C168DFED6E
:10536000BF1A9FEDBF1ADFEDBF0AB0EE0C0A00F5C1
:105370009070FFF7F7FDB8488038B0F90A10F7EEE3
:10538000001A9FEDB91ADFEDB90AB1EE040A00F573
:10539000A470FFF7E7FD1422AC49AF48F0300AF0E3
:1053A0006FFAB348A74B0ECB4C300EC00020AA4971
:1053B000803981F8B0010021A748803880F8B11108
:1053C000052180F8B2110021C0F8B4116421A0F8C1
:1053D000BA113221A0F8B811C168DFEDA01A9FED13
:1053E000A01ADFEDA00AB0EE0C0A00F5FC70FFF782
:1053F000B9FD99488038B0F90A10F7EE001A9FED10
:105400009A1ADFED9A0AB1EE040A00F50870FFF768
:10541000A9FD14228D49964818300AF031FA9448B3
:10542000D830884B0ECB4C300EC000208A498039D2
:1054300081F8880200218848803880F88912052187
:1054400080F88A120021C0F88C126421A0F8921210
:105450003221A0F89012C168DFED801A9FED801A0A
:10546000DFED800AB0EE0C0A00F53470FFF77AFD2C
:1054700079488038B0F90A10F7EE001A9FED7A1AD1
:10548000DFED7A0AB1EE040A00F53E70FFF76AFD1F
:1054900014226E497648F0300AF0F2F97548684BEC
:1054A0000ECB4C300EC000206B49803981F8600370
:1054B00000216948803880F86113052180F8621363
:1054C0006FF01201C0F864136421A0F86A1332214E
:1054D000A0F86813C168DFED611A9FED611ADFED76
:1054E000630AB2EE000A00F56A70FFF73BFD5A4806
:1054F0008038B0F90A10F7EE001A9FED591ADFED67
:105500005B0AB2EE000A00F57470FFF72BFD14225F
:105510004E49584818300AF0B3F95648D830484B2D
:105520000ECB4C300EC000204B49803981F8380436
:1055300000214948803880F83914052180F83A1450
:105540006FF01201C0F83C146421A0F8421432211B
:10555000A0F84014C168DFED411A9FED411ADFED5C
:10556000430AB2EE000A00F59060FFF7FBFC3A48F0
:105570008038B0F90A10F7EE001A9FED391ADFED06
:105580003B0AB2EE000A00F59560FFF7EBFC14222F
:105590002E493848F0300AF073F93748284B0ECBC3
:1055A0004C300EC000202C49803981F810050021B4
:1055B0002948803880F81115052180F8121513212B
:1055C000C0F814156421A0F81A153221A0F8181596
:1055D000C168DFED221A9FED221ADFED240AB2EE38
:1055E000000A00F5AB60FFF7BDFC1B488038B0F93E
:1055F0000A10F7EE001A9FED1A1ADFED1C0AB2EE40
:10560000000A00F5B060FFF7ADFC14220F491A48FC
:1056100018300AF035F91848D830094B0ECB4C3009
:105620000EC000200C49803981F8E80500210A48A5
:10563000803880F8E915052180F8EA1513211DE06E
:10564000842800207828002077BEC34090280020BE
:105650000000E144A428002044290020CDCCCC3E09
:10566000000000008FC2F53DCDCC4C3E9A99993E8A
:10567000F42A0020A42C0020542E0020C0F8EC15A1
:105680006421A0F8F2153221A0F8F015C1685FED91
:105690000D1A1FED0D1A5FED0B0AB2EE000A00F5B0
:1056A000C660FFF75FFCFE48B0F90A10F7EE001A7B
:1056B0001FED151A5FED130AB2EE000A00F5CB607C
:1056C000FFF750FC1422F749F7480AF0D9F80024F4
:1056D000BBE004EBC40000EB4000F14901EBC0006B
:1056E000F2490968C0F8AC10F048416804EBC40006
:1056F00000EB4000EA4A02EBC000C0F8B01004EB37
:10570000C40101EB410102EBC10101F1B4000A2225
:10571000E64908310AF0B4F8E448418A04EBC400D1
:1057200000EB4000DE4A02EBC000A0F8BE1004EB24
:10573000C40000EB4000114601EBC000AC30DB4A76
:1057400053699169D269C0E90531C26104EBC400B3
:1057500000EB4000D24901EBC000D0ED270A04EB7A
:10576000C40000EB400001EBC00090F8CE0000EE5A
:10577000100AB8EE400A20EE800A04EBC40000EBE9
:10578000400001EBC000D0ED350A60EE200A04EBCA
:10579000C40000EB400001EBC000B0F8CC0000EE0C
:1057A000100AB8EE400A20EE800ADFEDC10A80EE52
:1057B000201ABCEEC10A04EBC40000EB400001EB70
:1057C000C00080ED2B0A04EBC40000EB400001EBAD
:1057D000C000406800EE100AB8EEC00A04EBC40036
:1057E00000EB400001EBC000D0ED350A60EE200A6E
:1057F00004EBC40000EB400001EBC00090F8CE00C9
:1058000000EE100AB8EE400A60EE800A04EBC40015
:1058100000EB400001EBC000B0F8CC0000EE100A35
:10582000B8EE400A20EE800ADFEDA10A80EE201AD1
:10583000BDEEC10A10EE100A04EBC40101EB4101F8
:10584000974A02EBC101C860641C082CFFF641AF07
:1058500000209849C870887048700871087000BFAF
:105860000BE044F62C4200EBC00101EB41018C4BF4
:1058700003EBC101A1F8A220401C0428F1DB10BDFC
:10588000002245210A54026200218161704710B54F
:10589000044604EBC40000EB4000814901EBC0006A
:1058A000D0ED200A04EBC40000EB400001EBC00087
:1058B000B0F90A0000EE100AB8EEC00A20EE800A25
:1058C000BDEEC00A10EE100A04EBC40101EB410169
:1058D000734A02EBC101086704EBC40000EB40000F
:1058E000114601EBC000B0F91E1004EBC40000EB40
:1058F000400002EBC000C0F8881004EBC40101EBCB
:10590000410102EBC10101F17000FFF73BFB04EB29
:10591000C40000EB4000624901EBC000018904EBC8
:10592000C40000EB40005E4A02EBC000D0F88400E7
:10593000084401B204EBC40000EB400002EBC000DD
:10594000018110BD10B5044604EBC40000EB40001B
:10595000534901EBC000406800EE100AB8EEC00ADF
:1059600004EBC40000EB400001EBC000D0ED350AB1
:1059700060EE200A04EBC40000EB400001EBC00025
:1059800090F8CE0000EE100AB8EE400A60EE800AF1
:1059900004EBC40000EB400001EBC000B0F8CC0009
:1059A00000EE100AB8EE400A20EE800ADFED400A51
:1059B00080EE201ABDEEC10A10EE100A04EBC401FD
:1059C00001EB4101364A02EBC101C86004EBC4009F
:1059D00000EB4000114601EBC000C06804EBC401BD
:1059E00001EB410102EBC101886404EBC40000EB50
:1059F0004000114601EBC000407870B904EBC400D0
:105A000000EB400001EBC000D0F8B00004EBC40193
:105A100001EB410102EBC101886404EBC40000EB1F
:105A200040001F4901EBC000016A04EBC40000EB19
:105A300040001B4A02EBC000016604EBC40101EB0D
:105A4000410102EBC10101F14800FFF79BFA04EBB1
:105A5000C40000EB4000124901EBC000D0ED160A73
:105A600004EBC40000EB400001EBC000C06D00EE91
:105A7000100AB8EEC00A20EE800ABDEEC00A10EE91
:105A8000100A04EBC40101EB4101054A02EBC1011C
:105A9000086704EBC40000EB400011460CE0000076
:105AA000C428002090280020442F0020A428002093
:105AB0000000B4432000002001EBC00090F8A000DB
:105AC00088B304EBC40000EB400001EBC000006FA2
:105AD000002807DD04EBC40000EB400001EBC00030
