:020000040800F2
:10000000E0A40020FDC20008B5920008B7920008E5
:10001000C9920008CD920008D192000800000000AB
:10002000000000000000000000000000D592000861
:10003000D79200080000000067E50008CBE7000841
:1000400017C3000817C3000817C3000817C3000828
:1000500017C3000817C3000817C3000817C3000818
:1000600017C3000817C3000817C3000817C3000808
:1000700017C3000817C300080544000817C3000889
:1000800017C300085920000817C3000817C3000849
:100090001F0B000817C3000817C3000817C3000888
:1000A00017C3000817C3000817C3000817C30008C8
:1000B0003D030008B706000817C3000817C300086F
:1000C00017C3000817C3000817C3000817C30008A8
:1000D00017C3000817C300087F2000085944000810
:1000E00017C3000817C3000817C3000817C3000888
:1000F00017C3000817C3000817C3000817C3000878
:1001000017C3000817C3000817C3000817C3000867
:1001100017C3000817C3000817C3000817C3000857
:1001200017C3000817C3000817C3000817C3000847
:1001300017C3000817C3000817C3000817C3000837
:1001400099110008ED13000817C3000817C3000831
:1001500017C3000817C30008491F000817C3000889
:1001600017C3000817C3000817C3000817C3000807
:1001700017C3000817C3000817C3000817C30008F7
:1001800017C3000817C30008DFF80CD00EF096FD67
:1001900000480047B31D0008E0A4002030BF72B63D
:1001A000704762B6704780F30888704710B5082022
:1001B0000FF008FA044600206060204610BD0120C0
:1001C00044494871704710B505F0BAFB424805F044
:1001D0006AFC07F0E9F8404807F07DF904F0A4FA5A
:1001E00006F00AFEFFF7EBFF002019E0002100EB0C
:1001F00080023A4B03EB4202517000EB800203EBAA
:10020000420291714FF47A7100EB800203EB4202DB
:100210005180002100EB800203EB42029180401CE0
:100220000228E3DBFFF7C2FF2D49486010BD002222
:100230000A7803780B700270704770B506460C465A
:10024000354600E06D6815B16868A042FAD14CB13E
:100250006068686020460FF08DF921480078401EE4
:100260001F49087070BD02460B46114605E008881C
:10027000984201D10846704749680029F7D100200B
:10028000F9E72DE9F041074688463C4641462046BD
:10029000FFF7E9FF08B1BDE8F081002602E06468DD
:1002A000701CC6B20E480078B04201DD002CF6D1B9
:1002B0006CB108200FF086F90546A5F8008060684B
:1002C0006860656006480078401C0549087000BFFA
:1002D000E1E70000CE03002000680040300100206C
:1002E000040000201FB5012108460AF094FDD648FD
:1002F00002900B20ADF804000020ADF80600ADF828
:100300000C0001A94FF080400AF03DFF0122114688
:1003100090070BF0D9FB012188070AF0BDFF1C20D4
:100320008DF8000002208DF801008DF802000120F8
:100330008DF80300684609F050FB1FBD70B5012120
:1003400088070BF0D8FB01287ED100247BE0C4EBAA
:100350000410BE4901EB800090F8320001282BD137
:10036000C4EB041011F8200030B30EF0B5F8C4EB64
:100370000411B64A02EB8101C96A411AC4EB0410A8
:1003800002EB8000008E814216D9C4EB04101146A6
:1003900001EB800090F8320001280DD1C4EB04106D
:1003A00001EB800090F82800401CC4EB041102EB24
:1003B000810181F8280007E00020C4EB0411A34A62
:1003C00002EB810181F82800C4EB04109F4901EB86
:1003D000800090F82800642818DD0121C4EB041087
:1003E0009A4A02EB800080F82510022008F050FCA9
:1003F000621C032343EA021242F48071944A50685B
:10040000FFF73FFF022008F029FF1AE0002008F064
:1004100025FF0021C4EB04108C4A02EB800080F819
:100420002510621C032343EA021242F48071884AB9
:100430005068FFF718FF0546854948682946FFF7C9
:10044000FCFE601CC4B200E0F8E0042CFFF67FAFB5
:1004500000246FE0C4EBC40000EB40007D4901EBD9
:1004600080004078002864D00EF036F8C4EBC40158
:1004700001EB4101774A02EB8101096C411AC4EB9F
:10048000C40000EB400002EB8000B0F84400814261
:100490001BD9C4EBC40000EB4000114601EB800007
:1004A00090F84700012810D1C4EBC40000EB4000D5
:1004B00001EB8000808F401C81B2C4EBC40000EBD4
:1004C000400002EB8000818708E00021C4EBC400FB
:1004D00000EB40005F4A02EB80008187C4EBC40060
:1004E00000EB40005B4901EB8000808FB0F57A7F24
:1004F00013DD0121C4EBC40000EB4000554A02EBC0
:100500008000C177022008F0C3FB032008F0A6FE9C
:100510004FF4FA7008F0C3FC0BE0002008F09EFED8
:100520000021C4EBC40000EB40004A4A02EB80000B
:10053000C177641C042C8DD3002404E0204605F010
:1005400016F9601CC4B2082CF8DB002474E004EB3C
:10055000C40000EB0410404901EB8000407890B3E8
:100560000DF0BAFF04EBC40101EB04113A4A02EBAF
:100570008101096D411A04EBC40000EB041002EB89
:100580008000B0F8540081421ED904EBC40000EB97
:100590000410114601EB800090F85700012813D198
:1005A00004EBC40000EB041001EB8000B0F84C0039
:1005B000401C81B204EBC40000EB041002EB80008D
:1005C000A0F84C100AE035E0002104EBC40000EB79
:1005D0000410214A02EB8000A0F84C1004EBC40088
:1005E00000EB04101C4901EB8000B0F84C006428BB
:1005F00013DD012104EBC40000EB0410164A02EBEA
:10060000800080F82F10022008F042FB042008F040
:1006100025FEC82008F043FC0CE0002008F01EFE78
:10062000002104EBC40000EB04100B4A02EB800035
:1006300080F82F10601CC4B2042C88DB01218807CD
:100640000BF06AFA70BD00005FAE0A00D82E0020E1
:1006500004000020182D0020043000201FB50121C7
:1006600002200AF0D8FB42F6DF6002900720ADF8C6
:1006700004000020ADF80600ADF80C0001A9804888
:100680000AF081FD012211467D480BF01DFA01217F
:100690007B480AF001FE1D208DF8000001208DF836
:1006A000010000208DF8020001208DF8030068464B
:1006B00009F093F91FBD70B5012171480BF01BFAC9
:1006C00001287AD104F002FE002432E004EB041089
:1006D00000EB40006B4911F8200028B304EB041034
:1006E00000EB400001EB80004078F0B104EB041017
:1006F00000EB400001EB80008078012806D0022842
:1007000005D004280BD005280DD104E00CE020B260
:1007100004F02CFB08E020B204F081FB04E020B2DE
:1007200004F025FD00E000BF02E020B204F077FBFA
:10073000641C082CCADB03F0A1FF524CB4F96A32E6
:10074000B4F99E21B4F9D210B4F9060003F03DFFCC
:10075000B4F99A35B4F9CE24B4F90214B4F93603D5
:1007600003F0DAFE002477E0C4EB0410464911F8E8
:100770002000002868D0C4EB041001EB8000407812
:10078000F0B3C4EB041001EB80008078B0B1012815
:1007900004D0022821D0032845D135E0C4EB041150
:1007A000394A02EB8101D1ED010AB0EE600A611C09
:1007B000C8B2002106F06FFC36E05FE0C4EB041124
:1007C000314A02EB8101D1ED040AB0EE600A611CEE
:1007D000C8B2002106F0A7FB26E0C4EB04122A4BA6
:1007E00003EB82029268C4EB0413274D05EB8303ED
:1007F00093F8383002FB03F1621CD0B2002200E013
:1008000013E006F0F2FB0FE0C4EB04111E4A02EB0A
:100810008101D1ED0D0AB0EE600A611CC8B2002161
:1008200006F09DFC00E000BF15E0C4EB0411164A81
:1008300002EB8101D1ED0D0AB0EE600A611CC8B275
:10084000002106F08CFC06E0611CC8B200219FED7F
:100850000F0A06F020FC641C082C85DB0C490D48AF
:1008600008F04DF90C490D4808F049F90C490948C0
:1008700008F045F9012102480BF04EF970BD000067
:10088000000400408C260020D82E0020000000002C
:1008900040590020006800405C5700200064004080
:1008A000245B002000B58BB0012148060AF0B3FAA2
:1008B000012108460AF07CFA09220B21FA480AF0C5
:1008C000BCF809220C21F8480AF0B7F802208DF88C
:1008D0001C004FF4C050069006A9F3480AF022F815
:1008E00000208DF826008DF827008DF828008DF85F
:1008F00029008DF82A008DF82B008DF822008DF844
:10090000230008208DF8240003208DF82500ADF881
:10091000200008A9E54809F0E4F800208DF812004D
:1009200001208DF8130000208DF8140046F2A0007D
:10093000ADF8080046F2C000ADF80A0046F2E0004B
:10094000ADF80C004FF4C240ADF80E000020ADF839
:10095000100001208DF8150002A809F04CF90320C1
:100960008DF8120001208DF8130000208DF814007E
:100970004FF4C840ADF8080046F22000ADF80A0078
:1009800046F24000ADF80C0046F26000ADF80E00F3
:100990000020ADF8100001208DF8150002A809F024
:1009A0002AF914208DF8040003208DF8050000209A
:1009B0008DF8060001208DF8070001A809F00DF858
:1009C00001220221B94809F015FC0BB000BD10B599
:1009D0000446B7484088401C1E2190FBF1F201FB01
:1009E0001200B3490988884203D10120B1498871B6
:1009F00010BD20688038AE494A88091D01EB0211FC
:100A00000860A17AAA484288001D00EB021001711B
:100A1000A27AA7494B88091D01EB0311481D04F177
:100A20000B010DF01BFFA2484088401C1E2190FBCB
:100A3000F1F201FB12009E49488000BFD8E710B5D3
:100A400001469B484088401C1E2290FBF2F302FBAB
:100A50001300974A1288904203D10120954A907161
:100A600010BDA1F18002924B5C881B1D03EB0413A7
:100A70001A6005238E4A5488121D02EB041213716A
:100A800042238B4A5488121D02EB04125371884A88
:100A90005488121D02EB041293714723844A548830
:100AA000121D02EB0412D3714A1FD0B200EB0012E8
:100AB00002EB4202804B03EB8202B2F9142000EEFB
:100AC000102AB8EEC00AF3EE0E0A20EE200A00EB60
:100AD000001202EB420203EB8202D2ED320A80EEF8
:100AE000201ABDEEC10A10EE102A12B2734B23F881
:100AF00010201A4632F810306D4A5488121D02EB4D
:100B00000412138100BF6A484088401C1E2290FBDB
:100B1000F2F302FB1300664A508000BFA0E710B555
:100B200086B00221614809F0CDFB002875D0022172
:100B30005E4809F062FC02215C4809F0A0FB01AAB2
:100B400000215A4809F03BFA9DF80C00002864D1B6
:100B50009DF80D000028FAD140F205310198884235
:100B60000BD0491C0198884207D0491C0198884243
:100B700003D00198B0F5427F7DD10198401FC4B2E7
:100B80009DF80F0043280FD19DF8100057280BD176
:100B90009DF81100482807D19DF81200552803D16F
:100BA00001A8FFF714FFD0E09DF80F00432835D1CE
:100BB0009DF81000482831D1BDF811003F4921F8B7
:100BC0001400084630F9140000EE100AF8EEC00ACE
:100BD000B3EE0E1A80EE810A04EB041000EB400025
:100BE000354901EB8000D0ED320A20EE200ABDEE3F
:100BF000C00A10EE100A00B204EB041101EB41012F
:100C00002D4A02EB81018880012004EB041101EBE5
:100C1000410102EB8101487097E019E19DF80F0056
:100C2000532818D19DF81000502814D1BDF8110098
:100C3000234921F81400084630F8141004EB04107E
:100C400000EB40001C4A02EB8000A0F8961001A8BF
:100C5000FFF7BDFE79E09DF80F004D2832D19DF8D9
:100C600010004F282ED19DF8110001282AD105200F
:100C700004EB041100E069E001EB41010E4A02EBD4
:100C800081018870012004EB041101EB410102EBAA
:100C90008101487004EB041101EB410102F82100CD
:100CA00001A8FFF794FE50E00000024000640040FD
:100CB0005C570020CE0300208C2600200C00002072
:100CC000140000209DF80F004D2819D19DF8100048
:100CD0004F2815D19DF8110090B9002004EB0411A4
:100CE00001EB4101604A02F8210004EB041101EB21
:100CF000410102EB8101487001A8FFF768FE24E082
:100D00009DF80F00532810D19DF8100054280CD1E5
:100D1000002004EB041101EB4101534A02EB810175
:100D2000487001A8FFF753FE0FE09DF80F0042281E
:100D30000BD19DF81000422807D19DF811004728DB
:100D400003D1019988B2FFF77AFE00BF0198B0F590
:100D5000487F7DD1BDF80F0044490880BDF81100DF
:100D60004880BDF813008880BDF81500C88008468B
:100D7000B0F9000000EE100AB8EEC00AB3EE0E1A89
:100D8000C0EE010A384890ED320A20EE800ABDEE2E
:100D9000C00A10EE100A00B2334988800120487062
:100DA000052088703148B0F9020000EE100AB8EE54
:100DB000C00AB3EE0E1AC0EE010A084690ED650AAD
:100DC00020EE800ABDEEC00A10EE100A01B22648DD
:100DD000A0F8D010012180F8CD10052180F8CE10A8
:100DE0002248B0F9040000EE100AB8EEC00AB3EED3
:100DF0000E1AC0EE010A1C4890ED980A20EE800AF7
:100E0000BDEEC00A10EE100A01B21748A0F89C11FE
:100E1000012180F89911052180F89A111348B0F941
:100E2000040000EE100AB8EEC00AB3EE0E1AC0EECF
:100E3000010A0D4890EDCB0A20EE800ABDEEC00AF3
:100E400010EE100A01B20848A0F86812012100E073
:100E500007E080F86512052180F8661201A8FFF707
:100E6000B6FD06B010BD00008C2600200C0000204E
:100E70002DE9F0418AB004460D4616461F46DDF8BE
:100E800040800121022009F093FF01214FF0C06052
:100E900009F0C1FFFE4808F00BFE09220521FD48BC
:100EA00009F0CBFD09220621FA4809F0C6FD02200F
:100EB0008DF824006020089008A9F64809F032FD5A
:100EC00040208DF8000002208DF8010000208DF8F0
:100ED000020001208DF80300684608F07EFD4120E5
:100EE0008DF8000002208DF8010001208DF802002D
:100EF0008DF80300684608F070FD00208DF81A0098
:100F00008DF81B008DF81C008DF81D008DF81E005B
:100F10008DF81F008DF816808DF817408DF8186039
:100F20008DF81950ADF8147005A9D94808F0D9FD0D
:100F30000E208DF80E0001208DF80F0000208DF896
:100F4000100044F22000ADF8040044F24000ADF877
:100F5000060044F26000ADF808004FF48140ADF89F
:100F60000A000020ADF80C0001208DF8110001A846
:100F700008F041FE0F208DF80E0001208DF80F00C3
:100F800000208DF8100044F2A000ADF8040044F2F7
:100F9000C000ADF8060044F2E000ADF808004FF4E0
:100FA0008240ADF80A000020ADF80C0001208DF859
:100FB000110001A808F01FFE10208DF80E0001207E
:100FC0008DF80F0000208DF8100045F22000ADF8DC
:100FD000040045F24000ADF8060045F26000ADF8AF
:100FE00008004FF4A140ADF80A000120ADF80C0054
:100FF0008DF8110001A808F0FEFD11208DF80E00FB
:1010000001208DF80F0000208DF8100045F2A0009F
:10101000ADF8040045F2C000ADF8060045F2E0006E
:10102000ADF808004FF4A240ADF80A000120ADF879
:101030000C008DF8110001A808F0DDFD12208DF8DC
:101040000E0001208DF80F0000208DF810004FF4E5
:101050008150ADF804004FF48250ADF806004FF413
:101060008350ADF808004FF48450ADF80A00012019
:10107000ADF80C008DF8110001A808F0BCFD13209C
:101080008DF80E0001208DF80F0000208DF8100063
:101090004FF48550ADF804004FF48650ADF80600CB
:1010A0004FF48750ADF808004FF48850ADF80A00AF
:1010B0000120ADF80C008DF8110001A808F09BFD8F
:1010C00014208DF80E0000208DF80F0001208DF8FF
:1010D00010000020ADF804004FF49040ADF8060079
:1010E0004FF6FF70ADF808004FF47840ADF80A00F5
:1010F0000120ADF80C008DF8110001A808F07BFD6F
:1011000015208DF80E0001208DF80F0000208DF8BD
:1011100010004BF22000ADF804004BF24000ADF897
:1011200006004BF26000ADF808004BF28000ADF80D
:101130000A000120ADF80C008DF8110001A808F09C
:101140005AFD16208DF80E0001208DF80F000020AA
:101150008DF810004FF40150ADF804004FF4025028
:10116000ADF80600ADF80800ADF80A000120ADF8B2
:101170000C008DF8110001A808F03DFD012210219E
:10118000434809F037F801220221414809F032F8BA
:1011900000200AB0BDE8F08110B586B001AA002198
:1011A0003B4808F00CFF9DF80C0000287CD19DF80E
:1011B0000C00002878D19DF80E00082874D1019801
:1011C000B0F5007F70D90198B0F5027F6CD8019816
:1011D000401EC4B2304850F82400304941F8240081
:1011E0000DF07AF92C4941F824009DF812109DF871
:1011F000110041EA002001B204EB041000EB4000B2
:10120000274A02EB800001839DF810009DF80F1023
:1012100040EA012001B204EB041000EB400002EBB5
:10122000800001849DF814109DF8130041EA00200D
:1012300001B204EB041000EB400002EB8000C1821D
:101240009DF8151004EB041000EB400002EB800049
:10125000418404EB041000EB4000114601EB8000D8
:10126000C06900EE100AB8EEC00ADFED0E0A60EEAB
:10127000200A04EB041000EB400001EB800090F822
:10128000C20000EE100AB8EE401A80EE810A0CE0AF
:101290000068004000040240FC030020DC03002042
:1012A0008C2600200000B44340E004EB041000EB67
:1012B000400001EB800090ED321AC0EE010A04EB11
:1012C000041000EB400001EB8000B0F8C00000EE1D
:1012D000100AB8EE400A80EE801ABDEEC10A10EE88
:1012E000100A00B204EB041101EB410102EB810191
:1012F000888204EB041000EB4000114601EB8000F3
:1013000090F83A0088B9012104EB041000EB40008A
:1013100002EB800080F83A10002104EB041000EB8F
:10132000400002EB8000A0F8A81000BF0221FE4898
:1013300009F063F80221FC4808F0A1FF06B010BDD7
:10134000F0B585B007460D460024122000900190AC
:1013500000208DF808008DF809008DF80A5000BFB4
:1013600005E0395D0DF10B000155601C84B2AC4203
:10137000F7DB6946EC4808F02DFD0646002401E045
:10138000601C84B23146E84808F0BCFD18B940F64C
:10139000FF708442F4DB40F6FF70844202DB0120E0
:1013A00005B0F0BD0020FBE74168491C4160002109
:1013B00001730169491E0161818A491C1E2291FB4A
:1013C000F2F302FB1311818270474168491C4160AE
:1013D000002101730169491E0161818A491C1E2295
:1013E00091FBF2F302FB13118182704710B586B0B6
:1013F0001021CD4808F066FF002874D001AA012111
:10140000C94808F0DCFD1021C74808F0F6FF10219C
:10141000C54808F034FF0198B0F5B06F74D940F2B8
:101420008551019888426FD89DF80D0000286BD136
:101430000198A0F28150C4B2002104EBC40000EB7B
:101440000410BA4A02EB800080F857109DF80F0094
:101450004F2809D19DF81000602805D19DF8110092
:10146000602801D1012000E000209DF80F104329E1
:1014700009D19DF81010622905D19DF8111060293D
:1014800001D1012100E0002108439DF80F104329FC
:1014900009D19DF81010642905D19DF8111060291B
:1014A00001D1012100E0002108439DF80F104329DC
:1014B00009D19DF810106B2905D19DF811106029F4
:1014C00001D1012100E0002108439DF80F104329BC
:1014D0000AD19DF810106C2906D19DF811106029D1
:1014E00002D1012101E061E3002108439DF80F10C2
:1014F0004B290AD19DF81010402906D19DF81110F2
:10150000602902D1012101E047E1002108439DF853
:101510000F104B2909D19DF81010772905D19DF89E
:101520001110602901D1012100E00021084330B1F0
:10153000C4EB84117E4A02EBC100FFF746FF9DF821
:101540000F004B2816D19DF81000402812D19DF8AD
:10155000110060280ED19DF81300C01008B10120C1
:1015600000E0002004EBC40101EB04116F4A02EB20
:10157000810148709DF80F004F2810D19DF8100090
:1015800060280CD19DF81100602808D19DF8130047
:1015900004EBC40101EB0411644A02F821009DF838
:1015A0000F00432849D19DF81000622845D19DF8CD
:1015B0001100602841D1DDF8131004EBC40000EBEA
:1015C00004105A4A02EB8000016104EBC40000EBF6
:1015D0000410114601EB800090ED180A1FEDCF1AA0
:1015E000C1EE000A04EBC40000EB041001EB800024
:1015F000006900EE100AB8EEC00A20EE800AB1EED3
:10160000001AC0EE010A04EBC40000EB041001EB69
:101610008000B0F85C0000EE100AB8EE400A80EEE0
:10162000801ABDEEC10A10EE100A00B204EBC4012C
:1016300001EB041102EB810188809DF80F00432823
:1016400049D19DF81000642845D19DF8110060280B
:1016500041D1DDF8131004EBC40000EB0410334A51
:1016600002EB8000416204EBC40000EB0410114661
:1016700001EB800090ED180A1FEDF61AC1EE000A8A
:1016800004EBC40000EB041001EB8000406A00EEA4
:10169000100AB8EEC00A20EE800AB1EE001AC0EEC1
:1016A000010A04EBC40000EB041001EB8000B0F869
:1016B0005C0000EE100AB8EE400A80EE801ABDEE23
:1016C000C10A10EE100A00B204EBC40101EB0411D0
:1016D00002EB810108839DF80F00432811D19DF88A
:1016E00010006B280DD19DF81100602809D1DDF89C
:1016F000131004EBC40000EB04100C4A02EB800052
:10170000C1609DF80F00432818D19DF810006C2887
:1017100014D19DF81100602810D1DDF8131004EBEE
:10172000C40000EB041005E0006800400430002015
:10173000A8490020FE4A02EB800001629DF80F00DC
:101740004B2829D19DF81000772825D19DF811004C
:10175000602821D1DDF8131004EBC40000EB041065
:10176000F34A02EB8000816204EBC40000EB04103A
:10177000114601EB8000806A00EE100AB8EEC00A44
:10178000DFEDEC0A80EE201A04EBC40000EB04103D
:1017900001EB800080ED071A00BF0198B0F5207FB3
:1017A0007ED90198B0F5227F7AD89DF80D000028E7
:1017B00076D10198A0F28120C4B20021C4EBC4000C
:1017C00000EB4000DC4A02EB800080F847109DF8F7
:1017D0000F0041280BD19DF81000432807D19DF838
:1017E000120000F04000012801D0012000E000209C
:1017F0009DF80F1042290BD19DF81010472907D1F1
:101800009DF8121001F04001012901D0012100E0F2
:10181000002108439DF80F104A290BD19DF81010A4
:10182000562907D19DF8121001F04001012901D07D
:10183000012100E0002108439DF80F104D290BD134
:101840009DF810104F2907D19DF8121001F04001AA
:10185000012901D0012100E0002108439DF80F106B
:1018600050290BD19DF81010522907D19DF8121064
:1018700001F04001012901D0012100E000210843CD
:101880009DF80F1053290CD19DF81010442908D150
:101890009DF8121001F04001012902D0012101E060
:1018A000FDE0002108439DF80F1053290BD19DF84E
:1018B0001010542907D19DF8121001F040010129A0
:1018C00001D0012100E0002108439DF80F105429A8
:1018D0000BD19DF81010432907D19DF8121001F08B
:1018E0004001012901D0012100E0002108439DF8B9
:1018F0000F1055290BD19DF810104D2907D19DF8D7
:10190000121001F04001012901D0012100E0002165
:10191000084330B1C4EB8411884A02EBC100FFF7E1
:1019200043FD9DF80F004D2825D19DF810004F284C
:1019300021D19DF8120000F0400001281BD09DF835
:10194000130001280ED19DF8130008B1012000E01A
:101950000020C4EBC40101EB4101774A02EB810195
:10196000487008E00020C4EBC40101EB4101724A59
:1019700002EB810148709DF80F0056282FD19DF889
:10198000100058282BD19DF8120000F040000128CB
:1019900025D0DDF81310C4EBC40000EB4000664A0C
:1019A00002EB80004161C4EBC40000EB4000114633
:1019B00001EB8000B0F84C003C2190FBF1F1C4EB4E
:1019C000C40000EB400002EB8000406990FBF1F1A5
:1019D000C4EBC40000EB400002EB800041619DF8C5
:1019E0000F00502841D19DF8100058283DD19DF896
:1019F000120000F04000012837D0DDF81300C4EBDE
:101A0000C40101EB41014C4A02EB81018861C4EB46
:101A1000C40101EB410102EB810191ED140A9FED3C
:101A2000481AC1EE000A00EE100AB8EEC00A60EED5
:101A3000800AC4EBC40101EB410102EB8101B1F862
:101A40004C1000EE101AB8EE400A80EE801ABDEE7F
:101A5000C10A10EE101A09B2C4EBC40202EB420232
:101A6000354B03EB8202118200BF9DF80F0049281D
:101A700014D19DF81000512810D19DF8120000F0EB
:101A8000400001280AD0BDF8130001B2C4EBC40025
:101A900000EB4000284A02EB8000418200BF019821
:101AA000812813D30198882810D89DF80D0068B9B3
:101AB00001988138C4B2621C022343EA021242F444
:101AC0004071204A5068FEF7DCFB00BF9DF80C0017
:101AD00004286AD19DF80D00C0BB002000900021B1
:101AE000029800F0FE00C0EB0010174A02EB8000E5
:101AF00080F8321009210298B1EB102F54D16946B9
:101B0000B7EE000A0DF10F0007F0A9F90298C0B274
:101B1000C0EB00100C4901EB800090F8380000EE9B
:101B2000900AF8EE600A80EE201ABDEEC10A0EE0BF
:101B30000430002000000843182D0020D83D00206C
:101B40000000B44304000020D82E00202DE010EE49
:101B5000100A029901F0FE01C1EB0111234A02EBC8
:101B6000810188616946B2EE040A0DF10F0007F0A9
:101B700086F9029800F0FE00C0EB00101B4901EB53
:101B8000800080ED050A69469FED190A0DF10F00EE
:101B900007F075F9029800F0FE00C0EB0010134941
:101BA00001EB800080ED080A00BF00BF06B010BD49
:101BB00030B585B0054600210E4808F083FA10B90B
:101BC000002005B030BD6A4600210B4808F0F7F947
:101BD000002404E00DF10B00005D2855641C9DF805
:101BE0000A00A042F6D89DF80A00EAE7D82E0020A5
:101BF00000007A44006400400068004042E0012098
:101C0000B7EE000A07F046FE0220B0EE000A07F029
:101C100041FE0320B0EE080A07F03CFE04209FEDD1
:101C2000800A07F037FE0520B1EE040A07F032FE05
:101C30000620B1EE080A07F02DFE0720B1EE0C0ACF
:101C400007F028FE0820B2EE000A07F023FE092064
:101C5000B2EE020A07F01EFE7249096800EE901A01
:101C6000F8EE600AB0EE600A0A2007F013FE0A20C0
:101C700007F061FE01466C4800F04FF94FF4967092
:101C80000CF07AFBBBE705E003F0D0FD40F24C40DE
:101C90000CF072FBF8E706E0012005F03BFB4FF487
:101CA0007A700CF069FBF7E725E001241DE00121C3
:101CB000204606F032FC0121204606F0B1FB01214E
:101CC000204606F027FB0121204606F0A5FA012157
:101CD000204606F023FA0121204606F0A1F9012151
:101CE000204606F097FC601CC4B2052CDFDB4FF4E5
:101CF0007A700CF041FBD8E706E0012005F001F80E
:101D00004FF496600CF038FBF7E707E007F051FA64
:101D100007F0BDF94FF496700CF02EFBF6E705E0E6
:101D200001F0D5F940F6B8300CF026FBF8E770B5B5
:101D30000446002500BF022006F0AAFF002007F09D
:101D40008DFA01F0C4F90CF056FD0CF0EBFB0546E2
:101D50000D23364A002136480BF0C8FF1E23354AB2
:101D6000002135480BF0C2FF0A23344A00213448D1
:101D70000BF0BCFF0F23334A002133480BF0B6FFB2
:101D80001023324A002132480BF0B0FF0923314AB8
:101D9000002131480BF0AAFF0E23304A00213048C1
:101DA0000BF0A4FF05200CF01FFA28460CF0BEFB38
:101DB00070BD08B54FF4FA6007F071F80AF004FA44
:101DC0004FF4A06007F004FE06F048FF07F05FF94B
:101DD00007F024FA00F0DAF800F048F807F082F88B
:101DE00007F0C6F900200323082219460090FFF7E8
:101DF0003FF8FEF757FD06F077FEFEF773FAFEF7A1
:101E00002DFCFEF7E0F90AF0C3FB0523154A00217B
:101E100015480BF06BFF0AF0E2FC002008BD000043
:101E20000000C84324040040085D00201C1000206E
:101E30001F1D00081C1200200B1D00081C1A00208A
:101E4000F91C00081C1E0020A91C00081C220020F0
:101E5000971C00081C160020871C00081C26002068
:101E6000FD1B00081C0800202F1D00081CB5404861
:101E7000006840F010003E4908603D481438006892
:101E800040F480003A4914390860012002210023FF
:101E90000A46CDE900104FF4C061364807F086FBD2
:101EA00007220921334807F061FB07220A21314844
:101EB00007F05CFB40F2D9202F4908814FF40370F2
:101EC00088810846008820F020000880032325220E
:101ED0000121062007F0BCFA4FF48070274B264AF8
:101EE000121D04210090264807F0F6F90122102166
:101EF000234808F03EFC032346220021072007F078
:101F0000A7FA1D48808A40F080001B498882084655
:101F1000808940F4005088811CBD70B504460D4690
:101F20001848807A78B92A46214614480CF096FC65
:101F30002946134808F0B1FB0121114808F08CFB39
:101F400001201049887270BD10B50F490C4808F087
:101F50002DFC01280AD10C49094808F0F6FB0A4972
:101F6000074808F04DFC00200649887210BD0000AB
:101F70004438024000000240001001404E010020A1
:101F8000B8640240CE030020008000281CB5F4484D
:101F9000006840F40030F2490860F14810380068E9
:101FA00040F40010EE49103908600120022100239E
:101FB0000A46CDE900100C21EA4807F0F7FA07229B
:101FC0000221E84807F0D2FA07220321E54807F08A
:101FD000CDFA4FF4B670E44908800C20091D088042
:101FE000E1480838008820F02000DF4908390880DF
:101FF000DD48001D008840F02000DB49091D0880F5
:10200000032326220121042007F022FA4FF48070D6
:10201000D64BD54A121F04210090D54807F05CF931
:1020200001221021D24808F0A4FB03231122012130
:10203000072007F00DFACC480C30008840F08000F3
:10204000C9490C310880C848001D008840F4005080
:10205000C549091D08801CBD10B5C649C44808F013
:10206000A5FB01280AD1C349C14808F06EFBC1494C
:10207000BF4808F0C5FB0020BF49C87210BD10B5AD
:102080002DED028B002440F22531B748083809F0C5
:10209000E6FF58B1B448083809F01FFF0020B749DF
:1020A00008702021B6480CF0F2FBF8E340F225510D
:1020B000AD48083809F0D3FF0028F6D02021AA48FF
:1020C000083809F0C3FF40F22551A748083809F045
:1020D000FDFFA548083809F000FFC4B2A748007802
:1020E00000F0400008B3A548007800F0800020BB55
:1020F000FF2C06D1A148007840F080009F4908706D
:102100001BE09E48007800F03F019D4844549B48E6
:102110000078401C994908700846007800F03F009C
:1021200028280ADD0020087007E0EE2C05D193482E
:10213000007840F04000914908709048007800F025
:1021400080000028B1D08F4890F82102012804D1E6
:102150008C4890F823028C4908708A4890F8230232
:10216000092872D2DFE800F005232425F1FA71F97D
:10217000F800844890F82502082815D1012080F342
:10218000138800BF00BFBFF34F8F8048006800F482
:10219000E0607F490843001D7C490860BFF34F8F12
:1021A00000BF00BF00BFFDE700BF00BFF0E3FDE7D9
:1021B000FCE7744890F82502C01E0B2844D2DFE8E3
:1021C00000F006C2C2454F66C2C2C2727E006C48B1
:1021D000C01D0DF029F8B0EE408AF0EE608A51EC97
:1021E000180B0CF06FFB6B4988606548C01D0DF043
:1021F0001BF8B0EE408AF0EE608A51EC180B0CF040
:1022000061FB0146634841645D48C01D0DF00CF858
:10221000B0EE408AF0EE608A51EC180B0CF052FBE5
:1022200001465C48C0F880105548C01D0CF0FCFF0A
:10223000B0EE408AF0EE608A51EC180B0CF042FBD5
:1022400001465448C0F8BC107DE0B5E30120514977
:10225000087081F83C0081F8780081F8B40072E0E1
:1022600002204C49887002214A4880F83E1080F8CC
:102270007A1080F8B610012046494870012145487F
:1022800080F83D1080F8791080F8B5105BE00320ED
:102290004049887003213F4880F83E1080F87A104A
:1022A00080F8B6104FE000203A49487000213948C4
:1022B00080F83D1080F8791080F8B51043E0304880
:1022C000C01D0CF0B1FFB0EE408AF0EE608A51EC18
:1022D000180B0CF02FFB00EE100A2E4880ED040ABC
:1022E0002748C01D0CF0A0FFB0EE408AF0EE608AD7
:1022F00051EC180B0CF01EFB00EE100A254880ED87
:10230000130A1F48C01D0CF08FFFB0EE408AF0EE9C
:10231000608A51EC180B0CF00DFB00EE100A1D4802
:1023200080ED220A1648C01D0CF07EFFB0EE408AF8
:10233000F0EE608A51EC180B0CF0FCFA00EE100A7B
:10234000144880ED310A00BF00BF0E4890F8250206
:10235000C01E1A287BD21FE0F9E32EE39AE10000A9
:102360004038024000000240084400406E02002055
:10237000A060024000802020CE0300202B0000201F
:102380006E0300204E0100202A0000200CED00E02A
:102390000000FA05D82E0020DFE800F00D1B2939D7
:1023A000495A69798999A8B8C859D8F3F1F0EFEE7C
:1023B000EDECEBEAE9E8002008E0002100EB001278
:1023C00002EB4202F54B03F82210401C0828F4DB14
:1023D0005EE1F3480CF028FFB0EE408AF0EE608A30
:1023E00051EC180B0CF08DFAEC49887050E1EC4878
:1023F0000CF01AFFB0EE408AF0EE608A51EC180B38
:102400000CF07FFAC1B2E54880F8CE1040E1E44814
:102410000CF00AFFB0EE408AF0EE608A51EC180B27
:102420000CF06FFAC1B2DD4880F89A1130E1DC4857
:102430000CF0FAFEB0EE408AF0EE608A51EC180B18
:102440000CF05FFAC1B2D54880F8661220E11EE1B7
:10245000D3480CF0E9FEB0EE408AF0EE608A51EC11
:10246000180B0CF02FFA01B2CC48018110E1CC48D6
:102470000CF0DAFEB0EE408AF0EE608A51EC180BF8
:102480000CF020FA01B2C548A0F8D41000E1C4480D
:102490000CF0CAFEB0EE408AF0EE608A51EC180BE8
:1024A0000CF010FA01B2BD48A0F8A011F0E0BC4851
:1024B0000CF0BAFEB0EE408AF0EE608A51EC180BD8
:1024C0000CF000FA01B2B548A0F86C12E0E0B44894
:1024D0000CF0AAFEB0EE408AF0EE608A51EC180BC8
:1024E0000CF0F0F900B2AD498880D1E0AC480CF0B6
:1024F0009BFEB0EE408AF0EE608A51EC180B0CF0B7
:10250000E1F901B2A548A0F8D010C1E0A4480CF050
:102510008BFEB0EE408AF0EE608A51EC180B0CF0A6
:10252000D1F901B29D48A0F89C11B1E09C480CF093
:102530007BFEB0EE408AF0EE608A51EC180B0CF096
:10254000C1F901B29548A0F86812A1E094480CF0D6
:102550006BFEB0EE408AF0EE608A51EC180B0CF086
:10256000D0F981B28D48A0F8961091E084E078E02F
:102570006CE061E055E049E03DE032E021E010E050
:10258000FFE787480CF050FEB0EE408AF0EE608A1C
:1025900051EC180B0CF0B5F981B28048A0F862112B
:1025A00076E07F480CF040FEB0EE408AF0EE608AA4
:1025B00051EC180B0CF0A5F981B27848A0F82E1256
:1025C00066E077480CF030FEB0EE408AF0EE608AAC
:1025D00051EC180B0CF095F981B27048A0F8FA1282
:1025E00056E0704890F8280208B1012000E0002071
:1025F0006A4908704CE06B4890F8280208B1012045
:1026000000E00020654981F8CC0041E0654890F881
:10261000280208B1012000E00020604981F89801FB
:1026200036E0604890F8280208B1012000E0002060
:102630005A4981F864022BE05A4890F8280208B100
:10264000012000E000205549487021E0554890F8ED
:10265000280208B1012100E00021504880F8CD1087
:1026600016E0504890F8280208B1012100E000214E
:102670004A4880F899110BE04A4890F8280208B1BE
:10268000012100E00021454880F8651200E000BF0C
:1026900000BF8BE5434890F82502C01E1A287CD263
:1026A000DFE800F00D1B2B3B4B5B6B8292A2B2C2AA
:1026B000D27BE2FEFBFAF9F8F7F6F5F4F3F200202C
:1026C00008E0002100EB001202EB4202334B03F85A
:1026D0002210401C0828F4DB6CE131480CF0A4FD0A
:1026E000B0EE408AF0EE608A51EC180B0CF009F95C
:1026F000C1B22A4880F832135CE129480CF094FDFD
:10270000B0EE408AF0EE608A51EC180B0CF0F9F84C
:10271000C1B2224880F8FE134CE121480CF084FD40
:10272000B0EE408AF0EE608A51EC180B0CF0E9F83C
:10273000C1B21A4880F8CA143CE119480CF074FD83
:10274000B0EE408AF0EE608A51EC180B0CF0D9F82C
:10275000C1B2124880F896152CE111480CF064FDC6
:10276000B0EE408AF0EE608A51EC180B0CF0AAF83B
:1027700001B20A48A0F838131CE109480CF054FDD6
:10278000B0EE408AF0EE608A51EC180B0CF09AF82B
:1027900001B20248A0F804140CE10AE18C260020E2
:1027A000750300204E010020FD480CF03DFDB0EE09
:1027B000408AF0EE608A51EC180B0CF083F801B2FD
:1027C000F848A0F8D014F5E0F5480CF02DFDB0EE77
:1027D000408AF0EE608A51EC180B0CF073F801B2ED
:1027E000F048A0F89C15E5E0ED480CF01DFDB0EEBA
:1027F000408AF0EE608A51EC180B0CF063F801B2DD
:10280000E848A0F83413D5E0E5480CF00DFDB0EE33
:10281000408AF0EE608A51EC180B0CF053F801B2CC
:10282000E048A0F80014C5E0DD480CF0FDFCB0EE77
:10283000408AF0EE608A51EC180B0CF043F801B2BC
:10284000D848A0F8CC14B5E0D5480CF0EDFCB0EEBB
:10285000408AF0EE608A51EC180B0CF033F801B2AC
:10286000D048A0F89815A5E0CD480CF0DDFCB0EEFE
:10287000408AF0EE608A51EC180B0CF042F881B2FD
:10288000C848A0F8C61395E088E07BE06FE063E0FD
:1028900057E04BE03FE033E022E011E000E0FDE3F1
:1028A000BF480CF0C1FCB0EE408AF0EE608A51ECFB
:1028B000180B0CF026F881B2BA48A0F8921479E00F
:1028C000B7480CF0B1FCB0EE408AF0EE608A51ECF3
:1028D000180B0CF016F881B2B248A0F85E1569E04A
:1028E000AF480CF0A1FCB0EE408AF0EE608A51ECEB
:1028F000180B0CF006F881B2AA48A0F82A1659E085
:10290000A94890F8280208B1012000E00020A5495C
:1029100081F830034EE0A44890F8280208B1012065
:1029200000E000209F4981F8FC0343E09E4890F8B6
:10293000280208B1012000E000209A4981F8C8046B
:1029400038E0994890F8280208B1012000E0002002
:10295000944981F894052DE0934890F8280208B135
:10296000012100E000218F4880F8311322E08E48D9
:1029700090F8280208B1012100E00021894880F880
:10298000FD1317E0884890F8280210B1012101E0FA
:102990007FE30021834880F8C9140BE0824890F857
:1029A000280208B1012100E000217E4880F8951539
:1029B00000E000BF00BF6CE300BF7B4890F8250239
:1029C000C01E0B2817D2DFE800F006171628394A78
:1029D0005F749AC3F8000121084605F046F801210A
:1029E000022005F042F80121032005F03EF8012104
:1029F000042005F03AF8F1E00121084604F08DFECC
:102A00000121022004F089FE0121032004F085FE4B
:102A10000121042004F081FEE0E00121084604F0D9
:102A2000FCFD0121022004F0F8FD0121032004F047
:102A3000F4FD0121042004F0F0FDCFE0012108465F
:102A400004F067FF0121022004F063FF012103204D
:102A500004F05FFF0121042004F05BFFBEE00122CF
:102A60000321104604F05BFD01220321022004F043
:102A700056FD01220321084604F051FD01220321E5
:102A8000042004F04CFDA9E001221146104604F098
:102A900046FD01221146022004F041FD01221146AB
:102AA000032004F03CFD01221146042004F037FD10
:102AB00094E03B480CF0B8FBB0EE408AF0EE608A40
:102AC00051EC180B0BF0FEFE384908600122084655
:102AD0000168104605F0C1F901223448016802205E
:102AE00005F0BBF9012231480168032005F0B5F972
:102AF00001222E480168042005F0AFF96EE0284855
:102B00000CF092FBB0EE408AF0EE608A51EC180BAC
:102B10000BF0D8FE264908600122084601681046DD
:102B200005F009FA0122224800684142022005F01E
:102B300002FA01221E4800684142032005F0FBF919
:102B400001221B480168042005F0F5F946E047E042
:102B500013480CF069FBB0EE408AF0EE608A51EC4D
:102B6000180B0BF0AFFE13490860012208460168FC
:102B7000104604F0F8FF01220E480068414202208E
:102B800004F0F1FF01220B4800684142032004F0E9
:102B9000EAFF012207480168042004F0E4FF1DE079
:102BA000750300208C2600204E0100209400002098
:102BB000900000208C000020FFE70121084605F06E
:102BC000CBF80121022005F0C7F80121032005F010
:102BD000C3F80121042005F0BFF800BF00BF00BF0B
:102BE000F84890F825021A2821D2DFE800F0200DDD
:102BF00021374D6393C5EFEEEDECEBEAE9E8E7E64C
:102C0000E5E4E3E2E1E0DFDEEF480CF00DFBB0EEDF
:102C1000408AF0EE608A51EC180B0BF072FEEB4923
:102C20000870084601780122104602F060FF2FE28A
:102C3000E5480CF0F9FAB0EE408AF0EE608A51EC0B
:102C4000180B0BF05EFEE14981F85400084690F83D
:102C500054100122022002F04AFF19E2DA480CF077
:102C6000E3FAB0EE408AF0EE608A51EC180B0BF0FC
:102C700048FED64981F8A800084690F8A81001221D
:102C8000032002F034FF03E2CF480CF0CDFAB0EE9F
:102C9000408AF0EE608A51EC180B0BF032FECB4903
:102CA00081F8FC00084690F8FC100122042002F094
:102CB0001EFFEDE1C5480078022813D1C2480CF090
:102CC000B3FAB0EE408AF0EE608A51EC180B0BF0CC
:102CD000F9FDBF490860012208460168104603F06B
:102CE00060FA16E0B9480078052812D1B6480CF011
:102CF0009BFAB0EE408AF0EE608A51EC180B0BF0B4
:102D0000E1FDB4490860012208460168104603F05D
:102D1000D6F8BDE1AD4890F85400022813D1AA4876
:102D20000CF082FAB0EE408AF0EE608A51EC180B9B
:102D30000BF0C8FDA6490860012208460168022080
:102D400003F02FFA17E0A14890F85400052812D19B
:102D50009D480CF069FAB0EE408AF0EE608A51ECC2
:102D6000180B0BF0AFFD9B49086001220846016873
:102D7000022003F0A4F88BE1944890F8A800022800
:102D800025D191480CF050FAB0EE408AF0EE608AFE
:102D900051EC180B0BF096FD8D4908600122084696
:102DA0000168032003F0FDF929E060E155E159E1F4
:102DB00049E1F7E04CE135E123E111E1DEE0C9E072
:102DC000B4E09FE08AE075E060E04BE018E07F4807
:102DD00090F8A800052812D17B480CF025FAB0EE37
:102DE000408AF0EE608A51EC180B0BF06BFD7949CC
:102DF0000860012208460168032003F060F847E1FB
:102E0000724890F8FC00022813D16F480CF00CFABD
:102E1000B0EE408AF0EE608A51EC180B0BF052FDD8
:102E20006B490860012208460168042003F0B9F9E3
:102E300017E0664890F8FC00052812D162480CF0B3
:102E4000F3F9B0EE408AF0EE608A51EC180B0BF00B
:102E500039FD60490860012208460168042003F03A
:102E60002EF815E158480CF0DFF9B0EE408AF0EE8C
:102E7000608A51EC180B0BF025FD574908600122C0
:102E800008460168104603F099F801E14E480CF03D
:102E9000CBF9B0EE408AF0EE608A51EC180B0BF0E3
:102EA00011FD4D490860012208460168022003F027
:102EB00085F8EDE044480CF0B7F9B0EE408AF0EE4A
:102EC000608A51EC180B0BF0FDFC434908600122AD
:102ED00008460168032003F071F8D9E03A480CF085
:102EE000A3F9B0EE408AF0EE608A51EC180B0BF0BB
:102EF000E9FC3A490860012237480168042003F0E0
:102F00005DF8C5E030480CF08FF9B0EE408AF0EE85
:102F1000608A51EC180B0BF0D5FC30490860012297
:102F200008460168104603F0C8F8B1E026480CF0E6
:102F30007BF9B0EE408AF0EE608A51EC180B0BF092
:102F4000C1FC26490860012208460168022003F0FE
:102F5000B4F89DE01C480CF067F9B0EE408AF0EE42
:102F6000608A51EC180B0BF0ADFC1C490860012283
:102F700008460168032003F0A0F889E012480CF02D
:102F800053F9B0EE408AF0EE608A51EC180B0BF06A
:102F900099FC12490860012208460168042003F0E8
:102FA0008CF875E0074890F8280208B1012000E08D
:102FB000002006494870084641780122104602F078
:102FC00074FE65E04E01002075030020182D0020DE
:102FD00064000020580000206000002068000020ED
:102FE000FE4890F8280208B1012100E00021FC48C9
:102FF00080F8551090F855100122022002F055FE7D
:1030000046E0F64890F8280208B1012100E00021CE
:10301000F34880F8A91090F8A9100122032002F0CB
:1030200044FE35E0ED4890F8280208B1012100E0A7
:103030000021EB4880F8FD1090F8FD1001220420DB
:1030400002F033FE24E00121084602F057FE1FE0A3
:103050000121022002F052FE1AE00121032002F0B9
:103060004DFE15E00121042002F048FE10E0012190
:10307000084602F0BFFE0121022002F0BBFE012142
:10308000032002F0B7FE0121042002F0B3FE00BFCE
:1030900000BF00BF0020D349087000E003E02021FA
:1030A000D1480BF0F4FBBDEC028B10BD10B504460B
:1030B000CE48C07A50B92146CD4807F0EEFA01213A
:1030C000CB4807F0C9FA0120C849C87210BD10B535
:1030D0000024EE222146641CC6484254B1222146F7
:1030E000641C425410222146641C42540022214692
:1030F000641C42542146641C42542146641C4254C0
:1031000005222146641C425401222046611CCCB297
:10311000B8490A54FF222046611CCCB2B5490A5472
:10312000FC222046611CCCB2B2490A54FF22204640
:10313000611CCCB2AF490A542046611CCCB2AD49E7
:103140000A54AD480078062881F0B480DFE810F01A
:10315000B2080600080009000A005E0401F0ABB8DE
:10316000FCE7FBE7EE222046611CCCB2A1490A54E1
:10317000B1222046611CCCB29E490A54122220463C
:10318000611CCCB29B490A5400222046611CCCB27F
:1031900098490A5404222046611CCCB295490A542D
:1031A0009648807800287CD000222046611CCCB252
:1031B00090490A5404222046611CCCB28D490A541D
:1031C00000222046611CCCB28A490A548B4882787E
:1031D0008BA18C480CF012F88A480BF063FBC2B24A
:1031E0002046611CCCB283490A54081985490BF06A
:1031F00060FB84480BF056FB2044C4B200222046FA
:10320000611CCCB27B490A5408222046611CCCB216
:1032100078490A5400222046611CCCB275490A54F0
:103220007648B0F9182076A176480BF0E7FF75488C
:103230000BF038FBC2B22046611CCCB26D490A5477
:10324000081970490BF035FB6E480BF02BFB20443E
:10325000C4B200222046611CCCB266490A540C223A
:103260002046611CCCB263490A5400222046611CEE
:10327000CCB260490A546148B0F9142060A1614899
:103280000BF0BCFF5F480BF00DFBC2B22046611C87
:10329000CCB258490A5408195A490BF00AFB59484C
:1032A00000E06CE00BF0FEFA2044C4B2002220469D
:1032B000611CCCB24F490A5411222046611CCCB289
:1032C0004C490A5400222046611CCCB249490A5498
:1032D0004A48B0F896204AA14A480BF08FFF494867
:1032E0000BF0E0FAC2B22046611CCCB241490A544C
:1032F000081944490BF0DDFA42480BF0D3FA204498
:10330000C4B200222046611CCCB23A490A541522AC
:103310002046611CCCB237490A5400222046611C69
:10332000CCB234490A5401222046611CCCB2314946
:103330000A54324802782046611CCCB22D490A5406
:1033400000222046611CCCB22A490A541922204688
:10335000611CCCB227490A5400222046611CCCB221
:1033600024490A5401222046611CCCB221490A5446
:10337000224842782046611CCCB21E490A541F489C
:1033800090F8CE0000287DD000222046611CCCB2EF
:1033900018490A5405222046611CCCB215490A542A
:1033A00000222046611CCCB212490A54134890F8FE
:1033B000CE2013A113480BF021FF12480BF072FA34
:1033C000C2B22046611CCCB20A490A5408190D4900
:1033D0000BF06FFA0B480BF065FA15E04E01002078
:1033E000182D00202B0000206E030020CE030020AB
:1033F000A06002406E0200202A0000208C260020DF
:1034000025640000202600202044C4B2002220466B
:10341000611CCCB2FE490A5409222046611CCCB280
:10342000FB490A5400222046611CCCB2F8490A54D8
:10343000F848B0F9E420AFF23801F7480BF0DEFEAF
:10344000F5480BF02FFAC2B22046611CCCB2F0490D
:103450000A540819F0490BF02CFAEF480BF022FA45
:103460002044C4B200222046611CCCB2E8490A5470
:103470000D222046611CCCB2E5490A5400222046A8
:10348000611C00E088E0CCB2E1490A54E148B0F99F
:10349000E020AFF29401E0480BF0B0FEDE480BF004
:1034A00001FAC2B22046611CCCB2D9490A540819AB
:1034B000D9490BF0FEF9D8480BF0F4F92044C4B216
:1034C00000222046611CCCB2D1490A541222204667
:1034D000611CCCB2CE490A5400222046611CCCB2F9
:1034E000CB490A54CB48B0F86221AFF2EC01CA488C
:1034F0000BF084FEC8480BF0D5F9C2B22046611C1F
:10350000CCB2C3490A540819C3490BF0D2F9C248D6
:103510000BF0C8F92044C4B200222046611CCCB292
:10352000BB490A5416222046611CCCB2B8490A5441
:1035300000222046611CCCB2B5490A540122204623
:10354000611CCCB2B2490A54B24890F8CC20204653
:10355000611CCCB2AE490A5400222046611CCCB298
:10356000AB490A541A222046611CCCB2A8490A541D
:1035700000222046611CCCB2A5490A5401222046F3
:10358000611CCCB2A2490A54A24890F8CD20204632
:10359000611CCCB29E490A549E4890F89A010028BA
:1035A0007DD000222046611CCCB299490A540622E3
:1035B0002046611CCCB296490A5400222046611C68
:1035C000CCB293490A54934890F89A21AFF2D011A3
:1035D00091480BF013FE90480BF064F9C2B22046FC
:1035E000611CCCB28A490A5408198B490BF061F965
:1035F00089480BF057F92044C4B200222046611CD0
:10360000CCB283490A540A222046611CCCB28049BC
:103610000A5400222046611CCCB27D490A547D48E0
:10362000B0F9B021AFF228217B480BF0E7FD7A48D2
:103630000BF038F9C2B22046611CCCB274490A546E
:10364000081975490BF035F973480BF02BF9204434
:10365000C4B200222046611CCCB26D490A540E222D
:103660002046611CCCB26A490A5400222046611CE3
:10367000CCB267490A546748B0F9AC21AFF2802157
:1036800065480BF0BBFD64480BF00CF9C2B2204654
:10369000611CCCB25E490A5408195F4900E072E02F
:1036A0000BF007F95C480BF0FDF82044C4B200228F
:1036B0002046611CCCB256490A5413222046611C94
:1036C000CCB253490A5400222046611CCCB2504966
:1036D0000A545048B0F82E22AFF2DC214E480BF0CD
:1036E0008DFD4D480BF0DEF8C2B22046611CCCB215
:1036F00047490A54081948490BF0DBF846480BF0D3
:10370000D1F82044C4B200222046611CCCB240490A
:103710000A5417222046611CCCB23D490A540022AB
:103720002046611CCCB23A490A5401222046611C51
:10373000CCB237490A54374890F898212046611C8A
:10374000CCB233490A5400222046611CCCB2304925
:103750000A541B222046611CCCB22D490A54002277
:103760002046611CCCB22A490A5401222046611C21
:10377000CCB227490A54274890F899212046611C69
:10378000CCB223490A54234890F8660200287DD021
:1037900000222046611CCCB21D490A540722204653
:1037A000611CCCB21A490A5400222046611CCCB2DA
:1037B00017490A54174890F86622AFF2BC311648F0
:1037C0000BF01CFD14480BF06DF8C2B22046611CD2
:1037D000CCB20F490A5408190F490BF06AF80E4889
:1037E0000BF060F82044C4B200222046611CCCB229
:1037F00007490A540B222046611CCCB204490A54E2
:1038000000222046611CCCB201490A54014805E05F
:103810006E0200208C26002020260020B0F97C2299
:10382000AFF22441FE480BF0E9FCFD480BF03AF8FA
:10383000C2B22046611CCCB2FA490A540819F849B0
:103840000BF037F8F6480BF02DF82044C4B20022F4
:103850002046611CCCB2F3490A540F222046611C59
:10386000CCB2F0490A5400222046611CCCB2ED498A
:103870000A54ED48B0F97822AFF27C41E8480BF0E9
:10388000BDFCE7480BF00EF8C2B200E079E020463C
:10389000611CCCB2E3490A540819E1490BF009F85C
:1038A000DF480AF0FFFF2044C4B200222046611C1A
:1038B000CCB2DC490A5414222046611CCCB2D9494E
:1038C0000A5400222046611CCCB2D6490A54D6487C
:1038D000B0F8FA22AFF2D841D1480BF08FFCD048B3
:1038E0000AF0E0FFC2B22046611CCCB2CD490A54B6
:1038F0000819CB490AF0DDFFC9480AF0D3FF20447C
:10390000C4B200222046611CCCB2C6490A54182217
:103910002046611CCCB2C3490A5400222046611CD7
:10392000CCB2C0490A5401222046611CCCB2BD4928
:103930000A54BD4890F864222046611CCCB2B949B3
:103940000A5400222046611CCCB2B6490A541C22FB
:103950002046611CCCB2B3490A5400222046611CA7
:10396000CCB2B0490A5401222046611CCCB2AD4908
:103970000A54AD4890F865222046611CCCB2A94992
:103980000A5400222046611CCCB2A6490A541022D7
:103990002046611CCCB2A3490A5400222046611C77
:1039A000CCB2A0490A54A148406840680288A0A14E
:1039B0009B480BF023FC9A480AF074FFC2B22146E0
:1039C000601CC4B2974842540146081994490AF051
:1039D00070FF93480AF066FF2044C4B2FF222046DD
:1039E000611CCCB28F490A54FC222046611CCCB227
:1039F0008C490A54FF222046611CCCB289490A54E2
:103A00002046611CCCB287490A54FDE3EE222046D1
:103A1000611CCCB283490A54B1222046611CCCB24D
:103A200080490A5412222046611CCCB27D490A54B6
:103A300000222046611CCCB27A490A540522204655
:103A4000611CCCB277490A54774890F832030028B9
:103A50007DD000222046611CCCB272490A54042257
:103A60002046611CCCB26F490A5400222046611CDA
:103A7000CCB26C490A546C4890F83223AFF28061A2
:103A800067480BF0BBFB66480AF00CFFC2B2204649
:103A9000611CCCB263490A54081961490AF009FF54
:103AA0005F480AF0FFFE2044C4B200222046611C99
:103AB000CCB25C490A5408222046611CCCB2594958
:103AC0000A5400222046611CCCB256490A5456487A
:103AD000B0F94823AFF2D86151480BF08FFB504842
:103AE0000AF0E0FEC2B22046611CCCB24D490A5435
:103AF00008194B490AF0DDFE49480AF0D3FE20447C
:103B0000C4B200222046611CCCB246490A540C22A1
:103B10002046611CCCB243490A5400222046611C55
:103B2000CCB240490A544048B0F94423AFF2307156
:103B30003B480BF063FB3A480AF0B4FEC2B22046A1
:103B4000611CCCB237490A540819354900E07DE0C0
:103B50000AF0AFFE32480AF0A5FE2044C4B20022AB
:103B60002046611CCCB22F490A5411222146601C08
:103B7000C4B22C48425400222046611CCCB22949D0
:103B80000A542948B0F8C623AFF28C7124480BF0D0
:103B900035FB23480AF086FEC2B22046611CCCB237
:103BA00020490A5408191E490AF083FE1C480AF0ED
:103BB00079FE2044C4B200222046611CCCB21949CF
:103BC0000A5415222046611CCCB216490A54002220
:103BD0002046611CCCB213490A5401222046611CC4
:103BE000CCB210490A54104890F830232046611C8A
:103BF000CCB20C490A5400222046611CCCB20949BF
:103C00000A5419222046611CCCB206490A540022EB
:103C10002046611CCCB203490A540122204609E027
:103C2000202600206E0200208C26002004000020A8
:103C300025780000611CCCB2FE490A54FE4890F879
:103C400031232046611CCCB2FA490A54FA4890F854
:103C5000FE0300287DD000222046611CCCB2F5492D
:103C60000A5405222046611CCCB2F2490A540022B3
:103C70002046611CCCB2EF490A54EF4890F8FE236D
:103C8000AFF68401ED480BF0B9FAEC480AF00AFEF1
:103C9000C2B22046611CCCB2E6490A540819E74971
:103CA0000AF007FEE5480AF0FDFD2044C4B20022F8
:103CB0002146601CC4B2DF48425409222046611CE0
:103CC000CCB2DC490A5400222046611CCCB2D9494E
:103CD0000A54D948B0F91424AFF6DC01D7480BF0E8
:103CE0008DFAD6480AF0DEFDC2B22046611CCCB285
:103CF000D0490A540819D1490AF0DBFDCF480AF02F
:103D0000D1FD2044C4B200222046611CCCB2C94976
:103D10000A540D222046611CCCB2C6490A54002226
:103D20002046611CCCB2C3490A54C348B0F91024E0
:103D3000AFF63411C1480BF061FAC0480AF0B2FD89
:103D4000C2B22046611CCCB2BA490A540819BB4918
:103D500000E072E00AF0ADFDB8480AF0A3FD20448F
:103D6000C4B200222046611CCCB2B2490A541222CD
:103D70002046611CCCB2AF490A5400222146601C87
:103D8000C4B2AC484254AC48B0F89224AFF690119B
:103D9000AA480BF033FAA9480AF084FDC2B22046C3
:103DA000611CCCB2A3490A540819A4490AF081FD48
:103DB000A2480AF077FD2044C4B200222046611CCC
:103DC000CCB29C490A5416222046611CCCB29949B7
:103DD0000A5400222046611CCCB296490A540122A2
:103DE0002046611CCCB293490A54934890F8FC23B6
:103DF0002046611CCCB28F490A5400222046611C27
:103E0000CCB28C490A541A222046611CCCB2894992
:103E10000A5400222046611CCCB286490A54012271
:103E20002046611CCCB283490A54834890F8FD2394
:103E30002046611CCCB27F490A547F4890F8CA04DE
:103E400000287DD000222046611CCCB279490A545A
:103E500006222046611CCCB276490A540022204634
:103E6000611CCCB273490A54734890F8CA24AFF667
:103E7000702172480BF0C2F970480AF013FDC2B20B
:103E80002046611CCCB26B490A5408196B490AF0F0
:103E900010FD6A480AF006FD2044C4B20022204604
:103EA000611CCCB263490A540A222046611CCCB280
:103EB00060490A5400222046611CCCB25D490A5474
:103EC0005D48B0F9E024AFF6C8215C480BF096F9E4
:103ED0005A480AF0E7FCC2B22046611CCCB25549F0
:103EE0000A54081955490AF0E4FC54480AF0DAFC6F
:103EF0002044C4B200222146601CC4B24D48425442
:103F00000E222046611CCCB24A490A5400222046A7
:103F1000611CCCB247490A544748B0F9DC24AFF6DB
:103F2000203146480BF06AF944480AF0BBFCC2B2A3
:103F30002046611CCCB23F490A5408193F4900E0B1
:103F400072E00AF0B6FC3D480AF0ACFC2044C4B272
:103F500000222046611CCCB236490A541322204666
:103F6000611CCCB233490A5400222046611CCCB2F9
:103F700030490A543048B0F85E25AFF67C312F48FE
:103F80000BF03CF92D480AF08DFCC2B22046611CB2
:103F9000CCB228490A54081928490AF08AFC274853
:103FA0000AF080FC2044C4B200222046611CCCB23E
:103FB00020490A5417222046611CCCB21D490A54DC
:103FC00000222046611CCCB21A490A540122204624
:103FD000611CCCB217490A54174890F8C8242046EF
:103FE000611CCCB213490A5400222046611CCCB299
:103FF00010490A541B222146601CC4B20D48425489
:1040000000222146601CC4B20A48425401222046C4
:10401000611CCCB207490A54074890F8C9242046CD
:10402000611CCCB203490A54034890F89605002855
:104030007ED005E06E0200208C2600202026002085
:1040400000222046611CCCB29D490A54072220461A
:10405000611CCCB29A490A5400222046611CCCB2A1
:1040600097490A54974890F89625AFF66C419648C0
:104070000BF0C4F894480AF015FCC2B22146601C4B
:10408000C4B28F484254014608198F490AF011FC06
:104090008D480AF007FC2044C4B200222146601C6F
:1040A000C4B2874842540B222046611CCCB28449DA
:1040B0000A5400222046611CCCB281490A5481482E
:1040C000B0F9AC25AFF6C8417F480BF097F87E48B1
:1040D0000AF0E8FBC2B22046611CCCB278490A540F
:1040E000081979490AF0E5FB77480AF0DBFB204420
:1040F000C4B200222046611CCCB271490A540F227E
:104100002146601CC4B26E48425400222046611C05
:10411000CCB26B490A546B48B0F9A825AFF62051D0
:1041200069480BF06BF868480AF0BCFBC2B200E0CB
:104130007BE02046611CCCB261490A5408196249EF
:104140000AF0B7FB60480AF0ADFB2044C4B200227D
:104150002046611CCCB25A490A5414222146601CE4
:10416000C4B25748425400222046611CCCB2544984
:104170000A545448B0F82A26AFF67C5152480BF046
:104180003DF851480AF08EFBC2B22046611CCCB209
:104190004B490A5408194C490AF08BFB4A480AF06B
:1041A00081FB2044C4B200222046611CCCB24449A9
:1041B0000A5418222046611CCCB241490A540022FC
:1041C0002046611CCCB23E490A5401222046611CA3
:1041D000CCB23B490A543B4890F894252146601CD8
:1041E000C4B23748425400222046611CCCB2344944
:1041F0000A541C222046611CCCB231490A540022C8
:104200002146601CC4B200E055E02D484254012212
:104210002046611CCCB22A490A542A4890F89525B8
:104220002146601CC4B22648425400222146601C2C
:10423000C4B22348425410222146601CC4B2204814
:10424000425400222146601CC4B21D4842541F48FB
:10425000406840680288AFF228611B480AF0CEFF30
:1042600019480AF01FFBC2B22046611CCCB21449A7
:104270000A54081914490AF01CFB13480AF012FBEF
:104280002044C4B2FF222146601CC4B20C484254F0
:10429000FC222046611CCCB209490A54FF22214667
:1042A000601CC4B2064842542046611CCCB204498A
:1042B0000A5400E000BF00BF2046FEF7F7FE10BD25
:1042C0006E0200208C260020202600200400002002
:1042D00000B597B00121042006F06AFD0121880491
:1042E00006F099FD0121480506F062FD07220A212A
:1042F000634806F0A2FB07220B21614806F09DFBF4
:104300004FF44060119002208DF8480000208DF895
:104310004A0003208DF8490000208DF84B0011A9B8
:10432000574806F0FFFA4FF4E13013900020ADF843
:104330005000ADF85200ADF85400ADF858000C2014
:10434000ADF8560013A94F4807F010FD012240F2C6
:1043500025514C4807F048FE27208DF840000420E6
:104360008DF8410000208DF8420001208DF84300B7
:1043700010A805F032FB444806F092F84FF00060B8
:1043800001900020059040200490404803903D4853
:10439000001D0290001507900020069009900890DB
:1043A0000A904FF440300B9000200C9001200D90AB
:1043B00000200F900E9001A9334806F013F93449FC
:1043C000314806F0C2F932492F4806F019FA0E209A
:1043D0008DF8400002208DF8410004208DF8420045
:1043E00001208DF8430010A805F0F7FA01221021F2
:1043F000254806F0BEF901228021224807F0EBFD96
:1044000017B000BD10B522491F4806F0CFF90128AA
:104410000AD11F491C4806F098F91D491A4806F0B0
:10442000EFF900201B49087310BD70B504460D4616
:104430001848007B78B92A46214614480AF00EFA3B
:104440002946114806F029F901210F4806F004F920
:1044500001201049087370BD10B540F2255109487C
:1044600007F0FDFD50B12021064807F0EFFD40F2B6
:104470002551044807F02AFE04F03CFC10BD000062
:104480000008024000480040586002408E030020AF
:1044900000800018CE030020002282610160C2610A
:1044A00000230362436280ED031A80ED010AC0ED30
:1044B000020AC0ED041A704701688269891AC16155
:1044C000C269016A511A00EE101AB8EEC00AD0EDA6
:1044D000010A20EE200A90ED021AC16900EE901A3E
:1044E000F8EEE00A01EE200AC269416A0A44016A54
:1044F000A2EB410100EE901AF8EEE00A90ED031AEB
:1045000001EE200ABDEEC00A10EE101A4161026AE7
:104510004262C269026270472DE9F04186B00446EA
:104520000D4616461F464FF0000800208DF80C007F
:104530008DF80D0008208DF80E0040F2FF18CDF820
:104540000480042000F0ECFF28B9200A8DF80F0049
:104550008DF8104005E000208DF80F0000218DF847
:104560001010052000F0DCFF28B9290A8DF8111081
:104570008DF8125004E000218DF811108DF8121002
:10458000062000F0CDFF28B9310A8DF813108DF800
:10459000146004E000218DF813108DF8141007202A
:1045A00000F0BEFF28B9390A8DF815108DF8167085
:1045B00004E000218DF815108DF8161001A9584857
:1045C00005F008FC06B0BDE8F0812DE9F04186B0A9
:1045D00004460D4616461F464FF0000800208DF891
:1045E0000C008DF80D0008208DF80E004FF40078B7
:1045F000CDF80480002000F093FF28B9200A8DF840
:104600000F008DF8104005E000208DF80F0000210C
:104610008DF81010012000F083FF28B9290A8DF8C9
:1046200011108DF8125004E000218DF811108DF852
:104630001210022000F074FF28B9310A8DF813100F
:104640008DF8146004E000218DF813108DF814101B
:10465000032000F065FF28B9390A8DF815108DF890
:10466000167004E000218DF815108DF8161001A9C0
:104670002B4805F0AFFB06B0BDE8F08100204BE011
:1046800000EB001101EB4101264A02EB8101B1F977
:104690000610002908DD00EB001101EB410102EBDF
:1046A0008101B1F9061009E000EB001101EB4101B5
:1046B0001C4A02EB8101B1F90610494200EB0012DD
:1046C00002EB4202174B03EB8202B2F8C420914284
:1046D00020DD00EB001101EB41011A4602EB8101E4
:1046E000B1F90610002902DA4FF0FF3100E0012194
:1046F00000EB001202EB42020A4B03EB8202B2F81B
:10470000C42051430AB200EB001101EB410103EB5D
:104710008101CA80411CC8B20828B1DB7047000083
:10472000006800408C26002010B54FF40050FE4970
:104730000880FE4908801320FB4988702420FB492B
:10474000887043F69910F849888042F22830F7497A
:1047500088809FEDF70AF44880ED020A9FEDF50A84
:10476000084680ED020A0020F34908709FEDF30A25
:10477000084680ED010A01200872C8204881012006
:1047800008734FF47A70C881400008820120887451
:10479000C8744FF4FA60EA49888300204860E94809
:1047A000E24B0ECB40300EC00020E6498039087045
:1047B000487005208870002088806421E148803896
:1047C00001813221C180C168DFEDDF1A9FEDDF1A60
:1047D000DFEDDF0AB0EE0C0A3C30FFF75DFED94892
:1047E0008038B0F90810F7EE001A9FEDDA1ADFED05
:1047F000DA0AB1EE040A6430FFF74EFE1422CE4905
:10480000D0480C300AF02AF8CE48CC30C74BD3E958
:1048100000219B68C0E9111302640020C949803956
:1048200081F8CC000021C748803880F8CD100521E0
:1048300080F8CE100021A0F8D0106421A0F8D41088
:104840003221A0F8D210C168DFEDBF1A9FEDBF1A68
:10485000DFEDBF0AB0EE0C0A00F58470FFF71CFE16
:10486000B8488038B0F90810F7EE001A9FEDB91A71
:10487000DFEDB90AB1EE040A00F59870FFF70CFEFF
:104880001422AD49AF48D83009F0E8FFB348A74932
:10489000D1E900238968C0E9102381640020A94977
:1048A000803981F898010021A648803880F8991154
:1048B000052180F89A110021A0F89C116421A0F82C
:1048C000A0113221A0F89E11C168DFED9F1A9FED63
:1048D0009F1ADFED9F0AB0EE0C0A00F5EA70FFF7B1
:1048E000DBFD98488038B0F90810F7EE001A9FED0C
:1048F000991ADFED990AB1EE040A00F5FE70FFF790
:10490000CBFD14228C4995480C3009F0A7FF934841
:10491000CC30864B0ECB40300EC000208949803908
:1049200081F8640200218748803880F865120521EB
:1049300080F866120021A0F868126421A0F86C12B9
:104940003221A0F86A12C168DFED7F1A9FED7F1A4D
:10495000DFED7F0AB0EE0C0A00F52870FFF79CFD32
:1049600078488038B0F90810F7EE001A9FED791AF0
:10497000DFED790AB1EE040A00F53270FFF78CFD25
:1049800014226D497548D83009F068FF7448664BA9
:10499000D3E900219B68C0E9111302640020694932
:1049A000803981F8300300216648803880F831135F
:1049B000052180F832134FF4E161A0F8341364212B
:1049C000A0F838133221A0F83613C168DFED5E1A63
:1049D0009FED5E1ADFED5F0AB2EE000A00F55B7034
:1049E000FFF75AFD57488038B0F90810F7EE001A63
:1049F0009FED561ADFED580AB2EE000A00F5657019
:104A0000FFF74AFD14224C4955480C3009F026FFA7
:104A10005348CC30444B0ECB40300EC000204949A7
:104A2000803981F8FC0300214648803880F8FD1366
:104A3000052180F8FE134FF4E161A0F80014642111
:104A4000A0F804143221A0F80214C168DFED3E1A68
:104A50009FED3E1ADFED3F0AB2EE000A00F58760D7
:104A6000FFF71AFD37488038B0F90810F7EE001A42
:104A70009FED361ADFED380AB2EE000A00F58C60C1
:104A8000FFF70AFD14222C493548D83009F0E6FE1C
:104A90003448254B0ECB40300EC0002029498039C8
:104AA00081F8C80400212748803880F8C9140521FE
:104AB00080F8CA144FF4E161A0F8CC146421A0F886
:104AC000D0143221A0F8CE14C168DFED1F1A9FED7B
:104AD0001F1ADFED200AB2EE000A00F20450FFF7C1
:104AE000DBFC18488038B0F90810F7EE001A9FED8B
:104AF000171ADFED190AB2EE000A00F22C50FFF788
:104B0000CBFC14220C4917480C3009F0A7FE1548BD
:104B1000CC30054B0ECB40300EC000200949803907
:104B200081F8940500211FE04C260020402600203B
:104B3000F6283C4077BEC340582600200000E144E0
:104B40006C2600200C270020CDCCCC3E00000000BD
:104B50008FC2F53DCDCC4C3E9A99993EA4280020B9
:104B60003C2A0020D42B0020F74880F89515052119
:104B700080F896154FF4E161A0F898156421A0F82B
:104B80009C153221A0F89A15C1685FED111A1FED2E
:104B9000111A5FED100AB2EE000A00F5BA60FFF7D5
:104BA0007BFCE948B0F90810F7EE001A1FED191A5E
:104BB0005FED170AB2EE000A00F5BF60FFF76CFC6C
:104BC0001422E249E24809F049FE0024BCE004EB6B
:104BD000041000EB4000DC4901EB8000DD4909686E
:104BE000C0F8A010DB48416804EB041000EB400063
:104BF000D54A02EB8000C0F8A41004EB041101EBCD
:104C0000410102EB810101F1A8000A22D1490831DA
:104C100009F024FECF48418A04EB041000EB400069
:104C2000C94A02EB8000A0F8B21004EB041000EBBC
:104C30004000114601EB8000A030C64B5A699969CB
:104C4000DB69C0E90613426104EB041000EB40008D
:104C5000BD4901EB8000D0ED240A04EB041000EB09
:104C6000400001EB800090F8C20000EE100AB8EEA0
:104C7000400A20EE800A04EB041000EB400001EB38
:104C80008000D0ED320A60EE200A04EB041000EB45
:104C9000400001EB8000B0F8C00000EE100AB8EE52
:104CA000400A20EE800ADFEDAC0A80EE201ABCEE4E
:104CB000C10A04EB041000EB400001EB800080ED22
:104CC000280A04EB041000EB400001EB8000B0F96F
:104CD000040000EE100AB8EEC00A04EB041000EB6A
:104CE000400001EB8000D0ED320A60EE200A04EBB8
:104CF000041000EB400001EB800090F8C20000EED1
:104D0000100AB8EE400A60EE800A04EB041000EBD3
:104D1000400001EB8000B0F8C00000EE100AB8EED1
:104D2000400A20EE800ADFED8C0A80EE201ABDEEEC
:104D3000C10A10EE100A04EB041101EB4101824A92
:104D400002EB8101C860641C082CFFF640AF002014
:104D50008249C870887048700871087010BD0022C0
:104D600039210A54C26100218182704710B504467E
:104D700004EB041000EB4000734901EB8000D0ED20
:104D80001D0A04EB041000EB400001EB8000B0F9B9
:104D9000080000EE100AB8EEC00A20EE800ABDEE50
:104DA000C00A10EE100A04EB041101EB4101664A3F
:104DB00002EB8101486604EB041000EB4000114651
:104DC00001EB8000B0F9181004EB041000EB400078
:104DD00002EB8000C16704EB041101EB410102EB1F
:104DE000810101F16400FFF767FB04EB041000EBA5
:104DF0004000554901EB8000C18804EB041000EB32
:104E00004000514A02EB8000806F084401B204EB7D
:104E1000041000EB400002EB8000C18010BD10B513
:104E2000044604EB041000EB4000474901EB80000E
:104E3000818804EB041000EB4000434A02EB800041
:104E400090F8C20011FB00F004EB041101EB4101EA
:104E500002EB8101B1F8C010484300EE100AB8EE31
:104E6000C00ADFED3D0A80EE201ABDEEC10A10EE49
:104E7000100A04EB041101EB410102EB8101C8604F
:104E800004EB041000EB4000114601EB8000C06809
:104E900004EB041101EB410102EB8101C86304EB57
:104EA000041000EB4000114601EB8000407870B91F
:104EB00004EB041000EB400001EB8000D0F8A400EC
:104EC00004EB041101EB410102EB8101C86304EB27
:104ED000041000EB40001C4901EB800090F88C00AE
:104EE00088B304EB041000EB400001EB8000C06BC2
:104EF000002807DD04EB041000EB400001EB80000C
:104F0000C06B08E004EB041000EB40000E4901EB1D
:104F10008000C06B404204EB041101EB41010A4ADE
:104F200002EB8101D1F8A01088422BD904EB0410C8
:104F300000EB4000114601EB8000C06B00280FDA47
:104F40004FF0FF300DE01DE08C2600205826002099
:104F5000AC2C00206C2600200000B4432C00002064
:104F6000012004EB041101EB4101FE4A02EB810137
:104F7000D1F8A010484304EB041101EB410102EB0E
:104F80008101C86304EB041000EB4000F54901EB1C
:104F90008000C16904EB041000EB4000F14A02EB11
:104FA0008000416504EB041101EB410102EB81013A
:104FB00001F13C00FFF780FA04EB041000EB400025
:104FC000E84901EB8000D0ED130A04EB041000EB7C
:104FD000400001EB8000006D00EE100AB8EEC00A40
:104FE00020EE800ABDEEC00A10EE100A04EB041198
:104FF00001EB4101DB4A02EB8101486604EB04103E
:1050000000EB4000114601EB800090F8940088B35B
:1050100004EB041000EB400001EB8000406E002820
:1050200007DD04EB041000EB400001EB8000406E54
:1050300008E004EB041000EB4000CA4901EB8000DB
:10504000406E404204EB041101EB4101C54A02EB02
:105050008101B1F8961088421FDD04EB041000EBCB
:105060004000114601EB8000406E002803DA4FF04B
:10507000FF3001E011E0012004EB041101EB4101DC
:10508000B84A02EB8101B1F89610484304EB0411D1
:1050900001EB410102EB8101486604EB041000EBD7
:1050A0004000B04901EB8000B0F9181004EB041087
:1050B00000EB4000AB4A02EB8000C16704EB041137
:1050C00001EB410102EB810101F16400FFF7F4F90A
:1050D00004EB041000EB4000A24901EB8000C18802
:1050E00004EB041000EB40009E4A02EB8000806F4E
:1050F000084401B204EB041000EB400002EB800016
:10510000C18004EB041000EB4000114601EB80006D
:10511000D0F8AC00002808DD04EB041000EB4000E0
:1051200001EB8000D0F8AC0009E004EB041000EBC8
:1051300040008C4901EB8000D0F8AC0040423C2894
:105140000ADA012004EB041101EB4101854A02EB6C
:10515000810181F8340009E0002004EB041101EB27
:105160004101804A02EB810181F8340010BD10B585
:10517000044604EB041000EB40007A4901EB800088
:10518000B0F99A0004EB041101EB4101754A02EBFE
:105190008101486604EB041000EB4000114601EB6E
:1051A0008000B0F9181004EB041000EB400002EB93
:1051B0008000C16704EB041101EB410102EB8101A6
:1051C00001F16400FFF778F904EB041000EB4000F4
:1051D000644901EB8000C18804EB041000EB40003F
:1051E000604A02EB8000806F084401B204EB0410B7
:1051F00000EB400002EB8000C18004EB041000EBE8
:105200004000114601EB8000B0F8A800F0B904EBB3
:10521000041000EB400001EB8000C06941F28831CE
:10522000884213DD04EB041000EB4000114601EB53
:105230008000B0F8B000401C81B204EB041000EB19
:10524000400002EB8000A0F8B01009E0002104EB60
:10525000041000EB4000434A02EB8000A0F8B010BD
:1052600004EB041000EB40003E4901EB8000B0F875
:10527000B000642829DD002104EB041000EB40009D
:10528000384A02EB8000A0F8B01004EB041000EBE9
:10529000400002EB8000C161052004EB041101EB2A
:1052A000410102EB81018870012104EB041000EB45
:1052B000400002EB800080F83510002004EB041160
:1052C00001EB410102EB8101888010BD10B5002384
:1052D00022E103EB031000EB4000224901EB8000C8
:1052E000018C03EB031000EB40001E4A02EB800030
:1052F000008E081A01B203EB031000EB400002EB32
:105300008000A0F8A81003EB031000EB400011464A
:1053100001EB8000808A03EB031101EB410102EBFA
:105320008101888403EB031000EB4000114601EB80
:105330008000C18A03EB031000EB400002EB800009
:10534000C18403EB031000EB4000114601EB800029
:10535000018B03EB031000EB400002EB80000185A2
:1053600002E000008C26002003EB031000EB40005D
:10537000114601EB8000C16903EB031000EB400014
:1053800002EB8000C16203EB031000EB400011460A
:1053900001EB8000018C03EB031000EB400002EBFB
:1053A0008000018603EB031000EB4000114601EB87
:1053B0008000418C03EB031000EB400002EB800007
:1053C000418603EB031000EB4000114601EB800027
:1053D000B0F9A800002808DD03EB031000EB400043
:1053E00001EB8000B0F9A80009E003EB031000EB2B
:1053F0004000FE4901EB8000B0F9A8004042B0F542
:105400007A6F2CDD03EB031000EB4000F74901EB52
:105410008000B0F9A81003EB031000EB4000F34A42
:1054200002EB8000B0F9A800002802DA4FF0FF304C
:1054300000E0012003EB031202EB4202EB4C04EB11
:105440008202B2F8C02000FB121001B203EB03107D
:1054500000EB4000224602EB8000A0F8A81003EB0E
:10546000031000EB4000E14901EB8000C16903EB50
:10547000031000EB4000DD4A02EB8000B0F9A80009
:10548000014403EB031000EB400002EB8000C1611C
:1054900003EB031000EB4000114601EB8000C168F4
:1054A00003EB031000EB400002EB8000C069091A17
:1054B00003EB031000EB400002EB8000C0F8AC10DF
:1054C00003EB031000EB4000114601EB8000407835
:1054D00070B103EB031000EB400001EB8000C169E9
:1054E00003EB031000EB400002EB8000C0F8A410B7
:1054F00003EB031000EB4000BC4901EB800090F887
:10550000390040B103EB031101EB4101B74A02EB53
:105510008100FFF724FC5B1C082BFFF6DAAE10BD00
:1055200010B5014601EB011000EB4000AF4B13F842
:10553000200008B9012010BDAD48807C002871D042
:1055400001EB011000EB4000A84B03EB80008078DA
:1055500002287DD101EB011000EB400003EB80003D
:10556000008B002874D001EB011000EB400003EB2E
:105570008000C06F002807DD01EB011000EB400048
:1055800003EB8000C06F08E001EB011000EB40006E
:10559000964B03EB8000C06F4042642802DA501C37
:1055A00082B200E00022B2F5967F0ADD012301EB12
:1055B000011000EB40008D4C04EB800080F8363089
:1055C00009E0002301EB011000EB4000874C04EBE5
:1055D000800080F8363001EB011000EB4000834B77
:1055E00003EB800090F83600012819D101EB01107F
:1055F00000EB400003EB8000B0F92200C8280FDB6D
:105600004FF480707B4B1883002301EB011000EBFB
:105610004000764C04EB8000038101208BE701E021
:10562000002088E701EB011000EB40006F4B03EB1B
:105630008000807805280BD101EB011000EB4000C1
:1056400003EB8000C36901EB011000EB400000E0B8
:105650008BE0664C04EB8000C06A181A002810DD4D
:1056600001EB011000EB4000234603EB8000C3690F
:1056700001EB011000EB400004EB8000C06A181A37
:1056800010E001EB011000EB4000584B03EB8000F1
:10569000C36A01EB011000EB4000544C04EB8000A6
:1056A000C069181A0A2860DA01EB011000EB40000B
:1056B0004E4B03EB8000C06F002807DD01EB0110AB
:1056C00000EB400003EB8000C06F08E001EB01102D
:1056D00000EB4000454B03EB8000C06F4042642864
:1056E00002DA501C82B202E00022012023E7B2F568
:1056F000967F0ADD012301EB011000EB40003B4CDB
:1057000004EB800080F8363009E0002301EB011043
:1057100000EB4000354C04EB800080F8363001EBA4
:10572000011000EB4000314B03EB800090F8360095
:10573000012818D101EB011000EB400003EB8000C1
:10574000B0F92200C8280EDB4FF48070294B188373
:10575000002301EB011000EB4000244C04EB80001F
:1057600003810120E7E60020E5E60020E3E610B52E
:10577000044604EB041000EB40001C4911F8200023
:10578000012852D11A48C07C78B308F0A5FE1A4906
:1057900051F82410401AB0F5FA6F06D31748008864
:1057A000401C00B21549088002E00020134908801F
:1057B00004EB041000EB40000C4901EB800090F872
:1057C0003700012824D10D48B0F900000A281FDD58
:1057D000022003F05DFA012003F040FD012104EBFB
:1057E000041000EB4000014A0AE01EE08C26002075
:1057F0005826002000000240DC030020200000208A
:1058000002EB800080F83710C82003F048FB0CE062
:10581000002104EB041000EB4000434A02EB80003F
:1058200080F83710002003F019FD10BD3F480078C4
:1058300068B105203C49887005213B4880F8CE10AE
:1058400080F89A1180F866120020384908703748AD
:10585000407890B136480078334908703448007871
:1058600081F8CC003248007881F8980130480078FF
:1058700081F8640200202D4948702C488078A8B136
:105880002C480078284948702A480178264880F832
:10589000CD1028480178244880F8991125480178CE
:1058A000214880F865120020204988701F4800793F
:1058B000D0B12148008881B21B48A0F896101E483C
:1058C000008881B21848A0F862111B48008881B294
:1058D0001548A0F82E121848008881B21248A0F886
:1058E000FA120020114908711048C078D8B1134845
:1058F0000088404200B20C4988801048008801B2FC
:105900000948A0F8D0100D480088404201B206486E
:10591000A0F89C110948008801B20348A0F8681259
:1059200000200249C87070478C2600202C000020FF
:10593000310000203C00002038000020340000200E
:1059400010B54FF48050F7490880B7EE000A0846BA
:1059500080ED010A4FF48050F3490880B7EE000A49
:10596000084680ED010A4FF48050F0490880B7EEF8
:10597000000A084680ED010A0020ED4908709FEDFD
:10598000ED0A084680ED010A012008724FF47A7092
:105990004881012008734FF4FA70C881C000088262
:1059A0008010E54908820020E4490870487088703A
:1059B000C870087148718871C871E148DA4A06CA2E
:1059C000C0E913120020DE494870022008704FF42D
:1059D000967088806421DA488160C1800021C160AE
:1059E0005430D14A06CAC0E913120021543880F855
:1059F00055100220D24981F854004FF49671D048D6
:105A0000A0F858106421C165A0F85A100021016661
:105A1000A830C54A06CAC0E913120021A83880F888
:105A2000A9100220C64981F8A8004FF49671C44815
:105A3000A0F8AC106421C0F8B010A0F8AE1000219E
:105A4000C0F8B410FC30B84A06CAC0E913120021ED
:105A5000FC3880F8FD100220B94981F8FC004FF4B1
:105A60009671B748A0F800116421C0F80411A0F89D
:105A700002110021C0F808111422AD49203008F0AD
:105A8000EDFEAF48AC490A68426389880187AA489D
:105A9000C188AB484187A84CA168E2682369646962
:105AA0003C301EC010BD10B586B0044600200190E9
:105AB0008DF80D008DF80C0008208DF80E000120E7
:105AC0008DF80F0000218DF810108DF811108DF851
:105AD00012108DF813108DF814108DF815108DF824
