:020000040800F2
:1000000030B30020C1D20008D1A30008D3A3000858
:10001000E5A30008E9A30008EDA300080000000024
:10002000000000000000000000000000F1A3000834
:10003000F3A30008000000002BF500088FF700086C
:10004000DBD20008DBD20008DBD20008DBD20008DC
:10005000DBD20008DBD20008DBD20008DBD20008CC
:10006000DBD20008DBD20008DBD20008DBD20008BC
:10007000DBD20008DBD20008494E0008DBD20008C2
:10008000DBD2000851210008DBD20008DBD20008D7
:10009000310B0008DBD20008DBD20008DBD20008FD
:1000A000DBD20008DBD20008DBD20008DBD200087C
:1000B0003F030008A7060008DBD20008DBD20008D7
:1000C000DBD20008DBD20008DBD20008DBD200085C
:1000D000DBD20008DBD20008772100089D4E000823
:1000E000DBD20008DBD20008DBD20008DBD200083C
:1000F000DBD20008DBD20008DBD20008DBD200082C
:10010000DBD20008DBD20008DBD20008DBD200081B
:10011000DBD20008DBD20008DBD20008DBD200080B
:10012000DBD20008DBD20008DBD20008DBD20008FB
:10013000DBD20008DBD20008DBD20008DBD20008EB
:1001400031130008FD140008DBD20008DBD20008E0
:10015000DBD20008DBD2000841200008DBD2000817
:10016000DBD20008DBD20008DBD20008DBD20008BB
:10017000DBD20008DBD20008DBD20008DBD20008AB
:10018000DBD20008DBD20008DFF80CD00FF078FDDE
:1001900000480047AF1E000830B3002030BF72B6E1
:1001A000704762B6704780F30888704710B5082022
:1001B00010F0E8F9044600206060204610BD0120E0
:1001C00044494871704710B506F098F9424806F066
:1001D00048FA07F08FFF404808F023F804F0ECFFDE
:1001E00007F0B0FCFFF7EBFF002019E0002100EB67
:1001F00080023A4B03EB4202517000EB800203EBAA
:10020000420291714FF47A7100EB800203EB4202DB
:100210005180002100EB800203EB42029180401CE0
:100220000228E3DBFFF7C2FF2D49486010BD002222
:100230000A7803780B700270704770B506460C465A
:10024000354600E06D6815B16868A042FAD14CB13E
:1002500060686860204610F06DF921480078401E03
:100260001F49087070BD02460B46114605E008881C
:10027000984201D10846704749680029F7D100200B
:10028000F9E72DE9F041074688463C4641462046BD
:10029000FFF7E9FF08B1BDE8F081002602E06468DD
:1002A000701CC6B20E480078B04201DD002CF6D1B9
:1002B0006CB1082010F066F90546A5F8008060686A
:1002C0006860656006480078401C0549087000BFFA
:1002D000E1E70000E603002000680040480100203C
:1002E000040000201FB5012108460BF076FD41F601
:1002F000573002900520ADF804000020ADF806004C
:10030000ADF80C0001A94FF080400BF01EFF012258
:10031000114690070CF0BAFB012188070BF09EFFF5
:100320001C208DF8000003208DF8010001208DF8BD
:1003300002008DF8030068460AF031FB1FBD70B55E
:10034000012188070CF0B9FB01287CD1002476E05C
:10035000C4EB0410B94901EB800090F83200012889
:1003600023D1C4EB041011F82000F0B10FF096F87F
:10037000C4EB0411B14A02EB8101C96A411AC4EB12
:10038000041002EB8000008E81420ED9C4EB0410F1
:10039000114601EB800090F82800401CC4EB0411CA
:1003A00002EB810181F8280007E00020C4EB041172
:1003B000A24A02EB810181F82800C4EB04109F4996
:1003C00001EB800090F8280064281BDD0121C4EBBC
:1003D00004109A4A02EB800080F82510022009F0F0
:1003E000DDFC621C032343EA021242F48071944A4A
:1003F0005068FFF746FF022009F0BEFFC8200EF04C
:100400009DFF1AE0002009F0B7FF0021C4EB0410A3
:100410008A4A02EB800080F82510621C032343EA1D
:10042000021242F48071864A5068FFF71CFF0546AD
:10043000834948682946FFF700FF601CC4B2042CBA
:1004400086DB002470E0F3E0C4EBC40000EB400066
:100450007C4901EB80004078002864D00FF01EF842
:10046000C4EBC40101EB4101764A02EB8101096C46
:10047000411AC4EBC40000EB400002EB8000B0F86E
:10048000440081421BD9C4EBC40000EB400011467C
:1004900001EB800090F84700012810D1C4EBC400A4
:1004A00000EB400001EB8000808F401C81B2C4EB68
:1004B000C40000EB400002EB8000818708E00021CF
:1004C000C4EBC40000EB40005E4A02EB8000818771
:1004D000C4EBC40000EB40005A4901EB8000808F60
:1004E000B0F57A7F13DD0121C4EBC40000EB4000BE
:1004F000544A02EB8000C177022009F04FFC032030
:1005000009F03AFF4FF4FA7009F04FFD0BE00020BC
:1005100009F032FF0021C4EBC40000EB4000494A5F
:1005200002EB8000C177641C042C8DD3002404E00E
:10053000204605F0A7FE601CC4B2082CF8DB00249E
:1005400074E004EBC40000EB04103F4901EB8000B1
:10055000407890B30EF0A2FF04EBC40101EB04114C
:10056000394A02EB8101096D411A04EBC40000EB2A
:10057000041002EB8000B0F8540081421ED904EB55
:10058000C40000EB0410114601EB800090F8570006
:10059000012813D104EBC40000EB041001EB800030
:1005A000B0F84C00401C81B204EBC40000EB041016
:1005B00002EB8000A0F84C100AE035E0002104EBCB
:1005C000C40000EB0410204A02EB8000A0F84C109D
:1005D00004EBC40000EB04101B4901EB8000B0F8F1
:1005E0004C00642813DD012104EBC40000EB04106F
:1005F000154A02EB800080F82F10022009F0CEFB94
:10060000042009F0B9FEC82009F0CFFC0CE000205E
:1006100009F0B2FE002104EBC40000EB04100A4A0A
:1006200002EB800080F82F10601CC4B2042C88DB21
:10063000012188070CF052FA70BD000080310020C3
:1006400004000020C02F0020AC3200201FB5012183
:1006500002200BF0C2FB42F6DF6002900F20ADF8E3
:1006600004000020ADF80600ADF80C0001A97D489B
:100670000BF06BFD012211467A480CF007FA0121BC
:1006800078480BF0EBFD1D208DF8000001208DF85F
:10069000010000208DF8020001208DF8030068465B
:1006A0000AF07DF91FBD70B501216E480CF005FA06
:1006B00001287CD101216B480CF010FA002432E0B3
:1006C00004EBC40000EB4000674911F8300028B388
:1006D00004EBC40000EB400001EBC0004078F0B137
:1006E00004EBC40000EB400001EBC000807801285F
:1006F00006D0022805D004280BD005280DD104E02F
:100700000CE020B205F081F808E020B205F0D8F83E
:1007100004E020B205F044FA00E000BF02E020B29D
:1007200005F0CEF8641C082CCADB04F0F0FC4E4C3B
:10073000B4F99032B4F9B821B4F9E010B4F9080072
:1007400004F079FCB4F9F035B4F91825B4F9401483
:10075000B4F9680304F002FC002477E0C4EB041051
:10076000424911F82000002868D0C4EB041001EBC6
:1007700080004078F0B3C4EB041001EB8000807877
:10078000B0B1012804D0022821D0032845D135E09A
:10079000C4EB0411354A02EB8101D1ED010AB0EE40
:1007A000600A611CC8B2002107F01AFB36E057E06E
:1007B000C4EB04112D4A02EB8101D1ED040AB0EE25
:1007C000600A611CC8B2002107F052FA26E0C4EBAF
:1007D0000412264B03EB82029268C4EB0413234DF0
:1007E00005EB830393F8383002FB03F1621CD0B2AF
:1007F000002200E013E007F09DFA0FE0C4EB0411C3
:100800001A4A02EB8101D1ED0D0AB0EE600A611CBB
:10081000C8B2002107F048FB00E000BF15E0C4EBC0
:100820000411124A02EB8101D1ED0D0AB0EE600A0B
:10083000611CC8B2002107F037FB06E0611CC8B29A
:1008400000219FED0B0A07F0CBFA641C042C85DB1A
:100850000849094809F0D9F90849094809F0D5F9C2
:1008600070BD000000040040D4280020803100202A
:1008700000000000B867002000680040D465002038
:100880000064004000B58BB0012148060BF0A5FACA
:10089000012108460BF06EFA09220B21FE480BF0ED
:1008A000AEF809220C21FC480BF0A9F802208DF8C3
:1008B00018004FF4C050059005A9F7480BF014F844
:1008C00014208DF8280003208DF8290000208DF8D1
:1008D0002A0001208DF82B000AA80AF060F8EF48E2
:1008E0000AF0C8F807A80AF0E9F900208DF82200FC
:1008F0008DF823008DF824008DF825008DF8260052
:100900008DF827008DF81E008DF81F0008208DF847
:10091000200003208DF82100ADF81C0007A9DF4856
:100920000AF0C1F801208DF80E008DF80F000020AC
:100930008DF8100046F2A000ADF8040046F2C000A9
:10094000ADF8060046F2E000ADF808004FF4C240F2
:10095000ADF80A000020ADF80C0001208DF8110060
:1009600001A80AF02AF903208DF80E0001208DF865
:100970000F0000208DF810004FF4C840ADF80400BF
:1009800046F22000ADF8060046F24000ADF808003F
:1009900046F26000ADF80A000020ADF80C0001201E
:1009A0008DF8110001A80AF008F904208DF80E0056
:1009B00000208DF80F0001208DF810000820ADF800
:1009C000040042F60400ADF806004FF6FF70ADF8E3
:1009D0000800ADF80A000020ADF80C0001208DF8E9
:1009E000110001A80AF0E9F801220221AB480AF03F
:1009F000E3FB0BB000BD10B50446A9484088401C7D
:100A00001E2190FBF1F201FB1200A54909888842E2
:100A100003D10120A349887110BD20688038A04906
:100A20004A88091D01EB02110860A17A9C4842889E
:100A3000001D00EB02100171A27A99494B88091D33
:100A400001EB0311481D04F10B010EF0E9FE94487F
:100A50004088401C1E2190FBF1F201FB12009049DE
:100A6000488000BFD8E710B501468D484088401C3B
:100A70001E2290FBF2F302FB1300894A1288904277
:100A800003D10120874A907110BDA1F18002844BEF
:100A90005C881B1D03EB04131A600523804A5488ED
:100AA000121D02EB0412137142237D4A5488121D59
:100AB00002EB041253717A4A5488121D02EB04129D
:100AC00093714723764A5488121D02EB0412D371A6
:100AD0004A1FD0B200EBC00202EB4202724B03EBA2
:100AE000C202926900EE102AB8EEC00AF3EE0E0AB6
:100AF00020EE200ABDEEC00A10EE102A12B26B4B97
:100B000023F810201A4632F81030654A5488121D16
:100B100002EB0412138100BF61484088401C1E2272
:100B200090FBF2F302FB13005D4A508000BFABE77D
:100B300010B586B0022159480AF0A6FB00287CD0E7
:100B4000022156480AF03BFC022154480AF079FB86
:100B500001AA002151480AF014FA9DF80C0000285F
:100B60006CD19DF80D000028FAD140F205310198B2
:100B700088420BD0491C0198884207D0491C019833
:100B8000884203D00198B0F5427F7CD10198401F84
:100B9000C4B29DF80F0043280FD19DF810005728CC
:100BA0000BD19DF81100482807D19DF81200552857
:100BB00003D101A8FFF71FFFC7E09DF80F004328EE
:100BC00028D19DF81000482824D1BDF811003749DC
:100BD00021F81400084630F9140000EE100AB8EEAF
:100BE000C00AF3EE0E0A80EE201ABDEEC10A10EE26
:100BF000100A04EBC40101EB41012B4A02EBC101D5
:100C00004860012004EBC40101EB410102EBC1018A
:100C100048709AE09DF80F0053281BD19DF81000F2
:100C2000502817D1BDF81100214921F814000846B9
:100C300030F8141004EBC40001E046E1F9E000EBE9
:100C40004000194A02EBC000A0F8A21001A8FFF76B
:100C5000D2FE7AE09DF80F004D2833D19DF81000A8
:100C60004F282FD19DF8110001282BD1052004EB2E
:100C7000C40101EB41010C4A02EBC1018870012063
:100C800004EBC40100E061E001EB410102EBC101B2
:100C9000487004EBC4010DE0000002400064004015
:100CA000D4650020E6030020D42800200C0000209A
:100CB0001400002001EB410102F8310001A8FFF708
:100CC0009AFE42E09DF80F004D2819D19DF81000C2
:100CD0004F2815D19DF8110090B9002004EBC401F4
:100CE00001EB41017A4A02F8310004EBC40101EB47
:100CF000410102EBC101487001A8FFF77CFE24E02E
:100D00009DF80F00532810D19DF8100054280CD1E5
:100D1000002004EBC40101EB41016D4A02EBC1016B
:100D2000487001A8FFF767FE0FE09DF80F0042280A
:100D30000BD19DF81000422807D19DF811004728DB
:100D400003D1019988B2FFF78EFE00BF0198B0F57C
:100D5000487F6ED1BDF80F005E490880BDF81100D4
:100D60004880BDF813008880BDF81500C88008468B
:100D7000B0F9000000EE100AB8EEC00AF3EE0E0A59
:100D800080EE201ABDEEC10A10EE100A50494860EC
:100D900001204870052088704E48B0F9020000EE2E
:100DA000100AB8EEC00AF3EE0E0A80EE201ABDEE6D
:100DB000C10A10EE100AC1F8DC000121444880F895
:100DC000D910052180F8DA104248B0F9040000EE8D
:100DD000100AB8EEC00AF3EE0E0A80EE201ABDEE3D
:100DE000C10A10EE100A3A49C1F8B401012138488D
:100DF00080F8B111052180F8B2113648B0F906002B
:100E000000EE100AB8EEC00AF3EE0E0A80EE201AC9
:100E1000BDEEC10A10EE100A2D49C1F88C02012165
:100E20002B4880F88912052180F88A1201A8FFF763
:100E3000E2FD9DF80C00042847D12749029888421A
:100E400043D19DF810006B283FD19DF811004C282C
:100E50003BD19DF8120001280CD1AA211C48C0F8F2
:100E600064134942C0F83C14AA21C0F81415494241
:100E7000C0F8EC159DF8120060B95F211448C0F865
:100E800064134942C0F83C145F21C0F8141549426C
:100E9000C0F8EC15BDF8130081B20D48A0F802149B
:100EA000BDF8130081B20A48A0F8DA14BDF81300A7
:100EB00081B20748A0F8B215BDF8130081B204480A
:100EC000A0F88A1601A8FFF796FD06B010BD000035
:100ED000D42800200C000020000501002DE9F0417D
:100EE0008AB004460D4616469846109F0121880692
:100EF0000AF073FF012102200AF03CFF09220521BC
:100F0000FE480AF07CFD09220621FC480AF077FD24
:100F100002208DF814006020049004A9F7480AF01C
:100F2000E3FC40208DF8240002208DF825000020ED
:100F30008DF8260001208DF8270009A809F02FFD63
:100F400041208DF8240002208DF8250001208DF825
:100F500026008DF8270009A809F021FDE84809F0CE
:100F600089FD06A809F0AAFE00208DF81E008DF864
:100F70001F008DF820008DF821008DF822008DF8DB
:100F800023008DF81A708DF81B408DF81C608DF8C9
:100F90001D500320ADF8180006A9D94809F083FDBB
:100FA0000E208DF80A0001208DF80B0000208DF82E
:100FB0000C0044F22000ADF8000044F24000ADF80F
:100FC000020044F26000ADF804004FF48140ADF837
:100FD00006000020ADF8080001208DF80D006846DD
:100FE00009F0EBFD0F208DF80A0001208DF80B00B1
:100FF00000208DF80C0044F2A000ADF8000044F28F
:10100000C000ADF8020044F2E000ADF804004FF477
:101010008240ADF806000020ADF8080001208DF8F0
:101020000D00684609F0C9FD10208DF80A00012066
:101030008DF80B0000208DF80C0045F22000ADF873
:10104000000045F24000ADF8020045F26000ADF846
:1010500004004FF4A140ADF806000120ADF80800EF
:101060008DF80D00684609F0A8FD11208DF80A00E2
:1010700001208DF80B0000208DF80C0045F2A00037
:10108000ADF8000045F2C000ADF8020045F2E00006
:10109000ADF804004FF4A240ADF806000120ADF811
:1010A00008008DF80D00684609F087FD12208DF8C4
:1010B0000A0001208DF80B0000208DF80C004FF481
:1010C0008150ADF800004FF48250ADF802004FF4AB
:1010D0008350ADF804004FF48450ADF806000120B1
:1010E000ADF808008DF80D00684609F066FD132084
:1010F0008DF80A0001208DF80B0000208DF80C00FF
:101100004FF48550ADF800004FF48650ADF8020062
:101110004FF48750ADF804004FF48850ADF8060046
:101120000120ADF808008DF80D00684609F045FD76
:1011300014208DF80A0000208DF80B0001208DF896
:101140000C000020ADF800004FF49040ADF8020014
:101150004FF6FF70ADF804004FF47840ADF806008C
:101160000120ADF808008DF80D00684609F025FD56
:1011700015208DF80A0001208DF80B0000208DF855
:101180000C004BF22000ADF800004BF24000ADF82F
:1011900002004BF26000ADF804004BF28000ADF8A5
:1011A00006000120ADF808008DF80D00684609F032
:1011B00004FD16208DF80A0001208DF80B00002098
:1011C0008DF80C004FF40150ADF800004FF40250C0
:1011D000ADF80200ADF80400ADF806000120ADF84E
:1011E00008008DF80D00684609F0E7FC0122102187
:1011F000434809F0E1FF01220221414809F0DCFFE8
:1012000000200AB0BDE8F08170B5044604EBC400CC
:1012100000EB40003B4901EBC000B0F9080000289A
:1012200008DD04EBC40000EB400001EBC000B0F9A6
:10123000080009E004EBC40000EB4000314901EB79
:10124000C000B0F90800404204EBC40101EB4101C9
:101250002C4A02EBC101B1F8D010884220DD04EB2A
:10126000C40000EB4000114601EBC000B0F90800DB
:10127000002802DA4FF0FF3000E0012004EBC40147
:1012800001EB41011F4A02EBC101B1F8D010484304
:1012900001B204EBC40000EB400002EBC00001818E
:1012A00004EBC40000EB4000164911F8300040B9CF
:1012B000002104EBC40000EB4000124A02EBC00026
:1012C0000181042C04DA4FF400700F49086003E038
:1012D00040F2FF100C49086000200B494872087268
:1012E0000820887204F00B00450004EBC40000EBFA
:1012F0004000044901EBC000018907E000040240FE
:1013000000680040D428002054040020FE484153C7
:1013100002466B1CD1185019FEF789FF032C01D02F
:10132000072C04D1F8490B39F84809F035FD70BD98
:1013300010B586B001AA0021F44809F022FE9DF8FC
:101340000C0000287AD19DF80C00002876D19DF879
:101350000E00082872D10198B0F5007F6ED901986F
:10136000B0F5027F6AD80198401EC4B2E84850F830
:101370002400E84941F824000EF090F8E44941F8CF
:101380002400084650F82400E24951F82410401A7D
:10139000E14941F824009DF812109DF8110041EA3E
:1013A000002001B204EBC40000EB4000DB4A02EB7A
:1013B000C000C1839DF810009DF80F1040EA012184
:1013C00004EBC40000EB400002EBC00041629DF85A
:1013D00014109DF8130041EA002001B204EBC40090
:1013E00000EB400002EBC00081839DF8151004EB78
:1013F000C40000EB400002EBC000018504F081FC5A
:1014000004EBC40000EB4000C44901EBC00090F8BD
:10141000460090B9012104EBC40000EB4000BF4A34
:1014200002EBC00080F84610002104EBC40000EB82
:10143000400002EBC000A0F8B41000BF0221B34886
:1014400009F0BDFF0221B14809F0FBFE06B010BD56
:10145000F0B585B007460D4600241220009001909B
:1014600000208DF808008DF809008DF80A5000BFA3
:1014700005E0395D0DF10B000155601C84B2AC42F2
:10148000F7DB6946A14809F087FC0646002401E025
:10149000601C84B231469D4809F016FD18B940F62B
:1014A000FF708442F4DB40F6FF70844202DB0120CF
:1014B00005B0F0BD0020FBE74168491C41600021F8
:1014C00001730169491E0161818A491C1E2291FB39
:1014D000F2F302FB1311818270474168491C41609D
:1014E000002101730169491E0161818A491C1E2284
:1014F00091FBF2F302FB13118182704710B586B0A5
:101500001021824809F0C0FE002874D001AA0121F0
:101510007E4809F036FD10217C4809F050FF10216B
:101520007A4809F08EFE0198B0F5B06F74D940F298
:101530008551019888426FD89DF80D0000286BD125
:101540000198A0F28150C4B2002104EBC40000EB6A
:101550000410734A02EB800080F857109DF80F00CA
:101560004F2809D19DF81000602805D19DF8110081
:10157000602801D1012000E000209DF80F104329D0
:1015800009D19DF81010622905D19DF8111060292C
:1015900001D1012100E0002108439DF80F104329EB
:1015A00009D19DF81010642905D19DF8111060290A
:1015B00001D1012100E0002108439DF80F104329CB
:1015C00009D19DF810106B2905D19DF811106029E3
:1015D00001D1012100E0002108439DF80F104329AB
:1015E0000AD19DF810106C2906D19DF811106029C0
:1015F00002D1012101E06AE3002108439DF80F10A8
:101600004B290AD19DF81010402906D19DF81110E0
:10161000602902D1012101E053E1002108439DF836
:101620000F104B2909D19DF81010772905D19DF88D
:101630001110602901D1012100E00021084330B1DF
:10164000C4EB8411374A02EBC100FFF746FF9DF857
:101650000F004B2816D19DF81000402812D19DF89C
:10166000110060280ED19DF81300C01008B10120B0
:1016700000E0002004EBC40101EB0411284A02EB56
:10168000810148709DF80F004F2810D19DF810007F
:1016900060280CD19DF81100602808D19DF8130036
:1016A00004EBC40101EB04111D4A02F821009DF86E
:1016B0000F0043285CD19DF81000622858D19DF896
:1016C0001100602854D1DDF8131004EBC40000EBC6
:1016D0000410134A02EB8000016104EBC40000EB2C
:1016E0000410114601EB800090ED180A9FED0E1AD0
:1016F000C1EE000A04EBC40000EB041001EB800013
:10170000006900EE100A11E05F040020006800404C
:1017100014040020F403002034040020D428002006
:10172000AC320020205800200000B443B8EEC00ABC
:1017300020EE800AB1EE001AC0EE010A04EBC400EC
:1017400000EB041001EB8000B0F85C0000EE100A22
:10175000B8EE400A80EE801ABDEEC10A10EE100A03
:1017600000B204EBC40101EB041102EB810188809B
:101770009DF80F00432849D19DF81000642845D1F9
:101780009DF81100602841D1DDF8131004EBC4006E
:1017900000EB0410FE4A02EB8000416204EBC4003F
:1017A00000EB0410114601EB800090ED180A1FEDCC
:1017B000221AC1EE000A04EBC40000EB041001EB96
:1017C0008000406A00EE100AB8EEC00A20EE800ADF
:1017D000B1EE001AC0EE010A04EBC40000EB0410E5
:1017E00001EB8000B0F85C0000EE100AB8EE400A91
:1017F00080EE801ABDEEC10A10EE100A00B204EBB2
:10180000C40101EB041102EB810108839DF80F0074
:10181000432811D19DF810006B280DD19DF81100BF
:10182000602809D1DDF8131004EBC40000EB0410AC
:10183000D74A02EB8000C1609DF80F00432811D108
:101840009DF810006C280DD19DF81100602809D179
:10185000DDF8131004EBC40000EB0410CC4A02EBDB
:10186000800001629DF80F004B2829D19DF81000DF
:10187000772825D19DF81100602821D1DDF81310BB
:1018800004EBC40000EB0410C14A02EB800081624B
:1018900004EBC40000EB0410114601EB8000806AE9
:1018A00000EE100AB8EEC00ADFEDBA0A80EE201A88
:1018B00004EBC40000EB041001EB800080ED071A7C
:1018C00000BF0198B0F5207F7ED90198B0F5227F46
:1018D0007AD89DF80D00002876D10198A0F28120D9
:1018E000C4B20021C4EBC40000EB4000AA4A02EBE2
:1018F000800080F847109DF80F0041280BD19DF81B
:101900001000432807D19DF8120000F04000012884
:1019100001D0012000E000209DF80F1042290BD1DA
:101920009DF81010472907D19DF8121001F04001D1
:10193000012901D0012100E0002108439DF80F108A
:101940004A290BD19DF81010562907D19DF8121085
:1019500001F04001012901D0012100E000210843EC
:101960009DF80F104D290BD19DF810104F2907D16C
:101970009DF8121001F04001012901D0012100E081
:10198000002108439DF80F1050290BD19DF810102D
:10199000522907D19DF8121001F04001012901D010
:1019A000012100E0002108439DF80F1053290CD1BC
:1019B0009DF81010442908D19DF8121001F0400143
:1019C000012902D0012101E0FAE0002108439DF83D
:1019D0000F1053290BD19DF81010542907D19DF8F1
:1019E000121001F04001012901D0012100E0002185
:1019F00008439DF80F1054290BD19DF8101043296E
:101A000007D19DF8121001F04001012901D00121F8
:101A100000E0002108439DF80F1055290BD19DF8D7
:101A200010104D2907D19DF8121001F04001012935
:101A300001D0012100E00021084330B1C4EB841142
:101A4000564A02EBC100FFF737FD9DF80F004D2805
:101A500017D19DF810004F2813D19DF8120000F007
:101A6000400001280DD09DF8130008B1012000E0CE
:101A70000020C4EBC40101EB4101474A02EB8101A4
:101A800048709DF80F0056282FD19DF81000582857
:101A90002BD19DF8120000F04000012825D0DDF880
:101AA0001310C4EBC40000EB40003B4A02EB800083
:101AB0004161C4EBC40000EB4000114601EB800023
:101AC000B0F84C003C2190FBF1F1C4EBC40000EBFA
:101AD000400002EB8000406990FBF1F1C4EBC400D0
:101AE00000EB400002EB800041619DF80F005028A0
:101AF00041D19DF8100058283DD19DF8120000F00A
:101B00004000012837D0DDF81300C4EBC40101EB1D
:101B10004101214A02EB81018861C4EBC40101EB60
:101B2000410102EB810191ED140A9FED1D1AC1EEF6
:101B3000000A00EE100AB8EEC00A60EE800AC4EB9C
:101B4000C40101EB410102EB8101B1F84C1000EE40
:101B5000101AB8EE400A80EE801ABDEEC10A10EEEF
:101B6000101A09B2C4EBC40202EB42020A4B03EBA7
:101B70008202118200BF9DF80F0049281FD19DF8F5
:101B8000100051281BD19DF8120000F0400009E020
:101B9000AC32002000000843C02F0020504C002031
:101BA0000000B44301280AD0BDF8130001B2C4EB11
:101BB000C40000EB4000694A02EB8000418200BF94
:101BC0000198812821D3019888281ED89DF80D00FE
:101BD000D8B901988138C4B2621C022343EA0212C8
:101BE00042F440715E4A5068FEF74BFB4FF0807143
:101BF000019841EA00409DF80F1040EA01209DF84D
:101C0000101008435749086000BF9DF80C000428D5
:101C10005CD19DF80D00E8BB0020009000210298E7
:101C200000F0FE00C0EB00104F4A02EB800080F88D
:101C3000321009210298B1EB102F46D16946B7EE58
:101C4000000A0DF10F0008F090F90298C0B2C0EB45
:101C50000010454901EB800090F8380000EE900A32
:101C6000F8EE600A80EE201ABDEEC10A10EE100AEE
:101C7000029901F0FE01C1EB01113B4A02EB810127
:101C800088616946B2EE040A0DF10F0008F07DF993
:101C9000029800E01AE000F0FE00C0EB00103249AC
:101CA00001EB800080ED050A69469FED300A0DF1D9
:101CB0000F0008F06AF9029800F0FE00C0EB001077
:101CC000294901EB800080ED080A00BF00BF06B083
:101CD00010BD30B585B005460021254809F0D4F97E
:101CE00010B9002005B030BD6A460021214809F036
:101CF00048F9002404E00DF10B00005D2855641C38
:101D00009DF80A00A042F6D89DF80A00EAE710B54F
:101D100086B004464FF48230029000208DF80D000A
:101D200004208DF80C008DF80E008DF80F0034B1F2
:101D300093218DF810104E218DF8111005E08521AA
:101D40008DF8101046218DF8111001218DF8121018
:101D500001A9084809F020F806B010BDC02F0020E6
:101D600004000020800000208031002000007A4420
:101D7000006400400068004006E06749674807F0DB
:101D800044FF02200DF0DAFAF7E74FF47A700DF015
:101D9000D5FA0120624981F8600381F8380481F89E
:101DA000100581F8E80501215D4880F8611380F88D
:101DB000391480F8111580F8E91505E004F0D1FA1E
:101DC00040F24C400DF0BAFAF8E706E0012006F0C8
:101DD00047F94FF47A700DF0B1FAF7E703E04FF4EA
:101DE0007A700DF0ABFAFAE70CE0012005F038FE4E
:101DF000012001E0411CC8B20528FBDB4FF49660CE
:101E00000DF09CFAF1E707E008F059FA08F0C5F97F
:101E10004FF496700DF092FAF6E705E001F077FBCB
:101E20004FF47A700DF08AFAF8E770B50446002591
:101E300000BF022007F0B2FF002008F09DFA01F079
:101E400066FB0DF0BAFC0DF04FFB05460D23354A3D
:101E5000002135480CF02CFF1E23344A0021344861
:101E60000CF026FF0A23334A002133480CF020FFF0
:101E70000F23324A002132480CF01AFF1023314A56
:101E8000002131480CF014FF0923304A002130486A
:101E90000CF00EFF1F232F4A00212F480CF008FFE3
:101EA00005200DF083F928460DF022FB70BD08B522
:101EB0004FF4FA6008F079F80BF068F94FF4A0607D
:101EC00008F068FDFEF7DEFC002003230822194617
:101ED0000090FFF703F807F08DFE07F045FF08F0CC
:101EE0002BFA00F0CFF800F03DF808F081F808F088
:101EF000C5F9FEF7F7F9FEF7A9FBFEF764F90BF059
:101F000029FB0523154A002115480CF0D1FE0BF0E2
:101F100048FC002008BD00009C69002000680040CB
:101F2000D4280020641000201B1E0008641200202A
:101F3000071E0008641A0020E91D0008641E002026
:101F4000DD1D000864220020CB1D0008641600205F
:101F50008B1D000864280020791D000864080020FB
:101F60002B1E00081CB54048006840F010003E4998
:101F700008603D481438006840F480003A4914393C
:101F800008600120022100230A46CDE900104FF429
:101F9000C061364808F098FB07220921334808F051
:101FA00073FB07220A21314808F06EFB40F2D9206A
:101FB0002F4908814FF4037088810846008820F07B
:101FC00020000880032325220121062008F0CEFAF4
:101FD0004FF48070274B264A121D0421009026489A
:101FE00008F008FA01221021234809F0A4FB03237A
:101FF00046220021072008F0B9FA1D48808A40F0E7
:1020000080001B4988820846808940F400508881FE
:102010001CBD70B504460D461848807A78B92A462A
:10202000214614480DF0FCFB2946134809F017FB24
:102030000121114809F0F2FA01201049887270BD9F
:1020400010B50F490C4809F093FB01280AD10C493F
:10205000094809F05CFB0A49074809F0B3FB002076
:102060000649887210BD000044380240000002405A
:102070000010014066010020B8640240E603002021
:10208000008000281CB5FA48006840F40030F84988
:102090000860F7481038006840F40010F44910391F
:1020A00008600120022100230A46CDE900100C211E
:1020B000F04808F009FB07220221EE4808F0E4FA94
:1020C00007220321EB4808F0DFFA4FF4B670EA4923
:1020D00008800C20091D0880E7480838008820F097
:1020E0002000E54908390880E348001D008840F0D9
:1020F0002000E149091D0880032326220221042033
:1021000008F034FA4FF48070DC4BDB4A121F0421D4
:102110000090DB4808F06EF901221021D84809F040
:102120000AFB032311220221072008F01FFAD248DC
:102130000C30008840F08000CF490C310880CE4838
:10214000001D008840F40050CB49091D08801CBDCB
:1021500010B5CC49CA4809F00BFB01280AD1C9497E
:10216000C74809F0D4FAC749C54809F02BFB00203D
:10217000C549C87210BD10B52DED028B002440F288
:102180002531BD4808380AF04CFF60B1BA4808381C
:102190000AF085FE0020BD4908702021BC480DF0E2
:1021A00058FB01F0A0B940F22551B34808380AF0B5
:1021B00038FF0028F5D02021AF4808380AF028FF62
:1021C00040F22551AC4808380AF062FFAA480838A6
:1021D0000AF065FEC4B2AD48007800F0400008B3D4
:1021E000AA48007800F0800020BBFF2C06D1A74849
:1021F000007840F08000A54908701BE0A3480078F3
:1022000000F03F01A2484454A0480078401C9F4978
:1022100008700846007800F03F0028280ADD0020FA
:10222000087007E0EE2C05D19848007840F0400097
:10223000964908709548007800F080000028B0D0DA
:10224000944890F8200212287BD1924890F82102FD
:10225000102877D2DFE800F008121C28343F4A55D6
:1022600060778C9DAEBAC8D601208B49087081F882
:10227000D80081F8B00181F88802C7E000208649C3
:10228000087081F8D80081F8B00181F88802BDE0BB
:1022900001208149487001217F4880F8D91080F8D9
:1022A000B11180F88912B1E000207B49487000210B
:1022B000794880F8D91080F8B11180F88912A5E02A
:1022C0000120754981F8600381F8380481F8100510
:1022D00081F8E8059AE000206F4981F8600381F8F1
:1022E000380481F8100581F8E8058FE001216A487B
:1022F00080F8611380F8391480F8111580F8E91519
:1023000084E00021644880F8611380F8391480F873
:10231000111580F8E91579E001221146104604F004
:10232000A2FA01221146022004F09DFA0122114670
:10233000032004F098FA01221146042004F093FAD5
:1023400064E064E061E001220021104604F08BFAB1
:1023500001220021104604F086FA01220021032008
:1023600004F081FA01220021042004F07CFA4DE0FF
:102370000121084604F0A0FA0121022004F09CFA91
:102380000121032004F098FA0121042004F094FABA
:102390003CE00121084604F00BFB0121022004F07F
:1023A00007FB0121032004F003FB0121042004F0BA
:1023B000FFFA2BE000203849486000213648C0F879
:1023C000DC10C0F8B411C0F88C121FE02D20324987
:1023D000486041423048C0F8DC102D21C0F8B411EB
:1023E0004942C0F88C1211E05A202B494860414202
:1023F0002948C0F8DC105A21C0F8B4114942C0F88D
:102400008C1203E007F0FCFC00E000BF00BF214895
:1024100090F82102012804D11E4890F823021F4998
:1024200008701C4890F82302092876D2DFE800F0F3
:10243000053FBCBDFCFB75FAF900164890F8250273
:10244000082831D1012080F3138800BF00BFBFF3FB
:102450004F8F1348006800F4E06012490843001DE4
:102460000F490860BFF34F8F00BF00BF00BFFDE7FB
:10247000403802400000024008440040860200202C
:10248000A060024000802020E60300201D00002004
:102490008603002066010020D42800201C000020B4
:1024A0000CED00E00000FA0500BF00BFE5E3FB48CB
:1024B00090F82502001F112874D2DFE800F0202FC9
:1024C0003E3F4041420F17184309447373616B004C
:1024D0000120F349087081F83C0063E00120F049D5
:1024E00048700121EE4880F83D105BE05AE0012081
:1024F000EB4948700121EA4880F83D1052E0E94874
:102500000DF072FEB0EE408AF0EE608A51EC180BCE
:102510000DF0BAF9E249886044E0EFE3E1480DF0DC
:1025200063FEB0EE408AF0EE608A51EC180B0DF0BD
:10253000ABF90146DA48416434E033E032E031E09F
:1025400030E02FE02EE0D7480DF04EFEB0EE408A8E
:10255000F0EE608A51EC180B0DF0B5F9D049887097
:10256000D0480DF041FEB0EE408AF0EE608A51ECAA
:10257000180B0DF0A8F9C1B2C94880F83E1011E05F
:102580000120FFF7C4FBC8200CF0D8FE0020FFF7A5
:10259000BEFB07E00320C24988700321C04880F8D1
:1025A0003E1000BF00BF81E780E7BC4890F82502DD
:1025B000C01E0B2845D2DFE800F006BEBE454F66C0
:1025C000BEBEBE727E00B7480DF00EFEB0EE408A71
:1025D000F0EE608A51EC180B0DF056F9B0498860A6
:1025E000B0480DF001FEB0EE408AF0EE608A51EC8A
:1025F000180B0DF049F90146A9484164A9480DF0AE
:10260000F3FDB0EE408AF0EE608A51EC180B0DF04D
:102610003BF90146A248C0F88010A2480DF0E4FD45
:1026200003E0FDE3E1E32BE287E0B0EE408AF0EE69
:10263000608A51EC180B0DF027F901469848C0F854
:10264000BC1078E001209649087081F83C0081F8C0
:10265000780081F8B4006EE0022091498870022170
:102660008F4880F83E1080F87A1080F8B61001206C
:102670008B49487001218A4880F83D1080F8791014
:1026800080F8B51057E003208549887003218448FD
:1026900080F83E1080F87A1080F8B6104BE00020E9
:1026A0007F49487000217E4880F83D1080F87910FD
:1026B00080F8B5103FE07B480DF096FDB0EE408A03
:1026C000F0EE608A51EC180B0DF016F900EE100ACE
:1026D000734880ED040A73480DF086FDB0EE408A21
:1026E000F0EE608A51EC180B0DF006F900EE100ABE
:1026F0006B4880ED130A6B480DF076FDB0EE408A12
:10270000F0EE608A51EC180B0DF0F6F800EE100AAE
:10271000634880ED220A63480DF066FDB0EE408A02
:10272000F0EE608A51EC180B0DF0E6F800EE100A9E
:102730005B4880ED310A00BF00BF584890F8250281
:10274000C01E1C287AD2DFE800F00E1C2A3A4A5A32
:10275000697A8A9AB1C0CF79DEFAF8F7F6F5F4F320
:10276000F2F1F0EF79EE002008E0002100EBC0026A
:1027700002EB42024C4B03F83210401C0828F4DBF9
:102780007CE148480DF030FDB0EE408AF0EE608A02
:1027900051EC180B0DF097F8434988706EE14148F1
:1027A0000DF022FDB0EE408AF0EE608A51EC180B7D
:1027B0000DF089F8C1B23C4880F8DA105EE1394882
:1027C0000DF012FDB0EE408AF0EE608A51EC180B6D
:1027D0000DF079F8C1B2344880F8B2114EE13148B9
:1027E0000DF002FDB0EE408AF0EE608A51EC180B5D
:1027F0000DF069F8C1B22C4880F88A123EE12948F0
:102800000DF0F2FCB0EE408AF0EE608A51EC180B4D
:102810000DF03AF801B2244841812FE121480DF032
:10282000E3FCB0EE408AF0EE608A51EC180B0DF03C
:102830002BF801B21C48A0F8E2101FE11DE1194875
:102840000DF0D2FCB0EE408AF0EE608A51EC180B2D
:102850000DF01AF801B21448A0F8BA110EE11148AF
:102860000DF0C2FCB0EE408AF0EE608A51EC180B1D
:102870000DF00AF801B20C48A0F89212FEE00948E7
:102880000DF0B2FCB0EE408AF0EE608A51EC180B0D
:102890000CF0FAFF04494860F0E0000066010020F7
:1028A000803100208D030020D4280020F3480DF053
:1028B0009BFCB0EE408AF0EE608A51EC180B0CF0F5
:1028C000E3FFEF49C1F8DC00D8E0EC480DF08CFCE8
:1028D000B0EE408AF0EE608A51EC180B0CF0D4FF99
:1028E000E749C1F8B401C9E0E4480DF07DFCB0EE61
:1028F000408AF0EE608A51EC180B0CF0C5FFE049FD
:10290000C1F88C02BAE0DD480DF06EFCB0EE408AF2
:10291000F0EE608A51EC180B0CF0D5FF81B2D8486C
:10292000A0F8A210AAE090E084E078E06CE061E01A
:1029300055E049E03DE032E021E010E0FFE7CF481C
:102940000DF052FCB0EE408AF0EE608A51EC180BAC
:102950000CF0B9FF81B2CA48A0F87A118EE0C748DE
:102960000DF042FCB0EE408AF0EE608A51EC180B9C
:102970000CF0A9FF81B2C248A0F852127EE0BF4815
:102980000DF032FCB0EE408AF0EE608A51EC180B8C
:102990000CF099FF81B2BA48A0F82A136EE0B9484A
:1029A00090F8280208B1012000E00020B449087026
:1029B00064E0B44890F8280208B1012000E000204B
:1029C000AF4981F8D80059E0AE4890F8280208B124
:1029D000012000E00020AA4981F8B0014EE0A9489A
:1029E00090F8280208B1012000E00020A44981F8F5
:1029F000880243E0A34890F8280208B1012000E0D3
:102A000000209F49487039E09E4890F8280208B19C
:102A1000012100E000219A4880F8D9102EE0994861
:102A200090F8280208B1012100E00021944880F8C4
:102A3000B11123E0934890F8280208B1012100E089
:102A400000218F4880F8891218E000218C4880F816
:102A5000C01080F8981180F8701280F8481380F840
:102A6000201480F8F81480F8D01580F8A81686A2F3
:102A700088A189480DF0A4FB00E000BF00BF15E568
:102A8000804890F82502C01E1C287DD2DFE800F0A7
:102A90000E1C2C3C4C5C6C7D8D9DACBBCA7CD9F46F
:102AA000F3F2F1F0EFEEEDECEBEA7CE9002008E068
:102AB000002100EBC00202EB4202714B03F832101E
:102AC000401C0828F4DB8DE16C480DF08DFBB0EE66
:102AD000408AF0EE608A51EC180B0CF0F4FEC1B2A3
:102AE000674880F862137DE164480DF07DFBB0EE2D
:102AF000408AF0EE608A51EC180B0CF0E4FEC1B293
:102B00005F4880F83A146DE15C480DF06DFBB0EE63
:102B1000408AF0EE608A51EC180B0CF0D4FEC1B282
:102B2000574880F812155DE154480DF05DFBB0EE9A
:102B3000408AF0EE608A51EC180B0CF0C4FEC1B272
:102B40004F4880F8EA154DE14C480DF04DFBB0EED2
:102B5000408AF0EE608A51EC180B0CF095FE01B241
:102B60004748A0F86A133DE144480DF03DFBB0EE44
:102B7000408AF0EE608A51EC180B0CF085FE01B231
:102B80003F48A0F842142DE12BE13C480DF02CFB0E
:102B9000B0EE408AF0EE608A51EC180B0CF074FE37
:102BA00001B23748A0F81A151CE134480DF01CFB9F
:102BB000B0EE408AF0EE608A51EC180B0CF064FE27
:102BC00001B22F48A0F8F2150CE12C480DF00CFBD7
:102BD000B0EE408AF0EE608A51EC180B0CF054FE17
:102BE0002749C1F86403FDE024480DF0FDFAB0EE7A
:102BF000408AF0EE608A51EC180B0CF045FE20493B
:102C0000C1F83C04EEE01D480DF0EEFAB0EE408A4B
:102C1000F0EE608A51EC180B0CF036FE1849C1F842
:102C20001405DFE015480DF0DFFAB0EE408AF0EE53
:102C3000608A51EC180B0CF027FE1149C1F8EC0525
:102C4000D0E00E480DF0D0FAB0EE408AF0EE608A87
:102C500051EC180B0CF037FE81B20948A0F80214B1
:102C6000C0E0A4E098E08CE080E074E068E05CE024
:102C700050E044E032E021E010E0F4E38D03002076
:102C8000D42800206601002028E380825FE3808250
:102C9000290000002573000031000020FE480DF0DF
:102CA000A3FAB0EE408AF0EE608A51EC180B0CF0FB
:102CB0000AFE81B2F948A0F8DA1493E0F6480DF064
:102CC00093FAB0EE408AF0EE608A51EC180B0CF0EB
:102CD000FAFD81B2F148A0F8B21583E0EE480DF09C
:102CE00083FAB0EE408AF0EE608A51EC180B0CF0DB
:102CF000EAFD81B2E948A0F88A1673E074E0E8487A
:102D000090F8280208B1012000E00020E34981F892
:102D1000600367E0E24890F8280208B1012000E073
:102D20000020DE4981F838045CE0DD4890F8280294
:102D300008B1012000E00020D84981F8100551E0D9
:102D4000D74890F8280208B1012000E00020D349BC
:102D500081F8E80546E0D24890F8280208B1012140
:102D600000E00021CD4880F861133BE0CC4890F8AA
:102D7000280208B1012100E00021C84880F8391478
:102D800030E0C74890F8280208B1012100E0002196
:102D9000C24880F8111525E0C14890F8280208B112
:102DA000012100E00021BD4880F8E9151AE000216A
:102DB000BA4880F8C01080F8981180F8701280F836
:102DC000481380F8201480F8F81480F8D01580F8A3
:102DD000A816AFF24C12AFF24411B2480DF0F0F960
:102DE00000E000BF00BF65E300BFAD4890F82502DA
:102DF000C01E0B2819D2DFE800F00619FD2A3B4C53
:102E000061769CC4EC000121084605F054FD0121C7
:102E1000022005F050FD0121032005F04CFD00E0EB
:102E2000EAE00121042005F046FDE3E00121084627
:102E300005F019FB0121022005F015FB01210320FB
:102E400005F011FB0121042005F00DFBD2E001216A
:102E5000084605F088FA0121022005F084FA0121D4
:102E6000032005F080FA0121042005F07CFAC1E07E
:102E70000121084605F0F3FB0121022005F0EFFBDC
:102E80000121032005F0EBFB0121042005F0E7FB05
:102E9000B0E001220321104605F0E7F901220321E9
:102EA000022005F0E2F901220321084605F0DDF9D0
:102EB00001220321042005F0D8F99BE001221146EC
:102EC000104605F0D2F901221146022005F0CDF995
:102ED00001221146032005F0C8F901221146042001
:102EE00005F0C3F986E06C480DF07EF9B0EE408A3B
:102EF000F0EE608A51EC180B0CF0C6FC6A490860D1
:102F0000012208460168104605F0CEFE01226648FF
:102F10000168022005F0C8FE012263480168032011
:102F200005F0C2FE012260480168042005F0BCFEE5
:102F300060E059480DF058F9B0EE408AF0EE608A32
:102F400051EC180B0CF0A0FC58490860012208460F
:102F50000168104605F01DFF0122544800684142F7
:102F6000022005F016FF012250480068414203206C
:102F700005F00FFF01224D480168042005F009FF0C
:102F800038E045480DF030F9B0EE408AF0EE608A46
:102F900051EC180B0CF078FC4549086001220846FA
:102FA0000168104605F011FD0122414800684142C8
:102FB000022005F00AFD01223D480068414203203D
:102FC00005F003FD01223A480168042005F0FDFCEC
:102FD00010E00121084605F0E6FD0121022005F080
:102FE000E2FD0121032005F0DEFD0121042005F0B2
:102FF000DAFD00BF00BF00BF294890F825021A285B
:1030000021D2DFE800F0200D21375E74A4D6FEFD4A
:10301000FCFBFAF9F8F7F6F5F4F3F2F1F0EFEEED68
:103020001D480DF0E1F8B0EE408AF0EE608A51ECF8
:10303000180B0CF048FC1F49087008460178012263
:10304000104603F032FB34E213480DF0CDF8B0EE39
:10305000408AF0EE608A51EC180B0CF034FC1549F4
:1030600081F85400084690F854100122022003F021
:103070001CFB1EE208480DF0B7F8B0EE408AF0EEF7
:10308000608A51EC180B0CF01EFC0A4981F8A8006C
:10309000084690F8A8100FE08D030020D4280020E7
:1030A0006601002031000020AC000020A8000020B4
:1030B000A4000020C02F00200122032003F0F5FA15
:1030C000F7E1FE480DF090F8B0EE408AF0EE608A2D
:1030D00051EC180B0CF0F7FBF94981F8FC0008469D
:1030E00090F8FC100122042003F0DFFAE1E1F4483B
:1030F0000078022813D1F1480DF076F8B0EE408A3E
:10310000F0EE608A51EC180B0CF0BEFBED49086044
:10311000012208460168104603F021FE16E0E84847
:103120000078052812D1E5480DF05EF8B0EE408A2F
:10313000F0EE608A51EC180B0CF0A6FBE249086037
:10314000012208460168104603F097FCB1E1DC4813
:1031500090F85400022813D1D8480DF045F8B0EE8D
:10316000408AF0EE608A51EC180B0CF08DFBD549CB
:103170000860012208460168022003F0F0FD17E014
:10318000CF4890F85400052812D1CC480DF02CF807
:10319000B0EE408AF0EE608A51EC180B0CF074FB34
:1031A000C9490860012208460168022003F065FC55
:1031B0007FE1C34890F8A800022826D1BF480DF04F
:1031C00013F8B0EE408AF0EE608A51EC180B0CF068
:1031D0005BFBBC490860012208460168032011E03E
:1031E00056E14BE14FE13FE1FAE042E12AE118E12B
:1031F00006E1E1E0CCE0B7E0A2E08DE078E063E05A
:103200004EE01BE003F0ABFD17E0AD4890F8A800DE
:10321000052812D1A9480CF0E7FFB0EE408AF0EE85
:10322000608A51EC180B0CF02FFBA74908600122B3
:1032300008460168032003F020FC3AE1A04890F81A
:10324000FC00022813D19D480CF0CEFFB0EE408A5E
:10325000F0EE608A51EC180B0CF016FB99490860EF
:10326000012208460168042003F079FD17E0944824
:1032700090F8FC00052812D190480CF0B5FFB0EE94
:10328000408AF0EE608A51EC180B0CF0FDFA8E4982
:103290000860012208460168042003F0EEFB08E103
:1032A00086480CF0A1FFB0EE408AF0EE608A51EC47
:1032B000180B0CF0E9FA85490860012208460168FC
:1032C000104603F059FCF4E07C480CF08DFFB0EEA2
:1032D000408AF0EE608A51EC180B0CF0D5FA7B496D
:1032E0000860012208460168022003F045FCE0E086
:1032F00072480CF079FFB0EE408AF0EE608A51EC33
:10330000180B0CF0C1FA71490860012208460168E7
:10331000032003F031FCCCE068480CF065FFB0EE10
:10332000408AF0EE608A51EC180B0CF0ADFA684957
:103330000860012265480168042003F01DFCB8E024
:103340005E480CF051FFB0EE408AF0EE608A51EC1E
:10335000180B0CF099FA5E490860012208460168D2
:10336000104603F088FCA4E054480CF03DFFB0EE9A
:10337000408AF0EE608A51EC180B0CF085FA544943
:103380000860012208460168022003F074FC90E006
:103390004A480CF029FFB0EE408AF0EE608A51EC0A
:1033A000180B0CF071FA4A490860012208460168BE
:1033B000032003F060FC7CE040480CF015FFB0EE09
:1033C000408AF0EE608A51EC180B0CF05DFA40492F
:1033D0000860012208460168042003F04CFC68E004
:1033E0003C4890F8280208B1012000E00020344950
:1033F0004870084641780122104603F034FA58E03C
:10340000344890F8280208B1012100E000212C483E
:1034100080F8551090F855100122022003F023FA8D
:1034200047E02C4890F8280208B1012100E0002173
:10343000234880F8A91090F8A9100122032003F076
:1034400012FA36E0234890F8280208B1012100E082
:1034500000211B4880F8FD1090F8FD100122042087
:1034600003F001FA25E025E00121084603F024FAE3
:103470001FE00121022003F01FFA1AE001210320BE
:1034800003F01AFA15E00121042003F015FA10E008
:103490000121084603F08CFA0121022003F088FA8A
:1034A0000121032003F084FA0121042003F080FAB3
:1034B00000BF00BF00BF002007490FE08D030020C0
:1034C000C02F0020780000206C0000207400002035
:1034D0007C000020660100201D00002008702021D3
:1034E000FE480CF0B6F9BDEC028B10BD10B50446D9
:1034F000FB48C07A50B92146FA4808F0B0F80121DB
:10350000F84808F08BF80120F549C87210BD10B5D5
:103510000024EE222146641CF3484254B122214685
:10352000641C425410222146641C4254002221464D
:10353000641C42542146641C42542146641C42547B
:1035400005222146641C425401222046611CCCB253
:10355000E5490A54FF222046611CCCB2E2490A54D4
:10356000FC222046611CCCB2DF490A54FF222046CF
:10357000611CCCB2DC490A542046611CCCB2DA4949
:103580000A54DA480078092881F0AF83DFE810F0A8
:10359000AD0B09000B000C000D005504AD0BAD0B7D
:1035A000A40801F0A3BBFCE7FBE7EE222046611C68
:1035B000CCB2CD490A54B1222046611CCCB2CA49D2
:1035C0000A5412222046611CCCB2C7490A54002278
:1035D0002046611CCCB2C4490A5404222046611C16
:1035E000CCB2C1490A54C248807800287ED000225B
:1035F0002046611CCCB2BC490A5404222046611CFE
:10360000CCB2B9490A5400222046611CCCB2B6495A
:103610000A54B7488278B7A1B7480CF0D1FDB64834
:103620000CF022F9C2B22046611CCCB2AE490A5459
:103630000819B1490CF01FF9AF480CF015F92044F6
:10364000C4B200222046611CCCB2A7490A54082209
:103650002046611CCCB2A4490A5400222046611CB9
:10366000CCB2A1490A54A248B0F91E20A1A1A24897
:103670000CF0A6FDA0480CF0F7F8C2B22046611C81
:10368000CCB299490A5408199B490CF0F4F89A48AD
:103690000CF0EAF82044C4B200222046611CCCB2EF
:1036A00091490A540C222046611CCCB28E490A541E
:1036B00000222046611CCCB28B490A548C48826996
:1036C0008CA18D480CF07CFD8B480CF0CDF8C2B27B
:1036D0002046611CCCB284490A54081986490CF072
:1036E000CAF885480CF0C0F8204400E069E0C4B294
:1036F00000222046611CCCB27B490A54112220468C
:10370000611CCCB278490A5400222046611CCCB21C
:1037100075490A547648B0F8A22076A176480CF094
:103720004FFD75480CF0A0F8C2B22046611CCCB227
:103730006D490A54081970490CF09DF86E480CF058
:1037400093F82044C4B200222046611CCCB26649E2
:103750000A5415222046611CCCB263490A54002247
:103760002046611CCCB260490A5401222046611CEB
:10377000CCB25D490A545E4802782046611CCCB246
:1037800059490A5400222046611CCCB256490A54B9
:1037900019222046611CCCB253490A54002220460B
:1037A000611CCCB250490A5401222046611CCCB2A3
:1037B0004D490A544E4842782046611CCCB24A49D1
:1037C0000A544B4890F8DA0000287DD000222046A9
:1037D000611CCCB244490A5405222046611CCCB27B
:1037E00041490A5400222046611CCCB23E490A5489
:1037F0003F4890F8DA203FA13F480CF0E1FC3E48FA
:103800000CF032F8C2B22046611CCCB236490A54E0
:10381000081939490CF02FF837480CF025F82044E6
:10382000C4B200222046611CCCB22F490A5409229E
:103830002046611CCCB22C490A5400222046611C4F
:10384000CCB229490A542A48B0F9F62029A12A48BD
:103850000CF0B6FC28480CF007F8C2B22046611CF8
:10386000CCB221490A54081923490CF004F8224823
:103870000BF0FAFF2044C4B200222046611CCCB2F7
:1038800019490A540D222046611CCCB216490A542B
:1038900000222046611CCCB213490A541448D0F8C7
:1038A000F02014A114480CF08BFC13480BF0DCFF43
:1038B000C2B22046611CCCB20B490A5408190E4909
:1038C0000BF0D9FF0C4800E080E00BF0CDFF204466
:1038D000C4B200222046611CCCB20FE08603002057
:1038E000E6030020A0600240860200201C000020A9
:1038F000D42800202564000068280020FE490A54CE
:1039000012222046611CCCB2FB490A5400222046F8
:10391000611CCCB2F8490A54F848B0F87A21AFF2E9
:103920002C01F7480CF04CFCF5480BF09DFFC2B29F
:103930002046611CCCB2F0490A540819F0490BF03A
:103940009AFFEF480BF090FF2044C4B200222046BB
:10395000611CCCB2E8490A5416222046611CCCB244
:10396000E5490A5400222046611CCCB2E2490A54BF
:1039700001222046611CCCB2DF490A54DF4890F88E
:10398000D8202046611CCCB2DB490A5400222046D4
:10399000611CCCB2D8490A541A222046611CCCB210
:1039A000D5490A5400222046611CCCB2D2490A549F
:1039B00001222046611CCCB2CF490A54CF4890F86E
:1039C000D9202046611CCCB2CB490A54CB4890F890
:1039D000B20100287DD000222046611CCCB2C6492D
:1039E0000A5406222046611CCCB2C3490A54002264
:1039F0002046611CCCB2C0490A54C04890F8B2219C
:103A0000AFF21011BE480CF0DBFBBD480BF02CFFF1
:103A1000C2B22046611CCCB2B7490A540819B84951
:103A20000BF029FFB6480BF01FFF2044C4B2002260
:103A30002046611CCCB2B0490A540A222046611CBF
:103A4000CCB2AD490A5400222046611CCCB2AA492E
:103A50000A54AA48B0F9CE21AFF26811A8480CF078
:103A6000AFFBA7480BF000FFC2B22046611CCCB2EE
:103A7000A1490A540819A2490BF0FDFEA0480BF019
:103A8000F3FE2044C4B200222046611CCCB29A4905
:103A90000A540E222046611CCCB297490A540022D7
:103AA0002046611CCCB294490A549448D0F8C821ED
:103AB000AFF2C01192480CF083FB91480BF0D4FE9A
:103AC000C2B22046611CCCB28B490A5408198C49F9
:103AD00000E072E00BF0CFFE89480BF0C5FE2044F9
:103AE000C4B200222046611CCCB283490A5413227E
:103AF0002046611CCCB280490A5400222046611C39
:103B0000CCB27D490A547D48B0F85222AFF21C2154
:103B10007B480CF055FB7A480BF0A6FEC2B220465B
:103B2000611CCCB274490A54081975490BF0A3FE04
:103B300073480BF099FE2044C4B200222046611C59
:103B4000CCB26D490A5417222046611CCCB26A4996
:103B50000A5400222046611CCCB267490A54012253
:103B60002046611CCCB264490A54644890F8B021E4
:103B70002046611CCCB260490A5400222046611CD8
:103B8000CCB25D490A541B222046611CCCB25A4972
:103B90000A5400222046611CCCB257490A54012223
:103BA0002046611CCCB254490A54544890F8B121C3
:103BB0002046611CCCB250490A54504890F88A0201
:103BC00000287DD000222046611CCCB24A490A540C
:103BD00007222046611CCCB247490A5400222046E5
:103BE000611CCCB244490A54444890F88A22AFF28E
:103BF000FC2143480CF0E4FA41480BF035FEC2B218
:103C00002046611CCCB23C490A5408193C490BF0CF
:103C100032FE3B480BF028FE2044C4B2002220466E
:103C2000611CCCB234490A540B222046611CCCB230
:103C300031490A5400222046611CCCB22E490A5454
:103C40002E48B0F9A622AFF254312D480CF0B8FA44
:103C50002B480BF009FEC2B22046611CCCB22649AB
:103C60000A54081926490BF006FE25480BF0FCFD06
:103C70002044C4B200222046611CCCB21E490A5422
:103C80000F222046611CCCB21B490A540022204658
:103C9000611CCCB218490A541848D0F8A022AFF2DF
:103CA000AC3117480CF08CFA15480BF0DDFDC2B2B0
:103CB0002046611CCCB210490A540819104900E092
:103CC00079E00BF0D8FD0E480BF0CEFD2044C4B2D5
:103CD00000222046611CCCB207490A541422204617
:103CE000611CCCB204490A5400222046611CCCB2AB
:103CF00001490A54014805E086020020D42800202A
:103D000068280020B0F82A23AFF21841FE480CF0D2
:103D100057FAFD480BF0A8FDC2B22046611CCCB298
:103D2000FA490A540819F8490BF0A5FDF6480BF0BA
:103D30009BFD2044C4B200222046611CCCB2F34952
:103D40000A5418222046611CCCB2F0490A540022C1
:103D50002046611CCCB2ED490A5401222046611C68
:103D6000CCB2EA490A54EA4890F888222046611CFD
:103D7000CCB2E6490A5400222046611CCCB2E34989
:103D80000A541C222046611CCCB2E0490A5400228D
:103D90002046611CCCB2DD490A5401222046611C38
:103DA000CCB2DA490A54DA4890F889222046611CDC
:103DB000CCB2D6490A5400222046611CCCB2D34969
:103DC0000A5410222046611CCCB2D0490A54002269
:103DD0002046611CCCB2CD490A54CE4ACEA1CA4875
:103DE0000CF0EEF9C8480BF03FFDC2B22046611C52
:103DF000CCB2C6490A540819C3490BF03CFDC2486D
:103E00000BF032FD2044C4B2FF222046611CCCB22C
:103E1000BE490A54FC222046611CCCB2BB490A545C
:103E2000FF222046611CCCB2B8490A542046611CCE
:103E3000CCB2B6490A5400F059BFEE222046611CAC
:103E4000CCB2B2490A54B1222046611CCCB2AF496F
:103E50000A5412222146601CC4B2AC4842540022CB
:103E60002046611CCCB2A9490A5405222046611C97
:103E7000CCB2A6490A54A64890F8620300287DD027
:103E800000222046611CCCB2A0490A5404222046DC
:103E9000611CCCB29D490A5400222046611CCCB260
:103EA0009A490A549A4890F86223AFF2B85196485A
:103EB0000CF086F994480BF0D7FCC2B22046611C86
:103EC000CCB292490A5408198F490BF0D4FC8E48A1
:103ED0000BF0CAFC2044C4B200222046611CCCB2C4
:103EE0008A490A5408222046611CCCB287490A54E8
:103EF00000222046611CCCB284490A548448B0F99F
:103F00007E23AFF2106180480CF05AF97E480BF026
:103F1000ABFCC2B22046611CCCB27C490A540819E1
:103F200079490BF0A8FC78480BF09EFC2044C4B201
:103F300000222046611CCCB274490A540C2220464F
:103F4000611CCCB271490A5400222046611CCCB2DB
:103F50006E490A546E48D0F87823AFF268616A4817
:103F60000CF02EF968480BF07FFCC2B22046611CB1
:103F7000CCB266490A540819634900E072E00BF0BC
:103F80007AFC61480BF070FC2044C4B20022204649
:103F9000611CCCB25D490A5411222046611CCCB28E
:103FA0005A490A5400222046611CCCB257490A548F
:103FB0005748B0F80224AFF2C46153480CF000F93E
:103FC00051480BF051FCC2B22046611CCCB24F49A3
:103FD0000A5408194C490BF04EFC4B480BF044FCBA
:103FE0002044C4B200222046611CCCB247490A5486
:103FF00015222046611CCCB244490A5400222046B6
:10400000611CCCB241490A5401222046611CCCB249
:104010003E490A543E4890F860232046611CCCB2C9
:104020003A490A5400222046611CCCB237490A544E
:1040300019222046611CCCB234490A540022204681
:10404000611CCCB231490A5401222046611CCCB219
:104050002E490A542E4890F861232046611CCCB2A8
:104060002A490A542A4890F83A0400287ED00022AF
:104070002046611CCCB225490A5405222046611C09
:10408000CCB222490A5400222046611CCCB21F49FE
:104090000A541F4890F83A24AFF2A8711A480CF05D
:1040A0008FF819480BF0E0FBC2B22046611CCCB27D
:1040B00016490A54081914490BF0DDFB12480BF09D
:1040C000D3FB2044C4B200222046611CCCB20F496D
:1040D0000A5409222046611CCCB20C490A54002221
:1040E0002046611CCCB209490A540948B0F956244B
:1040F000AFF6000104480CF063F803480BF0B4FB82
:10410000C2B22046611C09E0682800208602002017
:10411000D42800203100002025730000CCB2FE49D5
:104120000A540819FD490BF0A6FBFC480BF09CFB58
:104130002044C4B200222046611CCCB2F6490A5485
:104140000D222046611CCCB2F3490A5400222046BD
:10415000611CCCB2F0490A54F148D0F85024AFF6B3
:104160006C01EE480CF02CF8EC4800E07DE00BF020
:104170007BFBC2B22146601CC4B2E74842540146F0
:104180000819E6490BF077FBE4480BF06DFB20447F
:10419000C4B200222046611CCCB2DF490A5412226C
:1041A0002046611CCCB2DC490A5400222146601C26
:1041B000C4B2D9484254DA48B0F8DA24AFF6CC0198
:1041C000D6480BF0FDFFD5480BF04EFBC2B220469F
:1041D000611CCCB2D0490A540819D0490BF04BFBF2
:1041E000CE480BF041FB2044C4B200222146601CA3
:1041F000C4B2C948425416222146601CC4B2C64803
:10420000425400222046611CCCB2C3490A54012208
:104210002046611CCCB2C0490A54C14890F83824E9
:104220002046611CCCB2BC490A5400222046611CC5
:10423000CCB2B9490A541A222046611CCCB2B64904
:104240000A5400222046611CCCB2B3490A54012210
:104250002046611CCCB2B0490A54B14890F83924C8
:104260002046611CCCB2AC490A54AD4890F8120506
:1042700000287DD000222046611CCCB2A6490A54F9
:1042800006222046611CCCB2A3490A5400222046D3
:10429000611CCCB2A0490A54A14890F81225AFF68F
:1042A000AC119E480BF08CFF9C480BF0DDFAC2B2BB
:1042B0002046611CCCB298490A54081997490BF062
:1042C000DAFA96480BF0D0FA2044C4B20022204615
:1042D000611CCCB290490A540A222046611CCCB21F
:1042E0008D490A5400222046611CCCB28A490A54E6
:1042F0008B48B0F92E25AFF6042188480BF060FFFB
:1043000086480BF0B1FAC2B22046611CCCB2824999
:104310000A54081981490BF0AEFA80480BF0A4FA50
:104320002044C4B200222046611CCCB27A490A540F
:104330000E222046611CCCB277490A540022204646
:10434000611CCCB274490A547548D0F82825AFF6E0
:104350005C2172480BF034FF70480BF085FAC2B252
:104360002046611CCCB26C490A5408196B4900E024
:1043700072E00BF080FA69480BF076FA2044C4B280
:1043800000222046611CCCB263490A541322204605
:10439000611CCCB260490A5400222046611CCCB298
:1043A0005D490A545E48B0F8B225AFF6B8215B48C3
:1043B0000BF006FF59480BF057FAC2B22046611CB9
:1043C000CCB255490A54081954490BF054FA5348D1
:1043D0000BF04AFA2044C4B200222046611CCCB241
:1043E0004D490A5417222046611CCCB24A490A544E
:1043F00000222046611CCCB247490A5401222046C3
:10440000611CCCB244490A54454890F81025214615
:10441000601CC4B24048425400222046611CCCB209
:104420003D490A541B222046611CCCB23A490A5429
:1044300000222046611CCCB237490A540122204692
:10444000611CCCB234490A54354890F811252046F5
:10445000611CCCB230490A54314890F8EA05002872
:104460007ED000222146601CC4B22B484254072251
:104470002046611CCCB228490A5400222046611C07
:10448000CCB225490A54264890F8EA25AFF69C316B
:1044900022480BF095FE21480BF0E6F9C2B2204607
:1044A000611CCCB21C490A5408191C490BF0E3F9F1
:1044B0001A480BF0D9F92044C4B200222046611CEE
:1044C000CCB215490A540B222046611CCCB21249C9
:1044D0000A5400222046611CCCB20F490A541048ED
:1044E000B0F90626AFF6F4310C480BF069FE0B4824
:1044F0000BF0BAF9C2B22046611CCCB206490A548C
:10450000081906490BF0B7F904480BF0ADF920443F
:10451000C4B20022204605E0860200206828002060
:10452000D4280020611CCCB2FE490A540F22204638
:10453000611CCCB2FB490A5400222046611CCCB25B
:10454000F8490A54F848D0F80026AFF65841F74821
:104550000BF036FEF5480BF087F9C2B2204600E0BA
:1045600078E0611CCCB2EF490A540819EF490BF00E
:1045700082F9EE480BF078F92044C4B200222046BC
:10458000611CCCB2E7490A5414222046611CCCB20B
:10459000E4490A5400222046611CCCB2E1490A5485
:1045A000E148B0F88A26AFF6B441E0480BF008FEC7
:1045B000DE480BF059F9C2B22046611CCCB2D94991
:1045C0000A540819D9490BF056F9D8480BF04CF9A0
:1045D0002044C4B200222046611CCCB2D1490A5406
:1045E00018222146601CC4B2CE4842540022204604
:1045F000611CCCB2CB490A5401222046611CCCB2CA
:10460000C8490A54C84890F8E8252046611CCCB235
:10461000C4490A5400222046611CCCB2C1490A5444
:104620001C222046611CCCB2BE490A5400222046FE
:10463000611CCCB2BB490A5401222046611CCCB299
:10464000B8490A54B84890F8E9252046611CCCB214
:10465000B4490A5400222146601CC4B2B1484254F5
:1046600010222146601CC4B2AE48425400222146AA
:10467000601CC4B2AB484254AD4AAFF26451AB487F
:104680000BF09EFDA9480BF0EFF8C2B22046611C6A
:10469000CCB2A4490A540819A4490BF0ECF8A34879
:1046A0000BF0E2F82044C4B2FF222046611CCCB2D9
:1046B0009C490A54FC222046611CCCB299490A54F8
:1046C000FF222046611CCCB296490A542046611C48
:1046D000CCB294490A5409E3EE222046611CCCB2C4
:1046E00090490A54B1222046611CCCB28D490A542B
:1046F00012222046611CCCB28A490A54002220466C
:10470000611CCCB287490A5408222146601CC4B2FD
:10471000844842548748007800287DD000222046F3
:10472000611CCCB27F490A5401222046611CCCB2E4
:104730007C490A5400222046611CCCB279490A54B3
:104740007C480278AFF6546178480BF039FD774821
:104750000BF08AF8C2B22046611CCCB271490A54EF
:10476000081972490BF087F870480BF07DF8204467
:10477000C4B200222046611CCCB26A490A54052208
:104780002046611CCCB267490A5400222046611CB5
:10479000CCB264490A5467484269AFF6A8616348DD
:1047A0000BF00EFD61480BF05FF8C2B22046611CB1
:1047B000CCB25C490A5408195C490BF05CF85B48C0
:1047C0000BF052F82044C4B200222046611CCCB247
:1047D00054490A5409222046611CCCB251490A545A
:1047E00000222046611CCCB24E490A5451488269CD
:1047F000AFF600714D480BF0E3FC4C480BF034F879
:10480000C2B22046611CCCB246490A540819474935
:104810000BF031F8454800E022E00BF025F8204489
:10482000C4B200222046611CCCB23E490A54152273
:104830002046611CCCB23B490A5400222046611C30
:10484000CCB238490A5401222046611CCCB2354909
:104850000A54384842782046611CCCB231490A5487
:10486000344890F85400002866D000222046611C8D
:10487000CCB22C490A5402222146601CC4B22948F9
:10488000425400222046611CCCB226490A542948D1
:1048900090F85420AFF6A47124480BF091FC234803
:1048A0000AF0E2FFC2B22046611CCCB21D490A5494
:1048B00008191E490AF0DFFF1C480AF0D5FF204402
:1048C000C4B200222046611CCCB216490A5406220A
:1048D0002046611CCCB213490A5400222046611CB8
:1048E000CCB210490A541348826EAFF6F8710F48E3
:1048F0000BF066FC0D480AF0B7FFC2B22146601CFF
:10490000C4B2084842540146081908490AF0B3FFE6
:1049100006480AF0A9FF2044C4B200222146601CC8
:10492000C4B20AE086020020D428002068280020B3
:1049300031000020C02F002045E0EF4842540A22F9
:104940002046611CCCB2EC490A5400222046611C6E
:10495000CCB2E9490A54E948C26EE9A1E9480BF032
:104960002FFCE8480AF080FFC2B22046611CCCB29E
:10497000E1490A540819E3490AF07DFFE1480AF0C9
:1049800073FF2044C4B200222046611CCCB2DA4935
:104990000A5411222046611CCCB2D7490A54002285
:1049A0002046611CCCB2D4490A5401222046611C25
:1049B000CCB2D1490A54D14890F855202146601C08
:1049C000C4B2CD484254CD4890F8A80000287DD00C
:1049D00000222046611CCCB2C7490A54032220465B
:1049E000611CCCB2C4490A5400222046611CCCB2DE
:1049F000C1490A54C14890F8A820C1A1C1480BF090
:104A0000DFFBC0480AF030FFC2B22046611CCCB2C6
:104A1000B9490A540819BB490AF02DFFB9480AF0F0
:104A200023FF2044C4B200222046611CCCB2B2490C
:104A30000A5407222046611CCCB2AF490A54002216
:104A40002146601CC4B2AC484254AC48D0F8BC20EB
:104A5000ABA1AC480BF0B4FBAA480AF005FFC2B208
:104A60002046611CCCB2A4490A540819A5490AF091
:104A700002FFA4480AF0F8FE2044C4B200222046F7
:104A8000611CCCB29C490A540B222046611CCCB25A
:104A900099490A5400222146601CC4B296484254E7
:104AA0009648D0F8C02096A196480BF089FB95480F
:104AB0000AF0DAFEC2B22046611CCCB28E490A541A
:104AC000081990490AF0D7FE8E4800E023E00AF06A
:104AD000CBFE2044C4B200222146601CC4B28648EA
:104AE000425412222046611CCCB283490A5400224F
:104AF0002046611CCCB280490A5401222046611C28
:104B0000CCB27D490A547D4890F8A9202146601C0A
:104B1000C4B279484254794890F8FC0000287DD00E
:104B200000222046611CCCB273490A54042220465C
:104B3000611CCCB270490A5400222046611CCCB2E0
:104B40006D490A546D4890F8FC206DA16D480BF03A
:104B500037FB6C480AF088FEC2B22046611CCCB21A
:104B600065490A54081967490AF085FE65480AF044
:104B70007BFE2044C4B200222046611CCCB25E49B8
:104B80000A5408222046611CCCB25B490A54002218
:104B90002046611CCCB258490A545848D0F810211C
:104BA00057A158480BF00CFB56480AF05DFEC2B204
:104BB0002046611CCCB250490A54081951490AF0E8
:104BC0005AFE50480AF050FE2044C4B2002220464B
:104BD000611CCCB248490A540C222046611CCCB25C
:104BE00045490A5400222146601CC4B2424842543E
:104BF0004248B0F90C2142A142480BF0E1FA414889
:104C00000AF032FEC2B22046611CCCB23A490A54C4
:104C100008193C490AF02FFE3A4800E023E00AF068
:104C200023FE2044C4B200222046611CCCB232498B
:104C30000A5413222046611CCCB22F490A54002288
:104C40002146601CC4B22C48425401222046611CFB
:104C5000CCB229490A54294890F8FD202146601C0D
:104C6000C4B22548425400222046611CCCB22249DD
:104C70000A541E222146601CC4B21F48425400221E
:104C80002146601CC4B21C4842541F481FA1026840
:104C90001C480BF095FA1B480AF0E6FDC2B220460C
:104CA000611CCCB214490A54081916490AF0E3FDF4
:104CB00014480AF0D9FD2044C4B2FF222046611CEA
:104CC000CCB20D490A54FC222046611CCCB20A49E0
:104CD0000A54FF222046611CCCB207490A542046E0
:104CE000611CCCB204490A5400E000BF00BF20465A
:104CF000FEF7FCFB10BD000086020020C02F002044
:104D00002564000068280020800000202523580A20
:104D10000000000000B597B00121042007F02AF838
:104D20000121880407F059F80121480507F022F80D
:104D300007220A21634806F062FE07220B21614820
:104D400006F05DFE4FF44060119002208DF848009F
:104D500000208DF84A0003208DF8490000208DF8CE
:104D60004B0011A9574806F0BFFD4FF4E1301390F6
:104D70000020ADF85000ADF85200ADF85400ADF889
:104D800058000C20ADF8560013A94F4807F0D0FF8B
:104D9000012240F225514C4808F008F927208DF8EF
:104DA000400004208DF8410000208DF842000120D1
:104DB0008DF8430010A805F0F2FD444806F052FBC0
:104DC0004FF0006001900020059040200490404882
:104DD00003903D48001D02900015079000200690AA
:104DE000099008900A904FF440300B9000200C90EE
:104DF00001200D9000200F900E9001A9334806F07D
:104E0000D3FB3449314806F082FC32492F4806F082
:104E1000D9FC0E208DF8400002208DF841000420BE
:104E20008DF8420001208DF8430010A805F0B7FD71
:104E300001221021254806F07EFC01228021224813
:104E400008F0ABF817B000BD10B522491F4806F0B6
:104E50008FFC01280AD11F491C4806F058FC1D4947
:104E60001A4806F0AFFC00201B49087310BD70B54E
:104E700004460D461848007B78B92A462146144856
:104E80000AF0CEFC2946114806F0E9FB01210F4843
:104E900006F0C4FB01201049087370BD10B540F244
:104EA0002551094808F0BDF850B12021064808F006
:104EB000AFF840F22551044808F0EAF804F0A0FFEA
:104EC00010BD000000080240004800405860024049
:104ED000A603002000800018E60300200022826163
:104EE0000160C26100230362436280ED031A80ED1A
:104EF000010AC0ED020AC0ED041A70470168826918
:104F0000891AC161C269016A511A00EE101AB8EE1D
:104F1000C00AD0ED010A20EE200A90ED021AC16904
:104F200000EE901AF8EEE00A01EE200AC269416A2A
:104F30000A44016AA2EB410100EE901AF8EEE00A81
:104F400090ED031A01EE200ABDEEC00A10EE101A11
:104F50004161026A4262C269026270472DE9F04112
:104F600086B004460D4616461F464FF00008002046
:104F70008DF80C008DF80D0008208DF80E0040F221
:104F8000FF18CDF80480042001F026F850B98848B5
:104F900090F86003012805D1200A8DF80F008DF8E4
:104FA000104005E000208DF80F0000218DF8101052
:104FB000052001F011F850B97D4890F83804012817
:104FC00005D1290A8DF811108DF8125004E0002146
:104FD0008DF811108DF81210062000F0FDFF50B969
:104FE000734890F81005012805D1310A8DF8131087
:104FF0008DF8146004E000218DF813108DF8141062
:10500000072000F0E9FF50B9694890F8E805012849
:1050100005D1390A8DF815108DF8167004E00021BD
:105020008DF815108DF8161001A9624805F0B4FE30
:1050300006B0BDE8F0812DE9F04186B004460D468A
:1050400016461F464FF0000800208DF80C008DF822
:105050000D0008208DF80E004FF40078CDF8048084
:10506000002000F0B9FF48B951480078012805D167
:10507000200A8DF80F008DF8104005E000208DF813
:105080000F0000218DF81010012000F0A5FF50B98D
:10509000474890F8D800012805D1290A8DF8111049
:1050A0008DF8125004E000218DF811108DF81210C7
:1050B000022000F091FF50B93D4890F8B00101285E
:1050C00005D1310A8DF813108DF8146004E0002129
:1050D0008DF813108DF81410032000F07DFF50B9E7
:1050E000334890F88802012805D1390A8DF8151047
:1050F0008DF8167004E000218DF815108DF816104B
:1051000001A92C4805F048FE06B0BDE8F08100205A
:105110004BE000EBC00101EB4101254A02EBC1016C
:10512000B1F90810002908DD00EBC00101EB4101D5
:1051300002EBC101B1F9081009E000EBC00101EB7D
:1051400041011B4A02EBC101B1F90810494200EBD1
:10515000C00202EB4202164B03EBC202B2F8D020AF
:10516000914220DD00EBC00101EB41011A4602EB48
:10517000C101B1F90810002902DA4FF0FF3100E057
:10518000012100EBC00202EB4202094B03EBC20219
:10519000B2F8D02051430AB200EBC00101EB41014B
:1051A00003EBC1010A81411CC8B20828B1DB70477A
:1051B000D42800200068004010B54FF40050FE498C
:1051C0000880FE4908801320FB4988702420FB4991
:1051D000887043F69910F849888042F22830F749E0
:1051E00088809FEDF70AF44880ED020A9FEDF50AEA
:1051F000084680ED020A0020F34908709FEDF30A8B
:10520000084680ED010A012008724FF47A70488147
:10521000012008734FF47A70C88140000882012091
:1052200088740020C8744FF4FA60E949888300202C
:105230004860E848E14B0ECB4C300EC00020E549F9
:10524000803908704870052088700020486064210B
:10525000E0488038418132210181C168DFEDDE1AEA
:105260009FEDDE1ADFEDDE0AB0EE0C0A4830FFF7E4
:1052700035FED8488038B0F90A10F7EE001A9FEDD5
:10528000D91ADFEDD90AB1EE040A7030FFF726FE15
:105290001422CD49CF4818300AF0C2FACD48D83090
:1052A000C64B0ECB4C300EC00020CA49803981F865
:1052B000D8000021C748803880F8D910052180F82F
:1052C000DA100021C0F8DC106421A0F8E2103221CD
:1052D000A0F8E010C168DFEDC01A9FEDC01ADFED45
:1052E000C00AB0EE0C0A00F59070FFF7F7FDB94860
:1052F0008038B0F90A10F7EE001A9FEDBA1ADFED08
:10530000BA0AB1EE040A00F5A470FFF7E7FD142213
:10531000AD49B048F0300AF083FAB448A74B0ECB41
:105320004C300EC00020AB49803981F8B00100211B
:10533000A848803880F8B111052180F8B211002109
:10534000C0F8B4116421A0F8BA113221A0F8B81144
:10535000C168DFEDA11A9FEDA11ADFEDA10AB0EE41
:105360000C0A00F5FC70FFF7B9FD9A488038B0F9D7
:105370000A10F7EE001A9FED9B1ADFED9B0AB1EEC3
:10538000040A00F50870FFF7A9FD14228E4997481A
:1053900018300AF045FA9548D830884B0ECB4C307F
:1053A0000EC000208B49803981F88802002189488D
:1053B000803880F88912052180F88A120021C0F80F
:1053C0008C126421A0F892123221A0F89012C168C8
:1053D000DFED811A9FED811ADFED810AB0EE0C0A34
:1053E00000F53470FFF77AFD7A488038B0F90A107A
:1053F000F7EE001A9FED7B1ADFED7B0AB1EE040A8F
:1054000000F53E70FFF76AFD14226F497748F030CF
:105410000AF006FA7648684B0ECB4C300EC00020DE
:105420006C49803981F8600300216A48803880F82F
:105430006113052180F862135F21C0F864136421B1
:10544000A0F86A133221A0F86813C168DFED621A70
:105450009FED621ADFED640AB2EE000A00F56A7091
:10546000FFF73CFD5B488038B0F90A10F7EE001AF0
:105470009FED5A1ADFED5C0AB2EE000A00F5747077
:10548000FFF72CFD14225049594818300AF0C8F98A
:105490005748D830484B0ECB4C300EC000204D49F9
:1054A000803981F8380400214A48803880F839145E
:1054B000052180F83A146FF05E01C0F83C146421B5
:1054C000A0F842143221A0F84014C168DFED421A5E
:1054D0009FED421ADFED440AB2EE000A00F590603B
:1054E000FFF7FCFC3B488038B0F90A10F7EE001AD1
:1054F0009FED3A1ADFED3C0AB2EE000A00F5956026
:10550000FFF7ECFC142230493948F0300AF088F9F2
:105510003848294B0ECB4C300EC000202D49803925
:1055200081F8100500212B48803880F811150521DD
:1055300080F812155F21C0F814156421A0F81A151F
:105540003221A0F81815C168DFED231A9FED231A48
:10555000DFED250AB2EE000A00F5AB60FFF7BEFCF6
:105560001C488038B0F90A10F7EE001A9FED1B1A9C
:10557000DFED1D0AB2EE000A00F5B060FFF7AEFCE9
:10558000142211491B4818300AF04AF91948D8303A
:10559000094B0ECB4C300EC000200E49803981F8EB
:1055A000E80500210B48803880F8E915052180F8CE
:1055B000EA156FF05E011FE0942800208828002083
:1055C000F6283C4077BEC340A02800200000E144FC
:1055D000B428002054290020CDCCCC3E000000008F
:1055E0008FC2F53DCDCC4C3E9A99993E042B0020BC
:1055F000B42C0020642E0020C0F8EC156421A0F823
:10560000F2153221A0F8F015C1685FED0D1A1FEDFB
:105610000D1A5FED0B0AB2EE000A00F5C660FFF747
:105620005DFCFE48B0F90A10F7EE001A1FED151ADE
:105630005FED130AB2EE000A00F5CB60FFF74EFCF7
:105640001422F749F7480AF0EBF80024BBE004EB1A
:10565000C40000EB4000F14901EBC000F2490968C9
:10566000C0F8AC10F048416804EBC40000EB400007
:10567000EA4A02EBC000C0F8B01004EBC40101EB31
:10568000410102EBC10101F1B4000A22E6490831EF
:105690000AF0C6F8E448418A04EBC40000EB40007D
:1056A000DE4A02EBC000A0F8BE1004EBC40000EB21
:1056B0004000114601EBC000AC30DB4A53699169F0
:1056C000D269C0E90531C26104EBC40000EB4000BF
:1056D000D24901EBC000D0ED270A04EBC40000EB77
:1056E000400001EBC00090F8CE0000EE100AB8EECA
:1056F000400A20EE800A04EBC40000EB400001EBFE
:10570000C000D0ED350A60EE200A04EBC40000EBC7
:10571000400001EBC000B0F8CC0000EE100AB8EE7B
:10572000400A20EE800ADFEDC10A80EE201ABCEEAE
:10573000C10A04EBC40000EB400001EBC00080EDA7
:105740002B0A04EBC40000EB400001EBC0004068F2
:1057500000EE100AB8EEC00A04EBC40000EB4000F3
:1057600001EBC000D0ED350A60EE200A04EBC40066
:1057700000EB400001EBC00090F8CE0000EE100AF4
:10578000B8EE400A60EE800A04EBC40000EB400073
:1057900001EBC000B0F8CC0000EE100AB8EE400AF1
:1057A00020EE800ADFEDA10A80EE201ABDEEC10ACC
:1057B00010EE100A04EBC40101EB4101974A02EB21
:1057C000C101C860641C082CFFF641AF0020984955
:1057D000C870887048700871087000BF0BE044F210
:1057E000506200EBC00101EB41018C4B03EBC101A6
:1057F000A1F8A220401C0428F1DB10BD00224521A5
:105800000A54026200218161704710B5044604EB1E
:10581000C40000EB4000814901EBC000D0ED200A3C
:1058200004EBC40000EB400001EBC000B0F90A003B
:1058300000EE100AB8EEC00A20EE800ABDEEC00AE3
:1058400010EE100A04EBC40101EB4101734A02EBB4
:10585000C101086704EBC40000EB4000114601EBF6
:10586000C000B0F91E1004EBC40000EB400002EBD6
:10587000C000C0F8881004EBC40101EB410102EB49
:10588000C10101F17000FFF739FB04EBC40000EB2C
:105890004000624901EBC000018904EBC40000EB49
:1058A00040005E4A02EBC000D0F88400084401B218
:1058B00004EBC40000EB400002EBC000018110BD0E
:1058C00010B5044604EBC40000EB4000534901EB63
:1058D000C000406800EE100AB8EEC00A04EBC40035
:1058E00000EB400001EBC000D0ED350A60EE200A6D
:1058F00004EBC40000EB400001EBC00090F8CE00C8
:1059000000EE100AB8EE400A60EE800A04EBC40014
:1059100000EB400001EBC000B0F8CC0000EE100A34
:10592000B8EE400A20EE800ADFED400A80EE201A31
:10593000BDEEC10A10EE100A04EBC40101EB4101F7
:10594000364A02EBC101C86004EBC40000EB400022
:10595000114601EBC000C06804EBC40101EB41013A
:1059600002EBC101886404EBC40000EB4000114667
:1059700001EBC000407870B904EBC40000EB4000BC
:1059800001EBC000D0F8B00004EBC40101EB410111
:1059900002EBC101886404EBC40000EB40001F4926
:1059A00001EBC000016A04EBC40000EB40001B4A9D
:1059B00002EBC000016604EBC40101EB410102EB04
:1059C000C10101F14800FFF799FA04EBC40000EBB4
:1059D0004000124901EBC000D0ED160A04EBC400F0
:1059E00000EB400001EBC000C06D00EE100AB8EE05
:1059F000C00A20EE800ABDEEC00A10EE100A04EBC9
:105A0000C40101EB4101054A02EBC101086704EB47
:105A1000C40000EB400011460CE00000D428002038
:105A2000A0280020542F0020B42800200000B443F8
:105A30002000002001EBC00090F8A00088B304EB28
:105A4000C40000EB400001EBC000006F002807DD40
:105A500004EBC40000EB400001EBC000006F08E065
:105A600004EBC40000EB4000FE4901EBC000006FF6
:105A7000404204EBC40101EB4101FA4A02EBC101CF
:105A8000B1F8A21088421FDD04EBC40000EB400017
:105A9000114601EBC000006F002803DA4FF0FF3021
:105AA00001E011E0012004EBC40101EB4101ED4AEA
:105AB00002EBC101B1F8A210484304EBC40101EBB1
:105AC000410102EBC101086704EBC40000EB400098
:105AD000E44901EBC000B0F91E1004EBC40000EB78
