:020000040800F2
:1000000038B10020F5CF0008AD9F0008AF9F000871
:10001000C19F0008C59F0008C99F0008000000009C
:10002000000000000000000000000000CD9F00085C
:10003000CF9F0008000000005FF20008C3F4000832
:100040000FD000080FD000080FD000080FD0000814
:100050000FD000080FD000080FD000080FD0000804
:100060000FD000080FD000080FD000080FD00008F4
:100070000FD000080FD00008854A00080FD00008F4
:100080000FD00008F11E00080FD000080FD00008A4
:10009000410900080FD000080FD000080FD0000859
:1000A0000FD000080FD000080FD000080FD00008B4
:1000B0003F030008A70500080FD000080FD0000874
:1000C0000FD000080FD000080FD000080FD0000894
:1000D0000FD000080FD00008171F0008D94A0008E9
:1000E0000FD000080FD000080FD000080FD0000874
:1000F0000FD000080FD000080FD000080FD0000864
:100100000FD000080FD000080FD000080FD0000853
:100110000FD000080FD000080FD000080FD0000843
:100120000FD000080FD000080FD000080FD0000833
:100130000FD000080FD000080FD000080FD0000823
:1001400041110008071300080FD000080FD0000865
:100150000FD000080FD00008E11D00080FD00008E4
:100160000FD000080FD000080FD000080FD00008F3
:100170000FD000080FD000080FD000080FD00008E3
:100180000FD000080FD00008DFF80CD00FF012FCE1
:10019000004800474D1C000838B1002030BF72B63F
:1001A000704762B6704780F30888704710B5082022
:1001B00010F058F8044600206060204610BD012071
:1001C00044494871704710B505F086FF424806F073
:1001D00036F807F07DFD404807F011FE04F00AFEF6
:1001E00007F09EFAFFF7EBFF002019E0002100EB7B
:1001F00080023A4B03EB4202517000EB800203EBAA
:10020000420291714FF47A7100EB800203EB4202DB
:100210005180002100EB800203EB42029180401CE0
:100220000228E3DBFFF7C2FF2D49486010BD002222
:100230000A7803780B700270704770B506460C465A
:10024000354600E06D6815B16868A042FAD14CB13E
:100250006068686020460FF0DDFF21480078401E8E
:100260001F49087070BD02460B46114605E008881C
:10027000984201D10846704749680029F7D100200B
:10028000F9E72DE9F041074688463C4641462046BD
:10029000FFF7E9FF08B1BDE8F081002602E06468DD
:1002A000701CC6B20E480078B04201DD002CF6D1B9
:1002B0006CB108200FF0D6FF0546A5F800806068F5
:1002C0006860656006480078401C0549087000BFFA
:1002D000E1E70000C603002000680040280100207C
:1002E000040000201FB5012108460BF010FC41F668
:1002F000573002900520ADF804000020ADF806004C
:10030000ADF80C0001A94FF080400BF0B8FD0122C0
:10031000114690070CF054FA012188070BF038FEC3
:100320001C208DF8000003208DF8010001208DF8BD
:1003300002008DF8030068460AF0CBF91FBD10B526
:10034000012188070CF053FA012875D100246FE0D1
:10035000C4EBC40000EB40007A4901EB8000407818
:10036000002864D00EF034FFC4EBC40101EB41015E
:10037000744A02EB8101096C411AC4EBC40000EB22
:10038000400002EB8000B0F8440081421BD9C4EB6E
:10039000C40000EB4000114601EB800090F84700DC
:1003A000012810D1C4EBC40000EB400001EB800039
:1003B000808F401C81B2C4EBC40000EB400002EB14
:1003C0008000818708E00021C4EBC40000EB4000FE
:1003D0005C4A02EB80008187C4EBC40000EB400064
:1003E000584901EB8000808FB0F57A7F13DD012141
:1003F000C4EBC40000EB4000524A02EB8000C1771E
:10040000022009F0B9FA032009F0A4FD4FF4FA70B4
:1004100009F0B9FB0BE0002009F09CFD0021C4EBC2
:10042000C40000EB4000474A02EB8000C177641C27
:10043000042C8DD3002405E07FE0204605F01BFD51
:10044000601CC4B2082CF8DB002474E004EBC40088
:1004500000EB04103C4901EB80004078002868D094
:100460000EF0B6FE04EBC40101EB0411364A02EBB8
:100470008101096D411A04EBC40000EB041002EB8A
:100480008000B0F8540081421DD904EBC40000EB99
:100490000410114601EB800090F85700012812D19A
:1004A00004EBC40000EB041001EB8000B0F84C003A
:1004B000401C81B204EBC40000EB041002EB80008E
:1004C000A0F84C1009E0002104EBC40000EB04107C
:1004D0001D4A02EB8000A0F84C1004EBC40000EBB6
:1004E0000410194901EB8000B0F84C00642813DDBA
:1004F000012104EBC40000EB0410134A02EB80005E
:1005000080F82F10022009F037FA042009F022FDAC
:10051000C82009F038FB0CE0002009F01BFD002189
:1005200004EBC40000EB0410074A02EB800080F8E3
:100530002F10601CC4B2042C88DB012188070CF04A
:1005400067F910BDA02D00208C3000201FB50121BF
:1005500002200BF0DCFA42F6DF6002900720ADF8D3
:1005600004000020ADF80600ADF80C0001A94248D7
:100570000BF085FC012211463F480CF021F90121C6
:100580003D480BF005FD1D208DF8000001208DF881
:10059000010000208DF8020001208DF8030068465C
:1005A0000AF097F81FBD10B5012133480CF01FF970
:1005B00001285FD1012130480CF02AF905F0BFF97C
:1005C000002432E004EBC40000EB40002B4911F89A
:1005D000300028B304EBC40000EB400001EBC00086
:1005E0004078F0B104EBC40000EB400001EBC00028
:1005F0008078012806D0022805D004280BD00528D1
:100600000DD104E00CE020B204F01DFF08E020B2A0
:1006100004F074FF04E020B205F0E0F800E000BF51
:1006200002E020B204F06AFF641C082CCADB04F06C
:100630008CFB124CB4F99032B4F9B821B4F9E01043
:10064000B4F9080004F015FBB4F9F035B4F9182535
:10065000B4F94014B4F9680304F09EFA0849094853
:1006600009F0C1F80849094809F0BDF808490548EA
:1006700009F0B9F810BD000000040040B4260020C5
:100680009865002000680040B463002000640040CA
:100690007C67002000B58BB0012148060BF037FACB
:1006A000012108460BF000FA09220B21FE480BF04D
:1006B00040F809220C21FC480BF03BF802208DF891
:1006C00018004FF4C050059005A9F7480AF0A6FF9E
:1006D00014208DF8280003208DF8290000208DF8C3
:1006E0002A0001208DF82B000AA809F0F2FFEF483C
:1006F0000AF05AF807A80AF07BF900208DF82200CA
:100700008DF823008DF824008DF825008DF8260043
:100710008DF827008DF81E008DF81F0008208DF839
:10072000200003208DF82100ADF81C0007A9DF4848
:100730000AF053F801208DF80E008DF80F0000200C
:100740008DF8100046F2A000ADF8040046F2C0009B
:10075000ADF8060046F2E000ADF808004FF4C240E4
:10076000ADF80A000020ADF80C0001208DF8110052
:1007700001A80AF0BCF803208DF80E0001208DF8C6
:100780000F0000208DF810004FF4C840ADF80400B1
:1007900046F22000ADF8060046F24000ADF8080031
:1007A00046F26000ADF80A000020ADF80C00012010
:1007B0008DF8110001A80AF09AF804208DF80E00B7
:1007C00000208DF80F0001208DF810000820ADF8F2
:1007D000040042F60400ADF806004FF6FF70ADF8D5
:1007E0000800ADF80A000020ADF80C0001208DF8DB
:1007F000110001A80AF07BF801220221AB480AF09F
:1008000075FB0BB000BD10B50446A9484088401CDC
:100810001E2190FBF1F201FB1200A54909888842D4
:1008200003D10120A349887110BD20688038A049F8
:100830004A88091D01EB02110860A17A9C48428890
:10084000001D00EB02100171A27A99494B88091D25
:1008500001EB0311481D04F10B010EF07BFE9448DF
:100860004088401C1E2190FBF1F201FB12009049D0
:10087000488000BFD8E710B501468D484088401C2D
:100880001E2290FBF2F302FB1300894A1288904269
:1008900003D10120874A907110BDA1F18002844BE1
:1008A0005C881B1D03EB04131A600523804A5488DF
:1008B000121D02EB0412137142237D4A5488121D4B
:1008C00002EB041253717A4A5488121D02EB04128F
:1008D00093714723764A5488121D02EB0412D37198
:1008E0004A1FD0B200EBC00202EB4202724B03EB94
:1008F000C202926900EE102AB8EEC00AF3EE0E0AA8
:1009000020EE200ABDEEC00A10EE102A12B26B4B88
:1009100023F810201A4632F81030654A5488121D08
:1009200002EB0412138100BF61484088401C1E2264
:1009300090FBF2F302FB13005D4A508000BFABE76F
:1009400010B586B0022159480AF038FB00287CD047
:10095000022156480AF0CDFB022154480AF00BFB55
:1009600001AA002151480AF0A6F99DF80C000028C0
:100970006CD19DF80D000028FAD140F205310198A4
:1009800088420BD0491C0198884207D0491C019825
:10099000884203D00198B0F5427F7CD10198401F76
:1009A000C4B29DF80F0043280FD19DF810005728BE
:1009B0000BD19DF81100482807D19DF81200552849
:1009C00003D101A8FFF71FFFC7E09DF80F004328E0
:1009D00028D19DF81000482824D1BDF811003749CE
:1009E00021F81400084630F9140000EE100AB8EEA1
:1009F000C00AF3EE0E0A80EE201ABDEEC10A10EE18
:100A0000100A04EBC40101EB41012B4A02EBC101C6
:100A10004860012004EBC40101EB410102EBC1017C
:100A200048709AE09DF80F0053281BD19DF81000E4
:100A3000502817D1BDF81100214921F814000846AB
:100A400030F8141004EBC40001E046E1F9E000EBDB
:100A50004000194A02EBC000A0F8A21001A8FFF75D
:100A6000D2FE7AE09DF80F004D2833D19DF810009A
:100A70004F282FD19DF8110001282BD1052004EB20
:100A8000C40101EB41010C4A02EBC1018870012055
:100A900004EBC40100E061E001EB410102EBC101A4
:100AA000487004EBC4010DE0000002400064004007
:100AB000B4630020C6030020B42600200C000020F0
:100AC0001400002001EB410102F8310001A8FFF7FA
:100AD0009AFE42E09DF80F004D2819D19DF81000B4
:100AE0004F2815D19DF8110090B9002004EBC401E6
:100AF00001EB41017A4A02F8310004EBC40101EB39
:100B0000410102EBC101487001A8FFF77CFE24E01F
:100B10009DF80F00532810D19DF8100054280CD1D7
:100B2000002004EBC40101EB41016D4A02EBC1015D
:100B3000487001A8FFF767FE0FE09DF80F004228FC
:100B40000BD19DF81000422807D19DF811004728CD
:100B500003D1019988B2FFF78EFE00BF0198B0F56E
:100B6000487F6ED1BDF80F005E490880BDF81100C6
:100B70004880BDF813008880BDF81500C88008467D
:100B8000B0F9000000EE100AB8EEC00AF3EE0E0A4B
:100B900080EE201ABDEEC10A10EE100A50494860DE
:100BA00001204870052088704E48B0F9020000EE20
:100BB000100AB8EEC00AF3EE0E0A80EE201ABDEE5F
:100BC000C10A10EE100AC1F8DC000121444880F887
:100BD000D910052180F8DA104248B0F9040000EE7F
:100BE000100AB8EEC00AF3EE0E0A80EE201ABDEE2F
:100BF000C10A10EE100A3A49C1F8B401012138487F
:100C000080F8B111052180F8B2113648B0F906001C
:100C100000EE100AB8EEC00AF3EE0E0A80EE201ABB
:100C2000BDEEC10A10EE100A2D49C1F88C02012157
:100C30002B4880F88912052180F88A1201A8FFF755
:100C4000E2FD9DF80C00042847D12749029888420C
:100C500043D19DF810006B283FD19DF811004C281E
:100C60003BD19DF8120001280CD1AA211C48C0F8E4
:100C700064134942C0F83C14AA21C0F81415494233
:100C8000C0F8EC159DF8120060B95F211448C0F857
:100C900064134942C0F83C145F21C0F8141549425E
:100CA000C0F8EC15BDF8130081B20D48A0F802148D
:100CB000BDF8130081B20A48A0F8DA14BDF8130099
:100CC00081B20748A0F8B215BDF8130081B20448FC
:100CD000A0F88A1601A8FFF796FD06B010BD000027
:100CE000B42600200C000020000501002DE9F04191
:100CF0008AB004460D4616469846109F0121880684
:100D00000AF005FF012102200AF0CEFE092205218A
:100D1000FE480AF00EFD09220621FC480AF009FDF2
:100D200002208DF814006020049004A9F7480AF00E
:100D300075FC40208DF8240002208DF8250000204D
:100D40008DF8260001208DF8270009A809F0C1FCC4
:100D500041208DF8240002208DF8250001208DF817
:100D600026008DF8270009A809F0B3FCE84809F02F
:100D70001BFD06A809F03CFE00208DF81E008DF832
:100D80001F008DF820008DF821008DF822008DF8CD
:100D900023008DF81A708DF81B408DF81C608DF8BB
:100DA0001D500320ADF8180006A9D94809F015FD1B
:100DB0000E208DF80A0001208DF80B0000208DF820
:100DC0000C0044F22000ADF8000044F24000ADF801
:100DD000020044F26000ADF804004FF48140ADF829
:100DE00006000020ADF8080001208DF80D006846CF
:100DF00009F07DFD0F208DF80A0001208DF80B0011
:100E000000208DF80C0044F2A000ADF8000044F280
:100E1000C000ADF8020044F2E000ADF804004FF469
:100E20008240ADF806000020ADF8080001208DF8E2
:100E30000D00684609F05BFD10208DF80A000120C6
:100E40008DF80B0000208DF80C0045F22000ADF865
:100E5000000045F24000ADF8020045F26000ADF838
:100E600004004FF4A140ADF806000120ADF80800E1
:100E70008DF80D00684609F03AFD11208DF80A0042
:100E800001208DF80B0000208DF80C0045F2A00029
:100E9000ADF8000045F2C000ADF8020045F2E000F8
:100EA000ADF804004FF4A240ADF806000120ADF803
:100EB00008008DF80D00684609F019FD12208DF824
:100EC0000A0001208DF80B0000208DF80C004FF473
:100ED0008150ADF800004FF48250ADF802004FF49D
:100EE0008350ADF804004FF48450ADF806000120A3
:100EF000ADF808008DF80D00684609F0F8FC1320E5
:100F00008DF80A0001208DF80B0000208DF80C00F0
:100F10004FF48550ADF800004FF48650ADF8020054
:100F20004FF48750ADF804004FF48850ADF8060038
:100F30000120ADF808008DF80D00684609F0D7FCD7
:100F400014208DF80A0000208DF80B0001208DF888
:100F50000C000020ADF800004FF49040ADF8020006
:100F60004FF6FF70ADF804004FF47840ADF806007E
:100F70000120ADF808008DF80D00684609F0B7FCB7
:100F800015208DF80A0001208DF80B0000208DF847
:100F90000C004BF22000ADF800004BF24000ADF821
:100FA00002004BF26000ADF804004BF28000ADF897
:100FB00006000120ADF808008DF80D00684609F024
:100FC00096FC16208DF80A0001208DF80B000020F9
:100FD0008DF80C004FF40150ADF800004FF40250B2
:100FE000ADF80200ADF80400ADF806000120ADF840
:100FF00008008DF80D00684609F079FC01221021E7
:10100000434809F073FF01220221414809F06EFFB5
:1010100000200AB0BDE8F08170B5044604EBC400BE
:1010200000EB40003B4901EBC000B0F9080000288C
:1010300008DD04EBC40000EB400001EBC000B0F998
:10104000080009E004EBC40000EB4000314901EB6B
:10105000C000B0F90800404204EBC40101EB4101BB
:101060002C4A02EBC101B1F8D010884220DD04EB1C
:10107000C40000EB4000114601EBC000B0F90800CD
:10108000002802DA4FF0FF3000E0012004EBC40139
:1010900001EB41011F4A02EBC101B1F8D0104843F6
:1010A00001B204EBC40000EB400002EBC000018180
:1010B00004EBC40000EB4000164911F8300040B9C1
:1010C000002104EBC40000EB4000124A02EBC00018
:1010D0000181042C04DA4FF400700F49086003E02A
:1010E00040F2FF100C49086000200B49487208725A
:1010F0000820887204F00B00450004EBC40000EBEC
:101100004000044901EBC000018907E000040240EF
:1011100000680040B426002034040020FE484153FB
:1011200002466B1CD1185019FFF781F8032C01D02F
:10113000072C04D1F8490B39F84809F0C7FC70BDF9
:1011400010B586B001AA0021F44809F0B4FD9DF85D
:101150000C00002877D19DF80C00002873D19DF871
:101160000E0008286FD10198B0F5007F6BD9019867
:10117000B0F5027F67D80198401EC4B2E84850F825
:101180002400E84941F824000EF022F8E44941F82F
:101190002400084650F82400E24951F82410401A6F
:1011A000E14941F824009DF812109DF8110041EA30
:1011B000002001B204EBC40000EB4000DB4A02EB6C
:1011C000C000C1839DF810009DF80F1040EA012176
:1011D00004EBC40000EB400002EBC00041629DF84C
:1011E00014109DF8130041EA002001B204EBC40082
:1011F00000EB400002EBC00081839DF8151004EB6A
:10120000C40000EB400002EBC000018504EBC40009
:1012100000EB4000114601EBC00090F8460088B991
:10122000012104EBC40000EB400002EBC00080F899
:101230004610002104EBC40000EB400002EBC000AC
:10124000A0F8B41000BF0221B44809F052FF0221F7
:10125000B24809F090FE06B010BDF0B585B0074663
:101260000D46002412200090019000208DF8080007
:101270008DF809008DF80A5000BF05E0395D0DF1C9
:101280000B000155601C84B2AC42F7DB6946A348F1
:1012900009F01CFC0646002401E0601C84B23146C3
:1012A0009E4809F0ABFC18B940F6FF708442F4DBAD
:1012B00040F6FF70844202DB012005B0F0BD002043
:1012C000FBE74168491C4160002101730169491E27
:1012D0000161818A491C1E2291FBF2F302FB13116A
:1012E000818270474168491C416000210173016996
:1012F000491E0161818A491C1E2291FBF2F302FB07
:1013000013118182704710B586B01021834809F00F
:1013100055FE002874D001AA0121804809F0CBFCB9
:1013200010217E4809F0E5FE10217C4809F023FEDB
:101330000198B0F5B06F74D940F285510198884298
:101340006FD89DF80D0000286BD10198A0F2815054
:10135000C4B2002104EBC40000EB0410744A02EB99
:10136000800080F857109DF80F004F2809D19DF894
:101370001000602805D19DF81100602801D10120DE
:1013800000E000209DF80F10432909D19DF81010AE
:10139000622905D19DF81110602901D1012100E0D9
:1013A000002108439DF80F10432909D19DF8101022
:1013B000642905D19DF81110602901D1012100E0B7
:1013C000002108439DF80F10432909D19DF8101002
:1013D0006B2905D19DF81110602901D1012100E090
:1013E000002108439DF80F1043290AD19DF81010E1
:1013F0006C2906D19DF81110602902D1012101E06C
:101400000AE3002108439DF80F104B290AD19DF8EB
:101410001010402906D19DF81110602902D1012138
:1014200001E054E1002108439DF80F104B2909D138
:101430009DF81010772905D19DF81110602901D170
:10144000012100E00021084330B1C4EB8411394A86
:1014500002EBC100FFF746FF9DF80F004B2816D1A5
:101460009DF81000402812D19DF8110060280ED17F
:101470009DF81300C01008B1012000E0002004EB2B
:10148000C40101EB04112A4A02EB810148709DF866
:101490000F004F2810D19DF8100060280CD19DF846
:1014A0001100602808D19DF8130004EBC40101EB82
:1014B00004111F4A02F821009DF80F0043285DD156
:1014C0009DF81000622859D19DF81100602855D16F
:1014D000DDF8131004EBC40000EB0410144A02EB17
:1014E0008000016104EBC40000EB0410114601EB25
:1014F000800090ED180A9FED101AC1EE000A04EB6F
:10150000C40000EB041001EB8000006900EE100A3B
:10151000B8EEC00A12E000003F040020006800405E
:10152000F4030020D403002014040020B42600207B
:101530008C300020005600200000B44320EE800ACA
:10154000B1EE001AC0EE010A04EBC40000EB041077
:1015500001EB8000B0F85C0000EE100AB8EE400A23
:1015600080EE801ABDEEC10A10EE100A00B204EB44
:10157000C40101EB041102EB810188809DF80F008A
:10158000432849D19DF81000642845D19DF81100E9
:10159000602841D1DDF8131004EBC40000EB041007
:1015A000FE4A02EB8000416204EBC40000EB041031
:1015B000114601EB800090ED180A1FED211AC1EED3
:1015C000000A04EBC40000EB041001EB8000406A49
:1015D00000EE100AB8EEC00A20EE800AB1EE001A42
:1015E000C0EE010A04EBC40000EB041001EB800024
:1015F000B0F85C0000EE100AB8EE400A80EE801AE7
:10160000BDEEC10A10EE100A00B204EBC40101EBFA
:10161000041102EB810108839DF80F00432811D1CA
:101620009DF810006B280DD19DF81100602809D19C
:10163000DDF8131004EBC40000EB0410D74A02EBF2
:101640008000C1609DF80F00432811D19DF8100063
:101650006C280DD19DF81100602809D1DDF8131018
:1016600004EBC40000EB0410CC4A02EB80000162E2
:101670009DF80F004B2829D19DF81000772825D11F
:101680009DF81100602821D1DDF8131004EBC4008F
:1016900000EB0410C14A02EB8000816204EBC4003D
:1016A00000EB0410114601EB8000806A00EE100A86
:1016B000B8EEC00ADFEDBA0A80EE201A04EBC400CF
:1016C00000EB041001EB800080ED071A00BF0198C9
:1016D000B0F5207F7ED90198B0F5227F7AD89DF8A9
:1016E0000D00002876D10198A0F28120C4B200211B
:1016F000C4EBC40000EB4000AA4A02EB800080F873
:1017000047109DF80F0041280BD19DF81000432889
:1017100007D19DF8120000F04000012801D00120FF
:1017200000E000209DF80F1042290BD19DF8101009
:10173000472907D19DF8121001F04001012901D07D
:10174000012100E0002108439DF80F104A290BD128
:101750009DF81010562907D19DF8121001F0400194
:10176000012901D0012100E0002108439DF80F105C
:101770004D290BD19DF810104F2907D19DF812105B
:1017800001F04001012901D0012100E000210843BE
:101790009DF80F1050290BD19DF81010522907D138
:1017A0009DF8121001F04001012901D0012100E053
:1017B000002108439DF80F1053290CD19DF81010FB
:1017C000442908D19DF8121001F04001012902D0EE
:1017D000012101E0FAE0002108439DF80F10532990
:1017E0000BD19DF81010542907D19DF8121001F06B
:1017F0004001012901D0012100E0002108439DF8AA
:101800000F1054290BD19DF81010432907D19DF8D2
:10181000121001F04001012901D0012100E0002156
:1018200008439DF80F1055290BD19DF810104D2934
:1018300007D19DF8121001F04001012901D00121CA
:1018400000E00021084330B1C4EB8411564A02EB9A
:10185000C100FFF736FD9DF80F004D2817D19DF808
:1018600010004F2813D19DF8120000F0400001280D
:101870000DD09DF8130008B1012000E00020C4EB5A
:10188000C40101EB4101474A02EB810148709DF818
:101890000F0056282FD19DF8100058282BD19DF805
:1018A000120000F04000012825D0DDF81310C4EB31
:1018B000C40000EB40003B4A02EB80004161C4EBF6
:1018C000C40000EB4000114601EB8000B0F84C0072
:1018D0003C2190FBF1F1C4EBC40000EB400002EBB3
:1018E0008000406990FBF1F1C4EBC40000EB4000C4
:1018F00002EB800041619DF80F00502841D19DF816
:10190000100058283DD19DF8120000F04000012839
:1019100037D0DDF81300C4EBC40101EB4101214ACB
:1019200002EB81018861C4EBC40101EB410102EBD0
:10193000810191ED140A9FED1D1AC1EE000A00EE1F
:10194000100AB8EEC00A60EE800AC4EBC40101EBD5
:10195000410102EB8101B1F84C1000EE101AB8EE13
:10196000400A80EE801ABDEEC10A10EE101A09B2CC
:10197000C4EBC40202EB42020A4B03EB8202118267
:1019800000BF9DF80F0049281FD19DF81000512875
:101990001BD19DF8120000F0400009E08C300020BF
:1019A00000000843A02D0020304A00200000B4436E
:1019B00001280AD0BDF8130001B2C4EBC40000EB4B
:1019C0004000254A02EB8000418200BF0198812837
:1019D00021D3019888281ED89DF80D00D8B9019808
:1019E0008138C4B2621C022343EA021242F44071FD
:1019F0001A4A5068FEF745FC4FF08051019841EAC1
:101A000000409DF80F1040EA01209DF81010084397
:101A10001349086000BF00BF06B010BD30B585B0E7
:101A2000054600210F4809F0C9F910B9002005B09A
:101A300030BD6A4600210C4809F03DF9002404E05D
:101A40000DF10B00005D2855641C9DF80A00A042B2
:101A5000F6D89DF80A00EAE7A02D00200400002037
:101A600060000020006400400068004042E0012067
:101A7000B7EE000A08F08AFD0220B0EE000A08F076
:101A800085FD0320B0EE080A08F080FD04209FEDDC
:101A9000890A08F07BFD0520B1EE040A08F076FD06
:101AA0000620B1EE080A08F071FD0720B1EE0C0A1D
:101AB00008F06CFD0820B2EE000A08F067FD09206E
:101AC000B2EE020A08F062FD7B49096800EE901A46
:101AD000F8EE600AB0EE600A0A2008F057FD0A200E
:101AE00008F0A5FD0146754800F063F94FF4FA705F
:101AF0000DF0BEFABBE74FF47A700DF0B9FA012091
:101B00006F4981F8600381F8380481F8100581F885
:101B1000E80501216A4880F8611380F8391480F8DB
:101B2000111580F8E91505E004F01EFA40F24C406A
:101B30000DF09EFAF8E706E0012006F07FF84FF47A
:101B40007A700DF095FAF7E703E04FF47A700DF034
:101B50008FFAFAE725E0012005F070FD01241AE074
:101B60000121204605F099FC32200DF081FA012177
:101B7000204605F092FA32200DF07AFA0121204633
:101B800005F0C1FB32200DF073FA0121204605F06B
:101B9000F0FA601CC4B2052CE2DB4FF496600DF045
:101BA00067FAD8E707E008F078F908F0E4F84FF4AE
:101BB00096700DF05DFAF6E705E001F0ADFA40F63B
:101BC000B8300DF055FAF8E770B50446002500BFAF
:101BD000022007F0D1FE002008F0BCF901F09CFAC9
:101BE0000DF085FC0DF01AFB05460D23354A00214A
:101BF00035480CF0F7FE1E23344A002134480CF01F
:101C0000F1FE0A23334A002133480CF0EBFE0F2388
:101C1000324A002132480CF0E5FE1023314A0021FF
:101C200031480CF0DFFE0923304A002130480CF027
:101C3000D9FE0E232F4A00212F480CF0D3FE052099
:101C40000DF04EF928460DF0EDFA70BD08B54FF4D1
:101C5000FA6007F098FF0BF033F94FF4A06008F03A
:101C600033FDFEF717FD00200323082219460090DC
:101C7000FFF73CF807F0ACFD07F064FE08F04AF906
:101C800000F0D0F800F03EF807F0A0FF08F0E4F80C
:101C9000FEF728FBFEF75AFCFEF795FA0BF0F4FA74
:101CA0000523164A002116480CF09CFE0BF013FC8D
:101CB000002008BD0000C8432404004060690020E3
:101CC000B426002044100020B91B00084412002054
:101CD000A51B0008441A0020551B0008441E0020C4
:101CE000491B000844220020371B0008441600202E
:101CF000F71A0008442600206D1A00084408002046
:101D0000C91B00081CB54048006840F010003E495F
:101D100008603D481438006840F480003A4914399E
:101D200008600120022100230A46CDE900104FF48B
:101D3000C061364808F0B6FA07220921334808F096
:101D400091FA07220A21314808F08CFA40F2D92092
:101D50002F4908814FF4037088810846008820F0DD
:101D600020000880032325220121062008F0ECF939
:101D70004FF48070274B264A121D042100902648FC
:101D800008F026F901221021234809F06EFB0323F5
:101D900046220021072008F0D7F91D48808A40F02C
:101DA00080001B4988820846808940F40050888161
:101DB0001CBD70B504460D461848807A78B92A468D
:101DC000214614480DF0C6FB2946134809F0E1FAF4
:101DD0000121114809F0BCFA01201049887270BD38
:101DE00010B50F490C4809F05DFB01280AD10C49D8
:101DF000094809F026FB0A49074809F07DFB002045
:101E00000649887210BD00004438024000000240BC
:101E10000010014046010020B8640240C6030020C3
:101E2000008000281CB5FA48006840F40030F849EA
:101E30000860F7481038006840F40010F449103981
:101E400008600120022100230A46CDE900100C2180
:101E5000F04808F027FA07220221EE4808F002FABB
:101E600007220321EB4808F0FDF94FF4B670EA4968
:101E700008800C20091D0880E7480838008820F0F9
:101E80002000E54908390880E348001D008840F03B
:101E90002000E149091D0880032326220221042095
:101EA00008F052F94FF48070DC4BDB4A121F04211A
:101EB0000090DB4808F08CF801221021D84809F086
:101EC000D4FA032311220221072008F03DF9D24859
:101ED0000C30008840F08000CF490C310880CE489B
:101EE000001D008840F40050CB49091D08801CBD2E
:101EF00010B5CC49CA4809F0D5FA01280AD1C94918
:101F0000C74809F09EFAC749C54809F0F5FA00200C
:101F1000C549C87210BD10B52DED028B002440F2EA
:101F20002531BD4808380AF016FF60B1BA480838B4
:101F30000AF04FFE0020BD4908702021BC480DF07A
:101F400022FB01F0D5B840F22551B34808380AF019
:101F500002FF0028F5D02021AF4808380AF0F2FE31
:101F600040F22551AC4808380AF02CFFAA4808383E
:101F70000AF02FFEC4B2AD48007800F0400008B36C
:101F8000AA48007800F0800020BBFF2C06D1A748AB
:101F9000007840F08000A54908701BE0A348007855
:101FA00000F03F01A2484454A0480078401C9F49DB
:101FB00008700846007800F03F0028280ADD00205D
:101FC000087007E0EE2C05D19848007840F04000FA
:101FD000964908709548007800F080000028B0D03D
:101FE000944890F8200212287BD1924890F8210260
:101FF000102877D2DFE800F008121C28343F4A5539
:1020000060778C9DAEBAC8D601208B49087081F8E4
:10201000D80081F8B00181F88802C7E00020864925
:10202000087081F8D80081F8B00181F88802BDE01D
:1020300001208149487001217F4880F8D91080F83B
:10204000B11180F88912B1E000207B49487000216D
:10205000794880F8D91080F8B11180F88912A5E08C
:102060000120754981F8600381F8380481F8100572
:1020700081F8E8059AE000206F4981F8600381F853
:10208000380481F8100581F8E8058FE001216A48DD
:1020900080F8611380F8391480F8111580F8E9157B
:1020A00084E00021644880F8611380F8391480F8D6
:1020B000111580F8E91579E001221146104604F067
:1020C000C0F901221146022004F0BBF90122114699
:1020D000032004F0B6F901221146042004F0B1F9FE
:1020E00064E064E061E001220021104604F0A9F9F7
:1020F00001220021104604F0A4F90122002103204E
:1021000004F09FF901220021042004F09AF94DE027
:102110000121084604F0BEF90121022004F0BAF9B9
:102120000121032004F0B6F90121042004F0B2F9E2
:102130003CE00121084604F029FA0121022004F0C4
:1021400025FA0121032004F021FA0121042004F0E2
:102150001DFA2BE000203849486000213648C0F8BD
:10216000DC10C0F8B411C0F88C121FE02D203249E9
:10217000486041423048C0F8DC102D21C0F8B4114D
:102180004942C0F88C1211E05A202B494860414264
:102190002948C0F8DC105A21C0F8B4114942C0F8EF
:1021A0008C1203E007F01AFC00E000BF00BF2148DA
:1021B00090F82102012804D11E4890F823021F49FB
:1021C00008701C4890F8230209287CD2DFE800F050
:1021D000053F4041FDFC7BFBFA00164890F82502C4
:1021E000082831D1012080F3138800BF00BFBFF35E
:1021F0004F8F1348006800F4E06012490843001D47
:102200000F490860BFF34F8F00BF00BF00BFFDE75D
:1022100040380240000002400844004066020020AE
:10222000A060024000802020C60300201D00002086
:102230006603002046010020B42600201C00002078
:102240000CED00E00000FA0500BF00BFD8E3FDE799
:10225000FCE7F84890F82502C01E0B2842D2DFE8C0
:1022600000F006C0C0424C63C0C0C06F7B00F248A3
:102270000DF02AFEB0EE408AF0EE608A51EC180BA9
:102280000DF09CF9ED498860EB480DF01DFEB0EEB5
:10229000408AF0EE608A51EC180B0DF08FF9014680
:1022A000E6484164E4480DF00FFEB0EE408AF0EEDF
:1022B000608A51EC180B0DF081F90146DF48C0F837
:1022C0008010DD4800E09CE30DF0FEFDB0EE408A9A
:1022D000F0EE608A51EC180B0DF070F90146D7480A
:1022E000C0F8BC107DE00120D449087081F83C00A2
:1022F00081F8780081F8B40073E00220CF4988703B
:102300000221CE4880F83E1080F87A1080F8B6108E
:102310000120CA4948700121C84880F83D1080F862
:10232000791080F8B5105CE00320C449887003215F
:10233000C24880F83E1080F87A1080F8B61050E05D
:102340000020BE4948700021BC4880F83D1080F84C
:10235000791080F8B51044E0B7480DF0B5FDB0EE47
:10236000408AF0EE608A51EC180B0DF05FF900EE38
:10237000100AB24880ED040AAF480DF0A5FDB0EE9A
:10238000408AF0EE608A51EC180B0DF04FF900EE28
:10239000100AAA4880ED130AA7480DF095FDB0EE8B
:1023A000408AF0EE608A51EC180B0DF03FF900EE18
:1023B000100AA24880ED220A9F480DF085FDB0EE7C
:1023C000408A03E0F0E31DE395E10CE0F0EE608A63
:1023D00051EC180B0DF02AF900EE100A974880ED29
:1023E000310A00BF00BF934890F82502C01E1A288A
:1023F00079D2DFE800F00D1B2939495968798999AC
:10240000A7B6C578D4EFFFECEBEAE9E8E7E6E5E448
:10241000002008E0002100EBC00202EB4202884BE2
:1024200003F83210401C0828F4DB62E182480DF00A
:102430004BFDB0EE408AF0EE608A51EC180B0DF0C7
:10244000DCF87F49887054E17B480DF03DFDB0EE2B
:10245000408AF0EE608A51EC180B0DF0CEF8C1B254
:10246000774880F8DA1044E173480DF02DFDB0EEA6
:10247000408AF0EE608A51EC180B0DF0BEF8C1B244
:102480006F4880F8B21134E16B480DF01DFDB0EEDD
:10249000408AF0EE608A51EC180B0DF0AEF8C1B234
:1024A000674880F88A1224E163480DF00DFDB0EE14
:1024B000408AF0EE608A51EC180B0DF07FF801B203
:1024C0005F48418115E15C480DF0FEFCB0EE408AAA
:1024D000F0EE608A51EC180B0DF070F801B258481C
:1024E000A0F8E21005E103E153480DF0EDFCB0EE79
:1024F000408AF0EE608A51EC180B0DF05FF801B2E3
:102500004F48A0F8BA11F4E04B480DF0DDFCB0EEF6
:10251000408AF0EE608A51EC180B0DF04FF801B2D2
:102520004748A0F89212E4E043480DF0CDFCB0EE2D
:10253000408AF0EE608A51EC180B0DF03FF84049EC
:102540004860D6E03C480DF0BFFCB0EE408AF0EEAB
:10255000608A51EC180B0DF031F83949C1F8DC00F4
:10256000C7E035480DF0B0FCB0EE408AF0EE608A6E
:1025700051EC180B0DF022F83149C1F8B401B8E064
:102580002D480DF0A1FCB0EE408AF0EE608A51ECCF
:10259000180B0DF013F82A49C1F88C02A9E026485F
:1025A0000DF092FCB0EE408AF0EE608A51EC180B10
:1025B0000DF023F881B22248A0F8A21099E08CE037
:1025C00080E074E069E05DE051E045E03AE021E060
:1025D00010E0FFE718480DF077FCB0EE408AF0EE0F
:1025E000608A51EC180B0DF008F881B21448A0F87D
:1025F0007A117EE010480DF067FCB0EE408AF0EEF4
:10260000608A51EC180B0CF0F8FF81B20C48A0F86E
:1026100052126EE008480DF057FCB0EE408AF0EE22
:10262000608A51EC180B0CF0E8FF81B20448A0F866
:102630002A135EE0460100206D030020602F002079
:10264000B4260020FE4890F8280208B1012000E0DE
:102650000020FC4908704CE0F94890F8280208B1C5
:10266000012000E00020F74981F8D80041E0F4485B
:1026700090F8280208B1012000E00020F14981F81B
:10268000B00136E0EE4890F8280208B1012000E0E1
:102690000020EC4981F888022BE0E94890F82802F4
:1026A00008B1012000E00020E649487021E0E4483C
:1026B00090F8280208B1012100E00021E14880F8EB
:1026C000D91016E0DE4890F8280208B1012100E098
:1026D0000021DC4880F8B1110BE0D94890F82802BD
:1026E00008B1012100E00021D64880F8891200E0FD
:1026F00000BF00BFAAE5D24890F82502C01E1A28E4
:102700007CD2DFE800F00D1B2B3B4B5B6B7C8C9C81
:10271000ABBAC97BD8F3F1F0EFEEEDECEBEAE9E808
:10272000002008E0002100EBC00202EB4202C54B92
:1027300003F83210401C0828F4DB60E1C2480DF0B9
:10274000C3FBB0EE408AF0EE608A51EC180B0CF03F
:1027500054FFC1B2BB4880F8621350E1BA480DF093
:10276000B3FBB0EE408AF0EE608A51EC180B0CF02F
:1027700044FFC1B2B34880F83A1440E1B2480DF0CA
:10278000A3FBB0EE408AF0EE608A51EC180B0CF01F
:1027900034FFC1B2AB4880F8121530E1AA480DF001
:1027A00093FBB0EE408AF0EE608A51EC180B0CF00F
:1027B00024FFC1B2A34880F8EA1520E1A2480DF039
:1027C00083FBB0EE408AF0EE608A51EC180B0CF0FF
:1027D000F5FE01B29B48A0F86A1310E19A480DF08B
:1027E00073FBB0EE408AF0EE608A51EC180B0CF0EF
:1027F000E5FE01B29348A0F8421400E1FEE09248E1
:102800000DF062FBB0EE408AF0EE608A51EC180BDE
:102810000CF0D4FE01B28B48A0F81A15EFE08A48FC
:102820000DF052FBB0EE408AF0EE608A51EC180BCE
:102830000CF0C4FE01B28348A0F8F215DFE0824834
:102840000DF042FBB0EE408AF0EE608A51EC180BBE
:102850000CF0B4FE7B49C1F86403D0E07A480DF077
:1028600033FBB0EE408AF0EE608A51EC180B0CF0AE
:10287000A5FE7449C1F83C04C1E073480DF024FB87
:10288000B0EE408AF0EE608A51EC180B0CF096FE28
:102890006C49C1F81405B2E06B480DF015FBB0EEC1
:1028A000408AF0EE608A51EC180B0CF087FE654907
:1028B000C1F8EC05A3E064480DF006FBB0EE408AD9
:1028C000F0EE608A51EC180B0CF097FE81B25D4877
:1028D000A0F8021493E086E07AE06EE062E056E051
:1028E0004AE03EE032E021E010E0FFE756480DF01C
:1028F000EBFAB0EE408AF0EE608A51EC180B0CF067
:102900007CFE81B24F48A0F8DA1478E04E480DF012
:10291000DBFAB0EE408AF0EE608A51EC180B0CF056
:102920006CFE81B24748A0F8B21568E046480DF049
:10293000CBFAB0EE408AF0EE608A51EC180B0CF046
:102940005CFE81B23F48A0F88A1658E03C4890F8F7
:10295000280208B1012000E000203A4981F8600314
:102960004DE0374890F8280208B1012000E000202F
:10297000344981F8380442E0314890F8280208B11F
:10298000012000E000202F4981F8100537E02C4895
:1029900090F8280208B1012000E00020294981F8C0
:1029A000E8052CE0264890F8280208B1012100E053
:1029B0000021244880F8611321E0214890F8280282
:1029C00008B1012100E000211E4880F8391416E00A
:1029D0001B4890F8280208B1012100E000211948A5
:1029E00080F811150BE0164890F8280208B1012173
:1029F00000E00021134880F8E91500E000BF00BFA7
:102A00006DE300BF0E4890F82502C01E0B281FD2B0
:102A1000DFE800F0061F1E304152677CA2CBF400B5
:102A20000121084605F035FD0121022005F031FDA8
:102A30000121032005F02DFD0121042006E0000006
:102A400046010020B42600206D03002005F021FD82
:102A5000E5E00121084605F0F4FA0121022005F025
:102A6000F0FA0121032005F0ECFA0121042005F021
:102A7000E8FAD4E00121084605F063FA01210220BA
:102A800005F05FFA0121032005F05BFA0121042023
:102A900005F057FAC3E00121084605F0CEFB0121FD
:102AA000022005F0CAFB0121032005F0C6FB01212D
:102AB000042005F0C2FBB2E001220321104605F01C
:102AC000C2F901220321022005F0BDF901220321F0
:102AD000084605F0B8F901220321042005F0B3F9F6
:102AE0009DE001221146104605F0ADF90122114684
:102AF000022005F0A8F901221146032005F0A3F9F0
:102B000001221146042005F09EF988E0FA480DF0F4
:102B1000DBF9B0EE408AF0EE608A51EC180B0CF055
:102B20004DFDF6490860012208460168104605F08F
:102B3000A9FE0122F1480168022005F0A3FE01224E
:102B4000EE480168032005F09DFE0122EB48016874
:102B5000042005F097FE62E0E7480DF0B5F9B0EE0D
:102B6000408AF0EE608A51EC180B0CF027FDE44926
:102B70000860012208460168104605F0F8FE0122AF
:102B8000DF4800684142022005F0F1FE0122DC48E6
:102B900000684142032005F0EAFE0122D84801689E
:102BA000042005F0E4FE3AE03BE0D3480DF08CF958
:102BB000B0EE408AF0EE608A51EC180B0CF0FEFC8F
:102BC000D0490860012208460168104605F0EBFC78
:102BD0000122CC4800684142022005F0E4FC0122B9
:102BE000C84800684142032005F0DDFC0122C548C9
:102BF0000168042005F0D7FC11E0FFE70121084639
:102C000005F0BFFD0121022005F0BBFD01210320DD
:102C100005F0B7FD0121042005F0B3FD00BF00BFA2
:102C200000BFB94890F825021A2821D2DFE800F049
:102C3000200D21374D6393C5EFEEEDECEBEAE9E8AB
:102C4000E7E6E5E4E3E2E1E0DFDEAB480DF03CF986
:102C5000B0EE408AF0EE608A51EC180B0CF0CDFC1F
:102C6000AA490870084601780122104603F00BFBC0
:102C700034E2A1480DF028F9B0EE408AF0EE608A07
:102C800051EC180B0CF0B9FCA04981F8540008462F
:102C900090F854100122022003F0F5FA1EE2964843
:102CA0000DF012F9B0EE408AF0EE608A51EC180B8C
:102CB0000CF0A3FC954981F8A800084690F8A810EC
:102CC0000122032003F0DFFA08E28B480DF0FCF844
:102CD000B0EE408AF0EE608A51EC180B0CF08DFCDF
:102CE0008A4981F8FC00084690F8FC100122042073
:102CF00003F0C9FAF2E185480078022813D17E4832
:102D00000DF0E2F8B0EE408AF0EE608A51EC180B5C
:102D10000CF054FC7E490860012208460168104608
:102D200003F00BFE16E079480078052812D17248AE
:102D30000DF0CAF8B0EE408AF0EE608A51EC180B44
:102D40000CF03CFC734908600122084601681046FB
:102D500003F081FCC2E16D4890F85400022813D1C1
:102D600065480DF0B1F8B0EE408AF0EE608A51ECA3
:102D7000180B0CF023FC6649086001220846016824
:102D8000022003F0DAFD17E0604890F854000528AF
:102D900012D159480DF098F8B0EE408AF0EE608AF2
:102DA00051EC180B0CF00AFC5A4908600122084645
:102DB0000168022003F04FFC90E1544890F8A8000D
:102DC000022825D14C480DF07FF8B0EE408AF0EE95
:102DD000608A51EC180B0CF0F1FB4D4908600122A0
:102DE00008460168032003F0A8FD29E065E15AE1E7
:102DF0005EE14EE10AE151E13AE128E116E1F1E05C
:102E0000DCE0C7E0B2E09DE088E060E04BE018E085
:102E10003E4890F8A800052812D137480DF054F824
:102E2000B0EE408AF0EE608A51EC180B0CF0C6FB55
:102E300038490860012208460168032003F00BFCB2
:102E40004CE1324890F8FC00022813D12A480DF0DA
:102E50003BF8B0EE408AF0EE608A51EC180B0CF0B3
:102E6000ADFB2B490860012208460168042003F0ED
:102E700064FD17E0254890F8FC00052812D11E4893
:102E80000DF022F8B0EE408AF0EE608A51EC180B9B
:102E90000CF094FB1F4908600122084601680420D9
:102EA00003F0D9FB1AE114480DF00EF8B0EE408A99
:102EB000F0EE608A51EC180B0CF080FB16490860AC
:102EC000012208460168104603F044FC06E10A4866
:102ED0000CF0FAFFB0EE408AF0EE608A51EC180B6D
:102EE0000CF06CFB0C4908600122084601680220C6
:102EF00003F030FCF2E000006D0300208C000020A5
:102F0000880000208400002046010020A02D002021
:102F1000580000204C00002054000020FE480CF017
:102F2000D3FFB0EE408AF0EE608A51EC180B0CF043
:102F300045FBFA490860012208460168032003F0B6
:102F400009FCCBE0F4480CF0BFFFB0EE408AF0EE95
:102F5000608A51EC180B0CF031FBF149086001223A
:102F6000EE480168042003F0F5FBB7E0EA480CF0F6
:102F7000ABFFB0EE408AF0EE608A51EC180B0CF01B
:102F80001DFBE7490860012208460168104603F06E
:102F900060FCA3E0E0480CF097FFB0EE408AF0EE52
:102FA000608A51EC180B0CF009FBDD490860012226
:102FB00008460168022003F04CFC8FE0D6480CF074
:102FC00083FFB0EE408AF0EE608A51EC180B0CF0F3
:102FD000F5FAD3490860012208460168032003F08E
:102FE00038FC7BE0CC480CF06FFFB0EE408AF0EE8E
:102FF000608A51EC180B0CF0E1FAC9490860012213
:1030000008460168042003F024FC67E0C54890F8F6
:10301000280208B1012000E00020C349487008469A
:1030200041780122104603F00CFA57E0BD4890F8B1
:10303000280208B1012100E00021BB4880F85510AA
:1030400090F855100122022003F0FBF946E0B54844
:1030500090F8280208B1012100E00021B24880F870
:10306000A91090F8A9100122032003F0EAF935E035
:10307000AC4890F8280208B1012100E00021AA48DC
:1030800080F8FD1090F8FD100122042003F0D9F91A
:1030900024E00121084603F0FDF91FE00121022090
:1030A00003F0F8F91AE00121032003F0F3F915E029
:1030B0000121042003F0EEF910E00121084603F09D
:1030C00065FA0121022003F061FA0121032003F0D7
:1030D0005DFA0121042003F059FA00BF00BF00BFD0
:1030E00000209249087020218B48C01F0CF04BFA39
:1030F000BDEC028B10BD10B504468D48C07A50B9A6
:1031000021468C4808F045F901218A4808F020F949
:1031100001208749C87210BD10B50024EE22214657
:10312000641C85484254B1222146641C425410223A
:103130002146641C425400222146641C425421460C
:10314000641C42542146641C425405222146641CDE
:10315000425401222046611CCCB277490A54FF2216
:103160002046611CCCB274490A54FC222046611CE2
:10317000CCB271490A54FF222046611CCCB26E4980
:103180000A542046611CCCB26B490A546B48007843
:10319000092881F0CA83DFE810F0C80B09000B0092
:1031A0000C000D006604C80BC80BB70801F0BEBBCD
:1031B000FCE7FBE7EE222046611CCCB25E490A54D4
:1031C000B1222046611CCCB25B490A54122220462F
:1031D000611CCCB258490A5400222046611CCCB272
:1031E00055490A5404222046611CCCB252490A5463
:1031F0005348807800287DD000222046611CCCB244
:103200004D490A5404222046611CCCB24A490A5452
:1032100000222046611CCCB247490A5448488278B3
:1032200048A149480CF03AFE47480CF0B7F9C2B241
:103230002046611CCCB240490A54081942490CF09E
:10324000B4F941480CF0AAF92044C4B20022204647
:10325000611CCCB238490A5408222046611CCCB209
:1032600035490A5400222046611CCCB232490A5426
:103270003348B0F91E2033A133480CF00FFE32481A
:103280000CF08CF9C2B22046611CCCB22A490A5417
:1032900008192D490CF089F92B480CF07FF92044CE
:1032A000C4B200222046611CCCB223490A540C222D
:1032B0002046611CCCB220490A5400222046611CE1
:1032C000CCB21D490A541E4882691EA11E480CF04A
:1032D000E5FD1D480CF062F9C2B22046611CCCB27B
:1032E00015490A54081918490CF05FF916480CF0F2
:1032F00055F900E086E02044C4B200222046611C5B
:10330000CCB20D490A5411222046611CCCB20A49A4
:103310000A540022204619E06D03002054000020CA
:103320005C00002046010020A02D00201D00002090
:10333000C6030020A0600240660200201C0000209E
:10334000B42600202564000048260020611CCCB271
:10335000FE490A54FE48B0F8A220AFF21801FD4819
:103360000CF09CFDFB480CF019F9C2B22046611C20
:10337000CCB2F6490A540819F6490CF016F9F5488A
:103380000CF00CF92044C4B200222046611CCCB2DF
:10339000EE490A5415222046611CCCB2EB490A546E
:1033A00000222046611CCCB2E8490A540122204682
:1033B000611CCCB2E5490A54E54802782046611CFC
:1033C000CCB2E2490A5400222046611CCCB2DF494B
:1033D0000A5419222046611CCCB2DC490A5400224E
:1033E0002046611CCCB2D9490A5401222046611CF6
:1033F000CCB2D6490A54D64842782046611CCCB299
:10340000D2490A54D24890F8DA0000287DD0002230
:103410002046611CCCB2CD490A5405222046611CCD
:10342000CCB2CA490A5400222046611CCCB2C7491A
:103430000A54C74890F8DA20AFF2F801C5480CF0FA
:103440002DFDC4480CF0AAF8C2B22046611CCCB2D3
:10345000BE490A540819BF490CF0A7F8BD480CF042
:103460009DF82044C4B200222046611CCCB2B7496A
:103470000A5409222046611CCCB2B4490A540022E5
:103480002046611CCCB2B1490A54B148B0F9F620CB
:10349000AFF25011AF480CF001FDAE480CF07EF8D1
:1034A000C2B22046611CCCB2A8490A540819A949E5
:1034B0000CF07BF8A7480CF071F82044C4B200224D
:1034C0002046611CCCB2A1490A540D222046611C41
:1034D000CCB29E490A5400222046611CCCB29B49C2
:1034E0000A549B48D0F8F020AFF2A81199480CF08C
:1034F000D5FC98480CF052F8C2B22046611CCCB200
:1035000092490A540819934900E072E00CF04DF812
:1035100090480CF043F82044C4B200222046611CBD
:10352000CCB28A490A5412222046611CCCB2874987
:103530000A5400222046611CCCB284490A548448B3
:10354000B0F87A21AFF2042182480CF0A7FC814840
:103550000CF024F8C2B22046611CCCB27B490A545C
:1035600008197C490CF021F87A480CF017F820442F
:10357000C4B200222046611CCCB274490A541622FF
:103580002046611CCCB271490A5400222046611CBD
:10359000CCB26E490A5401222046611CCCB26B4960
:1035A0000A546B4890F8D8202046611CCCB2674979
:1035B0000A5400222046611CCCB264490A541A22E3
:1035C0002046611CCCB261490A5400222046611C8D
:1035D000CCB25E490A5401222046611CCCB25B4940
:1035E0000A545B4890F8D9202046611CCCB2574958
:1035F0000A54574890F8B20100287DD00022204696
:10360000611CCCB251490A5406222046611CCCB23E
:103610004E490A5400222046611CCCB24B490A5440
:103620004B4890F8B221AFF2E4214A480CF036FC46
:1036300048480BF0B3FFC2B22046611CCCB24349EC
:103640000A54081943490BF0B0FF42480BF0A6FF9B
:103650002044C4B200222046611CCCB23B490A542B
:103660000A222046611CCCB238490A540022204666
:10367000611CCCB235490A543548B0F9CE21AFF2BD
:103680003C3134480CF00AFC32480BF087FFC2B2E0
:103690002046611CCCB22D490A5408192D490BF063
:1036A00084FF2C480BF07AFF2044C4B2002220464D
:1036B000611CCCB225490A540E222046611CCCB2B2
:1036C00022490A5400222046611CCCB21F490A54E8
:1036D0001F48D0F8C821AFF294311E480CF0DEFB31
:1036E0001C480BF05BFFC2B22046611CCCB21749EC
:1036F0000A540819174900E079E00BF056FF154805
:103700000BF04CFF2044C4B200222046611CCCB216
:103710000E490A5413222146601CC4B20B4842547D
:1037200000222046611CCCB208490A540848B0F86F
:103730005222AFF2F03107480CF0B0FB05480BF015
:103740002DFFC2B22046611CCCB205E0660200200B
:10375000B426002048260020FE490A540819FE49D4
:103760000BF023FFFC480BF019FF2044C4B20022E9
:103770002046611CCCB2F7490A5417222046611C2E
:10378000CCB2F4490A5400222046611CCCB2F14963
:103790000A5401222046611CCCB2EE490A54EF487B
:1037A00090F8B0212146601CC4B2EA48425400227D
:1037B0002046611CCCB2E7490A541B222046611CFA
:1037C000CCB2E4490A5400222046611CCCB2E14943
:1037D0000A5401222046611CCCB2DE490A54DF485B
:1037E00090F8B1212046611CCCB2DA490A54DB487A
:1037F00090F88A0200287DD000222046611CCCB2BD
:10380000D4490A5407222146601CC4B2D14842540C
:1038100000222046611CCCB2CE490A54CF4890F811
:103820008A22AFF2E041CC480CF038FBCA480BF0DA
:10383000B5FEC2B22046611CCCB2C6490A54081972
:10384000C5490BF0B2FEC4480BF0A8FE2044C4B238
:1038500000222046611CCCB2BE490A540B222046ED
:10386000611CCCB2BB490A5400222046611CCCB278
:10387000B8490A54B948B0F9A622AFF23851B6484F
:103880000CF00CFBB4480BF089FEC2B22046611C60
:10389000CCB2B0490A540819AF490BF086FEAE48C5
:1038A0000BF07CFE2044C4B200222046611CCCB246
:1038B000A8490A540F222146601CC4B2A5484254AC
:1038C00000222046611CCCB2A2490A54A348D0F879
:1038D000A022AFF29051A0480CF0E0FA9E480BF005
:1038E0005DFEC2B22046611CCCB29A490A54081946
:1038F000994900E072E00BF058FE97480BF04EFE3D
:103900002044C4B200222046611CCCB291490A5422
:1039100014222046611CCCB28E490A540022204653
:10392000611CCCB28B490A548C48B0F82A23AFF200
:10393000EC5189480CF0B2FA87480BF02FFEC2B266
:103940002046611CCCB283490A54081982490BF005
:103950002CFE81480BF022FE2044C4B200222046F7
:10396000611CCCB27B490A5418222046611CCCB29F
:1039700078490A5400222046611CCCB275490A5489
:1039800001222046611CCCB272490A54734890F857
:1039900088222046611CCCB26E490A54002220467F
:1039A000611CCCB26B490A541C222046611CCCB26B
:1039B00068490A5400222046611CCCB265490A5469
:1039C00001222046611CCCB262490A54634890F837
:1039D00089222046611CCCB25E490A54002220464E
:1039E000611CCCB25B490A5410222046611CCCB247
:1039F00058490A5400222046611CCCB255490A5449
:103A0000574840684068028856A153480CF046FA6F
:103A100051480BF0C3FDC2B22046611CCCB24D49E7
:103A20000A5408194C490BF0C0FD4B480BF0B6FD89
:103A30002044C4B2FF222046611CCCB245490A543E
:103A4000FC222046611CCCB242490A54FF22204687
:103A5000611CCCB23F490A542046611CCCB23D499E
:103A60000A5400F063BFEE222046611CCCB23949F3
:103A70000A54B1222046611CCCB236490A541222A3
:103A80002046611CCCB233490A5400222046611CF6
:103A9000CCB230490A5405222046611CCCB22D49D3
:103AA0000A542E4890F8620300287DD00022204658
:103AB000611CCCB227490A5404222046611CCCB2B6
:103AC00024490A5400222046611CCCB221490A54E0
:103AD000224890F86223AFF294711F480CF0DEF98F
:103AE0001D480BF05BFDC2B22046611CCCB21949E7
:103AF0000A54081918490BF058FD17480BF04EFDF1
:103B00002044C4B200222046611CCCB211490A54A0
:103B100008222046611CCCB20E490A5400222046DD
:103B2000611CCCB20B490A540C48B0F97E23AFF2A9
:103B3000EC7109480CF0B2F907480BF02FFDC2B246
:103B40002046611CCCB203490A54081902490BF003
:103B50002CFD09E06602002048260020B426002043
:103B60000400002025780000FE480BF017FD2044DB
:103B7000C4B200222046611CCCB2FB490A540C227C
:103B80002046611CCCB2F8490A5400222046611C30
:103B9000CCB2F5490A54F548D0F87823AFF65C0169
:103BA000F0480CF07BF900E07DE0EE480BF0F6FC0D
:103BB000C2B22046611CCCB2EB490A540819E9494B
:103BC0000BF0F3FCE7480BF0E9FC2044C4B2002200
:103BD0002046611CCCB2E4490A5411222046611CE3
:103BE000CCB2E1490A5400222046611CCCB2DE4925
:103BF0000A54DE48B0F80224AFF6B801D9480CF0F8
:103C00004DF9D8480BF0CAFCC2B22046611CCCB2B8
:103C1000D5490A540819D3490BF0C7FCD1480BF019
:103C2000BDFC2044C4B200222046611CCCB2CE4967
:103C30000A5415222046611CCCB2CB490A540022FA
:103C40002046611CCCB2C8490A5401222046611C9E
:103C5000CCB2C5490A54C54890F860232046611C7F
:103C6000CCB2C1490A5400222046611CCCB2BE49E4
:103C70000A5419222046611CCCB2BB490A540022C6
:103C80002046611CCCB2B8490A5401222046611C6E
:103C9000CCB2B5490A54B54890F861232046611C5E
:103CA000CCB2B1490A54B14890F83A0400287DD00A
:103CB00000222046611CCCB2AB490A5405222046A2
:103CC000611CCCB2A8490A5400222046611CCCB227
:103CD000A5490A54A54890F83A24AFF69811A1488E
:103CE0000CF0DCF89F480BF059FCC2B22046611C76
:103CF000CCB29D490A5408199A490BF056FC9948D0
:103D00000BF04CFC2044C4B200222046611CCCB213
:103D100095490A5409222046611CCCB292490A54A2
:103D200000222046611CCCB28F490A548F48B0F95A
:103D30005624AFF6F0118B480CF0B0F889480BF020
:103D40002DFCC2B22146601CC4B2874842540146D1
:103D5000081984490BF029FC82480BF01FFC204411
:103D6000C4B200222046611CCCB27F490A540D2205
:103D70002046611CCCB27C490A5400222046611CBA
:103D8000CCB279490A547948D0F85024AFF64C2186
:103D900074480CF083F873480BF000FCC2B2204664
:103DA000611CCCB270490A54081900E073E06D49F7
:103DB0000BF0FBFB6B480BF0F1FB2044C4B200227C
:103DC0002046611CCCB268490A5412222046611C6C
:103DD000CCB265490A5400222146601CC4B2624834
:103DE00042546248B0F8DA24AFF6A8215D480CF0DE
:103DF00055F85C480BF0D2FBC2B22046611CCCB235
:103E000059490A54081957490BF0CFFB55480BF094
:103E1000C5FB2044C4B200222046611CCCB25249EA
:103E20000A5416222046611CCCB24F490A54002283
:103E30002046611CCCB24C490A5401222046611C28
:103E4000CCB249490A54494890F838242046611CAC
:103E5000CCB245490A5400222046611CCCB24249EA
:103E60000A541A222046611CCCB23F490A5400224F
:103E70002046611CCCB23C490A5401222046611CF8
:103E8000CCB239490A54394890F839242046611C8B
:103E9000CCB235490A54354890F81205002867D04D
:103EA00000222046611CCCB22F490A54062220462B
:103EB000611CCCB22C490A5400222046611CCCB2B1
:103EC00029490A54294890F81225AFF68831254827
:103ED0000BF0E4FF23480BF061FBC2B22046611CEB
:103EE000CCB221490A5408191E490BF05EFB1D484B
:103EF0000BF054FB2044C4B200222046611CCCB21B
:103F000019490A540A222046611CCCB216490A54A7
:103F100000222046611CCCB213490A541348B0F960
:103F20002E25AFF6E0310F480BF0B8FF0D480BF02F
:103F300035FBC2B22046611CCCB20B490A540819A9
:103F400008490BF032FB07480BF028FB2044C4B2B1
:103F500000222046611CCCB203490A540E2220469E
:103F6000611C06E04826002066020020B4260020DE
:103F70008EE0CCB2FE490A5400222046611CCCB22D
:103F8000FB490A54FB48D0F82825AFF64841FA48C7
:103F90000BF084FFF8480BF001FBC2B22046611C15
:103FA000CCB2F3490A540819F3490BF0FEFAF2486F
:103FB0000BF0F4FA2044C4B200222046611CCCB2BB
:103FC000EB490A5413222046611CCCB2E8490A543A
:103FD00000222046611CCCB2E5490A54E548B0F8FD
:103FE000B225AFF6A041E4480BF058FFE2480BF0D1
:103FF000D5FAC2B22046611CCCB2DD490A54081978
:10400000DD490BF0D2FADC480BF0C8FA2044C4B208
:1040100000222046611CCCB2D5490A541722204602
:10402000611CCCB2D2490A5400222046611CCCB299
:10403000CF490A5401222046611CCCB2CC490A5413
:10404000CC4890F810252046611CCCB2C8490A54CF
:1040500000222046611CCCB2C5490A541B222146CD
:10406000601CC4B2C248425400222146601CC4B243
:10407000BF48425401222046611CCCB2BC490A54BC
:10408000BC4890F811252046611CCCB2B8490A54AE
:10409000B84890F8EA0500287DD000222046611C2F
:1040A000CCB2B3490A5407222046611CCCB2B049B5
:1040B0000A5400222046611CCCB2AD490A54AD48D6
:1040C00090F8EA25AFF68451AB480BF0E7FEAA481A
:1040D0000BF064FAC2B22046611CCCB2A4490A5467
:1040E0000819A5490BF061FAA3480BF057FA2044D0
:1040F000C4B200222046611CCCB29D490A540B2256
:104100002046611CCCB29A490A5400222046611C08
:10411000CCB297490A549748B0F90626AFF6DC515D
:1041200095480BF0BBFE94480BF038FAC2B220461B
:10413000611CCCB28E490A5408198F490BF035FA2C
:104140008D480BF02BFA2044C4B200222046611C9B
:10415000CCB287490A540F222046611CCCB2844954
:104160000A5400222046611CCCB281490A5481487D
:10417000D0F80026AFF634617F480BF08FFE7E4802
:104180000BF00CFAC2B22046611CCCB278490A543A
:104190000819794900E072E00BF007FA76480BF055
:1041A000FDF92044C4B200222046611CCCB2704903
:1041B0000A5414222046611CCCB26D490A540022D4
:1041C0002046611CCCB26A490A546A48B0F88A2673
:1041D000AFF6906168480BF061FE67480BF0DEF9BE
:1041E000C2B22046611CCCB261490A540819624926
:1041F0000BF0DBF960480BF0D1F92044C4B2002287
:104200002046611CCCB25A490A5418222046611C2F
:10421000CCB257490A5400222046611CCCB2544902
:104220000A5401222046611CCCB251490A5451481B
:1042300090F8E8252046611CCCB24D490A54002272
:104240002046611CCCB24A490A541C222046611CFB
:10425000CCB247490A5400222046611CCCB24449E2
:104260000A5401222046611CCCB241490A544148FB
:1042700090F8E9252146601CC4B23D484254002212
:104280002046611CCCB23A490A5410222046611CD7
:10429000CCB237490A5400222046611CCCB23449C2
:1042A0000A543648406840680288AFF24871324884
:1042B0000BF0F4FD30480BF071F9C2B22046611CDE
:1042C000CCB22B490A5408192B490BF06EF92A4835
:1042D0000BF064F92044C4B2FF222046611CCCB22A
:1042E00023490A54FC222046611CCCB220490A54BE
:1042F000FF222046611CCCB21D490A542046611C95
:10430000CCB21B490A5411E3EE222046611CCCB208
:1043100017490A54B1222046611CCCB214490A54F0
:1043200012222046611CCCB211490A5400222046B8
:10433000611CCCB20E490A5408222046611CCCB242
:104340000B490A540E48007800287DD000222046F0
:10435000611CCCB206490A5401222046611CCCB231
:1043600003490A5400222046611CCCB2004909E0EE
:1043700066020020B4260020482600200400002009
:10438000A02D00200A54FE480278FEA1FE480BF042
:1043900085FDFD480BF002F9C2B22046611CCCB28B
:1043A000FA490A540819F8490BF0FFF8F6480BF0DF
:1043B000F5F82044C4B200222046611CCCB2F34977
:1043C0000A5405222046611CCCB2F0490A5400224E
:1043D0002046611CCCB2ED490A54E9484269E9A182
:1043E000E9480BF05BFDE8480BF0D8F8C2B2204674
:1043F000611CCCB2E5490A540819E3490BF0D5F821
:10440000E1480BF0CBF82044C4B200222046611CE6
:10441000CCB2DE490A5409222046611CCCB2DB49E9
:104420000A5400222046611CCCB2D8490A54D44810
:104430008269D4A1D4480BF031FDD3480BF0AEF81B
:10444000C2B22046611C00E02AE0CCB2CF490A5437
:104450000819CD490BF0A9F8CB480BF09FF8204480
:10446000C4B200222046611CCCB2C8490A541522AD
:104470002046611CCCB2C5490A5400222046611C6A
:10448000CCB2C2490A5401222046611CCCB2BF49B9
:104490000A54BB4842782046611CCCB2BB490A543E
:1044A000B74890F8540000287ED000222046611CB6
:1044B000CCB2B6490A5402222046611CCCB2B349A0
:1044C0000A5400222046611CCCB2B0490A54AC48C0
:1044D00090F85420ABA1AC480BF0E0FCAA480BF0DC
:1044E0005DF8C2B22046611CCCB2A8490A54081932
:1044F000A5490BF05AF8A4480BF050F82044C4B278
:1045000000222046611CCCB2A0490A540622204653
:10451000611CCCB29D490A5400222046611CCCB2D9
:104520009A490A549648826E96A197480BF0B6FCB9
:1045300095480BF033F8C2B22046611CCCB29349C7
:104540000A54081990490BF030F88F480BF026F800
:104550002044C4B200222046611CCCB28B490A54CC
:104560000A222046611CCCB288490A540022204607
:10457000611CCCB285490A548148C26E81A182482F
:104580000BF08CFC80480BF009F8C2B22146601C8D
:10459000C4B27E484254014608197B490BF005F825
:1045A00079480AF0FBFF00E021E02044C4B2002279
:1045B0002046611CCCB275490A5411222046611C68
:1045C000CCB272490A5400222046611CCCB26F4919
:1045D0000A5401222046611CCCB26C490A54684836
:1045E00090F855202046611CCCB268490A546448B2
:1045F00090F8A80000287DD000222046611CCCB293
:1046000062490A5403222046611CCCB25F490A5415
:1046100000222046611CCCB25C490A54584890F8EC
:10462000A82058A158480BF039FC57480AF0B6FFAB
:10463000C2B22046611CCCB254490A5408195249EE
:104640000AF0B3FF50480AF0A9FF2044C4B2002288
:104650002046611CCCB24D490A5407222046611CF9
:10466000CCB24A490A5400222046611CCCB24749C8
:104670000A544348D0F8BC2042A143480BF00EFC3A
:1046800041480AF08BFFC2B22046611CCCB23F49C0
:104690000A5408193C490AF088FF3B480AF07EFF9B
:1046A0002044C4B200222046611CCCB237490A54CF
:1046B0000B222046611CCCB234490A540022204609
:1046C000611CCCB231490A542D48D0F8C0202DA12C
:1046D0002D480BF0E3FB2C480AF060FFC2B22046E5
:1046E000611CCCB229490A54081927490AF05DFF18
:1046F000254800E023E00AF051FF2044C4B2002224
:104700002046611CCCB221490A5412222146601C69
:10471000C4B21E48425400222146601CC4B21B4849
:10472000425401222046611CCCB218490A54144854
:1047300090F8A9202146601CC4B214484254104885
:1047400090F8FC0000287CD000222146601CC4B2F6
:104750000E48425404222046611CCCB20B490A5434
:1047600000222046611CCCB208490A54044890F843
:10477000FC2004A104480BF091FB034808E0000072
:10478000A02D00202564000048260020660200209D
:104790000AF004FFC2B22046611CCCB266490A543A
:1047A000081966490AF001FF64480AF0F7FE204440
:1047B000C4B200222146601CC4B25F4842540822A1
:1047C0002146601CC4B25C48425400222046611C51
:1047D000CCB259490A545A48D0F81021AFF25C01C2
:1047E00056480BF05BFB55480AF0D8FEC2B2204693
:1047F000611CCCB250490A54081950490AF0D5FE40
:104800004E480AF0CBFE2044C4B200222046611C70
:10481000CCB249490A540C222046611CCCB246490C
:104820000A5400222046611CCCB243490A54444831
:10483000B0F90C21AFF2B40140480BF02FFB3F4818
:1048400000E030E00AF0AAFEC2B22046611CCCB201
:1048500039490A54081939490AF0A7FE37480AF0BD
:104860009DFE2044C4B200222146601CC4B23248DE
:10487000425413222146601CC4B22F4842540022E5
:104880002146601CC4B22C48425401222046611CBF
:10489000CCB229490A542A4890F8FD202046611CD0
:1048A000CCB225490A5400222046611CCCB22249D0
:1048B0000A541E222146601CC4B21F4842540022E2
:1048C0002046611CCCB21C490A541E481EA1026835
:1048D0001A480BF0E3FA19480AF060FEC2B220460B
:1048E000611CCCB214490A54081914490AF05DFE3F
:1048F00012480AF053FE2044C4B2FF222146601C35
:10490000C4B20D484254FC222046611CCCB20A4974
:104910000A54FF222146601CC4B207484254204674
:10492000611CCCB204490A5400E000BF00BF20461D
:10493000FEF7E1FB10BD00006602002048260020C3
:10494000A02D0020600000202523580A0000000050
:1049500000B597B00121042007F0A6F801218804D2
:1049600007F0D5F80121480507F09EF807220A2133
:10497000634806F0DEFE07220B21614806F0D9FEEF
:104980004FF44060119002208DF8480000208DF80F
:104990004A0003208DF8490000208DF84B0011A932
:1049A000574806F03BFE4FF4E13013900020ADF87D
:1049B0005000ADF85200ADF85400ADF858000C208E
:1049C000ADF8560013A94F4808F04CF8012240F208
:1049D00025514C4808F084F927208DF84000042028
:1049E0008DF8410000208DF8420001208DF8430031
:1049F00010A805F06EFE444806F0CEFB4FF00060B4
:104A000001900020059040200490404803903D48CC
:104A1000001D029000150790002006900990089054
:104A20000A904FF440300B9000200C9001200D9024
:104A300000200F900E9001A9334806F04FFC344936
:104A4000314806F0FEFC32492F4806F055FD0E2095
:104A50008DF8400002208DF8410004208DF84200BE
:104A600001208DF8430010A805F033FE012210212B
:104A7000254806F0FAFC01228021224808F027F997
:104A800017B000BD10B522491F4806F00BFD0128E4
:104A90000AD11F491C4806F0D4FC1D491A4806F0EB
:104AA0002BFD00201B49087310BD70B504460D4650
:104AB0001848007B78B92A46214614480AF04AFD76
:104AC0002946114806F065FC01210F4806F040FC1C
:104AD00001201049087370BD10B540F225510948F6
:104AE00008F039F950B12021064808F02BF940F2BE
:104AF0002551044808F066F904F070FF10BD00006D
:104B00000008024000480040586002408603002030
:104B100000800018C6030020002282610160C2618B
:104B200000230362436280ED031A80ED010AC0EDA9
:104B3000020AC0ED041A704701688269891AC161CE
:104B4000C269016A511A00EE101AB8EEC00AD0ED1F
:104B5000010A20EE200A90ED021AC16900EE901AB7
:104B6000F8EEE00A01EE200AC269416A0A44016ACD
:104B7000A2EB410100EE901AF8EEE00A90ED031A64
:104B800001EE200ABDEEC00A10EE101A4161026A61
:104B90004262C269026270472DE9F04186B0044664
:104BA0000D4616461F464FF0000800208DF80C00F9
:104BB0008DF80D0008208DF80E0040F2FF18CDF89A
:104BC0000480042001F026F850B9884890F860036A
:104BD000012805D1200A8DF80F008DF8104005E05E
:104BE00000208DF80F0000218DF81010052001F035
:104BF00011F850B97D4890F83804012805D1290AE8
:104C00008DF811108DF8125004E000218DF811106C
:104C10008DF81210062000F0FDFF50B9734890F88F
:104C20001005012805D1310A8DF813108DF8146094
:104C300004E000218DF813108DF81410072000F007
:104C4000E9FF50B9694890F8E805012805D1390A0B
:104C50008DF815108DF8167004E000218DF81510F0
:104C60008DF8161001A9624805F030FF06B0BDE8C6
:104C7000F0812DE9F04186B004460D4616461F46E8
:104C80004FF0000800208DF80C008DF80D00082072
:104C90008DF80E004FF40078CDF80480002000F06D
:104CA000B9FF48B951480078012805D1200A8DF88C
:104CB0000F008DF8104005E000208DF80F00002156
:104CC0008DF81010012000F0A5FF50B9474890F86A
:104CD000D800012805D1290A8DF811108DF812503D
:104CE00004E000218DF811108DF81210022000F060
:104CF00091FF50B93D4890F8B001012805D1310A23
:104D00008DF813108DF8146004E000218DF8131055
:104D10008DF81410032000F07DFF50B9334890F84F
:104D20008802012805D1390A8DF815108DF8167002
:104D300004E000218DF815108DF8161001A92C48FB
:104D400005F0C4FE06B0BDE8F08100204BE000EBAA
:104D5000C00101EB4101254A02EBC101B1F9081084
:104D6000002908DD00EBC00101EB410102EBC101AC
:104D7000B1F9081009E000EBC00101EB41011B4A49
:104D800002EBC101B1F90810494200EBC00202EB8D
:104D90004202164B03EBC202B2F8D020914220DD52
:104DA00000EBC00101EB41011A4602EBC101B1F970
:104DB0000810002902DA4FF0FF3100E0012100EB7A
:104DC000C00202EB4202094B03EBC202B2F8D02050
:104DD00051430AB200EBC00101EB410103EBC101F9
:104DE0000A81411CC8B20828B1DB7047B4260020F4
:104DF0000068004010B54FF40050FE490880FE499D
:104E000008801320FB4988702420FB49887043F6F2
:104E10009910F849888042F22830F74988809FED40
:104E2000F70AF44880ED020A9FEDF50A084680ED86
:104E3000020A0020F34908709FEDF30A084680ED4E
:104E4000010A0120087244F63820488101200873C5
:104E50004FF47A70C88140000882012088740020D5
:104E6000C8744FF4FA60E949888300204860E84834
:104E7000E14B0ECB4C300EC00020E5498039087064
:104E8000487005208870002048606421E048803820
:104E9000418132210181C168DFEDDE1A9FEDDE1A0A
:104EA000DFEDDE0AB0EE0C0A4830FFF735FED848D9
:104EB0008038B0F90A10F7EE001A9FEDD91ADFED2D
:104EC000D90AB1EE040A7030FFF726FE1422CD494C
:104ED000CF4818300AF03EFBCD48D830C64B0ECB39
:104EE0004C300EC00020CA49803981F8D80000211A
:104EF000C748803880F8D910052180F8DA100021E1
:104F0000C0F8DC106421A0F8E2103221A0F8E01013
:104F1000C168DFEDC01A9FEDC01ADFEDC00AB0EE28
:104F20000C0A00F59070FFF7F7FDB9488038B0F92A
:104F30000A10F7EE001A9FEDBA1ADFEDBA0AB1EEC9
:104F4000040A00F5A470FFF7E7FD1422AD49B0484C
:104F5000F0300AF0FFFAB448A74B0ECB4C300EC02D
:104F60000020AB49803981F8B0010021A848803881
:104F700080F8B111052180F8B2110021C0F8B411F8
:104F80006421A0F8BA113221A0F8B811C168DFED90
:104F9000A11A9FEDA11ADFEDA10AB0EE0C0A00F5EF
:104FA000FC70FFF7B9FD9A488038B0F90A10F7EEA7
:104FB000001A9FED9B1ADFED9B0AB1EE040A00F583
:104FC0000870FFF7A9FD14228E49974818300AF09F
:104FD000C1FA9548D830884B0ECB4C300EC000201B
:104FE0008B49803981F8880200218948803880F80F
:104FF0008912052180F88A120021C0F88C126421E0
:10500000A0F892123221A0F89012C168DFED811A47
:105010009FED811ADFED810AB0EE0C0A00F53470C5
:10502000FFF77AFD7A488038B0F90A10F7EE001AD7
:105030009FED7B1ADFED7B0AB1EE040A00F53E70AE
:10504000FFF76AFD14226F497748F0300AF082FAC0
:105050007648684B0ECB4C300EC000206C4980392E
:1050600081F8600300216A48803880F861130521C7
:1050700080F862135F21C0F864136421A0F86A13FA
:105080003221A0F86813C168DFED621A9FED621A41
:10509000DFED640AB2EE000A00F56A70FFF73CFD2E
:1050A0005B488038B0F90A10F7EE001A9FED5A1AE3
:1050B000DFED5C0AB2EE000A00F57470FFF72CFD1C
:1050C00014225049594818300AF044FA5748D83049
:1050D000484B0ECB4C300EC000204D49803981F832
:1050E000380400214A48803880F83914052180F8B6
:1050F0003A146FF05E01C0F83C146421A0F8421429
:105100003221A0F84014C168DFED421A9FED421A27
:10511000DFED440AB2EE000A00F59060FFF7FCFCF8
:105120003B488038B0F90A10F7EE001A9FED3A1AA2
:10513000DFED3C0AB2EE000A00F59560FFF7ECFCEB
:10514000142230493948F0300AF004FA3848294B23
:105150000ECB4C300EC000202D49803981F810054F
:1051600000212B48803880F81115052180F8121590
:105170005F21C0F814156421A0F81A153221A0F897
:105180001815C168DFED231A9FED231ADFED250AFC
:10519000B2EE000A00F5AB60FFF7BEFC1C48803899
:1051A000B0F90A10F7EE001A9FED1B1ADFED1D0A89
:1051B000B2EE000A00F5B060FFF7AEFC1422114910
:1051C0001B4818300AF0C6F91948D830094B0ECBE5
:1051D0004C300EC000200E49803981F8E8050021CE
:1051E0000B48803880F8E915052180F8EA156FF042
:1051F0005E011FE07426002068260020F6283C404F
:1052000077BEC340802600200000E14494260020A1
:1052100034270020CDCCCC3E000000008FC2F53DED
:10522000CDCC4C3E9A99993EE4280020942A002047
:10523000442C0020C0F8EC156421A0F8F2153221AE
:10524000A0F8F015C1685FED0D1A1FED0D1A5FEDA6
:105250000B0AB2EE000A00F5C660FFF75DFCFE48DF
:10526000B0F90A10F7EE001A1FED151A5FED130AD8
:10527000B2EE000A00F5CB60FFF74EFC1422F749AE
:10528000F7480AF067F90024BBE004EBC40000EB28
:105290004000F14901EBC000F2490968C0F8AC10C8
:1052A000F048416804EBC40000EB4000EA4A02EB1E
:1052B000C000C0F8B01004EBC40101EB410102EBE7
:1052C000C10101F1B4000A22E64908310AF042F9AD
:1052D000E448418A04EBC40000EB4000DE4A02EBE4
:1052E000C000A0F8BE1004EBC40000EB4000114663
:1052F00001EBC000AC30DB4A53699169D269C0E967
:105300000531C26104EBC40000EB4000D24901EB5F
:10531000C000D0ED270A04EBC40000EB400001EB15
:10532000C00090F8CE0000EE100AB8EE400A20EE61
:10533000800A04EBC40000EB400001EBC000D0ED9C
:10534000350A60EE200A04EBC40000EB400001EBDC
:10535000C000B0F8CC0000EE100AB8EE400A20EE13
:10536000800ADFEDC10A80EE201ABCEEC10A04EB10
:10537000C40000EB400001EBC00080ED2B0A04EB01
:10538000C40000EB400001EBC000406800EE100AD2
:10539000B8EEC00A04EBC40000EB400001EBC00013
:1053A000D0ED350A60EE200A04EBC40000EB4000AB
:1053B00001EBC00090F8CE0000EE100AB8EE400AF3
:1053C00060EE800A04EBC40000EB400001EBC0007B
:1053D000B0F8CC0000EE100AB8EE400A20EE800AC9
:1053E000DFEDA10A80EE201ABDEEC10A10EE100A10
:1053F00004EBC40101EB4101974A02EBC101C86013
:10540000641C082CFFF641AF00209849C8708870D2
:1054100048700871087000BF0BE044F62C4200EBA6
:10542000C00101EB41018C4B03EBC101A1F8A220AB
:10543000401C0428F1DB10BD002245210A54026201
:1054400000218161704710B5044604EBC40000EBF5
:105450004000814901EBC000D0ED200A04EBC400FC
:1054600000EB400001EBC000B0F90A0000EE100AAA
:10547000B8EEC00A20EE800ABDEEC00A10EE100A97
:1054800004EBC40101EB4101734A02EBC10108675F
:1054900004EBC40000EB4000114601EBC000B0F982
:1054A0001E1004EBC40000EB400002EBC000C0F88B
:1054B000881004EBC40101EB410102EBC10101F1D1
:1054C0007000FFF739FB04EBC40000EB40006249B9
:1054D00001EBC000018904EBC40000EB40005E4A10
:1054E00002EBC000D0F88400084401B204EBC40011
:1054F00000EB400002EBC000018110BD10B5044676
:1055000004EBC40000EB4000534901EBC0004068CD
:1055100000EE100AB8EEC00A04EBC40000EB400035
:1055200001EBC000D0ED350A60EE200A04EBC400A8
:1055300000EB400001EBC00090F8CE0000EE100A36
:10554000B8EE400A60EE800A04EBC40000EB4000B5
:1055500001EBC000B0F8CC0000EE100AB8EE400A33
:1055600020EE800ADFED400A80EE201ABDEEC10A6F
:1055700010EE100A04EBC40101EB4101364A02EBC4
:10558000C101C86004EBC40000EB4000114601EB10
:10559000C000C06804EBC40101EB410102EBC10192
:1055A000886404EBC40000EB4000114601EBC0002E
:1055B000407870B904EBC40000EB400001EBC00080
:1055C000D0F8B00004EBC40101EB410102EBC101D2
:1055D000886404EBC40000EB40001F4901EBC000ED
:1055E000016A04EBC40000EB40001B4A02EBC00060
:1055F000016604EBC40101EB410102EBC10101F1C1
:105600004800FFF799FA04EBC40000EB4000124990
:1056100001EBC000D0ED160A04EBC40000EB400023
:1056200001EBC000C06D00EE100AB8EEC00A20EE1B
:10563000800ABDEEC00A10EE100A04EBC40101EBB3
:105640004101054A02EBC101086704EBC40000EB0D
:10565000400011460CE00000B42600208026002007
:10566000342D0020942600200000B44320000020A8
:1056700001EBC00090F8A00088B304EBC40000EB7D
:10568000400001EBC000006F002807DD04EBC40000
:1056900000EB400001EBC000006F08E004EBC40029
:1056A00000EB4000FE4901EBC000006F404204EBFC
:1056B000C40101EB4101FA4A02EBC101B1F8A210A9
:1056C00088421FDD04EBC40000EB4000114601EBF3
:1056D000C000006F002803DA4FF0FF3001E011E056
:1056E000012004EBC40101EB4101ED4A02EBC101D1
:1056F000B1F8A210484304EBC40101EB410102EBF5
:10570000C101086704EBC40000EB4000E44901EB71
:10571000C000B0F91E1004EBC40000EB4000E04AEA
:1057200002EBC000C0F8881004EBC40101EB41019A
:1057300002EBC10101F17000FFF7FEF904EBC400B8
:1057400000EB4000D64901EBC000018904EBC40026
:1057500000EB4000D24A02EBC000D0F884000844BD
:1057600001B204EBC40000EB400002EBC000018179
:1057700004EBC40000EB4000114601EBC000D0F880
:10578000B800002808DD04EBC40000EB400001EB8A
:10579000C000D0F8B80009E004EBC40000EB400002
:1057A000BF4901EBC000D0F8B80040423C280ADAFB
:1057B000012004EBC40101EB4101B94A02EBC10134
:1057C00081F8400009E0002004EBC40101EB410135
:1057D000B34A02EBC10181F8400010BD10B5044688
:1057E00004EBC40000EB4000AD4901EBC000B0F990
:1057F000A60004EBC40101EB4101A94A02EBC1017F
:10580000086704EBC40000EB4000114601EBC00048
:10581000B0F91E1004EBC40000EB400002EBC00026
:10582000C0F8881004EBC40101EB410102EBC10197
:1058300001F17000FFF780F904EBC40000EB4000B9
:10584000974901EBC000018904EBC40000EB400064
:10585000934A02EBC000D0F88400084401B204EB84
:10586000C40000EB400002EBC000018104EBC40067
:1058700000EB4000114601EBC000B0F8B400F0B9F5
:1058800004EBC40000EB400001EBC000006A41F2F1
:105890008831884213DD04EBC40000EB4000114660
:1058A00001EBC000B0F8BC00401C81B204EBC400A6
:1058B00000EB400002EBC000A0F8BC1009E00021A2
:1058C00004EBC40000EB4000754A02EBC000A0F8F6
:1058D000BC1004EBC40000EB4000714901EBC000B8
:1058E000B0F8BC00642829DD002104EBC40000EB03
:1058F00040006B4A02EBC000A0F8BC1004EBC400EF
:1059000000EB400002EBC0000162052004EBC40183
:1059100001EB410102EBC1018870012104EBC400DD
:1059200000EB400002EBC00080F84110002004EBC7
:10593000C40101EB410102EBC101486010BD10B58B
:10594000002363E103EBC30000EB4000544901EB8B
:10595000C000416A03EBC30000EB4000504A02EB79
:10596000C000806B081A01B203EBC30000EB4000DB
:1059700002EBC000A0F8B41003EBC30000EB400042
:10598000114601EBC000806903EBC30101EB41014B
:1059900002EBC101C86203EBC30000EB40001146FB
:1059A00001EBC000818B03EBC30000EB400002EB76
:1059B000C000018603EBC30000EB4000114601EB81
:1059C000C000C18B03EBC30000EB400002EBC00042
:1059D000418603EBC30000EB4000114601EBC00021
:1059E000016A03EBC30000EB400002EBC00041631F
:1059F00003EBC30000EB4000114601EBC000416A1D
:105A000003EBC30000EB400002EBC000816303EB3B
:105A1000C30000EB4000114601EBC000018D03EB19
:105A2000C30000EB400002EBC000818703EBC30022
:105A300000EB4000114601EBC000B0F9B4000028B3
:105A400008DD03EBC30000EB400001EBC000B0F940
:105A5000B40009E003EBC30000EB4000104901EB88
:105A6000C000B0F9B400404241F2040188422FDD89
:105A700003EBC30000EB4000094901EBC000B0F9A3
:105A8000B41003EBC30000EB4000054A02EBC0007A
:105A9000B0F9B400002805DA4FF0FF3003E0000051
:105AA000B4260020012003EBC30202EB4202FE4CAD
:105AB00004EBC202B2F8CC2000FB121001B203EBDF
:105AC000C30000EB4000224602EBC000A0F8B41077
:105AD00003EBC30000EB4000F34901EBC000016A97
