:020000040800F2
:10000000B0B0002031CC0008E99B0008EB9B000851
:10001000FD9B0008019C0008059C000800000000F2
:10002000000000000000000000000000099C000823
:100030000B9C0008000000009BEE0008FFF0000889
:100040004BCC00084BCC00084BCC00084BCC000834
:100050004BCC00084BCC00084BCC00084BCC000824
:100060004BCC00084BCC00084BCC00084BCC000814
:100070004BCC00084BCC0008514500084BCC000885
:100080004BCC0008612000084BCC00084BCC00088A
:100090001B0B00084BCC00084BCC00084BCC0008D5
:1000A0004BCC00084BCC00084BCC00084BCC0008D4
:1000B0003F030008B30600084BCC00084BCC0008F7
:1000C0004BCC00084BCC00084BCC00084BCC0008B4
:1000D0004BCC00084BCC000887200008A545000841
:1000E0004BCC00084BCC00084BCC00084BCC000894
:1000F0004BCC00084BCC00084BCC00084BCC000884
:100100004BCC00084BCC00084BCC00084BCC000873
:100110004BCC00084BCC00084BCC00084BCC000863
:100120004BCC00084BCC00084BCC00084BCC000853
:100130004BCC00084BCC00084BCC00084BCC000843
:1001400095110008E91300084BCC00084BCC0008BF
:100150004BCC00084BCC0008511F00084BCC0008CA
:100160004BCC00084BCC00084BCC00084BCC000813
:100170004BCC00084BCC00084BCC00084BCC000803
:100180004BCC00084BCC0008DFF80CD00FF030FA55
:1001900000480047AF1D0008B0B0002030BF72B665
:1001A000704762B6704780F30888704710B5082022
:1001B0000FF0A0FE044600206060204610BD012024
:1001C00044494871704710B505F060FC424805F09D
:1001D00010FD07F08FF9404807F023FA04F04AFBBE
:1001E00006F0B0FEFFF7EBFF002019E0002100EB66
:1001F00080023A4B03EB4202517000EB800203EBAA
:10020000420291714FF47A7100EB800203EB4202DB
:100210005180002100EB800203EB42029180401CE0
:100220000228E3DBFFF7C2FF2D49486010BD002222
:100230000A7803780B700270704770B506460C465A
:10024000354600E06D6815B16868A042FAD14CB13E
:100250006068686020460FF025FE21480078401E47
:100260001F49087070BD02460B46114605E008881C
:10027000984201D10846704749680029F7D100200B
:10028000F9E72DE9F041074688463C4641462046BD
:10029000FFF7E9FF08B1BDE8F081002602E06468DD
:1002A000701CC6B20E480078B04201DD002CF6D1B9
:1002B0006CB108200FF01EFE0546A5F800806068AE
:1002C0006860656006480078401C0549087000BFFA
:1002D000E1E70000CE03002000680040300100206C
:1002E000040000201FB5012108460BF02EFA41F64C
:1002F000573002900520ADF804000020ADF806004C
:10030000ADF80C0001A94FF080400BF0D6FB0122A4
:10031000114690070CF072F8012188070BF056FC8B
:100320001C208DF8000002208DF801008DF80200DD
:1003300001208DF80300684609F0E9FF1FBD70B584
:10034000012188070CF071F801287DD100247DE09F
:10035000C4EB0410BC4901EB800090F83200012886
:100360002BD1C4EB041011F8200030B30EF04EFD79
:10037000C4EB0411B44A02EB8101C96A411AC4EB0F
:10038000041002EB8000008E814216D9C4EB0410E9
:10039000114601EB800090F8320001280DD1C4EB2A
:1003A000041001EB800090F82800401CC4EB0411FD
:1003B00002EB810181F8280007E00020C4EB041162
:1003C000A14A02EB810181F82800C4EB04109E4988
:1003D00001EB800090F82800642818DD0121C4EBAF
:1003E0000410994A02EB800080F82510022009F0E1
:1003F000E9F8621C032343EA021242F48071934A33
:100400005068FFF73EFF022009F0C2FB1AE000200F
:1004100009F0BEFB0021C4EB04108B4A02EB800004
:1004200080F82510621C032343EA021242F4807113
:10043000864A5068FFF717FF0546844948682946F1
:10044000FFF7FBFE601C00E0F9E0C4B2042CFFF6ED
:100450007FAF00246FE0C4EBC40000EB40007C4998
:1004600001EB80004078002864D00EF0CFFCC4EB94
:10047000C40101EB4101764A02EB8101096C411A8A
:10048000C4EBC40000EB400002EB8000B0F8440075
:1004900081421BD9C4EBC40000EB4000114601EBC4
:1004A000800090F84700012810D1C4EBC40000EB95
:1004B000400001EB8000808F401C81B2C4EBC4007F
:1004C00000EB400002EB8000818708E00021C4EBD4
:1004D000C40000EB40005E4A02EB80008187C4EB61
:1004E000C40000EB40005A4901EB8000808FB0F55A
:1004F0007A7F13DD0121C4EBC40000EB4000544AB5
:1005000002EB8000C177022009F05CF8032009F0BB
:100510003FFB4FF4FA7009F05CF90BE0002009F0A2
:1005200037FB0021C4EBC40000EB4000484A02EB5B
:100530008000C177641C042C8DD3002404E0204685
:1005400005F0BBF9601CC4B2082CF8DB002474E091
:1005500004EBC40000EB04103E4901EB800040783E
:1005600090B30EF053FC04EBC40101EB0411394AC3
:1005700002EB8101096D411A04EBC40000EB041089
:1005800002EB8000B0F8540081421ED904EBC40095
:1005900000EB0410114601EB800090F85700012891
:1005A00013D104EBC40000EB041001EB8000B0F8A1
:1005B0004C00401C81B204EBC40000EB041002EBC1
:1005C0008000A0F84C100AE035E0002104EBC400E4
:1005D00000EB04101F4A02EB8000A0F84C1004EB63
:1005E000C40000EB04101B4901EB8000B0F84C0084
:1005F000642813DD012104EBC40000EB0410154A4C
:1006000002EB800080F82F10022008F0DBFF0420AE
:1006100009F0BEFAC82009F0DCF80CE0002009F06F
:10062000B7FA002104EBC40000EB0410094A02EB06
:10063000800080F82F10601CC4B2042C88DB0121DC
:1006400088070BF003FF70BDD82E002004000020A7
:10065000182D0020043000201FB5012102200BF0CE
:1006600074F842F6DF6002900720ADF80400002025
:10067000ADF80600ADF80C0001A980480BF01DFA9A
:10068000012211467D480BF0B9FE01217B480BF099
:100690009DFA1D208DF8000001208DF8010000203A
:1006A0008DF8020001208DF80300684609F02FFE46
:1006B0001FBD70B5012171480BF0B7FE01287AD13A
:1006C00004F0AAFE002432E004EB041000EB40002A
:1006D0006B4911F8200028B304EB041000EB400034
:1006E00001EB80004078F0B104EB041000EB400017
:1006F00001EB80008078012806D0022805D004286C
:100700000BD005280DD104E00CE020B204F0D4FB9E
:1007100008E020B204F029FC04E020B204F0CDFD92
:1007200000E000BF02E020B204F01FFC641C082CB3
:10073000CADB04F049F8524CB4F96A32B4F99E218C
:10074000B4F9D210B4F9060003F0E5FFB4F99A3514
:10075000B4F9CE24B4F90214B4F9360303F082FFDD
:10076000002477E0C4EB0410464911F8200000286B
:1007700068D0C4EB041001EB80004078F0B3C4EB08
:10078000041001EB80008078B0B1012804D0022869
:1007900021D0032845D135E0C4EB0411394A02EBDE
:1007A0008101D1ED010AB0EE600A611CC8B20021DE
:1007B00006F017FD36E05FE0C4EB0411314A02EBAE
:1007C0008101D1ED040AB0EE600A611CC8B20021BB
:1007D00006F04FFC26E0C4EB04122A4B03EB820226
:1007E0009268C4EB0413274D05EB830393F838306C
:1007F00002FB03F1621CD0B2002200E013E006F01D
:100800009AFC0FE0C4EB04111E4A02EB8101D1ED0A
:100810000D0AB0EE600A611CC8B2002106F045FD69
:1008200000E000BF15E0C4EB0411164A02EB8101A1
:10083000D1ED0D0AB0EE600A611CC8B2002106F0CD
:1008400034FD06E0611CC8B200219FED0F0A06F0DE
:10085000C8FC641C082C85DB0C490D4808F0D5FB4E
:100860000C490D4808F0D1FB0C49094808F0CDFBB4
:10087000012102480BF0EAFD70BD000000040040B9
:100880008C260020D82E00200000000010650020DB
:10089000006800402C63002000640040F4660020E3
:1008A00000B58BB0012148060AF04FFF0121084630
:1008B0000AF018FF09220B21FA480AF058FD092214
:1008C0000C21F8480AF053FD02208DF81C004FF46B
:1008D000C050069006A9F3480AF0BEFC00208DF82F
:1008E00026008DF827008DF828008DF829008DF856
:1008F0002A008DF82B008DF822008DF823000820A7
:100900008DF8240003208DF82500ADF8200008A9FB
:10091000E54809F080FD00208DF8120001208DF8D7
:10092000130000208DF8140046F2A000ADF8080076
:1009300046F2C000ADF80A0046F2E000ADF80C0047
:100940004FF4C240ADF80E000020ADF810000120B9
:100950008DF8150002A809F0E8FD03208DF81200BB
:1009600001208DF8130000208DF814004FF4C840CA
:10097000ADF8080046F22000ADF80A0046F240004B
:10098000ADF80C0046F26000ADF80E000020ADF8A6
:10099000100001208DF8150002A809F0C6FD1420F2
:1009A0008DF8040003208DF8050000208DF8060066
:1009B00001208DF8070001A809F0A9FC01220221FD
:1009C000B9480AF0B1F80BB000BD10B50446B748FD
:1009D0004088401C1E2190FBF1F201FB1200B3493C
:1009E0000988884203D10120B149887110BD20686F
:1009F0008038AE494A88091D01EB02110860A17ACE
:100A0000AA484288001D00EB02100171A27AA74992
:100A10004B88091D01EB0311481D04F10B010EF079
:100A2000B7FBA2484088401C1E2190FBF1F201FB5D
:100A300012009E49488000BFD8E710B501469B4888
:100A40004088401C1E2290FBF2F302FB1300974AE1
:100A50001288904203D10120954A907110BDA1F1F6
:100A60008002924B5C881B1D03EB04131A60052364
:100A70008E4A5488121D02EB0412137142238B4AD2
:100A80005488121D02EB04125371884A5488121DB7
:100A900002EB041293714723844A5488121D02EB1F
:100AA0000412D3714A1FD0B200EB001202EB4202D3
:100AB000804B03EB8202B2F9142000EE102AB8EE4C
:100AC000C00AF3EE0E0A20EE200A00EB001202EB41
:100AD000420203EB8202D2ED320A80EE201ABDEE12
:100AE000C10A10EE102A12B2734B23F810201A46D6
:100AF00032F810306D4A5488121D02EB0412138133
:100B000000BF6A484088401C1E2290FBF2F302FBA3
:100B10001300664A508000BFA0E710B586B00221DE
:100B200061480AF069F8002875D002215E480AF091
:100B3000FEF802215C480AF03CF801AA00215A485C
:100B400009F0D7FE9DF80C00002864D19DF80D0037
:100B50000028FAD140F20531019888420BD0491C97
:100B60000198884207D0491C0198884203D0019817
:100B7000B0F5427F7DD10198401FC4B29DF80F00AF
:100B800043280FD19DF8100057280BD19DF8110074
:100B9000482807D19DF81200552803D101A8FFF776
:100BA00014FFD0E09DF80F00432835D19DF81000C8
:100BB000482831D1BDF811003F4921F814000846FA
:100BC00030F9140000EE100AF8EEC00AB3EE0E1A67
:100BD00080EE810A04EB041000EB4000354901EB84
:100BE0008000D0ED320A20EE200ABDEEC00A10EEE1
:100BF000100A00B204EB041101EB41012D4A02EB93
:100C000081018880012004EB041101EB410102EB1A
:100C10008101487097E019E19DF80F00532818D121
:100C20009DF81000502814D1BDF81100234921F877
:100C30001400084630F8141004EB041000EB4000D8
:100C40001C4A02EB8000A0F8961001A8FFF7BDFE39
:100C500079E09DF80F004D2832D19DF810004F2803
:100C60002ED19DF8110001282AD1052004EB041192
:100C700000E069E001EB41010E4A02EB810188705E
:100C8000012004EB041101EB410102EB81014870EA
:100C900004EB041101EB410102F8210001A8FFF768
:100CA00094FE50E000000240006400402C630020ED
:100CB000CE0300208C2600200C0000201400002011
:100CC0009DF80F004D2819D19DF810004F2815D11F
:100CD0009DF8110090B9002004EB041101EB4101D3
:100CE000604A02F8210004EB041101EB410102EB20
:100CF0008101487001A8FFF768FE24E09DF80F000D
:100D0000532810D19DF8100054280CD1002004EB7A
:100D1000041101EB4101534A02EB8101487001A823
:100D2000FFF753FE0FE09DF80F0042280BD19DF80E
:100D30001000422807D19DF81100472803D10199DE
:100D400088B2FFF77AFE00BF0198B0F5487F7DD1E9
:100D5000BDF80F0044490880BDF811004880BDF877
:100D600013008880BDF81500C8800846B0F900005F
:100D700000EE100AB8EEC00AB3EE0E1AC0EE010A79
:100D8000384890ED320A20EE800ABDEEC00A10EE1F
:100D9000100A00B23349888001204870052088700D
:100DA0003148B0F9020000EE100AB8EEC00AB3EE06
:100DB0000E1AC0EE010A084690ED650A20EE800A80
:100DC000BDEEC00A10EE100A01B22648A0F8D010FD
:100DD000012180F8CD10052180F8CE102248B0F90D
:100DE000040000EE100AB8EEC00AB3EE0E1AC0EE10
:100DF000010A1C4890ED980A20EE800ABDEEC00A58
:100E000010EE100A01B21748A0F89C11012180F8D9
:100E10009911052180F89A111348B0F9040000EEE9
:100E2000100AB8EEC00AB3EE0E1AC0EE010A0D4861
:100E300090EDCB0A20EE800ABDEEC00A10EE100A3B
:100E400001B20848A0F86812012100E007E080F82C
:100E50006512052180F8661201A8FFF7B6FD06B0FD
:100E600010BD00008C2600200C0000202DE9F04170
:100E70008AB004460D4616461F46DDF84080012123
:100E800002200AF02FFC01214FF0C0600AF05DFC47
:100E9000FE4809F0A7FA09220521FD480AF067FA81
:100EA00009220621FA480AF062FA02208DF824008D
:100EB0006020089008A9F6480AF0CEF940208DF885
:100EC000000002208DF8010000208DF802000120B2
:100ED0008DF80300684609F01AFA41208DF80000E9
:100EE00002208DF8010001208DF802008DF803002A
:100EF000684609F00CFA00208DF81A008DF81B00E6
:100F00008DF81C008DF81D008DF81E008DF81F0057
:100F10008DF816808DF817408DF818608DF81950EF
:100F2000ADF8147005A9D94809F075FA0E208DF8AE
:100F30000E0001208DF80F0000208DF8100044F203
:100F40002000ADF8040044F24000ADF8060044F281
:100F50006000ADF808004FF48140ADF80A000020B1
:100F6000ADF80C0001208DF8110001A809F0DDFAA0
:100F70000F208DF80E0001208DF80F0000208DF855
:100F8000100044F2A000ADF8040044F2C000ADF837
:100F9000060044F2E000ADF808004FF48240ADF8DE
:100FA0000A000020ADF80C0001208DF8110001A806
:100FB00009F0BBFA10208DF80E0001208DF80F000B
:100FC00000208DF8100045F22000ADF8040045F235
:100FD0004000ADF8060045F26000ADF808004FF49F
:100FE000A140ADF80A000120ADF80C008DF8110009
:100FF00001A809F09AFA11208DF80E0001208DF851
:101000000F0000208DF8100045F2A000ADF804009C
:1010100045F2C000ADF8060045F2E000ADF808006A
:101020004FF4A240ADF80A000120ADF80C008DF895
:10103000110001A809F079FA12208DF80E000120A4
:101040008DF80F0000208DF810004FF48150ADF89E
:1010500004004FF48250ADF806004FF48350ADF811
:1010600008004FF48450ADF80A000120ADF80C00E0
:101070008DF8110001A809F058FA13208DF80E0020
:1010800001208DF80F0000208DF810004FF48550DE
:10109000ADF804004FF48650ADF806004FF48750C9
:1010A000ADF808004FF48850ADF80A000120ADF803
:1010B0000C008DF8110001A809F037FA14208DF802
:1010C0000E0000208DF80F0001208DF81000002088
:1010D000ADF804004FF49040ADF806004FF6FF70F5
:1010E000ADF808004FF47840ADF80A000120ADF8E3
:1010F0000C008DF8110001A809F017FA15208DF8E1
:101100000E0001208DF80F0000208DF810004BF22A
:101110002000ADF804004BF24000ADF806004BF2A1
:101120006000ADF808004BF28000ADF80A00012025
:10113000ADF80C008DF8110001A809F0F6F91620A1
:101140008DF80E0001208DF80F0000208DF81000A2
:101150004FF40150ADF804004FF40250ADF8060012
:10116000ADF80800ADF80A000120ADF80C008DF8CC
:10117000110001A809F0D9F901221021434809F012
:10118000D3FC01220221414809F0CEFC00200AB024
:10119000BDE8F08110B586B001AA00213B4809F0F6
:1011A000A8FB9DF80C0000287CD19DF80C000028BD
:1011B00078D19DF80E00082874D10198B0F5007F11
:1011C00070D90198B0F5027F6CD80198401EC4B266
:1011D000304850F82400304941F824000DF016FE44
:1011E0002C4941F824009DF812109DF8110041EAA5
:1011F000002001B204EB041000EB4000274A02EB90
:10120000800001839DF810009DF80F1040EA012036
:1012100001B204EB041000EB400002EB80000184FB
:101220009DF814109DF8130041EA002001B204EB70
:10123000041000EB400002EB8000C1829DF8151005
:1012400004EB041000EB400002EB8000418404EB4F
:10125000041000EB4000114601EB8000C06900EE75
:10126000100AB8EEC00ADFED0E0A60EE200A04EBA9
:10127000041000EB400001EB800090F8C20000EE8B
:10128000100AB8EE401A80EE810A0CE000680040B7
:1012900000040240FC030020DC0300208C26002018
:1012A0000000B44340E004EB041000EB400001EB0D
:1012B000800090ED321AC0EE010A04EB041000EB3E
:1012C000400001EB8000B0F8C00000EE100AB8EE5C
:1012D000400A80EE801ABDEEC10A10EE100A00B27C
:1012E00004EB041101EB410102EB8101888204EB64
:1012F000041000EB4000114601EB800090F83A002A
:1013000088B9012104EB041000EB400002EB8000DF
:1013100080F83A10002104EB041000EB400002EBCF
:101320008000A0F8A81000BF0221FE4809F0FFFCD1
:101330000221FC4809F03DFC06B010BDF0B585B0B7
:1013400007460D46002412200090019000208DF8E1
:1013500008008DF809008DF80A5000BF05E0395DDE
:101360000DF10B000155601C84B2AC42F7DB6946FD
:10137000EC4809F0C9F90646002401E0601C84B27B
:101380003146E84809F058FA18B940F6FF7084422F
:10139000F4DB40F6FF70844202DB012005B0F0BDB3
:1013A0000020FBE74168491C41600021017301698D
:1013B000491E0161818A491C1E2291FBF2F302FB46
:1013C0001311818270474168491C416000210173FB
:1013D0000169491E0161818A491C1E2291FBF2F3B9
:1013E00002FB13118182704710B586B01021CD48E1
:1013F00009F002FC002874D001AA0121C94809F0B3
:1014000078FA1021C74809F092FC1021C54809F06C
:10141000D0FB0198B0F5B06F74D940F285510198B6
:1014200088426FD89DF80D0000286BD10198A0F27A
:101430008150C4B2002104EBC40000EB0410BA4A8E
:1014400002EB800080F857109DF80F004F2809D15B
:101450009DF81000602805D19DF81100602801D189
:10146000012000E000209DF80F10432909D19DF8CC
:101470001010622905D19DF81110602901D10121B8
:1014800000E0002108439DF80F10432909D19DF881
:101490001010642905D19DF81110602901D1012196
:1014A00000E0002108439DF80F10432909D19DF861
:1014B00010106B2905D19DF81110602901D101216F
:1014C00000E0002108439DF80F1043290AD19DF840
:1014D00010106C2906D19DF81110602902D101214C
:1014E00001E061E3002108439DF80F104B290AD168
:1014F0009DF81010402906D19DF81110602902D1E5
:10150000012101E047E1002108439DF80F104B291C
:1015100009D19DF81010772905D19DF81110602987
:1015200001D1012100E00021084330B1C4EB841156
:101530007E4A02EBC100FFF746FF9DF80F004B28E3
:1015400016D19DF81000402812D19DF81100602896
:101550000ED19DF81300C01008B1012000E000205A
:1015600004EBC40101EB04116F4A02EB81014870E6
:101570009DF80F004F2810D19DF8100060280CD165
:101580009DF81100602808D19DF8130004EBC401F8
:1015900001EB0411644A02F821009DF80F00432872
:1015A00049D19DF81000622845D19DF811006028AE
:1015B00041D1DDF8131004EBC40000EB04105A4ACB
:1015C00002EB8000016104EBC40000EB0410114643
:1015D00001EB800090ED180A1FEDCF1AC1EE000A52
:1015E00004EBC40000EB041001EB8000006900EE86
:1015F000100AB8EEC00A20EE800AB1EE001AC0EE62
:10160000010A04EBC40000EB041001EB8000B0F809
:101610005C0000EE100AB8EE400A80EE801ABDEEC3
:10162000C10A10EE100A00B204EBC40101EB041170
:1016300002EB810188809DF80F00432849D19DF875
:101640001000642845D19DF81100602841D1DDF8D3
:10165000131004EBC40000EB0410334A02EB8000CB
:10166000416204EBC40000EB0410114601EB800062
:1016700090ED180A1FEDF61AC1EE000A04EBC40043
:1016800000EB041001EB8000406A00EE100AB8EE97
:10169000C00A20EE800AB1EE001AC0EE010A04EB87
:1016A000C40000EB041001EB8000B0F85C0000EE19
:1016B000100AB8EE400A80EE801ABDEEC10A10EEA4
:1016C000100A00B204EBC40101EB041102EB81012A
:1016D00008839DF80F00432811D19DF810006B2856
:1016E0000DD19DF81100602809D1DDF8131004EB2D
:1016F000C40000EB04100C4A02EB8000C1609DF8AE
:101700000F00432818D19DF810006C2814D19DF8C3
:101710001100602810D1DDF8131004EBC40000EBB9
:10172000041005E0006800400430002078550020D7
:10173000FE4A02EB800001629DF80F004B2829D180
:101740009DF81000772825D19DF81100602821D13F
:10175000DDF8131004EBC40000EB0410F34A02EBB5
:101760008000816204EBC40000EB0410114601EB21
:101770008000806A00EE100AB8EEC00ADFEDEC0AC5
:1017800080EE201A04EBC40000EB041001EB800093
:1017900080ED071A00BF0198B0F5207F7ED901982F
:1017A000B0F5227F7AD89DF80D00002876D10198F7
:1017B000A0F28120C4B20021C4EBC40000EB4000C1
:1017C000DC4A02EB800080F847109DF80F004128AA
:1017D0000BD19DF81000432807D19DF8120000F0AE
:1017E0004000012801D0012000E000209DF80F10EA
:1017F00042290BD19DF81010472907D19DF81210EE
:1018000001F04001012901D0012100E0002108433D
:101810009DF80F104A290BD19DF81010562907D1B9
:101820009DF8121001F04001012901D0012100E0D2
:10183000002108439DF80F104D290BD19DF8101081
:101840004F2907D19DF8121001F04001012901D064
:10185000012100E0002108439DF80F1050290BD111
:101860009DF81010522907D19DF8121001F0400187
:10187000012901D0012100E0002108439DF80F104B
:1018800053290CD19DF81010442908D19DF812104D
:1018900001F04001012902D0012101E0FDE0002119
:1018A00008439DF80F1053290BD19DF810105429AF
:1018B00007D19DF8121001F04001012901D001214A
:1018C00000E0002108439DF80F1054290BD19DF82A
:1018D0001010432907D19DF8121001F04001012991
:1018E00001D0012100E0002108439DF80F10552987
:1018F0000BD19DF810104D2907D19DF8121001F061
:101900004001012901D0012100E00021084330B14C
:10191000C4EB8411884A02EBC100FFF743FD9DF838
:101920000F004D2825D19DF810004F2821D19DF89A
:10193000120000F0400001281BD09DF81300012880
:101940000ED19DF8130008B1012000E00020C4EB87
:10195000C40101EB4101774A02EB8101487008E0C4
:101960000020C4EBC40101EB4101724A02EB81018A
:1019700048709DF80F0056282FD19DF81000582868
:101980002BD19DF8120000F04000012825D0DDF891
:101990001310C4EBC40000EB4000664A02EB800069
:1019A0004161C4EBC40000EB4000114601EB800034
:1019B000B0F84C003C2190FBF1F1C4EBC40000EB0B
:1019C000400002EB8000406990FBF1F1C4EBC400E1
:1019D00000EB400002EB800041619DF80F005028B1
:1019E00041D19DF8100058283DD19DF8120000F01B
:1019F0004000012837D0DDF81300C4EBC40101EB2F
:101A000041014C4A02EB81018861C4EBC40101EB46
:101A1000410102EB810191ED140A9FED481AC1EEDC
:101A2000000A00EE100AB8EEC00A60EE800AC4EBAD
:101A3000C40101EB410102EB8101B1F84C1000EE51
:101A4000101AB8EE400A80EE801ABDEEC10A10EE00
:101A5000101A09B2C4EBC40202EB4202354B03EB8D
:101A60008202118200BF9DF80F00492814D19DF811
:101A70001000512810D19DF8120000F040000128FC
:101A80000AD0BDF8130001B2C4EBC40000EB400063
:101A9000284A02EB8000418200BF0198812813D3BD
:101AA0000198882810D89DF80D0068B901988138F0
:101AB000C4B2621C022343EA021242F44071204A7B
:101AC0005068FEF7DEFB00BF9DF80C0004286AD1C9
:101AD0009DF80D00C0BB002000900021029800F08E
:101AE000FE00C0EB0010174A02EB800080F83210B5
:101AF00009210298B1EB102F54D16946B7EE000AC4
:101B00000DF10F0007F045FE0298C0B2C0EB0010C7
:101B10000C4901EB800090F8380000EE900AF8EED6
:101B2000600A80EE201ABDEEC10A0EE004300020EB
:101B300000000843182D0020A84900200000B443ED
:101B400004000020D82E00202DE010EE100A02998B
:101B500001F0FE01C1EB0111234A02EB8101886112
:101B60006946B2EE040A0DF10F0007F022FE02985A
:101B700000F0FE00C0EB00101B4901EB800080ED7F
:101B8000050A69469FED190A0DF10F0007F011FED5
:101B9000029800F0FE00C0EB0010134901EB80003A
:101BA00080ED080A00BF00BF06B010BD30B585B09B
:101BB000054600210E4808F01FFF10B9002005B0AF
:101BC00030BD6A4600210B4808F093FE002404E073
:101BD0000DF10B00005D2855641C9DF80A00A04221
:101BE000F6D89DF80A00EAE7D82E002000007A44D3
:101BF000006400400068004042E00120B7EE000AA7
:101C000008F0E2FA0220B0EE000A08F0DDFA032044
:101C1000B0EE080A08F0D8FA04209FED820A08F016
:101C2000D3FA0520B1EE040A08F0CEFA0620B1EE90
:101C3000080A08F0C9FA0720B1EE0C0A08F0C4FA45
:101C40000820B2EE000A08F0BFFA0920B2EE020A3C
:101C500008F0BAFA7449096800EE901AF8EE600AC2
:101C6000B0EE600A0A2008F0AFFA0A2008F0FDFA88
:101C700001466E4800F055F94FF4FA700DF016F871
:101C8000BBE705E003F078FE40F24C400DF00EF8A3
:101C9000F8E706E0012005F0E3FB4FF47A700DF061
:101CA00005F8F7E725E001241DE00121204606F0B4
:101CB000BCFE0121204606F03BFE0121204606F035
:101CC000B3FD0121204606F031FD0121204606F03A
:101CD000AFFC0121204606F0CAFA0121204606F099
:101CE00021FF601CC4B2052CDFDB4FF47A700CF0CE
:101CF000DDFFD8E706E0012005F0A9F84FF4966073
:101D00000CF0D4FFF7E707E007F0EDFE07F059FE0F
:101D10004FF496700CF0CAFFF6E705E001F078FA90
:101D200040F6B8300CF0C2FFF8E770B50446002565
:101D300000BF022007F046FC002007F029FF01F059
:101D400067FA0DF0F2F90DF087F805460D23384AD1
:101D5000002138480CF064FC1E23374A0021374824
:101D60000CF05EFC0A23364A002136480CF058FC81
:101D70000F23354A002135480CF052FC1023344A19
:101D8000002134480CF04CFC0923334A002133482D
:101D90000CF046FC0E23324A002132480CF040FC85
:101DA00005200CF0BBFE28460DF05AF870BD08B5B2
:101DB0004FF4FA6007F00DFD0AF0A0FE4FF4A060AA
:101DC00008F0A0FA07F0E4FB07F0FBFD07F0C0FE07
:101DD00000F0E0F800F04EF807F01EFD07F062FE9C
:101DE00000200323082219460090FFF73FF8FEF772
:101DF00057FD07F0FFF802211B4807F0C7F9FEF76F
:101E000071FAFEF729FCFEF7DEF90BF05BF805230B
:101E1000164A002116480CF003FC0BF07AF900205A
:101E200008BD00000000C84324040040D86800201A
:101E30001C1000201B1D00081C120020071D00089C
:101E40001C1A0020F51C00081C1E0020A51C000800
:101E50001C220020931C00081C160020831C000874
:101E60001C260020F91B0008D83D00201C0800207B
:101E70002B1D00081CB54048006840F010003E498A
:101E800008603D481438006840F480003A4914392D
:101E900008600120022100230A46CDE900104FF41A
:101EA000C061364808F01CF807220921334807F0C2
:101EB000F7FF07220A21314807F0F2FF40F2D9204C
:101EC0002F4908814FF4037088810846008820F06C
:101ED00020000880032325220121062007F052FF5D
:101EE0004FF48070274B264A121D0421009026488B
:101EF00007F08CFE01221021234809F0D4F80323B7
:101F000046220021072007F03DFF1D48808A40F04F
:101F100080001B4988820846808940F400508881EF
:101F20001CBD70B504460D461848807A78B92A461B
:101F3000214614480DF02CF92946134809F047F8BA
:101F40000121114809F022F801201049887270BD62
:101F500010B50F490C4809F0C3F801280AD10C4903
:101F6000094809F08CF80A49074809F0E3F800200D
:101F70000649887210BD000044380240000002404B
:101F8000001001404E010020B8640240CE03002042
:101F9000008000281CB5FD48006840F40030FB4973
:101FA0000860FA481038006840F40010F74910390A
:101FB00008600120022100230A46CDE900100C210F
:101FC000F34807F08DFF07220221F14807F068FF70
:101FD00007220321EE4807F063FF4FF4B670ED4986
:101FE00008800C20091D0880EA480838008820F085
:101FF0002000E84908390880E648001D008840F0C4
:102000002000E449091D0880032326220121042021
:1020100007F0B8FE4FF48070DF4BDE4A121F042138
:102020000090DE4807F0F2FD01221021DB4809F0A4
:102030003AF8032311220121072007F0A3FED54817
:102040000C30008840F08000D2490C310880D14823
:10205000001D008840F40050CE49091D08801CBDB9
:1020600010B5CF49CD4809F03BF801280AD1CC4939
:10207000CA4809F004F8CA49C84809F05BF80020CA
:10208000C849C87210BD10B52DED028B002440F276
:102090002531C04808380AF07CFC60B1BD480838DA
:1020A0000AF0B5FB0020C04908702021BF480DF0A0
:1020B00088F801F099B840F22551B64808380AF07E
:1020C00068FC0028F5D02021B24808380AF058FCF6
:1020D00040F22551AF4808380AF092FCAD48083864
:1020E0000AF095FBC4B2B048007800F0400008B395
:1020F000AD48007800F0800020BBFF2C06D1AA4834
:10210000007840F08000A84908701BE0A6480078DD
:1021100000F03F01A5484454A3480078401CA24960
:1021200008700846007800F03F0028280ADD0020EB
:10213000087007E0EE2C05D19B48007840F0400085
:10214000994908709848007800F080000028B0D0C5
:10215000974890F82002122878D1012007F032FA2F
:10216000934890F82102102871D2DFE800F008129D
:102170001C2834495E718283848586878889012082
:102180008C49087081F8CC0081F8980181F86402CC
:102190007AE000208749087081F8CC0081F8980126
:1021A00081F8640270E00120824948700121814871
:1021B00080F8CD1080F8991180F8651264E0002055
:1021C0007C49487000217B4880F8CD1080F8991137
:1021D00080F8651258E001221146104603F00BFE0C
:1021E00001221146022003F006FE012211460320BF
:1021F00003F001FE01221146042003F0FCFD43E040
:1022000001220021104603F0F6FD012200211046B4
:1022100003F0F1FD01220021032003F0ECFD012277
:102220000021042003F0E7FD2EE00121084603F021
:102230000BFE0121022003F007FE0121032003F021
:1022400003FE0121042003F0FFFD1DE01DE01AE064
:102250000121084603F074FE0121022003F070FE04
:102260000121032003F06CFE0121042003F068FE2D
:102270000AE009E008E007E006E005E004E003E02A
:1022800007F0D2F900E000BF00BF494890F82102F2
:10229000012804D1464890F8230247490870444871
:1022A00090F82302092870D2DFE800F005232425E6
:1022B000FCFB6FFAF9003E4890F82502082815D17A
:1022C000012080F3138800BF00BFBFF34F8F3B484E
:1022D000006800F4E0603A490843001D374908608F
:1022E000BFF34F8F00BF00BF00BFFDE700BF00BFBF
:1022F000F0E3FDE7FCE72E4890F82502C01E0B280E
:1023000064D2DFE800F006E2E2646E85E2E2E29188
:102310009D002648C01D0DF01FFCB0EE408AF0EE77
:10232000608A51EC180B0CF067FF264988601F4843
:10233000C01D0DF011FCB0EE408AF0EE608A51EC49
:10234000180B0CF059FF01461E4841641748C01D88
:102350000DF002FCB0EE408AF0EE608A51EC180BF2
:102360000CF04AFF01461748C0F880100F48C01D06
:102370000DF0F2FBB0EE408AF0EE608A51EC180BE3
:102380000CF03AFF01460F481EE0B7E34038024028
:1023900000000240084400406E020020A06002409D
:1023A00000802020CE0300202B0000206E030020A0
:1023B0004E0100208C2600202A0000200CED00E0B9
:1023C0000000FA05D82E0020C0F8BC107DE00120E6
:1023D000F749087081F83C0081F8780081F8B40072
:1023E00073E00220F24988700221F14880F83E1023
:1023F00080F87A1080F8B6100120ED49487001216C
:10240000EB4880F83D1080F8791080F8B5105CE05A
:102410000320E74988700321E54880F83E1080F8E2
:102420007A1080F8B61050E00020E1494870002191
:10243000DF4880F83D1080F8791080F8B51044E04E
:10244000DC480DF089FBB0EE408AF0EE608A51EC7A
:10245000180B0CF009FF00EE100AD54880ED040AB5
:10246000D4480DF079FBB0EE408AF0EE608A51EC72
:10247000180B0CF0F9FE00EE100ACD4880ED130A9F
:10248000CC480DF069FBB0EE408AF0EE608A51EC6A
:10249000180B0CF0E9FE00EE100AC54803E0FDE35E
:1024A0002DE3A0E113E080ED220AC2480DF054FBB9
:1024B000B0EE408AF0EE608A51EC180B0CF0D4FEBE
:1024C00000EE100ABA4880ED310A00BF00BFBA48DA
:1024D00090F82502C01E1A2879D2DFE800F00D1B03
:1024E0002939495968798999A8B8C878D8F3F1F099
:1024F000EFEEEDECEBEAE9E8002008E0002100EB6C
:10250000001202EB4202AD4B03F82210401C0828D7
:10251000F4DB66E1A7480DF01FFBB0EE408AF0EE59
:10252000608A51EC180B0CF086FEA449887058E1C3
:10253000A0480DF011FBB0EE408AF0EE608A51EC3D
:10254000180B0CF078FEC1B29C4880F8CE1048E120
:1025500098480DF001FBB0EE408AF0EE608A51EC35
:10256000180B0CF068FEC1B2944880F89A1138E15B
:1025700090480DF0F1FAB0EE408AF0EE608A51EC2E
:10258000180B0CF058FEC1B28C4880F8661228E196
:1025900088480DF0E1FAB0EE408AF0EE608A51EC26
:1025A000180B0CF029FE01B28448018119E1814821
:1025B0000DF0D2FAB0EE408AF0EE608A51EC180BC2
:1025C0000CF01AFE01B27D48A0F8D41009E107E131
:1025D00078480DF0C1FAB0EE408AF0EE608A51EC16
:1025E000180B0CF009FE01B27448A0F8A011F8E035
:1025F00070480DF0B1FAB0EE408AF0EE608A51EC0E
:10260000180B0CF0F9FD01B26C48A0F86C12E8E070
:1026100068480DF0A1FAB0EE408AF0EE608A51EC05
:10262000180B0CF0E9FD00B264498880D9E06148DC
:102630000DF092FAB0EE408AF0EE608A51EC180B81
:102640000CF0DAFD01B25D48A0F8D010C9E059489D
:102650000DF082FAB0EE408AF0EE608A51EC180B71
:102660000CF0CAFD01B25548A0F89C11B9E05148E0
:102670000DF072FAB0EE408AF0EE608A51EC180B61
:102680000CF0BAFD01B24D48A0F86812A9E0494823
:102690000DF062FAB0EE408AF0EE608A51EC180B51
:1026A0000CF0C9FD81B24548A0F8961099E08CE085
:1026B00078E06CE061E055E049E03DE032E021E0A7
:1026C00010E0FFE73B480DF047FAB0EE408AF0EE2D
:1026D000608A51EC180B0CF0AEFD81B23748A0F8BF
:1026E00062117EE033480DF037FAB0EE408AF0EE2A
:1026F000608A51EC180B0CF09EFD81B22F48A0F8B7
:102700002E126EE02B480DF027FAB0EE408AF0EE64
:10271000608A51EC180B0CF08EFD81B22748A0F8AE
:10272000FA125EE0244890F8280208B1012000E087
:1027300000202249087054E01F4890F8280208B190
:10274000012000E000201D4981F8CC0049E01A4832
:1027500090F8280208B1012000E00020174981F814
:1027600098013EE0144890F8280208B1012000E0EA
:102770000020124981F8640233E00F4890F82802E3
:1027800008B1012000E000200C49487029E00A4807
:1027900090F8280208B1012100E00021074880F8E4
:1027A000CD101EE0044890F8280248B1012108E04D
:1027B000D82E0020750300204E0100208C2600201A
:1027C0000021F84880F899110BE0F74890F82802AA
:1027D00008B1012100E00021F24880F8651200E014
:1027E00000BF00BF84E5F04890F82502C01E1A28FB
:1027F0007CD2DFE800F00D1B2B3B4B5B6B7C8C9C91
:10280000ACBCCC7BDCF7F5F4F3F2F1F0EFEEEDECE1
:10281000002008E0002100EB001202EB4202E14B35
:1028200003F82210401C0828F4DB65E1DF480DF0B6
:1028300093F9B0EE408AF0EE608A51EC180B0CF080
:10284000FAFCC1B2D74880F8321355E1D7480DF0F1
:1028500083F9B0EE408AF0EE608A51EC180B0CF070
:10286000EAFCC1B2CF4880F8FE1345E1CF480DF035
:1028700073F9B0EE408AF0EE608A51EC180B0CF060
:10288000DAFCC1B2C74880F8CA1435E1C7480DF078
:1028900063F9B0EE408AF0EE608A51EC180B0CF050
:1028A000CAFCC1B2BF4880F8961525E1BF480DF0BB
:1028B00053F9B0EE408AF0EE608A51EC180B0CF040
:1028C0009BFC01B2B748A0F8381315E1B7480DF0EA
:1028D00043F9B0EE408AF0EE608A51EC180B0CF030
:1028E0008BFC01B2AF48A0F8041405E103E1AF4846
:1028F0000DF032F9B0EE408AF0EE608A51EC180B20
:102900000CF07AFC01B2A748A0F8D014F4E0A74874
:102910000DF022F9B0EE408AF0EE608A51EC180B0F
:102920000CF06AFC01B29F48A0F89C15E4E09F48B7
:102930000DF012F9B0EE408AF0EE608A51EC180BFF
:102940000CF05AFC01B29748A0F83413D4E0974831
:102950000DF002F9B0EE408AF0EE608A51EC180BEF
:102960000CF04AFC01B28F48A0F80014C4E08F4874
:102970000DF0F2F8B0EE408AF0EE608A51EC180BE0
:102980000CF03AFC01B28748A0F8CC14B4E08748B8
:102990000DF0E2F8B0EE408AF0EE608A51EC180BD0
:1029A0000CF02AFC01B27F48A0F89815A4E07F48FB
:1029B0000DF0D2F8B0EE408AF0EE608A51EC180BC0
:1029C0000CF039FC81B27748A0F8C61394E087E098
:1029D0007AE06EE062E056E04AE03EE032E021E07C
:1029E00010E0FFE771480DF0B7F8B0EE408AF0EE66
:1029F000608A51EC180B0CF01EFC81B26948A0F8FB
:102A0000921479E069480DF0A7F8B0EE408AF0EE34
:102A1000608A51EC180B0CF00EFC81B26148A0F8F2
:102A20005E1569E061480DF097F8B0EE408AF0EE6F
:102A3000608A51EC180B0CF0FEFB81B25948A0F8EB
:102A40002A1659E0584890F8280208B1012000E001
:102A50000020544981F830034EE0534890F8280292
:102A600008B1012000E000204E4981F8FC0343E05A
:102A70004D4890F8280208B1012000E000204949A3
:102A800081F8C80438E0484890F8280208B10120CD
:102A900000E00020434981F894052DE0424890F879
:102AA000280208B1012100E000213E4880F83113DE
:102AB00022E03D4890F8280208B1012100E0002101
:102AC000384880F8FD1317E0374890F8280210B115
:102AD000012101E07FE30021324880F8C9140BE0B6
:102AE000314890F8280208B1012100E000212D486A
:102AF00080F8951500E000BF00BF6CE300BF2A48D6
:102B000090F82502C01E0B2817D2DFE800F0061748
:102B100016283951667BA1CBF4000121084605F047
:102B2000CAF80121022005F0C6F80121032005F0B2
:102B3000C2F80121042005F0BEF8EDE001210846AD
:102B400004F091FE0121022004F08DFE01210320FA
:102B500004F089FE0121042004F085FEDCE001215F
:102B6000084604F000FE0121022004F0FCFD0121D2
:102B7000032004F0F8FD0121042004F0F4FDCBE073
:102B80000121084604F06BFF0121022004F067FFD9
:102B90000121032004F063FF0121042004F05FFF02
:102BA000BAE000008C2600204E01002075030020B2
:102BB00001220321104604F058FD012203210220C6
:102BC00004F053FD01220321084604F04EFD0122CA
:102BD0000321042004F049FD9EE001221146104625
:102BE00004F043FD01221146022004F03EFD0122C3
:102BF0001146032004F039FD01221146042004F09F
:102C000034FD89E0FA480CF0A7FFB0EE408AF0EE00
:102C1000608A51EC180B0CF0EFFAF64908600122BB
:102C200008460168104605F03FFA0122F1480168A4
:102C3000022005F039FA0122EE480168032005F070
:102C400033FA0122EB480168042005F02DFA63E015
:102C5000E7480CF081FFB0EE408AF0EE608A51EC5C
:102C6000180B0CF0C9FAE449086001220846016813
:102C7000104605F08EFA0122DF480068414202202A
:102C800005F087FA0122DC4800684142032005F084
:102C900080FA0122D8480168042000E03EE005F0F7
:102CA00078FA39E0D2480CF057FFB0EE408AF0EEE7
:102CB000608A51EC180B0CF09FFAD0490860012291
:102CC00008460168104605F080F80122CB480068EC
:102CD0004142022005F079F80122C84800684142CB
:102CE000032005F072F80122C4480168042005F0B1
:102CF0006CF811E0FFE70121084605F054F90121C5
:102D0000022005F050F90121032005F04CF90121C2
:102D1000042005F048F900BF00BF00BFB84890F894
:102D200025021A2821D2DFE800F0200D21374D635B
:102D300093C5EFEEEDECEBEAE9E8E7E6E5E4E3E284
:102D4000E1E0DFDEAA480CF007FFB0EE408AF0EECB
:102D5000608A51EC180B0CF06EFAAA49087008460C
:102D600001780122104602F068FF33E2A0480CF01F
:102D7000F3FEB0EE408AF0EE608A51EC180B0CF0D6
:102D80005AFAA04981F85400084690F854100122DC
:102D9000022002F052FF1DE295480CF0DDFEB0EE7D
:102DA000408AF0EE608A51EC180B0CF044FA954919
:102DB00081F8A800084690F8A8100122032002F02C
:102DC0003CFF07E28A480CF0C7FEB0EE408AF0EE06
:102DD000608A51EC180B0CF02EFA8A4981F8FC003D
:102DE000084690F8FC100122042002F026FFF1E1D1
:102DF00084480078022813D17D480CF0ADFEB0EE77
:102E0000408AF0EE608A51EC180B0CF0F5F97E491F
:102E10000860012208460168104603F068FA16E0CF
:102E200078480078052812D171480CF095FEB0EE74
:102E3000408AF0EE608A51EC180B0CF0DDF9734912
:102E40000860012208460168104603F0DEF8C1E17F
:102E50006C4890F85400022813D165480CF07CFEB1
:102E6000B0EE408AF0EE608A51EC180B0CF0C4F919
:102E700065490860012208460168022003F037FA1C
:102E800017E0604890F85400052812D158480CF01B
:102E900063FEB0EE408AF0EE608A51EC180B0CF045
:102EA000ABF95A490860012208460168022003F084
:102EB000ACF88FE1534890F8A800022825D14C487F
:102EC0000CF04AFEB0EE408AF0EE608A51EC180B2E
:102ED0000CF092F94C490860012208460168032071
:102EE00003F005FA29E064E159E15DE14DE109E112
:102EF00050E139E127E115E1F0E0DBE0C6E0B1E0C7
:102F00009CE087E060E04BE018E03E4890F8A800C5
:102F1000052812D136480CF01FFEB0EE408AF0EEC4
:102F2000608A51EC180B0CF067F9384908600122EF
:102F300008460168032003F068F84BE1314890F837
:102F4000FC00022813D12A480CF006FEB0EE408A9D
:102F5000F0EE608A51EC180B0CF04EF92A4908602B
:102F6000012208460168042003F0C1F917E0254852
:102F700090F8FC00052812D11D480CF0EDFDB0EED4
:102F8000408AF0EE608A51EC180B0CF035F91F49BD
:102F90000860012208460168042003F036F819E1B0
:102FA00013480CF0D9FDB0EE408AF0EE608A51EC87
:102FB000180B0CF021F91649086001220846016837
:102FC000104603F0A1F805E109480CF0C5FDB0EE8C
:102FD000408AF0EE608A51EC180B0CF00DF90C49A8
:102FE0000860012208460168022003F08DF8F1E034
:102FF0007503002094000020900000208C00002029
:103000004E010020182D00206400002058000020F0
:1030100060000020FE480CF09FFDB0EE408AF0EE0C
:10302000608A51EC180B0CF0E7F8FA4908600122AD
:1030300008460168032003F067F8CBE0F4480CF081
:103040008BFDB0EE408AF0EE608A51EC180B0CF06C
:10305000D3F8F14908600122EE480168042003F02A
:1030600053F8B7E0EA480CF077FDB0EE408AF0EE96
:10307000608A51EC180B0CF0BFF8E7490860012298
:1030800008460168104603F0BEF8A3E0E0480CF0E3
:1030900063FDB0EE408AF0EE608A51EC180B0CF044
:1030A000ABF8DD490860012208460168022003F000
:1030B000AAF88FE0D6480CF04FFDB0EE408AF0EE53
:1030C000608A51EC180B0CF097F8D3490860012284
:1030D00008460168032003F096F87BE0CC480CF02A
:1030E0003BFDB0EE408AF0EE608A51EC180B0CF01C
:1030F00083F8C9490860012208460168042003F0EA
:1031000082F867E0C54890F8280208B1012000E085
:103110000020C3494870084641780122104602F059
:103120006AFE57E0BD4890F8280208B1012100E08E
:103130000021BB4880F8551090F85510012202205C
:1031400002F059FE46E0B54890F8280208B1012186
:1031500000E00021B24880F8A91090F8A9100122DF
:10316000032002F048FE35E0AC4890F8280208B190
:10317000012100E00021AA4880F8FD1090F8FD1020
:103180000122042002F037FE24E00121084602F06B
:103190005BFE1FE00121022002F056FE1AE0012131
:1031A000032002F051FE15E00121042002F04CFE44
:1031B00010E00121084602F0C3FE0121022002F0C6
:1031C000BFFE0121032002F0BBFE0121042002F01A
:1031D000B7FE00BF00BF00BF002092490870202149
:1031E0008B48C01F0BF0EDFFBDEC028B10BD10B57E
:1031F00004468D48C07A50B921468C4807F0E7FE56
:1032000001218A4807F0C2FE01208749C87210BD1B
:1032100010B50024EE222146641C85484254B12298
:103220002146641C425410222146641C4254002250
:103230002146641C42542146641C42542146641CAD
:10324000425405222146641C425401222046611C3E
:10325000CCB277490A54FF222046611CCCB2744993
:103260000A54FC222046611CCCB271490A54FF2248
:103270002046611CCCB26E490A542046611CCCB277
:103280006B490A546B480078062881F0B980DFE862
:1032900010F0B7080600080009000A00640401F0F5
:1032A000B0B8FCE7FBE7EE222046611CCCB26049D7
:1032B0000A54B1222046611CCCB25D490A54122244
:1032C0002046611CCCB25A490A5400222046611C97
:1032D000CCB257490A5404222046611CCCB254494E
:1032E0000A545548807800287ED000222046611C70
:1032F000CCB24F490A5404222046611CCCB24C493E
:103300000A5400222046611CCCB249490A544A485A
:1033100082784AA14A480CF00BFC49480BF05CFF4C
:10332000C2B22046611CCCB241490A540819444932
:103330000BF059FF42480BF04FFF2044C4B200226B
:103340002046611CCCB23A490A5408222046611C2E
:10335000CCB237490A5400222046611CCCB2344911
:103360000A543548B0F9182034A135480CF0E0FB78
:1033700033480BF031FFC2B22046611CCCB22C495D
:103380000A5408192E490BF02EFF2D480BF024FF8C
:103390002044C4B200222046611CCCB224490A5405
:1033A0000C222046611CCCB221490A54002220463E
:1033B000611CCCB21E490A541F48B0F914201FA149
:1033C0001F480CF0B5FB1E480BF006FFC2B22046AA
:1033D000611CCCB216490A54081919490BF003FFB5
:1033E00017480BF0F9FE00E086E02044C4B200224A
:1033F0002046611CCCB20E490A5411222046611CA1
:10340000CCB20B490A5400222046611CCCB219E010
:103410007503002060000020680000204E0100209D
:10342000182D00202B000020CE030020A0600240B9
:103430006E0200202A0000208C2600202564000057
:1034400020260020FE490A54FE48B0F89620AFF22C
:103450001401FD480CF06CFBFB480BF0BDFEC2B242
:103460002046611CCCB2F6490A540819F6490BF003
:10347000BAFEF5480BF0B0FE2044C4B2002220464C
:10348000611CCCB2EE490A5415222046611CCCB214
:10349000EB490A5400222046611CCCB2E8490A5488
:1034A00001222046611CCCB2E5490A54E548027865
:1034B0002046611CCCB2E2490A5400222046611C1D
:1034C000CCB2DF490A5419222046611CCCB2DC4937
:1034D0000A5400222046611CCCB2D9490A54012268
:1034E0002046611CCCB2D6490A54D64842782046C0
:1034F000611CCCB2D2490A54D24890F8CE000028C0
:103500007DD000222046611CCCB2CD490A54052250
:103510002046611CCCB2CA490A5400222046611CD4
:10352000CCB2C7490A54C74890F8CE20AFF2F40194
:10353000C5480CF0FDFAC4480BF04EFEC2B220465E
:10354000611CCCB2BE490A540819BF490BF04BFEAE
:10355000BD480BF041FE2044C4B200222046611C4D
:10356000CCB2B7490A5409222046611CCCB2B449F6
:103570000A5400222046611CCCB2B1490A54B14819
:10358000B0F9E420AFF24C11AF480CF0D1FAAE48DC
:103590000BF022FEC2B22046611CCCB2A8490A54EC
:1035A0000819A9490BF01FFEA7480BF015FE20448F
:1035B000C4B200222046611CCCB2A1490A540D229B
:1035C0002046611CCCB29E490A5400222046611C50
:1035D000CCB29B490A549B48B0F9E020AFF2A41149
:1035E00099480CF0A5FA98480BF0F6FDC2B22046B7
:1035F000611CCCB292490A540819934900E072E068
:103600000BF0F1FD90480BF0E7FD2044C4B200221E
:103610002046611CCCB28A490A5412222046611C01
:10362000CCB287490A5400222046611CCCB284499E
:103630000A548448B0F86221AFF2002182480CF0AD
:1036400077FA81480BF0C8FDC2B22046611CCCB2AB
:103650007B490A5408197C490BF0C5FD7A480BF0E8
:10366000BBFD2044C4B200222046611CCCB2744988
:103670000A5416222046611CCCB271490A54002219
:103680002046611CCCB26E490A5401222046611CBE
:10369000CCB26B490A546B4890F8CC202046611C90
:1036A000CCB267490A5400222046611CCCB264495E
:1036B0000A541A222046611CCCB261490A540022E5
:1036C0002046611CCCB25E490A5401222046611C8E
:1036D000CCB25B490A545B4890F8CD202046611C6F
:1036E000CCB257490A54574890F89A0100287DD027
:1036F00000222046611CCCB251490A5406222046C1
:10370000611CCCB24E490A5400222046611CCCB246
:103710004B490A544B4890F89A21AFF2E0214A48AD
:103720000CF006FA48480BF057FDC2B22046611C67
:10373000CCB243490A54081943490BF054FD42489E
:103740000BF04AFD2044C4B200222046611CCCB2DA
:103750003B490A540A222046611CCCB238490A541B
:1037600000222046611CCCB235490A543548B0F9D4
:10377000B021AFF2383134480CF0DAF932480BF0AE
:103780002BFDC2B22046611CCCB22D490A54081947
:103790002D490BF028FD2C480BF01EFD2044C4B22F
:1037A00000222046611CCCB225490A540E22204634
:1037B000611CCCB222490A5400222046611CCCB2C2
:1037C0001F490A541F48B0F9AC21AFF290311E488E
:1037D0000CF0AEF91C480BF0FFFCC2B22046611C95
:1037E000CCB217490A540819174900E079E00BF0E8
:1037F000FAFC15480BF0F0FC2044C4B2002220462D
:10380000611CCCB20E490A5413222046611CCCB272
:103810000B490A5400222046611CCCB208490A54C4
:103820000848B0F82E22AFF2EC3107480CF080F9CE
:1038300005480BF0D1FCC2B22046611CCCB205E0B9
:103840006E0200208C26002020260020FE490A540B
:103850000819FE490BF0C7FCFC480BF0BDFC2044E6
:10386000C4B200222046611CCCB2F7490A54172288
:103870002046611CCCB2F4490A5400222046611C47
:10388000CCB2F1490A5401222046611CCCB2EE4967
:103890000A54EF4890F898212046611CCCB2EA49BE
:1038A0000A5400222046611CCCB2E7490A541B226C
:1038B0002046611CCCB2E4490A5400222046611C17
:1038C000CCB2E1490A5401222046611CCCB2DE4947
:1038D0000A54DF4890F899212046611CCCB2DA499D
:1038E0000A54DB4890F8660200287DD0002220466A
:1038F000611CCCB2D4490A5407222046611CCCB2C8
:10390000D1490A5400222046611CCCB2CE490A5447
:10391000CF4890F86622AFF2DC41CC480CF008F9B1
:10392000CA480BF059FCC2B22046611CCCB2C64951
:103930000A540819C5490BF056FCC4480BF04CFC5E
:103940002044C4B200222046611CCCB2BE490A54B5
:103950000B222046611CCCB2BB490A5400222046EF
:10396000611CCCB2B8490A54B948B0F97C22AFF214
:103970003451B6480CF0DCF8B4480BF02DFCC2B260
:103980002046611CCCB2B0490A540819AF490BF06B
:103990002AFCAE480BF020FC2044C4B20022204692
:1039A000611CCCB2A8490A540F222046611CCCB23B
:1039B000A5490A5400222046611CCCB2A2490A54EF
:1039C000A348B0F97822AFF28C51A0480CF0B0F8BF
:1039D0009E480BF001FCC2B22046611CCCB29A4951
:1039E0000A540819994900E072E00BF0FCFB974873
:1039F0000BF0F2FB2044C4B200222046611CCCB282
:103A000091490A5414222046611CCCB28E490A54B2
:103A100000222046611CCCB28B490A548C48B0F875
:103A2000FA22AFF2E85189480CF082F887480BF08F
:103A3000D3FBC2B22046611CCCB283490A54081998
:103A400082490BF0D0FB81480BF0C6FB2044C4B286
:103A500000222046611CCCB27B490A541822204621
:103A6000611CCCB278490A5400222046611CCCB2B9
:103A700075490A5401222046611CCCB272490A548D
:103A8000734890F864222046611CCCB26E490A54F7
:103A900000222046611CCCB26B490A541C222046ED
:103AA000611CCCB268490A5400222046611CCCB289
:103AB00065490A5401222046611CCCB262490A546D
:103AC000634890F865222046611CCCB25E490A54D6
:103AD00000222046611CCCB25B490A5410222046C9
:103AE000611CCCB258490A5400222046611CCCB259
:103AF00055490A54574840684068028856A15348BF
:103B00000CF016F851480BF067FBC2B22146601C5E
:103B1000C4B24D484254014608194C490BF063FBAE
:103B20004A480BF059FB2044C4B2FF222046611CD6
:103B3000CCB245490A54FC222046611CCCB2424911
:103B40000A54FF222046611CCCB23F490A54204649
:103B5000611CCCB23C490A54FEE3EE222046611CB3
:103B6000CCB239490A54B1222046611CCCB2364944
:103B70000A5412222046611CCCB233490A54002256
:103B80002046611CCCB230490A5405222046611CF3
:103B9000CCB22D490A542E4890F8320300287DD02B
:103BA00000222046611CCCB227490A540422204638
:103BB000611CCCB224490A5400222046611CCCB2BC
:103BC00021490A54224890F83223AFF290711F48DD
:103BD0000BF0AEFF1D480BF0FFFAC2B22046611C8D
:103BE000CCB219490A54081918490BF0FCFA1748C5
:103BF0000BF0F2FA2044C4B200222046611CCCB281
:103C000011490A5408222046611CCCB20E490A54BC
:103C100000222046611CCCB20B490A540C48B0F972
:103C20004823AFF2E87109480BF082FF07480BF018
:103C3000D3FAC2B22046611CCCB203490A54081917
:103C400002490BF0D0FA09E06E0200202026002085
:103C50008C2600200400002025780000FE480BF090
:103C6000BBFA2044C4B200222046611CCCB2FB49FE
:103C70000A540C222046611CCCB2F8490A54002296
:103C80002046611CCCB2F5490A54F548B0F94423EA
:103C9000AFF65801F0480BF04BFF00E07DE0EE4836
:103CA0000BF09AFAC2B22046611CCCB2EB490A541E
:103CB0000819E9490BF097FAE7480BF08DFA204410
:103CC000C4B200222046611CCCB2E4490A5411223D
:103CD0002146601CC4B2E148425400222046611CC7
:103CE000CCB2DE490A54DE48B0F8C623AFF6B401C0
:103CF000D9480BF01DFFD8480BF06EFAC2B220462F
:103D0000611CCCB2D5490A540819D3490BF06BFA9F
:103D1000D1480BF061FA2044C4B200222046611C55
:103D2000CCB2CE490A5415222046611CCCB2CB49F4
:103D30000A5400222046611CCCB2C8490A54012210
:103D40002046611CCCB2C5490A54C54890F83023BE
:103D50002046611CCCB2C1490A5400222046611C95
:103D6000CCB2BE490A5419222046611CCCB2BB49D0
:103D70000A5400222046611CCCB2B8490A540122E0
:103D80002046611CCCB2B5490A54B54890F831239D
:103D90002046611CCCB2B1490A54B14890F8FE03E8
:103DA00000287DD000222046611CCCB2AB490A54C9
:103DB00005222046611CCCB2A8490A5400222046A4
:103DC000611CCCB2A5490A54A54890F8FE23AFF671
:103DD0009411A1480BF0ACFE9F480BF0FDF9C2B264
:103DE0002046611CCCB29D490A5408199A490BF02F
:103DF000FAF999480BF0F0F92044C4B200222146A8
:103E0000601CC4B29548425409222046611CCCB2C1
:103E100092490A5400222046611CCCB28F490A54B0
:103E20008F48B0F91424AFF6EC118B480BF080FEEC
:103E300089480BF0D1F9C2B22046611CCCB2874947
:103E40000A54081984490BF0CEF983480BF0C4F9E1
:103E50002044C4B200222046611CCCB27F490A54DF
:103E60000D222046611CCCB27C490A540022204617
:103E7000611CCCB279490A547948B0F91024AFF6E4
:103E8000442175480BF054FE73480BF0A5F9C2B2FB
:103E90002046611CCCB271490A5408196E4900E0F1
:103EA00072E00BF0A0F96C480BF096F92044C4B214
:103EB00000222046611CCCB268490A5412222046D6
:103EC000611CCCB265490A5400222146601CC4B270
:103ED000624842546248B0F89224AFF6A0215E488E
:103EE0000BF026FE5C480BF077F9C2B22046611C4D
:103EF000CCB25A490A54081957490BF074F956487C
:103F00000BF06AF92044C4B200222046611CCCB2F6
:103F100052490A5416222046611CCCB24F490A5419
:103F200000222046611CCCB24C490A540122204692
:103F3000611CCCB249490A54494890F8FC232046F8
:103F4000611CCCB245490A5400222046611CCCB207
:103F500042490A541A222046611CCCB23F490A54F5
:103F600000222046611CCCB23C490A540122204662
:103F7000611CCCB239490A54394890F8FD232046D7
:103F8000611CCCB235490A54354890F8CA0400285F
:103F900068D000222046611CCCB230490A54062267
:103FA0002046611CCCB22D490A5400222046611CD7
:103FB000CCB22A490A542A4890F8CA24AFF6843170
:103FC00025480BF0B5FD24480BF006F9C2B2204697
:103FD000611CCCB221490A5408191F490BF003F99E
:103FE0001D480BF0F9F82044C4B200222046611CA1
:103FF000CCB21A490A540A222046611CCCB2174995
:104000000A5400222046611CCCB214490A541448B8
:10401000B0F9E024AFF6DC310F480BF089FD0E4813
:104020000BF0DAF8C2B22046611CCCB20B490A543C
:10403000081909490BF0D7F807480BF0CDF82044D0
:10404000C4B200222146601CC4B2044842540E226D
:104050002046611CCCB206E0202600206E02002023
:104060008C2600208DE0E9490A5400222046611C7C
:10407000CCB2E6490A54E648B0F9DC24AFF6444134
:10408000E4480BF055FDE3480BF0A6F8C2B2204619
:10409000611CCCB2DD490A540819DE490BF0A3F8C3
:1040A000DC480BF099F82044C4B200222046611C81
:1040B000CCB2D6490A5413222046611CCCB2D34953
:1040C0000A5400222046611CCCB2D0490A54D04880
:1040D000B0F85E25AFF69C41CE480BF029FDCD48E7
:1040E0000BF07AF8C2B22046611CCCB2C7490A5420
:1040F0000819C8490BF077F8C6480BF06DF8204452
:10410000C4B200222046611CCCB2C0490A54172216
:104110002046611CCCB2BD490A5400222046611CD5
:10412000CCB2BA490A5401222046611CCCB2B7492C
:104130000A54B74890F8C8242046611CCCB2B34951
:104140000A5400222046611CCCB2B0490A541B22FA
:104150002146601CC4B2AD48425400222146601C76
:10416000C4B2AA48425401222046611CCCB2A749DD
:104170000A54A74890F8C9242046611CCCB2A34930
:104180000A54A34890F8960500287DD000222046C6
:10419000611CCCB29D490A5407222046611CCCB256
:1041A0009A490A5400222046611CCCB297490A540D
:1041B000974890F89625AFF67C5196480BF0B8FCDE
:1041C00094480BF009F8C2B22146601CC4B28F4873
:1041D0004254014608198F490BF005F88D480AF042
:1041E000FBFF2044C4B200222146601CC4B28748B1
:1041F00042540B222046611CCCB284490A5400224E
:104200002046611CCCB281490A548148B0F9AC25E2
:10421000AFF6D8517F480BF08BFC7E480AF0DCFFEC
:10422000C2B22046611CCCB278490A5408197949B7
:104230000AF0D9FF77480AF0CFFF2044C4B2002229
:104240002046611CCCB271490A540F222146601CE1
:10425000C4B26E48425400222046611CCCB26B4965
:104260000A546B48B0F9A825AFF6306169480BF0E5
:104270005FFC68480AF0B0FFC2B22046611CCCB2B5
:1042800062490A54081900E075E062490AF0ABFF80
:1042900060480AF0A1FF2044C4B200222046611CFD
:1042A000CCB25A490A5414222146601CC4B2574861
:1042B000425400222046611CCCB254490A5454484E
:1042C000B0F82A26AFF68C6152480BF031FC514809
:1042D0000AF082FFC2B22046611CCCB24B490A549C
:1042E00008194C490AF07FFF4A480AF075FF20443C
:1042F000C4B200222046611CCCB244490A541822A0
:104300002046611CCCB241490A5400222046611C5F
:10431000CCB23E490A5401222046611CCCB23B4932
:104320000A543B4890F894252146601CC4B2374893
:10433000425400222046611CCCB234490A541C224B
:104340002046611CCCB231490A5400222146601C2F
:10435000C4B22E48425400E053E001222046611CC2
:10436000CCB22A490A542A4890F895252146601C67
:10437000C4B22648425400222146601CC4B22348DD
:10438000425410222146601CC4B2204842540022EC
:104390002146601CC4B21D4842541F484068406812
:1043A0000288AFF24C711B480BF0C2FB19480AF0AF
:1043B00013FFC2B22046611CCCB214490A5408193A
:1043C00014490AF010FF13480AF006FF2044C4B253
:1043D000FF222146601CC4B20C484254FC222046F5
:1043E000611CCCB209490A54FF222146601CC4B2A8
:1043F000064842542046611CCCB204490A5400E0ED
:1044000000BF00BF2046FEF7F2FE10BD6E02002086
:104410008C260020202600200400002000B597B044
:104420000121042007F05EF90121880407F08DF9CD
:104430000121480507F056F907220A21634806F0D2
:1044400096FF07220B21614806F091FF4FF4406070
:10445000119002208DF8480000208DF84A000320BA
:104460008DF8490000208DF84B0011A9574806F03F
:10447000F3FE4FF4E13013900020ADF85000ADF89A
:104480005200ADF85400ADF858000C20ADF85600BD
:1044900013A94F4808F004F9012240F225514C4875
:1044A00008F03CFA27208DF8400004208DF84100E8
:1044B00000208DF8420001208DF8430010A805F07F
:1044C00026FF444806F086FC4FF000600190002073
:1044D000059040200490404803903D48001D029004
:1044E0000015079000200690099008900A904FF45C
:1044F00040300B9000200C9001200D9000200F9078
:104500000E9001A9334806F007FD3449314806F002
:10451000B6FD32492F4806F00DFE0E208DF8400002
:1045200002208DF8410004208DF8420001208DF812
:10453000430010A805F0EBFE01221021254806F0EB
:10454000B2FD01228021224808F0DFF917B000BD3A
:1045500010B522491F4806F0C3FD01280AD11F49A2
:104560001C4806F08CFD1D491A4806F0E3FD0020AA
:104570001B49087310BD70B504460D461848007BF2
:1045800078B92A46214614480AF002FE2946114805
:1045900006F01DFD01210F4806F0F8FC012010492E
:1045A000087370BD10B540F22551094808F0F1F9C3
:1045B00050B12021064808F0E3F940F225510448A3
:1045C00008F01EFA05F030F810BD000000080240A7
:1045D00000480040586002408E0300200080001810
:1045E000CE030020002282610160C26100230362C9
:1045F000436280ED031A80ED010AC0ED020AC0EDAE
:10460000041A704701688269891AC161C269016A26
:10461000511A00EE101AB8EEC00AD0ED010A20EED1
:10462000200A90ED021AC16900EE901AF8EEE00A35
:1046300001EE200AC269416A0A44016AA2EB410103
:1046400000EE901AF8EEE00A90ED031A01EE200A4F
:10465000BDEEC00A10EE101A4161026A4262C269E0
:10466000026270472DE9F04186B004460D461646B9
:104670001F464FF0000800208DF80C008DF80D004B
:1046800008208DF80E0040F2FF18CDF804800420B9
:1046900000F0ECFF28B9200A8DF80F008DF81040CB
:1046A00005E000208DF80F0000218DF81010052086
:1046B00000F0DCFF28B9290A8DF811108DF812508E
:1046C00004E000218DF811108DF81210062000F082
:1046D000CDFF28B9310A8DF813108DF8146004E06D
:1046E00000218DF813108DF81410072000F0BEFF84
:1046F00028B9390A8DF815108DF8167004E00021DC
:104700008DF815108DF8161001A9584805F0FCFF1A
:1047100006B0BDE8F0812DE9F04186B004460D46B3
:1047200016461F464FF0000800208DF80C008DF84B
:104730000D0008208DF80E004FF40078CDF80480AD
:10474000002000F093FF28B9200A8DF80F008DF8A3
:10475000104005E000208DF80F0000218DF81010AA
:10476000012000F083FF28B9290A8DF811108DF877
:10477000125004E000218DF811108DF81210022063
:1047800000F074FF28B9310A8DF813108DF8146009
:1047900004E000218DF813108DF81410032000F0B0
:1047A00065FF28B9390A8DF815108DF8167004E0E8
:1047B00000218DF815108DF8161001A92B4805F071
:1047C000A3FF06B0BDE8F08100204BE000EB001134
:1047D00001EB4101264A02EB8101B1F906100029E3
:1047E00008DD00EB001101EB410102EB8101B1F9A1
:1047F000061009E000EB001101EB41011C4A02EB3D
:104800008101B1F90610494200EB001202EB4202AD
:10481000174B03EB8202B2F8C420914220DD00EB7B
:10482000001101EB41011A4602EB8101B1F90610BA
:10483000002902DA4FF0FF3100E0012100EB001205
:1048400002EB42020A4B03EB8202B2F8C42051434E
:104850000AB200EB001101EB410103EB8101CA80B8
:10486000411CC8B20828B1DB704700000068004056
:104870008C26002010B54FF40050FE490880FE49F8
:1048800008801320FB4988702420FB49887043F678
:104890009910F849888042F22830F74988809FEDC6
:1048A000F70AF44880ED020A9FEDF50A084680ED0C
:1048B000020A0020F34908709FEDF30A084680EDD4
:1048C000010A01200872C8204881012008734FF4B2
:1048D0007A70C8814000088201208874C8744FF43F
:1048E000FA60EA49888300204860E948E24B0ECB31
:1048F00040300EC00020E64980390870487005201D
:104900008870002088806421E1488038018132214C
:10491000C180C168DFEDDF1A9FEDDF1ADFEDDF0A2E
:10492000B0EE0C0A3C30FFF75DFED9488038B0F994
:104930000810F7EE001A9FEDDA1ADFEDDA0AB1EE91
:10494000040A6430FFF74EFE1422CE49D0480C30E2
:104950000AF01EFCCE48CC30C74BD3E900219B683F
:10496000C0E9111302640020C949803981F8CC00E4
:104970000021C748803880F8CD10052180F8CE107E
:104980000021A0F8D0106421A0F8D4103221A0F8A2
:10499000D210C168DFEDBF1A9FEDBF1ADFEDBF0A6D
:1049A000B0EE0C0A00F58470FFF71CFEB8488038A2
:1049B000B0F90810F7EE001A9FEDB91ADFEDB90A49
:1049C000B1EE040A00F59870FFF70CFE1422AD4911
:1049D000AF48D8300AF0DCFBB348A749D1E900233F
:1049E0008968C0E9102381640020A949803981F8D1
:1049F00098010021A648803880F89911052180F897
:104A00009A110021A0F89C116421A0F8A011322174
:104A1000A0F89E11C168DFED9F1A9FED9F1ADFED90
:104A20009F0AB0EE0C0A00F5EA70FFF7DBFD98482C
:104A30008038B0F90810F7EE001A9FED991ADFEDF3
:104A4000990AB1EE040A00F5FE70FFF7CBFD1422BF
:104A50008C4995480C300AF09BFB9348CC30864B30
:104A60000ECB40300EC000208949803981F86402A5
:104A700000218748803880F86512052180F8661289
:104A80000021A0F868126421A0F86C123221A0F86D
:104A90006A12C168DFED7F1A9FED7F1ADFED7F0A92
:104AA000B0EE0C0A00F52870FFF79CFD78488038BE
:104AB000B0F90810F7EE001A9FED791ADFED790AC8
:104AC000B1EE040A00F53270FFF78CFD14226D4937
:104AD0007548D8300AF05CFB7448664BD3E9002176
:104AE0009B68C0E91113026400206949803981F88C
:104AF000300300216648803880F83113052180F8A2
:104B000032134FF4E161A0F834136421A0F8381394
:104B10003221A0F83613C168DFED5E1A9FED5E1AF0
:104B2000DFED5F0AB2EE000A00F55B70FFF75AFD99
:104B300057488038B0F90810F7EE001A9FED561A62
:104B4000DFED580AB2EE000A00F56570FFF74AFD86
:104B500014224C4955480C300AF01AFB5348CC300B
:104B6000444B0ECB40300EC000204949803981F8BB
:104B7000FC0300214648803880F8FD13052180F8A9
:104B8000FE134FF4E161A0F800146421A0F80414AE
:104B90003221A0F80214C168DFED3E1A9FED3E1AE3
:104BA000DFED3F0AB2EE000A00F58760FFF71AFD5D
:104BB00037488038B0F90810F7EE001A9FED361A22
:104BC000DFED380AB2EE000A00F58C60FFF70AFD4F
:104BD00014222C493548D8300AF0DAFA3448254BEB
:104BE0000ECB40300EC000202949803981F8C8041E
:104BF00000212748803880F8C914052180F8CA149C
:104C00004FF4E161A0F8CC146421A0F8D014322153
:104C1000A0F8CE14C168DFED1F1A9FED1F1ADFED5B
:104C2000200AB2EE000A00F20450FFF7DBFC18483D
:104C30008038B0F90810F7EE001A9FED171ADFED73
:104C4000190AB2EE000A00F22C50FFF7CBFC142236
:104C50000C4917480C300AF09BFA1548CC30054B2C
:104C60000ECB40300EC000200949803981F89405F0
:104C700000211FE04C26002040260020F6283C4062
:104C800077BEC340582600200000E1446C26002077
:104C90000C270020CDCCCC3E000000008FC2F53D9B
:104CA000CDCC4C3E9A99993EA42800203C2A002065
:104CB000D42B0020F74880F89515052180F896152B
:104CC0004FF4E161A0F898156421A0F89C153221F9
:104CD000A0F89A15C1685FED111A1FED111A5FED6A
:104CE000100AB2EE000A00F5BA60FFF77BFCE94853
:104CF000B0F90810F7EE001A1FED191A5FED170A48
:104D0000B2EE000A00F5BF60FFF76CFC1422E24926
:104D1000E2480AF03DFA0024BCE004EB041000EB8A
:104D20004000DC4901EB8000DD490968C0F8A010B3
:104D3000DB48416804EB041000EB4000D54A02EB6D
:104D40008000C0F8A41004EB041101EB410102EB58
:104D5000810101F1A8000A22D14908310AF018FAAC
:104D6000CF48418A04EB041000EB4000C94A02EB33
:104D70008000A0F8B21004EB041000EB40001146D4
:104D800001EB8000A030C64B5A699969DB69C0E924
:104D90000613426104EB041000EB4000BD4901EB37
:104DA0008000D0ED240A04EB041000EB400001EB7E
:104DB000800090F8C20000EE100AB8EE400A20EE23
:104DC000800A04EB041000EB400001EB8000D0ED02
:104DD000320A60EE200A04EB041000EB400001EB05
:104DE0008000B0F8C00000EE100AB8EE400A20EED5
:104DF000800ADFEDAC0A80EE201ABCEEC10A04EB9B
:104E0000041000EB400001EB800080ED280A04EB69
:104E1000041000EB400001EB8000B0F9040000EE4C
:104E2000100AB8EEC00A04EB041000EB400001EBDE
:104E30008000D0ED320A60EE200A04EB041000EB93
:104E4000400001EB800090F8C20000EE100AB8EEBE
:104E5000400A60EE800A04EB041000EB400001EB16
:104E60008000B0F8C00000EE100AB8EE400A20EE54
:104E7000800ADFED8C0A80EE201ABDEEC10A10EE2A
:104E8000100A04EB041101EB4101824A02EB81019B
:104E9000C860641C082CFFF640AF00208249C8702F
:104EA000887048700871087010BD002239210A54BA
:104EB000C26100218182704710B5044604EB0410E2
:104EC00000EB4000734901EB8000D0ED1D0A04EBBC
:104ED000041000EB400001EB8000B0F9080000EE88
:104EE000100AB8EEC00A20EE800ABDEEC00A10EE2D
:104EF000100A04EB041101EB4101664A02EB810147
:104F0000486604EB041000EB4000114601EB800002
:104F1000B0F9181004EB041000EB400002EB800025
:104F2000C16704EB041101EB410102EB810101F1C6
:104F30006400FFF767FB04EB041000EB40005549E9
:104F400001EB8000C18804EB041000EB4000514AE3
:104F500002EB8000806F084401B204EB041000EB08
:104F6000400002EB8000C18010BD10B5044604EB88
:104F7000041000EB4000474901EB8000818804EBFE
:104F8000041000EB4000434A02EB800090F8C2009E
:104F900011FB00F004EB041101EB410102EB810174
:104FA000B1F8C010484300EE100AB8EEC00ADFEDB9
:104FB0003D0A80EE201ABDEEC10A10EE100A04EB85
:104FC000041101EB410102EB8101C86004EB041004
:104FD00000EB4000114601EB8000C06804EB0411B7
:104FE00001EB410102EB8101C86304EB041000EB0B
:104FF0004000114601EB8000407870B904EB0410CA
:1050000000EB400001EB8000D0F8A40004EB041199
:1050100001EB410102EB8101C86304EB041000EBDA
:1050200040001C4901EB800090F88C0088B304EB31
:10503000041000EB400001EB8000C06B002807DD8E
:1050400004EB041000EB400001EB8000C06B08E0B3
:1050500004EB041000EB40000E4901EB8000C06B34
:10506000404204EB041101EB41010A4A02EB8101C9
:10507000D1F8A01088422BD904EB041000EB4000BB
:10508000114601EB8000C06B00280FDA4FF0FF30B3
:105090000DE01DE08C26002058260020AC2C0020BE
:1050A0006C2600200000B4432C000020012004EBFB
:1050B000041101EB4101FE4A02EB8101D1F8A0107D
:1050C000484304EB041101EB410102EB8101C86389
:1050D00004EB041000EB4000F54901EB8000C169CE
:1050E00004EB041000EB4000F14A02EB8000416544
:1050F00004EB041101EB410102EB810101F13C00E1
:10510000FFF780FA04EB041000EB4000E84901EBE4
:105110008000D0ED130A04EB041000EB400001EB1B
:105120008000006D00EE100AB8EEC00A20EE800A82
:10513000BDEEC00A10EE100A04EB041101EB4101B0
:10514000DB4A02EB8101486604EB041000EB4000EF
:10515000114601EB800090F8940088B304EB041032
:1051600000EB400001EB8000406E002807DD04EBFF
:10517000041000EB400001EB8000406E08E004EBFF
:10518000041000EB4000CA4901EB8000406E404231
:1051900004EB041101EB4101C54A02EB8101B1F8B6
:1051A000961088421FDD04EB041000EB400011460E
:1051B00001EB8000406E002803DA4FF0FF3001E081
:1051C00011E0012004EB041101EB4101B84A02EBAC
:1051D0008101B1F89610484304EB041101EB410141
:1051E00002EB8101486604EB041000EB4000B0497B
:1051F00001EB8000B0F9181004EB041000EB400044
:10520000AB4A02EB8000C16704EB041101EB4101E2
:1052100002EB810101F16400FFF7F4F904EB0410E3
:1052200000EB4000A24901EB8000C18804EB0410B0
:1052300000EB40009E4A02EB8000806F084401B200
:1052400004EB041000EB400002EB8000C18004EB93
:10525000041000EB4000114601EB8000D0F8AC00D8
:10526000002808DD04EB041000EB400001EB800097
:10527000D0F8AC0009E004EB041000EB40008C49CE
:1052800001EB8000D0F8AC0040423C280ADA012053
:1052900004EB041101EB4101854A02EB810181F825
:1052A000340009E0002004EB041101EB4101804AC5
:1052B00002EB810181F8340010BD10B5044604EB07
:1052C000041000EB40007A4901EB8000B0F99A002D
:1052D00004EB041101EB4101754A02EB81014866C0
:1052E00004EB041000EB4000114601EB8000B0F924
:1052F000181004EB041000EB400002EB8000C167C3
:1053000004EB041101EB410102EB810101F16400A6
:10531000FFF778F904EB041000EB4000644901EB5F
:105320008000C18804EB041000EB4000604A02EBEF
:105330008000806F084401B204EB041000EB4000D1
:1053400002EB8000C18004EB041000EB400011462A
:1053500001EB8000B0F8A800F0B904EB041000EBFA
:10536000400001EB8000C06941F28831884213DDC2
:1053700004EB041000EB4000114601EB8000B0F894
:10538000B000401C81B204EB041000EB400002EBC3
:105390008000A0F8B01009E0002104EB041000EB3D
:1053A0004000434A02EB8000A0F8B01004EB041068
:1053B00000EB40003E4901EB8000B0F8B0006428EB
:1053C00029DD002104EB041000EB4000384A02EB19
:1053D0008000A0F8B01004EB041000EB400002EBDA
:1053E0008000C161052004EB041101EB410102EBD7
:1053F00081018870012104EB041000EB400002EBF6
:10540000800080F83510002004EB041101EB41010D
:1054100002EB8101888010BD10B5002322E103EB6F
:10542000031000EB4000224901EB8000018C03EBEC
:10543000031000EB40001E4A02EB8000008E081AA9
:1054400001B203EB031000EB400002EB8000A0F878
:10545000A81003EB031000EB4000114601EB8000A5
:10546000808A03EB031101EB410102EB8101888487
:1054700003EB031000EB4000114601EB8000C18AF2
:1054800003EB031000EB400002EB8000C18403EB50
:10549000031000EB4000114601EB8000018B03EB91
:1054A000031000EB400002EB8000018502E00000E9
:1054B0008C26002003EB031000EB4000114601EBAB
:1054C0008000C16903EB031000EB400002EB800099
:1054D000C16203EB031000EB4000114601EB8000BA
:1054E000018C03EB031000EB400002EB800001860F
:1054F00003EB031000EB4000114601EB8000418CF0
:1055000003EB031000EB400002EB8000418603EB4D
:10551000031000EB4000114601EB8000B0F9A80039
:10552000002808DD03EB031000EB400001EB8000D6
:10553000B0F9A80009E003EB031000EB4000FE49BE
:1055400001EB8000B0F9A8004042B0F57A6F2CDD85
:1055500003EB031000EB4000F74901EB8000B0F9CA
:10556000A81003EB031000EB4000F34A02EB8000AD
:10557000B0F9A800002802DA4FF0FF3000E0012067
:1055800003EB031202EB4202EB4C04EB8202B2F893
:10559000C02000FB121001B203EB031000EB40002F
:1055A000224602EB8000A0F8A81003EB031000EBEA
:1055B0004000E14901EB8000C16903EB031000EBFF
:1055C0004000DD4A02EB8000B0F9A800014403EB83
:1055D000031000EB400002EB8000C16103EB0310FD
:1055E00000EB4000114601EB8000C16803EB0310A3
:1055F00000EB400002EB8000C069091A03EB0310C6
:1056000000EB400002EB8000C0F8AC1003EB03108D
:1056100000EB4000114601EB8000407870B103EBD5
:10562000031000EB400001EB8000C16903EB0310A5
:1056300000EB400002EB8000C0F8A41003EB031065
:1056400000EB4000BC4901EB800090F8390040B10C
:1056500003EB031101EB4101B74A02EB8100FFF7B5
:1056600024FC5B1C082BFFF6DAAE10BD10B501461A
:1056700001EB011000EB4000AF4B13F8200008B91C
:10568000012010BDAD48807C002871D001EB0110D5
:1056900000EB4000A84B03EB8000807802287DD10E
:1056A00001EB011000EB400003EB8000008B0028B1
:1056B00074D001EB011000EB400003EB8000C06FE1
:1056C000002807DD01EB011000EB400003EB800038
:1056D000C06F08E001EB011000EB4000964B03EBBC
:1056E0008000C06F4042642802DA501C82B200E0A1
:1056F0000022B2F5967F0ADD012301EB011000EBD9
:1057000040008D4C04EB800080F8363009E0002327
:1057100001EB011000EB4000874C04EB800080F8A7
:10572000363001EB011000EB4000834B03EB8000AF
:1057300090F83600012819D101EB011000EB400070
:1057400003EB8000B0F9220064280FDB4FF4807077
:105750007B4B1883002301EB011000EB4000764CDB
:1057600004EB8000038101208BE701E0002088E743
:1057700001EB011000EB40006F4B03EB80008078E1
:1057800005280BD101EB011000EB400003EB80007A
:10579000C36901EB011000EB400000E08BE0664CB8
:1057A00004EB8000C06A181A002810DD01EB01101C
:1057B00000EB4000234603EB8000C36901EB0110BE
:1057C00000EB400004EB8000C06A181A10E001EB07
:1057D000011000EB4000584B03EB8000C36A01EB63
:1057E000011000EB4000544C04EB8000C069181A13
:1057F0000A2860DA01EB011000EB40004E4B03EB8E
:105800008000C06F002807DD01EB011000EB4000B5
:1058100003EB8000C06F08E001EB011000EB4000DB
:10582000454B03EB8000C06F4042642802DA501CF5
:1058300082B202E00022012023E7B2F5967F0ADD62
:10584000012301EB011000EB40003B4C04EB800016
:1058500080F8363009E0002301EB011000EB400036
:10586000354C04EB800080F8363001EB011000EB82
:105870004000314B03EB800090F83600012818D12E
:1058800001EB011000EB400003EB8000B0F92200B7
:1058900064280EDB4FF48070294B1883002301EB42
:1058A000011000EB4000244C04EB80000381012038
:1058B000E7E60020E5E60020E3E610B5044604EB49
:1058C000041000EB40001C4911F82000012852D1BF
:1058D0001A48C07C78B309F099FA1A4951F8241093
:1058E000401AB0F5FA6F06D317480088401C00B282
:1058F0001549088002E000201349088004EB0410D9
:1059000000EB40000C4901EB800090F837000128C3
:1059100024D10D48B0F900000A281FDD022003F051
:1059200051FE012004F034F9012104EB041000EBD6
:105930004000014A0AE01EE08C2600205826002084
:1059400000000240DC0300202000002002EB800069
:1059500080F83710C82003F03CFF0CE0002104EB76
:10596000041000EB4000434A02EB800080F837103F
:10597000002004F00DF910BD3F48007868B1052003
:105980003C49887005213B4880F8CE1080F89A1178
:1059900080F866120020384908703748407890B186
:1059A00036480078334908703448007881F8CC00D4
:1059B0003248007881F898013048007881F8640214
:1059C00000202D4948702C488078A8B12C480078D8
:1059D000284948702A480178264880F8CD10284880
:1059E0000178244880F8991125480178214880F8E9
:1059F00065120020204988701F480079D0B12148E5
:105A0000008881B21B48A0F896101E48008881B219
:105A10001848A0F862111B48008881B21548A0F808
:105A20002E121848008881B21248A0F8FA120020FD
:105A3000114908711048C078D8B113480088404215
:105A400000B20C4988801048008801B20948A0F8CB
:105A5000D0100D480088404201B20648A0F89C11C1
:105A60000948008801B20348A0F8681200200249E2
:105A7000C87070478C2600202C00002031000020C8
:105A80003C000020380000203400002010B54FF406
:105A90008050F7490880B7EE000A084680ED010AF9
:105AA0004FF48050F3490880B7EE000A084680EDB5
:105AB000010A4FF48050F0490880B7EE000A08460A
:105AC00080ED010A0020ED4908709FEDED0A0846BF
:105AD00080ED010A012008724FF47A70488101209C
