:020000040800F2
:10000000D8A40020E5C000089D9000089F9000083B
:10001000B1900008B5900008B990000800000000F9
:10002000000000000000000000000000BD9000087B
:10003000BF900008000000004FE30008B3E500088F
:10004000FFC00008FFC00008FFC00008FFC0000894
:10005000FFC00008FFC00008FFC00008FFC0000884
:10006000FFC00008FFC00008FFC00008FFC0000874
:10007000FFC00008FFC000088D410008FFC0000855
:10008000FFC00008E11D0008FFC00008FFC0000815
:1000900013090008FFC00008FFC00008FFC00008E7
:1000A000FFC00008FFC00008FFC00008FFC0000834
:1000B0003D030008AB050008FFC00008FFC00008B2
:1000C000FFC00008FFC00008FFC00008FFC0000814
:1000D000FFC00008FFC00008071E0008E14100083B
:1000E000FFC00008FFC00008FFC00008FFC00008F4
:1000F000FFC00008FFC00008FFC00008FFC00008E4
:10010000FFC00008FFC00008FFC00008FFC00008D3
:10011000FFC00008FFC00008FFC00008FFC00008C3
:10012000FFC00008FFC00008FFC00008FFC00008B3
:10013000FFC00008FFC00008FFC00008FFC00008A3
:100140008D0F0008A9110008FFC00008FFC00008BB
:10015000FFC00008FFC00008D11C0008FFC0000855
:10016000FFC00008FFC00008FFC00008FFC0000873
:10017000FFC00008FFC00008FFC00008FFC0000863
:10018000FFC00008FFC00008DFF80CD00EF0F8FC3C
:10019000004800472F1B0008D8A4002030BF72B6CB
:1001A000704762B6704780F30888704710B5082022
:1001B0000FF00CF9044600206060204610BD0120BD
:1001C00044494871704710B505F0A8FA424805F057
:1001D00011FB06F063FD404806F0F7FD04F068F9F6
:1001E00008F0E4F8FFF7EBFF002019E0002100EB36
:1001F00080023A4B03EB4202517000EB800203EBAA
:10020000420291714FF47A7100EB800203EB4202DB
:100210005180002100EB800203EB42029180401CE0
:100220000228E3DBFFF7C2FF2D49486010BD002222
:100230000A7803780B700270704770B506460C465A
:10024000354600E06D6815B16868A042FAD14CB13E
:100250006068686020460FF091F821480078401EE1
:100260001F49087070BD02460B46114605E008881C
:10027000984201D10846704749680029F7D100200B
:10028000F9E72DE9F041074688463C4641462046BD
:10029000FFF7E9FF08B1BDE8F081002602E06468DD
:1002A000701CC6B20E480078B04201DD002CF6D1B9
:1002B0006CB108200FF08AF80546A5F80080606848
:1002C0006860656006480078401C0549087000BFFA
:1002D000E1E70000CA030020006800402C01002074
:1002E000040000201FB5012108460AF088FC95484B
:1002F00002900B20ADF804000020ADF80600ADF828
:100300000C0001A94FF080400AF031FE0122114695
:1003100090070BF0CDFA012188070AF0B1FE1C20EE
:100320008DF8000002208DF801008DF802000120F8
:100330008DF80300684609F044FA1FBD10B501218D
:1003400088070BF0CCFA012875D100246FE0C4EBCC
:10035000C40000EB40007C4901EB8000407800289D
:1003600064D00DF0ADFFC4EBC40101EB4101764A4E
:1003700002EB8101096C411AC4EBC40000EB4000A0
:1003800002EB8000B0F8440081421BD9C4EBC400EA
:1003900000EB4000114601EB800090F84700012877
:1003A00010D1C4EBC40000EB400001EB8000808F53
:1003B000401C81B2C4EBC40000EB400002EB8000A3
:1003C000818708E00021C4EBC40000EB40005E4AD6
:1003D00002EB80008187C4EBC40000EB40005A4967
:1003E00001EB8000808FB0F57A7F13DD0121C4EB33
:1003F000C40000EB4000544A02EB8000C1770220A9
:1004000008F020FD032008F01DFE4FF4FA7008F0FC
:1004100019FB0BE0002008F015FE0021C4EBC4001E
:1004200000EB4000484A02EB8000C177641C042CBA
:100430008DD3002405E07FE0204605F06EF8601CB7
:10044000C4B2082CF8DB002474E004EBC40000EB19
:1004500004103E4901EB80004078002868D00DF080
:100460002FFF04EBC40101EB0411384A02EB8101B8
:10047000096D411A04EBC40000EB041002EB80008C
:10048000B0F8540081421DD904EBC40000EB041005
:10049000114601EB800090F85700012812D104EBBF
:1004A000C40000EB041001EB8000B0F84C00401CCD
:1004B00081B204EBC40000EB041002EB8000A0F852
:1004C0004C1009E0002104EBC40000EB04101F4AAB
:1004D00002EB8000A0F84C1004EBC40000EB041009
:1004E0001A4901EB8000B0F84C00642813DD0121AB
:1004F00004EBC40000EB0410144A02EB800080F807
:100500002F10022008F09EFC042008F09BFDC8205C
:1005100008F098FA0CE0002008F094FD002104EBAC
:10052000C40000EB0410094A02EB800080F82F1091
:10053000601CC4B2042C88DB012188070BF0E0F9B1
:1005400010BD00005FAE0A00102D0020002F00201B
:100550001FB5012102200AF052FB42F6DF60029033
:100560000720ADF804000020ADF80600ADF80C003F
:1005700001A942480AF0FBFC012211463F480BF05A
:1005800097F901213D480AF07BFD1D208DF8000000
:1005900001208DF8010000208DF8020001208DF867
:1005A0000300684609F00DF91FBD10B5012133485D
:1005B0000BF095F901285FD104F05FFD002432E0D3
:1005C00004EB041000EB40002D4911F8200028B383
:1005D00004EB041000EB400001EB80004078F0B128
:1005E00004EB041000EB400001EB80008078012850
:1005F00006D0022805D004280BD005280DD104E030
:100600000CE020B204F074FA08E020B204F0C9FA59
:1006100004E020B204F082FC00E000BF02E020B25F
:1006200004F0BFFA641C082CCADB03F0EBFE144C88
:10063000B4F96A32B4F99E21B4F9D210B4F90600C3
:1006400003F087FEB4F99A35B4F9CE24B4F9021454
:10065000B4F9360303F024FE0A490B4808F043F9C5
:100660000A490B4808F03FF90A49074808F03BF9E6
:10067000012102480BF044F910BD000000040040C5
:10068000842600203859002000680040545700207C
:10069000006400401C5B002000B58BB001214806BF
:1006A0000AF0ADFA012108460AF076FA09220B2178
:1006B000FA480AF0B6F809220C21F8480AF0B1F815
:1006C00002208DF81C004FF4C050069006A9F34894
:1006D0000AF01CF800208DF826008DF827008DF810
:1006E00028008DF829008DF82A008DF82B008DF850
:1006F00022008DF8230008208DF8240003208DF8B7
:100700002500ADF8200008A9E54809F0DEF8002032
:100710008DF8120001208DF8130000208DF81400D0
:1007200046F2A000ADF8080046F2C000ADF80A009D
:1007300046F2E000ADF80C004FF4C240ADF80E00F8
:100740000020ADF8100001208DF8150002A809F076
:1007500046F903208DF8120001208DF813000020C7
:100760008DF814004FF4C840ADF8080046F22000A0
:10077000ADF80A0046F24000ADF80C0046F2600009
:10078000ADF80E000020ADF8100001208DF8150026
:1007900002A809F024F914208DF8040003208DF834
:1007A000050000208DF8060001208DF8070001A843
:1007B00009F007F801220221B94809F00FFC0BB03B
:1007C00000BD10B50446B7484088401C1E2190FB70
:1007D000F1F201FB1200B3490988884203D10120DC
:1007E000B149887110BD20688038AE494A88091D1A
:1007F00001EB02110860A17AAA484288001D00EBB3
:1008000002100171A27AA7494B88091D01EB03115F
:10081000481D04F10B010DF015FFA2484088401C53
:100820001E2190FBF1F201FB12009E49488000BF9F
:10083000D8E710B501469B484088401C1E2290FB1B
:10084000F2F302FB1300974A1288904203D1012071
:10085000954A907110BDA1F18002924B5C881B1DDE
:1008600003EB04131A6005238E4A5488121D02EB11
:100870000412137142238B4A5488121D02EB041296
:100880005371884A5488121D02EB04129371472356
:10089000844A5488121D02EB0412D3714A1FD0B24D
:1008A00000EB001202EB4202804B03EB8202B2F932
:1008B000142000EE102AB8EEC00AF3EE0E0A20EE65
:1008C000200A00EB001202EB420203EB8202D2ED9F
:1008D000320A80EE201ABDEEC10A10EE102A12B2C2
:1008E000734B23F810201A4632F810306D4A5488A2
:1008F000121D02EB0412138100BF6A484088401C9D
:100900001E2290FBF2F302FB1300664A508000BFE8
:10091000A0E710B586B00221614809F0C7FB0028A6
:1009200075D002215E4809F05CFC02215C4809F0A8
:100930009AFB01AA00215A4809F035FA9DF80C00EB
:10094000002864D19DF80D000028FAD140F205314D
:10095000019888420BD0491C0198884207D0491C55
:100960000198884203D00198B0F5427F7DD101986B
:10097000401FC4B29DF80F0043280FD19DF810000E
:1009800057280BD19DF81100482807D19DF8120077
:10099000552803D101A8FFF714FFD0E09DF80F0000
:1009A000432835D19DF81000482831D1BDF81100F9
:1009B0003F4921F81400084630F9140000EE100AEF
:1009C000F8EEC00AB3EE0E1A80EE810A04EB0410B2
:1009D00000EB4000354901EB8000D0ED320A20EEFB
:1009E000200ABDEEC00A10EE100A00B204EB04119A
:1009F00001EB41012D4A02EB81018880012004EBCB
:100A0000041101EB410102EB8101487097E019E10B
:100A10009DF80F00532818D19DF81000502814D1CC
:100A2000BDF81100234921F81400084630F81410CD
:100A300004EB041000EB40001C4A02EB8000A0F81D
:100A4000961001A8FFF7BDFE79E09DF80F004D2834
:100A500032D19DF810004F282ED19DF811000128A9
:100A60002AD1052004EB041100E069E001EB41010B
:100A70000E4A02EB81018870012004EB041101EBA6
:100A8000410102EB8101487004EB041101EB4101CB
:100A900002F8210001A8FFF794FE50E00000024098
:100AA0000064004054570020CA0300208426002020
:100AB0000C000020140000209DF80F004D2819D1D3
:100AC0009DF810004F2815D19DF8110090B9002015
:100AD00004EB041101EB4101604A02F8210004EB30
:100AE000041101EB410102EB8101487001A8FFF7FD
:100AF00068FE24E09DF80F00532810D19DF81000E7
:100B000054280CD1002004EB041101EB4101534A9D
:100B100002EB8101487001A8FFF753FE0FE09DF83A
:100B20000F0042280BD19DF81000422807D19DF8F4
:100B30001100472803D1019988B2FFF77AFE00BF60
:100B40000198B0F5487F7DD1BDF80F004449088079
:100B5000BDF811004880BDF813008880BDF815006D
:100B6000C8800846B0F9000000EE100AB8EEC00ACE
:100B7000B3EE0E1AC0EE010A384890ED320A20EEAC
:100B8000800ABDEEC00A10EE100A00B23349888018
:100B900001204870052088703148B0F9020000EE4D
:100BA000100AB8EEC00AB3EE0E1AC0EE010A0846EB
:100BB00090ED650A20EE800ABDEEC00A10EE100A24
:100BC00001B22648A0F8D010012180F8CD100521EF
:100BD00080F8CE102248B0F9040000EE100AB8EEFA
:100BE000C00AB3EE0E1AC0EE010A1C4890ED980A36
:100BF00020EE800ABDEEC00A10EE100A01B21748BE
:100C0000A0F89C11012180F89911052180F89A1112
:100C10001348B0F9040000EE100AB8EEC00AB3EEB3
:100C20000E1AC0EE010A0D4890EDCB0A20EE800AA4
:100C3000BDEEC00A10EE100A01B20848A0F8681212
:100C4000012100E007E080F86512052180F86612B6
:100C500001A8FFF7B6FD06B010BD000084260020F5
:100C60000C0000202DE9F0418AB004460D461646DE
:100C70001F46DDF840800121022009F08DFF01218F
:100C80004FF0C06009F0BBFFFE4808F005FE0922E6
:100C90000521FD4809F0C5FD09220621FA4809F0A1
:100CA000C0FD02208DF824006020089008A9F648B5
:100CB00009F02CFD40208DF8000002208DF8010085
:100CC00000208DF8020001208DF80300684608F02E
:100CD00078FD41208DF8000002208DF801000120F0
:100CE0008DF802008DF80300684608F06AFD0020C8
:100CF0008DF81A008DF81B008DF81C008DF81D0072
:100D00008DF81E008DF81F008DF816808DF81740A5
:100D10008DF818608DF81950ADF8147005A9D948F0
:100D200008F0D3FD0E208DF80E0001208DF80F0085
:100D300000208DF8100044F22000ADF8040044F2C9
:100D40004000ADF8060044F26000ADF808004FF432
:100D50008140ADF80A000020ADF80C0001208DF8AC
:100D6000110001A808F03BFE0F208DF80E000120B5
:100D70008DF80F0000208DF8100044F2A000ADF8AF
:100D8000040044F2C000ADF8060044F2E000ADF803
:100D900008004FF48240ADF80A000020ADF80C00C6
:100DA00001208DF8110001A808F019FE10208DF81F
:100DB0000E0001208DF80F0000208DF8100045F284
:100DC0002000ADF8040045F24000ADF8060045F201
:100DD0006000ADF808004FF4A140ADF80A00012012
:100DE000ADF80C008DF8110001A808F0F8FD1120F5
:100DF0008DF80E0001208DF80F0000208DF81000F6
:100E000045F2A000ADF8040045F2C000ADF80600C0
:100E100045F2E000ADF808004FF4A240ADF80A003A
:100E20000120ADF80C008DF8110001A808F0D7FDE5
:100E300012208DF80E0001208DF80F0000208DF893
:100E400010004FF48150ADF804004FF48250ADF81B
:100E500006004FF48350ADF808004FF48450ADF80D
:100E60000A000120ADF80C008DF8110001A808F06F
:100E7000B6FD13208DF80E0001208DF80F00002024
:100E80008DF810004FF48550ADF804004FF48650F3
:100E9000ADF806004FF48750ADF808004FF48850C5
:100EA000ADF80A000120ADF80C008DF8110001A882
:100EB00008F095FD14208DF80E0000208DF80F002D
:100EC00001208DF810000020ADF804004FF4904090
:100ED000ADF806004FF6FF70ADF808004FF478400B
:100EE000ADF80A000120ADF80C008DF8110001A842
:100EF00008F075FD15208DF80E0001208DF80F000B
:100F000000208DF810004BF22000ADF804004BF2E9
:100F10004000ADF806004BF26000ADF808004BF25F
:100F20008000ADF80A000120ADF80C008DF811002A
:100F300001A808F054FD16208DF80E0001208DF850
:100F40000F0000208DF810004FF40150ADF80400A0
:100F50004FF40250ADF80600ADF80800ADF80A00F5
:100F60000120ADF80C008DF8110001A808F037FD44
:100F700001221021434809F031F8012202214148A1
:100F800009F02CF800200AB0BDE8F08110B586B059
:100F900001AA00213B4808F006FF9DF80C0000283C
:100FA0007CD19DF80C00002878D19DF80E0008280F
:100FB00074D10198B0F5007F70D90198B0F5027F27
:100FC0006CD80198401EC4B2304850F82400304913
:100FD00041F824000DF074F92C4941F824009DF8E3
:100FE00012109DF8110041EA002001B204EB041038
:100FF00000EB4000274A02EB800001839DF81000BF
:101000009DF80F1040EA012001B204EB041000EB40
:10101000400002EB800001849DF814109DF813003D
:1010200041EA002001B204EB041000EB400002EBA7
:101030008000C1829DF8151004EB041000EB400005
:1010400002EB8000418404EB041000EB40001146E9
:1010500001EB8000C06900EE100AB8EEC00ADFEDB7
:101060000E0A60EE200A04EB041000EB400001EBD6
:10107000800090F8C20000EE100AB8EE401A80EE30
:10108000810A0CE00068004000040240F8030020E0
:10109000D8030020842600200000B44324E004EBA1
:1010A000041000EB400001EB800090ED321AC0EE1E
:1010B000010A04EB041000EB400001EB8000B0F8E3
:1010C000C00000EE100AB8EE400A80EE801ABDEEB5
:1010D000C10A10EE100A00B204EB041101EB410149
:1010E00002EB8101888200BF0221FE4809F079F8F5
:1010F0000221FC4808F0B7FF06B010BDF0B585B07E
:1011000007460D46002412200090019000208DF823
:1011100008008DF809008DF80A5000BF05E0395D20
:101120000DF10B000155601C84B2AC42F7DB69463F
:10113000EC4808F043FD0646002401E0601C84B240
:101140003146E84808F0D2FD18B940F6FF708442F5
:10115000F4DB40F6FF70844202DB012005B0F0BDF5
:101160000020FBE74168491C4160002101730169CF
:10117000491E0161818A491C1E2291FBF2F302FB88
:101180001311818270474168491C4160002101733D
:101190000169491E0161818A491C1E2291FBF2F3FB
:1011A00002FB13118182704710B586B01021CD4823
:1011B00008F07CFF002874D001AA0121C94808F07A
:1011C000F2FD1021C74809F00CF81021C54808F0BD
:1011D0004AFF0198B0F5B06F74D940F2855101987B
:1011E00088426FD89DF80D0000286BD10198A0F2BD
:1011F0008150C4B2002104EBC40000EB0410BA4AD1
:1012000002EB800080F857109DF80F004F2809D19D
:101210009DF81000602805D19DF81100602801D1CB
:10122000012000E000209DF80F10432909D19DF80E
:101230001010622905D19DF81110602901D10121FA
:1012400000E0002108439DF80F10432909D19DF8C3
:101250001010642905D19DF81110602901D10121D8
:1012600000E0002108439DF80F10432909D19DF8A3
:1012700010106B2905D19DF81110602901D10121B1
:1012800000E0002108439DF80F1043290AD19DF882
:1012900010106C2906D19DF81110602902D101218E
:1012A00001E0F2E2002108439DF80F104B290AD11A
:1012B0009DF81010402906D19DF81110602902D127
:1012C000012101E047E1002108439DF80F104B295F
:1012D00009D19DF81010772905D19DF811106029CA
:1012E00001D1012100E00021084330B1C4EB841199
:1012F0007E4A02EBC100FFF746FF9DF80F004B2826
:1013000016D19DF81000402812D19DF811006028D8
:101310000ED19DF81300C01008B1012000E000209C
:1013200004EBC40101EB04116F4A02EB8101487028
:101330009DF80F004F2810D19DF8100060280CD1A7
:101340009DF81100602808D19DF8130004EBC4013A
:1013500001EB0411644A02F821009DF80F004328B4
:1013600049D19DF81000622845D19DF811006028F0
:1013700041D1DDF8131004EBC40000EB04105A4A0D
:1013800002EB8000016104EBC40000EB0410114685
:1013900001EB800090ED180A1FEDC11AC1EE000AA2
:1013A00004EBC40000EB041001EB8000006900EEC8
:1013B000100AB8EEC00A20EE800AB1EE001AC0EEA4
:1013C000010A04EBC40000EB041001EB8000B0F84C
:1013D0005C0000EE100AB8EE400A80EE801ABDEE06
:1013E000C10A10EE100A00B204EBC40101EB0411B3
:1013F00002EB810188809DF80F00432849D19DF8B8
:101400001000642845D19DF81100602841D1DDF815
:10141000131004EBC40000EB0410334A02EB80000D
:10142000416204EBC40000EB0410114601EB8000A4
:1014300090ED180A1FEDE81AC1EE000A04EBC40093
:1014400000EB041001EB8000406A00EE100AB8EED9
:10145000C00A20EE800AB1EE001AC0EE010A04EBC9
:10146000C40000EB041001EB8000B0F85C0000EE5B
:10147000100AB8EE400A80EE801ABDEEC10A10EEE6
:10148000100A00B204EBC40101EB041102EB81016C
:1014900008839DF80F00432811D19DF810006B2898
:1014A0000DD19DF81100602809D1DDF8131004EB6F
:1014B000C40000EB04100C4A02EB8000C1609DF8F0
:1014C0000F00432818D19DF810006C2814D19DF806
:1014D0001100602810D1DDF8131004EBC40000EBFC
:1014E000041005E000680040002F0020A049002003
:1014F000F64A02EB800001629DF80F004B2829D1CB
:101500009DF81000772825D19DF81100602821D181
:10151000DDF8131004EBC40000EB0410EB4A02EBFF
:101520008000816204EBC40000EB0410114601EB63
:101530008000806A00EE100AB8EEC00ADFEDE40A0F
:1015400080EE201A04EBC40000EB041001EB8000D5
:1015500080ED071A00BF0198B0F5207F7ED9019871
:10156000B0F5227F7AD89DF80D00002876D1019839
:10157000A0F28120C4B20021C4EBC40000EB400003
:10158000D44A02EB800080F847109DF80F004128F4
:101590000BD19DF81000432807D19DF8120000F0F0
:1015A0004000012801D0012000E000209DF80F102C
:1015B00042290BD19DF81010472907D19DF8121030
:1015C00001F04001012901D0012100E00021084380
:1015D0009DF80F104A290BD19DF81010562907D1FC
:1015E0009DF8121001F04001012901D0012100E015
:1015F000002108439DF80F104D290BD19DF81010C4
:101600004F2907D19DF8121001F04001012901D0A6
:10161000012100E0002108439DF80F1050290BD153
:101620009DF81010522907D19DF8121001F04001C9
:10163000012901D0012100E0002108439DF80F108D
:1016400053290CD19DF81010442908D19DF812108F
:1016500001F04001012902D0012101E0FDE000215B
:1016600008439DF80F1053290BD19DF810105429F1
:1016700007D19DF8121001F04001012901D001218C
:1016800000E0002108439DF80F1054290BD19DF86C
:101690001010432907D19DF8121001F040010129D3
:1016A00001D0012100E0002108439DF80F105529C9
:1016B0000BD19DF810104D2907D19DF8121001F0A3
:1016C0004001012901D0012100E00021084330B18F
:1016D000C4EB8411804A02EBC100FFF743FD9DF883
:1016E0000F004D2825D19DF810004F2821D19DF8DD
:1016F000120000F0400001281BD09DF813000128C3
:101700000ED19DF8130008B1012000E00020C4EBC9
:10171000C40101EB41016F4A02EB8101487008E00E
:101720000020C4EBC40101EB41016A4A02EB8101D4
:1017300048709DF80F0056282FD19DF810005828AA
:101740002BD19DF8120000F04000012825D0DDF8D3
:101750001310C4EBC40000EB40005E4A02EB8000B3
:101760004161C4EBC40000EB4000114601EB800076
:10177000B0F84C003C2190FBF1F1C4EBC40000EB4D
:10178000400002EB8000406990FBF1F1C4EBC40023
:1017900000EB400002EB800041619DF80F005028F3
:1017A00041D19DF8100058283DD19DF8120000F05D
:1017B0004000012837D0DDF81300C4EBC40101EB71
:1017C0004101444A02EB81018861C4EBC40101EB91
:1017D000410102EB810191ED140A9FED401AC1EE27
:1017E000000A00EE100AB8EEC00A60EE800AC4EBF0
:1017F000C40101EB410102EB8101B1F84C1000EE94
:10180000101AB8EE400A80EE801ABDEEC10A10EE42
:10181000101A09B2C4EBC40202EB42022D4B03EBD7
:101820008202118200BF9DF80F00492814D19DF853
:101830001000512810D19DF8120000F0400001283E
:101840000AD0BDF8130001B2C4EBC40000EB4000A5
:10185000204A02EB8000418200BF0198812813D307
:101860000198882810D89DF80D0068B90198813832
:10187000C4B2621C022343EA021242F44071184AC5
:101880005068FEF7FEFC00BF00BF06B010BD30B5CB
:1018900085B005460021134808F008FB10B9002068
:1018A00005B030BD6A4600210F4808F07CFA0024DC
:1018B00004E00DF10B00005D2855641C9DF80A0042
:1018C000A042F6D89DF80A00EAE70000002F0020A9
:1018D00000000843102D0020D03D00200000B4433C
:1018E00004000020006400400068004045E0012042
:1018F000B7EE000A07F0C2FE0220B0EE000A07F0C1
:10190000BDFE0320B0EE080A07F0B8FE04209FEDEC
:10191000A30A07F0B3FE0520B1EE040A07F0AEFEFD
:101920000620B1EE080A07F0A9FE0720B1EE0C0A66
:1019300007F0A4FE0820B2EE000A07F09FFE09207F
:10194000B2EE020A07F09AFE4FF08040406A00EEC5
:10195000900AF8EE600AB0EE600A0A2007F08EFEE8
:101960000A2007F0DCFE8E490870084601788D4891
:1019700000F097F9C8200CF0F3FBB8E705E003F09E
:101980002BFE40F24C400CF0EBFBF8E706E00120A8
:1019900006F040FF4FF47A700CF0E2FBF7E75FE0EF
:1019A000052006F0D4FB8048007B98B37F48006890
:1019B000401C7E49086008460068B0F57A7F01DB6C
:1019C00028200860012279480168104605F045FD8D
:1019D000012276480168022005F03FFD012273488C
:1019E0000168032005F039FD0122704801680420D8
:1019F00005F033FD0121084605F089FA0121022096
:101A000005F085FA0121032005F081FA0121042067
:101A100005F07DFA01241DE00121204606F0F7F9CA
:101A20000121204606F076F90121204606F0ECF867
:101A30000121204606F06AF80121204605F0E8FF62
:101A40000121204605F066FF0121204606F05CFAE0
:101A5000601CC4B2052CDFDB4FF47A700CF080FB05
:101A60009EE706E0012004F0F2FF4FF496600CF0D0
:101A700077FBF7E707E007F090FA07F058F94FF423
:101A800096700CF06DFBF6E705E001F0E4F940F626
:101A9000B8300CF065FBF8E770B50446002500BFD0
:101AA000022007F0CFF9002007F0CCFA01F0D3F9BB
:101AB0000CF095FD0CF02AFC05460D233C4A002154
:101AC0003C480CF007F81E233B4A00213B480CF031
:101AD00001F80A233A4A00213A480BF0FBFF0F2392
:101AE000394A002139480BF0F5FF1023384A00210C
:101AF00038480BF0EFFF0923374A002137480BF035
:101B0000E9FF1123364A002136480BF0E3FF01209C
:101B10003549087081F8CC0081F8980181F8640299
:101B200005200CF055FA28460CF0F4FB70BD08B502
:101B30004FF4FA6006F086FF0AF03AFA4FF4A0601C
:101B400007F03AFE07F064F907F0F1F807F05AFAE7
:101B500000F0E0F800F04EF807F014F807F0FCF998
:101B600000200323082219460090FFF77BF8FEF7B8
:101B700093FD06F0ADFEFEF7B5FBFEF7E9FCFEF7C0
:101B800022FB0AF0F9FB0523184A002118480BF044
:101B9000A1FF0AF018FD002008BD00000000C843A6
:101BA00022000020005D0020C42E00206C000020D8
:101BB00014100020891A000814120020751A000859
:101BC000141A0020631A0008141E00209F19000830
:101BD000142200208D190008141600207D19000819
:101BE00014260020ED180008842600201408002088
:101BF000991A00081CB54048006840F010003E49A2
:101C000008603D481438006840F480003A491439AF
:101C100008600120022100230A46CDE900104FF49C
:101C2000C061364807F0B6FB07220921334807F0A8
:101C300091FB07220A21314807F08CFB40F2D920A2
:101C40002F4908814FF4037088810846008820F0EE
:101C500020000880032325220121062007F0ECFA4A
:101C60004FF48070274B264A121D0421009026480D
:101C700007F026FA01221021234808F06EFC032306
:101C800046220021072007F0D7FA1D48808A40F03D
:101C900080001B4988820846808940F40050888172
:101CA0001CBD70B504460D461848807A78B92A469E
:101CB000214614480CF0C6FC2946134808F0E1FB05
:101CC0000121114808F0BCFB01201049887270BD49
:101CD00010B50F490C4808F05DFC01280AD10C49E9
:101CE000094808F026FC0A49074808F07DFC002056
:101CF0000649887210BD00004438024000000240CE
:101D0000001001404A010020B8640240CA030020CC
:101D1000008000281CB5F448006840F40030F24907
:101D20000860F1481038006840F40010EE4910399E
:101D300008600120022100230A46CDE900100C2191
:101D4000EA4807F027FB07220221E84807F002FBD8
:101D500007220321E54807F0FDFA4FF4B670E44985
:101D600008800C20091D0880E1480838008820F010
:101D70002000DF4908390880DD48001D008840F058
:101D80002000DB49091D08800323262201210420AD
:101D900007F052FA4FF48070D64BD54A121F042137
:101DA0000090D54807F08CF901221021D24808F0A4
:101DB000D4FB032311220121072007F03DFACC4870
:101DC0000C30008840F08000C9490C310880C848B8
:101DD000001D008840F40050C549091D08801CBD45
:101DE00010B5C649C44808F0D5FB01280AD1C3493B
:101DF000C14808F09EFBC149BF4808F0F5FB002030
:101E0000BF49C87210BD10B52DED028B002440F201
:101E10002531B74808380AF016F858B1B4480838E0
:101E200009F04FFF0020B74908702021B6480CF098
:101E300022FCF8E340F22551AD4808380AF003F8D7
:101E40000028F6D02021AA48083809F0F3FF40F214
:101E50002551A74808380AF02DF8A548083809F098
:101E600030FFC4B2A748007800F0400008B3A5488E
:101E7000007800F0800020BBFF2C06D1A14800783C
:101E800040F080009F4908701BE09E48007800F0F9
:101E90003F019D4844549B480078401C9949087074
:101EA0000846007800F03F0028280ADD002008706E
:101EB00007E0EE2C05D19348007840F040009149AE
:101EC00008709048007800F080000028B1D08F485A
:101ED00090F82102012804D18C4890F823028C4903
:101EE00008708A4890F82302092872D2DFE800F0CF
:101EF00005232425F1FA71F9F800844890F82502A9
:101F0000082815D1012080F3138800BF00BFBFF35C
:101F10004F8F8048006800F4E0607F490843001D4F
:101F20007C490860BFF34F8F00BF00BF00BFFDE7D3
:101F300000BF00BFF0E3FDE7FCE7744890F825021E
:101F4000C01E0B2844D2DFE800F006C2C2454F662F
:101F5000C2C2C2727E006C48C01D0DF069F8B0EEBE
:101F6000408AF0EE608A51EC180B0CF01FFC6B49B4
:101F700088606548C01D0DF05BF8B0EE408AF0EE59
:101F8000608A51EC180B0CF011FC01466348416467
:101F90005D48C01D0DF04CF8B0EE408AF0EE608A4E
:101FA00051EC180B0CF002FC01465C48C0F88010A4
:101FB0005548C01D0DF03CF8B0EE408AF0EE608A46
:101FC00051EC180B0CF0F2FB01465448C0F8BC1061
:101FD0007DE0B5E301205149087081F83C0081F8AB
:101FE000780081F8B40072E002204C498870022128
:101FF0004A4880F83E1080F87A1080F8B610012028
:10200000464948700121454880F83D1080F8791014
:1020100080F8B5105BE003204049887003213F48F9
:1020200080F83E1080F87A1080F8B6104FE000205B
:102030003A4948700021394880F83D1080F87910FD
:1020400080F8B51043E03048C01D0CF0F1FFB0EE51
:10205000408AF0EE608A51EC180B0CF0DFFB00EECA
:10206000100A2E4880ED040A2748C01D0CF0E0FF3E
:10207000B0EE408AF0EE608A51EC180B0CF0CEFB0B
:1020800000EE100A254880ED130A1F48C01D0CF011
:10209000CFFFB0EE408AF0EE608A51EC180B0CF0E6
:1020A000BDFB00EE100A1D4880ED220A1648C01D37
:1020B0000CF0BEFFB0EE408AF0EE608A51EC180BD7
:1020C0000CF0ACFB00EE100A144880ED310A00BFA2
:1020D00000BF0E4890F82502C01E1A287BD21FE0D0
:1020E000F9E32EE39AE1000040380240000002408C
:1020F000084400406A020020A060024000802020C6
:10210000CA030020240000206A0300204A010020A6
:10211000230000200CED00E00000FA050031002053
:10212000DFE800F00D1B2939495A69798999A8B867
:10213000C859D8F3F1F0EFEEEDECEBEAE9E8002056
:1021400008E0002100EB001202EB4202F54B03F81D
:102150002210401C0828F4DB5EE1F3480CF068FF15
:10216000B0EE408AF0EE608A51EC180B0CF03DFBAB
:10217000EC49887050E1EC480CF05AFFB0EE408A10
:10218000F0EE608A51EC180B0CF02FFBC1B2E54861
:1021900080F8CE1040E1E4480CF04AFFB0EE408AEF
:1021A000F0EE608A51EC180B0CF01FFBC1B2DD4859
:1021B00080F89A1130E1DC480CF03AFFB0EE408A2A
:1021C000F0EE608A51EC180B0CF00FFBC1B2D54851
:1021D00080F8661220E11EE1D3480CF029FFB0EE32
:1021E000408AF0EE608A51EC180B0CF0DFFA01B275
:1021F000CC48018110E1CC480CF01AFFB0EE408AC7
:10220000F0EE608A51EC180B0CF0D0FA01B2C54820
:10221000A0F8D41000E1C4480CF00AFFB0EE408AE8
:10222000F0EE608A51EC180B0CF0C0FA01B2BD4818
:10223000A0F8A011F0E0BC480CF0FAFEB0EE408A25
:10224000F0EE608A51EC180B0CF0B0FA01B2B54810
:10225000A0F86C12E0E0B4480CF0EAFEB0EE408A60
:10226000F0EE608A51EC180B0CF0A0FA00B2AD4908
:102270008880D1E0AC480CF0DBFEB0EE408AF0EE96
:10228000608A51EC180B0CF091FA01B2A548A0F845
:10229000D010C1E0A4480CF0CBFEB0EE408AF0EEC6
:1022A000608A51EC180B0CF081FA01B29D48A0F83D
:1022B0009C11B1E09C480CF0BBFEB0EE408AF0EE01
:1022C000608A51EC180B0CF071FA01B29548A0F835
:1022D0006812A1E094480CF0ABFEB0EE408AF0EE3C
:1022E000608A51EC180B0CF080FA81B28D48A0F88E
:1022F000961091E084E078E06CE061E055E049E020
:102300003DE032E021E010E0FFE787480CF090FE6E
:10231000B0EE408AF0EE608A51EC180B0CF065FAD2
:1023200081B28048A0F8621176E07F480CF080FE10
:10233000B0EE408AF0EE608A51EC180B0CF055FAC2
:1023400081B27848A0F82E1266E077480CF070FE53
:10235000B0EE408AF0EE608A51EC180B0CF045FAB2
:1023600081B27048A0F8FA1256E0704890F828023E
:1023700008B1012000E000206A4908704CE06B4879
:1023800090F8280208B1012000E00020654981F89A
:10239000CC0041E0654890F8280208B1012000E037
:1023A0000020604981F8980136E0604890F82802E2
:1023B00008B1012000E000205A4981F864022BE0B6
:1023C0005A4890F8280208B1012000E00020554941
:1023D000487021E0554890F8280208B1012100E03A
:1023E0000021504880F8CD1016E0504890F828029F
:1023F00008B1012100E000214A4880F899110BE062
:102400004A4890F8280208B1012100E0002145481F
:1024100080F8651200E000BF00BF8BE5434890F8EC
:102420002502C01E1A287CD2DFE800F00D1B2B3BD2
:102430004B5B6B8292A2B2C2D27BE2FEFBFAF9F84E
:10244000F7F6F5F4F3F2002008E0002100EB0012AB
:1024500002EB4202334B03F82210401C0828F4DB45
:102460006CE131480CF0E4FDB0EE408AF0EE608A99
:1024700051EC180B0CF0B9F9C1B22A4880F83213AC
:102480005CE129480CF0D4FDB0EE408AF0EE608AA1
:1024900051EC180B0CF0A9F9C1B2224880F8FE13D8
:1024A0004CE121480CF0C4FDB0EE408AF0EE608AA9
:1024B00051EC180B0CF099F9C1B21A4880F8CA1403
:1024C0003CE119480CF0B4FDB0EE408AF0EE608AB1
:1024D00051EC180B0CF089F9C1B2124880F896152E
:1024E0002CE111480CF0A4FDB0EE408AF0EE608AB9
:1024F00051EC180B0CF05AF901B20A48A0F8381345
:102500001CE109480CF094FDB0EE408AF0EE608AC0
:1025100051EC180B0CF04AF901B20248A0F804146F
:102520000CE10AE184260020710300204A0100200A
:10253000FD480CF07DFDB0EE408AF0EE608A51EC73
:10254000180B0CF033F901B2F848A0F8D014F5E0FC
:10255000F5480CF06DFDB0EE408AF0EE608A51EC6B
:10256000180B0CF023F901B2F048A0F89C15E5E037
:10257000ED480CF05DFDB0EE408AF0EE608A51EC63
:10258000180B0CF013F901B2E848A0F83413D5E0A9
:10259000E5480CF04DFDB0EE408AF0EE608A51EC5B
:1025A000180B0CF003F901B2E048A0F80014C5E0E4
:1025B000DD480CF03DFDB0EE408AF0EE608A51EC53
:1025C000180B0CF0F3F801B2D848A0F8CC14B5E021
:1025D000D5480CF02DFDB0EE408AF0EE608A51EC4B
:1025E000180B0CF0E3F801B2D048A0F89815A5E05C
:1025F000CD480CF01DFDB0EE408AF0EE608A51EC43
:10260000180B0CF0F2F881B2C848A0F8C61395E098
:1026100088E07BE06FE063E057E04BE03FE033E0D1
:1026200022E011E000E0FDE3BF480CF001FDB0EE58
:10263000408AF0EE608A51EC180B0CF0D6F881B2AB
:10264000BA48A0F8921479E0B7480CF0F1FCB0EE6B
:10265000408AF0EE608A51EC180B0CF0C6F881B29B
:10266000B248A0F85E1569E0AF480CF0E1FCB0EEAE
:10267000408AF0EE608A51EC180B0CF0B6F881B28B
:10268000AA48A0F82A1659E0A94890F8280208B1EB
:10269000012000E00020A54981F830034EE0A44865
:1026A00090F8280208B1012000E000209F4981F83D
:1026B000FC0343E09E4890F8280208B1012000E0A6
:1026C00000209A4981F8C80438E0994890F8280217
:1026D00008B1012000E00020944981F894052DE024
:1026E000934890F8280208B1012100E000218F48AA
:1026F00080F8311322E08E4890F8280208B10121B9
:1027000000E00021894880F8FD1317E0884890F820
:10271000280210B1012101E07FE30021834880F805
:10272000C9140BE0824890F8280208B1012100E0AA
:1027300000217E4880F8951500E000BF00BF6CE3E3
:1027400000BF7B4890F82502C01E0B2817D2DFE897
:1027500000F006171628394A5F749AC3F800012161
:10276000084604F0FCFD0121022004F0F8FD0121DF
:10277000032004F0F4FD0121042004F0F0FDF1E059
:102780000121084604F043FC0121022004F03FFC33
:102790000121032004F03BFC0121042004F037FC5C
:1027A000E0E00121084604F0B2FB0121022004F020
:1027B000AEFB0121032004F0AAFB0121042004F058
:1027C000A6FBCFE00121084604F01DFD01210220F7
:1027D00004F019FD0121032004F015FD012104205E
:1027E00004F011FDBEE001220321104604F011FBAC
:1027F00001220321022004F00CFB012203210846E0
:1028000004F007FB01220321042004F002FBA9E0ED
:1028100001221146104604F0FCFA01221146022062
:1028200004F0F7FA01221146032004F0F2FA012223
:102830001146042004F0EDFA94E03B480CF0F8FB5C
:10284000B0EE408AF0EE608A51EC180B0BF0AEFF50
:1028500038490860012208460168104604F077FFF5
:10286000012234480168022004F071FF012231483E
:102870000168032004F06BFF01222E480168042048
:1028800004F065FF6EE028480CF0D2FBB0EE408A01
:10289000F0EE608A51EC180B0BF088FF26490860B7
:1028A000012208460168104604F0BFFF01222248B9
:1028B00000684142022004F0B8FF01221E4800686F
:1028C0004142032004F0B1FF01221B4801680420AB
:1028D00004F0ABFF46E047E013480CF0A9FBB0EE74
:1028E000408AF0EE608A51EC180B0BF05FFF134941
:1028F0000860012208460168104604F0AEFD01227E
:102900000E4800684142022004F0A7FD01220B4856
:1029100000684142032004F0A0FD0122074801683D
:10292000042004F09AFD1DE071030020842600209D
:102930004A01002074000020700000206C0000207C
:10294000FFE70121084604F081FE0121022004F086
:102950007DFE0121032004F079FE0121042004F012
:1029600075FE00BF00BF00BFF84890F825021A2886
:1029700021D2DFE800F0200D21374D6393C5EFEE43
:10298000EDECEBEAE9E8E7E6E5E4E3E2E1E0DFDEEF
:10299000EF480CF04DFBB0EE408AF0EE608A51EC4F
:1029A000180B0BF022FFEB49087008460178012252
:1029B000104602F043FF2FE2E5480CF039FBB0EE81
:1029C000408AF0EE608A51EC180B0BF00EFFE149E3
:1029D00081F85400084690F854100122022002F0B9
:1029E0002DFF19E2DA480CF023FBB0EE408AF0EE3E
:1029F000608A51EC180B0BF0F8FED64981F8A8005C
:102A0000084690F8A8100122032002F017FF03E205
:102A1000CF480CF00DFBB0EE408AF0EE608A51EC2E
:102A2000180B0BF0E2FECB4981F8FC00084690F849
:102A3000FC100122042002F001FFEDE1C5480078FE
:102A4000022813D1C2480CF0F3FAB0EE408AF0EE3F
:102A5000608A51EC180B0BF0A9FEBF4908600122F7
:102A600008460168104603F03BFA16E0B9480078C2
:102A7000052812D1B6480CF0DBFAB0EE408AF0EE31
:102A8000608A51EC180B0BF091FEB44908600122EA
:102A900008460168104603F0B8F8BDE1AD4890F86B
:102AA0005400022813D1AA480CF0C2FAB0EE408AB2
:102AB000F0EE608A51EC180B0BF078FEA649086026
:102AC000012208460168022003F00AFA17E0A14833
:102AD00090F85400052812D19D480CF0A9FAB0EEE8
:102AE000408AF0EE608A51EC180B0BF05FFE9B49B8
:102AF0000860012208460168022003F086F88BE195
:102B0000944890F8A800022825D191480CF090FA3A
:102B1000B0EE408AF0EE608A51EC180B0BF046FEE6
:102B20008D490860012208460168032003F0D8F9A6
:102B300029E060E155E159E149E1F7E04CE135E197
:102B400023E111E1DEE0C9E0B4E09FE08AE075E056
:102B500060E04BE018E07F4890F8A800052812D10B
:102B60007B480CF065FAB0EE408AF0EE608A51ECDA
:102B7000180B0BF01BFE794908600122084601681A
:102B8000032003F042F847E1724890F8FC00022865
:102B900013D16F480CF04CFAB0EE408AF0EE608A28
:102BA00051EC180B0BF002FE6B490860012208463D
:102BB0000168042003F094F917E0664890F8FC00DF
:102BC000052812D162480CF033FAB0EE408AF0EEDC
:102BD000608A51EC180B0BF0E9FD60490860012296
:102BE00008460168042003F010F815E158480CF07D
:102BF0001FFAB0EE408AF0EE608A51EC180B0BF031
:102C0000D5FD57490860012208460168104603F0C7
:102C10007BF801E14E480CF00BFAB0EE408AF0EE82
:102C2000608A51EC180B0BF0C1FD4D490860012280
:102C300008460168022003F067F8EDE044480CF014
:102C4000F7F9B0EE408AF0EE608A51EC180B0BF009
:102C5000ADFD43490860012208460168032003F0E6
:102C600053F8D9E03A480CF0E3F9B0EE408AF0EEC0
:102C7000608A51EC180B0BF099FD3949086001226C
:102C800008460168042003F03FF8C5E030480CF026
:102C9000CFF9B0EE408AF0EE608A51EC180B0BF0E1
:102CA00085FD30490860012208460168104603F09E
:102CB000AAF8B1E026480CF0BBF9B0EE408AF0EE7D
:102CC000608A51EC180B0BF071FD26490860012257
:102CD00008460168022003F096F89DE01C480CF0BD
:102CE000A7F9B0EE408AF0EE608A51EC180B0BF0B9
:102CF0005DFD1C490860012208460168032003F0BD
:102D000082F889E012480CF093F9B0EE408AF0EEB8
:102D1000608A51EC180B0BF049FD12490860012242
:102D200008460168042003F06EF875E0074890F843
:102D3000280208B1012000E000200649487008463A
:102D400041780122104602F057FE65E04A0100205A
:102D500071030020102D002060000020540000208E
:102D60005C00002064000020FE4890F8280208B1B2
:102D7000012100E00021FC4880F8551090F8551022
:102D80000122022002F038FE46E0F64890F82802C0
:102D900008B1012100E00021F34880F8A91090F863
:102DA000A9100122032002F027FE35E0ED4890F83B
:102DB000280208B1012100E00021EB4880F8FD1055
:102DC00090F8FD100122042002F016FE24E00121FB
:102DD000084602F03AFE1FE00121022002F035FE13
:102DE0001AE00121032002F030FE15E00121042049
:102DF00002F02BFE10E00121084602F0A1FE0121A5
:102E0000022002F09DFE0121032002F099FE012123
:102E1000042002F095FE00BF00BF00BF0020D34990
:102E2000087000E003E02021D1480BF024FCBDEC49
:102E3000028B10BD10B50446CE48C07A50B9214669
:102E4000CD4807F01EFB0121CB4807F0F9FA01201D
:102E5000C849C87210BD10B50024EE222146641C7A
:102E6000C6484254B1222146641C425410222146D5
:102E7000641C425400222146641C42542146641CB6
:102E800042542146641C425405222146641C42548B
:102E900001222046611CCCB2B8490A54FF222046C8
:102EA000611CCCB2B5490A54FC222046611CCCB24C
:102EB000B2490A54FF222046611CCCB2AF490A54E1
:102EC0002046611CCCB2AD490A54AD4800780628B2
:102ED00081F0B480DFE810F0B208060008000900B5
:102EE0000A005E0401F0ABB8FCE7FBE7EE222046E7
:102EF000611CCCB2A1490A54B1222046611CCCB25B
:102F00009E490A5412222046611CCCB29B490A54A5
:102F100000222046611CCCB298490A540422204663
:102F2000611CCCB295490A549648807800287CD020
:102F300000222046611CCCB290490A54042220464B
:102F4000611CCCB28D490A5400222046611CCCB2CF
:102F50008A490A548B4882788BA18C480CF052F82D
:102F60008A480BF093FBC2B22046611CCCB2834965
:102F70000A54081985490BF090FB84480BF086FB36
:102F80002044C4B200222046611CCCB27B490A54C2
:102F900008222046611CCCB278490A5400222046FF
:102FA000611CCCB275490A547648B0F9182076A154
:102FB00076480CF027F875480BF068FBC2B2204643
:102FC000611CCCB26D490A54081970490BF065FBBD
:102FD0006E480BF05BFB2044C4B200222046611C0B
:102FE000CCB266490A540C222046611CCCB263491B
:102FF0000A5400222046611CCCB260490A54614840
:10300000B0F9142060A161480BF0FCFF5F480BF0A1
:103010003DFBC2B22046611CCCB258490A54081983
:103020005A490BF03AFB594800E06CE00BF02EFBDC
:103030002044C4B200222046611CCCB24F490A543D
:1030400011222046611CCCB24C490A540022204671
:10305000611CCCB249490A544A48B0F896204AA1AA
:103060004A480BF0CFFF49480BF010FBC2B2204694
:10307000611CCCB241490A54081944490BF00DFBBC
:1030800042480BF003FB2044C4B200222046611CDE
:10309000CCB23A490A5415222046611CCCB23749B9
:1030A0000A5400222046611CCCB234490A54012241
:1030B0002046611CCCB231490A543248027820467D
:1030C000611CCCB22D490A5400222046611CCCB2AE
:1030D0002A490A5419222046611CCCB227490A54B5
:1030E00000222046611CCCB224490A540122204609
:1030F000611CCCB221490A54224842782046611C06
:10310000CCB21E490A541F4890F8CE0000287DD04A
:1031100000222046611CCCB218490A5405222046E0
:10312000611CCCB215490A5400222046611CCCB265
:1031300012490A54134890F8CE2013A113480BF0FB
:1031400061FF12480BF0A2FAC2B22046611CCCB259
:103150000A490A5408190D490BF09FFA0B480BF065
:1031600095FA15E04A010020102D002024000020CF
:103170006A030020CA030020A06002406A02002007
:10318000230000208426002025640000182600204B
:103190002044C4B200222046611CCCB2FE490A542D
:1031A00009222046611CCCB2FB490A540022204669
:1031B000611CCCB2F8490A54F848B0F9E420AFF2E7
:1031C0003801F7480BF01EFFF5480BF05FFAC2B26A
:1031D0002046611CCCB2F0490A540819F0490BF0A2
:1031E0005CFAEF480BF052FA2044C4B200222046A9
:1031F000611CCCB2E8490A540D222046611CCCB2B5
:10320000E5490A5400222046611C00E088E0CCB267
:10321000E1490A54E148B0F9E020AFF29401E048F6
:103220000BF0F0FEDE480BF031FAC2B22046611C12
:10323000CCB2D9490A540819D9490BF02EFAD8480A
:103240000BF024FA2044C4B200222046611CCCB208
:10325000D1490A5412222046611CCCB2CE490A54EC
:1032600000222046611CCCB2CB490A54CB48B0F8AE
:103270006221AFF2EC01CA480BF0C4FEC8480BF063
:1032800005FAC2B22046611CCCB2C3490A540819DF
:10329000C3490BF002FAC2480BF0F8F92044C4B25B
:1032A00000222046611CCCB2BB490A54162220469B
:1032B000611CCCB2B8490A5400222046611CCCB231
:1032C000B5490A5401222046611CCCB2B2490A54C5
:1032D000B24890F8CC202046611CCCB2AE490A54CA
:1032E00000222046611CCCB2AB490A541A22204667
:1032F000611CCCB2A8490A5400222046611CCCB201
:10330000A5490A5401222046611CCCB2A2490A54A4
:10331000A24890F8CD202046611CCCB29E490A54A8
:103320009E4890F89A0100287DD000222046611C1A
:10333000CCB299490A5406222046611CCCB2964967
:103340000A5400222046611CCCB293490A54934887
:1033500090F89A21AFF2D01191480BF053FE9048AB
:103360000BF094F9C2B22046611CCCB28A490A54CF
:1033700008198B490BF091F989480BF087F9204423
:10338000C4B200222046611CCCB283490A540A22EE
:103390002046611CCCB280490A5400222046611CA0
:1033A000CCB27D490A547D48B0F9B021AFF2282152
:1033B0007B480BF027FE7A480BF068F9C2B2204632
:1033C000611CCCB274490A54081975490BF065F9AF
:1033D00073480BF05BF92044C4B200222046611C04
:1033E000CCB26D490A540E222046611CCCB26A4907
:1033F0000A5400222046611CCCB267490A5467482F
:10340000B0F9AC21AFF2802165480BF0FBFD6448B8
:103410000BF03CF9C2B22046611CCCB25E490A54A2
:1034200008195F4900E072E00BF037F95C480BF0D7
:103430002DF92044C4B200222046611CCCB256496A
:103440000A5413222046611CCCB253490A5400226C
:103450002046611CCCB250490A545048B0F82E2284
:10346000AFF2DC214E480BF0CDFD4D480BF00EF9CC
:10347000C2B22046611CCCB247490A5408194849D7
:103480000BF00BF946480BF001F92044C4B20022BE
:103490002046611CCCB240490A5417222046611CC8
:1034A000CCB23D490A5400222046611CCCB23A49B4
:1034B0000A5401222046611CCCB237490A543748CD
:1034C00090F898212046611CCCB233490A5400225E
:1034D0002046611CCCB230490A541B222046611C94
:1034E000CCB22D490A5400222046611CCCB22A4994
:1034F0000A5401222046611CCCB227490A542748AD
:1035000090F899212046611CCCB223490A542348E3
:1035100090F8660200287DD000222046611CCCB2C3
:103520001D490A5407222046611CCCB21A490A548C
:1035300000222046611CCCB217490A54174890F863
:103540006622AFF2BC3116480BF05CFD14480BF05C
:103550009DF8C2B22046611CCCB20F490A5408192A
:103560000F490BF09AF80E480BF090F82044C4B2C3
:1035700000222046611CCCB207490A540B22204687
:10358000611CCCB204490A5400222046611CCCB212
:1035900001490A54014805E06A02002084260020FF
:1035A00018260020B0F97C22AFF22441FE480BF02F
:1035B00029FDFD480BF06AF8C2B22046611CCCB26E
:1035C000FA490A540819F8490BF067F8F6480BF065
:1035D0005DF82044C4B200222046611CCCB2F349FD
:1035E0000A540F222046611CCCB2F0490A54002232
:1035F0002046611CCCB2ED490A54ED48B0F978225E
:10360000AFF27C41E8480BF0FDFCE7480BF03EF8D8
:10361000C2B200E079E02046611CCCB2E3490A5412
:103620000819E1490BF039F8DF480BF02FF8204476
:10363000C4B200222046611CCCB2DC490A541422D8
:103640002046611CCCB2D9490A5400222046611C94
:10365000CCB2D6490A54D648B0F8FA22AFF2D841D3
:10366000D1480BF0CFFCD0480BF010F8C2B2204686
:10367000611CCCB2CD490A540819CB490BF00DF8A6
:10368000C9480BF003F82044C4B200222046611C54
:10369000CCB2C6490A5418222046611CCCB2C34998
:1036A0000A5400222046611CCCB2C0490A540122AF
:1036B0002046611CCCB2BD490A54BD4890F8642232
:1036C0002046611CCCB2B9490A5400222046611C34
:1036D000CCB2B6490A541C222046611CCCB2B34974
:1036E0000A5400222046611CCCB2B0490A5401227F
:1036F0002046611CCCB2AD490A54AD4890F8652211
:103700002046611CCCB2A9490A5400222046611C03
:10371000CCB2A6490A5410222046611CCCB2A3495F
:103720000A5400222046611CCCB2A0490A54A14888
:10373000406840680288A0A19B480BF063FC9A484F
:103740000AF0A4FFC2B22146601CC4B2974842549A
:103750000146081994490AF0A0FF93480AF096FF21
:103760002044C4B2FF222046611CCCB28F490A54C7
:10377000FC222046611CCCB28C490A54FF22204610
:10378000611CCCB289490A542046611CCCB28749DD
:103790000A54FDE3EE222046611CCCB283490A5450
:1037A000B1222046611CCCB280490A541222204624
:1037B000611CCCB27D490A5400222046611CCCB267
:1037C0007A490A5405222046611CCCB277490A5432
:1037D000774890F8320300287DD000222046611CF3
:1037E000CCB272490A5404222046611CCCB26F4903
:1037F0000A5400222046611CCCB26C490A546C4821
:1038000090F83223AFF2806167480BF0FBFB66480B
:103810000AF03CFFC2B22046611CCCB263490A5494
:10382000081961490AF039FF5F480AF02FFF204468
:10383000C4B200222046611CCCB25C490A54082262
:103840002046611CCCB259490A5400222046611C12
:10385000CCB256490A545648B0F94823AFF2D86161
:1038600051480BF0CFFB50480AF010FFC2B220467F
:10387000611CCCB24D490A5408194B490AF00DFF9E
:1038800049480AF003FF2044C4B200222046611CCC
:10389000CCB246490A540C222046611CCCB24349A2
:1038A0000A5400222046611CCCB240490A544048C8
:1038B000B0F94423AFF230713B480BF0A3FB3A4818
:1038C0000AF0E4FEC2B22046611CCCB237490A5469
:1038D0000819354900E07DE00AF0DFFE32480AF0C1
:1038E000D5FE2044C4B200222046611CCCB22F4930
:1038F0000A5411222146601CC4B22C4842540022B2
:103900002046611CCCB229490A542948B0F8C62384
:10391000AFF28C7124480BF075FB23480AF0B6FE19
:10392000C2B22046611CCCB220490A5408191E4973
:103930000AF0B3FE1C480AF0A9FE2044C4B20022DB
:103940002046611CCCB219490A5415222046611C3C
:10395000CCB216490A5400222046611CCCB213494D
:103960000A5401222046611CCCB210490A54104866
:1039700090F830232046611CCCB20C490A54002236
:103980002046611CCCB209490A5419222046611C08
:10399000CCB206490A5400222046611CCCB203492D
:1039A0000A540122204609E0182600206A0200205D
:1039B000842600200400002025780000611CCCB281
:1039C000FE490A54FE4890F831232046611CCCB2CF
:1039D000FA490A54FA4890F8FE0300287DD00022E4
:1039E0002046611CCCB2F5490A5405222046611CD0
:1039F000CCB2F2490A5400222046611CCCB2EF49F5
:103A00000A54EF4890F8FE23AFF68401ED480BF01E
:103A1000F9FAEC480AF03AFEC2B22046611CCCB278
:103A2000E6490A540819E7490AF037FEE5480AF062
:103A30002DFE2044C4B200222146601CC4B2DF48DF
:103A4000425409222046611CCCB2DC490A540022AF
:103A50002046611CCCB2D9490A54D948B0F9142483
:103A6000AFF6DC01D7480BF0CDFAD6480AF00EFECF
:103A7000C2B22046611CCCB2D0490A540819D149BF
:103A80000AF00BFECF480AF001FE2044C4B2002227
:103A90002046611CCCB2C9490A540D222046611C43
:103AA000CCB2C6490A5400222046611CCCB2C3499C
:103AB0000A54C348B0F91024AFF63411C1480BF0D2
:103AC000A1FAC0480AF0E2FDC2B22046611CCCB2A5
:103AD000BA490A540819BB4900E072E00AF0DDFD5A
:103AE000B8480AF0D3FD2044C4B200222046611C2D
:103AF000CCB2B2490A5412222046611CCCB2AF4962
:103B00000A5400222146601CC4B2AC484254AC485E
:103B1000B0F89224AFF69011AA480BF073FAA948B6
:103B20000AF0B4FDC2B22046611CCCB2A3490A54CB
:103B30000819A4490AF0B1FDA2480AF0A7FD2044E3
:103B4000C4B200222046611CCCB29C490A54162201
:103B50002046611CCCB299490A5400222046611CBF
:103B6000CCB296490A5401222046611CCCB293493A
:103B70000A54934890F8FC232046611CCCB28F492C
:103B80000A5400222046611CCCB28C490A541A22E5
:103B90002046611CCCB289490A5400222046611C8F
:103BA000CCB286490A5401222046611CCCB283491A
:103BB0000A54834890F8FD232046611CCCB27F490B
:103BC0000A547F4890F8CA0400287DD0002220467D
:103BD000611CCCB279490A5406222046611CCCB241
:103BE00076490A5400222046611CCCB273490A541B
:103BF000734890F8CA24AFF6702172480BF002FAAD
:103C000070480AF043FDC2B22046611CCCB26B4939
:103C10000A5408196B490AF040FD6A480AF036FD5B
:103C20002044C4B200222046611CCCB263490A542D
:103C30000A222046611CCCB260490A540022204668
:103C4000611CCCB25D490A545D48B0F9E024AFF67E
:103C5000C8215C480BF0D6F95A480AF017FDC2B2E9
:103C60002046611CCCB255490A54081955490AF03E
:103C700014FD54480AF00AFD2044C4B20022214633
:103C8000601CC4B24D4842540E222046611CCCB286
:103C90004A490A5400222046611CCCB247490A54C2
:103CA0004748B0F9DC24AFF6203146480BF0AAF9BA
:103CB00044480AF0EBFCC2B22046611CCCB23F493A
:103CC0000A5408193F4900E072E00AF0E6FC3D485A
:103CD0000AF0DCFC2044C4B200222046611CCCB2B5
:103CE00036490A5413222046611CCCB233490A5487
:103CF00000222046611CCCB230490A543048B0F84A
:103D00005E25AFF67C312F480BF07CF92D480AF088
:103D1000BDFCC2B22046611CCCB228490A54081925
:103D200028490AF0BAFC27480AF0B0FC2044C4B283
:103D300000222046611CCCB220490A54172220469A
:103D4000611CCCB21D490A5400222046611CCCB231
:103D50001A490A5401222046611CCCB217490A5460
:103D6000174890F8C8242046611CCCB213490A5465
:103D700000222046611CCCB210490A541B22214665
:103D8000601CC4B20D48425400222146601CC4B2DB
:103D90000A48425401222046611CCCB207490A5409
:103DA000074890F8C9242046611CCCB203490A5444
:103DB000034890F8960500287ED005E06A020020AE
:103DC000842600201826002000222046611CCCB248
:103DD0009D490A5407222046611CCCB29A490A54D4
:103DE00000222046611CCCB297490A54974890F8AB
:103DF0009625AFF66C4196480BF004F994480AF00A
:103E000045FCC2B22146601CC4B28F4842540146F0
:103E100008198F490AF041FC8D480AF037FC20440C
:103E2000C4B200222146601CC4B2874842540B220F
:103E30002046611CCCB284490A5400222046611CF1
:103E4000CCB281490A548148B0F9AC25AFF6C841DB
:103E50007F480BF0D7F87E480AF018FCC2B2204623
:103E6000611CCCB278490A54081979490AF015FC4A
:103E700077480AF00BFC2044C4B200222046611CA3
:103E8000CCB271490A540F222146601CC4B26E485C
:103E9000425400222046611CCCB26B490A546B4844
:103EA000B0F9A825AFF6205169480BF0ABF8684887
:103EB0000AF0ECFBC2B200E07BE02046611CCCB211
:103EC00061490A54081962490AF0E7FB60480AF0A0
:103ED000DDFB2044C4B200222046611CCCB25A490A
:103EE0000A5414222146601CC4B25748425400228E
:103EF0002046611CCCB254490A545448B0F82A26D2
:103F0000AFF67C5152480BF07DF851480AF0BEFBE9
:103F1000C2B22046611CCCB24B490A5408194C4924
:103F20000AF0BBFB4A480AF0B1FB2044C4B20022AD
:103F30002046611CCCB244490A5418222046611C18
:103F4000CCB241490A5400222046611CCCB23E4901
:103F50000A5401222046611CCCB23B490A543B481A
:103F600090F894252146601CC4B237484254002280
:103F70002046611CCCB234490A541C222046611CE4
:103F8000CCB231490A5400222146601CC4B200E080
:103F900055E02D48425401222046611CCCB22A49EA
:103FA0000A542A4890F895252146601CC4B2264838
:103FB000425400222146601CC4B2234842541022BD
:103FC0002146601CC4B22048425400222146601C95
:103FD000C4B21D4842541F48406840680288AFF28E
:103FE00028611B480BF00EF819480AF04FFBC2B2CB
:103FF0002046611CCCB214490A54081914490AF02D
:104000004CFB13480AF042FB2044C4B2FF22214675
:10401000601CC4B20C484254FC222046611CCCB245
:1040200009490A54FF222146601CC4B20648425482
:104030002046611CCCB204490A5400E000BF00BF16
:104040002046FEF7F7FE10BD6A02002084260020FD
:10405000182600200400002000B597B0012104209C
:1040600006F09AFD0121880406F0C9FD01214805EA
:1040700006F092FD07220A21634806F0D2FB0722D0
:104080000B21614806F0CDFB4FF4406011900220F7
:104090008DF8480000208DF84A0003208DF8490073
:1040A00000208DF84B0011A9574806F02FFB4FF464
:1040B000E13013900020ADF85000ADF85200ADF89B
:1040C0005400ADF858000C20ADF8560013A94F4825
:1040D00007F040FD012240F225514C4807F078FEE0
:1040E00027208DF8400002208DF8410003208DF834
:1040F000420001208DF8430010A805F062FB4448FF
:1041000006F0C2F84FF000600190002005904020BA
:104110000490404803903D48001D02900015079010
:1041200000200690099008900A904FF440300B90C0
:1041300000200C9001200D9000200F900E9001A9FE
:10414000334806F043F93449314806F0F2F9324970
:104150002F4806F049FA0E208DF8400002208DF815
:10416000410004208DF8420001208DF8430010A882
:1041700005F027FB01221021254806F0EEF9012267
:104180008021224807F01BFE17B000BD10B5224960
:104190001F4806F0FFF901280AD11F491C4806F004
:1041A000C8F91D491A4806F01FFA00201B49087378
:1041B00010BD70B504460D461848007B78B92A46F4
:1041C000214614480AF03EFA2946114806F059F9EA
:1041D00001210F4806F034F901201049087370BD21
:1041E00010B540F22551094807F02DFE50B12021AD
:1041F000064807F01FFE40F22551044807F05AFE1A
:1042000004F052FE10BD00000008024000480040CB
:10421000586002408A03002000800018CA03002072
:10422000002282610160C26100230362436280ED6B
:10423000031A80ED010AC0ED020AC0ED041A7047AE
:1042400001688269891AC161C269016A511A00EE66
:10425000101AB8EEC00AD0ED010A20EE200A90ED47
:10426000021AC16900EE901AF8EEE00A01EE200A87
:10427000C269416A0A44016AA2EB410100EE901A48
:10428000F8EEE00A90ED031A01EE200ABDEEC00A36
:1042900010EE101A4161026A4262C26902627047FE
:1042A0002DE9F04186B004460D4616461F464FF0F4
:1042B000000800208DF80C008DF80D0008208DF806
:1042C0000E0040F2FF18CDF80480042000F0FEFF3D
:1042D00028B9200A8DF80F008DF8104005E0002065
:1042E0008DF80F0000218DF81010052000F0EEFF72
:1042F00028B9290A8DF811108DF8125004E0002118
:104300008DF811108DF81210062000F0DFFF28B98B
:10431000310A8DF813108DF8146004E000218DF837
:1043200013108DF81410072000F0D0FF28B9390AB7
:104330008DF815108DF8167004E000218DF8151019
:104340008DF8161001A9584805F038FC06B0BDE8F4
:10435000F0812DE9F04186B004460D4616461F4611
:104360004FF0000800208DF80C008DF80D0008209B
:104370008DF80E004FF40078CDF80480002000F096
:10438000A5FF28B9200A8DF80F008DF8104005E030
:1043900000208DF80F0000218DF81010012000F092
:1043A00095FF28B9290A8DF811108DF8125004E0F4
:1043B00000218DF811108DF81210022000F086FFF8
:1043C00028B9310A8DF813108DF8146004E000212B
:1043D0008DF813108DF81410032000F077FF28B922
:1043E000390A8DF815108DF8167004E000218DF84B
:1043F00015108DF8161001A92B4805F0DFFB06B04B
:10440000BDE8F08100204BE000EB001101EB410121
:10441000264A02EB8101B1F90610002908DD00EB04
:10442000001101EB410102EB8101B1F9061009E035
:1044300000EB001101EB41011C4A02EB8101B1F9D3
:104440000610494200EB001202EB4202174B03EB4D
:104450008202B2F8C420914220DD00EB001101EB92
:1044600041011A4602EB8101B1F90610002902DA76
:104470004FF0FF3100E0012100EB001202EB42029D
:104480000A4B03EB8202B2F8C42051430AB200EB9C
:10449000001101EB410103EB8101CA80411CC8B24C
:1044A0000828B1DB70470000006800408426002027
:1044B00010B54FF40050FE490880FE4908801320D3
:1044C000FB4988702420FB49887043F69910F8490D
:1044D000888042F22830F7498880B7EE000AF44815
:1044E00080ED020AB7EE000A084680ED020A0020BD
:1044F000F14908709FEDF10A084680ED010A01209C
:104500000872C8204881012008734FF47A70C8816E
:104510004000088201208874C8744FF4FA60E849AA
:10452000888300204860E748E24B0ECB40300EC045
:104530000020E449803908704870052088704FF4E5
:10454000E16088806421DF48803801813221C180A8
:10455000C168DFEDDD1A9FEDDD1ADFEDDD0AB2EE99
:10456000000A3C30FFF75CFED6488038B0F90810EE
:10457000F7EE001A9FEDD51ADFEDD60AB2EE000A6B
:104580006430FFF74DFE1422CB49CE480C300AF0C0
:1045900059F8CC48CC30C74BD3E900219B68C0E91F
:1045A000111302640020C749803981F8CC00002132
:1045B000C448803880F8CD10052180F8CE104FF423
:1045C000E161A0F8D0106421A0F8D4103221A0F845
:1045D000D210C168DFEDBC1A9FEDBC1ADFEDBC0A3A
:1045E000B2EE000A00F58470FFF71AFEB548803875
:1045F000B0F90810F7EE001A9FEDB41ADFEDB50A16
:10460000B2EE000A00F59870FFF70AFE1422AA49DC
:10461000AC48D8300AF016F8AF48A549D1E90023D4
:104620008968C0E9102381640020A649803981F897
:1046300098010021A348803880F89911052180F85D
:104640009A114FF4E161A0F89C116421A0F8A01127
:104650003221A0F89E11C168DFED9B1A9FED9B1AD5
:10466000DFED9B0AB2EE000A00F5EA70FFF7D8FD15
:1046700094488038B0F90810F7EE001A9FED931AAD
:10468000DFED940AB2EE000A00F5FE70FFF7C8FDF8
:104690001422894990480C3009F0D4FF8E48CC3060
:1046A000844B0ECB40300EC000208649803981F803
:1046B000640200218348803880F86512052180F863
:1046C00066124FF4E161A0F868126421A0F86C1240
:1046D0003221A0F86A12C168DFED7B1A9FED7B1AC8
:1046E000DFED7B0AB2EE000A00F52870FFF798FDB7
:1046F00074488038B0F90810F7EE001A9FED731A6D
:10470000DFED740AB2EE000A00F53270FFF788FDA3
:10471000142269497048D83009F094FF6F48644BFF
:10472000D3E900219B68C0E91113026400206549A8
:10473000803981F8300300216248803880F83113D5
:10474000052180F832134FF4E161A0F8341364219D
:10475000A0F838133221A0F83613C168DFED5A1AD9
:104760009FED5A1ADFED5A0AB2EE000A00F55B70AF
:10477000FFF756FD53488038B0F90810F7EE001ADD
:104780009FED521ADFED530AB2EE000A00F5657094
:10479000FFF746FD1422484950480C3009F052FFFB
:1047A0004E48CC30424B0ECB40300EC00020454925
:1047B000803981F8FC0300214248803880F8FD13DD
:1047C000052180F8FE134FF4E161A0F80014642184
:1047D000A0F804143221A0F80214C168DFED3A1ADF
:1047E0009FED3A1ADFED3A0AB2EE000A00F5876053
:1047F000FFF716FD33488038B0F90810F7EE001ABD
:104800009FED321ADFED330AB2EE000A00F58C603C
:10481000FFF706FD142228493048D83009F012FF6E
:104820002F48234B0ECB40300EC000202549803945
:1048300081F8C80400212348803880F8C914052174
:1048400080F8CA144FF4E161A0F8CC146421A0F8F8
:10485000D0143221A0F8CE14C168DFED1B1A9FEDF1
:104860001B1ADFED1B0AB2EE000A00F20450FFF73C
:10487000D7FC14488038B0F90810F7EE001A9FED05
:10488000131ADFED140AB2EE000A00F22C50FFF703
:10489000C7FC1422084912480C3009F0D3FE104816
:1048A000CC30034B0ECB40300EC00020054919E040
:1048B0004426002038260020502600200000E14435
:1048C0006426002004270020CDCCCC3E0000000050
:1048D000CDCC4C3E9A99993E9C280020342A002049
:1048E000CC2B0020803981F894050021FE4880F807
:1048F0009515052180F896154FF4E161A0F89815FB
:104900006421A0F89C153221A0F89A15C1685FEDCA
:10491000121A1FED121A5FED120AB2EE000A00F52C
:10492000BA60FFF77DFCF048B0F90810F7EE001A06
:104930001FED1A1A5FED190AB2EE000A00F5BF600A
:10494000FFF76EFC1422E949E94809F07BFE0024D8
:10495000BCE004EB041000EB4000E34901EB8000F5
:10496000E4490968C0F8A010E248416804EB04106B
:1049700000EB4000DC4A02EB8000C0F8A41004EB1E
:10498000041101EB410102EB810101F1A8000A22AF
:10499000D849083109F056FED648418A04EB041084
:1049A00000EB4000D04A02EB8000A0F8B21004EB0C
:1049B000041000EB4000114601EB8000A030CD4B0D
:1049C0005A699969DB69C0E90613426104EB041076
:1049D00000EB4000C44901EB8000D0ED240A04EB59
:1049E000041000EB400001EB800090F8C20000EEE4
:1049F000100AB8EE400A20EE800A04EB041000EB27
:104A0000400001EB8000D0ED320A60EE200A04EB9A
:104A1000041000EB400001EB8000B0F8C00000EE95
:104A2000100AB8EE400A20EE800ADFEDB30A80EEED
:104A3000201ABCEEC10A04EB041000EB400001EBAD
:104A4000800080ED280A04EB041000EB400001EB2D
:104A50008000B0F9040000EE100AB8EEC00A04EBC2
:104A6000041000EB400001EB8000D0ED320A60EE54
:104A7000200A04EB041000EB400001EB800090F8EA
:104A8000C20000EE100AB8EE400A60EE800A04EBA5
:104A9000041000EB400001EB8000B0F8C00000EE15
:104AA000100AB8EE400A20EE800ADFED930A80EE8D
:104AB000201ABDEEC10A10EE100A04EB041101EB3E
:104AC0004101894A02EB8101C860641C082CFFF691
:104AD00040AF00208949C87088704870087108701C
:104AE00010BD002239210A54C26100218182704721
:104AF00010B5044604EB041000EB40007A4901EBCA
:104B00008000D0ED1D0A04EB041000EB400001EB27
:104B10008000B0F9080000EE100AB8EEC00A20EEDE
:104B2000800ABDEEC00A10EE100A04EB041101EB7E
:104B300041016D4A02EB8101486604EB041000EB71
:104B40004000114601EB8000B0F9181004EB04108E
:104B500000EB400002EB8000C16704EB041101EBA5
:104B6000410102EB810101F16400FFF769FB04EBF5
:104B7000041000EB40005C4901EB8000C18804EBAD
:104B8000041000EB4000584A02EB8000806F08449C
:104B900001B204EB041000EB400002EB8000C18086
:104BA00010BD10B5044604EB041000EB40004E4964
:104BB00001EB8000B0F9040000EE100AB8EEC00A64
:104BC00004EB041000EB400001EB8000D0ED320A52
:104BD00060EE200A04EB041000EB400001EB8000C3
:104BE00090F8C20000EE100AB8EE400A60EE800AAB
:104BF00004EB041000EB400001EB8000B0F8C000B3
:104C000000EE100AB8EE400A20EE800ADFED3A0A04
:104C100080EE201ABDEEC10A10EE100A04EB04115A
:104C200001EB4101304A02EB8101C86004EB041042
:104C300000EB4000114601EB8000C06804EB04115A
:104C400001EB410102EB8101C86304EB041000EBAE
:104C50004000114601EB8000407870B904EB04106D
:104C600000EB400001EB8000D0F8A40004EB04113D
:104C700001EB410102EB8101C86304EB041000EB7E
:104C80004000194901EB800090F88C00C0B304EBA0
:104C9000041000EB400001EB8000C06B002807DD32
:104CA00004EB041000EB400001EB8000C06B08E057
:104CB00004EB041000EB40000B4901EB8000C06BDB
:104CC000404204EB041101EB4101074A02EB810170
:104CD000D1F8A01088422CD904EB041000EB40005E
:104CE000114601EB80000CE08426002050260020B5
:104CF000A42C0020642600200000B44328000020DB
:104D000017E0C06B002802DA4FF0FF3000E001200E
:104D100004EB041101EB4101FE4A02EB8101D1F8E1
:104D2000A010484304EB041101EB410102EB8101A7
:104D3000C86304EB041000EB4000F64901EB80006F
:104D4000C16904EB041000EB4000F24A02EB800062
:104D5000416504EB041101EB410102EB810101F11A
:104D60003C00FFF76DFA04EB041000EB4000E9494A
:104D700001EB8000D0ED130A04EB041000EB4000BF
:104D800001EB8000006D00EE100AB8EEC00A20EEC4
:104D9000800ABDEEC00A10EE100A04EB041101EB0C
:104DA0004101DC4A02EB8101486604EB041000EB90
:104DB0004000114601EB800090F8940088B304EBAA
:104DC000041000EB400001EB8000406E002807DD7E
:104DD00004EB041000EB400001EB8000406E08E0A3
:104DE00004EB041000EB4000CA4901EB8000406E68
:104DF000404204EB041101EB4101C64A02EB810180
:104E0000B1F8961088421FDD04EB041000EB40005F
:104E1000114601EB8000406E002803DA4FF0FF30AE
:104E200001E011E0012004EB041101EB4101B94A5A
:104E300002EB8101B1F89610484304EB041101EB39
:104E4000410102EB8101486604EB041000EB4000D5
:104E5000B04901EB8000B0F9181004EB041000EB2E
:104E60004000AC4A02EB8000C16704EB041101EB87
:104E7000410102EB810101F16400FFF7E1F904EB6C
:104E8000041000EB4000A34901EB8000C18804EB53
:104E9000041000EB40009F4A02EB8000806F084442
:104EA00001B204EB041000EB400002EB8000C18073
:104EB00004EB041000EB4000114601EB8000D0F839
:104EC000AC00002808DD04EB041000EB400001EB0F
:104ED0008000D0F8AC0009E004EB041000EB4000C7
:104EE0008C4901EB8000D0F8AC0040423C280ADA43
:104EF000012004EB041101EB4101864A02EB810120
:104F000081F8340009E0002004EB041101EB4101B9
:104F1000804A02EB810181F8340010BD10B50446CF
:104F200004EB041000EB40007A4901EB8000B0F97B
:104F30009A0004EB041101EB4101764A02EB810176
:104F4000486604EB041000EB4000114601EB8000C2
:104F5000B0F9181004EB041000EB400002EB8000E5
:104F6000C16704EB041101EB410102EB810101F186
:104F70006400FFF765F904EB041000EB400065499D
:104F800001EB8000C18804EB041000EB4000614A93
:104F900002EB8000806F084401B204EB041000EBC8
:104FA000400002EB8000C18004EB041000EB4000E5
:104FB000114601EB8000B0F8A800F0B904EB041032
:104FC00000EB400001EB8000C06941F2883188426B
:104FD00013DD04EB041000EB4000114601EB8000F0
:104FE000B0F8B000401C81B204EB041000EB4000AC
:104FF00002EB8000A0F8B01009E0002104EB0410DF
:1050000000EB4000434A02EB8000A0F8B01004EB34
:10501000041000EB40003F4901EB8000B0F8B00005
:10502000642829DD002104EB041000EB4000394A1C
:1050300002EB8000A0F8B01004EB041000EB40007D
:1050400002EB8000C161052004EB041101EB41017A
:1050500002EB81018870012104EB041000EB400099
:1050600002EB800080F83510002004EB041101EB06
:10507000410102EB8101888010BD10B5002321E1C0
:1050800003EB031000EB4000224901EB8000018C90
:1050900003EB031000EB40001E4A02EB8000008E81
:1050A000081A01B203EB031000EB400002EB800092
:1050B000A0F8A81003EB031000EB4000114601EB31
:1050C0008000808A03EB031101EB410102EB8101B7
:1050D000888403EB031000EB4000114601EB8000D5
:1050E000C18A03EB031000EB400002EB8000C18497
:1050F00003EB031000EB4000114601EB8000018B35
:1051000003EB031000EB400002EB8000018503EB92
:10511000031001E08426002000EB4000114601EB63
:105120008000C16903EB031000EB400002EB80003C
:10513000C16203EB031000EB4000114601EB80005D
:10514000018C03EB031000EB400002EB80000186B2
:1051500003EB031000EB4000114601EB8000418C93
:1051600003EB031000EB400002EB8000418603EBF1
:10517000031000EB4000114601EB8000B0F9A800DD
:10518000002808DD03EB031000EB400001EB80007A
:10519000B0F9A80009E003EB031000EB4000FE4962
:1051A00001EB8000B0F9A8004042B0F57A6F2CDD29
:1051B00003EB031000EB4000F74901EB8000B0F96E
:1051C000A81003EB031000EB4000F34A02EB800051
:1051D000B0F9A800002802DA4FF0FF3000E001200B
:1051E00003EB031202EB4202EB4C04EB8202B2F837
:1051F000C02000FB121001B203EB031000EB4000D3
:10520000224602EB8000A0F8A81003EB031000EB8D
:105210004000E14901EB8000C16903EB031000EBA2
:105220004000DD4A02EB8000B0F9A800014403EB26
:10523000031000EB400002EB8000C16103EB0310A0
:1052400000EB4000114601EB8000C16803EB031046
:1052500000EB400002EB8000C069091A03EB031069
:1052600000EB400002EB8000C0F8AC1003EB031031
:1052700000EB4000114601EB8000407870B103EB79
:10528000031000EB400001EB8000C16903EB031049
:1052900000EB400002EB8000C0F8A41003EB031009
:1052A00000EB4000BC4901EB800090F8390040B1B0
:1052B00003EB031101EB4101B74A02EB8100FFF759
:1052C00010FC5B1C082BFFF6DBAE10BD10B50146D1
:1052D00001EB011000EB4000AF4B13F8200008B9C0
:1052E000012010BDAD48807C002871D001EB011079
:1052F00000EB4000A84B03EB8000807802287DD1B2
:1053000001EB011000EB400003EB8000008B002854
:1053100074D001EB011000EB400003EB8000C06F84
:10532000002807DD01EB011000EB400003EB8000DB
:10533000C06F08E001EB011000EB4000964B03EB5F
:105340008000C06F4042642802DA501C82B200E044
:105350000022B2F5967F0ADD012301EB011000EB7C
:1053600040008D4C04EB800080F8363009E00023CB
:1053700001EB011000EB4000874C04EB800080F84B
:10538000363001EB011000EB4000834B03EB800053
:1053900090F83600012819D101EB011000EB400014
:1053A00003EB8000B0F92200C8280FDB4FF48070B7
:1053B0007B4B1883002301EB011000EB4000764C7F
:1053C00004EB8000038101208BE701E0002088E7E7
:1053D00001EB011000EB40006F4B03EB8000807885
:1053E00005280BD101EB011000EB400003EB80001E
:1053F000C36901EB011000EB400000E08BE0664C5C
:1054000004EB8000C06A181A002810DD01EB0110BF
:1054100000EB4000234603EB8000C36901EB011061
:1054200000EB400004EB8000C06A181A10E001EBAA
:10543000011000EB4000584B03EB8000C36A01EB06
:10544000011000EB4000544C04EB8000C069181AB6
:105450000A2860DA01EB011000EB40004E4B03EB31
:105460008000C06F002807DD01EB011000EB400059
:1054700003EB8000C06F08E001EB011000EB40007F
:10548000454B03EB8000C06F4042642802DA501C99
:1054900082B202E00022012023E7B2F5967F0ADD06
:1054A000012301EB011000EB40003B4C04EB8000BA
:1054B00080F8363009E0002301EB011000EB4000DA
:1054C000354C04EB800080F8363001EB011000EB26
:1054D0004000314B03EB800090F83600012818D1D2
:1054E00001EB011000EB400003EB8000B0F922005B
:1054F000C8280EDB4FF48070294B1883002301EB82
:10550000011000EB4000244C04EB800003810120DB
:10551000E7E60020E5E60020E3E610B5044604EBEC
:10552000041000EB40001C4911F82000012852D162
:105530001A48C07C78B308F0C3FE1A4951F8241009
:10554000401AB0F5FA6F06D317480088401C00B225
:105550001549088002E000201349088004EB04107C
:1055600000EB40000C4901EB800090F83700012867
:1055700024D10D48B0F900000A281FDD022003F0F5
:1055800061FC012003F05EFD012104EB041000EB3F
:105590004000014A0AE01EE0842600205026002038
:1055A00000000240D80300202000002002EB800011
:1055B00080F83710C82003F045FA0CE0002104EB16
:1055C000041000EB40004D4A02EB800080F83710D9
:1055D000002003F037FD10BD10B52DED048B4848B9
:1055E000007868B10520454988700521434880F856
:1055F000CE1080F89A1180F8661200204049087099
:105600003F48407890B13F4800783C4908703D4899
:10561000007881F8CC003B48007881F8980139483F
:10562000007881F864020020354948703448807859
:10563000A8B13548007831494870334801782F487F
:1056400080F8CD10304801782C4880F899112E4808
:1056500001782A4880F86512002029498870284876
:10566000007940B32948008881B22448A0F89610F8
:105670002648006809F089F841EC190B9FED240BCE
:1056800053EC102B09F012F841EC180B09F0ADF8AF
:1056900081B21A48A0F862111C48008881B21748EC
:1056A000A0F82E121948008881B21448A0F8FA1206
:1056B0000020134908711248C078E0B116480088EC
:1056C000404200B20D49888013480088404201B230
:1056D0000A48A0F8D01010480088404201B207489C
:1056E000A0F89C110C48008801B20448A0F8681288
:1056F00000200349C870BDEC048B10BD8426002037
:10570000280000202D000020380000203400002058
:105710009A9999999999F13F3000002010B54FF46A
:105720008050FC490880B7EE000A084680ED010A67
:105730004FF48050F8490880B7EE000A084680ED23
:10574000010A4FF48050F5490880B7EE000A084678
:1057500080ED010A0020F24908709FEDF20A084628
:1057600080ED010A012008724FF47A70488101200F
:1057700008734FF4FA70C881C00008828010EA49AB
:1057800008820020E949087048708870C870087164
:1057900048718871C8718872487208720873C8723B
:1057A000E348DC4A06CAC0E913120020E049487009
:1057B000022008704FF4967088806421DC48816074
:1057C000C1800021C1601422D549203008F03AFF81
:1057D000D748D5490A68426389880187D248C18879
:1057E000D3484187D04CA168E268236964693C30A2
:1057F0001EC010BD10B586B00446002001908DF883
:105800000D008DF80C0008208DF80E0001208DF899
:105810000F0000218DF810108DF811108DF8121066
:105820008DF813108DF814108DF815108DF81610D2
:1058300001A9204604F0C2F906B010BD70B50446B7
:105840000D461646BB484088401C1E2190FBF1F2D5
:1058500001FB1200B7490988884203D10120B649EB
:10586000C87170BD04F54070B2494A88091D01EB4A
:10587000021108600821AF484288001D00EB0210A9
:1058800001715521AB484288001D00EB02104171A7
:105890004D21A8484288001D00EB021081710021B3
:1058A000A4484288001D00EB0210C171A148428843
:1058B000001D00EB021001729E484188001D00EBA4
:1058C0000110457200219B484288001D00EB021028
:1058D000817298484288001D00EB0210C172954801
:1058E0004288001D00EB0210017392484088401C62
:1058F0001E2190FBF1F201FB12008E49488001212C
:10590000601EC0EBC00000EB4000894A02EB800043
:1059100080F8471008F0D4FC611EC1EBC10101EB17
:105920004101834A02EB8101086400BF99E770B529
:1059300004460D467F484088401C1E2190FBF1F232
:1059400001FB12007B490988884203D101207A4972
:10595000C87170BD04F5407076494A88091D01EB95
:1059600002110860042173484288001D00EB0210F8
:10597000017153216F484288001D00EB02104171F4
:1059800056216C484288001D00EB021081710021F5
:1059900068484288001D00EB0210C17165484288CA
:1059A000001D00EB0210017262484188001D00EBEF
:1059B000011045735F484088401C1E2190FBF1F2A6
:1059C00001FB12005B4948800121601EC0EBC00052
:1059D00000EB4000564A02EB800080F8471008F0C8
:1059E0006FFC611EC1EBC10101EB4101504A02EBAA
:1059F0008101086400BFACE770B586B005460C466F
:105A0000164605F54070019000208DF80D008DF8C8
:105A10000C0008208DF80E004D208DF80F004F214E
:105A20008DF8101000218DF811108DF812108DF8DE
:105A300013408DF814108DF815108DF8161001A96B
:105A40003E4804F0BBF806B070BD70B504460D4684
:105A500038484088401C1E2190FBF1F201FB1200E7
:105A600034490988884203D101203349C87170BD87
:105A700004F540702F494A88091D01EB02110860A6
:105A800004212C484288001D00EB021001714221C4
:105A900028484288001D00EB02104171472125482B
:105AA0004288001D00EB02108171002121484288CC
:105AB000001D00EB0210C1711E484288001D00EB62
:105AC000021001721B484188001D00EB0110457354
:105AD00018484088401C1E2190FBF1F201FB120087
