:020000040800F2
:10000000D8A40020CDBE0008858E0008878E000889
:10001000998E00089D8E0008A18E00080000000047
:10002000000000000000000000000000A58E000895
:10003000A78E00080000000037E100089BE30008DD
:10004000E7BE0008E7BE0008E7BE0008E7BE0008FC
:10005000E7BE0008E7BE0008E7BE0008E7BE0008EC
:10006000E7BE0008E7BE0008E7BE0008E7BE0008DC
:10007000E7BE0008E7BE000809410008E7BE000827
:10008000E7BE00085D1D0008E7BE0008E7BE0008E7
:1000900013090008E7BE0008E7BE0008E7BE000835
:1000A000E7BE0008E7BE0008E7BE0008E7BE00089C
:1000B0003D030008AB050008E7BE0008E7BE0008E6
:1000C000E7BE0008E7BE0008E7BE0008E7BE00087C
:1000D000E7BE0008E7BE0008831D00085D41000878
:1000E000E7BE0008E7BE0008E7BE0008E7BE00085C
:1000F000E7BE0008E7BE0008E7BE0008E7BE00084C
:10010000E7BE0008E7BE0008E7BE0008E7BE00083B
:10011000E7BE0008E7BE0008E7BE0008E7BE00082B
:10012000E7BE0008E7BE0008E7BE0008E7BE00081B
:10013000E7BE0008E7BE0008E7BE0008E7BE00080B
:100140008D0F0008A9110008E7BE0008E7BE0008EF
:10015000E7BE0008E7BE00084D1C0008E7BE000827
:10016000E7BE0008E7BE0008E7BE0008E7BE0008DB
:10017000E7BE0008E7BE0008E7BE0008E7BE0008CB
:10018000E7BE0008E7BE0008DFF80CD00EF07EFBEB
:1001900000480047B51A0008D8A4002030BF72B646
:1001A000704762B6704780F30888704710B5082022
:1001B0000EF0C4FF044600206060204610BD012000
:1001C00044494871704710B505F050FA424805F0AF
:1001D000B4FA06F0D1FE404806F065FF04F026F9B7
:1001E00006F050FCFFF7EBFF002019E0002100EBC8
:1001F00080023A4B03EB4202517000EB800203EBAA
:10020000420291714FF47A7100EB800203EB4202DB
:100210005180002100EB800203EB42029180401CE0
:100220000228E3DBFFF7C2FF2D49486010BD002222
:100230000A7803780B700270704770B506460C465A
:10024000354600E06D6815B16868A042FAD14CB13E
:100250006068686020460EF049FF21480078401E23
:100260001F49087070BD02460B46114605E008881C
:10027000984201D10846704749680029F7D100200B
:10028000F9E72DE9F041074688463C4641462046BD
:10029000FFF7E9FF08B1BDE8F081002602E06468DD
:1002A000701CC6B20E480078B04201DD002CF6D1B9
:1002B0006CB108200EF042FF0546A5F8008060688A
:1002C0006860656006480078401C0549087000BFFA
:1002D000E1E70000C603002000680040280100207C
:1002E000040000201FB5012108460AF07CFB954858
:1002F00002900B20ADF804000020ADF80600ADF828
:100300000C0001A94FF080400AF025FD01221146A2
:1003100090070BF0C1F9012188070AF0A5FD1C2008
:100320008DF8000002208DF801008DF802000120F8
:100330008DF80300684609F038F91FBD10B501219A
:1003400088070BF0C0F9012875D100246FE0C4EBD9
:10035000C40000EB40007C4901EB8000407800289D
:1003600064D00DF0A1FEC4EBC40101EB4101764A5B
:1003700002EB8101096C411AC4EBC40000EB4000A0
:1003800002EB8000B0F8440081421BD9C4EBC400EA
:1003900000EB4000114601EB800090F84700012877
:1003A00010D1C4EBC40000EB400001EB8000808F53
:1003B000401C81B2C4EBC40000EB400002EB8000A3
:1003C000818708E00021C4EBC40000EB40005E4AD6
:1003D00002EB80008187C4EBC40000EB40005A4967
:1003E00001EB8000808FB0F57A7F13DD0121C4EB33
:1003F000C40000EB4000544A02EB8000C1770220A9
:1004000008F02EFA032008F011FD4FF4FA7008F0FE
:100410002EFB0BE0002008F009FD0021C4EBC40016
:1004200000EB4000484A02EB8000C177641C042CBA
:100430008DD3002405E07FE0204605F02EF8601CF7
:10044000C4B2082CF8DB002474E004EBC40000EB19
:1004500004103E4901EB80004078002868D00DF080
:1004600023FE04EBC40101EB0411384A02EB8101C5
:10047000096D411A04EBC40000EB041002EB80008C
:10048000B0F8540081421DD904EBC40000EB041005
:10049000114601EB800090F85700012812D104EBBF
:1004A000C40000EB041001EB8000B0F84C00401CCD
:1004B00081B204EBC40000EB041002EB8000A0F852
:1004C0004C1009E0002104EBC40000EB04101F4AAB
:1004D00002EB8000A0F84C1004EBC40000EB041009
:1004E0001A4901EB8000B0F84C00642813DD0121AB
:1004F00004EBC40000EB0410144A02EB800080F807
:100500002F10022008F0ACF9042008F08FFCC8205E
:1005100008F0ADFA0CE0002008F088FC002104EBA4
:10052000C40000EB0410094A02EB800080F82F1091
:10053000601CC4B2042C88DB012188070BF0D4F8BE
:1005400010BD00005FAE0A00102D0020FC2F00201F
:100550001FB5012102200AF046FA42F6DF60029040
:100560000720ADF804000020ADF80600ADF80C003F
:1005700001A942480AF0EFFB012211463F480BF067
:100580008BF801213D480AF06FFC1D208DF800001A
:1005900001208DF8010000208DF8020001208DF867
:1005A0000300684609F001F81FBD10B5012133486A
:1005B0000BF089F801285FD104F01FFD002432E020
:1005C00004EB041000EB40002D4911F8200028B383
:1005D00004EB041000EB400001EB80004078F0B128
:1005E00004EB041000EB400001EB80008078012850
:1005F00006D0022805D004280BD005280DD104E030
:100600000CE020B204F034FA08E020B204F089FAD9
:1006100004E020B204F042FC00E000BF02E020B29F
:1006200004F07FFA641C082CCADB03F0A9FE144C0A
:10063000B4F96A32B4F99E21B4F9D210B4F90600C3
:1006400003F045FEB4F99A35B4F9CE24B4F9021496
:10065000B4F9360303F0E2FD0A490B4808F037F815
:100660000A490B4808F033F80A49074808F02FF800
:10067000012102480BF038F810BD000000040040D2
:10068000842600203859002000680040545700207C
:10069000006400401C5B002000B58BB001214806BF
:1006A0000AF0A1F9012108460AF06AF909220B2192
:1006B000FA4809F0AAFF09220C21F84809F0A5FF21
:1006C00002208DF81C004FF4C050069006A9F34894
:1006D00009F010FF00208DF826008DF827008DF816
:1006E00028008DF829008DF82A008DF82B008DF850
:1006F00022008DF8230008208DF8240003208DF8B7
:100700002500ADF8200008A9E54808F0D2FF002038
:100710008DF8120001208DF8130000208DF81400D0
:1007200046F2A000ADF8080046F2C000ADF80A009D
:1007300046F2E000ADF80C004FF4C240ADF80E00F8
:100740000020ADF8100001208DF8150002A809F076
:100750003AF803208DF8120001208DF813000020D4
:100760008DF814004FF4C840ADF8080046F22000A0
:10077000ADF80A0046F24000ADF80C0046F2600009
:10078000ADF80E000020ADF8100001208DF8150026
:1007900002A809F018F814208DF8040003208DF841
:1007A000050000208DF8060001208DF8070001A843
:1007B00008F0FBFE01220221B94809F003FB0BB04F
:1007C00000BD10B50446B7484088401C1E2190FB70
:1007D000F1F201FB1200B3490988884203D10120DC
:1007E000B149887110BD20688038AE494A88091D1A
:1007F00001EB02110860A17AAA484288001D00EBB3
:1008000002100171A27AA7494B88091D01EB03115F
:10081000481D04F10B010DF009FEA2484088401C60
:100820001E2190FBF1F201FB12009E49488000BF9F
:10083000D8E710B501469B484088401C1E2290FB1B
:10084000F2F302FB1300974A1288904203D1012071
:10085000954A907110BDA1F18002924B5C881B1DDE
:1008600003EB04131A6005238E4A5488121D02EB11
:100870000412137142238B4A5488121D02EB041296
:100880005371884A5488121D02EB04129371472356
:10089000844A5488121D02EB0412D3714A1FD0B24D
:1008A00000EB001202EB4202804B03EB8202B2F932
:1008B000142000EE102AB8EEC00AF3EE0E0A20EE65
:1008C000200A00EB001202EB420203EB8202D2ED9F
:1008D000320A80EE201ABDEEC10A10EE102A12B2C2
:1008E000734B23F810201A4632F810306D4A5488A2
:1008F000121D02EB0412138100BF6A484088401C9D
:100900001E2290FBF2F302FB1300664A508000BFE8
:10091000A0E710B586B00221614809F0BBFA0028B3
:1009200075D002215E4809F050FB02215C4809F0B5
:100930008EFA01AA00215A4809F029F99DF80C0005
:10094000002864D19DF80D000028FAD140F205314D
:10095000019888420BD0491C0198884207D0491C55
:100960000198884203D00198B0F5427F7DD101986B
:10097000401FC4B29DF80F0043280FD19DF810000E
:1009800057280BD19DF81100482807D19DF8120077
:10099000552803D101A8FFF714FFD0E09DF80F0000
:1009A000432835D19DF81000482831D1BDF81100F9
:1009B0003F4921F81400084630F9140000EE100AEF
:1009C000F8EEC00AB3EE0E1A80EE810A04EB0410B2
:1009D00000EB4000354901EB8000D0ED320A20EEFB
:1009E000200ABDEEC00A10EE100A00B204EB04119A
:1009F00001EB41012D4A02EB81018880012004EBCB
:100A0000041101EB410102EB8101487097E019E10B
:100A10009DF80F00532818D19DF81000502814D1CC
:100A2000BDF81100234921F81400084630F81410CD
:100A300004EB041000EB40001C4A02EB8000A0F81D
:100A4000961001A8FFF7BDFE79E09DF80F004D2834
:100A500032D19DF810004F282ED19DF811000128A9
:100A60002AD1052004EB041100E069E001EB41010B
:100A70000E4A02EB81018870012004EB041101EBA6
:100A8000410102EB8101487004EB041101EB4101CB
:100A900002F8210001A8FFF794FE50E00000024098
:100AA0000064004054570020C60300208426002024
:100AB0000C000020140000209DF80F004D2819D1D3
:100AC0009DF810004F2815D19DF8110090B9002015
:100AD00004EB041101EB4101604A02F8210004EB30
:100AE000041101EB410102EB8101487001A8FFF7FD
:100AF00068FE24E09DF80F00532810D19DF81000E7
:100B000054280CD1002004EB041101EB4101534A9D
:100B100002EB8101487001A8FFF753FE0FE09DF83A
:100B20000F0042280BD19DF81000422807D19DF8F4
:100B30001100472803D1019988B2FFF77AFE00BF60
:100B40000198B0F5487F7DD1BDF80F004449088079
:100B5000BDF811004880BDF813008880BDF815006D
:100B6000C8800846B0F9000000EE100AB8EEC00ACE
:100B7000B3EE0E1AC0EE010A384890ED320A20EEAC
:100B8000800ABDEEC00A10EE100A00B23349888018
:100B900001204870052088703148B0F9020000EE4D
:100BA000100AB8EEC00AB3EE0E1AC0EE010A0846EB
:100BB00090ED650A20EE800ABDEEC00A10EE100A24
:100BC00001B22648A0F8D010012180F8CD100521EF
:100BD00080F8CE102248B0F9040000EE100AB8EEFA
:100BE000C00AB3EE0E1AC0EE010A1C4890ED980A36
:100BF00020EE800ABDEEC00A10EE100A01B21748BE
:100C0000A0F89C11012180F89911052180F89A1112
:100C10001348B0F9040000EE100AB8EEC00AB3EEB3
:100C20000E1AC0EE010A0D4890EDCB0A20EE800AA4
:100C3000BDEEC00A10EE100A01B20848A0F8681212
:100C4000012100E007E080F86512052180F86612B6
:100C500001A8FFF7B6FD06B010BD000084260020F5
:100C60000C0000202DE9F0418AB004460D461646DE
:100C70001F46DDF840800121022009F081FE01219C
:100C80004FF0C06009F0AFFEFE4808F0F9FC092201
:100C90000521FD4809F0B9FC09220621FA4809F0AE
:100CA000B4FC02208DF824006020089008A9F648C2
:100CB00009F020FC40208DF8000002208DF8010092
:100CC00000208DF8020001208DF80300684608F02E
:100CD0006CFC41208DF8000002208DF801000120FD
:100CE0008DF802008DF80300684608F05EFC0020D5
:100CF0008DF81A008DF81B008DF81C008DF81D0072
:100D00008DF81E008DF81F008DF816808DF81740A5
:100D10008DF818608DF81950ADF8147005A9D948F0
:100D200008F0C7FC0E208DF80E0001208DF80F0092
:100D300000208DF8100044F22000ADF8040044F2C9
:100D40004000ADF8060044F26000ADF808004FF432
:100D50008140ADF80A000020ADF80C0001208DF8AC
:100D6000110001A808F02FFD0F208DF80E000120C2
:100D70008DF80F0000208DF8100044F2A000ADF8AF
:100D8000040044F2C000ADF8060044F2E000ADF803
:100D900008004FF48240ADF80A000020ADF80C00C6
:100DA00001208DF8110001A808F00DFD10208DF82C
:100DB0000E0001208DF80F0000208DF8100045F284
:100DC0002000ADF8040045F24000ADF8060045F201
:100DD0006000ADF808004FF4A140ADF80A00012012
:100DE000ADF80C008DF8110001A808F0ECFC112002
:100DF0008DF80E0001208DF80F0000208DF81000F6
:100E000045F2A000ADF8040045F2C000ADF80600C0
:100E100045F2E000ADF808004FF4A240ADF80A003A
:100E20000120ADF80C008DF8110001A808F0CBFCF2
:100E300012208DF80E0001208DF80F0000208DF893
:100E400010004FF48150ADF804004FF48250ADF81B
:100E500006004FF48350ADF808004FF48450ADF80D
:100E60000A000120ADF80C008DF8110001A808F06F
:100E7000AAFC13208DF80E0001208DF80F00002031
:100E80008DF810004FF48550ADF804004FF48650F3
:100E9000ADF806004FF48750ADF808004FF48850C5
:100EA000ADF80A000120ADF80C008DF8110001A882
:100EB00008F089FC14208DF80E0000208DF80F003A
:100EC00001208DF810000020ADF804004FF4904090
:100ED000ADF806004FF6FF70ADF808004FF478400B
:100EE000ADF80A000120ADF80C008DF8110001A842
:100EF00008F069FC15208DF80E0001208DF80F0018
:100F000000208DF810004BF22000ADF804004BF2E9
:100F10004000ADF806004BF26000ADF808004BF25F
:100F20008000ADF80A000120ADF80C008DF811002A
:100F300001A808F048FC16208DF80E0001208DF85D
:100F40000F0000208DF810004FF40150ADF80400A0
:100F50004FF40250ADF80600ADF80800ADF80A00F5
:100F60000120ADF80C008DF8110001A808F02BFC51
:100F700001221021434808F025FF012202214148A7
:100F800008F020FF00200AB0BDE8F08110B586B05F
:100F900001AA00213B4808F0FAFD9DF80C0000284A
:100FA0007CD19DF80C00002878D19DF80E0008280F
:100FB00074D10198B0F5007F70D90198B0F5027F27
:100FC0006CD80198401EC4B2304850F82400304913
:100FD00041F824000DF068F82C4941F824009DF8F0
:100FE00012109DF8110041EA002001B204EB041038
:100FF00000EB4000274A02EB800001839DF81000BF
:101000009DF80F1040EA012001B204EB041000EB40
:10101000400002EB800001849DF814109DF813003D
:1010200041EA002001B204EB041000EB400002EBA7
:101030008000C1829DF8151004EB041000EB400005
:1010400002EB8000418404EB041000EB40001146E9
:1010500001EB8000C06900EE100AB8EEC00ADFEDB7
:101060000E0A60EE200A04EB041000EB400001EBD6
:10107000800090F8C20000EE100AB8EE401A80EE30
:10108000810A0CE00068004000040240F4030020E4
:10109000D4030020842600200000B44324E004EBA5
:1010A000041000EB400001EB800090ED321AC0EE1E
:1010B000010A04EB041000EB400001EB8000B0F8E3
:1010C000C00000EE100AB8EE400A80EE801ABDEEB5
:1010D000C10A10EE100A00B204EB041101EB410149
:1010E00002EB8101888200BF0221FE4808F06DFFFB
:1010F0000221FC4808F0ABFE06B010BDF0B585B08B
:1011000007460D46002412200090019000208DF823
:1011100008008DF809008DF80A5000BF05E0395D20
:101120000DF10B000155601C84B2AC42F7DB69463F
:10113000EC4808F037FC0646002401E0601C84B24D
:101140003146E84808F0C6FC18B940F6FF70844202
:10115000F4DB40F6FF70844202DB012005B0F0BDF5
:101160000020FBE74168491C4160002101730169CF
:10117000491E0161818A491C1E2291FBF2F302FB88
:101180001311818270474168491C4160002101733D
:101190000169491E0161818A491C1E2291FBF2F3FB
:1011A00002FB13118182704710B586B01021CD4823
:1011B00008F070FE002874D001AA0121C94808F087
:1011C000E6FC1021C74808F000FF1021C54808F0D0
:1011D0003EFE0198B0F5B06F74D940F28551019888
:1011E00088426FD89DF80D0000286BD10198A0F2BD
:1011F0008150C4B2002104EBC40000EB0410BA4AD1
:1012000002EB800080F857109DF80F004F2809D19D
:101210009DF81000602805D19DF81100602801D1CB
:10122000012000E000209DF80F10432909D19DF80E
:101230001010622905D19DF81110602901D10121FA
:1012400000E0002108439DF80F10432909D19DF8C3
:101250001010642905D19DF81110602901D10121D8
:1012600000E0002108439DF80F10432909D19DF8A3
:1012700010106B2905D19DF81110602901D10121B1
:1012800000E0002108439DF80F1043290AD19DF882
:1012900010106C2906D19DF81110602902D101218E
:1012A00001E0F2E2002108439DF80F104B290AD11A
:1012B0009DF81010402906D19DF81110602902D127
:1012C000012101E047E1002108439DF80F104B295F
:1012D00009D19DF81010772905D19DF811106029CA
:1012E00001D1012100E00021084330B1C4EB841199
:1012F0007E4A02EBC100FFF746FF9DF80F004B2826
:1013000016D19DF81000402812D19DF811006028D8
:101310000ED19DF81300C01008B1012000E000209C
:1013200004EBC40101EB04116F4A02EB8101487028
:101330009DF80F004F2810D19DF8100060280CD1A7
:101340009DF81100602808D19DF8130004EBC4013A
:1013500001EB0411644A02F821009DF80F004328B4
:1013600049D19DF81000622845D19DF811006028F0
:1013700041D1DDF8131004EBC40000EB04105A4A0D
:1013800002EB8000016104EBC40000EB0410114685
:1013900001EB800090ED180A1FEDC11AC1EE000AA2
:1013A00004EBC40000EB041001EB8000006900EEC8
:1013B000100AB8EEC00A20EE800AB1EE001AC0EEA4
:1013C000010A04EBC40000EB041001EB8000B0F84C
:1013D0005C0000EE100AB8EE400A80EE801ABDEE06
:1013E000C10A10EE100A00B204EBC40101EB0411B3
:1013F00002EB810188809DF80F00432849D19DF8B8
:101400001000642845D19DF81100602841D1DDF815
:10141000131004EBC40000EB0410334A02EB80000D
:10142000416204EBC40000EB0410114601EB8000A4
:1014300090ED180A1FEDE81AC1EE000A04EBC40093
:1014400000EB041001EB8000406A00EE100AB8EED9
:10145000C00A20EE800AB1EE001AC0EE010A04EBC9
:10146000C40000EB041001EB8000B0F85C0000EE5B
:10147000100AB8EE400A80EE801ABDEEC10A10EEE6
:10148000100A00B204EBC40101EB041102EB81016C
:1014900008839DF80F00432811D19DF810006B2898
:1014A0000DD19DF81100602809D1DDF8131004EB6F
:1014B000C40000EB04100C4A02EB8000C1609DF8F0
:1014C0000F00432818D19DF810006C2814D19DF806
:1014D0001100602810D1DDF8131004EBC40000EBFC
:1014E000041005E000680040FC2F0020A049002007
:1014F000F64A02EB800001629DF80F004B2829D1CB
:101500009DF81000772825D19DF81100602821D181
:10151000DDF8131004EBC40000EB0410EB4A02EBFF
:101520008000816204EBC40000EB0410114601EB63
:101530008000806A00EE100AB8EEC00ADFEDE40A0F
:1015400080EE201A04EBC40000EB041001EB8000D5
:1015500080ED071A00BF0198B0F5207F7ED9019871
:10156000B0F5227F7AD89DF80D00002876D1019839
:10157000A0F28120C4B20021C4EBC40000EB400003
:10158000D44A02EB800080F847109DF80F004128F4
:101590000BD19DF81000432807D19DF8120000F0F0
:1015A0004000012801D0012000E000209DF80F102C
:1015B00042290BD19DF81010472907D19DF8121030
:1015C00001F04001012901D0012100E00021084380
:1015D0009DF80F104A290BD19DF81010562907D1FC
:1015E0009DF8121001F04001012901D0012100E015
:1015F000002108439DF80F104D290BD19DF81010C4
:101600004F2907D19DF8121001F04001012901D0A6
:10161000012100E0002108439DF80F1050290BD153
:101620009DF81010522907D19DF8121001F04001C9
:10163000012901D0012100E0002108439DF80F108D
:1016400053290CD19DF81010442908D19DF812108F
:1016500001F04001012902D0012101E0FDE000215B
:1016600008439DF80F1053290BD19DF810105429F1
:1016700007D19DF8121001F04001012901D001218C
:1016800000E0002108439DF80F1054290BD19DF86C
:101690001010432907D19DF8121001F040010129D3
:1016A00001D0012100E0002108439DF80F105529C9
:1016B0000BD19DF810104D2907D19DF8121001F0A3
:1016C0004001012901D0012100E00021084330B18F
:1016D000C4EB8411804A02EBC100FFF743FD9DF883
:1016E0000F004D2825D19DF810004F2821D19DF8DD
:1016F000120000F0400001281BD09DF813000128C3
:101700000ED19DF8130008B1012000E00020C4EBC9
:10171000C40101EB41016F4A02EB8101487008E00E
:101720000020C4EBC40101EB41016A4A02EB8101D4
:1017300048709DF80F0056282FD19DF810005828AA
:101740002BD19DF8120000F04000012825D0DDF8D3
:101750001310C4EBC40000EB40005E4A02EB8000B3
:101760004161C4EBC40000EB4000114601EB800076
:10177000B0F84C003C2190FBF1F1C4EBC40000EB4D
:10178000400002EB8000406990FBF1F1C4EBC40023
:1017900000EB400002EB800041619DF80F005028F3
:1017A00041D19DF8100058283DD19DF8120000F05D
:1017B0004000012837D0DDF81300C4EBC40101EB71
:1017C0004101444A02EB81018861C4EBC40101EB91
:1017D000410102EB810191ED140A9FED401AC1EE27
:1017E000000A00EE100AB8EEC00A60EE800AC4EBF0
:1017F000C40101EB410102EB8101B1F84C1000EE94
:10180000101AB8EE400A80EE801ABDEEC10A10EE42
:10181000101A09B2C4EBC40202EB42022D4B03EBD7
:101820008202118200BF9DF80F00492814D19DF853
:101830001000512810D19DF8120000F0400001283E
:101840000AD0BDF8130001B2C4EBC40000EB4000A5
:10185000204A02EB8000418200BF0198812813D307
:101860000198882810D89DF80D0068B90198813832
:10187000C4B2621C022343EA021242F44071184AC5
:101880005068FEF7FEFC00BF00BF06B010BD30B5CB
:1018900085B005460021134808F0FCF910B9002076
:1018A00005B030BD6A4600210F4808F070F90024E9
:1018B00004E00DF10B00005D2855641C9DF80A0042
:1018C000A042F6D89DF80A00EAE70000FC2F0020AD
:1018D00000000843102D0020D03D00200000B4433C
:1018E00004000020006400400068004042E0012045
:1018F000B7EE000A07F0B6FD0220B0EE000A07F0CE
:10190000B1FD0320B0EE080A07F0ACFD04209FED06
:10191000840A07F0A7FD0520B1EE040A07F0A2FD36
:101920000620B1EE080A07F09DFD0720B1EE0C0A73
:1019300007F098FD0820B2EE000A07F093FD092099
:10194000B2EE020A07F08EFD7649096800EE901AA1
:10195000F8EE600AB0EE600A0A2007F083FD0A2064
:1019600007F0D1FD0146704800F059F94FF4967028
:101970000CF0EAFABBE705E003F0EEFD40F24C4064
:101980000CF0E2FAF8E706E0012005F0AFFA4FF4B8
:101990007A700CF0D9FAF7E725E001241DE0012167
:1019A000204606F0A2FB0121204606F021FB012182
:1019B000204606F097FA0121204606F015FA01218B
:1019C000204606F093F90121204606F011F9012185
:1019D000204606F007FC601CC4B2052CDFDB4FF488
:1019E0007A700CF0B1FAD8E706E0012004F0D3FFDA
:1019F0004FF496600CF0A8FAF7E707E007F0C1F99A
:101A000007F02DF94FF496700CF09EFAF6E705E01A
:101A100001F0DFF940F6B8300CF096FAF8E770B54F
:101A20000446002500BF022006F01AFF002007F040
:101A3000FDF901F0CEF90CF0C6FC0CF05BFB05469D
:101A40000D233A4A00213A480BF038FF1E23394A49
:101A5000002139480BF032FF0A23384A0021384868
:101A60000BF02CFF0F23374A002137480BF026FFDD
:101A70001023364A002136480BF020FF0923354A4F
:101A8000002135480BF01AFF0E23344A0021344858
:101A90000BF014FF01203349087081F8CC0081F865
:101AA000980181F8640205200CF086F928460CF0B4
:101AB00025FB70BD08B54FF4FA6006F0D8FF0AF0B8
:101AC0006BF94FF4A06007F06BFD06F0AFFE07F076
:101AD000C6F807F08BF900F0DBF800F049F806F0E3
:101AE000E9FF07F02DF90020032308221946009092
:101AF000FFF7B8F8FEF7D0FD06F0DEFDFEF7F2FBCB
:101B0000FEF726FDFEF75FFB0AF02AFB0523164AC7
:101B1000002116480BF0D2FE0AF049FC002008BD57
:101B20000000C84324040040005D00201410002081
:101B30000F1A000814120020FB190008141A0020C4
:101B4000E9190008141E0020991900081422002029
:101B500087190008141600207719000814260020A1
:101B6000ED18000884260020140800201F1A000821
:101B70001CB54048006840F010003E4908603D48F0
:101B80001438006840F480003A4914390860012094
:101B9000022100230A46CDE900104FF4C061364807
:101BA00007F0ECFA07220921334807F0C7FA0722A9
:101BB0000A21314807F0C2FA40F2D9202F490881A2
:101BC0004FF4037088810846008820F020000880C8
:101BD000032325220121062007F022FA4FF480700A
:101BE000274B264A121D04210090264807F05CF975
:101BF00001221021234808F0A4FB032346220021E0
:101C0000072007F00DFA1D48808A40F080001B492C
:101C100088820846808940F4005088811CBD70B5D8
:101C200004460D461848807A78B92A462146144859
:101C30000CF0FCFB2946134808F017FB0121114862
:101C400008F0F2FA01201049887270BD10B50F49F2
:101C50000C4808F093FB01280AD10C49094808F008
:101C60005CFB0A49074808F0B3FB0020064988726C
:101C700010BD000044380240000002400010014046
:101C800046010020B8640240C603002000800028FE
:101C90001CB5F448006840F40030F2490860F1488F
:101CA0001038006840F40010EE4910390860012037
:101CB000022100230A46CDE900100C21EA4807F072
:101CC0005DFA07220221E84807F038FA07220321CB
:101CD000E54807F033FA4FF4B670E44908800C2069
:101CE000091D0880E1480838008820F02000DF49FD
:101CF00008390880DD48001D008840F02000DB49DD
:101D0000091D0880032326220121042007F088F9F9
:101D10004FF48070D64BD54A121F04210090D5484D
:101D200007F0C2F801221021D24808F00AFB032371
:101D300011220121072007F073F9CC480C300088EC
:101D400040F08000C9490C310880C848001D008857
:101D500040F40050C549091D08801CBD10B5C64996
:101D6000C44808F00BFB01280AD1C349C14808F058
:101D7000D4FAC149BF4808F02BFB0020BF49C87204
:101D800010BD10B52DED028B002440F22531B7486F
:101D9000083809F04CFF58B1B448083809F085FEFE
:101DA0000020B74908702021B6480CF058FBF8E332
:101DB00040F22551AD48083809F039FF0028F6D027
:101DC0002021AA48083809F029FF40F22551A748E8
:101DD000083809F063FFA548083809F066FEC4B268
:101DE000A748007800F0400008B3A548007800F04C
:101DF000800020BBFF2C06D1A148007840F0800075
:101E00009F4908701BE09E48007800F03F019D4804
:101E100044549B480078401C994908700846007853
:101E200000F03F0028280ADD0020087007E0EE2CB3
:101E300005D19348007840F04000914908709048DF
:101E4000007800F080000028B1D08F4890F821027F
:101E5000012804D18C4890F823028C4908708A48E4
:101E600090F82302092872D2DFE800F00523242528
:101E7000F1FA71F9F800844890F82502082815D184
:101E8000012080F3138800BF00BFBFF34F8F80484D
:101E9000006800F4E0607F490843001D7C49086049
:101EA000BFF34F8F00BF00BF00BFFDE700BF00BF03
:101EB000F0E3FDE7FCE7744890F82502C01E0B280C
:101EC00044D2DFE800F006C2C2454F66C2C2C27209
:101ED0007E006C48C01D0CF063FFB0EE408AF0EE4F
:101EE000608A51EC180B0CF0D5FA6B498860654894
:101EF000C01D0CF055FFB0EE408AF0EE608A51EC48
:101F0000180B0CF0C7FA0146634841645D48C01DD8
:101F10000CF046FFB0EE408AF0EE608A51EC180BF0
:101F20000CF0B8FA01465C48C0F880105548C01D56
:101F30000CF036FFB0EE408AF0EE608A51EC180BE0
:101F40000CF0A8FA01465448C0F8BC107DE0B5E397
:101F500001205149087081F83C0081F8780081F82F
:101F6000B40072E002204C49887002214A4880F88F
:101F70003E1080F87A1080F8B6100120464948706B
:101F80000121454880F83D1080F8791080F8B5109F
:101F90005BE003204049887003213F4880F83E10F1
:101FA00080F87A1080F8B6104FE000203A49487067
:101FB0000021394880F83D1080F8791080F8B5107C
:101FC00043E03048C01D0CF0EBFEB0EE408AF0EE6E
:101FD000608A51EC180B0CF095FA00EE100A2E48AE
:101FE00080ED040A2748C01D0CF0DAFEB0EE408AEE
:101FF000F0EE608A51EC180B0CF084FA00EE100A37
:10200000254880ED130A1F48C01D0CF0C9FEB0EE34
:10201000408AF0EE608A51EC180B0CF073FA00EE77
:10202000100A1D4880ED220A1648C01D0CF0B8FEAB
:10203000B0EE408AF0EE608A51EC180B0CF062FAB8
:1020400000EE100A144880ED310A00BF00BF0E48B0
:1020500090F82502C01E1A287BD21FE0F9E32EE378
:102060009AE100004038024000000240084400406D
:1020700066020020A060024000802020C6030020ED
:1020800023000020660300204601002022000020DB
:102090000CED00E00000FA05D02E0020DFE800F093
:1020A0000D1B2939495A69798999A8B8C859D8F3B3
:1020B000F1F0EFEEEDECEBEAE9E8002008E00021BA
:1020C00000EB001202EB4202F54B03F82210401C19
:1020D0000828F4DB5EE1F3480CF062FEB0EE408AC3
:1020E000F0EE608A51EC180B0CF0F3F9EC498870B3
:1020F00050E1EC480CF054FEB0EE408AF0EE608AFD
:1021000051EC180B0CF0E5F9C1B2E54880F8CE109F
:1021100040E1E4480CF044FEB0EE408AF0EE608A04
:1021200051EC180B0CF0D5F9C1B2DD4880F89A11CA
:1021300030E1DC480CF034FEB0EE408AF0EE608A0C
:1021400051EC180B0CF0C5F9C1B2D54880F86612F5
:1021500020E11EE1D3480CF023FEB0EE408AF0EE01
:10216000608A51EC180B0CF095F901B2CC48018152
:1021700010E1CC480CF014FEB0EE408AF0EE608A1C
:1021800051EC180B0CF086F901B2C548A0F8D41038
:1021900000E1C4480CF004FEB0EE408AF0EE608A24
:1021A00051EC180B0CF076F901B2BD48A0F8A01163
:1021B000F0E0BC480CF0F4FDB0EE408AF0EE608A2E
:1021C00051EC180B0CF066F901B2B548A0F86C128E
:1021D000E0E0B4480CF0E4FDB0EE408AF0EE608A36
:1021E00051EC180B0CF056F900B2AD498880D1E0E3
:1021F000AC480CF0D5FDB0EE408AF0EE608A51ECB0
:10220000180B0CF047F901B2A548A0F8D010C1E0B6
:10221000A4480CF0C5FDB0EE408AF0EE608A51ECA7
:10222000180B0CF037F901B29D48A0F89C11B1E0F1
:102230009C480CF0B5FDB0EE408AF0EE608A51EC9F
:10224000180B0CF027F901B29548A0F86812A1E02C
:1022500094480CF0A5FDB0EE408AF0EE608A51EC97
:10226000180B0CF036F981B28D48A0F8961091E069
:1022700084E078E06CE061E055E049E03DE032E088
:1022800021E010E0FFE787480CF08AFDB0EE408ABD
:10229000F0EE608A51EC180B0CF01BF981B280480B
:1022A000A0F8621176E07F480CF07AFDB0EE408A2B
:1022B000F0EE608A51EC180B0CF00BF981B2784803
:1022C000A0F82E1266E077480CF06AFDB0EE408A66
:1022D000F0EE608A51EC180B0CF0FBF881B27048FC
:1022E000A0F8FA1256E0704890F8280208B10120D0
:1022F00000E000206A4908704CE06B4890F8280222
:1023000008B1012000E00020654981F8CC0041E0DF
:10231000654890F8280208B1012000E000206049DB
:1023200081F8980136E0604890F8280208B1012051
:1023300000E000205A4981F864022BE05A4890F8E6
:10234000280208B1012000E000205549487021E032
:10235000554890F8280208B1012100E000215048BA
:1023600080F8CD1016E0504890F8280208B10121FD
:1023700000E000214A4880F899110BE04A4890F8A3
:10238000280208B1012100E00021454880F86512CB
:1023900000E000BF00BF8BE5434890F82502C01E57
:1023A0001A287CD2DFE800F00D1B2B3B4B5B6B82C5
:1023B00092A2B2C2D27BE2FEFBFAF9F8F7F6F5F48C
:1023C000F3F2002008E0002100EB001202EB4202D1
:1023D000334B03F82210401C0828F4DB6CE1314831
:1023E0000CF0DEFCB0EE408AF0EE608A51EC180B87
:1023F0000CF06FF8C1B22A4880F832135CE129482A
:102400000CF0CEFCB0EE408AF0EE608A51EC180B76
:102410000CF05FF8C1B2224880F8FE134CE121486D
:102420000CF0BEFCB0EE408AF0EE608A51EC180B66
:102430000CF04FF8C1B21A4880F8CA143CE11948B0
:102440000CF0AEFCB0EE408AF0EE608A51EC180B56
:102450000CF03FF8C1B2124880F896152CE11148F3
:102460000CF09EFCB0EE408AF0EE608A51EC180B46
:102470000CF010F801B20A48A0F838131CE1094822
:102480000CF08EFCB0EE408AF0EE608A51EC180B36
:102490000CF000F801B20248A0F804140CE10AE1C3
:1024A000842600206D03002046010020FD480CF02A
:1024B00077FCB0EE408AF0EE608A51EC180B0BF01E
:1024C000E9FF01B2F848A0F8D014F5E0F5480CF0A7
:1024D00067FCB0EE408AF0EE608A51EC180B0BF00E
:1024E000D9FF01B2F048A0F89C15E5E0ED480CF0EA
:1024F00057FCB0EE408AF0EE608A51EC180B0BF0FE
:10250000C9FF01B2E848A0F83413D5E0E5480CF063
:1025100047FCB0EE408AF0EE608A51EC180B0BF0ED
:10252000B9FF01B2E048A0F80014C5E0DD480CF0A6
:1025300037FCB0EE408AF0EE608A51EC180B0BF0DD
:10254000A9FF01B2D848A0F8CC14B5E0D5480CF0EA
:1025500027FCB0EE408AF0EE608A51EC180B0BF0CD
:1025600099FF01B2D048A0F89815A5E0CD480CF02D
:1025700017FCB0EE408AF0EE608A51EC180B0BF0BD
:10258000A8FF81B2C848A0F8C61395E088E07BE0B8
:102590006FE063E057E04BE03FE033E022E011E022
:1025A00000E0FDE3BF480CF0FBFBB0EE408AF0EE2C
:1025B000608A51EC180B0BF08CFF81B2BA48A0F87E
:1025C000921479E0B7480CF0EBFBB0EE408AF0EEE5
:1025D000608A51EC180B0BF07CFF81B2B248A0F876
:1025E0005E1569E0AF480CF0DBFBB0EE408AF0EE20
:1025F000608A51EC180B0BF06CFF81B2AA48A0F86E
:102600002A1659E0A94890F8280208B1012000E0F4
:102610000020A54981F830034EE0A44890F8280234
:1026200008B1012000E000209F4981F8FC0343E04D
:102630009E4890F8280208B1012000E000209A4945
:1026400081F8C80438E0994890F8280208B10120C0
:1026500000E00020944981F894052DE0934890F81B
:10266000280208B1012100E000218F4880F83113D1
:1026700022E08E4890F8280208B1012100E00021F4
:10268000894880F8FD1317E0884890F8280210B1B7
:10269000012101E07FE30021834880F8C9140BE0A9
:1026A000824890F8280208B1012100E000217E480C
:1026B00080F8951500E000BF00BF6CE300BF7B48C9
:1026C00090F82502C01E0B2817D2DFE800F006178D
:1026D0001628394A5F749AC3F8000121084604F0AD
:1026E000ACFF0121022004F0A8FF0121032004F027
:1026F000A4FF0121042004F0A0FFF1E0012108461D
:1027000004F0F3FD0121022004F0EFFD012103207C
:1027100004F0EBFD0121042004F0E7FDE0E00121DD
:10272000084604F062FD0121022004F05EFD012153
:10273000032004F05AFD0121042004F056FDCFE0EF
:102740000121084604F0CDFE0121022004F0C9FE5B
:102750000121032004F0C5FE0121042004F0C1FE84
:10276000BEE001220321104604F0C1FC0122032136
:10277000022004F0BCFC01220321084604F0B7FC4F
:1027800001220321042004F0B2FCA9E00122114639
:10279000104604F0ACFC01221146022004F0A7FC14
:1027A00001221146032004F0A2FC0122114604205C
:1027B00004F09DFC94E03B480CF0F2FAB0EE408A45
:1027C000F0EE608A51EC180B0BF064FE384908609B
:1027D000012208460168104605F027F90122344815
:1027E0000168022005F021F9012231480168032027
:1027F00005F01BF901222E480168042005F015F9A7
:102800006EE028480CF0CCFAB0EE408AF0EE608A18
:1028100051EC180B0BF03EFE2649086001220846D9
:102820000168104605F06FF9012222480068414214
:10283000022005F068F901221E4800684142032089
:1028400005F061F901221B480168042005F05BF9DD
:1028500046E047E013480CF0A3FAB0EE408AF0EEF1
:10286000608A51EC180B0BF015FE13490860012229
:1028700008460168104604F05EFF01220E48006819
:102880004142022004F057FF01220B4800684142F8
:10289000032004F050FF012207480168042004F0DF
:1028A0004AFF1DE06D030020842600204601002021
:1028B0008C0000208800002084000020FFE7012118
:1028C000084605F031F80121022005F02DF801211C
:1028D000032005F029F80121042005F025F800BFA8
:1028E00000BF00BFF84890F825021A2821D2DFE87F
:1028F00000F0200D21374D6393C5EFEEEDECEBEAD0
:10290000E9E8E7E6E5E4E3E2E1E0DFDEEF480CF0EA
:1029100047FAB0EE408AF0EE608A51EC180B0BF0EB
:10292000D8FDEB490870084601780122104602F0F4
:1029300028FF2FE2E5480CF033FAB0EE408AF0EEC3
:10294000608A51EC180B0BF0C4FDE14981F854008A
:10295000084690F854100122022002F012FF19E2FA
:10296000DA480CF01DFAB0EE408AF0EE608A51ECC5
:10297000180B0BF0AEFDD64981F8A800084690F878
:10298000A8100122032002F0FCFE03E2CF480CF065
:1029900007FAB0EE408AF0EE608A51EC180B0BF0AB
:1029A00098FDCB4981F8FC00084690F8FC10012204
:1029B000042002F0E6FEEDE1C5480078022813D1BC
:1029C000C2480CF0EDF9B0EE408AF0EE608A51ECAE
:1029D000180B0BF05FFDBF49086001220846016833
:1029E000104603F021FA16E0B9480078052812D104
:1029F000B6480CF0D5F9B0EE408AF0EE608A51ECA2
:102A0000180B0BF047FDB449086001220846016825
:102A1000104603F09EF8BDE1AD4890F8540002283E
:102A200013D1AA480CF0BCF9B0EE408AF0EE608AEF
:102A300051EC180B0BF02EFDA64908600122084648
:102A40000168022003F0F0F917E0A14890F8540063
:102A5000052812D19D480CF0A3F9B0EE408AF0EEA3
:102A6000608A51EC180B0BF015FD9B4908600122A0
:102A700008460168022003F06CF88BE1944890F856
:102A8000A800022825D191480CF08AF9B0EE408ABE
:102A9000F0EE608A51EC180B0BF0FCFC8D490860DD
:102AA000012208460168032003F0BEF929E060E135
:102AB00055E159E149E1F7E04CE135E123E111E16C
:102AC000DEE0C9E0B4E09FE08AE075E060E04BE062
:102AD00018E07F4890F8A800052812D17B480CF038
:102AE0005FF9B0EE408AF0EE608A51EC180B0BF003
:102AF000D1FC79490860012208460168032003F0EF
:102B000028F847E1724890F8FC00022813D16F487A
:102B10000CF046F9B0EE408AF0EE608A51EC180BEA
:102B20000BF0B8FC6B4908600122084601680420DC
:102B300003F07AF917E0664890F8FC00052812D1F6
:102B400062480CF02DF9B0EE408AF0EE608A51EC4C
:102B5000180B0BF09FFC60490860012208460168D1
:102B6000042002F0F6FF15E158480CF019F9B0EE18
:102B7000408AF0EE608A51EC180B0BF08BFC574941
:102B80000860012208460168104603F061F801E17F
:102B90004E480CF005F9B0EE408AF0EE608A51EC38
:102BA000180B0BF077FC4D490860012208460168BC
:102BB000022003F04DF8EDE044480CF0F1F8B0EEDF
:102BC000408AF0EE608A51EC180B0BF063FC43492D
:102BD0000860012208460168032003F039F8D9E0B3
:102BE0003A480CF0DDF8B0EE408AF0EE608A51EC25
:102BF000180B0BF04FFC39490860012208460168A8
:102C0000042003F025F8C5E030480CF0C9F8B0EE18
:102C1000408AF0EE608A51EC180B0BF03BFC304917
:102C20000860012208460168104603F090F8B1E000
:102C300026480CF0B5F8B0EE408AF0EE608A51EC10
:102C4000180B0BF027FC2649086001220846016892
:102C5000022003F07CF89DE01C480CF0A1F8B0EED7
:102C6000408AF0EE608A51EC180B0BF013FC1C4903
:102C70000860012208460168032003F068F889E033
:102C800012480CF08DF8B0EE408AF0EE608A51ECFC
:102C9000180B0BF0FFFB124908600122084601687F
:102CA000042003F054F875E0074890F8280208B1B2
:102CB000012000E0002006494870084641780122C2
:102CC000104602F03CFE65E0460100206D03002046
:102CD000102D00205C000020500000205800002033
:102CE00060000020FE4890F8280208B1012100E0B1
:102CF0000021FC4880F8551090F855100122022060
:102D000002F01DFE46E0F64890F8280208B10121C5
:102D100000E00021F34880F8A91090F8A9100122E2
:102D2000032002F00CFE35E0ED4890F8280208B1CF
:102D3000012100E00021EB4880F8FD1090F8FD1023
:102D40000122042002F0FBFD24E00121084602F0EC
:102D50001FFE1FE00121022002F01AFE1AE00121ED
:102D6000032002F015FE15E00121042002F010FE00
:102D700010E00121084602F087FE0121022002F046
:102D800083FE0121032002F07FFE0121042002F0D6
:102D90007BFE00BF00BF00BF0020D349087000E0E9
:102DA00003E02021D1480BF05AFBBDEC028B10BD93
:102DB00010B50446CE48C07A50B92146CD4807F038
:102DC00054FA0121CB4807F02FFA0120C849C872F4
:102DD00010BD10B50024EE222146641CC6484254A2
:102DE000B1222146641C425410222146641C4254E4
:102DF00000222146641C42542146641C4254214650
:102E0000641C425405222146641C4254012220467F
:102E1000611CCCB2B8490A54FF222046611CCCB2D6
:102E2000B5490A54FC222046611CCCB2B2490A546E
:102E3000FF222046611CCCB2AF490A542046611CD7
:102E4000CCB2AD490A54AD480078062881F0B48070
:102E5000DFE810F0B2080600080009000A005E046E
:102E600001F0ABB8FCE7FBE7EE222046611CCCB2D8
:102E7000A1490A54B1222046611CCCB29E490A5491
:102E800012222046611CCCB29B490A5400222046E3
:102E9000611CCCB298490A5404222046611CCCB271
:102EA00095490A549648807800287CD00022204614
:102EB000611CCCB290490A5404222046611CCCB259
:102EC0008D490A5400222046611CCCB28A490A541A
:102ED0008B4882788BA18C480BF04CFF8A480BF012
:102EE000C9FAC2B22046611CCCB283490A540819FF
:102EF00085490BF0C6FA84480BF0BCFA2044C4B2F2
:102F000000222046611CCCB27B490A54082220468C
:102F1000611CCCB278490A5400222046611CCCB214
:102F200075490A547648B0F9182076A176480BF016
:102F300021FF75480BF09EFAC2B22046611CCCB24C
:102F40006D490A54081970490BF09BFA6E480BF052
:102F500091FA2044C4B200222046611CCCB26649DA
:102F60000A540C222046611CCCB263490A54002248
:102F70002046611CCCB260490A546148B0F9142063
:102F800060A161480BF0F6FE5F480BF073FAC2B225
:102F90002046611CCCB258490A5408195A490BF012
:102FA00070FA594800E06CE00BF064FA2044C4B2B7
:102FB00000222046611CCCB24F490A5411222046FF
:102FC000611CCCB24C490A5400222046611CCCB290
:102FD00049490A544A48B0F896204AA14A480BF099
:102FE000C9FE49480BF046FAC2B22046611CCCB279
:102FF00041490A54081944490BF043FA42480BF07E
:1030000039FA2044C4B200222046611CCCB23A49AD
:103010000A5415222046611CCCB237490A540022BA
:103020002046611CCCB234490A5401222046611C5E
:10303000CCB231490A54324802782046611CCCB2E5
:103040002D490A5400222046611CCCB22A490A5458
:1030500019222046611CCCB227490A54002220467E
:10306000611CCCB224490A5401222046611CCCB216
:1030700021490A54224842782046611CCCB21E499C
:103080000A541F4890F8CE0000287DD00022204628
:10309000611CCCB218490A5405222046611CCCB2EE
:1030A00015490A5400222046611CCCB212490A5428
:1030B000134890F8CE2013A113480BF05BFE124882
:1030C0000BF0D8F9C2B22046611CCCB20A490A54AE
:1030D00008190D490BF0D5F90B480BF0CBF915E0A9
:1030E00046010020102D0020230000206603002050
:1030F000C6030020A06002406602002022000020DB
:103100008426002025640000182600202044C4B234
:1031100000222046611CCCB2FE490A5409222046F6
:10312000611CCCB2FB490A5400222046611CCCB27F
:10313000F8490A54F848B0F9E420AFF23801F748EA
:103140000BF018FEF5480BF095F9C2B22046611C51
:10315000CCB2F0490A540819F0490BF092F9EF4843
:103160000BF088F92044C4B200222046611CCCB286
:10317000E8490A540D222046611CCCB2E5490A54A4
:1031800000222046611C00E088E0CCB2E1490A54EC
:10319000E148B0F9E020AFF29401E0480BF0EAFD1D
:1031A000DE480BF067F9C2B22046611CCCB2D949A7
:1031B0000A540819D9490BF064F9D8480BF05AF9A8
:1031C0002044C4B200222046611CCCB2D1490A542A
:1031D00012222046611CCCB2CE490A54002220465D
:1031E000611CCCB2CB490A54CB48B0F86221AFF293
:1031F000EC01CA480BF0BEFDC8480BF03BF9C2B267
:103200002046611CCCB2C3490A540819C3490BF0CB
:1032100038F9C2480BF02EF92044C4B200222046EF
:10322000611CCCB2BB490A5416222046611CCCB2A8
:10323000B8490A5400222046611CCCB2B5490A5450
:1032400001222046611CCCB2B2490A54B24890F81F
:10325000CC202046611CCCB2AE490A540022204644
:10326000611CCCB2AB490A541A222046611CCCB274
:10327000A8490A5400222046611CCCB2A5490A5430
:1032800001222046611CCCB2A2490A54A24890F8FF
:10329000CD202046611CCCB29E490A549E4890F82D
:1032A0009A0100287DD000222046611CCCB29949A9
:1032B0000A5406222046611CCCB296490A540022C8
:1032C0002046611CCCB293490A54934890F89A2145
:1032D000AFF2D01191480BF04DFD90480BF0CAF8B9
:1032E000C2B22046611CCCB28A490A5408198B49E3
:1032F0000BF0C7F889480BF0BDF82044C4B2002297
:103300002046611CCCB283490A540A222046611C23
:10331000CCB280490A5400222046611CCCB27D49BF
:103320000A547D48B0F9B021AFF228217B480BF058
:1033300021FD7A480BF09EF8C2B22046611CCCB247
:1033400074490A54081975490BF09BF873480BF03F
:1033500091F82044C4B200222046611CCCB26D49D1
:103360000A540E222046611CCCB26A490A5400223B
:103370002046611CCCB267490A546748B0F9AC21B9
:10338000AFF2802165480BF0F5FC64480BF072F851
:10339000C2B22046611CCCB25E490A5408195F498A
:1033A00000E072E00BF06DF85C480BF063F820442D
:1033B000C4B200222046611CCCB256490A541322E2
:1033C0002046611CCCB253490A5400222046611C9D
:1033D000CCB250490A545048B0F82E22AFF2DC214A
:1033E0004E480BF0C7FC4D480BF044F8C2B22046E3
:1033F000611CCCB247490A54081948490BF041F8FE
:1034000046480BF037F82044C4B200222046611C25
:10341000CCB240490A5417222046611CCCB23D4927
:103420000A5400222046611CCCB23A490A540122B7
:103430002046611CCCB237490A54374890F898218D
:103440002046611CCCB233490A5400222046611C3C
:10345000CCB230490A541B222046611CCCB22D4903
:103460000A5400222046611CCCB22A490A54012287
:103470002046611CCCB227490A54274890F899216C
:103480002046611CCCB223490A54234890F86602B6
:1034900000287DD000222046611CCCB21D490A5470
:1034A00007222046611CCCB21A490A540022204649
:1034B000611CCCB217490A54174890F86622AFF243
:1034C000BC3116480BF056FC14480AF0D3FFC2B2C8
:1034D0002046611CCCB20F490A5408190F490AF062
:1034E000D0FF0E480AF0C6FF2044C4B20022204696
:1034F000611CCCB207490A540B222046611CCCB295
:1035000004490A5400222046611CCCB201490A54E5
:10351000014805E0660200208426002018260020CD
:10352000B0F97C22AFF22441FE480BF023FCFD48A9
:103530000AF0A0FFC2B22046611CCCB2FA490A547C
:103540000819F8490AF09DFFF6480AF093FF204455
:10355000C4B200222046611CCCB2F3490A540F22A7
:103560002046611CCCB2F0490A5400222046611C5E
:10357000CCB2ED490A54ED48B0F97822AFF27C4163
:10358000E8480BF0F7FBE7480AF074FFC2B200E02E
:1035900079E02046611CCCB2E3490A540819E1499C
:1035A0000AF06FFFDF480AF065FF2044C4B2002232
:1035B0002046611CCCB2DC490A5414222046611C0E
:1035C000CCB2D9490A5400222046611CCCB2D6495B
:1035D0000A54D648B0F8FA22AFF2D841D1480BF0DD
:1035E000C9FBD0480AF046FFC2B22046611CCCB2EB
:1035F000CD490A540819CB490AF043FFC9480AF0DB
:1036000039FF2044C4B200222046611CCCB2C64916
:103610000A5418222046611CCCB2C3490A54002225
:103620002046611CCCB2C0490A5401222046611CCC
:10363000CCB2BD490A54BD4890F864222046611CB2
:10364000CCB2B9490A5400222046611CCCB2B6491A
:103650000A541C222046611CCCB2B3490A540022F1
:103660002046611CCCB2B0490A5401222046611C9C
:10367000CCB2AD490A54AD4890F865222046611C91
:10368000CCB2A9490A5400222046611CCCB2A649FA
:103690000A5410222046611CCCB2A3490A540022CD
:1036A0002046611CCCB2A0490A54A1484068406839
:1036B0000288A0A19B480BF05DFB9A480AF0DAFE55
:1036C000C2B22146601CC4B2974842540146081950
:1036D00094490AF0D6FE93480AF0CCFE2044C4B2C6
:1036E000FF222046611CCCB28F490A54FC2220469E
:1036F000611CCCB28C490A54FF222046611CCCB21A
:1037000089490A542046611CCCB287490A54FDE31A
:10371000EE222046611CCCB283490A54B1222046D5
:10372000611CCCB280490A5412222046611CCCB2E2
:103730007D490A5400222046611CCCB27A490A54C1
:1037400005222046611CCCB277490A54774890F88C
:10375000320300287DD000222046611CCCB2724981
:103760000A5404222046611CCCB26F490A5400223C
:103770002046611CCCB26C490A546C4890F8322344
:10378000AFF2806167480BF0F5FA66480AF072FE06
:10379000C2B22046611CCCB263490A54081961497F
:1037A0000AF06FFE5F480AF065FE2044C4B20022B2
:1037B0002046611CCCB25C490A5408222046611C98
:1037C000CCB259490A5400222046611CCCB2564959
:1037D0000A545648B0F94823AFF2D86151480BF06B
:1037E000C9FA50480AF046FEC2B22046611CCCB26B
:1037F0004D490A5408194B490AF043FE49480AF05A
:1038000039FE2044C4B200222046611CCCB2464995
:103810000A540C222046611CCCB243490A540022AF
:103820002046611CCCB240490A544048B0F94423B8
:10383000AFF230713B480BF09DFA3A480AF01AFE9D
:10384000C2B22046611CCCB237490A540819354926
:1038500000E07DE00AF015FE32480AF00BFE20443D
:10386000C4B200222046611CCCB22F490A54112256
:103870002146601CC4B22C48425400222046611CE0
:10388000CCB229490A542948B0F8C623AFF28C714A
:1038900024480BF06FFA23480AF0ECFDC2B2204630
:1038A000611CCCB220490A5408191E490AF0E9FDEE
:1038B0001C480AF0DFFD2044C4B200222046611CEF
:1038C000CCB219490A5415222046611CCCB21649C3
:1038D0000A5400222046611CCCB213490A5401222A
:1038E0002046611CCCB210490A54104890F830238D
:1038F0002046611CCCB20C490A5400222046611CAF
:10390000CCB209490A5419222046611CCCB206499E
:103910000A5400222046611CCCB203490A540122F9
:10392000204609E018260020660200208426002098
:103930000400002025780000611CCCB2FE490A5426
:10394000FE4890F831232046611CCCB2FA490A5453
:10395000FA4890F8FE0300287DD000222046611C22
:10396000CCB2F5490A5405222046611CCCB2F2497A
:103970000A5400222046611CCCB2EF490A54EF4899
:1039800090F8FE23AFF68401ED480BF0F3F9EC4814
:103990000AF070FDC2B22046611CCCB2E6490A545E
:1039A0000819E7490AF06DFDE5480AF063FD204477
:1039B000C4B200222146601CC4B2DF48425409222E
:1039C0002046611CCCB2DC490A5400222046611C0E
:1039D000CCB2D9490A54D948B0F91424AFF6DC0165
:1039E000D7480BF0C7F9D6480AF044FDC2B22046CA
:1039F000611CCCB2D0490A540819D1490AF041FDE2
:103A0000CF480AF037FD2044C4B200222046611C92
:103A1000CCB2C9490A540D222046611CCCB2C64919
:103A20000A5400222046611CCCB2C3490A54C34840
:103A3000B0F91024AFF63411C1480BF09BF9C0481F
:103A40000AF018FDC2B22046611CCCB2BA490A5431
:103A50000819BB4900E072E00AF013FDB8480AF00B
:103A600009FD2044C4B200222046611CCCB2B249F8
:103A70000A5412222046611CCCB2AF490A540022DB
:103A80002146601CC4B2AC484254AC48B0F8922401
:103A9000AFF69011AA480BF06DF9A9480AF0EAFCBC
:103AA000C2B22046611CCCB2A3490A540819A449E9
:103AB0000AF0E7FCA2480AF0DDFC2044C4B2002270
:103AC0002046611CCCB29C490A5416222046611C37
:103AD000CCB299490A5400222046611CCCB29649C6
:103AE0000A5401222046611CCCB293490A549348DF
:103AF00090F8FC232046611CCCB28F490A54002266
:103B00002046611CCCB28C490A541A222046611C02
:103B1000CCB289490A5400222046611CCCB28649A5
:103B20000A5401222046611CCCB283490A548348BE
:103B300090F8FD232046611CCCB27F490A547F488F
:103B400090F8CA0400287DD000222046611CCCB227
:103B500079490A5406222046611CCCB276490A549F
:103B600000222046611CCCB273490A54734890F875
:103B7000CA24AFF6702172480BF0FCF870480AF0C6
:103B800079FCC2B22046611CCCB26B490A540819B8
:103B90006B490AF076FC6A480AF06CFC2044C4B217
:103BA00000222046611CCCB263490A540A222046F6
:103BB000611CCCB260490A5400222046611CCCB280
:103BC0005D490A545D48B0F9E024AFF6C8215C486D
:103BD0000BF0D0F85A480AF04DFCC2B22046611CE6
:103BE000CCB255490A54081955490AF04AFC5448C0
:103BF0000AF040FC2044C4B200222146601CC4B23A
:103C00004D4842540E222046611CCCB24A490A5407
:103C100000222046611CCCB247490A544748B0F9FB
:103C2000DC24AFF6203146480BF0A4F844480AF0F3
:103C300021FCC2B22046611CCCB23F490A5408198B
:103C40003F4900E072E00AF01CFC3D480AF012FC1B
:103C50002044C4B200222046611CCCB236490A542A
:103C600013222046611CCCB233490A54002220465C
:103C7000611CCCB230490A543048B0F85E25AFF62A
:103C80007C312F480BF076F82D480AF0F3FBC2B2D6
:103C90002046611CCCB228490A54081928490AF068
:103CA000F0FB27480AF0E6FB2044C4B2002220467D
:103CB000611CCCB220490A5417222046611CCCB2A8
:103CC0001D490A5400222046611CCCB21A490A54EC
:103CD00001222046611CCCB217490A54174890F8BB
:103CE000C8242046611CCCB213490A540022204645
:103CF000611CCCB210490A541B222146601CC4B27C
:103D00000D48425400222146601CC4B20A48425465
:103D100001222046611CCCB207490A54074890F89A
:103D2000C9242046611CCCB203490A54034890F8C8
:103D3000960500287ED005E066020020842600203B
:103D40001826002000222046611CCCB29D490A544E
:103D500007222046611CCCB29A490A540022204610
:103D6000611CCCB297490A54974890F89625AFF653
:103D70006C4196480AF0FEFF94480AF07BFBC2B201
:103D80002146601CC4B28F484254014608198F492D
:103D90000AF077FB8D480AF06DFB2044C4B2002284
:103DA0002146601CC4B2874842540B222046611C45
:103DB000CCB284490A5400222046611CCCB281490D
:103DC0000A548148B0F9AC25AFF6C8417F480AF0E3
:103DD000D1FF7E480AF04EFBC2B22046611CCCB235
:103DE00078490A54081979490AF04BFB77480AF0D8
:103DF00041FB2044C4B200222046611CCCB2714970
:103E00000A540F222146601CC4B26E48425400225C
:103E10002046611CCCB26B490A546B48B0F9A82506
:103E2000AFF6205169480AF0A5FF68480AF022FB66
:103E3000C2B200E07BE02046611CCCB261490A546A
:103E4000081962490AF01DFB60480AF013FB204480
:103E5000C4B200222046611CCCB25A490A54142232
:103E60002146601CC4B25748425400222046611CBF
:103E7000CCB254490A545448B0F82A26AFF67C51C3
:103E800052480AF077FF51480AF0F4FAC2B22046CD
:103E9000611CCCB24B490A5408194C490AF0F1FA9A
:103EA0004A480AF0E7FA2044C4B200222046611CC6
:103EB000CCB244490A5418222046611CCCB2414974
:103EC0000A5400222046611CCCB23E490A54012209
:103ED0002046611CCCB23B490A543B4890F89425DB
:103EE0002146601CC4B23748425400222046611C5F
:103EF000CCB234490A541C222046611CCCB2314950
:103F00000A5400222146601CC4B200E055E02D484E
:103F1000425401222046611CCCB22A490A542A4844
:103F200090F895252146601CC4B2264842540022D0
:103F30002146601CC4B22348425410222146601C12
:103F4000C4B22048425400222146601CC4B21D481D
:103F500042541F48406840680288AFF228611B48FD
:103F60000AF008FF19480AF085FAC2B22046611C1F
:103F7000CCB214490A54081914490AF082FA1348B9
:103F80000AF078FA2044C4B2FF222146601CC4B271
:103F90000C484254FC222046611CCCB209490A5408
:103FA000FF222146601CC4B2064842542046611CD0
:103FB000CCB204490A5400E000BF00BF2046FEF71F
:103FC000F7FE10BD6602002084260020182600207F
:103FD0000400002000B597B00121042006F0D0FCB9
:103FE0000121880406F0FFFC0121480506F0C8FC09
:103FF00007220A21634806F008FB07220B216148CB
:1040000006F003FB4FF44060119002208DF8480049
:1040100000208DF84A0003208DF8490000208DF81B
:104020004B0011A9574806F065FA4FF4E1301390A0
:104030000020ADF85000ADF85200ADF85400ADF8D6
:1040400058000C20ADF8560013A94F4807F076FC35
:10405000012240F225514C4807F0AEFD27208DF893
:10406000400002208DF8410003208DF8420001201D
:104070008DF8430010A805F098FA444805F0F8FFC1
:104080004FF00060019000200590402004904048CF
:1040900003903D48001D02900015079000200690F7
:1040A000099008900A904FF440300B9000200C903B
:1040B00001200D9000200F900E9001A9334806F0CA
:1040C00079F83449314806F028F932492F4806F08A
:1040D0007FF90E208DF8400002208DF84100042069
:1040E0008DF8420001208DF8430010A805F05DFA1C
:1040F00001221021254806F024F9012280212248BE
:1041000007F051FD17B000BD10B522491F4806F059
:1041100035F901280AD11F491C4806F0FEF81D494F
:104120001A4806F055F900201B49087310BD70B5F8
:1041300004460D461848007B78B92A4621461448A3
:104140000AF074F92946114806F08FF801210F484A
:1041500006F06AF801201049087370BD10B540F2EE
:104160002551094807F063FD50B12021064807F0AA
:1041700055FD40F22551044807F090FD04F0A2FBE4
:1041800010BD000000080240004800405860024096
:104190008603002000800018C603002000228261F0
:1041A0000160C26100230362436280ED031A80ED67
:1041B000010AC0ED020AC0ED041A70470168826965
:1041C000891AC161C269016A511A00EE101AB8EE6B
:1041D000C00AD0ED010A20EE200A90ED021AC16952
:1041E00000EE901AF8EEE00A01EE200AC269416A78
:1041F0000A44016AA2EB410100EE901AF8EEE00ACF
:1042000090ED031A01EE200ABDEEC00A10EE101A5E
:104210004161026A4262C269026270472DE9F0415F
:1042200086B004460D4616461F464FF00008002093
:104230008DF80C008DF80D0008208DF80E0040F26E
:10424000FF18CDF80480042001F000F828B9200AF6
:104250008DF80F008DF8104005E000208DF80F005C
:1042600000218DF81010052000F0F0FF28B9290A70
:104270008DF811108DF8125004E000218DF8111006
:104280008DF81210062000F0E1FF28B9310A8DF8F0
:1042900013108DF8146004E000218DF813108DF8D0
:1042A0001410072000F0D2FF28B9390A8DF8151034
:1042B0008DF8167004E000218DF815108DF8161099
:1042C00001A9584805F06EFB06B0BDE8F0812DE964
:1042D000F04186B004460D4616461F464FF00008D2
:1042E00000208DF80C008DF80D0008208DF80E00D0
:1042F0004FF40078CDF80480002000F0A7FF28B923
:10430000200A8DF80F008DF8104005E000208DF890
:104310000F0000218DF81010012000F097FF28B940
:10432000290A8DF811108DF8125004E000218DF843
:1043300011108DF81210022000F088FF28B9310A00
:104340008DF813108DF8146004E000218DF813101F
:104350008DF81410032000F079FF28B9390A8DF880
:1043600015108DF8167004E000218DF815108DF8E9
:10437000161001A92B4805F015FB06B0BDE8F08129
:1043800000204BE000EB001101EB4101264A02EB5B
:104390008101B1F90610002908DD00EB001101EBE5
:1043A000410102EB8101B1F9061009E000EB0011B7
:1043B00001EB41011C4A02EB8101B1F906104942AF
:1043C00000EB001202EB4202174B03EB8202B2F841
:1043D000C420914220DD00EB001101EB41011A469F
:1043E00002EB8101B1F90610002902DA4FF0FF312A
:1043F00000E0012100EB001202EB42020A4B03EB4A
:104400008202B2F8C42051430AB200EB001101EB62
:10441000410103EB8101CA80411CC8B20828B1DB0D
:1044200070470000006800408426002010B54FF45B
:104430000050FE490880FE4908801320FB4988701F
:104440002420FB49887043F69910F849888042F28D
:104450002830F74988809FEDF70AF44880ED020A7A
:104460009FEDF40A084680ED020A0020F249087028
:104470009FEDF20A084680ED010A01200872C8206B
:104480004881012008734FF47A70C8814000088287
:1044900001208874C8744FF4FA60E94988830020C9
:1044A0004860E848E14B0ECB40300EC00020E549A3
:1044B000803908704870052088704FF4E16088806A
:1044C0006421E048803801813221C180C168DFED7C
:1044D000DE1A9FEDDE1ADFEDDE0AB2EE000A3C3096
:1044E000FFF75CFED7488038B0F90810F7EE001AE5
:1044F0009FEDD61ADFEDD70AB2EE000A6430FFF75F
:104500004DFE1422CC49CF480C3009F08FFFCD4826
:10451000CC30C64BD3E900219B68C0E9111302647B
:104520000020C849803981F8CC000021C548803876
:1045300080F8CD10052180F8CE104FF4E161A0F88D
:10454000D0106421A0F8D4103221A0F8D210C16894
:10455000DFEDBD1A9FEDBD1ADFEDBD0AB2EE000A18
:1045600000F58470FFF71AFEB6488038B0F90810DD
:10457000F7EE001A9FEDB51ADFEDB60AB2EE000AAB
:1045800000F59870FFF70AFE1422AB49AD48D83009
:1045900009F04CFFB048A549D1E900238968C0E97A
:1045A000102381640020A749803981F898010021F7
:1045B000A448803880F89911052180F89A114FF4A9
:1045C000E161A0F89C116421A0F8A0113221A0F8AB
:1045D0009E11C168DFED9C1A9FED9C1ADFED9C0ACD
:1045E000B2EE000A00F5EA70FFF7D8FD9548803872
:1045F000B0F90810F7EE001A9FED941ADFED950A56
:10460000B2EE000A00F5FE70FFF7C8FD14228A49D9
:1046100091480C3009F00AFF8F48CC30834B0ECB09
:1046200040300EC000208749803981F864020021A3
:104630008448803880F86512052180F866124FF4AE
:10464000E161A0F868126421A0F86C123221A0F890
:104650006A12C168DFED7C1A9FED7C1ADFED7C0ADF
:10466000B2EE000A00F52870FFF798FD7548803813
:10467000B0F90810F7EE001A9FED741ADFED750A15
:10468000B2EE000A00F53270FFF788FD14226A4985
:104690007148D83009F0CAFE7048644BD3E9002154
:1046A0009B68C0E91113026400206649803981F8D3
:1046B000300300216348803880F83113052180F8E9
:1046C00032134FF4E161A0F834136421A0F83813D9
:1046D0003221A0F83613C168DFED5B1A9FED5B1A3B
:1046E000DFED5B0AB2EE000A00F55B70FFF756FDE6
:1046F00054488038B0F90810F7EE001A9FED531AAD
:10470000DFED540AB2EE000A00F56570FFF746FDD2
:104710001422494951480C3009F088FE4F48CC30EA
:10472000424B0ECB40300EC000204649803981F804
:10473000FC0300214348803880F8FD13052180F8F0
:10474000FE134FF4E161A0F800146421A0F80414F2
:104750003221A0F80214C168DFED3B1A9FED3B1A2D
:10476000DFED3B0AB2EE000A00F58760FFF716FDA9
:1047700034488038B0F90810F7EE001A9FED331A6C
:10478000DFED340AB2EE000A00F58C60FFF706FD9B
:10479000142229493148D83009F048FE3048234BCB
:1047A0000ECB40300EC000202649803981F8C80465
:1047B00000212448803880F8C914052180F8CA14E3
:1047C0004FF4E161A0F8CC146421A0F8D014322198
:1047D000A0F8CE14C168DFED1C1A9FED1C1ADFEDA6
:1047E0001C0AB2EE000A00F20450FFF7D7FC15488D
:1047F0008038B0F90810F7EE001A9FED141ADFEDBB
:10480000150AB2EE000A00F22C50FFF7C7FC142282
:10481000094913480C3009F009FE1148CC30034B0C
:104820000ECB40300EC0002006491BE0442600207D
:1048300038260020F6283C40502600200000E144A5
:104840006426002004270020CDCCCC3E00000000D0
:10485000CDCC4C3E9A99993E9C280020342A0020C9
:10486000CC2B0020803981F894050021FE4880F887
:104870009515052180F896154FF4E161A0F898157B
:104880006421A0F89C153221A0F89A15C1685FED4B
:10489000121A1FED121A5FED120AB2EE000A00F5AD
:1048A000BA60FFF77BFCF048B0F90810F7EE001A89
:1048B0001FED1A1A5FED190AB2EE000A00F5BF608B
:1048C000FFF76CFC1422E949E94809F0AFFD002428
:1048D000BCE004EB041000EB4000E34901EB800076
:1048E000E4490968C0F8A010E248416804EB0410EC
:1048F00000EB4000DC4A02EB8000C0F8A41004EB9F
:10490000041101EB410102EB810101F1A8000A222F
:10491000D849083109F08AFDD648418A04EB0410D1
:1049200000EB4000D04A02EB8000A0F8B21004EB8C
:10493000041000EB4000114601EB8000A030CD4B8D
:104940005A699969DB69C0E90613426104EB0410F6
:1049500000EB4000C44901EB8000D0ED240A04EBD9
:10496000041000EB400001EB800090F8C20000EE64
:10497000100AB8EE400A20EE800A04EB041000EBA7
:10498000400001EB8000D0ED320A60EE200A04EB1B
:10499000041000EB400001EB8000B0F8C00000EE16
:1049A000100AB8EE400A20EE800ADFEDB30A80EE6E
:1049B000201ABCEEC10A04EB041000EB400001EB2E
:1049C000800080ED280A04EB041000EB400001EBAE
:1049D0008000B0F9040000EE100AB8EEC00A04EB43
:1049E000041000EB400001EB8000D0ED320A60EED5
:1049F000200A04EB041000EB400001EB800090F86B
:104A0000C20000EE100AB8EE400A60EE800A04EB25
:104A1000041000EB400001EB8000B0F8C00000EE95
:104A2000100AB8EE400A20EE800ADFED930A80EE0D
:104A3000201ABDEEC10A10EE100A04EB041101EBBE
:104A40004101894A02EB8101C860641C082CFFF611
:104A500040AF00208949C87088704870087108709C
:104A600010BD002239210A54C261002181827047A1
:104A700010B5044604EB041000EB40007A4901EB4A
:104A80008000D0ED1D0A04EB041000EB400001EBA8
:104A90008000B0F9080000EE100AB8EEC00A20EE5F
:104AA000800ABDEEC00A10EE100A04EB041101EBFF
:104AB00041016D4A02EB8101486604EB041000EBF2
:104AC0004000114601EB8000B0F9181004EB04100F
:104AD00000EB400002EB8000C16704EB041101EB26
:104AE000410102EB810101F16400FFF767FB04EB78
:104AF000041000EB40005C4901EB8000C18804EB2E
:104B0000041000EB4000584A02EB8000806F08441C
:104B100001B204EB041000EB400002EB8000C18006
:104B200010BD10B5044604EB041000EB40004E49E4
:104B300001EB8000B0F9040000EE100AB8EEC00AE4
:104B400004EB041000EB400001EB8000D0ED320AD2
:104B500060EE200A04EB041000EB400001EB800043
:104B600090F8C20000EE100AB8EE400A60EE800A2B
:104B700004EB041000EB400001EB8000B0F8C00033
:104B800000EE100AB8EE400A20EE800ADFED3A0A85
:104B900080EE201ABDEEC10A10EE100A04EB0411DB
:104BA00001EB4101304A02EB8101C86004EB0410C3
:104BB00000EB4000114601EB8000C06804EB0411DB
:104BC00001EB410102EB8101C86304EB041000EB2F
:104BD0004000114601EB8000407870B904EB0410EE
:104BE00000EB400001EB8000D0F8A40004EB0411BE
:104BF00001EB410102EB8101C86304EB041000EBFF
:104C00004000194901EB800090F88C00C0B304EB20
:104C1000041000EB400001EB8000C06B002807DDB2
:104C200004EB041000EB400001EB8000C06B08E0D7
:104C300004EB041000EB40000B4901EB8000C06B5B
:104C4000404204EB041101EB4101074A02EB8101F0
:104C5000D1F8A01088422CD904EB041000EB4000DE
:104C6000114601EB80000CE0842600205026002035
:104C7000A42C0020642600200000B443240000205F
:104C800017E0C06B002802DA4FF0FF3000E001208F
:104C900004EB041101EB4101FE4A02EB8101D1F862
:104CA000A010484304EB041101EB410102EB810128
:104CB000C86304EB041000EB4000F64901EB8000F0
:104CC000C16904EB041000EB4000F24A02EB8000E3
:104CD000416504EB041101EB410102EB810101F19B
:104CE0003C00FFF76BFA04EB041000EB4000E949CD
:104CF00001EB8000D0ED130A04EB041000EB400040
:104D000001EB8000006D00EE100AB8EEC00A20EE44
:104D1000800ABDEEC00A10EE100A04EB041101EB8C
:104D20004101DC4A02EB8101486604EB041000EB10
:104D30004000114601EB800090F8940088B304EB2A
:104D4000041000EB400001EB8000406E002807DDFE
:104D500004EB041000EB400001EB8000406E08E023
:104D600004EB041000EB4000CA4901EB8000406EE8
:104D7000404204EB041101EB4101C64A02EB810100
:104D8000B1F8961088421FDD04EB041000EB4000E0
:104D9000114601EB8000406E002803DA4FF0FF302F
:104DA00001E011E0012004EB041101EB4101B94ADB
:104DB00002EB8101B1F89610484304EB041101EBBA
:104DC000410102EB8101486604EB041000EB400056
:104DD000B04901EB8000B0F9181004EB041000EBAF
:104DE0004000AC4A02EB8000C16704EB041101EB08
:104DF000410102EB810101F16400FFF7DFF904EBEF
:104E0000041000EB4000A34901EB8000C18804EBD3
:104E1000041000EB40009F4A02EB8000806F0844C2
:104E200001B204EB041000EB400002EB8000C180F3
:104E300004EB041000EB4000114601EB8000D0F8B9
:104E4000AC00002808DD04EB041000EB400001EB8F
:104E50008000D0F8AC0009E004EB041000EB400047
:104E60008C4901EB8000D0F8AC0040423C280ADAC3
:104E7000012004EB041101EB4101864A02EB8101A0
:104E800081F8340009E0002004EB041101EB41013A
:104E9000804A02EB810181F8340010BD10B5044650
:104EA00004EB041000EB40007A4901EB8000B0F9FC
:104EB0009A0004EB041101EB4101764A02EB8101F7
:104EC000486604EB041000EB4000114601EB800043
:104ED000B0F9181004EB041000EB400002EB800066
:104EE000C16704EB041101EB410102EB810101F107
:104EF0006400FFF763F904EB041000EB4000654920
:104F000001EB8000C18804EB041000EB4000614A13
:104F100002EB8000806F084401B204EB041000EB48
:104F2000400002EB8000C18004EB041000EB400065
:104F3000114601EB8000B0F8A800F0B904EB0410B2
:104F400000EB400001EB8000C06941F288318842EB
:104F500013DD04EB041000EB4000114601EB800070
:104F6000B0F8B000401C81B204EB041000EB40002C
:104F700002EB8000A0F8B01009E0002104EB04105F
:104F800000EB4000434A02EB8000A0F8B01004EBB5
:104F9000041000EB40003F4901EB8000B0F8B00086
:104FA000642829DD002104EB041000EB4000394A9D
:104FB00002EB8000A0F8B01004EB041000EB4000FE
:104FC00002EB8000C161052004EB041101EB4101FB
:104FD00002EB81018870012104EB041000EB40001A
:104FE00002EB800080F83510002004EB041101EB87
:104FF000410102EB8101888010BD10B5002321E141
:1050000003EB031000EB4000224901EB8000018C10
:1050100003EB031000EB40001E4A02EB8000008E01
:10502000081A01B203EB031000EB400002EB800012
:10503000A0F8A81003EB031000EB4000114601EBB1
:105040008000808A03EB031101EB410102EB810137
:10505000888403EB031000EB4000114601EB800055
:10506000C18A03EB031000EB400002EB8000C18417
:1050700003EB031000EB4000114601EB8000018BB5
:1050800003EB031000EB400002EB8000018503EB13
:10509000031001E08426002000EB4000114601EBE4
:1050A0008000C16903EB031000EB400002EB8000BD
:1050B000C16203EB031000EB4000114601EB8000DE
:1050C000018C03EB031000EB400002EB8000018633
:1050D00003EB031000EB4000114601EB8000418C14
:1050E00003EB031000EB400002EB8000418603EB72
:1050F000031000EB4000114601EB8000B0F9A8005E
:10510000002808DD03EB031000EB400001EB8000FA
:10511000B0F9A80009E003EB031000EB4000FE49E2
:1051200001EB8000B0F9A8004042B0F57A6F2CDDA9
:1051300003EB031000EB4000F74901EB8000B0F9EE
:10514000A81003EB031000EB4000F34A02EB8000D1
:10515000B0F9A800002802DA4FF0FF3000E001208B
:1051600003EB031202EB4202EB4C04EB8202B2F8B7
:10517000C02000FB121001B203EB031000EB400053
:10518000224602EB8000A0F8A81003EB031000EB0E
:105190004000E14901EB8000C16903EB031000EB23
:1051A0004000DD4A02EB8000B0F9A800014403EBA7
:1051B000031000EB400002EB8000C16103EB031021
:1051C00000EB4000114601EB8000C16803EB0310C7
:1051D00000EB400002EB8000C069091A03EB0310EA
:1051E00000EB400002EB8000C0F8AC1003EB0310B2
:1051F00000EB4000114601EB8000407870B103EBFA
:10520000031000EB400001EB8000C16903EB0310C9
:1052100000EB400002EB8000C0F8A41003EB031089
:1052200000EB4000BC4901EB800090F8390040B130
:1052300003EB031101EB4101B74A02EB8100FFF7D9
:1052400010FC5B1C082BFFF6DBAE10BD10B5014651
:1052500001EB011000EB4000AF4B13F8200008B940
:10526000012010BDAD48807C002871D001EB0110F9
:1052700000EB4000A84B03EB8000807802287DD132
:1052800001EB011000EB400003EB8000008B0028D5
:1052900074D001EB011000EB400003EB8000C06F05
:1052A000002807DD01EB011000EB400003EB80005C
:1052B000C06F08E001EB011000EB4000964B03EBE0
:1052C0008000C06F4042642802DA501C82B200E0C5
:1052D0000022B2F5967F0ADD012301EB011000EBFD
:1052E00040008D4C04EB800080F8363009E000234C
:1052F00001EB011000EB4000874C04EB800080F8CC
:10530000363001EB011000EB4000834B03EB8000D3
:1053100090F83600012819D101EB011000EB400094
:1053200003EB8000B0F92200C8280FDB4FF4807037
:105330007B4B1883002301EB011000EB4000764CFF
:1053400004EB8000038101208BE701E0002088E767
:1053500001EB011000EB40006F4B03EB8000807805
:1053600005280BD101EB011000EB400003EB80009E
:10537000C36901EB011000EB400000E08BE0664CDC
:1053800004EB8000C06A181A002810DD01EB011040
:1053900000EB4000234603EB8000C36901EB0110E2
:1053A00000EB400004EB8000C06A181A10E001EB2B
:1053B000011000EB4000584B03EB8000C36A01EB87
:1053C000011000EB4000544C04EB8000C069181A37
:1053D0000A2860DA01EB011000EB40004E4B03EBB2
:1053E0008000C06F002807DD01EB011000EB4000DA
:1053F00003EB8000C06F08E001EB011000EB400000
:10540000454B03EB8000C06F4042642802DA501C19
:1054100082B202E00022012023E7B2F5967F0ADD86
:10542000012301EB011000EB40003B4C04EB80003A
:1054300080F8363009E0002301EB011000EB40005A
:10544000354C04EB800080F8363001EB011000EBA6
:105450004000314B03EB800090F83600012818D152
:1054600001EB011000EB400003EB8000B0F92200DB
:10547000C8280EDB4FF48070294B1883002301EB02
:10548000011000EB4000244C04EB8000038101205C
:10549000E7E60020E5E60020E3E610B5044604EB6D
:1054A000041000EB40001C4911F82000012852D1E3
:1054B0001A48C07C78B308F0F7FD1A4951F8241057
:1054C000401AB0F5FA6F06D317480088401C00B2A6
:1054D0001549088002E000201349088004EB0410FD
:1054E00000EB40000C4901EB800090F837000128E8
:1054F00024D10D48B0F900000A281FDD022003F076
:10550000AFF9012003F092FC012104EB041000EB41
:105510004000014A0AE01EE08426002050260020B8
:1055200000000240D40300202000002002EB800095
:1055300080F83710C82003F09AFA0CE0002104EB41
:10554000041000EB4000434A02EB800080F8371063
:10555000002003F06BFC10BD3F48007868B10520C7
:105560003C49887005213B4880F8CE1080F89A119C
:1055700080F866120020384908703748407890B1AA
:1055800036480078334908703448007881F8CC00F8
:105590003248007881F898013048007881F8640238
:1055A00000202D4948702C488078A8B12C480078FC
:1055B000284948702A480178264880F8CD102848A4
:1055C0000178244880F8991125480178214880F80D
:1055D00065120020204988701F480079D0B1214809
:1055E000008881B21B48A0F896101E48008881B23E
:1055F0001848A0F862111B48008881B21548A0F82D
:105600002E121848008881B21248A0F8FA12002021
:10561000114908711048C078D8B113480088404239
:1056200000B20C4988801048008801B20948A0F8EF
:10563000D0100D480088404201B20648A0F89C11E5
:105640000948008801B20348A0F868120020024906
:10565000C870704784260020240000202900002004
:1056600034000020300000202C00002010B54FF442
:105670008050FA490880B7EE000A084680ED010A1A
:105680004FF48050F6490880B7EE000A084680EDD6
:10569000010A4FF48050F3490880B7EE000A08462B
:1056A00080ED010A0020F04908709FEDF00A0846DD
:1056B00080ED010A012008724FF47A7048810120C0
:1056C00008734FF4FA70C881C00008828010E8495E
:1056D00008820020E749087048708870C870087117
:1056E00048718871C871E448DC4A06CAC0E91312DF
:1056F0000020E1494870022008704FF496708880BD
:105700006421DD488160C1800021C1601422D64936
:10571000203008F08BFED848D5490A684263898852
:105720000187D348C188D4484187D14CA168E26839
:10573000236964693C301EC010BD10B586B00446B4
:10574000002001908DF80D008DF80C0008208DF8D8
:105750000E0001208DF80F0000218DF810108DF83B
:1057600011108DF812108DF813108DF814108DF89B
:1057700015108DF8161001A9204604F013F906B093
:1057800010BD70B504460D461646BC484088401C06
:105790001E2190FBF1F201FB1200B84909888842F2
:1057A00003D10120B649C87170BD04F54070B349FA
:1057B0004A88091D01EB021108600821AF484288A0
:1057C000001D00EB021001715521AC484288001DFC
:1057D00000EB021041714D21A8484288001D00EBEA
:1057E000021081710021A5484288001D00EB0210C3
:1057F000C171A2484288001D00EB021001729F484F
:105800004188001D00EB0110457200219B48428831
:10581000001D00EB0210817298484288001D00EBC9
:105820000210C17295484288001D00EB02100173FE
:1058300092484088401C1E2190FBF1F201FB1200AF
:105840008E4948800121601EC0EBC00000EB400083
:10585000894A02EB800080F8471008F025FC611EA1
:10586000C1EBC10101EB4101834A02EB81010864F4
:1058700000BF99E770B504460D4680484088401C3B
:105880001E2190FBF1F201FB12007C49098888423D
:1058900003D101207A49C87170BD04F54070774981
:1058A0004A88091D01EB02110860042173484288EF
:1058B000001D00EB02100171532170484288001D49
:1058C00000EB0210417156216C484288001D00EB2C
:1058D00002108171002169484288001D00EB02100E
:1058E000C17166484288001D00EB021001726348D6
:1058F0004188001D00EB0110457360484088401C42
:105900001E2190FBF1F201FB12005C49488001214D
:10591000601EC0EBC00000EB4000574A02EB800065
:1059200080F8471008F0C0FB611EC1EBC10101EB1C
:105930004101514A02EB8101086400BFACE770B538
:1059400086B005460C46164605F5407001900020CD
:105950008DF80D008DF80C0008208DF80E004D20FC
:105960008DF80F004F218DF8101000218DF81110C7
:105970008DF812108DF813408DF814108DF8151055
:105980008DF8161001A93F4804F00CF806B070BD60
:1059900070B504460D4639484088401C1E2190FBD6
:1059A000F1F201FB120035490988884203D1012038
:1059B0003349C87170BD04F5407030494A88091DEB
:1059C00001EB0211086004212C484288001D00EB05
:1059D00002100171422129484288001D00EB02108B
:1059E0004171472125484288001D00EB021081715A
:1059F000002122484288001D00EB0210C1711F489F
:105A00004288001D00EB021001721C484188001DF5
:105A100000EB0110457319484088401C1E2190FB83
:105A2000F1F201FB1200154948800121601EC0EB14
:105A3000C00000EB4000104A02EB800080F84710E5
:105A400008F032FB611EC1EBC10101EB41010A4AC2
:105A500002EB8101086400BFACE7000038000020C1
:105A60004000002048000020E42C002000003444C6
:105A7000F82C0020B42E0020102D002038590020D2
:105A8000C60300200068004070B504460D46F94882
:105A90004088401C1E2190FBF1F201FB1200F549E9
:105AA0000988884203D10120F349C87170BD04F50B
:105AB0004070F0494A88091D01EB02110860042179
:105AC000EC484288001D00EB021001715321E948A7
:105AD0004288001D00EB021041715421E5484288C4
