:020000040800F2
:10000000A8A200205DB600086D8700086F87000871
:1000100081870008858700088987000800000000A4
:100020000000000000000000000000008D870008B4
:100030008F87000800000000C7D800082BDB0008ED
:1000400077B6000877B6000877B6000877B60008DC
:1000500077B6000877B6000877B6000877B60008CC
:1000600077B6000877B6000877B6000877B60008BC
:1000700077B6000877B600086140000877B6000838
:1000800077B60008B51C000877B6000877B60008F8
:100090001309000877B6000877B6000877B600089D
:1000A00077B6000877B6000877B6000877B600087C
:1000B0003D030008AB05000877B6000877B60008D6
:1000C00077B6000877B6000877B6000877B600085C
:1000D00077B6000877B60008DB1C0008B5400008BA
:1000E00077B6000877B6000877B6000877B600083C
:1000F00077B6000877B6000877B6000877B600082C
:1001000077B6000877B6000877B6000877B600081B
:1001100077B6000877B6000877B6000877B600080B
:1001200077B6000877B6000877B6000877B60008FB
:1001300077B6000877B6000877B6000877B60008EB
:100140008D0F0008A911000877B6000877B60008DF
:1001500077B6000877B60008A51B000877B6000838
:1001600077B6000877B6000877B6000877B60008BB
:1001700077B6000877B6000877B6000877B60008AB
:1001800077B6000877B60008DFF80CD00DF046FF10
:10019000004800471F1A0008A8A2002030BF72B60E
:1001A000704762B6704780F30888704710B5082022
:1001B0000EF0B8FB044600206060204610BD012010
:1001C00044494871704710B504F0DCF8424804F027
:1001D00040F904F0AFFF404805F035F806F02EFB7B
:1001E00007F01EFDFFF7EBFF002019E0002100EBF8
:1001F00080023A4B03EB4202517000EB800203EBAA
:10020000420291714FF47A7100EB800203EB4202DB
:100210005180002100EB800203EB42029180401CE0
:100220000228E3DBFFF7C2FF2D49486010BD002222
:100230000A7803780B700270704770B506460C465A
:10024000354600E06D6815B16868A042FAD14CB13E
:100250006068686020460EF03DFB21480078401E33
:100260001F49087070BD02460B46114605E008881C
:10027000984201D10846704749680029F7D100200B
:10028000F9E72DE9F041074688463C4641462046BD
:10029000FFF7E9FF08B1BDE8F081002602E06468DD
:1002A000701CC6B20E480078B04201DD002CF6D1B9
:1002B0006CB108200EF036FB0546A5F8008060689A
:1002C0006860656006480078401C0549087000BFFA
:1002D000E1E70000CE03002000680040300100206C
:1002E000040000201FB50121084609F044FF95488D
:1002F00002900B20ADF804000020ADF80600ADF828
:100300000C0001A94FF080400AF0EDF801221146DF
:1003100090070AF089FD012188070AF06DF91C2079
:100320008DF8000002208DF801008DF802000120F8
:100330008DF80300684608F000FD1FBD10B50121CF
:1003400088070AF088FD012875D100246FE0C4EB0E
:10035000C40000EB40007C4901EB8000407800289D
:1003600064D00DF069FAC4EBC40101EB4101764A97
:1003700002EB8101096C411AC4EBC40000EB4000A0
:1003800002EB8000B0F8440081421BD9C4EBC400EA
:1003900000EB4000114601EB800090F84700012877
:1003A00010D1C4EBC40000EB400001EB8000808F53
:1003B000401C81B2C4EBC40000EB400002EB8000A3
:1003C000818708E00021C4EBC40000EB40005E4AD6
:1003D00002EB80008187C4EBC40000EB40005A4967
:1003E00001EB8000808FB0F57A7F13DD0121C4EB33
:1003F000C40000EB4000544A02EB8000C1770220A9
:1004000007F0A2FE032008F085F94FF4FA7007F018
:10041000A2FF0BE0002008F07DF90021C4EBC4002E
:1004200000EB4000484A02EB8000C177641C042CBA
:100430008DD3002405E07FE0204607F036FA601CEB
:10044000C4B2082CF8DB002474E004EBC40000EB19
:1004500004103E4901EB80004078002868D00DF080
:10046000EBF904EBC40101EB0411384A02EB810102
:10047000096D411A04EBC40000EB041002EB80008C
:10048000B0F8540081421DD904EBC40000EB041005
:10049000114601EB800090F85700012812D104EBBF
:1004A000C40000EB041001EB8000B0F84C00401CCD
:1004B00081B204EBC40000EB041002EB8000A0F852
:1004C0004C1009E0002104EBC40000EB04101F4AAB
:1004D00002EB8000A0F84C1004EBC40000EB041009
:1004E0001A4901EB8000B0F84C00642813DD0121AB
:1004F00004EBC40000EB0410144A02EB800080F807
:100500002F10022007F020FE042008F003F9C82075
:1005100007F021FF0CE0002008F0FCF8002104EBBC
:10052000C40000EB0410094A02EB800080F82F1091
:10053000601CC4B2042C88DB012188070AF09CFCF3
:1005400010BD00005FAE0A006C2400204C26002085
:100550001FB50121022009F00EFE42F6DF60029075
:100560000720ADF804000020ADF80600ADF80C003F
:1005700001A9424809F0B7FF012211463F480AF09D
:1005800053FC01213D480AF037F81D208DF800008A
:1005900001208DF8010000208DF8020001208DF867
:1005A0000300684608F0C9FB1FBD10B501213348A0
:1005B0000AF051FC01285FD106F027FF002432E049
:1005C00004EB041000EB40002D4911F8200028B383
:1005D00004EB041000EB400001EB80004078F0B128
:1005E00004EB041000EB400001EB80008078012850
:1005F00006D0022805D004280BD005280DD104E030
:100600000CE020B206F03CFC08E020B206F091FCC1
:1006100004E020B206F04AFE00E000BF02E020B293
:1006200006F087FC641C082CCADB03F055FE144C52
:10063000B4F96A32B4F99E21B4F9D210B4F90600C3
:1006400003F0F1FDB4F99A35B4F9CE24B4F90214EB
:10065000B4F9360303F08EFD0A490B4807F031FA6E
:100660000A490B4807F02DFA0A49074807F029FA0A
:10067000012102480AF000FC10BD00000004004007
:100680008C28002034560020006800405054002080
:10069000006400401858002000B58BB001214806C6
:1006A00009F069FD0121084609F032FD09220B21FC
:1006B000FA4809F072FB09220C21F84809F06DFB99
:1006C00002208DF81C004FF4C050069006A9F34894
:1006D00009F0D8FA00208DF826008DF827008DF853
:1006E00028008DF829008DF82A008DF82B008DF850
:1006F00022008DF8230008208DF8240003208DF8B7
:100700002500ADF8200008A9E54808F09AFB002074
:100710008DF8120001208DF8130000208DF81400D0
:1007200046F2A000ADF8080046F2C000ADF80A009D
:1007300046F2E000ADF80C004FF4C240ADF80E00F8
:100740000020ADF8100001208DF8150002A808F077
:1007500002FC03208DF8120001208DF81300002008
:100760008DF814004FF4C840ADF8080046F22000A0
:10077000ADF80A0046F24000ADF80C0046F2600009
:10078000ADF80E000020ADF8100001208DF8150026
:1007900002A808F0E0FB14208DF8040003208DF877
:1007A000050000208DF8060001208DF8070001A843
:1007B00008F0C3FA01220221B94808F0CBFE0BB0C1
:1007C00000BD10B50446B7484088401C1E2190FB70
:1007D000F1F201FB1200B3490988884203D10120DC
:1007E000B149887110BD20688038AE494A88091D1A
:1007F00001EB02110860A17AAA484288001D00EBB3
:1008000002100171A27AA7494B88091D01EB03115F
:10081000481D04F10B010DF0D1F9A2484088401C9D
:100820001E2190FBF1F201FB12009E49488000BF9F
:10083000D8E710B501469B484088401C1E2290FB1B
:10084000F2F302FB1300974A1288904203D1012071
:10085000954A907110BDA1F18002924B5C881B1DDE
:1008600003EB04131A6005238E4A5488121D02EB11
:100870000412137142238B4A5488121D02EB041296
:100880005371884A5488121D02EB04129371472356
:10089000844A5488121D02EB0412D3714A1FD0B24D
:1008A00000EB001202EB4202804B03EB8202B2F932
:1008B000142000EE102AB8EEC00AF3EE0E0A20EE65
:1008C000200A00EB001202EB420203EB8202D2ED9F
:1008D000320A80EE201ABDEEC10A10EE102A12B2C2
:1008E000734B23F810201A4632F810306D4A5488A2
:1008F000121D02EB0412138100BF6A484088401C9D
:100900001E2290FBF2F302FB1300664A508000BFE8
:10091000A0E710B586B00221614808F083FE0028E8
:1009200075D002215E4808F018FF02215C4808F0EB
:1009300056FE01AA00215A4808F0F1FC9DF80C006F
:10094000002864D19DF80D000028FAD140F205314D
:10095000019888420BD0491C0198884207D0491C55
:100960000198884203D00198B0F5427F7DD101986B
:10097000401FC4B29DF80F0043280FD19DF810000E
:1009800057280BD19DF81100482807D19DF8120077
:10099000552803D101A8FFF714FFD0E09DF80F0000
:1009A000432835D19DF81000482831D1BDF81100F9
:1009B0003F4921F81400084630F9140000EE100AEF
:1009C000F8EEC00AB3EE0E1A80EE810A04EB0410B2
:1009D00000EB4000354901EB8000D0ED320A20EEFB
:1009E000200ABDEEC00A10EE100A00B204EB04119A
:1009F00001EB41012D4A02EB81018880012004EBCB
:100A0000041101EB410102EB8101487097E019E10B
:100A10009DF80F00532818D19DF81000502814D1CC
:100A2000BDF81100234921F81400084630F81410CD
:100A300004EB041000EB40001C4A02EB8000A0F81D
:100A4000961001A8FFF7BDFE79E09DF80F004D2834
:100A500032D19DF810004F282ED19DF811000128A9
:100A60002AD1052004EB041100E069E001EB41010B
:100A70000E4A02EB81018870012004EB041101EBA6
:100A8000410102EB8101487004EB041101EB4101CB
:100A900002F8210001A8FFF794FE50E00000024098
:100AA0000064004050540020CE0300208C28002019
:100AB0000C000020140000209DF80F004D2819D1D3
:100AC0009DF810004F2815D19DF8110090B9002015
:100AD00004EB041101EB4101604A02F8210004EB30
:100AE000041101EB410102EB8101487001A8FFF7FD
:100AF00068FE24E09DF80F00532810D19DF81000E7
:100B000054280CD1002004EB041101EB4101534A9D
:100B100002EB8101487001A8FFF753FE0FE09DF83A
:100B20000F0042280BD19DF81000422807D19DF8F4
:100B30001100472803D1019988B2FFF77AFE00BF60
:100B40000198B0F5487F7DD1BDF80F004449088079
:100B5000BDF811004880BDF813008880BDF815006D
:100B6000C8800846B0F9000000EE100AB8EEC00ACE
:100B7000B3EE0E1AC0EE010A384890ED320A20EEAC
:100B8000800ABDEEC00A10EE100A00B23349888018
:100B900001204870052088703148B0F9020000EE4D
:100BA000100AB8EEC00AB3EE0E1AC0EE010A0846EB
:100BB00090ED650A20EE800ABDEEC00A10EE100A24
:100BC00001B22648A0F8D010012180F8CD100521EF
:100BD00080F8CE102248B0F9040000EE100AB8EEFA
:100BE000C00AB3EE0E1AC0EE010A1C4890ED980A36
:100BF00020EE800ABDEEC00A10EE100A01B21748BE
:100C0000A0F89C11012180F89911052180F89A1112
:100C10001348B0F9040000EE100AB8EEC00AB3EEB3
:100C20000E1AC0EE010A0D4890EDCB0A20EE800AA4
:100C3000BDEEC00A10EE100A01B20848A0F8681212
:100C4000012100E007E080F86512052180F86612B6
:100C500001A8FFF7B6FD06B010BD00008C280020EB
:100C60000C0000202DE9F0418AB004460D461646DE
:100C70001F46DDF840800121022009F049FA0121D8
:100C80004FF0C06009F077FAFE4808F0C1F8092279
:100C90000521FD4809F081F809220621FA4809F0EA
:100CA0007CF802208DF824006020089008A9F648FE
:100CB00008F0E8FF40208DF8000002208DF80100C8
:100CC00000208DF8020001208DF80300684608F02E
:100CD00034F841208DF8000002208DF80100012039
:100CE0008DF802008DF80300684608F026F8002011
:100CF0008DF81A008DF81B008DF81C008DF81D0072
:100D00008DF81E008DF81F008DF816808DF81740A5
:100D10008DF818608DF81950ADF8147005A9D948F0
:100D200008F08FF80E208DF80E0001208DF80F00CE
:100D300000208DF8100044F22000ADF8040044F2C9
:100D40004000ADF8060044F26000ADF808004FF432
:100D50008140ADF80A000020ADF80C0001208DF8AC
:100D6000110001A808F0F7F80F208DF80E000120FF
:100D70008DF80F0000208DF8100044F2A000ADF8AF
:100D8000040044F2C000ADF8060044F2E000ADF803
:100D900008004FF48240ADF80A000020ADF80C00C6
:100DA00001208DF8110001A808F0D5F810208DF869
:100DB0000E0001208DF80F0000208DF8100045F284
:100DC0002000ADF8040045F24000ADF8060045F201
:100DD0006000ADF808004FF4A140ADF80A00012012
:100DE000ADF80C008DF8110001A808F0B4F811203E
:100DF0008DF80E0001208DF80F0000208DF81000F6
:100E000045F2A000ADF8040045F2C000ADF80600C0
:100E100045F2E000ADF808004FF4A240ADF80A003A
:100E20000120ADF80C008DF8110001A808F093F82E
:100E300012208DF80E0001208DF80F0000208DF893
:100E400010004FF48150ADF804004FF48250ADF81B
:100E500006004FF48350ADF808004FF48450ADF80D
:100E60000A000120ADF80C008DF8110001A808F06F
:100E700072F813208DF80E0001208DF80F0000206D
:100E80008DF810004FF48550ADF804004FF48650F3
:100E9000ADF806004FF48750ADF808004FF48850C5
:100EA000ADF80A000120ADF80C008DF8110001A882
:100EB00008F051F814208DF80E0000208DF80F0076
:100EC00001208DF810000020ADF804004FF4904090
:100ED000ADF806004FF6FF70ADF808004FF478400B
:100EE000ADF80A000120ADF80C008DF8110001A842
:100EF00008F031F815208DF80E0001208DF80F0054
:100F000000208DF810004BF22000ADF804004BF2E9
:100F10004000ADF806004BF26000ADF808004BF25F
:100F20008000ADF80A000120ADF80C008DF811002A
:100F300001A808F010F816208DF80E0001208DF899
:100F40000F0000208DF810004FF40150ADF80400A0
:100F50004FF40250ADF80600ADF80800ADF80A00F5
:100F60000120ADF80C008DF8110001A807F0F3FF87
:100F700001221021434808F0EDFA012202214148E4
:100F800008F0E8FA00200AB0BDE8F08110B586B09C
:100F900001AA00213B4808F0C2F99DF80C00002886
:100FA0007CD19DF80C00002878D19DF80E0008280F
:100FB00074D10198B0F5007F70D90198B0F5027F27
:100FC0006CD80198401EC4B2304850F82400304913
:100FD00041F824000CF030FC2C4941F824009DF825
:100FE00012109DF8110041EA002001B204EB041038
:100FF00000EB4000274A02EB800001839DF81000BF
:101000009DF80F1040EA012001B204EB041000EB40
:10101000400002EB800001849DF814109DF813003D
:1010200041EA002001B204EB041000EB400002EBA7
:101030008000C1829DF8151004EB041000EB400005
:1010400002EB8000418404EB041000EB40001146E9
:1010500001EB8000C06900EE100AB8EEC00ADFEDB7
:101060000E0A60EE200A04EB041000EB400001EBD6
:10107000800090F8C20000EE100AB8EE401A80EE30
:10108000810A0CE00068004000040240FC030020DC
:10109000DC0300208C2800200000B44324E004EB93
:1010A000041000EB400001EB800090ED321AC0EE1E
:1010B000010A04EB041000EB400001EB8000B0F8E3
:1010C000C00000EE100AB8EE400A80EE801ABDEEB5
:1010D000C10A10EE100A00B204EB041101EB410149
:1010E00002EB8101888200BF0221FE4808F035FB37
:1010F0000221FC4808F073FA06B010BDF0B585B0C7
:1011000007460D46002412200090019000208DF823
:1011100008008DF809008DF80A5000BF05E0395D20
:101120000DF10B000155601C84B2AC42F7DB69463F
:10113000EC4807F0FFFF0646002401E0601C84B283
:101140003146E84808F08EF818B940F6FF7084423E
:10115000F4DB40F6FF70844202DB012005B0F0BDF5
:101160000020FBE74168491C4160002101730169CF
:10117000491E0161818A491C1E2291FBF2F302FB88
:101180001311818270474168491C4160002101733D
:101190000169491E0161818A491C1E2291FBF2F3FB
:1011A00002FB13118182704710B586B01021CD4823
:1011B00008F038FA002874D001AA0121C94808F0C3
:1011C000AEF81021C74808F0C8FA1021C54808F049
:1011D00006FA0198B0F5B06F74D940F285510198C4
:1011E00088426FD89DF80D0000286BD10198A0F2BD
:1011F0008150C4B2002104EBC40000EB0410BA4AD1
:1012000002EB800080F857109DF80F004F2809D19D
:101210009DF81000602805D19DF81100602801D1CB
:10122000012000E000209DF80F10432909D19DF80E
:101230001010622905D19DF81110602901D10121FA
:1012400000E0002108439DF80F10432909D19DF8C3
:101250001010642905D19DF81110602901D10121D8
:1012600000E0002108439DF80F10432909D19DF8A3
:1012700010106B2905D19DF81110602901D10121B1
:1012800000E0002108439DF80F1043290AD19DF882
:1012900010106C2906D19DF81110602902D101218E
:1012A00001E0F2E2002108439DF80F104B290AD11A
:1012B0009DF81010402906D19DF81110602902D127
:1012C000012101E047E1002108439DF80F104B295F
:1012D00009D19DF81010772905D19DF811106029CA
:1012E00001D1012100E00021084330B1C4EB841199
:1012F0007E4A02EBC100FFF746FF9DF80F004B2826
:1013000016D19DF81000402812D19DF811006028D8
:101310000ED19DF81300C01008B1012000E000209C
:1013200004EBC40101EB04116F4A02EB8101487028
:101330009DF80F004F2810D19DF8100060280CD1A7
:101340009DF81100602808D19DF8130004EBC4013A
:1013500001EB0411644A02F821009DF80F004328B4
:1013600049D19DF81000622845D19DF811006028F0
:1013700041D1DDF8131004EBC40000EB04105A4A0D
:1013800002EB8000016104EBC40000EB0410114685
:1013900001EB800090ED180A1FEDC11AC1EE000AA2
:1013A00004EBC40000EB041001EB8000006900EEC8
:1013B000100AB8EEC00A20EE800AB1EE001AC0EEA4
:1013C000010A04EBC40000EB041001EB8000B0F84C
:1013D0005C0000EE100AB8EE400A80EE801ABDEE06
:1013E000C10A10EE100A00B204EBC40101EB0411B3
:1013F00002EB810188809DF80F00432849D19DF8B8
:101400001000642845D19DF81100602841D1DDF815
:10141000131004EBC40000EB0410334A02EB80000D
:10142000416204EBC40000EB0410114601EB8000A4
:1014300090ED180A1FEDE81AC1EE000A04EBC40093
:1014400000EB041001EB8000406A00EE100AB8EED9
:10145000C00A20EE800AB1EE001AC0EE010A04EBC9
:10146000C40000EB041001EB8000B0F85C0000EE5B
:10147000100AB8EE400A80EE801ABDEEC10A10EEE6
:10148000100A00B204EBC40101EB041102EB81016C
:1014900008839DF80F00432811D19DF810006B2898
:1014A0000DD19DF81100602809D1DDF8131004EB6F
:1014B000C40000EB04100C4A02EB8000C1609DF8F0
:1014C0000F00432818D19DF810006C2814D19DF806
:1014D0001100602810D1DDF8131004EBC40000EBFC
:1014E000041005E0006800404C2600209C460020C7
:1014F000F64A02EB800001629DF80F004B2829D1CB
:101500009DF81000772825D19DF81100602821D181
:10151000DDF8131004EBC40000EB0410EB4A02EBFF
:101520008000816204EBC40000EB0410114601EB63
:101530008000806A00EE100AB8EEC00ADFEDE40A0F
:1015400080EE201A04EBC40000EB041001EB8000D5
:1015500080ED071A00BF0198B0F5207F7ED9019871
:10156000B0F5227F7AD89DF80D00002876D1019839
:10157000A0F28120C4B20021C4EBC40000EB400003
:10158000D44A02EB800080F847109DF80F004128F4
:101590000BD19DF81000432807D19DF8120000F0F0
:1015A0004000012801D0012000E000209DF80F102C
:1015B00042290BD19DF81010472907D19DF8121030
:1015C00001F04001012901D0012100E00021084380
:1015D0009DF80F104A290BD19DF81010562907D1FC
:1015E0009DF8121001F04001012901D0012100E015
:1015F000002108439DF80F104D290BD19DF81010C4
:101600004F2907D19DF8121001F04001012901D0A6
:10161000012100E0002108439DF80F1050290BD153
:101620009DF81010522907D19DF8121001F04001C9
:10163000012901D0012100E0002108439DF80F108D
:1016400053290CD19DF81010442908D19DF812108F
:1016500001F04001012902D0012101E0FDE000215B
:1016600008439DF80F1053290BD19DF810105429F1
:1016700007D19DF8121001F04001012901D001218C
:1016800000E0002108439DF80F1054290BD19DF86C
:101690001010432907D19DF8121001F040010129D3
:1016A00001D0012100E0002108439DF80F105529C9
:1016B0000BD19DF810104D2907D19DF8121001F0A3
:1016C0004001012901D0012100E00021084330B18F
:1016D000C4EB8411804A02EBC100FFF743FD9DF883
:1016E0000F004D2825D19DF810004F2821D19DF8DD
:1016F000120000F0400001281BD09DF813000128C3
:101700000ED19DF8130008B1012000E00020C4EBC9
:10171000C40101EB41016F4A02EB8101487008E00E
:101720000020C4EBC40101EB41016A4A02EB8101D4
:1017300048709DF80F0056282FD19DF810005828AA
:101740002BD19DF8120000F04000012825D0DDF8D3
:101750001310C4EBC40000EB40005E4A02EB8000B3
:101760004161C4EBC40000EB4000114601EB800076
:10177000B0F84C003C2190FBF1F1C4EBC40000EB4D
:10178000400002EB8000406990FBF1F1C4EBC40023
:1017900000EB400002EB800041619DF80F005028F3
:1017A00041D19DF8100058283DD19DF8120000F05D
:1017B0004000012837D0DDF81300C4EBC40101EB71
:1017C0004101444A02EB81018861C4EBC40101EB91
:1017D000410102EB810191ED140A9FED401AC1EE27
:1017E000000A00EE100AB8EEC00A60EE800AC4EBF0
:1017F000C40101EB410102EB8101B1F84C1000EE94
:10180000101AB8EE400A80EE801ABDEEC10A10EE42
:10181000101A09B2C4EBC40202EB42022D4B03EBD7
:101820008202118200BF9DF80F00492814D19DF853
:101830001000512810D19DF8120000F0400001283E
:101840000AD0BDF8130001B2C4EBC40000EB4000A5
:10185000204A02EB8000418200BF0198812813D307
:101860000198882810D89DF80D0068B90198813832
:10187000C4B2621C022343EA021242F44071184AC5
:101880005068FEF7FEFC00BF00BF06B010BD30B5CB
:1018900085B005460021134807F0C4FD10B90020AB
:1018A00005B030BD6A4600210F4807F038FD00241E
:1018B00004E00DF10B00005D2855641C9DF80A0042
:1018C000A042F6D89DF80A00EAE700004C26002066
:1018D000000008436C240020CC3A00200000B443F0
:1018E00004000020006400400068004005E006F0AD
:1018F0003BF840F24C400BF0EFFEF8E706E0012029
:1019000006F0C2FB4FF47A700BF0E6FEF7E725E035
:1019100001241DE00121204604F0C4FC01212046E1
:1019200004F043FC0121204604F0BAFB01212046CB
:1019300004F038FB0121204604F0B6FA01212046CC
:1019400004F034FA0121204604F029FD601CC4B2E1
:10195000052CDFDB4FF47A700BF0BEFED8E706E013
:10196000012003F071FB4FF496600BF0B5FEF7E732
:1019700007E006F07AFE06F0E6FD4FF496700BF0F5
:10198000ABFEF6E705E001F0D0F940F6B8300BF019
:10199000A3FEF8E770B50446002500BF022006F05C
:1019A000D3FB002006F0B6FE01F0BFF90CF0D3F82F
:1019B0000BF068FF05460D23344A002134480BF034
:1019C00045FB1E23334A002133480BF03FFB0A231B
:1019D000324A002132480BF039FB0F23314A0021F3
:1019E00031480BF033FB1023304A002130480BF014
:1019F0002DFB09232F4A00212F480BF027FB012044
:101A00002E49087081F8CC0081F8980181F86402B1
:101A100005200BF099FD28460BF038FF70BD08B586
:101A20004FF4FA6006F097FC09F07EFD4FF4A060D9
:101A300007F07EF906F06EFB06F085FD06F04AFE23
:101A400000F0D2F800F040F806F0A8FC06F0ECFD3B
:101A500000200323082219460090FFF703F9FEF740
:101A60001BFE06F023F8FEF73DFCFEF771FDFEF7C6
:101A7000AAFB09F03DFF0523114A002111480BF094
:101A8000E5FA0AF05CF8002008BD00001C100020F8
:101A9000851900081C120020711900081C1A00206A
:101AA0005F1900081C1E00200F1900081C220020CE
:101AB000FD1800081C160020ED1800088C280020D6
:101AC0001C080020951900081CB54048006840F02B
:101AD00010003E4908603D481438006840F480001A
:101AE0003A49143908600120022100230A46CDE951
:101AF00000104FF4C061364806F0B4FF07220921F8
:101B0000334806F08FFF07220A21314806F08AFF8A
:101B100040F2D9202F4908814FF40370888108468C
:101B2000008820F0200008800323252201210620C0
:101B300006F0EAFE4FF48070274B264A121D04215E
:101B40000090264806F024FE01221021234807F0C9
:101B5000C0FF032346220021072006F0D5FE1D48C2
:101B6000808A40F080001B4988820846808940F4C2
:101B7000005088811CBD70B504460D461848807A17
:101B800078B92A46214614480CF018F8294613481B
:101B900007F033FF0121114807F00EFF0120104923
:101BA000887270BD10B50F490C4807F0AFFF0128CF
:101BB0000AD10C49094807F078FF0A49074807F09D
:101BC000CFFF00200649887210BD00004438024053
:101BD00000000240001001404E010020B8640240A5
:101BE000CE030020008000281CB5F448006840F4B3
:101BF0000030F2490860F1481038006840F40010E5
:101C0000EE49103908600120022100230A46CDE97F
:101C100000100C21EA4806F025FF07220221E848BF
:101C200006F000FF07220321E54806F0FBFE4FF413
:101C3000B670E44908800C20091D0880E148083886
:101C4000008820F02000DF4908390880DD48001DA9
:101C5000008840F02000DB49091D0880032326226C
:101C60000121042006F050FE4FF48070D64BD54A77
:101C7000121F04210090D54806F08AFD0122102190
:101C8000D24807F026FF032311220121072006F086
:101C90003BFECC480C30008840F08000C9490C3134
:101CA0000880C848001D008840F40050C549091D3F
:101CB00008801CBD10B5C649C44807F027FF01289D
:101CC0000AD1C349C14807F0F0FEC149BF4807F037
:101CD00047FF0020BF49C87210BD10B52DED028B23
:101CE000002440F22531B748083809F068FB58B1A4
:101CF000B448083809F0A1FA0020B749087020213B
:101D0000B6480BF074FFF8E340F22551AD480838AF
:101D100009F055FB0028F6D02021AA48083809F020
:101D200045FB40F22551A748083809F07FFBA5483C
:101D3000083809F082FAC4B2A748007800F04000E1
:101D400008B3A548007800F0800020BBFF2C06D126
:101D5000A148007840F080009F4908701BE09E4831
:101D6000007800F03F019D4844549B480078401C97
:101D7000994908700846007800F03F0028280ADDDD
:101D80000020087007E0EE2C05D19348007840F061
:101D90004000914908709048007800F080000028C9
:101DA000B1D08F4890F82102012804D18C4890F8D6
:101DB00023028C4908708A4890F82302092872D2BD
:101DC000DFE800F005232425F1FA71F9F8008448D2
:101DD00090F82502082815D1012080F3138800BF50
:101DE00000BFBFF34F8F8048006800F4E0607F4978
:101DF0000843001D7C490860BFF34F8F00BF00BF40
:101E000000BFFDE700BF00BFF0E3FDE7FCE774485B
:101E100090F82502C01E0B2844D2DFE800F006C26D
:101E2000C2454F66C2C2C2727E006C48C01D0CF033
:101E3000ABFBB0EE408AF0EE608A51EC180B0BF071
:101E4000F1FE6B4988606548C01D0CF09DFBB0EE4B
:101E5000408AF0EE608A51EC180B0BF0E3FE01466D
:101E6000634841645D48C01D0CF08EFBB0EE408AB3
:101E7000F0EE608A51EC180B0BF0D4FE01465C4882
:101E8000C0F880105548C01D0CF07EFBB0EE408AB3
:101E9000F0EE608A51EC180B0BF0C4FE014654487A
:101EA000C0F8BC107DE0B5E301205149087081F80D
:101EB0003C0081F8780081F8B40072E002204C49BF
:101EC000887002214A4880F83E1080F87A1080F825
:101ED000B6100120464948700121454880F83D1060
:101EE00080F8791080F8B5105BE0032040498870D5
:101EF00003213F4880F83E1080F87A1080F8B61031
:101F00004FE000203A4948700021394880F83D10E0
:101F100080F8791080F8B51043E03048C01D0CF00F
:101F200033FBB0EE408AF0EE608A51EC180B0BF0F8
:101F3000B1FE00EE100A2E4880ED040A2748C01DAD
:101F40000CF022FBB0EE408AF0EE608A51EC180BE8
:101F50000BF0A0FE00EE100A254880ED130A1F4882
:101F6000C01D0CF011FBB0EE408AF0EE608A51EC1F
:101F7000180B0BF08FFE00EE100A1D4880ED220AB0
:101F80001648C01D0CF000FBB0EE408AF0EE608AEF
:101F900051EC180B0BF07EFE00EE100A144880ED99
:101FA000310A00BF00BF0E4890F82502C01E1A2853
:101FB0007BD21FE0F9E32EE39AE1000040380240B3
:101FC00000000240084400406E020020A060024071
:101FD00000802020CE030020230000206E0300207C
:101FE0004E010020220000200CED00E00000FA0568
:101FF000085A0020DFE800F00D1B2939495A697999
:102000008999A8B8C859D8F3F1F0EFEEEDECEBEAF6
:10201000E9E8002008E0002100EB001202EB420298
:10202000F54B03F82210401C0828F4DB5EE1F3486E
:102030000CF0AAFAB0EE408AF0EE608A51EC180B70
:102040000BF00FFEEC49887050E1EC480CF09CFA64
:10205000B0EE408AF0EE608A51EC180B0BF001FEF6
:10206000C1B2E54880F8CE1040E1E4480CF08CFAAB
:10207000B0EE408AF0EE608A51EC180B0BF0F1FDE7
:10208000C1B2DD4880F89A1130E1DC480CF07CFAEE
:10209000B0EE408AF0EE608A51EC180B0BF0E1FDD7
:1020A000C1B2D54880F8661220E11EE1D3480CF099
:1020B0006BFAB0EE408AF0EE608A51EC180B0BF030
:1020C000B1FD01B2CC48018110E1CC480CF05CFAC2
:1020D000B0EE408AF0EE608A51EC180B0BF0A2FDD6
:1020E00001B2C548A0F8D41000E1C4480CF04CFA85
:1020F000B0EE408AF0EE608A51EC180B0BF092FDC6
:1021000001B2BD48A0F8A011F0E0BC480CF03CFAC8
:10211000B0EE408AF0EE608A51EC180B0BF082FDB5
:1021200001B2B548A0F86C12E0E0B4480CF02CFA0B
:10213000B0EE408AF0EE608A51EC180B0BF072FDA5
:1021400000B2AD498880D1E0AC480CF01DFAB0EE89
:10215000408AF0EE608A51EC180B0BF063FD01B27F
:10216000A548A0F8D010C1E0A4480CF00DFAB0EEDC
:10217000408AF0EE608A51EC180B0BF053FD01B26F
:102180009D48A0F89C11B1E09C480CF0FDF9B0EE20
:10219000408AF0EE608A51EC180B0BF043FD01B25F
:1021A0009548A0F86812A1E094480CF0EDF9B0EE63
:1021B000408AF0EE608A51EC180B0BF052FD81B2B0
:1021C0008D48A0F8961091E084E078E06CE061E042
:1021D00055E049E03DE032E021E010E0FFE78748CC
:1021E0000CF0D2F9B0EE408AF0EE608A51EC180B98
:1021F0000BF037FD81B28048A0F8621176E07F488D
:102200000CF0C2F9B0EE408AF0EE608A51EC180B87
:102210000BF027FD81B27848A0F82E1266E07748CF
:102220000CF0B2F9B0EE408AF0EE608A51EC180B77
:102230000BF017FD81B27048A0F8FA1256E0704812
:1022400090F8280208B1012000E000206A490870D7
:102250004CE06B4890F8280208B1012000E0002013
:10226000654981F8CC0041E0654890F8280208B142
:10227000012000E00020604981F8980136E06048C4
:1022800090F8280208B1012000E000205A4981F8A6
:1022900064022BE05A4890F8280208B1012000E0BF
:1022A00000205549487021E0554890F8280208B1AF
:1022B000012100E00021504880F8CD1016E0504880
:1022C00090F8280208B1012100E000214A4880F876
:1022D00099110BE04A4890F8280208B1012100E06A
:1022E0000021454880F8651200E000BF00BF8BE583
:1022F000434890F82502C01E1A287CD2DFE800F07F
:102300000D1B2B3B4B5B6B8292A2B2C2D27BE2FED7
:10231000FBFAF9F8F7F6F5F4F3F2002008E00021F3
:1023200000EB001202EB4202334B03F82210401C78
:102330000828F4DB6CE131480CF026F9B0EE408A55
:10234000F0EE608A51EC180B0BF08BFCC1B22A48FE
:1023500080F832135CE129480CF016F9B0EE408A9F
:10236000F0EE608A51EC180B0BF07BFCC1B22248F6
:1023700080F8FE134CE121480CF006F9B0EE408ADB
:10238000F0EE608A51EC180B0BF06BFCC1B21A48EE
:1023900080F8CA143CE119480CF0F6F8B0EE408A17
:1023A000F0EE608A51EC180B0BF05BFCC1B21248E6
:1023B00080F896152CE111480CF0E6F8B0EE408A52
:1023C000F0EE608A51EC180B0BF02CFC01B20A48BD
:1023D000A0F838131CE109480CF0D6F8B0EE408A9A
:1023E000F0EE608A51EC180B0BF01CFC01B20248B5
:1023F000A0F804140CE10AE18C28002075030020E9
:102400004E010020FD480CF0BFF8B0EE408AF0EE1F
:10241000608A51EC180B0BF005FC01B2F848A0F8EB
:10242000D014F5E0F5480CF0AFF8B0EE408AF0EECD
:10243000608A51EC180B0BF0F5FB01B2F048A0F8E4
:102440009C15E5E0ED480CF09FF8B0EE408AF0EE08
:10245000608A51EC180B0BF0E5FB01B2E848A0F8DC
:102460003413D5E0E5480CF08FF8B0EE408AF0EE7A
:10247000608A51EC180B0BF0D5FB01B2E048A0F8D4
:102480000014C5E0DD480CF07FF8B0EE408AF0EEB5
:10249000608A51EC180B0BF0C5FB01B2D848A0F8CC
:1024A000CC14B5E0D5480CF06FF8B0EE408AF0EEF1
:1024B000608A51EC180B0BF0B5FB01B2D048A0F8C4
:1024C0009815A5E0CD480CF05FF8B0EE408AF0EE2C
:1024D000608A51EC180B0BF0C4FB81B2C848A0F81D
:1024E000C61395E088E07BE06FE063E057E04BE0E7
:1024F0003FE033E022E011E000E0FDE3BF480CF0F4
:1025000043F8B0EE408AF0EE608A51EC180B0BF005
:10251000A8FB81B2BA48A0F8921479E0B7480CF051
:1025200033F8B0EE408AF0EE608A51EC180B0BF0F5
:1025300098FB81B2B248A0F85E1569E0AF480CF094
:1025400023F8B0EE408AF0EE608A51EC180B0BF0E5
:1025500088FB81B2AA48A0F82A1659E0A94890F849
:10256000280208B1012000E00020A54981F83003CD
:102570004EE0A44890F8280208B1012000E00020B5
:102580009F4981F8FC0343E09E4890F8280208B177
:10259000012000E000209A4981F8C80438E09948F9
:1025A00090F8280208B1012000E00020944981F849
:1025B00094052DE0934890F8280208B1012100E02D
:1025C00000218F4880F8311322E08E4890F82802CD
:1025D00008B1012100E00021894880F8FD1317E0CF
:1025E000884890F8280210B1012101E07FE3002122
:1025F000834880F8C9140BE0824890F8280208B19B
:10260000012100E000217E4880F8951500E000BF20
:1026100000BF6CE300BF7B4890F82502C01E0B286A
:1026200017D2DFE800F006171628394A5F749AC3FC
:10263000F8000121084603F0DDF80121022003F033
:10264000D9F80121032003F0D5F80121042003F07B
:10265000D1F8F1E00121084602F024FF0121022017
:1026600002F020FF0121032002F01CFF01210420C1
:1026700002F018FFE0E00121084602F093FE01217C
:10268000022002F08FFE0121032002F08BFE0121C7
:10269000042002F087FECFE00121084602F0FEFF91
:1026A0000121022002F0FAFF0121032002F0F6FFCF
:1026B0000121042002F0F2FFBEE0012203211046B6
:1026C00002F0F2FD01220321022002F0EDFD0122C1
:1026D0000321084602F0E8FD01220321042002F054
:1026E000E3FDA9E001221146104602F0DDFD0122C2
:1026F0001146022002F0D8FD01221146032002F00B
:10270000D3FD01221146042002F0CEFD94E03B48A7
:102710000BF03AFFB0EE408AF0EE608A51EC180BF5
:102720000BF080FA3849086001220846016810461B
:1027300003F058FA012234480168022003F052FAEB
:10274000012231480168032003F04CFA01222E488F
:102750000168042003F046FA6EE028480BF014FFED
:10276000B0EE408AF0EE608A51EC180B0BF05AFA8A
:1027700026490860012208460168104603F0A0FAC5
:102780000122224800684142022003F099FA012206
:102790001E4800684142032003F092FA01221B48C0
:1027A0000168042003F08CFA46E047E013480BF080
:1027B000EBFEB0EE408AF0EE608A51EC180B0BF0A5
:1027C00031FA13490860012208460168104603F0F7
:1027D0008FF801220E4800684142022003F088F879
:1027E00001220B4800684142032003F081F80122D6
:1027F00007480168042003F07BF81DE07503002002
:102800008C2800204E010020640000206000002081
:102810005C000020FFE70121084603F062F9012176
:10282000022003F05EF90121032003F05AF901218F
:10283000042003F056F900BF00BF00BFF84890F82D
:1028400025021A2821D2DFE800F0200D21374D6340
:1028500093C5EFEEEDECEBEAE9E8E7E6E5E4E3E269
:10286000E1E0DFDEEF480BF08FFEB0EE408AF0EEE5
:10287000608A51EC180B0BF0F4F9EB49087008462C
:1028800001780122104601F008FE2FE2E5480BF026
:102890007BFEB0EE408AF0EE608A51EC180B0BF034
:1028A000E0F9E14981F85400084690F854100122FB
:1028B000022001F0F2FD19E2DA480BF065FEB0EEFD
:1028C000408AF0EE608A51EC180B0BF0CAF9D64939
:1028D00081F8A800084690F8A8100122032001F012
:1028E000DCFD03E2CF480BF04FFEB0EE408AF0EE85
:1028F000608A51EC180B0BF0B4F9CB4981F8FC005D
:10290000084690F8FC100122042001F0C6FDEDE11C
:10291000C5480078022813D1C2480BF035FEB0EE4E
:10292000408AF0EE608A51EC180B0BF07BF9BF493E
:102930000860012208460168104602F001F916E01D
:10294000B9480078052812D1B6480BF01DFEB0EE4C
:10295000408AF0EE608A51EC180B0BF063F9B44931
:102960000860012208460168104601F07EFFBDE1C3
:10297000AD4890F85400022813D1AA480BF004FE89
:10298000B0EE408AF0EE608A51EC180B0BF04AF979
:10299000A6490860012208460168022002F0D0F82A
:1029A00017E0A14890F85400052812D19D480BF07B
:1029B000EBFDB0EE408AF0EE608A51EC180B0BF0A4
:1029C00031F99B490860012208460168022001F0A4
:1029D0004CFF8BE1944890F8A800022825D191483B
:1029E0000BF0D2FDB0EE408AF0EE608A51EC180B8D
:1029F0000BF018F98D490860012208460168032090
:102A000002F09EF829E060E155E159E149E1F7E083
:102A10004CE135E123E111E1DEE0C9E0B4E09FE003
:102A20008AE075E060E04BE018E07F4890F8A8008D
:102A3000052812D17B480BF0A7FDB0EE408AF0EEDE
:102A4000608A51EC180B0BF0EDF87949086001220F
:102A500008460168032001F008FF47E1724890F83A
:102A6000FC00022813D16F480BF08EFDB0EE408AB7
:102A7000F0EE608A51EC180B0BF0D4F86B4908604B
:102A8000012208460168042002F05AF817E066485F
:102A900090F8FC00052812D162480BF075FDB0EEED
:102AA000408AF0EE608A51EC180B0BF0BBF86049DD
:102AB0000860012208460168042001F0D6FE15E1F5
:102AC00058480BF061FDB0EE408AF0EE608A51ECA0
:102AD000180B0BF0A7F85749086001220846016857
:102AE000104601F041FF01E14E480BF04DFDB0EE04
:102AF000408AF0EE608A51EC180B0BF093F84D49C8
:102B00000860012208460168022001F02DFFEDE077
:102B100044480BF039FDB0EE408AF0EE608A51EC8B
:102B2000180B0BF07FF84349086001220846016842
:102B3000032001F019FFD9E03A480BF025FDB0EE73
:102B4000408AF0EE608A51EC180B0BF06BF83949B3
:102B50000860012208460168042001F005FFC5E075
:102B600030480BF011FDB0EE408AF0EE608A51EC77
:102B7000180B0BF057F8304908600122084601682D
:102B8000104601F070FFB1E026480BF0FDFCB0EEFE
:102B9000408AF0EE608A51EC180B0BF043F826499E
:102BA0000860012208460168022001F05CFF9DE0F8
:102BB0001C480BF0E9FCB0EE408AF0EE608A51EC64
:102BC000180B0BF02FF81C49086001220846016819
:102BD000032001F048FF89E012480BF0D5FCB0EE6D
:102BE000408AF0EE608A51EC180B0BF01BF812498A
:102BF0000860012208460168042001F034FF75E0F6
:102C0000074890F8280208B1012000E0002006499A
:102C10004870084641780122104601F01CFD65E02D
:102C20004E010020750300206C240020500000207D
:102C3000440000204C00002054000020FE4890F882
:102C4000280208B1012100E00021FC4880F855105D
:102C500090F855100122022001F0FDFC46E0F648F4
:102C600090F8280208B1012100E00021F34880F823
:102C7000A91090F8A9100122032001F0ECFC35E026
:102C8000ED4890F8280208B1012100E00021EB484E
:102C900080F8FD1090F8FD100122042001F0DBFC0B
:102CA00024E00121084601F0FFFC1FE00121022081
:102CB00001F0FAFC1AE00121032001F0F5FC15E017
:102CC0000121042001F0F0FC10E00121084601F090
:102CD00067FD0121022001F063FD0121032001F0C5
:102CE0005FFD0121042001F05BFD00BF00BF00BFBC
:102CF0000020D349087000E003E02021D1480AF009
:102D000076FFBDEC028B10BD10B50446CE48C07AEC
:102D100050B92146CD4806F070FE0121CB4806F09F
:102D20004BFE0120C849C87210BD10B50024EE2228
:102D30002146641CC6484254B1222146641C4254B8
:102D400010222146641C425400222146641C425435
:102D50002146641C42542146641C425405222146EB
:102D6000641C425401222046611CCCB2B8490A546A
:102D7000FF222046611CCCB2B5490A54FC222046F1
:102D8000611CCCB2B2490A54FF222046611CCCB26D
:102D9000AF490A542046611CCCB2AD490A54AD4833
:102DA0000078062881F0B480DFE810F0B208060051
:102DB000080009000A005E0401F0ABB8FCE7FBE77D
:102DC000EE222046611CCCB2A1490A54B122204611
:102DD000611CCCB29E490A5412222046611CCCB21E
:102DE0009B490A5400222046611CCCB298490A54DF
:102DF00004222046611CCCB295490A54964880783A
:102E000000287CD000222046611CCCB290490A5494
:102E100004222046611CCCB28D490A54002220466F
:102E2000611CCCB28A490A548B4882788BA18C48A9
:102E30000BF094FB8A480AF0E5FEC2B22046611C02
:102E4000CCB283490A54081985490AF0E2FE844845
:102E50000AF0D8FE2044C4B200222046611CCCB245
:102E60007B490A5408222046611CCCB278490A5496
:102E700000222046611CCCB275490A547648B0F94C
:102E8000182076A176480BF069FB75480AF0BAFE67
:102E9000C2B22046611CCCB26D490A54081970496F
:102EA0000AF0B7FE6E480AF0ADFE2044C4B200221C
:102EB0002046611CCCB266490A540C222046611C93
:102EC000CCB263490A5400222046611CCCB260494E
:102ED0000A546148B0F9142060A161480BF03EFB30
:102EE0005F480AF08FFEC2B22046611CCCB258493E
:102EF0000A5408195A490AF08CFE594800E06CE05F
:102F00000AF080FE2044C4B200222046611CCCB2EC
:102F10004F490A5411222046611CCCB24C490A5434
:102F200000222046611CCCB249490A544A48B0F8F4
:102F300096204AA14A480BF011FB49480AF062FE6C
:102F4000C2B22046611CCCB241490A540819444916
:102F50000AF05FFE42480AF055FE2044C4B2002247
:102F60002046611CCCB23A490A5415222046611C05
:102F7000CCB237490A5400222046611CCCB23449F5
:102F80000A5401222046611CCCB231490A5432480D
:102F900002782046611CCCB22D490A5400222046FA
:102FA000611CCCB22A490A5419222046611CCCB2B9
:102FB00027490A5400222046611CCCB224490A54F5
:102FC00001222046611CCCB221490A542248427891
:102FD0002046611CCCB21E490A541F4890F8CE000E
:102FE00000287DD000222046611CCCB218490A542A
:102FF00005222046611CCCB215490A540022204605
:10300000611CCCB212490A54134890F8CE2013A187
:1030100013480BF0A3FA12480AF0F4FDC2B220469E
:10302000611CCCB20A490A5408190D490AF0F1FD95
:103030000B480AF0E7FD15E04E0100206C2400204B
:10304000230000206E030020CE030020A060024079
:103050006E020020220000208C2800202564000041
:10306000202400202044C4B200222046611CCCB29F
:10307000FE490A5409222046611CCCB2FB490A547D
:1030800000222046611CCCB2F8490A54F848B0F935
:10309000E420AFF23801F7480BF060FAF5480AF087
:1030A000B1FDC2B22046611CCCB2F0490A540819E5
:1030B000F0490AF0AEFDEF480AF0A4FD2044C4B286
:1030C00000222046611CCCB2E8490A540D22204659
:1030D000611CCCB2E5490A5400222046611C00E084
:1030E00088E0CCB2E1490A54E148B0F9E020AFF2FF
:1030F0009401E0480BF032FADE480AF083FDC2B2D8
:103100002046611CCCB2D9490A540819D9490AF0A1
:1031100080FDD8480AF076FD2044C4B20022204643
:10312000611CCCB2D1490A5412222046611CCCB297
:10313000CE490A5400222046611CCCB2CB490A5425
:10314000CB48B0F86221AFF2EC01CA480BF006FAA6
:10315000C8480AF057FDC2B22046611CCCB2C34930
:103160000A540819C3490AF054FDC2480AF04AFD3E
:103170002044C4B200222046611CCCB2BB490A5490
:1031800016222046611CCCB2B8490A5400222046BF
:10319000611CCCB2B5490A5401222046611CCCB254
:1031A000B2490A54B24890F8CC202046611CCCB2F7
:1031B000AE490A5400222046611CCCB2AB490A54E5
:1031C0001A222046611CCCB2A8490A54002220468B
:1031D000611CCCB2A5490A5401222046611CCCB224
:1031E000A2490A54A24890F8CD202046611CCCB2D6
:1031F0009E490A549E4890F89A0100287DD00022EA
:103200002046611CCCB299490A5406222046611C12
:10321000CCB296490A5400222046611CCCB2934994
:103220000A54934890F89A21AFF2D01191480BF0CC
:1032300095F990480AF0E6FCC2B22046611CCCB277
:103240008A490A5408198B490AF0E3FC89480AF0B4
:10325000D9FC2044C4B200222046611CCCB2834970
:103260000A540A222046611CCCB280490A5400222A
:103270002046611CCCB27D490A547D48B0F9B0218A
:10328000AFF228217B480BF069F97A480AF0BAFCC2
:10329000C2B22046611CCCB274490A54081975495F
:1032A0000AF0B7FC73480AF0ADFC2044C4B2002217
:1032B0002046611CCCB26D490A540E222046611C86
:1032C000CCB26A490A5400222046611CCCB267493C
:1032D0000A546748B0F9AC21AFF2802165480BF081
:1032E0003DF964480AF08EFCC2B22046611CCCB2A3
:1032F0005E490A5408195F4900E072E00AF089FC4F
:103300005C480AF07FFC2044C4B200222046611CC5
:10331000CCB256490A5413222046611CCCB2534900
:103320000A5400222046611CCCB250490A5450482D
:10333000B0F82E22AFF2DC214E480BF00FF94D48C9
:103340000AF060FCC2B22046611CCCB247490A5464
:10335000081948490AF05DFC46480AF053FC20442D
:10336000C4B200222046611CCCB240490A54172244
:103370002046611CCCB23D490A5400222046611C03
:10338000CCB23A490A5401222046611CCCB23749DA
:103390000A54374890F898212046611CCCB2334932
:1033A0000A5400222046611CCCB230490A541B2228
:1033B0002046611CCCB22D490A5400222046611CD3
:1033C000CCB22A490A5401222046611CCCB22749BA
:1033D0000A54274890F899212046611CCCB2234911
:1033E0000A54234890F8660200287DD00022204627
:1033F000611CCCB21D490A5407222046611CCCB284
:103400001A490A5400222046611CCCB217490A54BA
:10341000174890F86622AFF2BC3116480BF09EF8C0
:1034200014480AF0EFFBC2B22046611CCCB20F492F
:103430000A5408190F490AF0ECFB0E480AF0E2FBA7
:103440002044C4B200222046611CCCB207490A5471
:103450000B222046611CCCB204490A5400222046AB
:10346000611CCCB201490A54014805E06E020020FB
:103470008C28002020240020B0F97C22AFF22441C7
:10348000FE480BF06BF8FD480AF0BCFBC2B22046C8
:10349000611CCCB2FA490A540819F8490AF0B9FB80
:1034A000F6480AF0AFFB2044C4B200222046611C5B
:1034B000CCB2F3490A540F222046611CCCB2F04929
:1034C0000A5400222046611CCCB2ED490A54ED4852
:1034D000B0F97822AFF27C41E8480BF03FF8E748BA
:1034E0000AF090FBC2B200E079E02046611CCCB249
:1034F000E3490A540819E1490AF08BFBDF480AF056
:1035000081FB2044C4B200222046611CCCB2DC49BD
:103510000A5414222046611CCCB2D9490A54002214
:103520002046611CCCB2D6490A54D648B0F8FA22DB
:10353000AFF2D841D1480BF011F8D0480AF062FB45
:10354000C2B22046611CCCB2CD490A540819CB49FD
:103550000AF05FFBC9480AF055FB2044C4B20022C0
:103560002046611CCCB2C6490A5418222046611C70
:10357000CCB2C3490A5400222046611CCCB2C049D7
:103580000A5401222046611CCCB2BD490A54BD48F0
:1035900090F864222046611CCCB2B9490A5400223A
:1035A0002046611CCCB2B6490A541C222046611C3C
:1035B000CCB2B3490A5400222046611CCCB2B049B7
:1035C0000A5401222046611CCCB2AD490A54AD48D0
:1035D00090F865222046611CCCB2A9490A54002209
:1035E0002046611CCCB2A6490A5410222046611C18
:1035F000CCB2A3490A5400222046611CCCB2A04997
:103600000A54A148406840680288A0A19B480AF07B
:10361000A5FF9A480AF0F6FAC2B22146601CC4B26D
:10362000974842540146081994490AF0F2FA93481F
:103630000AF0E8FA2044C4B2FF222046611CCCB252
:103640008F490A54FC222046611CCCB28C490A5492
:10365000FF222046611CCCB289490A542046611CD5
:10366000CCB287490A54FDE3EE222046611CCCB25D
:1036700083490A54B1222046611CCCB280490A54C5
:1036800012222046611CCCB27D490A5400222046F9
:10369000611CCCB27A490A5405222046611CCCB286
:1036A00077490A54774890F8320300287DD00022E9
:1036B0002046611CCCB272490A5404222046611C87
:1036C000CCB26F490A5400222046611CCCB26C492E
:1036D0000A546C4890F83223AFF2806167480AF0D0
:1036E0003DFF66480AF08EFAC2B22046611CCCB299
:1036F00063490A54081961490AF08BFA5F480AF0D5
:1037000081FA2044C4B200222046611CCCB25C493C
:103710000A5408222046611CCCB259490A5400229E
:103720002046611CCCB256490A545648B0F9482389
:10373000AFF2D86151480AF011FF50480AF062FA1E
:10374000C2B22046611CCCB24D490A5408194B49FB
:103750000AF05FFA49480AF055FA2044C4B2002240
:103760002046611CCCB246490A540C222046611CFA
:10377000CCB243490A5400222046611CCCB24049D5
:103780000A544048B0F94423AFF230713B480AF084
:10379000E5FE3A480AF036FAC2B22046611CCCB2C5
:1037A00037490A540819354900E07DE00AF031FA3A
:1037B00032480AF027FA2044C4B200222046611C95
:1037C000CCB22F490A5411222146601CC4B22C48A5
:1037D000425400222046611CCCB229490A5429488F
:1037E000B0F8C623AFF28C7124480AF0B7FE234824
:1037F0000AF008FAC2B22046611CCCB220490A5431
:1038000008191E490AF005FA1C480AF0FBF9204481
:10381000C4B200222046611CCCB219490A541522B8
:103820002046611CCCB216490A5400222046611C75
:10383000CCB213490A5401222046611CCCB2104973
:103840000A54104890F830232046611CCCB20C4931
:103850000A5400222046611CCCB209490A5419229C
:103860002046611CCCB206490A5400222046611C45
:10387000CCB203490A540122204609E0202400204A
:103880006E0200208C280020040000202578000013
:10389000611CCCB2FE490A54FE4890F83123204600
:1038A000611CCCB2FA490A54FA4890F8FE03002889
:1038B0007DD000222046611CCCB2F5490A54052275
:1038C0002046611CCCB2F2490A5400222046611CF9
:1038D000CCB2EF490A54EF4890F8FE23AFF68401CA
:1038E000ED480AF03BFEEC480AF08CF9C2B22046E3
:1038F000611CCCB2E6490A540819E7490AF089F973
:10390000E5480AF07FF92044C4B200222146601C39
:10391000C4B2DF48425409222046611CCCB2DC49C3
:103920000A5400222046611CCCB2D9490A54D94815
:10393000B0F91424AFF6DC01D7480AF00FFED648E0
:103940000AF060F9C2B22046611CCCB2D0490A54D8
:103950000819D1490AF05DF9CF480AF053F920441B
:10396000C4B200222046611CCCB2C9490A540D22BF
:103970002046611CCCB2C6490A5400222046611C74
:10398000CCB2C3490A54C348B0F91024AFF634117D
:10399000C1480AF0E3FDC0480AF034F9C2B220463B
:1039A000611CCCB2BA490A540819BB4900E072E064
:1039B0000AF02FF9B8480AF025F92044C4B20022D1
:1039C0002046611CCCB2B2490A5412222046611C26
:1039D000CCB2AF490A5400222146601CC4B2AC48A4
:1039E0004254AC48B0F89224AFF69011AA480AF0BD
:1039F000B5FDA9480AF006F9C2B22046611CCCB256
:103A0000A3490A540819A4490AF003F9A2480AF084
:103A1000F9F82044C4B200222046611CCCB29C4973
:103A20000A5416222046611CCCB299490A5400223D
:103A30002046611CCCB296490A5401222046611CE2
:103A4000CCB293490A54934890F8FC232046611C59
:103A5000CCB28F490A5400222046611CCCB28C495A
:103A60000A541A222046611CCCB289490A54002209
:103A70002046611CCCB286490A5401222046611CB2
:103A8000CCB283490A54834890F8FD232046611C38
:103A9000CCB27F490A547F4890F8CA0400287DD0F0
:103AA00000222046611CCCB279490A5406222046E5
:103AB000611CCCB276490A5400222046611CCCB26B
:103AC00073490A54734890F8CA24AFF670217248BB
:103AD0000AF044FD70480AF095F8C2B22046611C15
:103AE000CCB26B490A5408196B490AF092F86A483B
:103AF0000AF088F82044C4B200222046611CCCB2EF
:103B000063490A540A222046611CCCB260490A5417
:103B100000222046611CCCB25D490A545D48B0F9D0
:103B2000E024AFF6C8215C480AF018FD5A480AF0B4
:103B300069F8C2B22046611CCCB255490A54081932
:103B400055490AF066F854480AF05CF82044C4B2BB
:103B500000222146601CC4B24D4842540E22204629
:103B6000611CCCB24A490A5400222046611CCCB2E6
:103B700047490A544748B0F9DC24AFF6203146489B
:103B80000AF0ECFC44480AF03DF8C2B22046611C41
:103B9000CCB23F490A5408193F4900E072E00AF0EC
:103BA00038F83D480AF02EF82044C4B200222046DE
:103BB000611CCCB236490A5413222046611CCCB297
:103BC00033490A5400222046611CCCB230490A54C1
:103BD0003048B0F85E25AFF67C312F480AF0BEFCC5
:103BE0002D480AF00FF8C2B22046611CCCB2284919
:103BF0000A54081928490AF00CF827480AF002F874
:103C00002044C4B200222046611CCCB220490A5490
:103C100017222046611CCCB21D490A5400222046BE
:103C2000611CCCB21A490A5401222046611CCCB254
:103C300017490A54174890F8C8242046611CCCB292
:103C400013490A5400222046611CCCB210490A5480
:103C50001B222146601CC4B20D484254002221465A
:103C6000601CC4B20A48425401222046611CCCB2F6
:103C700007490A54074890F8C9242046611CCCB271
:103C800003490A54034890F8960500287ED005E0C1
:103C90006E0200208C2800202024002000222046D4
:103CA000611CCCB29D490A5407222046611CCCB24B
:103CB0009A490A5400222046611CCCB297490A5402
:103CC000974890F89625AFF66C4196480AF046FC66
:103CD000944809F097FFC2B22146601CC4B28F48D5
:103CE0004254014608198F4909F093FF8D4809F0A5
:103CF00089FF2044C4B200222146601CC4B2874818
:103D000042540B222046611CCCB284490A54002242
:103D10002046611CCCB281490A548148B0F9AC25D7
:103D2000AFF6C8417F480AF019FC7E4809F06AFFE7
:103D3000C2B22046611CCCB278490A5408197949AC
:103D400009F067FF774809F05DFF2044C4B2002204
:103D50002046611CCCB271490A540F222146601CD6
:103D6000C4B26E48425400222046611CCCB26B495A
:103D70000A546B48B0F9A825AFF6205169480AF0FB
:103D8000EDFB684809F03EFFC2B200E07BE0204650
:103D9000611CCCB261490A540819624909F039FF23
:103DA000604809F02FFF2044C4B200222046611C65
:103DB000CCB25A490A5414222146601CC4B2574856
:103DC000425400222046611CCCB254490A54544843
:103DD000B0F82A26AFF67C5152480AF0BFFB514892
:103DE00009F010FFC2B22046611CCCB24B490A5404
:103DF00008194C4909F00DFF4A4809F003FF204417
:103E0000C4B200222046611CCCB244490A54182294
:103E10002046611CCCB241490A5400222046611C54
:103E2000CCB23E490A5401222046611CCCB23B4927
:103E30000A543B4890F894252146601CC4B2374888
:103E4000425400222046611CCCB234490A541C2240
:103E50002046611CCCB231490A5400222146601C24
:103E6000C4B200E055E02D48425401222046611CB6
:103E7000CCB22A490A542A4890F895252146601C5C
:103E8000C4B22648425400222146601CC4B22348D2
:103E9000425410222146601CC4B2204842540022E1
:103EA0002146601CC4B21D4842541F484068406807
:103EB0000288AFF228611B480AF050FB194809F04C
:103EC000A1FEC2B22046611CCCB214490A540819A2
:103ED000144909F09EFE134809F094FE2044C4B230
:103EE000FF222146601CC4B20C484254FC222046EA
:103EF000611CCCB209490A54FF222146601CC4B29D
:103F0000064842542046611CCCB204490A5400E0E1
:103F100000BF00BF2046FEF7F7FE10BD6E02002076
:103F20008C280020202400200400002000B597B039
:103F30000121042006F0ECF80121880406F01BF9A9
:103F40000121480506F0E4F807220A21634805F03C
:103F500024FF07220B21614805F01FFF4FF440604A
:103F6000119002208DF8480000208DF84A000320AF
:103F70008DF8490000208DF84B0011A9574805F035
:103F800081FE4FF4E13013900020ADF85000ADF801
:103F90005200ADF85400ADF858000C20ADF85600B2
:103FA00013A94F4807F092F8012240F225514C48DE
:103FB00007F0CAF927208DF8400002208DF8410053
:103FC00003208DF8420001208DF8430010A804F072
:103FD000B4FE444805F014FC4FF00060019000204E
:103FE000059040200490404803903D48001D0290F9
:103FF0000015079000200690099008900A904FF451
:1040000040300B9000200C9001200D9000200F906C
:104010000E9001A9334805F095FC3449314805F06C
:1040200044FD32492F4805F09BFD0E208DF84000DD
:1040300002208DF8410004208DF8420001208DF807
:10404000430010A804F079FE01221021254805F054
:1040500040FD01228021224807F06DF917B000BD14
:1040600010B522491F4805F051FD01280AD11F490A
:104070001C4805F01AFD1D491A4805F071FD002085
:104080001B49087310BD70B504460D461848007BE7
:1040900078B92A462146144809F090FD294611486E
:1040A00005F0ABFC01210F4805F086FC012010490A
:1040B000087370BD10B540F22551094807F07FF92B
:1040C00050B12021064807F071F940F2255104480B
:1040D00007F0ACF904F06AF810BD000000080240D7
:1040E00000480040586002408E0300200080001805
:1040F000CE030020002282610160C26100230362BE
:10410000436280ED031A80ED010AC0ED020AC0EDA2
:10411000041A704701688269891AC161C269016A1B
:10412000511A00EE101AB8EEC00AD0ED010A20EEC6
:10413000200A90ED021AC16900EE901AF8EEE00A2A
:1041400001EE200AC269416A0A44016AA2EB4101F8
:1041500000EE901AF8EEE00A90ED031A01EE200A44
:10416000BDEEC00A10EE101A4161026A4262C269D5
:10417000026270472DE9F04186B004460D461646AE
:104180001F464FF0000800208DF80C008DF80D0040
:1041900008208DF80E0040F2FF18CDF804800420AE
:1041A00003F05CFA28B9200A8DF80F008DF8104052
:1041B00005E000208DF80F0000218DF8101005207B
:1041C00003F04CFA28B9290A8DF811108DF8125015
:1041D00004E000218DF811108DF81210062003F074
:1041E0003DFA28B9310A8DF813108DF8146004E0F7
:1041F00000218DF813108DF81410072003F02EFA0B
:1042000028B9390A8DF815108DF8167004E00021D0
:104210008DF815108DF8161001A9584804F08AFF82
:1042200006B0BDE8F0812DE9F04186B004460D46A8
:1042300016461F464FF0000800208DF80C008DF840
:104240000D0008208DF80E004FF40078CDF80480A2
:10425000002003F003FA28B9200A8DF80F008DF82A
:10426000104005E000208DF80F0000218DF810109F
:10427000012003F0F3F928B9290A8DF811108DF8FF
:10428000125004E000218DF811108DF81210022058
:1042900003F0E4F928B9310A8DF813108DF8146091
:1042A00004E000218DF813108DF81410032003F0A2
:1042B000D5F928B9390A8DF815108DF8167004E073
:1042C00000218DF815108DF8161001A92B4804F067
:1042D00031FF06B0BDE8F08100204BE000EB00119B
:1042E00001EB4101264A02EB8101B1F906100029D8
:1042F00008DD00EB001101EB410102EB8101B1F996
:10430000061009E000EB001101EB41011C4A02EB31
:104310008101B1F90610494200EB001202EB4202A2
:10432000174B03EB8202B2F8C420914220DD00EB70
:10433000001101EB41011A4602EB8101B1F90610AF
:10434000002902DA4FF0FF3100E0012100EB0012FA
:1043500002EB42020A4B03EB8202B2F8C420514343
:104360000AB200EB001101EB410103EB8101CA80AD
:10437000411CC8B20828B1DB70470000006800404B
:104380008C28002010B54FF48050FA490880B7EE11
:10439000000A084680ED010A4FF48050F649088073
:1043A000B7EE000A084680ED010A4FF48050F34949
:1043B0000880B7EE000A084680ED010A0020F049A7
:1043C00008709FEDF00A084680ED010A012008728E
:1043D0004FF47A704881012008734FF4FA70C88155
:1043E000C00008828010E84908820020E749087070
:1043F00048708870C870087148718871C871E44845
:10440000DC4A06CAC0E913120020E14948700220C4
:1044100008704FF4967088806421DD488160C18007
:104420000021C1601422D649203009F0C7FBD848CA
:10443000D5490A68426389880187D348C188D4482E
:104440004187D14CA168E268236964693C301EC091
:1044500010BD10B586B00446002001908DF80D0007
:104460008DF80C0008208DF80E0001208DF80F004B
:1044700000218DF810108DF811108DF812108DF8A4
:1044800013108DF814108DF815108DF8161001A961
:10449000204604F04FFE06B010BD70B504460D4630
:1044A0001646BC484088401C1E2190FBF1F201FBDF
:1044B0001200B8490988884203D10120B649C87161
:1044C00070BD04F54070B3494A88091D01EB021123
:1044D00008600821AF484288001D00EB02100171FE
:1044E0005521AC484288001D00EB021041714D215E
:1044F000A8484288001D00EB021081710021A548E8
:104500004288001D00EB0210C171A2484288001DC4
:1045100000EB021001729F484188001D00EB011062
:10452000457200219B484288001D00EB02108172F9
:1045300098484288001D00EB0210C17295484288DD
:10454000001D00EB0210017392484088401C1E21A0
:1045500090FBF1F201FB12008E4948800121601EA0
:10456000C0EBC00000EB4000894A02EB800080F8FD
:10457000471009F061F9611EC1EBC10101EB410176
:10458000834A02EB8101086400BF99E770B50446D5
:104590000D4680484088401C1E2190FBF1F201FB33
:1045A00012007C490988884203D101207A49C871E8
:1045B00070BD04F5407077494A88091D01EB02116E
:1045C0000860042173484288001D00EB021001714D
:1045D000532170484288001D00EB021041715621A2
:1045E0006C484288001D00EB02108171002169486F
:1045F0004288001D00EB0210C17166484288001D10
:1046000000EB0210017263484188001D00EB0110AD
:10461000457360484088401C1E2190FBF1F201FB6D
:1046200012005C4948800121601EC0EBC00000EB15
:104630004000574A02EB800080F8471009F0FCF870
:10464000611EC1EBC10101EB4101514A02EB810145
:10465000086400BFACE770B586B005460C46164648
:1046600005F54070019000208DF80D008DF80C00CC
:1046700008208DF80E004D208DF80F004F218DF889
:10468000101000218DF811108DF812108DF81340C4
:104690008DF814108DF815108DF8161001A93F48EB
:1046A00004F048FD06B070BD70B504460D463948AB
:1046B0004088401C1E2190FBF1F201FB120035499D
:1046C0000988884203D101203349C87170BD04F5BF
:1046D000407030494A88091D01EB0211086004212D
:1046E0002C484288001D00EB02100171422129482C
:1046F0004288001D00EB0210417147212548428885
:10470000001D00EB02108171002122484288001D2B
:1047100000EB0210C1711F484288001D00EB02101F
:1047200001721C484188001D00EB011045731948B7
:104730004088401C1E2190FBF1F201FB120015493C
:1047400048800121601EC0EBC00000EB4000104A11
:1047500002EB800080F8471009F06EF8611EC1EB93
:10476000C10101EB41010A4A02EB8101086400BF6B
:10477000ACE70000240000202C00002034000020C2
:104780004024002000003444542400203C00002039
:104790006C24002034560020CE0300200068004026
:1047A00070B504460D46F9484088401C1E2190FB18
:1047B000F1F201FB1200F5490988884203D101207A
:1047C000F349C87170BD04F54070F0494A88091D6D
:1047D00001EB021108600421EC484288001D00EB47
:1047E000021001715321E9484288001D00EB0210BC
:1047F00041715421E5484288001D00EB021081718F
:104800000021E2484288001D00EB0210C171DF4820
:104810004288001D00EB02100172DC484188001D37
:1048200000EB01104573D9484088401C1E2190FBC5
:10483000F1F201FB1200D54948800121601EC0EB56
:10484000C00000EB4000D34A02EB800080F8471024
:1048500008F0F2FF611EC1EBC10101EB4101CD4A3D
:1048600002EB8101086400BFACE72DE9F04104468A
:104870000D461646601EC0EBC00000EB4000C54967
:1048800001EB8000B0F84C0080003C2190FBF1F07F
:1048900000FB05F7BD484088401C1E2190FBF1F24B
:1048A00001FB1200B9490988884204D10120B849A6
:1048B000C871BDE8F08104F54070B4494A88091D0B
:1048C00001EB021108600821B0484288001D00EB8E
:1048D000021001715321AD484288001D00EB021007
:1048E00041715021A9484288001D00EB02108171DE
:1048F0000021A6484288001D00EB0210C171A348A8
:104900004288001D00EB02100172A0484188001D82
:1049100000EB0110C0F809709C484188001D00EBB5
:104920000110467399484088401C1E2190FBF1F20B
:1049300001FB1200954948800121601EC0EBC000B8
:1049400000EB4000934A02EB800080F8471008F02B
:1049500073FF611EC1EBC10101EB41018D4A02EB06
:104960008101086400BFA4E72DE9F04104460D462B
:104970001646601EC0EBC00000EB4000854901EB0D
:104980008000B0F84C0080003C2190FBF1F000FB6F
:1049900005F77E484088401C1E2190FBF1F201FB88
:1049A00012007A490988884204D101207849C871E7
:1049B000BDE8F08104F5407074494A88091D01EB97
:1049C00002110860082171484288001D00EB0210A6
:1049D000017150216D484288001D00EB02104171A9
:1049E00041216A484288001D00EB021081710021BC
:1049F00066484288001D00EB0210C171634842887E
:104A0000001D00EB0210017260484188001D00EBA0
:104A10000110C0F809705D484188001D00EB0110CD
:104A200046735A484088401C1E2190FBF1F201FB5E
:104A30001200564948800121601EC0EBC00000EB07
:104A40004000544A02EB800080F8471008F0F4FE62
:104A5000611EC1EBC10101EB41014E4A02EB810134
:104A6000086400BFA4E770B504460D4616464748E3
:104A70004088401C1E2190FBF1F201FB12004349CB
:104A80000988884203D101204149C87170BD04F5ED
:104A900040703E494A88091D01EB02110860082157
:104AA0003A484288001D00EB02100171502137483E
:104AB0004288001D00EB02104171582133484288A2
:104AC000001D00EB02108171002130484288001D5A
:104AD00000EB0210C1712D484288001D00EB02104E
:104AE00001722A484188001D00EB0110C0F80950EE
:104AF00026484188001D00EB01104673234840887A
:104B0000401C1E2190FBF1F201FB12001F4948805E
:104B10000121601EC0EBC00000EB40001D4A02EB0B
:104B2000800080F8471008F087FE611EC1EBC101CC
:104B300001EB4101174A02EB8101086400BFA5E7C0
:104B40002DE9F04104460D461646601EC0EBC0003C
:104B500000EB40000F4901EB8000B0F84C008000F2
:104B60003C2190FBF1F000FB05F708484088401C11
:104B70001E2190FBF1F201FB1200044909888842D2
:104B80000AD101200249C871BDE8F08134560020E5
:104B9000CE0300206C24002004F54070FE494A88B2
:104BA000091D01EB021108600821FB484288001D25
:104BB00000EB021001714A21F7484288001D00EB0A
:104BC000021041715621F4484288001D00EB02108A
:104BD00081710021F0484288001D00EB0210C17174
:104BE000ED484288001D00EB02100172EA4841883E
:104BF000001D00EB0110C0F80970E7484188001D56
:104C000000EB01104673E4484088401C1E2190FBD5
:104C1000F1F201FB1200E04948800121601EC0EB67
:104C2000C00000EB4000DD4A02EB800080F8471036
:104C300008F002FE611EC1EBC10101EB4101D74A40
:104C400002EB8101086400BF9EE770B504460D4683
:104C5000D1484088401C1E2190FBF1F201FB12005C
:104C6000CD490988884203D10120CD49C87170BD62
:104C700004F54070C8494A88091D01EB021108601B
:104C80000421C5484288001D00EB021001714A2131
:104C9000C1484288001D00EB021041715621BE48F8
:104CA0004288001D00EB021081710021BA48428841
:104CB000001D00EB0210C171B7484288001D00EBD7
:104CC00002100172B4484188001D00EB01104573C9
:104CD000B1484088401C1E2190FBF1F201FB1200FC
:104CE000AD4948800121601EC0EBC00000EB4000D0
:104CF000AA4A02EB800080F8471008F09DFD611E73
:104D0000C1EBC10101EB4101A44A02EB810108643E
:104D100000BFACE770B504460D469F484088401C74
:104D20001E2190FBF1F201FB12009B490988884289
:104D300003D101209A49C87170BD04F540709649AD
:104D40004A88091D01EB021108600421924842883B
:104D5000001D00EB0210017150218F484288001D98
:104D600000EB0210417141218B484288001D00EB8D
:104D700002108171002188484288001D00EB02105A
:104D8000C17185484288001D00EB02100172824803
:104D90004188001D00EB011045737F484088401C8E
:104DA0001E2190FBF1F201FB12007B49488001219A
:104DB000601EC0EBC00000EB4000784A02EB8000B0
:104DC00080F8471008F038FD611EC1EBC10101EB0E
:104DD0004101724A02EB8101086400BFACE770B583
:104DE00004460D466C484088401C1E2190FBF1F2A1
:104DF00001FB120068490988884203D101206849F3
:104E0000C87170BD04F5407063494A88091D01EB03
:104E100002110860042160484288001D00EB021066
:104E2000017150215C484288001D00EB0210417165
:104E3000582159484288001D00EB02108171002161
:104E400055484288001D00EB0210C171524842884B
:104E5000001D00EB021001724F484188001D00EB5D
:104E6000011045734C484088401C1E2190FBF1F214
:104E700001FB1200484948800121601EC0EBC000C0
:104E800000EB4000454A02EB800080F8471008F034
:104E9000D3FC611EC1EBC10101EB41013F4A02EBB2
:104EA0008101086400BFACE770B504460D463A487E
:104EB0004088401C1E2190FBF1F201FB1200364994
:104EC0000988884203D101203549C87170BD04F5B5
:104ED000407031494A88091D01EB02110860042124
:104EE0002D484288001D00EB0210017153212A4811
:104EF0004288001D00EB0210417150212648428873
:104F0000001D00EB02108171002123484288001D22
:104F100000EB0210C17120484288001D00EB021016
:104F200001721D484188001D00EB011045731A48AD
:104F30004088401C1E2190FBF1F201FB1200164933
:104F400048800121601EC0EBC00000EB4000134A06
:104F500002EB800080F8471008F06EFC611EC1EB88
:104F6000C10101EB41010D4A02EB8101086400BF60
:104F7000ACE770B504460D4607484088401C1E212A
:104F800090FBF1F201FB120003490988884209D124
:104F900001200349C87170BD345600206C240020E4
:104FA000CE03002004F540705A494A88091D01EBE0
:104FB00002110860042157484288001D00EB0210CE
:104FC0000171552153484288001D00EB02104171C8
:104FD0004D2150484288001D00EB021081710021D4
:104FE0004C484288001D00EB0210C17149484288BC
:104FF000001D00EB0210017246484188001D00EBC5
:105000000110457343484088401C1E2190FBF1F27B
:1050100001FB12003F4948800121601EC0EBC00027
:1050200000EB40003C4A02EB800080F8471008F09B
:1050300003FC611EC1EBC10101EB4101364A02EBE9
:105040008101086400BFA6E710B5044633484079E3
:1050500040B10122324801782046FFF71EFA0020B5
:105060002E494871322003F076F92C48407850B12F
:1050700001222C4801782046FFF7EDFA002029494B
:105080000870264948702548007830B10121204633
:10509000FFF70AFB002021490870322003F05BF97A
:1050A0001E48807940B101221F4801682046FFF761
:1050B00047FD0020194988711848807840B10122C5
:1050C0001A4801682046FFF74FFC002013498870FA
:1050D0001248C07840B10122154801682046FFF708
:1050E000C4FB00200D49C8700C48C07930B10121C3
:1050F0002046FFF755FB00200849C8710748007992
:1051000030B101212046FFF741FA00200349087120
:1051100010BD0000345600206C2400203C0000200C
:105120004800002049000020500000204C000020D2
:10513000440000204FF48050FE490880B7EE000A7A
:10514000084680ED010A0020FB4908709FEDFB0A2C
:10515000084680ED010A012008724FF4FA70488178
:1051600001200873C820C8814FF47A60088240107B
:10517000F3490882F349EF4A05CAC1E91702002042
:105180004870032008704FF4967088806421ED48C1
:10519000C1609FEDED0A80ED020A002101616430DB
:1051A000E44A06CAC0E917120021643880F8651085
:1051B0000320E44981F864004FF49671E148A0F8B7
:1051C0006810642101679FEDE00A80ED1B0A002151
:1051D0004167C830D74A06CAC0E917120021C8384B
:1051E00080F8C9100320D74981F8C8004FF49671A0
:1051F000D448A0F8CC106421C0F8D4109FEDD20A96
:1052000080ED340A0021C0F8D81000F59670C94A24
:1052100006CAC0E917120021CA4880F82D110320E0
:10522000C84981F82C014FF49671C648A0F8301196
:105230006421C0F838119FEDC40A80ED4D0A0021A9
:10524000C0F83C11704710B586B004460020BF4935
:105250008870C87008718871C87108728872487245
:10526000487148700870C87201908DF80D008DF873
:105270000C0008208DF80E0001208DF80F00002191
:105280008DF810108DF811108DF812108DF8131084
:105290008DF814108DF815108DF8161001A9204600
:1052A00003F048FF06B010BD70B504460D46164623
:1052B000A7484088401C1E2190FBF1F201FB120020
:1052C000A3490988884203D10120A249C87170BD51
:1052D00004F5C0609E494A88091D01EB021108606F
:1052E00008219B484288001D00EB02100171222119
:1052F00097484288001D00EB0210417160219448DC
:105300004288001D00EB0210817191484288001D07
:1053100000EB0210C17100218D484288001D00EB96
:10532000021001728A484288001D00EB021045728B
:1053300087484288001D00EB021081728448428831
:10534000001D00EB0210C17281484288001D00EB75
:10535000021001737E484188001D00EB0110467366
:105360007B484088401C1E2190FBF1F201FB12009B
:10537000774948800121601E00EBC00202EB00105B
:10538000704A02EB800080F8571008F055FA611E51
:1053900001EBC10202EB01116A4A02EB81010865CF
:1053A00000BF94E770B504460D4669484088401C2C
:1053B0001E2190FBF1F201FB120065490988884229
:1053C00003D101206349C87170BD04F5C060604914
:1053D0004A88091D01EB0211086008215C484288D7
:1053E000001D00EB02100171222159484288001D66
:1053F00000EB02104171402155484288001D00EB2E
:1054000002108171602152484288001D00EB021099
:10541000C17100214E484288001D00EB021001724C
:105420000F214B484288001D00EB02104172002101
:1054300047484288001D00EB0210817244484288B0
:10544000001D00EB0210C17241484288001D00EBB4
:10545000021001733E484188001D00EB01104573A6
:105460003B484088401C1E2190FBF1F201FB1200DA
:10547000374948800121601E00EBC00202EB00109A
:10548000304A02EB800080F8571008F0D5F9611E11
:1054900001EBC10202EB01112A4A02EB810108650E
:1054A00000BF91E770B504460D4629484088401C6E
:1054B0001E2190FBF1F201FB120025490988884268
:1054C00003D101202349C87170BD04F5C060204993
:1054D0004A88091D01EB0211086008211C48428816
:1054E000001D00EB02100171222119484288001DA5
:1054F00000EB02104171402115484288001D00EB6D
:1055000002108171602112484288001D00EB0210D8
:10551000C17100210E484288001D00EB021001728B
:1055200006210B484288001D00EB02104172002149
:10553000074811E06C0000202026002000003444C1
:10554000342600204C2600200000C84210260020EF
:1055500034560020CE0300204288001D00EB0210CC
:105560008172FE484288001D00EB0210C172FB48A8
:105570004288001D00EB02100173F8484188001DAD
:1055800000EB01104573F5484088401C1E2190FB3C
:10559000F1F201FB1200F149488008464088401CA6
:1055A0001E2190FBF1F201FB1200EC4909888842B0
:1055B00003D10120EA49C87186E704F5C060E749D4
:1055C0004A88091D01EB021108600821E34842885E
:1055D000001D00EB021001712221E0484288001DED
:1055E00000EB021041714021DC484288001D00EBB5
:1055F000021081716021D9484288001D00EB021021
:10560000C1710021D5484288001D00EB02100172D3
:105610000721D2484288001D00EB02104172002190
:10562000CE484288001D00EB02108172CB484288B0
:10563000001D00EB0210C172C8484288001D00EB3B
:1056400002100173C5484188001D00EB011045732D
:10565000C2484088401C1E2190FBF1F201FB120061
:10566000BE49488029462046FFF79CFE0121601E66
:1056700000EBC00202EB0010BA4A02EB800080F897
:10568000571008F0D9F8611E01EBC10202EB0111BD
:10569000B44A02EB8101086500BF15E770B5044606
:1056A0000D46AE484088401C1E2190FBF1F201FBE4
:1056B0001200AA490988884203D10120A849C8716B
:1056C00070BD04F5C060A5494A88091D01EB0211AF
:1056D00008600821A1484288001D00EB02100171FA
:1056E00022219E484288001D00EB0210417140219A
:1056F0009A484288001D00EB021081716021974892
:105700004288001D00EB0210C1719748007808B371
:10571000002192484288001D00EB021001723F21D7
:105720008E484288001D00EB0210417200218B4818
:105730004288001D00EB0210817288484288001DDB
:1057400000EB0210C17285484288001D00EB021078
:10575000017323E08548007800B300217F48428828
:10576000001D00EB021001727F217C484288001D61
:1057700000EB02104172002178484288001D00EBC6
:105780000210817275484288001D00EB0210C17240
:1057900072484288001D00EB021001736F48418877
:1057A000001D00EB011045736C484088401C1E2111
:1057B00090FBF1F201FB120068494880294620461F
:1057C000FFF7F0FD0121601E00EBC00202EB0010AC
:1057D000644A02EB800080F8571008F02DF8611E33
:1057E00001EBC10202EB01115E4A02EB8101086587
:1057F00000BF65E770B504460D4658484088401C18
:105800001E2190FBF1F201FB1200544909888842E5
:1058100003D101205249C87170BD04F5C0604F49E1
:105820004A88091D01EB0211086008214B48428893
:10583000001D00EB02100171222148484288001D22
:1058400000EB02104171402144484288001D00EBEA
:1058500002108171602141484288001D00EB021056
:10586000C17100213D484288001D00EB0210017209
:105870003A484288001D00EB0210417237484288C6
:10588000001D00EB0210817234484288001D00EBBD
:105890000210C17231484288001D00EB02100173F2
:1058A0002E484188001D00EB011045732B484088AD
:1058B000401C1E2190FBF1F201FB12002749488099
:1058C0000121601E00EBC00202EB0010254A02EB32
:1058D000800080F8571007F0AFFF611E01EBC10296
:1058E00002EB01111F4A02EB8101086500BF93E73B
:1058F00070B504460D46164618484088401C1E21C7
:1059000090FBF1F201FB120014490988884203D18F
:1059100001201349C87170BD04F5C0600F494A8861
:10592000091D01EB0211086008210C484288001D86
:1059300000EB02100171222108484288001D00EB93
:1059400002104171FF2105484288001D00EB021042
:105950008171602101484288001D09E03456002011
:10596000CE0300204C2600205800002059000020C3
:1059700000EB0210C1710021FE484288001D00EBBF
:1059800002100172FB484188001D00EB0110C0F8B5
:105990000950F8484188001D00EB01104673F54896
:1059A0004088401C1E2190FBF1F201FB1200F149DE
:1059B00048800121601E00EBC00202EB0010EE4A9D
:1059C00002EB800080F8571007F036FF611E01EBF4
:1059D000C10202EB0111E84A02EB8101086500BF38
:1059E00099E770B504460D46E2484088401C1E21E8
:1059F00090FBF1F201FB1200DE490988884203D1D5
:105A00000120DE49C87170BD04F5C060D9494A88DB
:105A1000091D01EB021108600821D6484288001DCB
:105A200000EB021001712221D2484288001D00EBD8
:105A3000021041714021CF484288001D00EB021046
:105A400081716021CB484288001D00EB0210C171BA
:105A50000021C8484288001D00EB0210017220217D
:105A6000C4484288001D00EB021041720021C14869
:105A70004288001D00EB02108172BE484288001D62
:105A800000EB0210C172BB484288001D00EB0210FF
:105A90000173B8484188001D00EB01104573B548FB
:105AA0004088401C1E2190FBF1F201FB1200B1491D
:105AB00048800121601E00EBC00202EB0010AE4ADC
:105AC00002EB800080F8571007F0B6FE611E01EB74
:105AD000C10202EB0111A84A02EB8101086500BF77
