:020000040800F2
:1000000048B300209DD90008ADAA0008AFAA000897
:10001000C1AA0008C5AA0008C9AA0008000000007B
:10002000000000000000000000000000CDAA000851
:10003000CFAA00080000000007FC00086BFE0008C3
:10004000B7D90008B7D90008B7D90008B7D9000850
:10005000B7D90008B7D90008B7D90008B7D9000840
:10006000B7D90008B7D90008B7D90008B7D9000830
:10007000B7D90008B7D90008BD540008B7D900089F
:10008000B7D900080B250008B7D90008B7D9000870
:10009000890B0008B7D90008B7D90008B7D90008FC
:1000A000B7D90008B7D90008B7D90008B7D90008F0
:1000B0003D030008FF060008B7D90008B7D90008BB
:1000C000B7D90008B7D90008B7D90008B7D90008D0
:1000D000B7D90008B7D90008312500081155000824
:1000E000B7D90008B7D90008B7D90008B7D90008B0
:1000F000B7D90008B7D90008B7D90008B7D90008A0
:10010000B7D90008B7D90008B7D90008B7D900088F
:10011000B7D90008B7D90008B7D90008B7D900087F
:10012000B7D90008B7D90008B7D90008B7D900086F
:10013000B7D90008B7D90008B7D90008B7D900085F
:100140008913000867150008B7D90008B7D9000857
:10015000B7D90008B7D9000891230008B7D900081B
:10016000B7D90008B7D90008B7D90008B7D900082F
:10017000B7D90008B7D90008B7D90008B7D900081F
:10018000B7D90008B7D90008DFF80CD010F0E6F8AE
:1001900000480047F321000848B3002030BF72B682
:1001A000704762B6704780F30888704710B5082022
:1001B00010F058FD044600206060204610BD01206C
:1001C00044494871704710B506F0BEFC424806F03D
:1001D00075FD08F0FDFA404808F091FB05F026FB9C
:1001E00008F01EF8FFF7EBFF002019E0002100EBFC
:1001F00080023A4B03EB4202517000EB800203EBAA
:10020000420291714FF47A7100EB800203EB4202DB
:100210005180002100EB800203EB42029180401CE0
:100220000228E3DBFFF7C2FF2D49486010BD002222
:100230000A7803780B700270704770B506460C465A
:10024000354600E06D6815B16868A042FAD14CB13E
:1002500060686860204610F0DDFC21480078401E90
:100260001F49087070BD02460B46114605E008881C
:10027000984201D10846704749680029F7D100200B
:10028000F9E72DE9F041074688463C4641462046BD
:10029000FFF7E9FF08B1BDE8F081002602E06468DD
:1002A000701CC6B20E480078B04201DD002CF6D1B9
:1002B0006CB1082010F0D6FC0546A5F800806068F7
:1002C0006860656006480078401C0549087000BFFA
:1002D000E1E70000D2030020006800403401002064
:1002E000040000201FB5012108460CF0E4F8E348A3
:1002F00002900520ADF804000020ADF80600ADF82E
:100300000C0001A94FF080400CF08DFA012211463B
:1003100090070CF029FF012188070CF00DFB1C2031
:100320008DF8000003208DF8010001208DF80200F7
:100330008DF8030068460AF0A0FE1FBD70B50121CC
:1003400088070CF028FF01287ED1012180070CF0DE
:1003500033FF002476E0C4EB0410C94901EB8000B0
:1003600090F83200012823D1C4EB041011F82000CA
:10037000F0B10FF001FCC4EB0411C14A02EB8101A2
:10038000C96A411AC4EB041002EB8000008E81425E
:100390000ED9C4EB0410114601EB800090F8280040
:1003A000401CC4EB041102EB810181F8280007E036
:1003B0000020C4EB0411B24A02EB810181F828004D
:1003C000C4EB0410AE4901EB800090F8280014281B
:1003D0001BDD0121C4EB0410A94A02EB800080F868
:1003E000251002200AF048F8621C032343EA021297
:1003F00042F48071A34A5068FFF743FF02200AF0DD
:1004000029FBC8200AF03FF91AE000200AF022FB7D
:100410000021C4EB04109A4A02EB800080F82510FA
:10042000621C032343EA021242F48071954A506829
:10043000FFF719FF0546934948682946FFF7FDFE77
:10044000601CC4B2042C00E017E184DB00246EE0E1
:1004500004EB440000EBC4008B4901EBC000807842
:10046000002863D00FF088FB04EB440101EBC401CA
:10047000854A02EBC101096C411A04EB440000EB10
:10048000C40002EBC000B0F8440081421BD904EB69
:10049000440000EBC400114601EBC00090F8470097
:1004A000012810D104EB440000EBC40001EBC000B4
:1004B000808F401C81B204EB440000EBC40002EBCF
:1004C000C000818708E0002104EB440000EBC40079
:1004D0006D4A02EBC000818704EB440000EBC400CE
:1004E000694901EBC000808FB0F5FA7F12DD012170
:1004F00004EB440000EBC400634A02EBC000C17788
:10050000022009F0B9FF03200AF0A4FA64200AF0DF
:10051000BAF80BE000200AF09DFA002104EB440039
:1005200000EBC400584A02EBC000C177641C042CE5
:100530008ED3002404E0204606F0D4F9601CC4B237
:10054000082CF8DB514890F8430000BB4F4890F866
:100550001B01E0B94D4890F8F301C0B94B4890F841
:10056000CB02A0B9494890F8A30380B9474890F856
:100570007B0460B9454890F8530540B9434890F86A
:100580002B0620B942A244A1444810F087F9002468
:1005900071E004EBC40000EB0410414901EB800062
:1005A000407890B30FF0E8FA04EBC40101EB0411BA
:1005B0003B4A02EB8101096D411A04EBC40000EBD8
:1005C000041002EB8000B0F8540081421ED904EB05
:1005D000C40000EB0410114601EB800090F85700B6
:1005E000012813D104EBC40000EB041001EB8000E0
:1005F000B0F84C00401C81B204EBC40000EB0410C6
:1006000002EB8000A0F84C100AE032E0002104EB7D
:10061000C40000EB0410224A02EB8000A0F84C104A
:1006200004EBC40000EB04101D4901EB8000B0F89E
:100630004C00642810DD012104EBC40000EB041021
:10064000174A02EB800080F82F10022009F014FFF7
:1006500004200AF0FFF90CE000200AF0FBF9002169
:1006600004EBC40000EB04100D4A02EB800080F89C
:100670002F10601CC4B2042C8BDB70BD5FAE0A006F
:100680009C31002004000020C82F0020D828002022
:10069000282A5F202A29000025730000310000204D
:1006A000C83200201FB5012102200BF004FF42F6E2
:1006B000DF6002900720ADF804000020ADF80600CE
:1006C000ADF80C0001A97D480CF0ADF801221146EF
:1006D0007A480CF049FD012178480CF02DF91D20D5
:1006E0008DF8000001208DF8010000208DF8020037
:1006F00001208DF8030068460AF0BFFC1FBD70B5ED
:1007000001216E480CF047FD01287CD101216B4886
:100710000CF052FD002432E004EBC40000EB40007A
:10072000674911F8300028B304EBC40000EB400027
:1007300001EBC0004078F0B104EBC40000EB4000D6
:1007400001EBC0008078012806D0022805D00428DB
:100750000BD005280DD104E00CE020B205F08DFB94
:1007600008E020B205F0E4FB04E020B205F050FD03
:1007700000E000BF02E020B205F0DAFB641C082CA8
:10078000CADB04F0FEFF4E4CB4F99032B4F9B82144
:10079000B4F9E010B4F9080004F087FFB4F9F035BB
:1007A000B4F91825B4F94014B4F9680304F010FF43
:1007B000002477E0C4EB0410424911F8200000281F
:1007C00068D0C4EB041001EB80004078F0B3C4EBB8
:1007D000041001EB80008078B0B1012804D0022819
:1007E00021D0032845D135E0C4EB0411354A02EB92
:1007F0008101D1ED010AB0EE600A611CC8B200218E
:1008000007F05CFE36E057E0C4EB04112D4A02EB22
:100810008101D1ED040AB0EE600A611CC8B200216A
:1008200007F094FD26E0C4EB0412264B03EB820292
:100830009268C4EB0413234D05EB830393F838301F
:1008400002FB03F1621CD0B2002200E013E007F0CB
:10085000DFFD0FE0C4EB04111A4A02EB8101D1ED78
:100860000D0AB0EE600A611CC8B2002107F08AFED2
:1008700000E000BF15E0C4EB0411124A02EB810155
:10088000D1ED0D0AB0EE600A611CC8B2002107F07C
:1008900079FE06E0611CC8B200219FED0B0A07F04B
:1008A0000DFE641C042C85DB0849094809F01BFD7A
:1008B0000849094809F017FD70BD00000004004018
:1008C000D82800209C31002000000000D4670020C0
:1008D00000680040F06500200064004000B58BB067
:1008E000012148060BF0E7FD012108460BF0B0FDA1
:1008F00009220B21FE480BF0F0FB09220C21FC48D9
:100900000BF0EBFB02208DF818004FF4C05005905F
:1009100005A9F7480BF056FB14208DF8280003209A
:100920008DF8290000208DF82A0001208DF82B0079
:100930000AA80AF0A2FBEF480AF00AFC07A80AF08E
:100940002BFD00208DF822008DF823008DF8240067
:100950008DF825008DF826008DF827008DF81E00F3
:100960008DF81F0008208DF8200003208DF821004D
:10097000ADF81C0007A9DF480AF003FC01208DF840
:100980000E008DF80F0000208DF8100046F2A00038
:10099000ADF8040046F2C000ADF8060046F2E000F3
:1009A000ADF808004FF4C240ADF80A000020ADF8E1
:1009B0000C0001208DF8110001A80AF06CFC032046
:1009C0008DF80E0001208DF80F0000208DF810002A
:1009D0004FF4C840ADF8040046F22000ADF8060020
:1009E00046F24000ADF8080046F26000ADF80A009B
:1009F0000020ADF80C0001208DF8110001A80AF0CC
:100A00004AFC04208DF80E0000208DF80F00012014
:100A10008DF810000820ADF8040042F60400ADF88F
:100A200006004FF6FF70ADF80800ADF80A00002090
:100A3000ADF80C0001208DF8110001A80AF02BFC84
:100A400001220221AB480AF025FF0BB000BD10B512
:100A50000446A9484088401C1E2190FBF1F201FB8E
:100A60001200A5490988884203D10120A349887151
:100A700010BD20688038A0494A88091D01EB021189
:100A80000860A17A9C484288001D00EB02100171A9
:100A9000A27A99494B88091D01EB0311481D04F105
:100AA0000B010FF02BFA94484088401C1E2190FB4C
:100AB000F1F201FB12009049488000BFD8E710B561
:100AC00001468D484088401C1E2290FBF2F302FB39
:100AD0001300894A1288904203D10120874A9071FD
:100AE00010BDA1F18002844B5C881B1D03EB041335
:100AF0001A600523804A5488121D02EB04121371F8
:100B000042237D4A5488121D02EB041253717A4A23
:100B10005488121D02EB041293714723764A5488BD
:100B2000121D02EB0412D3714A1FD0B200EBC002B7
:100B300002EB4202724B03EBC202926900EE102AF2
:100B4000B8EEC00AF3EE0E0A20EE200ABDEEC00A8F
:100B500010EE102A12B26B4B23F810201A4632F80E
:100B60001030654A5488121D02EB0412138100BF35
:100B700061484088401C1E2290FBF2F302FB1300E8
:100B80005D4A508000BFABE710B586B002215948DE
:100B90000AF0E8FE00287CD0022156480AF07DFFCA
:100BA000022154480AF0BBFE01AA002151480AF074
:100BB00056FD9DF80C0000286CD19DF80D00002812
:100BC000FAD140F20531019888420BD0491C0198B6
:100BD000884207D0491C0198884203D00198B0F59B
:100BE000427F7CD10198401FC4B29DF80F0043287A
:100BF0000FD19DF8100057280BD19DF811004828FF
:100C000007D19DF81200552803D101A8FFF71FFF57
:100C1000C7E09DF80F00432828D19DF81000482810
:100C200024D1BDF81100374921F81400084630F9E5
:100C3000140000EE100AB8EEC00AF3EE0E0A80EEC1
:100C4000201ABDEEC10A10EE100A04EBC40101EB3C
:100C500041012B4A02EBC1014860012004EBC401B1
:100C600001EB410102EBC10148709AE09DF80F00D1
:100C700053281BD19DF81000502817D1BDF8110042
:100C8000214921F81400084630F8141004EBC40080
:100C900001E046E1F9E000EB4000194A02EBC00038
:100CA000A0F8A21001A8FFF7D2FE7AE09DF80F008D
:100CB0004D2833D19DF810004F282FD19DF81100F9
:100CC00001282BD1052004EBC40101EB41010C4AA2
:100CD00002EBC1018870012004EBC40100E061E077
:100CE00001EB410102EBC101487004EBC4010DE0CE
:100CF0000000024000640040F0650020D2030020A4
:100D0000D82800200C0000201400002001EB410135
:100D100002F8310001A8FFF79AFE42E09DF80F00AB
:100D20004D2819D19DF810004F2815D19DF81100BC
:100D300090B9002004EBC40101EB41017A4A02F8AA
:100D4000310004EBC40101EB410102EBC101487029
:100D500001A8FFF77CFE24E09DF80F00532810D176
:100D60009DF8100054280CD1002004EBC40101EBC5
:100D700041016D4A02EBC101487001A8FFF767FE0F
:100D80000FE09DF80F0042280BD19DF8100042287B
:100D900007D19DF81100472803D1019988B2FFF7C8
:100DA0008EFE00BF0198B0F5487F6ED1BDF80F00F0
:100DB0005E490880BDF811004880BDF813008880A6
:100DC000BDF81500C8800846B0F9000000EE100A12
:100DD000B8EEC00AF3EE0E0A80EE201ABDEEC10A8C
:100DE00010EE100A504948600120487005208870B4
:100DF0004E48B0F9020000EE100AB8EEC00AF3EE59
:100E00000E0A80EE201ABDEEC10A10EE100AC1F8DB
:100E1000DC000121444880F8D910052180F8DA105F
:100E20004248B0F9040000EE100AB8EEC00AF3EE32
:100E30000E0A80EE201ABDEEC10A10EE100A3A49E1
:100E4000C1F8B4010121384880F8B111052180F8BA
:100E5000B2113648B0F9060000EE100AB8EEC00A2A
:100E6000F3EE0E0A80EE201ABDEEC10A10EE100A53
:100E70002D49C1F88C0201212B4880F889120521E7
:100E800080F88A1201A8FFF7E2FD9DF80C00042803
:100E900047D127490298884243D19DF810006B281A
:100EA0003FD19DF811004C283BD19DF8120001283C
:100EB0000CD1AA211C48C0F864134942C0F83C1464
:100EC000AA21C0F814154942C0F8EC159DF812008B
:100ED00060B95F211448C0F864134942C0F83C145B
:100EE0005F21C0F814154942C0F8EC15BDF8130095
:100EF00081B20D48A0F80214BDF8130081B20A486F
:100F0000A0F8DA14BDF8130081B20748A0F8B215B2
:100F1000BDF8130081B20448A0F88A1601A8FFF7B3
:100F200096FD06B010BD0000D82800200C0000205F
:100F3000000501002DE9F0418AB004460D46164631
:100F40009846109F012188060BF0B5FA0121022076
:100F50000BF07EFA09220521FE480BF0BEF80922AB
:100F60000621FC480BF0B9F802208DF8140060202F
:100F7000049004A9F7480BF025F840208DF82400D0
:100F800002208DF8250000208DF8260001208DF824
:100F9000270009A80AF071F841208DF824000220EA
:100FA0008DF8250001208DF826008DF8270009A86E
:100FB0000AF063F8E8480AF0CBF806A80AF0ECF962
:100FC00000208DF81E008DF81F008DF820008DF890
:100FD00021008DF822008DF823008DF81A708DF80D
:100FE0001B408DF81C608DF81D500320ADF81800D3
:100FF00006A9D9480AF0C5F80E208DF80A0001208C
:101000008DF80B0000208DF80C0044F22000ADF8A4
:10101000000044F24000ADF8020044F26000ADF878
:1010200004004FF48140ADF806000020ADF8080040
:1010300001208DF80D0068460AF02DF90F208DF87B
:101040000A0001208DF80B0000208DF80C0044F2FE
:10105000A000ADF8000044F2C000ADF8020044F278
:10106000E000ADF804004FF48240ADF80600002027
:10107000ADF8080001208DF80D0068460AF00BF964
:1010800010208DF80A0001208DF80B0000208DF84B
:101090000C0045F22000ADF8000045F24000ADF82C
:1010A000020045F26000ADF804004FF4A140ADF835
:1010B00006000120ADF808008DF80D0068460AF022
:1010C000EAF811208DF80A0001208DF80B000020AD
:1010D0008DF80C0045F2A000ADF8000045F2C0000C
:1010E000ADF8020045F2E000ADF804004FF4A24074
:1010F000ADF806000120ADF808008DF80D00684637
:101100000AF0C9F812208DF80A0001208DF80B00B2
:1011100000208DF80C004FF48150ADF800004FF422
:101120008250ADF802004FF48350ADF804004FF444
:101130008450ADF806000120ADF808008DF80D00D0
:1011400068460AF0A8F813208DF80A0001208DF8EF
:101150000B0000208DF80C004FF48550ADF8000016
:101160004FF48650ADF802004FF48750ADF80400FC
:101170004FF48850ADF806000120ADF808008DF856
:101180000D0068460AF087F814208DF80A00002048
:101190008DF80B0001208DF80C000020ADF8000048
:1011A0004FF49040ADF802004FF6FF70ADF8040028
:1011B0004FF47840ADF806000120ADF808008DF836
:1011C0000D0068460AF067F815208DF80A00012026
:1011D0008DF80B0000208DF80C004BF22000ADF8CC
:1011E00000004BF24000ADF802004BF26000ADF899
:1011F00004004BF28000ADF806000120ADF80800B5
:101200008DF80D0068460AF046F816208DF80A00A1
:1012100001208DF80B0000208DF80C004FF40150D8
:10122000ADF800004FF40250ADF80200ADF8040034
:10123000ADF806000120ADF808008DF80D006846F5
:101240000AF029F80122102143480AF023FB012269
:10125000022141480AF01EFB00200AB0BDE8F081DF
:1012600070B5044604EBC40000EB40003B4901EBC1
:10127000C000B0F90800002808DD04EBC40000EB52
:10128000400001EBC000B0F9080009E004EBC40025
:1012900000EB4000314901EBC000B0F908004042CA
:1012A00004EBC40101EB41012C4A02EBC101B1F88E
:1012B000D010884220DD04EBC40000EB4000114652
:1012C00001EBC000B0F90800002802DA4FF0FF304F
:1012D00000E0012004EBC40101EB41011F4A02EBD5
:1012E000C101B1F8D010484301B204EBC40000EBD7
:1012F000400002EBC000018104EBC40000EB4000A1
:10130000164911F8300040B9002104EBC40000EB8D
:101310004000124A02EBC0000181042C04DA4FF4B1
:1013200000700F49086003E040F2FF100C490860AC
:1013300000200B49487208720820887204F00B00E4
:10134000450004EBC40000EB4000044901EBC00081
:10135000018907E00004024000680040D82800200E
:1013600040040020FE48415302466B1CD11850191E
:10137000FEF75DFF032C01D0072C04D1F8490B398F
:10138000F8480AF077F870BD10B586B001AA0021C0
:10139000F4480AF064F99DF80C0000287ED19DF80D
:1013A0000C0000287FD19DF80E0008287BD1019801
:1013B000B0F5007F77D90198B0F5027F73D8019816
:1013C000401EC4B2E84850F82400E84941F824001F
:1013D0000EF0D2FBE44941F82400084650F82400FE
:1013E000E24951F82410401AE14941F824009DF8DF
:1013F00012109DF8110041EA002001B204EBC40074
:1014000000EB4000DB4A02EBC000C1839DF81000F6
:101410009DF80F1040EA012104EBC40000EB4000EE
:1014200002EBC00041629DF814109DF8130041EAE0
:10143000002001B204EBC40000EB400002EBC0004E
:1014400081839DF8151004EBC40000EB400002EB13
:10145000C000018504F08DFF04EBC40000EB4000E8
:10146000C44901EBC00090F84600D8B9012104EB53
:10147000C40000EB4000BF4A02EBC00080F84610F9
:10148000002104EBC40000EB400002EBC000A0F818
:10149000B41004EBC40000EB400000E003E002EBFA
:1014A000C000016200BF0221AE480AF0F6FA022134
:1014B000AC480AF034FA06B010BDF0B585B0074666
:1014C0000D46002412200090019000208DF80800A5
:1014D0008DF809008DF80A5000BF05E0395D0DF167
:1014E0000B000155601C84B2AC42F7DB69469D4895
:1014F00009F0C0FF0646002401E0601C84B23146BA
:1015000098480AF04FF818B940F6FF708442F4DBAF
:1015100040F6FF70844202DB012005B0F0BD0020E0
:10152000FBE74168491C4160002101730169491EC4
:101530000161818A491C1E2291FBF2F302FB131107
:10154000818270474168491C416000210173016933
:10155000491E0161818A491C1E2291FBF2F302FBA4
:1015600013118182704710B586B010217D480AF0B2
:10157000F9F9002874D001AA01217A480AF06FF81D
:10158000102178480AF089FA102176480AF0C7F944
:101590000198B0F5B06F74D940F285510198884236
:1015A0006FD89DF80D0000286BD10198A0F28150F2
:1015B000C4B2002104EBC40000EB04106E4A02EB3D
:1015C000800080F857109DF80F004F2809D19DF832
:1015D0001000602805D19DF81100602801D101207C
:1015E00000E000209DF80F10432909D19DF810104C
:1015F000622905D19DF81110602901D1012100E077
:10160000002108439DF80F10432909D19DF81010BF
:10161000642905D19DF81110602901D1012100E054
:10162000002108439DF80F10432909D19DF810109F
:101630006B2905D19DF81110602901D1012100E02D
:10164000002108439DF80F1043290AD19DF810107E
:101650006C2906D19DF81110602902D1012101E009
:1016600086E3002108439DF80F104B290AD19DF80D
:101670001010402906D19DF81110602902D10121D6
:1016800001E053E1002108439DF80F104B2909D1D7
:101690009DF81010772905D19DF81110602901D10E
:1016A000012100E00021084330B1C4EB8411334A2A
:1016B00002EBC100FFF746FF9DF80F004B2816D143
:1016C0009DF81000402812D19DF8110060280ED11D
:1016D0009DF81300C01008B1012000E0002004EBC9
:1016E000C40101EB0411244A02EB810148709DF80A
:1016F0000F004F2810D19DF8100060280CD19DF8E4
:101700001100602808D19DF8130004EBC40101EB1F
:101710000411194A02F821009DF80F0043285CD1FA
:101720009DF81000622858D19DF81100602854D10E
:10173000DDF8131004EBC40000EB04100E4A02EBBA
:101740008000016104EBC40000EB0410114601EBC2
:10175000800090ED180A9FED0A1AC1EE000A11E010
:101760004B0400200068004000040020E00300203B
:1017700020040020D8280020C83200203C58002037
:101780000000B44304EBC40000EB041001EB800044
:10179000006900EE100AB8EEC00A20EE800AB1EE31
:1017A000001AC0EE010A04EBC40000EB041001EBC8
:1017B0008000B0F85C0000EE100AB8EE400A80EE3F
:1017C000801ABDEEC10A10EE100A00B204EBC4018B
:1017D00001EB041102EB810188809DF80F00432882
:1017E00049D19DF81000642845D19DF8110060286A
:1017F00041D1DDF8131004EBC40000EB0410FE4AE5
:1018000002EB8000416204EBC40000EB04101146BF
:1018100001EB800090ED180A1FED271AC1EE000AB7
:1018200004EBC40000EB041001EB8000406A00EE02
:10183000100AB8EEC00A20EE800AB1EE001AC0EE1F
:10184000010A04EBC40000EB041001EB8000B0F8C7
:101850005C0000EE100AB8EE400A80EE801ABDEE81
:10186000C10A10EE100A00B204EBC40101EB04112E
:1018700002EB810108839DF80F00432811D19DF8E8
:1018800010006B280DD19DF81100602809D1DDF8FA
:10189000131004EBC40000EB0410D74A02EB8000E5
:1018A000C1609DF80F00432811D19DF810006C28ED
:1018B0000DD19DF81100602809D1DDF8131004EB5B
:1018C000C40000EB0410CC4A02EB800001629DF8DA
:1018D0000F004B2829D19DF81000772825D19DF8BD
:1018E0001100602821D1DDF8131004EBC40000EBD7
:1018F0000410C14A02EB8000816204EBC40000EBDB
:101900000410114601EB8000806A00EE100AB8EE68
:10191000C00ADFEDBA0A80EE201A04EBC40000EB27
:10192000041001EB800080ED071A00BF0198B0F5AC
:10193000207F7DD90198B0F5227F79D89DF80D00E0
:10194000002875D10198A0F28120C4B2002104EBD7
:10195000440000EBC400AA4A02EBC00080F8471024
:101960009DF80F0041280BD19DF81000432807D1A6
:101970009DF8120000F04000012801D0012000E095
:1019800000209DF80F1042290BD19DF81010472917
:1019900007D19DF8121001F04001012901D0012169
:1019A00000E0002108439DF80F104A290BD19DF853
:1019B0001010562907D19DF8121001F0400101299D
:1019C00001D0012100E0002108439DF80F104D29AE
:1019D0000BD19DF810104F2907D19DF8121001F07E
:1019E0004001012901D0012100E0002108439DF8B8
:1019F0000F1050290BD19DF81010522907D19DF8D6
:101A0000121001F04001012901D0012100E0002164
:101A100008439DF80F1053290DD19DF8101044294B
:101A200009D19DF8121001F04001012903D000E016
:101A300017E1012100E0002108439DF80F10532910
:101A40000BD19DF81010542907D19DF8121001F008
:101A50004001012901D0012100E0002108439DF847
:101A60000F1054290BD19DF81010432907D19DF870
:101A7000121001F04001012901D0012100E00021F4
:101A800008439DF80F1055290BD19DF810104D29D2
:101A900007D19DF8121001F04001012901D0012168
:101AA00000E00021084330B1C4EB8411554A02EB39
:101AB000C100FFF736FD9DF80F004D2817D19DF8A6
:101AC00010004F2813D19DF8120000F040000128AB
:101AD0000DD09DF8130008B1012000E0002004EBB8
:101AE000440101EBC401464A02EBC10188709DF834
:101AF0000F0056282FD19DF8100058282BD19DF8A3
:101B0000120000F04000012825D0DDF8131004EB8E
:101B1000440000EBC4003A4A02EBC000416104EB10
:101B2000440000EBC400114601EBC000B0F85000C7
:101B30003C2190FBF1F104EB440000EBC40002EB0C
:101B4000C000406990FBF1F104EB440000EBC400DD
:101B500002EBC00041619DF80F00502845D19DF86F
:101B60001000582841D19DF8120000F040000128D3
:101B70003BD0DDF8130004EB440101EBC401204A23
:101B800002EBC101886104EB440101EBC40102EBEB
:101B9000C10191ED150A9FED1C1AC1EE000A00EE7D
:101BA000100AB8EEC00A60EE800A04EB440101EBB3
:101BB000C40102EBC101B1F8501000EE101AB8EEEA
:101BC000401A80EE810AF1EE000A80EE201ABDEE86
:101BD000C10A10EE101A09B204EB440202EBC4026F
:101BE000074B03EBC202118200BF9DF80F0049288A
:101BF0001FD19DF8100009E0C83200200000084302
:101C0000C82F00206C4C00200000B443512810D194
:101C10009DF8120000F0400001280AD0BDF8130022
:101C200001B204EB440000EBC400754A02EBC000B3
:101C300041829DF80F00552812D19DF810004D28C3
:101C40000ED19DF8120000F04000012808D09DF848
:101C5000130004EB440101EBC401694A02F83100AE
:101C600000BF0198812821D3019888281ED89DF8AB
:101C70000D00D8B901988138C4B2621C022343EA2E
:101C8000021242F440715F4A5068FEF7FAFA4FF0D0
:101C90008071019841EA00409DF80F1040EA012050
:101CA0009DF8101008435849086000BF9DF80C00CB
:101CB00004285CD19DF80D00E8BB002000900021B5
:101CC000029800F0FE00C0EB0010504A02EB8000CA
:101CD00080F8321009210298B1EB102F46D16946E5
:101CE000B7EE000A0DF10F0008F0ADFC0298C0B28B
:101CF000C0EB0010454901EB800090F8380000EE81
:101D0000900AF8EE600A80EE201ABDEEC10A10EECD
:101D1000100A029901F0FE01C1EB01113B4A02EBEE
:101D2000810188616946B2EE040A0DF10F0008F0E6
:101D30009AFC029800E01AE000F0FE00C0EB0010F0
:101D4000324901EB800080ED050A69469FED300ABB
:101D50000DF10F0008F087FC029800F0FE00C0EBC8
:101D600000102A4901EB800080ED080A00BF00BF87
:101D700006B010BD30B585B005460021254809F0F4
:101D8000F1FC10B9002005B030BD6A4600212248A0
:101D900009F065FC002404E00DF10B00005D2855FE
:101DA000641C9DF80A00A042F6D89DF80A00EAE7F4
:101DB00010B586B004464FF48230029000208DF8B2
:101DC0000D0004208DF80C008DF80E008DF80F002A
:101DD00034B193218DF810104E218DF8111005E0CB
:101DE00085218DF8101046218DF8111001218DF8F4
:101DF000121001A9084809F03DFB06B010BD000013
:101E0000C82F0020040000206C0000209C3100201E
:101E100000007A44006400400068004006E0FE498B
:101E2000FE4808F060FA02200DF0F6FDF7E706E044
:101E3000012006F083FC4FF47A700DF0EDFDF7E71A
:101E40000120F74981F8600381F8380481F8100512
:101E500081F8E8050121F24880F8611380F839140F
:101E600080F8111580F8E9154FF47A700DF0D4FD63
:101E70000121EB4880F8A51380F87D1480F85515F2
:101E800080F82D1605E004F097FD40F24C400DF06F
:101E9000C3FDF8E703E04FF47A700DF0BDFDFAE7FB
:101EA00001220521104604F02DFF01220521022008
:101EB00004F028FF01220521032004F023FF012262
:101EC0000521042004F01EFF3EE1012006F036F952
:101ED000012432E10121204606F066F832200DF09F
:101EE0009BFD0121204605F05FFE32200DF094FDA0
:101EF0000121204605F087FF32200DF08DFD0121E4
:101F0000204605F0B6FE0121204606F0B2F8322048
:101F10000DF082FD601E00EB400101EBC000C149E5
:101F200001EBC000B0F850008000611E01EB4102DF
:101F300002EBC101BB4A02EBC101B1F904104843F5
:101F400000EE100AB8EEC00A601E00EB400101EB83
:101F5000C000114601EBC000D0ED150A20EE200AAA
:101F60009FEDB11AC0EE010A601E00EB400101EBCB
:101F7000C000114601EBC000806900EE100AB8EE07
:101F8000C00A30EE600AB5EEC00AF1EE10FA39DD93
:101F9000601E00EB400101EBC000114601EBC000E8
:101FA000B0F850008000611E01EB410202EBC1015C
:101FB0009C4A02EBC101B1F90410484300EE100A3B
:101FC000B8EEC00A601E00EB400101EBC0001146F4
:101FD00001EBC000D0ED150A20EE200A9FED921A09
:101FE000C0EE010A601E00EB400101EBC00011468B
:101FF00001EBC000806900EE100AB8EEC00A30EEB6
:10200000600A3AE0601E00EB400101EBC000854928
:1020100001EBC000B0F850008000611E01EB4102EE
:1020200002EBC1017F4A02EBC101B1F90410484340
:1020300000EE100AB8EEC00A601E00EB400101EB92
:10204000C000114601EBC000D0ED150A20EE200AB9
:102050009FED751AC0EE010A601E00EB400101EB16
:10206000C000114601EBC000806900EE100AB8EE16
:10207000C00A30EE600AB1EE400ADFED6C0AB4EE41
:10208000E00AF1EE10FA20D2601E00EB400101EBF5
:10209000C000644901EBC0004078B0B9601E00EB9D
:1020A000400101EBC0005F4901EBC00090F84C001B
:1020B000401CC1B2601E00EB400202EBC000594A56
:1020C00002EBC00080F84C100AE00021601E00EB1B
:1020D000400202EBC000534A02EBC00080F84C10F3
:1020E000601E00EB400101EBC0004E4901EBC00057
:1020F00090F84C000A2814DD0121601E00EB40021C
:1021000002EBC000474A02EBC00001770021601ECD
:1021100000EB400202EBC000424A02EBC0004170FB
:1021200009E00021601E00EB400202EBC0003D4AC6
:1021300002EBC0000177601CC4B2052CFFF6CAAEEA
:102140004FF4C8700DF068FCBFE607E008F025FC0E
:1021500008F091FB4FF496700DF05EFCF6E705E099
:1021600001F00DFC4FF47A700DF056FCF8E770B5F5
:102170000446002500BF022008F07EF9002008F088
:1021800069FC01F0FCFB0DF086FE0DF01BFD054621
:102190000D23274A002127480DF0F8F81E23264A70
:1021A000002126480DF0F2F80A23254A002125488F
:1021B0000DF0ECF80F23244A002124480DF0E6F836
:1021C0000923234A002123480DF0E0F81023224A76
:1021D000002122480DF0DAF81F23214A002121486E
:1021E0000DF0D4F805200DF04FFB28460DF0EEFC65
:1021F00070BD08B54FF4FA6008F045FA0BF034FBF7
:102200004FF4A06008F034FFFEF768FB00200323C2
:1022100008221946009027E0B869002000680040B5
:10222000D8280020C82F00200000B4430000C84276
:10223000541000205F210008541200204B21000898
:10224000541A0020A11E0008541E0020951E0008EC
:1022500054160020411E0008542200202F1E0008A2
:10226000542800201D1E0008FEF764FE08F030F818
:1022700008F0E8F808F0CEFB00F0ACF800F01AF82F
:1022800008F024FA08F068FBFEF72CF8FEF70AFACB
:10229000FDF799FF0BF0CCFC0523044A002104480C
:1022A0000DF074F80BF0EBFD002008BD5408002081
:1022B0006F2100081CB54048006840F010003E49FE
:1022C00008603D481438006840F480003A491439E9
:1022D00008600120022100230A46CDE900104FF4D6
:1022E000C061364808F05EFD07220921334808F036
:1022F00039FD07220A21314808F034FD40F2D92087
:102300002F4908814FF4037088810846008820F027
:1023100020000880032325220121062008F094FCD8
:102320004FF48070274B264A121D04210090264846
:1023300008F0CEFB01221021234809F06AFD032397
:1023400046220021072008F07FFC1D48808A40F0CB
:1023500080001B4988820846808940F400508881AB
:102360001CBD70B504460D461848807A78B92A46D7
:10237000214614480DF0C2FD2946134809F0DDFC42
:102380000121114809F0B8FC01201049887270BD84
:1023900010B50F490C4809F059FD01280AD10C4924
:1023A000094809F022FD0A49074809F079FD002093
:1023B0000649887210BD0000443802400000024007
:1023C0000010014052010020B8640240D2030020F6
:1023D0000080002800B597B0012108460AF038F8BF
:1023E000012148040AF067F8012148050AF030F895
:1023F00007220221FD4809F070FE07220321FB4855
:1024000009F06BFE0C20119002208DF8480000208E
:102410008DF84A0003208DF8490000208DF84B000C
:1024200011A9F24809F0CEFD4FF4E13013900020DD
:10243000ADF85000ADF85200ADF85400ADF85800BA
:102440000C20ADF8560013A9E9480AF0DFFF01227D
:1024500040F22551E6480BF017F926208DF8400090
:1024600004208DF8410001208DF842008DF84300D2
:1024700010A808F002FEDF4809F062FB4FF0006090
:1024800001900020059040200490DB480390D8483C
:10249000001D0290001507900020069009900890FA
:1024A0000A904FF440300B9000200C9001200D90CA
:1024B00000200F900E9001A9CE4809F0E3FBCF4910
:1024C000CC4809F092FCCD49CA4809F0E9FC012248
:1024D0001021C84809F09DFC11208DF8400007200C
:1024E0008DF8410001208DF842008DF8430010A8BE
:1024F00008F0C3FD01228021BD480BF0BCF801218A
:10250000BB480BF00BF817B000BD10B5BB49B9487C
:1025100009F09CFC01280AD1B849B64809F065FCCD
:10252000B649B44809F0BCFC0020B549C87210BDDA
:1025300070B52DED028B002440F22531AC480BF034
:10254000DEF858B1AA480BF018F80020AD49087021
:102550002021AD480DF0EBFC01F0FDB940F2255112
:10256000A3480BF0CCF80028F6D02021A0480BF0AF
:10257000BDF840F225519E480BF0F8F89C480AF04F
:10258000FCFFC4B29F48007800F0400008B39D48AB
:10259000007800F0800020BBFF2C06D1994800781D
:1025A00040F08000974908701BE09648007800F0E2
:1025B0003F019548445493480078401C9149087065
:1025C0000846007800F03F0028280ADD0020087047
:1025D00007E0EE2C05D18B48007840F04000894997
:1025E00008708848007800F080000028B4D0874840
:1025F00090F8200212287DD1844890F821021028FA
:1026000079D2DFE800F008121C28343F4A55607E7A
:1026100093A4B5C1CFDD01207D49087081F8D800B1
:1026200081F8B00181F88802CEE000207849087076
:1026300081F8D80081F8B00181F88802C4E0012057
:10264000734948700121724880F8D91080F8B1119F
:1026500080F88912B8E000206D49487000216C486C
:1026600080F8D91080F8B11180F88912ACE001200F
:10267000674981F8600381F8380481F8100581F812
:10268000E805A1E00020624981F8600381F8380480
:1026900081F8100581F8E80596E001215C4880F892
:1026A000611380F8391480F8111580F8E9158BE072
:1026B0000021574880F8611380F8391480F811150B
:1026C00080F8E91580E0002518E001221146104647
:1026D00004F0F6FB01221146022004F0F1FB012276
:1026E0001146032004F0ECFB01221146042004F003
:1026F000E7FB01E069E066E0681CC5B2032DE4DB9E
:1027000062E001220021104604F0DAFB01220021E0
:10271000104604F0D5FB01220021032004F0D0FB79
:1027200001220021042004F0CBFB4DE001210846EA
:1027300004F0EFFB0121022004F0EBFB0121032058
:1027400004F0E7FB0121042004F0E3FB3CE001215D
:10275000084604F059FC0121022004F055FC012137
:10276000032004F051FC0121042004F04DFC2BE077
:1027700000202749486000212548C0F8DC10C0F837
:10278000B411C0F88C121FE02D202149486041424D
:102790001F48C0F8DC102D21C0F8B4114942C0F820
:1027A0008C1211E05A201A49486041421848C0F87A
:1027B000DC105A21C0F8B4114942C0F88C1203E071
:1027C00007F08CFE00E000BF00BF104890F8210227
:1027D000012804D10D4890F823020E4908700B48D7
:1027E00090F82302092873D216E00000000002408E
:1027F00000440040A06002407202002000802020BF
:10280000D20300201D00002072030020520100208E
:10281000D82800201C000020DFE800F00524A8A92B
:10282000F4F35AF2F100F64890F82502082815D181
:10283000012080F3138800BF00BFBFF34F8FF14822
:10284000006800F4E060F0490843001DED490860AD
:10285000BFF34F8F00BF00BF00BFFDE700BF00BF49
:1028600001F071B8E64890F82502001F11287BD2CC
:10287000DFE800F0202F3E3F4041420F1718430988
:10288000447A7A6172000120E049087081F83C00C6
:102890006AE00020DD4948700021DC4880F83D10E6
:1028A00062E061E00120D94948700121D74880F8F1
:1028B0003D1059E0D6480EF007F8B0EE408AF0EE31
:1028C000608A51EC180B0DF04DFBD04988604BE04D
:1028D000F6E3CF480DF0F8FFB0EE408AF0EE608AE4
:1028E00051EC180B0DF03EFB0146C84841643BE03B
:1028F0003AE039E038E037E036E035E0C4480DF042
:10290000E3FFB0EE408AF0EE608A51EC180B0DF058
:1029100048FBBE498870BE480DF0D6FFB0EE408A35
:10292000F0EE608A51EC180B0DF03BFBC1B2B748DA
:1029300080F83E1018E00020FFF73AFA642007F014
:10294000A2FE0120FFF734FA0020B04948700021B0
:10295000AE4880F83D1007E00320AC4988700321A1
:10296000AA4880F83E1000BF00BF79E778E7A44886
:1029700090F82502C01E0B2840D2DFE800F006BD0B
:10298000BD444E65BDBDBD717D00A1480DF09CFFED
:10299000B0EE408AF0EE608A51EC180B0DF0E2FACE
:1029A0009A4988609A480DF08FFFB0EE408AF0EEA9
:1029B000608A51EC180B0DF0D5FA0146934841643A
:1029C00093480DF081FFB0EE408AF0EE608A51EC42
:1029D000180B0DF0C7FA01468C48C0F880108C48DF
:1029E0000DF072FFB0EE408AF0EE608A51EC180BE9
:1029F0000DF0B8FA01468548C0F8BC107CE0F5E35C
:102A0000D5E321E27AE001208049087081F83C009A
:102A100081F8780081F8B4006EE002207B4988706C
:102A200002217A4880F83E1080F87A1080F8B610BB
:102A30000120764948700121744880F83D1080F8E3
:102A4000791080F8B51057E0032070498870032191
:102A50006E4880F83E1080F87A1080F8B6104BE08F
:102A600000206A4948700021684880F83D1080F8CD
:102A7000791080F8B5103FE065480DF025FFB0EE05
:102A8000408AF0EE608A51EC180B0DF0A3FA00EECC
:102A9000100A5E4880ED040A5D480DF015FFB0EEA7
:102AA000408AF0EE608A51EC180B0DF093FA00EEBC
:102AB000100A564880ED130A55480DF005FFB0EE98
:102AC000408AF0EE608A51EC180B0DF083FA00EEAC
:102AD000100A4E4880ED220A4D480DF0F5FEB0EE8A
:102AE000408AF0EE608A51EC180B0DF073FA00EE9C
:102AF000100A464880ED310A00BF00BF404890F8F8
:102B00002502C01E1C287AD2DFE800F00E1C2A3AEB
:102B10004A5A698696A6B4C3D279E1FDFBFAF9F860
:102B2000F7F6F5F4F3F279F1002008E0002100EB6C
:102B3000C00202EB4202374B03F83210401C082857
:102B4000F4DB7FE132480DF0BFFEB0EE408AF0EEDC
:102B5000608A51EC180B0DF024FA2E49887071E14F
:102B60002B480DF0B1FEB0EE408AF0EE608A51ECD9
:102B7000180B0DF016FAC1B2264880F8DA1061E1A0
:102B800023480DF0A1FEB0EE408AF0EE608A51ECD1
:102B9000180B0DF006FAC1B21E4880F8B21151E1CF
:102BA0001B480DF091FEB0EE408AF0EE608A51ECC9
:102BB000180B0DF0F6F9C1B2164880F88A1241E1FF
:102BC00013480DF081FEB0EE408AF0EE608A51ECC1
:102BD000180B0DF0C7F901B20E48418132E10C48E3
:102BE0000DF072FEB0EE408AF0EE608A51EC180BE8
:102BF0000DF0B8F901B20748A0F8E21022E120E197
:102C0000520100200CED00E00000FA059C3100208C
:102C100079030020D8280020FC480DF055FEB0EEC6
:102C2000408AF0EE608A51EC180B0DF09BF901B26E
:102C3000F748A0F8BA1105E1F4480DF045FEB0EEF2
:102C4000408AF0EE608A51EC180B0DF08BF901B25E
:102C5000EF48A0F89212F5E0EC480DF035FEB0EE2A
:102C6000408AF0EE608A51EC180B0DF07BF9E849D0
:102C70004860E7E0E5480DF027FEB0EE408AF0EE50
:102C8000608A51EC180B0DF06DF9E149C1F8DC00D8
:102C9000D8E0DE480DF018FEB0EE408AF0EE608A13
:102CA00051EC180B0DF05EF9D949C1F8B401C9E037
:102CB000D6480DF009FEB0EE408AF0EE608A51EC85
:102CC000180B0DF04FF9D249C1F88C02BAE0CF4889
:102CD0000DF0FAFDB0EE408AF0EE608A51EC180B70
:102CE0000DF05FF981B2CA48A0F8A210AAE090E006
:102CF00084E078E06CE061E055E049E03DE032E0FE
:102D000021E010E0FFE7C1480DF0DEFDB0EE408AA3
:102D1000F0EE608A51EC180B0DF043F981B2BC481B
:102D2000A0F87A118EE0B9480DF0CEFDB0EE408AE1
:102D3000F0EE608A51EC180B0DF033F981B2B44813
:102D4000A0F852127EE0B1480DF0BEFDB0EE408A10
:102D5000F0EE608A51EC180B0DF023F981B2AC480B
:102D6000A0F82A136EE0AB4890F8280208B10120C1
:102D700000E00020A649087064E0A64890F8280208
:102D800008B1012000E00020A14981F8D80059E0F5
:102D9000A04890F8280208B1012000E000209C49DA
:102DA00081F8B0014EE09B4890F8280208B101205C
:102DB00000E00020964981F8880243E0954890F8A9
:102DC000280208B1012000E000209149487039E054
:102DD000904890F8280208B1012100E000218C48B9
:102DE00080F8D9102EE08B4890F8280208B1012114
:102DF00000E00021864880F8B11123E0854890F872
:102E0000280208B1012100E00021814880F88912E0
:102E100018E000217E4880F8C01080F8981180F8F2
:102E2000701280F8481380F8201480F8F81480F8A5
:102E3000D01580F8A81678A279A17A480DF02EFD59
:102E400000E000BF00BF0BE5724890F82502C01EED
:102E50001C287DD2DFE800F00E1C2C3C4C5C6C7D05
:102E60008D9DACBBCA7CF4F2F1F0EFEEEDECEBEA39
:102E7000E9E87CD9002008E0002100EBC00202EB69
:102E80004202634B03F83210401C0828F4DB8BE14C
:102E90005E480DF019FDB0EE408AF0EE608A51EC0C
:102EA000180B0DF07EF8C1B2594880F862137BE12F
:102EB00056480DF009FDB0EE408AF0EE608A51EC04
:102EC000180B0DF06EF8C1B2514880F83A146BE15E
:102ED0004E480DF0F9FCB0EE408AF0EE608A51ECFD
:102EE000180B0DF05EF8C1B2494880F812155BE18D
:102EF00046480DF0E9FCB0EE408AF0EE608A51ECF5
:102F0000180B0DF04EF8C1B2414880F8EA154BE1BC
:102F10003E480DF0D9FCB0EE408AF0EE608A51ECEC
:102F2000180B0DF01FF801B23948A0F86A133BE105
:102F300036480DF0C9FCB0EE408AF0EE608A51ECE4
:102F4000180B0DF00FF801B23148A0F842142BE134
:102F500029E12E480DF0B8FCB0EE408AF0EE608A10
:102F600051EC180B0CF0FEFF01B22948A0F81A151D
:102F70001AE126480DF0A8FCB0EE408AF0EE608A17
:102F800051EC180B0CF0EEFF01B22148A0F8F2153D
:102F90000AE11E480DF098FCB0EE408AF0EE608A1F
:102FA00051EC180B0CF0DEFF1949C1F86403FBE08B
:102FB00016480DF089FCB0EE408AF0EE608A51ECC4
:102FC000180B0CF0CFFF1249C1F83C04ECE00F489D
:102FD0000DF07AFCB0EE408AF0EE608A51EC180BEE
:102FE0000CF0C0FF0A49C1F81405DDE007480DF0F8
:102FF0006BFCB0EE408AF0EE608A51EC180B0CF0DE
:10300000B1FF0349C1F8EC05CEE0B2E0790300203E
:10301000D828002052010020282D2D205F2A2900C9
:10302000257300003100002098E08CE080E074E01F
:1030300068E05CE050E044E032E021E010E0FFE7CF
:10304000FD480DF041FCB0EE408AF0EE608A51EC94
:10305000180B0CF0A6FF81B2F848A0F80214A3E008
:10306000F5480DF031FCB0EE408AF0EE608A51EC8C
:10307000180B0CF096FF81B2F048A0F8DA1493E038
:10308000ED480DF021FCB0EE408AF0EE608A51EC84
:10309000180B0CF086FF81B2E848A0F8B21583E067
:1030A000E5480DF011FCB0EE408AF0EE608A51EC7C
:1030B000180B0CF076FF81B2E048A0F88A1673E096
:1030C00074E0DF4890F8280208B1012000E00020F9
:1030D000DA4981F8600367E0D94890F8280208B11E
:1030E000012000E00020D54981F838045CE0D44894
:1030F00090F8280208B1012000E00020CF4981F8B3
:10310000100551E0CE4890F8280208B1012000E0F7
:103110000020CA4981F8E80546E0C94890F828022D
:1031200008B1012100E00021C44880F861133BE0B0
:10313000C34890F8280208B1012100E00021BF48EF
:1031400080F8391430E0BE4890F8280208B1012117
:1031500000E00021B94880F8111525E0B84890F842
:10316000280208B1012100E00021B44880F8E915E7
:103170001AE00021B14880F8C01080F8981180F85A
:10318000701280F8481380F8201480F8F81480F842
:10319000D01580F8A816AFF28012AFF27C11A948C2
:1031A0000DF07CFB00E000BF00BFCCE300BFA448F3
:1031B00090F82502C01E0B2817D2DFE800F0061891
:1031C000FC293A4B60759BC3EB000121084605F0D2
:1031D000E0FE0121022005F0DCFE0121032005F0C4
:1031E000D8FE0121042005F0D4FEE4E0E5E0012151
:1031F000084605F0A6FC0121022005F0A2FC0121F1
:10320000032005F09EFC0121042005F09AFCD2E089
:103210000121084605F015FC0121022005F011FCF2
:103220000121032005F00DFC0121042005F009FC1B
:10323000C1E00121084605F080FD0121022005F0D2
:103240007CFD0121032005F078FD0121042005F01B
:1032500074FDB0E001220321104605F074FB012249
:103260000321022005F06FFB01220321084605F02F
:103270006AFB01220321042005F065FB9BE001228B
:103280001146104605F05FFB01221146022005F0B1
:103290005AFB01221146032005F055FB012211467D
:1032A000042005F050FB86E063480DF00DFBB0EE06
:1032B000408AF0EE608A51EC180B0CF053FE624924
:1032C0000860012208460168104606F05BF80122FA
:1032D0005D480168022006F055F801225A4801684D
:1032E000032006F04FF8012257480168042006F039
:1032F00049F860E050480DF0E7FAB0EE408AF0EE91
:10330000608A51EC180B0CF02DFE50490860012228
:1033100008460168104606F0AAF801224B480068EA
:103320004142022006F0A3F80122484800684142C9
:10333000032006F09CF8012244480168042006F0AE
:1033400096F838E03C480DF0BFFAB0EE408AF0EE57
:10335000608A51EC180B0CF005FE3D490860012213
:1033600008460168104605F09EFE012238480068B4
:103370004142022005F097FE012235480068414293
:10338000032005F090FE012231480168042005F079
:103390008AFE10E00121084605F073FF012102209A
:1033A00005F06FFF0121032005F06BFF01210420D0
:1033B00005F067FF00BF00BF00BF214890F825025D
:1033C0001A2821D2DFE800F0200D21485E74A4D62F
:1033D000FDFCFBFAF9F8F7F6F5F4F3F2F1F0EFEE95
:1033E000EDEC15480DF070FAB0EE408AF0EE608A10
:1033F00051EC180B0CF0D5FD164908700846017801
:103400000122104603F07EFC9CE20B480DF05CFAB2
:10341000B0EE408AF0EE608A51EC180B0CF0C1FD62
:103420000C4981F85800084690F8581001220220F3
:1034300003F068FC86E2000079030020D828002011
:10344000520100203100002098000020940000204C
:1034500090000020C82F0020F7480DF035FAB0EE9C
:10346000408AF0EE608A51EC180B0CF09AFDF3499B
:1034700081F8B000084690F8B0100122032003F054
:1034800041FC5FE2EC480DF01FFAB0EE408AF0EE2E
:10349000608A51EC180B0CF084FDE84981F80801B2
:1034A000084690F808110122042003F02BFC49E2A1
:1034B000E2480078022813D1DF480DF005FAB0EE9B
:1034C000408AF0EE608A51EC180B0CF04BFDDC49A1
:1034D0000860012208460168104603F098FF16E0D4
:1034E000D6480078052812D1D3480DF0EDF9B0EE9A
:1034F000408AF0EE608A51EC180B0CF033FDD14994
:103500000860012208460168104603F0E2FD19E256
:10351000CA4890F85800022813D1C7480DF0D4F9D2
:10352000B0EE408AF0EE608A51EC180B0CF01AFDF8
:10353000C3490860012208460168022003F067FFC2
:1035400017E0BE4890F85800052812D1BA480DF08F
:10355000BBF9B0EE408AF0EE608A51EC180B0CF02B
:1035600001FDB8490860012208460168022003F005
:10357000B0FDE7E1B14890F8B000022826D1AE488E
:103580000DF0A2F9B0EE408AF0EE608A51EC180B13
:103590000CF0E8FCAA49086001220846016811E025
:1035A000BFE192E1A7E166E113E178E152E131E1A7
:1035B0001FE1FAE0E5E0D0E0BBE0A0E085E06AE0F2
:1035C0004FE01CE0032003F022FF17E09B4890F837
:1035D000B000052812D198480DF076F9B0EE408A77
:1035E000F0EE608A51EC180B0CF0BCFC95490860B9
:1035F000012208460168032003F06BFDA2E18F4819
:1036000090F80801022813D18B480DF05DF9B0EE57
:10361000408AF0EE608A51EC180B0CF0A3FC88494C
:103620000860012208460168042003F0F0FE17E05C
:10363000824890F80801052812D17F480DF044F91E
:10364000B0EE408AF0EE608A51EC180B0CF08AFC68
:103650007C490860012208460168042003F039FD16
:1036600070E175480DF030F9B0EE408AF0EE608AF6
:1036700051EC180B0CF076FC734908600846008882
:1036800000B26E4988800846B0F904100122104645
:1036900003F0B2FD56E168480DF016F9B0EE408A2D
:1036A000F0EE608A51EC180B0CF05CFC6649086087
:1036B0000846008801B26148A0F85C10B0F95C10BF
:1036C0000122022003F098FD3CE15B480DF0FCF87C
:1036D000B0EE408AF0EE608A51EC180B0CF042FC20
:1036E000594908600846008801B25448A0F8B4104F
:1036F000B0F9B4100122032003F07EFD22E14E4810
:103700000DF0E2F8B0EE408AF0EE608A51EC180B52
:103710000CF028FC4C4908600846008801B2474874
:10372000A0F80C11B0F90C110122042003F064FD83
:1037300008E141480DF0C8F8B0EE408AF0EE608A2A
:1037400051EC180B0CF00EFC4049086001220846B1
:103750000168104603F0E3FDF4E037480DF0B4F8DB
:10376000B0EE408AF0EE608A51EC180B0CF0FAFBD8
:1037700036490860012208460168022003F0CFFDA7
:10378000E0E02D480DF0A0F8B0EE408AF0EE608A3F
:1037900051EC180B0CF0E6FB2C490860012208469E
:1037A0000168032003F0BBFDCCE023480DF08CF84A
:1037B000B0EE408AF0EE608A51EC180B0CF0D2FBB0
:1037C00022490860012208460168042003F0A7FD91
:1037D000B8E01F4890F8280208B1012000E000205E
:1037E00016498870084681780122104603F068FB6C
:1037F000A8E0174890F8280208B1012100E0002154
:103800000E4880F85A1090F85A100122022003F056
:1038100057FB97E00E4890F8280208B1012100E01C
:103820000021064880F8B21090F8B210012203205F
:1038300003F046FB86E0000079030020C82F00203B
:103840006400002058000020600000206800002074
:1038500052010020FE4890F8280208B1012100E042
:103860000021FC4880F80A1190F80A110122042076
:1038700003F026FB66E0F64890F8280238B10121F3
:10388000084603F046FB0120F249487006E001219A
:10389000084603F0B9FB0020EE49487052E0EC48BE
:1038A00090F8280240B10121022003F032FB0121EF
:1038B000E84880F8591007E00121022003F0A4FB3A
:1038C0000021E44880F859103CE0E14890F82802D3
:1038D00040B10121032003F01CFB0121DD4880F8E9
:1038E000B11007E00121032003F08EFB0021D9482D
:1038F00080F8B11026E0D64890F8280240B10121A6
:10390000042003F006FB0121D24880F8091107E0EA
:103910000121042003F078FB0021CE4880F8091132
:1039200010E00121084603F06FFB0121022003F0A3
:103930006BFB0121032003F067FB0121042003F04E
:1039400063FB00BF00BF00BF0020C34908702021F7
:10395000C2480CF0ECFABDEC028B70BD10B5044609
:10396000BF48C07A50B92146BE4808F0E6F90121A7
:10397000BC4808F0C1F90120B949C87210BD10B5A2
:103980000024EE222146641CB7484254B12221464D
:10399000641C425410222146641C425400222146D9
:1039A000641C42542146641C42542146641C425407
:1039B00005222146641C425401222046611CCCB2DF
:1039C000A9490A54FF222046611CCCB2A6490A54D8
:1039D000FC222046611CCCB2A3490A54FF22204697
:1039E000611CCCB2A0490A542046611CCCB29E494D
:1039F0000A549E480078092881F0B484DFE810F06A
:103A0000B20C09006A006B006C00CA04B20CB20C64
:103A10001809EE222046611CCCB293490A54B12207
:103A20002046611CCCB290490A5412222046611CE7
:103A3000CCB28D490A5400222046611CCCB28A497E
:103A40000A5401222046611CCCB287490A54002244
:103A50002046611CCCB284490A5415222046611CC0
:103A6000CCB281490A5400222046611CCCB27E4966
:103A70000A547FA2AFF6582182480CF00FFF81480C
:103A80000CF060FAC2B22046611CCCB276490A54EE
:103A900008197C490CF05DFA7A480CF053FA20447E
:103AA000C4B2FF222046611CCCB26F490A54FC22EA
:103AB0002046611CCCB26C490A54FF222046611C8E
:103AC000CCB269490A542046611CCCB266490A54FA
:103AD00001F049BCFCE7FBE7EE222046611CCCB2BA
:103AE00061490A54B1222046611CCCB25E490A5495
:103AF00012222046611CCCB25B490A5400222046A7
:103B0000611CCCB258490A5404222046611CCCB234
:103B100055490A545C48807800287DD00022204610
:103B2000611CCCB250490A5404222046611CCCB21C
:103B30004D490A5400222046611CCCB24A490A541D
:103B40005148827851A152480CF0A8FE50480CF020
:103B5000F9F9C2B22046611CCCB243490A54081993
:103B60004B490CF0F6F94A480CF0ECF92044C4B289
:103B700000222046611CCCB23B490A540822204650
:103B8000611CCCB238490A5400222046611CCCB2D8
:103B900035490A543C48B0F91E203CA13C480CF081
:103BA0007DFE3B480CF0CEF9C2B22046611CCCB27F
:103BB0002D490A54081936490CF0CBF934480CF059
:103BC000C1F92044C4B200222046611CCCB226496F
:103BD0000A540C222046611CCCB223490A5400220C
:103BE0002046611CCCB220490A542748826927A18B
:103BF00027480CF053FE26480CF0A4F9C2B2204628
:103C0000611CCCB218490A54081921490CF0A1F9D9
:103C10001F480CF097F900E08EE02044C4B2002267
:103C20002046611CCCB210490A5411222046611C66
:103C3000CCB20D490A5400222046611CCCB20A497C
:103C40000A541148B0F8A22010A1114822E0000047
:103C500052010020C82F00201D0000207203002008
:103C6000D2030020A0600240720200201C0000204D
:103C70007E7E7E7E7E285E405F405E297E7E7E7EEA
:103C80007E00000078280020D8280020256400004D
:103C9000582800200CF002FEFE480CF053F9C2B286
:103CA0002046611CCCB2FC490A540819F9490CF0B1
:103CB00050F9F8480CF046F92044C4B200222046DE
:103CC000611CCCB2F4490A5415222046611CCCB2C6
:103CD000F1490A5400222046611CCCB2EE490A5434
:103CE00001222046611CCCB2EB490A54EB48027811
:103CF0002046611CCCB2E8490A5400222046611CCF
:103D0000CCB2E5490A5419222046611CCCB2E249E2
:103D10000A5400222046611CCCB2DF490A54012219
:103D20002046611CCCB2DC490A54DC48427820466B
:103D3000611CCCB2D8490A54D84890F8DA0000285F
:103D40007DD000222046611CCCB2D3490A54052202
:103D50002046611CCCB2D0490A5400222046611C86
:103D6000CCB2CD490A54CD4890F8DA20AFF2E40144
:103D7000C8480CF093FDC7480CF0E4F8C2B22046E6
:103D8000611CCCB2C4490A540819C2490CF0E1F8CC
:103D9000C0480CF0D7F82044C4B200222046611C71
:103DA000CCB2BD490A5409222046611CCCB2BA49A2
:103DB0000A5400222046611CCCB2B7490A54B748C5
:103DC000B0F9F620AFF23C11B2480CF067FDB148F3
:103DD0000CF0B8F8C2B22046611CCCB2AE490A540D
:103DE0000819AC490CF0B5F8AA480CF0ABF820441F
:103DF000C4B200222046611CCCB2A7490A540D224D
:103E00002046611CCCB2A4490A5400222046611C01
:103E1000CCB2A1490A54A148D0F8F020AFF29411D5
:103E20009C480CF03BFD9B480CF08CF8C2B220463D
:103E3000611CCCB298490A540819964900E072E016
:103E40000CF087F893480CF07DF82044C4B20022AF
:103E50002046611CCCB290490A5412222046611CB3
:103E6000CCB28D490A5400222046611CCCB28A494A
:103E70000A548A48B0F87A21AFF2F01185480CF064
:103E80000DFD84480CF05EF8C2B22046611CCCB235
:103E900081490A5408197F490CF05BF87D480CF001
:103EA00051F82044C4B200222046611CCCB27A49A9
:103EB0000A5416222046611CCCB277490A540022CB
:103EC0002046611CCCB274490A5401222046611C70
:103ED000CCB271490A54714890F8D8202046611C30
:103EE000CCB26D490A5400222046611CCCB26A490A
:103EF0000A541A222046611CCCB267490A54002297
:103F00002046611CCCB264490A5401222046611C3F
:103F1000CCB261490A54614890F8D9202046611C0E
:103F2000CCB25D490A545D4890F8B20100287DD0BA
:103F300000222046611CCCB257490A540622204672
:103F4000611CCCB254490A5400222146601CC4B200
:103F500051484254514890F8B221AFF2D0214D4817
:103F60000CF09CFC4B480BF0EDFFC2B22046611CEC
:103F7000CCB249490A54081946490BF0EAFF4548B2
:103F80000BF0E0FF2044C4B200222046611CCCB2FA
:103F900041490A540A222046611CCCB23E490A54C7
:103FA00000222046611CCCB23B490A543B48B0F980
:103FB000CE21AFF2283137480CF070FC35480BF0B9
:103FC000C1FFC2B22046611CCCB233490A54081961
:103FD00030490BF0BEFF2F480BF0B4FF2044C4B2B1
:103FE00000222046611CCCB22B490A540E222046E6
:103FF000611CCCB228490A5400222046611CCCB274
:1040000025490A542548D0F8C821AFF2803121480B
:104010000CF044FC1F480BF095FFC2B22046611C17
:10402000CCB21D490A5408191A4900E079E00BF096
:1040300090FF18480BF086FF2044C4B200222046AF
:10404000611CCCB214490A5413222046611CCCB224
:1040500011490A5400222046611CCCB20E490A5470
:104060000E48B0F85222AFF2DC310A480CF016FCD0
:1040700008480BF067FFC2B22046611CCCB206496B
:104080000A54081903490BF064FF02480BF05AFF69
:10409000204405E05828002072020020D828002083
:1040A000C4B200222046611CCCB2FE490A54172239
:1040B0002046611CCCB2FB490A5400222046611CF8
:1040C000CCB2F8490A5401222046611CCCB2F54911
:1040D0000A54F54890F8B0212046611CCCB2F14951
:1040E0000A5400222046611CCCB2EE490A541B221D
:1040F0002046611CCCB2EB490A5400222046611CC8
:10410000CCB2E8490A5401222046611CCCB2E549F0
:104110000A54E54890F8B1212046611CCCB2E1492F
:104120000A54E14890F88A0200287DD000222046F7
:10413000611CCCB2DB490A5407222046611CCCB278
:10414000D8490A5400222046611CCCB2D5490A54F1
:10415000D54890F88A22AFF2CC41D4480CF09EFBAF
:10416000D2480BF0EFFEC2B22046611CCCB2CD4962
:104170000A540819CD490BF0ECFECC480BF0E2FED6
:104180002044C4B200222046611CCCB2C5490A5466
:104190000B222046611CCCB2C2490A5400222046A0
:1041A000611CCCB2BF490A54BF48B0F9A622AFF295
:1041B0002451BE480CF072FBBC480BF0C3FEC2B2E7
:1041C0002046611CCCB2B7490A540819B7490BF014
:1041D000C0FEB6480BF0B6FE2044C4B20022204612
:1041E000611CCCB2AF490A540F222046611CCCB2EC
:1041F000AC490A5400222046611CCCB2A9490A5499
:10420000A948D0F8A022AFF27C51A8480CF046FB98
:10421000A6480BF097FEC2B22046611CCCB2A14961
:104220000A540819A14900E072E00BF092FE9F4881
:104230000BF088FE2044C4B200222046611CCCB2A0
:1042400098490A5414222046611CCCB295490A545C
:1042500000222046611CCCB292490A549248B0F820
:104260002A23AFF2D85191480CF018FB8F480BF07D
:1042700069FEC2B22046611CCCB28A490A540819B0
:104280008A490BF066FE89480BF05CFE2044C4B2FC
:1042900000222046611CCCB282490A5418222046D2
:1042A000611CCCB27F490A5400222046611CCCB26A
:1042B0007C490A5401222046611CCCB279490A5437
:1042C000794890F888222046611CCCB275490A547E
:1042D00000222046611CCCB272490A541C2220469E
:1042E000611CCCB26F490A5400222046611CCCB23A
:1042F0006C490A5401222046611CCCB269490A5417
:10430000694890F889222046611CCCB265490A545C
:1043100000222046611CCCB262490A541022204679
:10432000611CCCB25F490A5400222046611CCCB209
:104330005C490A545E4A5FA15C480CF0AFFA5B48E6
:104340000BF000FEC2B22046611CCCB255490A54A3
:10435000081956490BF0FDFD54480BF0F3FD2044BD
:10436000C4B2FF222046611CCCB24E490A54FC2242
:104370002046611CCCB24B490A54FF222046611CE6
:10438000CCB248490A542046611CCCB245490A5473
:1043900000F0E9BFEE222046611CCCB241490A542C
:1043A000B1222046611CCCB23E490A54122220465A
:1043B000611CCCB23B490A5400222046611CCCB29D
:1043C00038490A5405222046611CCCB235490A54AA
:1043D000354890F8620300286ED000222046611C08
:1043E000CCB230490A5404222046611CCCB22D497B
:1043F0000A5400222046611CCCB22A490A542A4899
:1044000090F86223AFF27C7128480CF047FA2748F5
:104410000BF098FDC2B22046611CCCB221490A546F
:10442000081922490BF095FD20480BF08BFD204424
:10443000C4B200222046611CCCB21A490A54082298
:104440002046611CCCB217490A5400222046611C48
:10445000CCB214490A541448B0F97E23AFF2D47197
:1044600012480CF01BFA11480BF06CFDC2B220464A
:10447000611CCCB20B490A5408190C490BF069FDB8
:104480000A480BF05FFD2044C4B200222046611CA4
:10449000CCB204490A540C222046611CCCB201491A
:1044A0000A540AE072020020D82800205828002070
:1044B00031000020257300008BE000222046611CA3
:1044C000CCB2FE490A54FE48D0F87823AFF6440136
:1044D000FC480CF0E3F9FB480BF034FDC2B2204677
:1044E000611CCCB2F5490A540819F6490BF031FDAC
:1044F000F4480BF027FD2044C4B200222046611C82
:10450000CCB2EE490A5411222146601CC4B2EB48D9
:10451000425400222146601CC4B2E8484254E84894
:10452000B0F80224AFF69C01E6480CF0B7F9E54874
:104530000BF008FDC2B22046611CCCB2DF490A5420
:104540000819E0490BF005FDDE480BF0FBFC2044A8
:10455000C4B200222046611CCCB2D8490A541522AC
:104560002046611CCCB2D5490A5400222046611C69
:10457000CCB2D2490A5401222046611CCCB2CF49A8
:104580000A54CF4890F860232046611CCCB2CB4936
:104590000A5400222046611CCCB2C8490A54192290
:1045A0002046611CCCB2C5490A5400222046611C39
:1045B000CCB2C2490A5401222046611CCCB2BF4988
:1045C0000A54BF4890F861232046611CCCB2BB4915
:1045D0000A54BB4890F83A0400287DD000222046B7
:1045E000611CCCB2B5490A5405222046611CCCB2EC
:1045F000B2490A5400222046611CCCB2AF490A5489
:10460000AF4890F83A24AFF67C11AE480CF046F96A
:10461000AC480BF097FCC2B22046611CCCB2A74953
:104620000A540819A7490BF094FCA6480BF08AFC21
:104630002044C4B200222046611CCCB29F490A54D7
:1046400009222046611CCCB29C490A540022204613
:10465000611CCCB299490A549948B0F95624AFF676
:10466000D41198480CF01AF996480BF06BFCC2B2C2
:104670002046611CCCB291490A54081991490BF0AB
:1046800068FC90480BF05EFC2044C4B20022204637
:10469000611CCCB289490A540D222046611CCCB25F
:1046A00086490A5400222046611CCCB283490A5430
:1046B0008348D0F85024AFF62C2182480CF0EEF855
:1046C00080480BF03FFCC2B22046611CCCB27B4953
:1046D0000A5408197B4900E072E00BF03AFC794873
:1046E0000BF030FC2044C4B200222046611CCCB246
:1046F00072490A5412222046611CCCB26F490A54F6
:1047000000222046611CCCB26C490A546C48B0F8B7
:10471000DA24AFF688216B480CF0C0F869480BF03A
:1047200011FCC2B22046611CCCB264490A5408197B
:1047300064490BF00EFC63480BF004FC2044C4B247
:1047400000222046611CCCB25C490A541622204645
:10475000611CCCB259490A5400222046611CCCB2DB
:1047600056490A5401222046611CCCB253490A54CE
:10477000534890F838242046611CCCB24F490A5463
:1047800000222046611CCCB24C490A541A22204611
:10479000611CCCB249490A5400222046611CCCB2AB
:1047A00046490A5401222046611CCCB243490A54AE
:1047B000434890F839242046611CCCB23F490A5442
:1047C0003F4890F8120500287ED000222046611C48
:1047D000CCB23A490A5406222046611CCCB2374971
:1047E0000A5400222046611CCCB234490A54344891
:1047F00090F81225AFF66C3132480CF04FF8314882
:104800000BF0A0FBC2B22046611CCCB22B490A546B
:1048100008192C490BF09DFB2A480BF093FB204410
:10482000C4B200222046611CCCB224490A540A2298
:104830002046611CCCB221490A5400222046611C4A
:10484000CCB21E490A541E48B0F92E25AFF6C43129
:104850001C480CF023F81B480BF074FBC2B2204636
:10486000611CCCB215490A54081916490BF071FBAA
:1048700014480BF067FB2044C4B200222046611CA0
:10488000CCB20E490A540E222046611CCCB20B4910
:104890000A5400222046611CCCB208490A54084838
:1048A000D0F82825AFF61C4106480BF0F7FF054865
:1048B0000BF048FBC2B22046611C06E072020020E9
:1048C000D82800205828002077E0CCB2FE490A54AE
:1048D0000819FE490BF03DFBFC480BF033FB20446C
:1048E000C4B200222046611CCCB2F7490A541322FC
:1048F0002046611CCCB2F4490A5400222046611CB7
:10490000CCB2F1490A54F248B0F8B225AFF684416E
:10491000EE480BF0C3FFED480BF014FBC2B220468B
:10492000611CCCB2E8490A540819E8490BF011FBA4
:10493000E6480BF007FB2044C4B200222046611C6D
:10494000CCB2E1490A5417222046611CCCB2DE49A0
:104950000A5400222046611CCCB2DB490A540122D1
:104960002046611CCCB2D8490A54D94890F8102589
:104970002046611CCCB2D4490A5400222046611C56
:10498000CCB2D1490A541B222046611CCCB2CE497C
:104990000A5400222146601CC4B2CB484254012272
:1049A0002046611CCCB2C8490A54C94890F8112568
:1049B0002046611CCCB2C4490A54C54890F8EA05A7
:1049C00000287DD000222046611CCCB2BE490A548A
:1049D00007222046611CCCB2BB490A540022204663
:1049E000611CCCB2B8490A54B94890F8EA25AFF630
:1049F0006451B6480BF052FFB4480BF0A3FAC2B2B0
:104A00002146601CC4B2B048425401460819AF495F
:104A10000BF09FFAAD480BF095FA2044C4B2002287
:104A20002046611CCCB2A8490A540B222046611CC6
:104A3000CCB2A5490A5400222046611CCCB2A2493E
:104A40000A54A348B0F90626AFF6C0519F480BF0B0
:104A500025FF9E480BF076FAC2B22046611CCCB20C
:104A600099490A54081999490BF073FA97480BF0C1
:104A700069FA2044C4B200222046611CCCB292499B
:104A80000A540F222146601CC4B28F4842540022AF
:104A90002046611CCCB28C490A548D48D0F80026BF
:104AA000AFF6186189480BF0F9FE88480BF04AFA16
:104AB000C2B22046611CCCB283490A54081900E0F6
:104AC00073E082490BF045FA80480BF03BFA204432
:104AD000C4B200222046611CCCB27B490A54142285
:104AE0002146601CC4B27848425400222046611C12
:104AF000CCB275490A547648B0F88A26AFF674618C
:104B000072480BF0CBFE71480BF01CFAC2B2204683
:104B1000611CCCB26C490A5408196C490BF019FAA3
:104B20006A480BF00FFA2044C4B200222046611CF0
:104B3000CCB265490A5418222046611CCCB26249A5
:104B40000A5400222046611CCCB25F490A5401225B
:104B50002046611CCCB25C490A545D4890F8E825B7
:104B60002046611CCCB258490A5400222046611CE0
:104B7000CCB255490A541C222046611CCCB2524981
:104B80000A5400222046611CCCB24F490A5401222B
:104B90002046611CCCB24C490A544D4890F8E92596
:104BA0002046611CCCB248490A5400222046611CB0
:104BB000CCB245490A5410222046611CCCB242496D
:104BC0000A5400222146601CC4B23F484254414A64
:104BD000AFF220713D480BF061FE3C480BF0B2F99A
:104BE000C2B22146601CC4B237484254014608197B
:104BF00036490BF0AEF935480BF0A4F92044C4B2A5
:104C0000FF222046611CCCB22F490A54FC222046C8
:104C1000611CCCB22C490A54FF222146601CC4B24C
:104C2000294842542146601CC4B2274842549AE3A2
:104C3000EE222046611CCCB223490A54B122204600
:104C4000611CCCB220490A5412222046611CCCB20D
:104C50001D490A5400222046611CCCB21A490A544C
:104C600008222046611CCCB217490A541A48007821
:104C700000287DD000222046611CCCB212490A5483
:104C800001222046611CCCB20F490A540022204662
:104C9000611CCCB20C490A540F4802780FA10B4892
:104CA0000BF0FCFD09480BF04DF9C2B22046611C27
:104CB000CCB205490A54081904490BF04AF90348D3
:104CC0000BF040F920440BE072020020582800202D
:104CD000D828002031000020C82F002025640000C3
:104CE000C4B200222046611CCCB2FE490A540522FF
:104CF0002046611CCCB2FB490A5400222046611CAC
:104D0000CCB2F8490A54F8484269AFF23001F7488A
:104D10000BF0C4FDF5480BF015F9C2B22046611C3A
:104D2000CCB2F0490A540819F0490BF012F9EF48D7
:104D30000BF008F92044C4B200222046611CCCB21A
:104D4000E8490A5409222046611CCCB2E5490A54BC
:104D500000222046611CCCB2E2490A54E248B0F974
:104D60001020AFF28801E1480BF098FDDF4800E029
:104D70004EE00BF0E7F8C2B22046611CCCB2D94934
:104D80000A540819D9490BF0E4F8D8480BF0DAF8BE
:104D90002044C4B200222146601CC4B2D14842540F
:104DA00015222146601CC4B2CE484254002220463F
:104DB000611CCCB2CB490A5401222046611CCCB202
:104DC000C8490A54C84882782046611CCCB2C549FB
:104DD0000A5400222046611CCCB2C2490A54162251
:104DE0002046611CCCB2BF490A5400222046611CF7
:104DF000CCB2BC490A5401222046611CCCB2B9494C
:104E00000A54B94842782046611CCCB2B5490A54CC
:104E1000B54890F8580000287ED000222046611C3A
:104E2000CCB2B0490A5402222046611CCCB2AD4932
:104E30000A5400222046611CCCB2AA490A54AA484E
:104E400090F85820AFF26C11A8480BF027FDA74846
:104E50000BF078F8C2B22046611CCCB2A1490A54CA
:104E60000819A2490BF075F8A0480BF06BF8204424
:104E7000C4B200222046611CCCB29A490A540622D0
:104E80002046611CCCB297490A5400222046611C7E
:104E9000CCB294490A549448C26EAFF2C011934800
:104EA0000BF0FCFC91480BF04DF8C2B22046611C9F
:104EB000CCB28C490A5408198C490BF04AF88B483B
:104EC0000BF040F82044C4B200222046611CCCB252
:104ED00084490A540A222046611CCCB281490A54F2
:104EE00000222146601CC4B27E4842547E48B0F97C
:104EF0006820AFF218217D480BF0D0FC7B480BF006
:104F000021F8C2B22046611CCCB276490A54081975
:104F100076490BF01EF800E044E074480BF012F8FC
:104F20002044C4B200222046611CCCB26D490A5410
:104F300011222046611CCCB26A490A540022204644
:104F4000611CCCB267490A5401222046611CCCB2D4
:104F500064490A54644890F85A202046611CCCB237
:104F600060490A5400222046611CCCB25D490A54B3
:104F700014222046611CCCB25A490A540022204611
:104F8000611CCCB257490A5401222146601CC4B2AC
:104F900054484254544890F859202146601CC4B2E9
:104FA00050484254504890F8B00000287DD000226C
:104FB0002046611CCCB24B490A5403222046611C96
:104FC000CCB248490A5400222046611CCCB2454963
:104FD0000A54454890F8B020AFF2003143480BF036
:104FE0005DFC42480AF0AEFFC2B22046611CCCB262
:104FF0003C490A5408193D490AF0ABFF3B480AF006
:10500000A1FF2044C4B200222046611CCCB2354925
:105010000A5407222046611CCCB232490A540022AD
:105020002046611CCCB22F490A542F48D0F8C42026
:10503000AFF258312D480BF031FC2C480AF082FFBA
:10504000C2B22046611CCCB226490A54081927492D
:105050000AF07FFF25480AF075FF2044C4B2002201
:105060002046611CCCB21F490A540B222046611C09
:10507000CCB21C490A5400222146601CC4B2194813
:1050800042541948B0F9C020AFF2B03117480BF0C4
:1050900005FC16480AF056FFC2B22046611CCCB28D
:1050A00010490A540819114900E04DE00AF051FF77
:1050B0000E480AF047FF2044C4B200222046611C7B
:1050C000CCB208490A5412222046611CCCB20549D0
:1050D0000A5400222046611CCCB202490A54012223
:1050E000204605E072020020C82F0020582800202A
:1050F000611CCCB29E490A549E4890F8B2202046CA
:10510000611CCCB29A490A5400222046611CCCB2E0
:1051100097490A5418222046611CCCB294490A547B
:1051200000222046611CCCB291490A54012221463A
:10513000601CC4B28E4842548E4890F8B12020467C
:10514000611CCCB28A490A548A4890F808010028A8
:105150007ED000222046611CCCB285490A5404222C
:105160002046611CCCB282490A5400222046611CB0
:10517000CCB27F490A547F4890F80821AFF2A4418D
:105180007D480BF08BFB7C480AF0DCFEC2B2204667
:10519000611CCCB276490A54081977490AF0D9FE45
:1051A00075480AF0CFFE2044C4B200222046611C9C
:1051B000CCB26F490A5408222046611CCCB26C491B
:1051C0000A5400222046611CCCB269490A5469483D
:1051D000D0F81C21AFF2FC4167480BF05FFB66483A
:1051E0000AF0B0FEC2B22046611CCCB260490A543B
:1051F000081961490AF0ADFE5F480AF0A3FE204499
:10520000C4B200222046611CCCB259490A540C2277
:105210002046611CCCB256490A5400222046611C2B
:10522000CCB253490A545348B0F91821AFF2545143
:1052300051480BF033FB50480AF084FEC2B22146BD
:10524000601CC4B24A484254014608194A4900E069
:1052500046E00AF07EFE48480AF074FE2044C4B2DC
:1052600000222046611CCCB241490A541322214637
:10527000601CC4B23E48425400222046611CCCB29D
:105280003B490A5401222046611CCCB238490A54D9
:10529000384890F80A212146601CC4B23448425470
:1052A00000222046611CCCB231490A541722204604
:1052B000611CCCB22E490A5400222146601CC4B2A3
:1052C0002B48425401222046611CCCB228490A5482
:1052D000284890F809212146601CC4B22448425451
:1052E00000222046611CCCB221490A541E222046CD
:1052F000611CCCB21E490A5400222046611CCCB26B
:105300001B490A541D481EA102681B480BF0C6FA2F
:1053100019480AF017FEC2B22046611CCCB21449EB
:105320000A54081914490AF014FE13480AF00AFE38
:105330002044C4B2FF222046611CCCB20C490A545E
:10534000FC222146601CC4B209484254FF22204678
:10535000611CCCB206490A542046611CCCB20449F7
:105360000A5400E000BF00BF2046FEF7F7FA10BD68
:1053700072020020C82F0020582800206C00002056
:105380002523580A0000000000B597B00121042031
:1053900007F05EF80121880407F08DF80121480527
:1053A00007F056F807220A21634806F096FE072206
:1053B0000B21614806F091FE4FF4406011900220ED
:1053C0008DF8480000208DF84A0003208DF8490030
:1053D00000208DF84B0011A9574806F0F3FD4FF45B
:1053E000E13013900020ADF85000ADF85200ADF858
:1053F0005400ADF858000C20ADF8560013A94F48E2
:1054000008F004F8012240F225514C4808F03CF91C
:1054100027208DF8400004208DF8410000208DF8F1
:10542000420001208DF8430010A805F026FE4448F4
:1054300006F086FB4FF000600190002005904020B0
:105440000490404803903D48001D029000150790CD
:1054500000200690099008900A904FF440300B907D
:1054600000200C9001200D9000200F900E9001A9BB
:10547000334806F007FC3449314806F0B6FC32499F
:105480002F4806F00DFD0E208DF8400002208DF80B
:10549000410004208DF8420001208DF8430010A83F
:1054A00005F0EBFD01221021254806F0B2FC012297
:1054B0008021224808F0DFF817B000BD10B522495E
:1054C0001F4806F0C3FC01280AD11F491C4806F0FA
:1054D0008CFC1D491A4806F0E3FC00201B490873A8
:1054E00010BD70B504460D461848007B78B92A46B1
:1054F000214614480AF002FD2946114806F01DFC19
:1055000001210F4806F0F8FB01201049087370BD17
:1055100010B540F22551094808F0F1F850B12021AA
:10552000064808F0E3F840F22551044808F01EF957
:1055300004F0D4FF10BD0000000802400048004005
:10554000586002409203002000800018D20300201F
:10555000002282610160C26100230362436280ED28
:10556000031A80ED010AC0ED020AC0ED041A70476B
:1055700001688269891AC161C269016A511A00EE23
:10558000101AB8EEC00AD0ED010A20EE200A90ED04
:10559000021AC16900EE901AF8EEE00A01EE200A44
:1055A000C269416A0A44016AA2EB410100EE901A05
:1055B000F8EEE00A90ED031A01EE200ABDEEC00AF3
:1055C00010EE101A4161026A4262C26902627047BB
:1055D0002DE9F04186B004460D4616461F464FF0B1
:1055E000000800208DF80C008DF80D0008208DF8C3
:1055F0000E0040F2FF18CDF80480042001F024F8DA
:1056000050B9884890F86003012805D1200A8DF828
:105610000F008DF8104005E000208DF80F000021EC
:105620008DF81010052001F00FF850B97D4890F862
:105630003804012805D1290A8DF811108DF812506F
:1056400004E000218DF811108DF81210062000F0F2
:10565000FBFF50B9734890F81005012805D1310AB5
:105660008DF813108DF8146004E000218DF81310EC
:105670008DF81410072000F0E7FF50B9694890F842
:10568000E805012805D1390A8DF815108DF8167036
:1056900004E000218DF815108DF8161001A962485C
:1056A00005F0E8FE06B0BDE8F0812DE9F04186B0D6
:1056B00004460D4616461F464FF0000800208DF8A0
:1056C0000C008DF80D0008208DF80E004FF40078C6
:1056D000CDF80480002000F0B7FF48B951480078A9
:1056E000012805D1200A8DF80F008DF8104005E043
:1056F00000208DF80F0000218DF81010012000F01F
:10570000A3FF50B9474890F8D800012805D1290ACD
:105710008DF811108DF8125004E000218DF8111051
:105720008DF81210022000F08FFF50B93D4890F81C
:10573000B001012805D1310A8DF813108DF81460DD
:1057400004E000218DF813108DF81410032000F0F0
:105750007BFF50B9334890F88802012805D1390AF7
:105760008DF815108DF8167004E000218DF81510D5
:105770008DF8161001A92C4805F07CFE06B0BDE896
:10578000F08100204BE000EBC00101EB4101254A14
:1057900002EBC101B1F90810002908DD00EBC001DE
:1057A00001EB410102EBC101B1F9081009E000EB86
:1057B000C00101EB41011B4A02EBC101B1F9081024
:1057C000494200EBC00202EB4202164B03EBC2025D
:1057D000B2F8D020914220DD00EBC00101EB410185
:1057E0001A4602EBC101B1F90810002902DA4FF0A4
:1057F000FF3100E0012100EBC00202EB4202094B45
:1058000003EBC202B2F8D02051430AB200EBC00150
:1058100001EB410103EBC1010A81411CC8B2082818
:10582000B1DB7047D82800200068004010B54FF465
:105830000050FE490880FE4908801320FB4988700B
:105840002420FB49887043F69910F849888042F279
:105850002830F7498880B7EE000AF44880ED020A44
:105860009FEDF40A084680ED020A0020F249087014
:105870009FEDF20A084680ED010A012008724FF4FC
:105880007A704881012008734FF47A70C881400013
:105890000882012088740020C8744FF4FA60E84937
:1058A000888300204860E748E14B0ECB4C300EC0A7
:1058B0000020E44980390870487005208870002075
:1058C00048606421DF488038418132210181C1680C
:1058D000DFEDDD1A9FEDDD1ADFEDDD0AB0EE0C0A1B
:1058E0004830FFF735FED7488038B0F90A10F7EE98
:1058F000001A9FEDD81ADFEDD80AB1EE040A703015
:10590000FFF726FE1422CC49CE4818300AF0F6FAEA
:10591000CC48D830C64B0ECB4C300EC00020C94905
:10592000803981F8D8000021C648803880F8D91025
:10593000052180F8DA100021C0F8DC106421A0F8FD
:10594000E2103221A0F8E010C168DFEDBF1A9FED30
:10595000BF1ADFEDBF0AB0EE0C0A00F59070FFF73A
:10596000F7FDB8488038B0F90A10F7EE001A9FED3D
:10597000B91ADFEDB90AB1EE040A00F5A470FFF719
:10598000E7FD1422AC49AF48F0300AF0B7FAB3484B
:10599000A74B0ECB4C300EC00020AA49803981F8AD
:1059A000B0010021A748803880F8B111052180F8A6
:1059B000B2110021C0F8B4116421A0F8BA1132214B
:1059C000A0F8B811C168DFEDA01A9FEDA01ADFEDB5
:1059D000A00AB0EE0C0A00F5FC70FFF7B9FD99487B
:1059E0008038B0F90A10F7EE001A9FED9A1ADFED31
:1059F0009A0AB1EE040A00F50870FFF7A9FD142217
:105A00008D49964818300AF079FA9448D830884B76
:105A10000ECB4C300EC000208A49803981F88802B4
:105A200000218848803880F88912052180F88A1280
:105A30000021C0F88C126421A0F892123221A0F843
:105A40009012C168DFED801A9FED801ADFED800AA9
:105A5000B0EE0C0A00F53470FFF77AFD7948803813
:105A6000B0F90A10F7EE001A9FED7A1ADFED7A0A04
:105A7000B1EE040A00F53E70FFF76AFD14226E498C
:105A80007648F0300AF03AFA7548684B0ECB4C3045
:105A90000EC000206B49803981F8600300216948FD
:105AA000803880F86113052180F862136FF01201CD
:105AB000C0F864136421A0F86A133221A0F86813B7
:105AC000C168DFED611A9FED611ADFED630AB2EE86
:105AD000000A00F56A70FFF73BFD5A488038B0F9BC
