:020000040800F2
:10000000E0A400200DBF0008C58E0008C78E0008C0
:10001000D98E0008DD8E0008E18E00080000000087
:10002000000000000000000000000000E58E000855
:10003000E78E00080000000077E10008DBE300081D
:1000400027BF000827BF000827BF000827BF0008F8
:1000500027BF000827BF000827BF000827BF0008E8
:1000600027BF000827BF000827BF000827BF0008D8
:1000700027BF000827BF00084141000827BF00082C
:1000800027BF0008951D000827BF000827BF0008EC
:100090001309000827BF000827BF000827BF000872
:1000A00027BF000827BF000827BF000827BF000898
:1000B0003D030008AB05000827BF000827BF000864
:1000C00027BF000827BF000827BF000827BF000878
:1000D00027BF000827BF0008BB1D00089541000886
:1000E00027BF000827BF000827BF000827BF000858
:1000F00027BF000827BF000827BF000827BF000848
:1001000027BF000827BF000827BF000827BF000837
:1001100027BF000827BF000827BF000827BF000827
:1001200027BF000827BF000827BF000827BF000817
:1001300027BF000827BF000827BF000827BF000807
:100140008D0F0008E111000827BF000827BF000835
:1001500027BF000827BF0008851C000827BF00082C
:1001600027BF000827BF000827BF000827BF0008D7
:1001700027BF000827BF000827BF000827BF0008C7
:1001800027BF000827BF0008DFF80CD00EF09EFB49
:1001900000480047ED1A0008E0A4002030BF72B606
:1001A000704762B6704780F30888704710B5082022
:1001B0000FF010F8044600206060204610BD0120BA
:1001C00044494871704710B505F070FA424805F08F
:1001D000D4FA06F0F1FE404806F085FF04F042F93B
:1001E00006F070FCFFF7EBFF002019E0002100EBA8
:1001F00080023A4B03EB4202517000EB800203EBAA
:10020000420291714FF47A7100EB800203EB4202DB
:100210005180002100EB800203EB42029180401CE0
:100220000228E3DBFFF7C2FF2D49486010BD002222
:100230000A7803780B700270704770B506460C465A
:10024000354600E06D6815B16868A042FAD14CB13E
:100250006068686020460EF095FF21480078401ED7
:100260001F49087070BD02460B46114605E008881C
:10027000984201D10846704749680029F7D100200B
:10028000F9E72DE9F041074688463C4641462046BD
:10029000FFF7E9FF08B1BDE8F081002602E06468DD
:1002A000701CC6B20E480078B04201DD002CF6D1B9
:1002B0006CB108200EF08EFF0546A5F8008060683E
:1002C0006860656006480078401C0549087000BFFA
:1002D000E1E70000CE03002000680040300100206C
:1002E000040000201FB5012108460AF09CFB954838
:1002F00002900B20ADF804000020ADF80600ADF828
:100300000C0001A94FF080400AF045FD0122114682
:1003100090070BF0E1F9012188070AF0C5FD1C20C8
:100320008DF8000002208DF801008DF802000120F8
:100330008DF80300684609F058F91FBD10B501217A
:1003400088070BF0E0F9012875D100246FE0C4EBB9
:10035000C40000EB40007C4901EB8000407800289D
:1003600064D00DF0C1FEC4EBC40101EB4101764A3B
:1003700002EB8101096C411AC4EBC40000EB4000A0
:1003800002EB8000B0F8440081421BD9C4EBC400EA
:1003900000EB4000114601EB800090F84700012877
:1003A00010D1C4EBC40000EB400001EB8000808F53
:1003B000401C81B2C4EBC40000EB400002EB8000A3
:1003C000818708E00021C4EBC40000EB40005E4AD6
:1003D00002EB80008187C4EBC40000EB40005A4967
:1003E00001EB8000808FB0F57A7F13DD0121C4EB33
:1003F000C40000EB4000544A02EB8000C1770220A9
:1004000008F04EFA032008F031FD4FF4FA7008F0BE
:100410004EFB0BE0002008F029FD0021C4EBC400D6
:1004200000EB4000484A02EB8000C177641C042CBA
:100430008DD3002405E07FE0204605F04EF8601CD7
:10044000C4B2082CF8DB002474E004EBC40000EB19
:1004500004103E4901EB80004078002868D00DF080
:1004600043FE04EBC40101EB0411384A02EB8101A5
:10047000096D411A04EBC40000EB041002EB80008C
:10048000B0F8540081421DD904EBC40000EB041005
:10049000114601EB800090F85700012812D104EBBF
:1004A000C40000EB041001EB8000B0F84C00401CCD
:1004B00081B204EBC40000EB041002EB8000A0F852
:1004C0004C1009E0002104EBC40000EB04101F4AAB
:1004D00002EB8000A0F84C1004EBC40000EB041009
:1004E0001A4901EB8000B0F84C00642813DD0121AB
:1004F00004EBC40000EB0410144A02EB800080F807
:100500002F10022008F0CCF9042008F0AFFCC8201E
:1005100008F0CDFA0CE0002008F0A8FC002104EB64
:10052000C40000EB0410094A02EB800080F82F1091
:10053000601CC4B2042C88DB012188070BF0F4F89E
:1005400010BD00005FAE0A00182D0020043000200E
:100550001FB5012102200AF066FA42F6DF60029020
:100560000720ADF804000020ADF80600ADF80C003F
:1005700001A942480AF00FFC012211463F480BF046
:10058000ABF801213D480AF08FFC1D208DF80000DA
:1005900001208DF8010000208DF8020001208DF867
:1005A0000300684609F021F81FBD10B5012133484A
:1005B0000BF0A9F801285FD104F03FFD002432E0E0
:1005C00004EB041000EB40002D4911F8200028B383
:1005D00004EB041000EB400001EB80004078F0B128
:1005E00004EB041000EB400001EB80008078012850
:1005F00006D0022805D004280BD005280DD104E030
:100600000CE020B204F054FA08E020B204F0A9FA99
:1006100004E020B204F062FC00E000BF02E020B27F
:1006200004F09FFA641C082CCADB03F0C5FE144CCE
:10063000B4F96A32B4F99E21B4F9D210B4F90600C3
:1006400003F061FEB4F99A35B4F9CE24B4F902147A
:10065000B4F9360303F0FEFD0A490B4808F057F8D9
:100660000A490B4808F053F80A49074808F04FF8C0
:10067000012102480BF058F810BD000000040040B2
:100680008C26002040590020006800405C57002064
:1006900000640040245B002000B58BB001214806B7
:1006A0000AF0C1F9012108460AF08AF909220B2152
:1006B000FA4809F0CAFF09220C21F84809F0C5FFE1
:1006C00002208DF81C004FF4C050069006A9F34894
:1006D00009F030FF00208DF826008DF827008DF8F6
:1006E00028008DF829008DF82A008DF82B008DF850
:1006F00022008DF8230008208DF8240003208DF8B7
:100700002500ADF8200008A9E54808F0F2FF002018
:100710008DF8120001208DF8130000208DF81400D0
:1007200046F2A000ADF8080046F2C000ADF80A009D
:1007300046F2E000ADF80C004FF4C240ADF80E00F8
:100740000020ADF8100001208DF8150002A809F076
:100750005AF803208DF8120001208DF813000020B4
:100760008DF814004FF4C840ADF8080046F22000A0
:10077000ADF80A0046F24000ADF80C0046F2600009
:10078000ADF80E000020ADF8100001208DF8150026
:1007900002A809F038F814208DF8040003208DF821
:1007A000050000208DF8060001208DF8070001A843
:1007B00008F01BFF01220221B94809F023FB0BB00E
:1007C00000BD10B50446B7484088401C1E2190FB70
:1007D000F1F201FB1200B3490988884203D10120DC
:1007E000B149887110BD20688038AE494A88091D1A
:1007F00001EB02110860A17AAA484288001D00EBB3
:1008000002100171A27AA7494B88091D01EB03115F
:10081000481D04F10B010DF029FEA2484088401C40
:100820001E2190FBF1F201FB12009E49488000BF9F
:10083000D8E710B501469B484088401C1E2290FB1B
:10084000F2F302FB1300974A1288904203D1012071
:10085000954A907110BDA1F18002924B5C881B1DDE
:1008600003EB04131A6005238E4A5488121D02EB11
:100870000412137142238B4A5488121D02EB041296
:100880005371884A5488121D02EB04129371472356
:10089000844A5488121D02EB0412D3714A1FD0B24D
:1008A00000EB001202EB4202804B03EB8202B2F932
:1008B000142000EE102AB8EEC00AF3EE0E0A20EE65
:1008C000200A00EB001202EB420203EB8202D2ED9F
:1008D000320A80EE201ABDEEC10A10EE102A12B2C2
:1008E000734B23F810201A4632F810306D4A5488A2
:1008F000121D02EB0412138100BF6A484088401C9D
:100900001E2290FBF2F302FB1300664A508000BFE8
:10091000A0E710B586B00221614809F0DBFA002893
:1009200075D002215E4809F070FB02215C4809F095
:10093000AEFA01AA00215A4809F049F99DF80C00C5
:10094000002864D19DF80D000028FAD140F205314D
:10095000019888420BD0491C0198884207D0491C55
:100960000198884203D00198B0F5427F7DD101986B
:10097000401FC4B29DF80F0043280FD19DF810000E
:1009800057280BD19DF81100482807D19DF8120077
:10099000552803D101A8FFF714FFD0E09DF80F0000
:1009A000432835D19DF81000482831D1BDF81100F9
:1009B0003F4921F81400084630F9140000EE100AEF
:1009C000F8EEC00AB3EE0E1A80EE810A04EB0410B2
:1009D00000EB4000354901EB8000D0ED320A20EEFB
:1009E000200ABDEEC00A10EE100A00B204EB04119A
:1009F00001EB41012D4A02EB81018880012004EBCB
:100A0000041101EB410102EB8101487097E019E10B
:100A10009DF80F00532818D19DF81000502814D1CC
:100A2000BDF81100234921F81400084630F81410CD
:100A300004EB041000EB40001C4A02EB8000A0F81D
:100A4000961001A8FFF7BDFE79E09DF80F004D2834
:100A500032D19DF810004F282ED19DF811000128A9
:100A60002AD1052004EB041100E069E001EB41010B
:100A70000E4A02EB81018870012004EB041101EBA6
:100A8000410102EB8101487004EB041101EB4101CB
:100A900002F8210001A8FFF794FE50E00000024098
:100AA000006400405C570020CE0300208C2600200C
:100AB0000C000020140000209DF80F004D2819D1D3
:100AC0009DF810004F2815D19DF8110090B9002015
:100AD00004EB041101EB4101604A02F8210004EB30
:100AE000041101EB410102EB8101487001A8FFF7FD
:100AF00068FE24E09DF80F00532810D19DF81000E7
:100B000054280CD1002004EB041101EB4101534A9D
:100B100002EB8101487001A8FFF753FE0FE09DF83A
:100B20000F0042280BD19DF81000422807D19DF8F4
:100B30001100472803D1019988B2FFF77AFE00BF60
:100B40000198B0F5487F7DD1BDF80F004449088079
:100B5000BDF811004880BDF813008880BDF815006D
:100B6000C8800846B0F9000000EE100AB8EEC00ACE
:100B7000B3EE0E1AC0EE010A384890ED320A20EEAC
:100B8000800ABDEEC00A10EE100A00B23349888018
:100B900001204870052088703148B0F9020000EE4D
:100BA000100AB8EEC00AB3EE0E1AC0EE010A0846EB
:100BB00090ED650A20EE800ABDEEC00A10EE100A24
:100BC00001B22648A0F8D010012180F8CD100521EF
:100BD00080F8CE102248B0F9040000EE100AB8EEFA
:100BE000C00AB3EE0E1AC0EE010A1C4890ED980A36
:100BF00020EE800ABDEEC00A10EE100A01B21748BE
:100C0000A0F89C11012180F89911052180F89A1112
:100C10001348B0F9040000EE100AB8EEC00AB3EEB3
:100C20000E1AC0EE010A0D4890EDCB0A20EE800AA4
:100C3000BDEEC00A10EE100A01B20848A0F8681212
:100C4000012100E007E080F86512052180F86612B6
:100C500001A8FFF7B6FD06B010BD00008C260020ED
:100C60000C0000202DE9F0418AB004460D461646DE
:100C70001F46DDF840800121022009F0A1FE01217C
:100C80004FF0C06009F0CFFEFE4808F019FD0922C0
:100C90000521FD4809F0D9FC09220621FA4809F08E
:100CA000D4FC02208DF824006020089008A9F648A2
:100CB00009F040FC40208DF8000002208DF8010072
:100CC00000208DF8020001208DF80300684608F02E
:100CD0008CFC41208DF8000002208DF801000120DD
:100CE0008DF802008DF80300684608F07EFC0020B5
:100CF0008DF81A008DF81B008DF81C008DF81D0072
:100D00008DF81E008DF81F008DF816808DF81740A5
:100D10008DF818608DF81950ADF8147005A9D948F0
:100D200008F0E7FC0E208DF80E0001208DF80F0072
:100D300000208DF8100044F22000ADF8040044F2C9
:100D40004000ADF8060044F26000ADF808004FF432
:100D50008140ADF80A000020ADF80C0001208DF8AC
:100D6000110001A808F04FFD0F208DF80E000120A2
:100D70008DF80F0000208DF8100044F2A000ADF8AF
:100D8000040044F2C000ADF8060044F2E000ADF803
:100D900008004FF48240ADF80A000020ADF80C00C6
:100DA00001208DF8110001A808F02DFD10208DF80C
:100DB0000E0001208DF80F0000208DF8100045F284
:100DC0002000ADF8040045F24000ADF8060045F201
:100DD0006000ADF808004FF4A140ADF80A00012012
:100DE000ADF80C008DF8110001A808F00CFD1120E1
:100DF0008DF80E0001208DF80F0000208DF81000F6
:100E000045F2A000ADF8040045F2C000ADF80600C0
:100E100045F2E000ADF808004FF4A240ADF80A003A
:100E20000120ADF80C008DF8110001A808F0EBFCD2
:100E300012208DF80E0001208DF80F0000208DF893
:100E400010004FF48150ADF804004FF48250ADF81B
:100E500006004FF48350ADF808004FF48450ADF80D
:100E60000A000120ADF80C008DF8110001A808F06F
:100E7000CAFC13208DF80E0001208DF80F00002011
:100E80008DF810004FF48550ADF804004FF48650F3
:100E9000ADF806004FF48750ADF808004FF48850C5
:100EA000ADF80A000120ADF80C008DF8110001A882
:100EB00008F0A9FC14208DF80E0000208DF80F001A
:100EC00001208DF810000020ADF804004FF4904090
:100ED000ADF806004FF6FF70ADF808004FF478400B
:100EE000ADF80A000120ADF80C008DF8110001A842
:100EF00008F089FC15208DF80E0001208DF80F00F8
:100F000000208DF810004BF22000ADF804004BF2E9
:100F10004000ADF806004BF26000ADF808004BF25F
:100F20008000ADF80A000120ADF80C008DF811002A
:100F300001A808F068FC16208DF80E0001208DF83D
:100F40000F0000208DF810004FF40150ADF80400A0
:100F50004FF40250ADF80600ADF80800ADF80A00F5
:100F60000120ADF80C008DF8110001A808F04BFC31
:100F700001221021434808F045FF01220221414887
:100F800008F040FF00200AB0BDE8F08110B586B03F
:100F900001AA00213B4808F01AFE9DF80C00002829
:100FA0007CD19DF80C00002878D19DF80E0008280F
:100FB00074D10198B0F5007F70D90198B0F5027F27
:100FC0006CD80198401EC4B2304850F82400304913
:100FD00041F824000DF088F82C4941F824009DF8D0
:100FE00012109DF8110041EA002001B204EB041038
:100FF00000EB4000274A02EB800001839DF81000BF
:101000009DF80F1040EA012001B204EB041000EB40
:10101000400002EB800001849DF814109DF813003D
:1010200041EA002001B204EB041000EB400002EBA7
:101030008000C1829DF8151004EB041000EB400005
:1010400002EB8000418404EB041000EB40001146E9
:1010500001EB8000C06900EE100AB8EEC00ADFEDB7
:101060000E0A60EE200A04EB041000EB400001EBD6
:10107000800090F8C20000EE100AB8EE401A80EE30
:10108000810A0CE00068004000040240FC030020DC
:10109000DC0300208C2600200000B44340E004EB79
:1010A000041000EB400001EB800090ED321AC0EE1E
:1010B000010A04EB041000EB400001EB8000B0F8E3
:1010C000C00000EE100AB8EE400A80EE801ABDEEB5
:1010D000C10A10EE100A00B204EB041101EB410149
:1010E00002EB8101888204EB041000EB4000114602
:1010F00001EB800090F83A0088B9012104EB04105C
:1011000000EB400002EB800080F83A10002104EB75
:10111000041000EB400002EB8000A0F8A81000BF14
:101120000221FE4808F071FF0221FC4808F0AFFEE2
:1011300006B010BDF0B585B007460D46002412205C
:101140000090019000208DF808008DF809008DF8BE
:101150000A5000BF05E0395D0DF10B000155601C20
:1011600084B2AC42F7DB6946EC4808F03BFC06462B
:10117000002401E0601C84B23146E84808F0CAFC53
:1011800018B940F6FF708442F4DB40F6FF708442E9
:1011900002DB012005B0F0BD0020FBE74168491CDF
:1011A0004160002101730169491E0161818A491C66
:1011B0001E2291FBF2F302FB1311818270474168FA
:1011C000491C4160002101730169491E0161818A46
:1011D000491C1E2291FBF2F302FB1311818270471E
:1011E00010B586B01021CD4808F074FE002874D0E8
:1011F00001AA0121C94808F0EAFC1021C74808F0FB
:1012000004FF1021C54808F042FE0198B0F5B06F08
:1012100074D940F28551019888426FD89DF80D002D
:1012200000286BD10198A0F28150C4B2002104EBD8
:10123000C40000EB0410BA4A02EB800080F857109B
:101240009DF80F004F2809D19DF81000602805D1A6
:101250009DF81100602801D1012000E000209DF8D8
:101260000F10432909D19DF81010622905D19DF86E
:101270001110602901D1012100E0002108439DF8EF
:101280000F10432909D19DF81010642905D19DF84C
:101290001110602901D1012100E0002108439DF8CF
:1012A0000F10432909D19DF810106B2905D19DF825
:1012B0001110602901D1012100E0002108439DF8AF
:1012C0000F1043290AD19DF810106C2906D19DF802
:1012D0001110602902D1012101E0F2E2002108434E
:1012E0009DF80F104B290AD19DF81010402906D106
:1012F0009DF81110602902D1012101E047E1002190
:1013000008439DF80F104B2909D19DF8101077293B
:1013100005D19DF81110602901D1012100E00021C3
:10132000084330B1C4EB84117E4A02EBC100FFF7E1
:1013300046FF9DF80F004B2816D19DF8100040285D
:1013400012D19DF8110060280ED19DF81300C01035
:1013500008B1012000E0002004EBC40101EB0411FE
:101360006F4A02EB810148709DF80F004F2810D1A1
:101370009DF8100060280CD19DF81100602808D15C
:101380009DF8130004EBC40101EB0411644A02F858
:1013900021009DF80F00432849D19DF810006228D4
:1013A00045D19DF81100602841D1DDF8131004EB00
:1013B000C40000EB04105A4A02EB8000016104EB08
:1013C000C40000EB0410114601EB800090ED180AF8
:1013D0001FEDCF1AC1EE000A04EBC40000EB0410AD
:1013E00001EB8000006900EE100AB8EEC00A20EEA2
:1013F000800AB1EE001AC0EE010A04EBC40000EB53
:10140000041001EB8000B0F85C0000EE100AB8EEAA
:10141000400A80EE801ABDEEC10A10EE100A00B23A
:1014200004EBC40101EB041102EB810188809DF8FB
:101430000F00432849D19DF81000642845D19DF83C
:101440001100602841D1DDF8131004EBC40000EB5B
:101450000410334A02EB8000416204EBC40000EB4D
:101460000410114601EB800090ED180A1FEDF61AEA
:10147000C1EE000A04EBC40000EB041001EB800095
:10148000406A00EE100AB8EEC00A20EE800AB1EE03
:10149000001AC0EE010A04EBC40000EB041001EBDB
:1014A0008000B0F85C0000EE100AB8EE400A80EE52
:1014B000801ABDEEC10A10EE100A00B204EBC4019E
:1014C00001EB041102EB810108839DF80F00432812
:1014D00011D19DF810006B280DD19DF811006028E6
:1014E00009D1DDF8131004EBC40000EB04100C4A22
:1014F00002EB8000C1609DF80F00432818D19DF8D1
:1015000010006C2814D19DF81100602810D1DDF86E
:10151000131004EBC40000EB041005E00068004069
:1015200004300020A8490020F64A02EB8000016246
:101530009DF80F004B2829D19DF81000772825D160
:101540009DF81100602821D1DDF8131004EBC400D0
:1015500000EB0410EB4A02EB8000816204EBC40054
:1015600000EB0410114601EB8000806A00EE100AC7
:10157000B8EEC00ADFEDE40A80EE201A04EBC400E6
:1015800000EB041001EB800080ED071A00BF01980A
:10159000B0F5207F7ED90198B0F5227F7AD89DF8EA
:1015A0000D00002876D10198A0F28120C4B200215C
:1015B000C4EBC40000EB4000D44A02EB800080F88A
:1015C00047109DF80F0041280BD19DF810004328CB
:1015D00007D19DF8120000F04000012801D0012041
:1015E00000E000209DF80F1042290BD19DF810104B
:1015F000472907D19DF8121001F04001012901D0BF
:10160000012100E0002108439DF80F104A290BD169
:101610009DF81010562907D19DF8121001F04001D5
:10162000012901D0012100E0002108439DF80F109D
:101630004D290BD19DF810104F2907D19DF812109C
:1016400001F04001012901D0012100E000210843FF
:101650009DF80F1050290BD19DF81010522907D179
:101660009DF8121001F04001012901D0012100E094
:10167000002108439DF80F1053290CD19DF810103C
:10168000442908D19DF8121001F04001012902D02F
:10169000012101E0FDE0002108439DF80F105329CE
:1016A0000BD19DF81010542907D19DF8121001F0AC
:1016B0004001012901D0012100E0002108439DF8EB
:1016C0000F1054290BD19DF81010432907D19DF814
:1016D000121001F04001012901D0012100E0002198
:1016E00008439DF80F1055290BD19DF810104D2976
:1016F00007D19DF8121001F04001012901D001210C
:1017000000E00021084330B1C4EB8411804A02EBB1
:10171000C100FFF743FD9DF80F004D2825D19DF82E
:1017200010004F2821D19DF8120000F04000012840
:101730001BD09DF8130001280ED19DF8130008B1AD
:10174000012000E00020C4EBC40101EB41016F4A1D
:1017500002EB8101487008E00020C4EBC40101EBFA
:1017600041016A4A02EB810148709DF80F0056283A
:101770002FD19DF8100058282BD19DF8120000F0B1
:101780004000012825D0DDF81310C4EBC40000EBA5
:1017900040005E4A02EB80004161C4EBC40000EBF4
:1017A0004000114601EB8000B0F84C003C2190FB5A
:1017B000F1F1C4EBC40000EB400002EB8000406993
:1017C00090FBF1F1C4EBC40000EB400002EB8000A1
:1017D00041619DF80F00502841D19DF81000582814
:1017E0003DD19DF8120000F04000012837D0DDF80F
:1017F0001300C4EBC40101EB4101444A02EB810137
:101800008861C4EBC40101EB410102EB810191ED60
:10181000140A9FED401AC1EE000A00EE100AB8EE5D
:10182000C00A60EE800AC4EBC40101EB410102EB87
:101830008101B1F84C1000EE101AB8EE400A80EEAB
:10184000801ABDEEC10A10EE101A09B2C4EBC40230
:1018500002EB42022D4B03EB8202118200BF9DF886
:101860000F00492814D19DF81000512810D19DF87F
:10187000120000F0400001280AD0BDF8130001B2A8
:10188000C4EBC40000EB4000204A02EB8000418220
:1018900000BF0198812813D30198882810D89DF89B
:1018A0000D0068B901988138C4B2621C022343EA72
:1018B000021242F44071184A5068FEF7E2FC00BF81
:1018C00000BF06B010BD30B585B0054600211348F5
:1018D00008F000FA10B9002005B030BD6A460021BA
:1018E0000F4808F074F9002404E00DF10B00005DCE
:1018F0002855641C9DF80A00A042F6D89DF80A00FD
:10190000EAE700000430002000000843182D002002
:10191000D83D00200000B4430400002000640040D3
:101920000068004042E00120B7EE000A07F0BAFD6F
:101930000220B0EE000A07F0B5FD0320B0EE080A61
:1019400007F0B0FD04209FED840A07F0ABFD0520F1
:10195000B1EE040A07F0A6FD0620B1EE080A07F072
:10196000A1FD0720B1EE0C0A07F09CFD0820B2EEA5
:10197000000A07F097FD0920B2EE020A07F092FD77
:101980007649096800EE901AF8EE600AB0EE600A37
:101990000A2007F087FD0A2007F0D5FD01467048B0
:1019A00000F059F94FF496700CF0EEFABBE705E041
:1019B00003F0F2FD40F24C400CF0E6FAF8E706E0E6
:1019C000012005F0B3FA4FF47A700CF0DDFAF7E776
:1019D00025E001241DE00121204606F0A6FB01219F
:1019E000204606F025FB0121204606F09BFA012146
:1019F000204606F019FA0121204606F097F9012148
:101A0000204606F015F90121204606F00BFC601C6B
:101A1000C4B2052CDFDB4FF47A700CF0B5FAD8E7CE
:101A200006E0012004F0D7FF4FF496600CF0ACFA0A
:101A3000F7E707E007F0C5F907F031F94FF49670C2
:101A40000CF0A2FAF6E705E001F0DFF940F6B83055
:101A50000CF09AFAF8E770B50446002500BF0220A2
:101A600006F01EFF002007F001FA01F0CEF90CF09D
:101A7000CAFC0CF05FFB05460D233A4A00213A48A8
:101A80000BF03CFF1E23394A002139480BF036FF8A
:101A90000A23384A002138480BF030FF0F23374A19
:101AA000002137480BF02AFF1023364A0021364820
:101AB0000BF024FF0923354A002135480BF01EFFA7
:101AC0000E23344A002134480BF018FF012033491B
:101AD000087081F8CC0081F8980181F86402052033
:101AE0000CF08AF928460CF029FB70BD08B54FF4BC
:101AF000FA6006F0DCFF0AF06FF94FF4A06007F01F
:101B00006FFD06F0B3FE07F0CAF807F08FF900F09A
:101B1000DBF800F049F806F0EDFF07F031F900209E
:101B20000323082219460090FFF79CF8FEF7B4FD46
:101B300006F0E2FDFEF7D6FBFEF70AFDFEF743FBDB
:101B40000AF02EFB0523164A002116480BF0D6FE9C
:101B50000AF04DFC002008BD0000C84324040040EA
:101B6000085D00201C100020471A00081C120020ED
:101B7000331A00081C1A0020211A00081C1E00201D
:101B8000D11900081C220020BF1900081C160020D3
:101B9000AF1900081C260020251900088C260020FB
:101BA0001C080020571A00081CB54048006840F087
:101BB00010003E4908603D481438006840F4800039
:101BC0003A49143908600120022100230A46CDE970
:101BD00000104FF4C061364807F0F0FA07220921DF
:101BE000334807F0CBFA07220A21314807F0C6FA3A
:101BF00040F2D9202F4908814FF4037088810846AC
:101C0000008820F0200008800323252201210620DF
:101C100007F026FA4FF48070274B264A121D042144
:101C20000090264807F060F901221021234808F0AF
:101C3000A8FB032346220021072007F011FA1D48C4
:101C4000808A40F080001B4988820846808940F4E1
:101C5000005088811CBD70B504460D461848807A36
:101C600078B92A46214614480CF000FC294613484E
:101C700008F01BFB0121114808F0F6FA0120104979
:101C8000887270BD10B50F490C4808F097FB012809
:101C90000AD10C49094808F060FB0A49074808F0D6
:101CA000B7FB00200649887210BD0000443802408E
:101CB00000000240001001404E010020B8640240C4
:101CC000CE030020008000281CB5F448006840F4D2
:101CD0000030F2490860F1481038006840F4001004
:101CE000EE49103908600120022100230A46CDE99F
:101CF00000100C21EA4807F061FA07220221E848A7
:101D000007F03CFA07220321E54807F037FA4FF4C1
:101D1000B670E44908800C20091D0880E1480838A5
:101D2000008820F02000DF4908390880DD48001DC8
:101D3000008840F02000DB49091D0880032326228B
:101D40000121042007F08CF94FF48070D64BD54A5E
:101D5000121F04210090D54807F0C6F80122102177
:101D6000D24808F00EFB032311220121072007F0BF
:101D700077F9CC480C30008840F08000C9490C311C
:101D80000880C848001D008840F40050C549091D5E
:101D900008801CBD10B5C649C44808F00FFB0128D7
:101DA0000AD1C349C14808F0D8FAC149BF4808F070
:101DB0002FFB0020BF49C87210BD10B52DED028B5E
:101DC000002440F22531B748083809F050FF58B1D7
:101DD000B448083809F089FE0020B749087020216E
:101DE000B6480CF05CFBF8E340F22551AD480838EA
:101DF00009F03DFF0028F6D02021AA48083809F054
:101E00002DFF40F22551A748083809F067FFA54883
:101E1000083809F06AFEC4B2A748007800F0400014
:101E200008B3A548007800F0800020BBFF2C06D145
:101E3000A148007840F080009F4908701BE09E4850
:101E4000007800F03F019D4844549B480078401CB6
:101E5000994908700846007800F03F0028280ADDFC
:101E60000020087007E0EE2C05D19348007840F080
:101E70004000914908709048007800F080000028E8
:101E8000B1D08F4890F82102012804D18C4890F8F5
:101E900023028C4908708A4890F82302092872D2DC
:101EA000DFE800F005232425F1FA71F9F8008448F1
:101EB00090F82502082815D1012080F3138800BF6F
:101EC00000BFBFF34F8F8048006800F4E0607F4997
:101ED0000843001D7C490860BFF34F8F00BF00BF5F
:101EE00000BFFDE700BF00BFF0E3FDE7FCE774487B
:101EF00090F82502C01E0B2844D2DFE800F006C28D
:101F0000C2454F66C2C2C2727E006C48C01D0CF052
:101F100093FFB0EE408AF0EE608A51EC180B0CF0A3
:101F2000D9FA6B4988606548C01D0CF085FFB0EE9A
:101F3000408AF0EE608A51EC180B0CF0CBFA0146A7
:101F4000634841645D48C01D0CF076FFB0EE408AE6
:101F5000F0EE608A51EC180B0CF0BCFA01465C48BC
:101F6000C0F880105548C01D0CF066FFB0EE408AE6
:101F7000F0EE608A51EC180B0CF0ACFA01465448B4
:101F8000C0F8BC107DE0B5E301205149087081F82C
:101F90003C0081F8780081F8B40072E002204C49DE
:101FA000887002214A4880F83E1080F87A1080F844
:101FB000B6100120464948700121454880F83D107F
:101FC00080F8791080F8B5105BE0032040498870F4
:101FD00003213F4880F83E1080F87A1080F8B61050
:101FE0004FE000203A4948700021394880F83D1000
:101FF00080F8791080F8B51043E03048C01D0CF02F
:102000001BFFB0EE408AF0EE608A51EC180B0CF02A
:1020100099FA00EE100A2E4880ED040A2748C01DE8
:102020000CF00AFFB0EE408AF0EE608A51EC180B1B
:102030000CF088FA00EE100A254880ED130A1F48BC
:10204000C01D0CF0F9FEB0EE408AF0EE608A51EC53
:10205000180B0CF077FA00EE100A1D4880ED220AEA
:102060001648C01D0CF0E8FEB0EE408AF0EE608A23
:1020700051EC180B0CF066FA00EE100A144880EDD3
:10208000310A00BF00BF0E4890F82502C01E1A2872
:102090007BD21FE0F9E32EE39AE1000040380240D2
:1020A00000000240084400406E020020A060024090
:1020B00000802020CE0300202B0000206E03002093
:1020C0004E0100202A0000200CED00E00000FA057F
:1020D000D82E0020DFE800F00D1B2939495A697914
:1020E0008999A8B8C859D8F3F1F0EFEEEDECEBEA16
:1020F000E9E8002008E0002100EB001202EB4202B8
:10210000F54B03F82210401C0828F4DB5EE1F3488D
:102110000CF092FEB0EE408AF0EE608A51EC180BA3
:102120000CF0F7F9EC49887050E1EC480CF084FEB3
:10213000B0EE408AF0EE608A51EC180B0CF0E9F931
:10214000C1B2E54880F8CE1040E1E4480CF074FEDE
:10215000B0EE408AF0EE608A51EC180B0CF0D9F921
:10216000C1B2DD4880F89A1130E1DC480CF064FE21
:10217000B0EE408AF0EE608A51EC180B0CF0C9F911
:10218000C1B2D54880F8661220E11EE1D3480CF0B8
:1021900053FEB0EE408AF0EE608A51EC180B0CF062
:1021A00099F901B2CC48018110E1CC480CF044FE11
:1021B000B0EE408AF0EE608A51EC180B0CF08AF910
:1021C00001B2C548A0F8D41000E1C4480CF034FEB8
:1021D000B0EE408AF0EE608A51EC180B0CF07AF900
:1021E00001B2BD48A0F8A011F0E0BC480CF024FEFC
:1021F000B0EE408AF0EE608A51EC180B0CF06AF9F0
:1022000001B2B548A0F86C12E0E0B4480CF014FE3E
:10221000B0EE408AF0EE608A51EC180B0CF05AF9DF
:1022200000B2AD498880D1E0AC480CF005FEB0EEBC
:10223000408AF0EE608A51EC180B0CF04BF901B2B9
:10224000A548A0F8D010C1E0A4480CF0F5FDB0EE10
:10225000408AF0EE608A51EC180B0CF03BF901B2A9
:102260009D48A0F89C11B1E09C480CF0E5FDB0EE53
:10227000408AF0EE608A51EC180B0CF02BF901B299
:102280009548A0F86812A1E094480CF0D5FDB0EE96
:10229000408AF0EE608A51EC180B0CF03AF981B2EA
:1022A0008D48A0F8961091E084E078E06CE061E061
:1022B00055E049E03DE032E021E010E0FFE78748EB
:1022C0000CF0BAFDB0EE408AF0EE608A51EC180BCB
:1022D0000CF01FF981B28048A0F8621176E07F48C7
:1022E0000CF0AAFDB0EE408AF0EE608A51EC180BBB
:1022F0000CF00FF981B27848A0F82E1266E077480A
:102300000CF09AFDB0EE408AF0EE608A51EC180BAA
:102310000CF0FFF881B27048A0F8FA1256E070484D
:1023200090F8280208B1012000E000206A490870F6
:102330004CE06B4890F8280208B1012000E0002032
:10234000654981F8CC0041E0654890F8280208B161
:10235000012000E00020604981F8980136E06048E3
:1023600090F8280208B1012000E000205A4981F8C5
:1023700064022BE05A4890F8280208B1012000E0DE
:1023800000205549487021E0554890F8280208B1CE
:10239000012100E00021504880F8CD1016E050489F
:1023A00090F8280208B1012100E000214A4880F895
:1023B00099110BE04A4890F8280208B1012100E089
:1023C0000021454880F8651200E000BF00BF8BE5A2
:1023D000434890F82502C01E1A287CD2DFE800F09E
:1023E0000D1B2B3B4B5B6B8292A2B2C2D27BE2FEF7
:1023F000FBFAF9F8F7F6F5F4F3F2002008E0002113
:1024000000EB001202EB4202334B03F82210401C97
:102410000828F4DB6CE131480CF00EFDB0EE408A88
:10242000F0EE608A51EC180B0CF073F8C1B22A4838
:1024300080F832135CE129480CF0FEFCB0EE408AD3
:10244000F0EE608A51EC180B0CF063F8C1B2224830
:1024500080F8FE134CE121480CF0EEFCB0EE408A0F
:10246000F0EE608A51EC180B0CF053F8C1B21A4828
:1024700080F8CA143CE119480CF0DEFCB0EE408A4A
:10248000F0EE608A51EC180B0CF043F8C1B2124820
:1024900080F896152CE111480CF0CEFCB0EE408A85
:1024A000F0EE608A51EC180B0CF014F801B20A48F7
:1024B000A0F838131CE109480CF0BEFCB0EE408ACD
:1024C000F0EE608A51EC180B0CF004F801B20248EF
:1024D000A0F804140CE10AE18C260020750300200A
:1024E0004E010020FD480CF0A7FCB0EE408AF0EE53
:1024F000608A51EC180B0BF0EDFF01B2F848A0F820
:10250000D014F5E0F5480CF097FCB0EE408AF0EE00
:10251000608A51EC180B0BF0DDFF01B2F048A0F817
:102520009C15E5E0ED480CF087FCB0EE408AF0EE3B
:10253000608A51EC180B0BF0CDFF01B2E848A0F80F
:102540003413D5E0E5480CF077FCB0EE408AF0EEAD
:10255000608A51EC180B0BF0BDFF01B2E048A0F807
:102560000014C5E0DD480CF067FCB0EE408AF0EEE8
:10257000608A51EC180B0BF0ADFF01B2D848A0F8FF
:10258000CC14B5E0D5480CF057FCB0EE408AF0EE24
:10259000608A51EC180B0BF09DFF01B2D048A0F8F7
:1025A0009815A5E0CD480CF047FCB0EE408AF0EE5F
:1025B000608A51EC180B0BF0ACFF81B2C848A0F850
:1025C000C61395E088E07BE06FE063E057E04BE006
:1025D0003FE033E022E011E000E0FDE3BF480CF013
:1025E0002BFCB0EE408AF0EE608A51EC180B0BF039
:1025F00090FF81B2BA48A0F8921479E0B7480CF085
:102600001BFCB0EE408AF0EE608A51EC180B0BF028
:1026100080FF81B2B248A0F85E1569E0AF480CF0C7
:102620000BFCB0EE408AF0EE608A51EC180B0BF018
:1026300070FF81B2AA48A0F82A1659E0A94890F87C
:10264000280208B1012000E00020A54981F83003EC
:102650004EE0A44890F8280208B1012000E00020D4
:102660009F4981F8FC0343E09E4890F8280208B196
:10267000012000E000209A4981F8C80438E0994818
:1026800090F8280208B1012000E00020944981F868
:1026900094052DE0934890F8280208B1012100E04C
:1026A00000218F4880F8311322E08E4890F82802EC
:1026B00008B1012100E00021894880F8FD1317E0EE
:1026C000884890F8280210B1012101E07FE3002141
:1026D000834880F8C9140BE0824890F8280208B1BA
:1026E000012100E000217E4880F8951500E000BF40
:1026F00000BF6CE300BF7B4890F82502C01E0B288A
:1027000017D2DFE800F006171628394A5F749AC31B
:10271000F8000121084604F0B0FF0121022004F076
:10272000ACFF0121032004F0A8FF0121042004F0E4
:10273000A4FFF1E00121084604F0F7FD0121022089
:1027400004F0F3FD0121032004F0EFFD012104203A
:1027500004F0EBFDE0E00121084604F066FD0121F4
:10276000022004F062FD0121032004F05EFD01213E
:10277000042004F05AFDCFE00121084604F0D1FE08
:102780000121022004F0CDFE0121032004F0C9FE46
:102790000121042004F0C5FEBEE001220321104601
:1027A00004F0C5FC01220321022004F0C0FC012238
:1027B0000321084604F0BBFC01220321042004F09D
:1027C000B6FCA9E001221146104604F0B0FC01223B
:1027D0001146022004F0ABFC01221146032004F054
:1027E000A6FC01221146042004F0A1FC94E03B4821
:1027F0000CF022FBB0EE408AF0EE608A51EC180B30
:102800000BF068FE3849086001220846016810464E
:1028100005F02BF9012234480168022005F025F962
:10282000012231480168032005F01FF901222E48DA
:102830000168042005F019F96EE028480CF0FCFA54
:10284000B0EE408AF0EE608A51EC180B0BF042FEBD
:1028500026490860012208460168104605F073F910
:102860000122224800684142022005F06CF9012251
:102870001E4800684142032005F065F901221B480B
:102880000168042005F05FF946E047E013480CF0CA
:10289000D3FAB0EE408AF0EE608A51EC180B0BF0E0
:1028A00019FE13490860012208460168104604F029
:1028B00062FF01220E4800684142022004F05BFFE3
:1028C00001220B4800684142032004F054FF01221A
:1028D00007480168042004F04EFF1DE07503002046
:1028E0008C2600204E010020940000209000002043
:1028F0008C000020FFE70121084605F035F8012192
:10290000022005F031F80121032005F02DF8012106
:10291000042005F029F800BF00BF00BFF84890F878
:1029200025021A2821D2DFE800F0200D21374D635F
:1029300093C5EFEEEDECEBEAE9E8E7E6E5E4E3E288
:10294000E1E0DFDEEF480CF077FAB0EE408AF0EE1F
:10295000608A51EC180B0BF0DCFDEB49087008465F
:1029600001780122104602F02CFF2FE2E5480CF01E
:1029700063FAB0EE408AF0EE608A51EC180B0BF06F
:10298000C8FDE14981F85400084690F8541001222E
:10299000022002F016FF19E2DA480CF04DFAB0EE10
:1029A000408AF0EE608A51EC180B0BF0B2FDD6496C
:1029B00081F8A800084690F8A8100122032002F030
:1029C00000FF03E2CF480CF037FAB0EE408AF0EE99
:1029D000608A51EC180B0BF09CFDCB4981F8FC0090
:1029E000084690F8FC100122042002F0EAFEEDE116
:1029F000C5480078022813D1C2480CF01DFAB0EE89
:102A0000408AF0EE608A51EC180B0BF063FDBF4971
:102A10000860012208460168104603F025FA16E016
:102A2000B9480078052812D1B6480CF005FAB0EE86
:102A3000408AF0EE608A51EC180B0BF04BFDB44964
:102A40000860012208460168104603F0A2F8BDE1C3
:102A5000AD4890F85400022813D1AA480CF0ECF9C4
:102A6000B0EE408AF0EE608A51EC180B0BF032FDAC
:102A7000A6490860012208460168022003F0F4F923
:102A800017E0A14890F85400052812D19D480CF099
:102A9000D3F9B0EE408AF0EE608A51EC180B0BF0DF
:102AA00019FD9B490860012208460168022003F0D5
:102AB00070F88BE1944890F8A800022825D191483D
:102AC0000CF0BAF9B0EE408AF0EE608A51EC180BC7
:102AD0000BF000FD8D4908600122084601680320C3
:102AE00003F0C2F929E060E155E159E149E1F7E07D
:102AF0004CE135E123E111E1DEE0C9E0B4E09FE023
:102B00008AE075E060E04BE018E07F4890F8A800AC
:102B1000052812D17B480CF08FF9B0EE408AF0EE18
:102B2000608A51EC180B0BF0D5FC79490860012242
:102B300008460168032003F02CF847E1724890F83A
:102B4000FC00022813D16F480CF076F9B0EE408AF1
:102B5000F0EE608A51EC180B0BF0BCFC6B4908607E
:102B6000012208460168042003F07EF917E0664858
:102B700090F8FC00052812D162480CF05DF9B0EE27
:102B8000408AF0EE608A51EC180B0BF0A3FC604910
:102B90000860012208460168042002F0FAFF15E1EE
:102BA00058480CF049F9B0EE408AF0EE608A51ECDA
:102BB000180B0BF08FFC574908600122084601688A
:102BC000104603F065F801E14E480CF035F9B0EE1F
:102BD000408AF0EE608A51EC180B0BF07BFC4D49FB
:102BE0000860012208460168022003F051F8EDE078
:102BF00044480CF021F9B0EE408AF0EE608A51ECC6
:102C0000180B0BF067FC4349086001220846016875
:102C1000032003F03DF8D9E03A480CF00DF9B0EE8E
:102C2000408AF0EE608A51EC180B0BF053FC3949E6
:102C30000860012208460168042003F029F8C5E075
:102C400030480CF0F9F8B0EE408AF0EE608A51ECB2
:102C5000180B0BF03FFC3049086001220846016860
:102C6000104603F094F8B1E026480CF0E5F8B0EE19
:102C7000408AF0EE608A51EC180B0BF02BFC2649D1
:102C80000860012208460168022003F080F89DE0F8
:102C90001C480CF0D1F8B0EE408AF0EE608A51EC9E
:102CA000180B0BF017FC1C4908600122084601684C
:102CB000032003F06CF889E012480CF0BDF8B0EE88
:102CC000408AF0EE608A51EC180B0BF003FC1249BD
:102CD0000860012208460168042003F058F875E0F6
:102CE000074890F8280208B1012000E000200649BA
:102CF0004870084641780122104602F040FE65E027
:102D00004E01002075030020182D002064000020D3
:102D1000580000206000002068000020FE4890F865
:102D2000280208B1012100E00021FC4880F855107C
:102D300090F855100122022002F021FE46E0F648EC
:102D400090F8280208B1012100E00021F34880F842
:102D5000A91090F8A9100122032002F010FE35E01E
:102D6000ED4890F8280208B1012100E00021EB486D
:102D700080F8FD1090F8FD100122042002F0FFFD04
:102D800024E00121084602F023FE1FE00121022079
:102D900002F01EFE1AE00121032002F019FE15E0E8
:102DA0000121042002F014FE10E00121084602F087
:102DB0008BFE0121022002F087FE0121032002F098
:102DC00083FE0121042002F07FFE00BF00BF00BF90
:102DD0000020D349087000E003E02021D1480BF027
:102DE0005EFBBDEC028B10BD10B50446CE48C07A28
:102DF00050B92146CD4807F058FA0121CB4807F0D9
:102E000033FA0120C849C87210BD10B50024EE2263
:102E10002146641CC6484254B1222146641C4254D7
:102E200010222146641C425400222146641C425454
:102E30002146641C42542146641C4254052221460A
:102E4000641C425401222046611CCCB2B8490A5489
:102E5000FF222046611CCCB2B5490A54FC22204610
:102E6000611CCCB2B2490A54FF222046611CCCB28C
:102E7000AF490A542046611CCCB2AD490A54AD4852
:102E80000078062881F0B480DFE810F0B208060070
:102E9000080009000A005E0401F0ABB8FCE7FBE79C
:102EA000EE222046611CCCB2A1490A54B122204630
:102EB000611CCCB29E490A5412222046611CCCB23D
:102EC0009B490A5400222046611CCCB298490A54FE
:102ED00004222046611CCCB295490A549648807859
:102EE00000287CD000222046611CCCB290490A54B4
:102EF00004222046611CCCB28D490A54002220468F
:102F0000611CCCB28A490A548B4882788BA18C48C8
:102F10000BF07CFF8A480BF0CDFAC2B22046611C50
:102F2000CCB283490A54081985490BF0CAFA84487F
:102F30000BF0C0FA2044C4B200222046611CCCB27F
:102F40007B490A5408222046611CCCB278490A54B5
:102F500000222046611CCCB275490A547648B0F96B
:102F6000182076A176480BF051FF75480BF0A2FAB5
:102F7000C2B22046611CCCB26D490A54081970498E
:102F80000BF09FFA6E480BF095FA2044C4B2002271
:102F90002046611CCCB266490A540C222046611CB2
:102FA000CCB263490A5400222046611CCCB260496D
:102FB0000A546148B0F9142060A161480BF026FF63
:102FC0005F480BF077FAC2B22046611CCCB2584978
:102FD0000A5408195A490BF074FA594800E06CE099
:102FE0000BF068FA2044C4B200222046611CCCB227
:102FF0004F490A5411222046611CCCB24C490A5454
:1030000000222046611CCCB249490A544A48B0F813
:1030100096204AA14A480BF0F9FE49480BF04AFABB
:10302000C2B22046611CCCB241490A540819444935
:103030000BF047FA42480BF03DFA2044C4B200229C
:103040002046611CCCB23A490A5415222046611C24
:10305000CCB237490A5400222046611CCCB2344914
:103060000A5401222046611CCCB231490A5432482C
:1030700002782046611CCCB22D490A540022204619
:10308000611CCCB22A490A5419222046611CCCB2D8
:1030900027490A5400222046611CCCB224490A5414
:1030A00001222046611CCCB221490A5422484278B0
:1030B0002046611CCCB21E490A541F4890F8CE002D
:1030C00000287DD000222046611CCCB218490A5449
:1030D00005222046611CCCB215490A540022204624
:1030E000611CCCB212490A54134890F8CE2013A1A7
:1030F00013480BF08BFE12480BF0DCF9C2B22046ED
:10310000611CCCB20A490A5408190D490BF0D9F9CF
:103110000B480BF0CFF915E04E010020182D0020D0
:103120002B0000206E030020CE030020A060024090
:103130006E0200202A0000208C260020256400005A
:10314000202600202044C4B200222046611CCCB2BC
:10315000FE490A5409222046611CCCB2FB490A549C
:1031600000222046611CCCB2F8490A54F848B0F954
:10317000E420AFF23801F7480BF048FEF5480BF0B9
:1031800099F9C2B22046611CCCB2F0490A54081920
:10319000F0490BF096F9EF480BF08CF92044C4B2DB
:1031A00000222046611CCCB2E8490A540D22204678
:1031B000611CCCB2E5490A5400222046611C00E0A3
:1031C00088E0CCB2E1490A54E148B0F9E020AFF21E
:1031D0009401E0480BF01AFEDE480BF06BF9C2B226
:1031E0002046611CCCB2D9490A540819D9490BF0C0
:1031F00068F9D8480BF05EF92044C4B2002220469A
:10320000611CCCB2D1490A5412222046611CCCB2B6
:10321000CE490A5400222046611CCCB2CB490A5444
:10322000CB48B0F86221AFF2EC01CA480BF0EEFDDA
:10323000C8480BF03FF9C2B22046611CCCB2C3496A
:103240000A540819C3490BF03CF9C2480BF032F993
:103250002044C4B200222046611CCCB2BB490A54AF
:1032600016222046611CCCB2B8490A5400222046DE
:10327000611CCCB2B5490A5401222046611CCCB273
:10328000B2490A54B24890F8CC202046611CCCB216
:10329000AE490A5400222046611CCCB2AB490A5404
:1032A0001A222046611CCCB2A8490A5400222046AA
:1032B000611CCCB2A5490A5401222046611CCCB243
:1032C000A2490A54A24890F8CD202046611CCCB2F5
:1032D0009E490A549E4890F89A0100287DD0002209
:1032E0002046611CCCB299490A5406222046611C32
:1032F000CCB296490A5400222046611CCCB29349B4
:103300000A54934890F89A21AFF2D01191480BF0EB
:103310007DFD90480BF0CEF8C2B22046611CCCB2C5
:103320008A490A5408198B490BF0CBF889480BF0ED
:10333000C1F82044C4B200222046611CCCB28349AB
:103340000A540A222046611CCCB280490A54002249
:103350002046611CCCB27D490A547D48B0F9B021A9
:10336000AFF228217B480BF051FD7A480BF0A2F810
:10337000C2B22046611CCCB274490A54081975497E
:103380000BF09FF873480BF095F82044C4B200226C
:103390002046611CCCB26D490A540E222046611CA5
:1033A000CCB26A490A5400222046611CCCB267495B
:1033B0000A546748B0F9AC21AFF2802165480BF0A0
:1033C00025FD64480BF076F8C2B22046611CCCB2F1
:1033D0005E490A5408195F4900E072E00BF071F889
:1033E0005C480BF067F82044C4B200222046611C00
:1033F000CCB256490A5413222046611CCCB2534920
:103400000A5400222046611CCCB250490A5450484C
:10341000B0F82E22AFF2DC214E480BF0F7FC4D48FD
:103420000BF048F8C2B22046611CCCB247490A549E
:10343000081948490BF045F846480BF03BF8204482
:10344000C4B200222046611CCCB240490A54172263
:103450002046611CCCB23D490A5400222046611C22
:10346000CCB23A490A5401222046611CCCB23749F9
:103470000A54374890F898212046611CCCB2334951
:103480000A5400222046611CCCB230490A541B2247
:103490002046611CCCB22D490A5400222046611CF2
:1034A000CCB22A490A5401222046611CCCB22749D9
:1034B0000A54274890F899212046611CCCB2234930
:1034C0000A54234890F8660200287DD00022204646
:1034D000611CCCB21D490A5407222046611CCCB2A3
:1034E0001A490A5400222046611CCCB217490A54DA
:1034F000174890F86622AFF2BC3116480BF086FCF4
:1035000014480AF0D7FFC2B22046611CCCB20F4962
:103510000A5408190F490AF0D4FF0E480AF0CAFFEE
:103520002044C4B200222046611CCCB207490A5490
:103530000B222046611CCCB204490A5400222046CA
:10354000611CCCB201490A54014805E06E0200201A
:103550008C26002020260020B0F97C22AFF22441E6
:10356000FE480BF053FCFD480AF0A4FFC2B220460F
:10357000611CCCB2FA490A540819F8490AF0A1FFB3
:10358000F6480AF097FF2044C4B200222046611C8E
:10359000CCB2F3490A540F222046611CCCB2F04948
:1035A0000A5400222046611CCCB2ED490A54ED4871
:1035B000B0F97822AFF27C41E8480BF027FCE748ED
:1035C0000AF078FFC2B200E079E02046611CCCB27C
:1035D000E3490A540819E1490AF073FFDF480AF089
:1035E00069FF2044C4B200222046611CCCB2DC49F1
:1035F0000A5414222046611CCCB2D9490A54002234
:103600002046611CCCB2D6490A54D648B0F8FA22FA
:10361000AFF2D841D1480BF0F9FBD0480AF04AFF8D
:10362000C2B22046611CCCB2CD490A540819CB491C
:103630000AF047FFC9480AF03DFF2044C4B2002207
:103640002046611CCCB2C6490A5418222046611C8F
:10365000CCB2C3490A5400222046611CCCB2C049F6
:103660000A5401222046611CCCB2BD490A54BD480F
:1036700090F864222046611CCCB2B9490A54002259
:103680002046611CCCB2B6490A541C222046611C5B
:10369000CCB2B3490A5400222046611CCCB2B049D6
:1036A0000A5401222046611CCCB2AD490A54AD48EF
:1036B00090F865222046611CCCB2A9490A54002228
:1036C0002046611CCCB2A6490A5410222046611C37
:1036D000CCB2A3490A5400222046611CCCB2A049B6
:1036E0000A54A148406840680288A0A19B480BF09A
:1036F0008DFB9A480AF0DEFEC2B22146601CC4B2BD
:10370000974842540146081994490AF0DAFE934852
:103710000AF0D0FE2044C4B2FF222046611CCCB285
:103720008F490A54FC222046611CCCB28C490A54B1
:10373000FF222046611CCCB289490A542046611CF4
:10374000CCB287490A54FDE3EE222046611CCCB27C
:1037500083490A54B1222046611CCCB280490A54E4
:1037600012222046611CCCB27D490A540022204618
:10377000611CCCB27A490A5405222046611CCCB2A5
:1037800077490A54774890F8320300287DD0002208
:103790002046611CCCB272490A5404222046611CA6
:1037A000CCB26F490A5400222046611CCCB26C494D
:1037B0000A546C4890F83223AFF2806167480BF0EE
:1037C00025FB66480AF076FEC2B22046611CCCB2E8
:1037D00063490A54081961490AF073FE5F480AF008
:1037E00069FE2044C4B200222046611CCCB25C4970
:1037F0000A5408222046611CCCB259490A540022BE
:103800002046611CCCB256490A545648B0F94823A8
:10381000AFF2D86151480BF0F9FA50480AF04AFE6D
:10382000C2B22046611CCCB24D490A5408194B491A
:103830000AF047FE49480AF03DFE2044C4B2002287
:103840002046611CCCB246490A540C222046611C19
:10385000CCB243490A5400222046611CCCB24049F4
:103860000A544048B0F94423AFF230713B480BF0A2
:10387000CDFA3A480AF01EFEC2B22046611CCCB214
:1038800037490A540819354900E07DE00AF019FE6D
:1038900032480AF00FFE2044C4B200222046611CC8
:1038A000CCB22F490A5411222146601CC4B22C48C4
:1038B000425400222046611CCCB229490A542948AE
:1038C000B0F8C623AFF28C7124480BF09FFA23485E
:1038D0000AF0F0FDC2B22046611CCCB220490A5465
:1038E00008191E490AF0EDFD1C480AF0E3FD2044CA
:1038F000C4B200222046611CCCB219490A541522D8
:103900002046611CCCB216490A5400222046611C94
:10391000CCB213490A5401222046611CCCB2104992
:103920000A54104890F830232046611CCCB20C4950
:103930000A5400222046611CCCB209490A541922BB
:103940002046611CCCB206490A5400222046611C64
:10395000CCB203490A540122204609E02026002067
:103960006E0200208C260020040000202578000034
:10397000611CCCB2FE490A54FE4890F8312320461F
:10398000611CCCB2FA490A54FA4890F8FE030028A8
:103990007DD000222046611CCCB2F5490A54052294
:1039A0002046611CCCB2F2490A5400222046611C18
:1039B000CCB2EF490A54EF4890F8FE23AFF68401E9
:1039C000ED480BF023FAEC480AF074FDC2B2204631
:1039D000611CCCB2E6490A540819E7490AF071FDA6
:1039E000E5480AF067FD2044C4B200222146601C6D
:1039F000C4B2DF48425409222046611CCCB2DC49E3
:103A00000A5400222046611CCCB2D9490A54D94834
:103A1000B0F91424AFF6DC01D7480BF0F7F9D6481B
:103A20000AF048FDC2B22046611CCCB2D0490A540B
:103A30000819D1490AF045FDCF480AF03BFD204462
:103A4000C4B200222046611CCCB2C9490A540D22DE
:103A50002046611CCCB2C6490A5400222046611C93
:103A6000CCB2C3490A54C348B0F91024AFF634119C
:103A7000C1480BF0CBF9C0480AF01CFDC2B2204689
:103A8000611CCCB2BA490A540819BB4900E072E083
:103A90000AF017FDB8480AF00DFD2044C4B2002218
:103AA0002046611CCCB2B2490A5412222046611C45
:103AB000CCB2AF490A5400222146601CC4B2AC48C3
:103AC0004254AC48B0F89224AFF69011AA480BF0DB
:103AD0009DF9A9480AF0EEFCC2B22046611CCCB2A6
:103AE000A3490A540819A4490AF0EBFCA2480AF0B9
:103AF000E1FC2044C4B200222046611CCCB29C49A7
:103B00000A5416222046611CCCB299490A5400225C
:103B10002046611CCCB296490A5401222046611C01
:103B2000CCB293490A54934890F8FC232046611C78
:103B3000CCB28F490A5400222046611CCCB28C4979
:103B40000A541A222046611CCCB289490A54002228
:103B50002046611CCCB286490A5401222046611CD1
:103B6000CCB283490A54834890F8FD232046611C57
:103B7000CCB27F490A547F4890F8CA0400287DD00F
:103B800000222046611CCCB279490A540622204604
:103B9000611CCCB276490A5400222046611CCCB28A
:103BA00073490A54734890F8CA24AFF670217248DA
:103BB0000BF02CF970480AF07DFCC2B22046611C63
:103BC000CCB26B490A5408196B490AF07AFC6A486E
:103BD0000AF070FC2044C4B200222046611CCCB222
:103BE00063490A540A222046611CCCB260490A5437
:103BF00000222046611CCCB25D490A545D48B0F9F0
:103C0000E024AFF6C8215C480BF000F95A480AF0EE
:103C100051FCC2B22046611CCCB255490A54081965
:103C200055490AF04EFC54480AF044FC2044C4B202
:103C300000222146601CC4B24D4842540E22204648
:103C4000611CCCB24A490A5400222046611CCCB205
:103C500047490A544748B0F9DC24AFF620314648BA
:103C60000BF0D4F844480AF025FCC2B22046611C8F
:103C7000CCB23F490A5408193F4900E072E00AF00B
:103C800020FC3D480AF016FC2044C4B20022204625
:103C9000611CCCB236490A5413222046611CCCB2B6
:103CA00033490A5400222046611CCCB230490A54E0
:103CB0003048B0F85E25AFF67C312F480BF0A6F8FF
:103CC0002D480AF0F7FBC2B22046611CCCB228494D
:103CD0000A54081928490AF0F4FB27480AF0EAFBBD
:103CE0002044C4B200222046611CCCB220490A54B0
:103CF00017222046611CCCB21D490A5400222046DE
:103D0000611CCCB21A490A5401222046611CCCB273
:103D100017490A54174890F8C8242046611CCCB2B1
:103D200013490A5400222046611CCCB210490A549F
:103D30001B222146601CC4B20D4842540022214679
:103D4000601CC4B20A48425401222046611CCCB215
:103D500007490A54074890F8C9242046611CCCB290
:103D600003490A54034890F8960500287ED005E0E0
:103D70006E0200208C2600202026002000222046F3
:103D8000611CCCB29D490A5407222046611CCCB26A
:103D90009A490A5400222046611CCCB297490A5421
:103DA000974890F89625AFF66C4196480BF02EF8A0
:103DB00094480AF07FFBC2B22146601CC4B28F480F
:103DC0004254014608198F490AF07BFB8D480AF0DE
:103DD00071FB2044C4B200222146601CC4B2874853
:103DE00042540B222046611CCCB284490A54002262
:103DF0002046611CCCB281490A548148B0F9AC25F7
:103E0000AFF6C8417F480BF001F87E480AF052FB3C
:103E1000C2B22046611CCCB278490A5408197949CB
:103E20000AF04FFB77480AF045FB2044C4B2002259
:103E30002046611CCCB271490A540F222146601CF5
:103E4000C4B26E48425400222046611CCCB26B4979
:103E50000A546B48B0F9A825AFF6205169480AF01A
:103E6000D5FF68480AF026FBC2B200E07BE020469E
:103E7000611CCCB261490A54081962490AF021FB5D
:103E800060480AF017FB2044C4B200222046611C9F
:103E9000CCB25A490A5414222146601CC4B2574875
:103EA000425400222046611CCCB254490A54544862
:103EB000B0F82A26AFF67C5152480AF0A7FF5148C5
:103EC0000AF0F8FAC2B22046611CCCB24B490A543F
:103ED00008194C490AF0F5FA4A480AF0EBFA20446E
:103EE000C4B200222046611CCCB244490A541822B4
:103EF0002046611CCCB241490A5400222046611C74
:103F0000CCB23E490A5401222046611CCCB23B4946
:103F10000A543B4890F894252146601CC4B23748A7
:103F2000425400222046611CCCB234490A541C225F
:103F30002046611CCCB231490A5400222146601C43
:103F4000C4B200E055E02D48425401222046611CD5
:103F5000CCB22A490A542A4890F895252146601C7B
:103F6000C4B22648425400222146601CC4B22348F1
:103F7000425410222146601CC4B220484254002200
:103F80002146601CC4B21D4842541F484068406826
:103F90000288AFF228611B480AF038FF19480AF07E
:103FA00089FAC2B22046611CCCB214490A540819DD
:103FB00014490AF086FA13480AF07CFA2044C4B285
:103FC000FF222146601CC4B20C484254FC22204609
:103FD000611CCCB209490A54FF222146601CC4B2BC
:103FE000064842542046611CCCB204490A5400E001
:103FF00000BF00BF2046FEF7F7FE10BD6E02002096
:104000008C260020202600200400002000B597B058
:104010000121042006F0D4FC0121880406F003FDF0
:104020000121480506F0CCFC07220A21634806F06E
:104030000CFB07220B21614806F007FB4FF44060A0
:10404000119002208DF8480000208DF84A000320CE
:104050008DF8490000208DF84B0011A9574806F053
:1040600069FA4FF4E13013900020ADF85000ADF83C
:104070005200ADF85400ADF858000C20ADF85600D1
:1040800013A94F4807F07AFC012240F225514C4811
:1040900007F0B2FD27208DF8400004208DF8410084
:1040A00000208DF8420001208DF8430010A805F093
:1040B0009CFA444805F0FCFF4FF00060019000209E
:1040C000059040200490404803903D48001D029018
:1040D0000015079000200690099008900A904FF470
:1040E00040300B9000200C9001200D9000200F908C
:1040F0000E9001A9334806F07DF83449314806F0A6
:104100002CF932492F4806F083F90E208DF8400033
:1041100002208DF8410004208DF8420001208DF826
:10412000430010A805F061FA01221021254806F08D
:1041300028F901228021224807F055FD17B000BD63
:1041400010B522491F4806F039F901280AD11F4944
:104150001C4806F002F91D491A4806F059F90020DA
:104160001B49087310BD70B504460D461848007B06
:1041700078B92A46214614480AF078F929461148A8
:1041800006F093F801210F4806F06EF8012010495F
:10419000087370BD10B540F22551094807F067FD5E
:1041A00050B12021064807F059FD40F2255104483E
:1041B00007F094FD04F0A6FB10BD000000080240CB
:1041C00000480040586002408E0300200080001824
:1041D000CE030020002282610160C26100230362DD
:1041E000436280ED031A80ED010AC0ED020AC0EDC2
:1041F000041A704701688269891AC161C269016A3B
:10420000511A00EE101AB8EEC00AD0ED010A20EEE5
:10421000200A90ED021AC16900EE901AF8EEE00A49
:1042200001EE200AC269416A0A44016AA2EB410117
:1042300000EE901AF8EEE00A90ED031A01EE200A63
:10424000BDEEC00A10EE101A4161026A4262C269F4
:10425000026270472DE9F04186B004460D461646CD
:104260001F464FF0000800208DF80C008DF80D005F
:1042700008208DF80E0040F2FF18CDF804800420CD
:1042800001F004F828B9200A8DF80F008DF81040CD
:1042900005E000208DF80F0000218DF8101005209A
:1042A00000F0F4FF28B9290A8DF811108DF812508A
:1042B00004E000218DF811108DF81210062000F096
:1042C000E5FF28B9310A8DF813108DF8146004E069
:1042D00000218DF813108DF81410072000F0D6FF80
:1042E00028B9390A8DF815108DF8167004E00021F0
:1042F0008DF815108DF8161001A9584805F072FBBD
:1043000006B0BDE8F0812DE9F04186B004460D46C7
:1043100016461F464FF0000800208DF80C008DF85F
:104320000D0008208DF80E004FF40078CDF80480C1
:10433000002000F0ABFF28B9200A8DF80F008DF89F
:10434000104005E000208DF80F0000218DF81010BE
:10435000012000F09BFF28B9290A8DF811108DF873
:10436000125004E000218DF811108DF81210022077
:1043700000F08CFF28B9310A8DF813108DF8146005
:1043800004E000218DF813108DF81410032000F0C4
:104390007DFF28B9390A8DF815108DF8167004E0E4
:1043A00000218DF815108DF8161001A92B4805F085
:1043B00019FB06B0BDE8F08100204BE000EB0011D6
:1043C00001EB4101264A02EB8101B1F906100029F7
:1043D00008DD00EB001101EB410102EB8101B1F9B5
:1043E000061009E000EB001101EB41011C4A02EB51
:1043F0008101B1F90610494200EB001202EB4202C2
:10440000174B03EB8202B2F8C420914220DD00EB8F
:10441000001101EB41011A4602EB8101B1F90610CE
:10442000002902DA4FF0FF3100E0012100EB001219
:1044300002EB42020A4B03EB8202B2F8C420514362
:104440000AB200EB001101EB410103EB8101CA80CC
:10445000411CC8B20828B1DB70470000006800406A
:104460008C26002010B54FF40050FE490880FE490C
:1044700008801320FB4988702420FB49887043F68C
:104480009910F849888042F22830F74988809FEDDA
:10449000F70AF44880ED020A9FEDF50A084680ED20
:1044A000020A0020F34908709FEDF30A084680EDE8
:1044B000010A01200872C8204881012008734FF4C6
:1044C0007A70C8814000088201208874C8744FF453
:1044D000FA60EA49888300204860E948E24B0ECB45
:1044E00040300EC00020E649803908704870052031
:1044F00088704FF4E16088806421E1488038018150
:104500003221C180C168DFEDDF1A9FEDDF1ADFEDD8
:10451000DF0AB0EE0C0A3C30FFF75CFED84880386A
:10452000B0F90810F7EE001A9FEDD91ADFEDD90A9D
:10453000B1EE040A6430FFF74DFE1422CD49D04895
:104540000C3009F093FFCE48CC30C64BD3E90021A4
:104550009B68C0E9111302640020C949803981F8C1
:10456000CC000021C648803880F8CD10052180F8A5
:10457000CE104FF4E161A0F8D0106421A0F8D4105F
:104580003221A0F8D210C168DFEDBE1A9FEDBE1A2D
:10459000DFEDBF0AB2EE000A00F58470FFF71AFEE5
:1045A000B7488038B0F90810F7EE001A9FEDB61A38
:1045B000DFEDB80AB2EE000A00F59870FFF70AFEC8
:1045C0001422AC49AE48D83009F050FFB248A54992
:1045D000D1E900238968C0E9102381640020A8493B
:1045E000803981F898010021A548803880F8991118
:1045F000052180F89A114FF4E161A0F89C11642123
:10460000A0F8A0113221A0F89E11C168DFED9D1A1B
:104610009FED9D1ADFED9E0AB2EE000A00F5EA70EA
:10462000FFF7D8FD96488038B0F90810F7EE001A69
:104630009FED951ADFED970AB2EE000A00F5FE70C5
:10464000FFF7C8FD14228B4993480C3009F00EFF88
:104650009148CC30834B0ECB40300EC000208849AF
:10466000803981F8640200218548803880F865121D
:10467000052180F866124FF4E161A0F86812642108
:10468000A0F86C123221A0F86A12C168DFED7D1A21
:104690009FED7D1ADFED7E0AB2EE000A00F528706C
:1046A000FFF798FD76488038B0F90810F7EE001A49
:1046B0009FED751ADFED770AB2EE000A00F5327051
:1046C000FFF788FD14226B497348D83009F0CEFEFD
:1046D0007248644BD3E900219B68C0E9111302645E
:1046E00000206749803981F8300300216448803810
:1046F00080F83113052180F832134FF4E161A0F8FE
:1047000034136421A0F838133221A0F83613C1689D
:10471000DFED5C1A9FED5C1ADFED5D0AB2EE000A78
:1047200000F55B70FFF756FD55488038B0F908106A
:10473000F7EE001A9FED541ADFED560AB2EE000AAA
:1047400000F56570FFF746FD14224A4953480C30C6
:1047500009F08CFE5148CC30424B0ECB40300EC09D
:1047600000204749803981F8FC0300214448803803
:1047700080F8FD13052180F8FE134FF4E161A0F8E5
:1047800000146421A0F804143221A0F80214C168B6
:10479000DFED3C1A9FED3C1ADFED3D0AB2EE000A58
:1047A00000F58760FFF716FD35488038B0F908102E
:1047B000F7EE001A9FED341ADFED360AB2EE000A6A
:1047C00000F58C60FFF706FD14222A493348D830E3
:1047D00009F04CFE3248234B0ECB40300EC0002077
:1047E0002749803981F8C80400212548803880F89D
:1047F000C914052180F8CA144FF4E161A0F8CC1463
:104800006421A0F8D0143221A0F8CE14C168DFEDE5
:104810001D1A9FED1D1ADFED1E0AB2EE000A00F20E
:104820000450FFF7D7FC16488038B0F90810F7EEAF
:10483000001A9FED151ADFED170AB2EE000A00F21A
:104840002C50FFF7C7FC14220A4915480C3009F018
:104850000DFE1348CC30034B0ECB40300EC0002071
:1048600007491FE04C26002040260020F6283C4047
:104870001F852B3F582600200000E1446C260020B5
:104880000C270020CDCCCC3E000000008FC2F53DAF
:10489000CDCC4C3E9A99993EA42800203C2A002079
:1048A000D42B0020803981F894050021FE4880F83F
:1048B0009515052180F896154FF4E161A0F898153B
:1048C0006421A0F89C153221A0F89A15C1685FED0B
:1048D000131A1FED131A5FED120AB2EE000A00F56B
:1048E000BA60FFF777FCF048B0F90810F7EE001A4D
:1048F0001FED1B1A5FED190AB2EE000A00F5BF604A
:10490000FFF768FC1422E949E94809F0AFFD0024EB
:10491000BCE004EB041000EB4000E34901EB800035
:10492000E4490968C0F8A010E248416804EB0410AB
:1049300000EB4000DC4A02EB8000C0F8A41004EB5E
:10494000041101EB410102EB810101F1A8000A22EF
:10495000D849083109F08AFDD648418A04EB041091
:1049600000EB4000D04A02EB8000A0F8B21004EB4C
:10497000041000EB4000114601EB8000A030CD4B4D
:104980005A699969DB69C0E90613426104EB0410B6
:1049900000EB4000C44901EB8000D0ED240A04EB99
:1049A000041000EB400001EB800090F8C20000EE24
:1049B000100AB8EE400A20EE800A04EB041000EB67
:1049C000400001EB8000D0ED320A60EE200A04EBDB
:1049D000041000EB400001EB8000B0F8C00000EED6
:1049E000100AB8EE400A20EE800ADFEDB30A80EE2E
:1049F000201ABCEEC10A04EB041000EB400001EBEE
:104A0000800080ED280A04EB041000EB400001EB6D
:104A10008000B0F9040000EE100AB8EEC00A04EB02
:104A2000041000EB400001EB8000D0ED320A60EE94
:104A3000200A04EB041000EB400001EB800090F82A
:104A4000C20000EE100AB8EE400A60EE800A04EBE5
:104A5000041000EB400001EB8000B0F8C00000EE55
:104A6000100AB8EE400A20EE800ADFED930A80EECD
:104A7000201ABDEEC10A10EE100A04EB041101EB7E
:104A80004101894A02EB8101C860641C082CFFF6D1
:104A900040AF00208949C87088704870087108705C
:104AA00010BD002239210A54C26100218182704761
:104AB00010B5044604EB041000EB40007A4901EB0A
:104AC0008000D0ED1D0A04EB041000EB400001EB68
:104AD0008000B0F9080000EE100AB8EEC00A20EE1F
:104AE000800ABDEEC00A10EE100A04EB041101EBBF
:104AF00041016D4A02EB8101486604EB041000EBB2
:104B00004000114601EB8000B0F9181004EB0410CE
:104B100000EB400002EB8000C16704EB041101EBE5
:104B2000410102EB810101F16400FFF763FB04EB3B
:104B3000041000EB40005C4901EB8000C18804EBED
:104B4000041000EB4000584A02EB8000806F0844DC
:104B500001B204EB041000EB400002EB8000C180C6
:104B600010BD10B5044604EB041000EB40004E49A4
:104B700001EB8000B0F9040000EE100AB8EEC00AA4
:104B800004EB041000EB400001EB8000D0ED320A92
:104B900060EE200A04EB041000EB400001EB800003
:104BA00090F8C20000EE100AB8EE400A60EE800AEB
:104BB00004EB041000EB400001EB8000B0F8C000F3
:104BC00000EE100AB8EE400A20EE800ADFED3A0A45
:104BD00080EE201ABDEEC10A10EE100A04EB04119B
:104BE00001EB4101304A02EB8101C86004EB041083
:104BF00000EB4000114601EB8000C06804EB04119B
:104C000001EB410102EB8101C86304EB041000EBEE
:104C10004000114601EB8000407870B904EB0410AD
:104C200000EB400001EB8000D0F8A40004EB04117D
:104C300001EB410102EB8101C86304EB041000EBBE
:104C40004000194901EB800090F88C00C0B304EBE0
:104C5000041000EB400001EB8000C06B002807DD72
:104C600004EB041000EB400001EB8000C06B08E097
:104C700004EB041000EB40000B4901EB8000C06B1B
:104C8000404204EB041101EB4101074A02EB8101B0
:104C9000D1F8A01088422CD904EB041000EB40009E
:104CA000114601EB80000CE08C26002058260020E5
:104CB000AC2C00206C2600200000B4432C00002007
:104CC00017E0C06B002802DA4FF0FF3000E001204F
:104CD00004EB041101EB4101FE4A02EB8101D1F822
:104CE000A010484304EB041101EB410102EB8101E8
:104CF000C86304EB041000EB4000F64901EB8000B0
:104D0000C16904EB041000EB4000F24A02EB8000A2
:104D1000416504EB041101EB410102EB810101F15A
:104D20003C00FFF767FA04EB041000EB4000E94990
:104D300001EB8000D0ED130A04EB041000EB4000FF
:104D400001EB8000006D00EE100AB8EEC00A20EE04
:104D5000800ABDEEC00A10EE100A04EB041101EB4C
:104D60004101DC4A02EB8101486604EB041000EBD0
:104D70004000114601EB800090F8940088B304EBEA
:104D8000041000EB400001EB8000406E002807DDBE
:104D900004EB041000EB400001EB8000406E08E0E3
:104DA00004EB041000EB4000CA4901EB8000406EA8
:104DB000404204EB041101EB4101C64A02EB8101C0
:104DC000B1F8961088421FDD04EB041000EB4000A0
:104DD000114601EB8000406E002803DA4FF0FF30EF
:104DE00001E011E0012004EB041101EB4101B94A9B
:104DF00002EB8101B1F89610484304EB041101EB7A
:104E0000410102EB8101486604EB041000EB400015
:104E1000B04901EB8000B0F9181004EB041000EB6E
:104E20004000AC4A02EB8000C16704EB041101EBC7
:104E3000410102EB810101F16400FFF7DBF904EBB2
:104E4000041000EB4000A34901EB8000C18804EB93
:104E5000041000EB40009F4A02EB8000806F084482
:104E600001B204EB041000EB400002EB8000C180B3
:104E700004EB041000EB4000114601EB8000D0F879
:104E8000AC00002808DD04EB041000EB400001EB4F
:104E90008000D0F8AC0009E004EB041000EB400007
:104EA0008C4901EB8000D0F8AC0040423C280ADA83
:104EB000012004EB041101EB4101864A02EB810160
:104EC00081F8340009E0002004EB041101EB4101FA
:104ED000804A02EB810181F8340010BD10B5044610
:104EE00004EB041000EB40007A4901EB8000B0F9BC
:104EF0009A0004EB041101EB4101764A02EB8101B7
:104F0000486604EB041000EB4000114601EB800002
:104F1000B0F9181004EB041000EB400002EB800025
:104F2000C16704EB041101EB410102EB810101F1C6
:104F30006400FFF75FF904EB041000EB40006549E3
:104F400001EB8000C18804EB041000EB4000614AD3
:104F500002EB8000806F084401B204EB041000EB08
:104F6000400002EB8000C18004EB041000EB400025
:104F7000114601EB8000B0F8A800F0B904EB041072
:104F800000EB400001EB8000C06941F288318842AB
:104F900013DD04EB041000EB4000114601EB800030
:104FA000B0F8B000401C81B204EB041000EB4000EC
:104FB00002EB8000A0F8B01009E0002104EB04101F
:104FC00000EB4000434A02EB8000A0F8B01004EB75
:104FD000041000EB40003F4901EB8000B0F8B00046
:104FE000642829DD002104EB041000EB4000394A5D
:104FF00002EB8000A0F8B01004EB041000EB4000BE
:1050000002EB8000C161052004EB041101EB4101BA
:1050100002EB81018870012104EB041000EB4000D9
:1050200002EB800080F83510002004EB041101EB46
:10503000410102EB8101888010BD10B5002321E100
:1050400003EB031000EB4000224901EB8000018CD0
:1050500003EB031000EB40001E4A02EB8000008EC1
:10506000081A01B203EB031000EB400002EB8000D2
:10507000A0F8A81003EB031000EB4000114601EB71
:105080008000808A03EB031101EB410102EB8101F7
:10509000888403EB031000EB4000114601EB800015
:1050A000C18A03EB031000EB400002EB8000C184D7
:1050B00003EB031000EB4000114601EB8000018B75
:1050C00003EB031000EB400002EB8000018503EBD3
:1050D000031001E08C26002000EB4000114601EB9C
:1050E0008000C16903EB031000EB400002EB80007D
:1050F000C16203EB031000EB4000114601EB80009E
:10510000018C03EB031000EB400002EB80000186F2
:1051100003EB031000EB4000114601EB8000418CD3
:1051200003EB031000EB400002EB8000418603EB31
:10513000031000EB4000114601EB8000B0F9A8001D
:10514000002808DD03EB031000EB400001EB8000BA
:10515000B0F9A80009E003EB031000EB4000FE49A2
:1051600001EB8000B0F9A8004042B0F57A6F2CDD69
:1051700003EB031000EB4000F74901EB8000B0F9AE
:10518000A81003EB031000EB4000F34A02EB800091
:10519000B0F9A800002802DA4FF0FF3000E001204B
:1051A00003EB031202EB4202EB4C04EB8202B2F877
:1051B000C02000FB121001B203EB031000EB400013
:1051C000224602EB8000A0F8A81003EB031000EBCE
:1051D0004000E14901EB8000C16903EB031000EBE3
:1051E0004000DD4A02EB8000B0F9A800014403EB67
:1051F000031000EB400002EB8000C16103EB0310E1
:1052000000EB4000114601EB8000C16803EB031086
:1052100000EB400002EB8000C069091A03EB0310A9
:1052200000EB400002EB8000C0F8AC1003EB031071
:1052300000EB4000114601EB8000407870B103EBB9
:10524000031000EB400001EB8000C16903EB031089
:1052500000EB400002EB8000C0F8A41003EB031049
:1052600000EB4000BC4901EB800090F8390040B1F0
:1052700003EB031101EB4101B74A02EB8100FFF799
:1052800010FC5B1C082BFFF6DBAE10BD10B5014611
:1052900001EB011000EB4000AF4B13F8200008B900
:1052A000012010BDAD48807C002871D001EB0110B9
:1052B00000EB4000A84B03EB8000807802287DD1F2
:1052C00001EB011000EB400003EB8000008B002895
:1052D00074D001EB011000EB400003EB8000C06FC5
:1052E000002807DD01EB011000EB400003EB80001C
:1052F000C06F08E001EB011000EB4000964B03EBA0
:105300008000C06F4042642802DA501C82B200E084
:105310000022B2F5967F0ADD012301EB011000EBBC
:1053200040008D4C04EB800080F8363009E000230B
:1053300001EB011000EB4000874C04EB800080F88B
:10534000363001EB011000EB4000834B03EB800093
:1053500090F83600012819D101EB011000EB400054
:1053600003EB8000B0F92200C8280FDB4FF48070F7
:105370007B4B1883002301EB011000EB4000764CBF
:1053800004EB8000038101208BE701E0002088E727
:1053900001EB011000EB40006F4B03EB80008078C5
:1053A00005280BD101EB011000EB400003EB80005E
:1053B000C36901EB011000EB400000E08BE0664C9C
:1053C00004EB8000C06A181A002810DD01EB011000
:1053D00000EB4000234603EB8000C36901EB0110A2
:1053E00000EB400004EB8000C06A181A10E001EBEB
:1053F000011000EB4000584B03EB8000C36A01EB47
:10540000011000EB4000544C04EB8000C069181AF6
:105410000A2860DA01EB011000EB40004E4B03EB71
:105420008000C06F002807DD01EB011000EB400099
:1054300003EB8000C06F08E001EB011000EB4000BF
:10544000454B03EB8000C06F4042642802DA501CD9
:1054500082B202E00022012023E7B2F5967F0ADD46
:10546000012301EB011000EB40003B4C04EB8000FA
:1054700080F8363009E0002301EB011000EB40001A
:10548000354C04EB800080F8363001EB011000EB66
:105490004000314B03EB800090F83600012818D112
:1054A00001EB011000EB400003EB8000B0F922009B
:1054B000C8280EDB4FF48070294B1883002301EBC2
:1054C000011000EB4000244C04EB8000038101201C
:1054D000E7E60020E5E60020E3E610B5044604EB2D
:1054E000041000EB40001C4911F82000012852D1A3
:1054F0001A48C07C78B308F0F7FD1A4951F8241017
:10550000401AB0F5FA6F06D317480088401C00B265
:105510001549088002E000201349088004EB0410BC
:1055200000EB40000C4901EB800090F837000128A7
:1055300024D10D48B0F900000A281FDD022003F035
:10554000AFF9012003F092FC012104EB041000EB01
:105550004000014A0AE01EE08C2600205826002068
:1055600000000240DC0300202000002002EB80004D
:1055700080F83710C82003F09AFA0CE0002104EB01
:10558000041000EB4000434A02EB800080F8371023
:10559000002003F06BFC10BD3F48007868B1052087
:1055A0003C49887005213B4880F8CE1080F89A115C
:1055B00080F866120020384908703748407890B16A
:1055C00036480078334908703448007881F8CC00B8
:1055D0003248007881F898013048007881F86402F8
:1055E00000202D4948702C488078A8B12C480078BC
:1055F000284948702A480178264880F8CD10284864
:105600000178244880F8991125480178214880F8CC
:1056100065120020204988701F480079D0B12148C8
:10562000008881B21B48A0F896101E48008881B2FD
:105630001848A0F862111B48008881B21548A0F8EC
:105640002E121848008881B21248A0F8FA120020E1
:10565000114908711048C078D8B1134800884042F9
:1056600000B20C4988801048008801B20948A0F8AF
:10567000D0100D480088404201B20648A0F89C11A5
:105680000948008801B20348A0F8681200200249C6
:10569000C87070478C2600202C00002031000020AC
:1056A0003C000020380000203400002010B54FF4EA
:1056B0008050FA490880B7EE000A084680ED010ADA
:1056C0004FF48050F6490880B7EE000A084680ED96
:1056D000010A4FF48050F3490880B7EE000A0846EB
:1056E00080ED010A0020F04908709FEDF00A08469D
:1056F00080ED010A012008724FF47A704881012080
:1057000008734FF4FA70C881C00008828010E8491D
:1057100008820020E749087048708870C8700871D6
:1057200048718871C871E448DC4A06CAC0E913129E
:105730000020E1494870022008704FF4967088807C
:105740006421DD488160C1800021C1601422D649F6
:10575000203008F08BFED848D5490A684263898812
:105760000187D348C188D4484187D14CA168E268F9
:10577000236964693C301EC010BD10B586B0044674
:10578000002001908DF80D008DF80C0008208DF898
:105790000E0001208DF80F0000218DF810108DF8FB
:1057A00011108DF812108DF813108DF814108DF85B
:1057B00015108DF8161001A9204604F013F906B053
:1057C00010BD70B504460D461646BC484088401CC6
:1057D0001E2190FBF1F201FB1200B84909888842B2
:1057E00003D10120B649C87170BD04F54070B349BA
:1057F0004A88091D01EB021108600821AF48428860
:10580000001D00EB021001715521AC484288001DBB
:1058100000EB021041714D21A8484288001D00EBA9
:10582000021081710021A5484288001D00EB021082
:10583000C171A2484288001D00EB021001729F480E
:105840004188001D00EB0110457200219B484288F1
:10585000001D00EB0210817298484288001D00EB89
:105860000210C17295484288001D00EB02100173BE
:1058700092484088401C1E2190FBF1F201FB12006F
:105880008E4948800121601EC0EBC00000EB400043
:10589000894A02EB800080F8471008F025FC611E61
:1058A000C1EBC10101EB4101834A02EB81010864B4
:1058B00000BF99E770B504460D4680484088401CFB
:1058C0001E2190FBF1F201FB12007C4909888842FD
:1058D00003D101207A49C87170BD04F54070774941
:1058E0004A88091D01EB02110860042173484288AF
:1058F000001D00EB02100171532170484288001D09
:1059000000EB0210417156216C484288001D00EBEB
:1059100002108171002169484288001D00EB0210CD
:10592000C17166484288001D00EB02100172634895
:105930004188001D00EB0110457360484088401C01
:105940001E2190FBF1F201FB12005C49488001210D
:10595000601EC0EBC00000EB4000574A02EB800025
:1059600080F8471008F0C0FB611EC1EBC10101EBDC
:105970004101514A02EB8101086400BFACE770B5F8
:1059800086B005460C46164605F54070019000208D
:105990008DF80D008DF80C0008208DF80E004D20BC
:1059A0008DF80F004F218DF8101000218DF8111087
:1059B0008DF812108DF813408DF814108DF8151015
:1059C0008DF8161001A93F4804F00CF806B070BD20
:1059D00070B504460D4639484088401C1E2190FB96
:1059E000F1F201FB120035490988884203D10120F8
:1059F0003349C87170BD04F5407030494A88091DAB
:105A000001EB0211086004212C484288001D00EBC4
:105A100002100171422129484288001D00EB02104A
:105A20004171472125484288001D00EB0210817119
:105A3000002122484288001D00EB0210C1711F485E
:105A40004288001D00EB021001721C484188001DB5
:105A500000EB0110457319484088401C1E2190FB43
:105A6000F1F201FB1200154948800121601EC0EBD4
:105A7000C00000EB4000104A02EB800080F84710A5
:105A800008F032FB611EC1EBC10101EB41010A4A82
:105A900002EB8101086400BFACE700004000002079
:105AA0004800002050000020EC2C0020000034446E
:105AB000002D0020BC2E0020182D00204059002071
:105AC000CE0300200068004070B504460D46F9483A
:105AD0004088401C1E2190FBF1F201FB1200F549A9
