:020000040800F2
:1000000008B10020ADD1000865A1000867A1000873
:1000100079A100087DA1000881A10008000000006E
:1000200000000000000000000000000085A10008A2
:1000300087A100080000000017F400087BF6000804
:10004000C7D10008C7D10008C7D10008C7D1000830
:10005000C7D10008C7D10008C7D10008C7D1000820
:10006000C7D10008C7D10008C7D10008C7D1000810
:10007000C7D10008C7D10008814C0008C7D10008CB
:10008000C7D1000801210008C7D10008C7D1000866
:10009000610B0008C7D10008C7D10008C7D100080C
:1000A000C7D10008C7D10008C7D10008C7D10008D0
:1000B0003F030008B3060008C7D10008C7D10008F5
:1000C000C7D10008C7D10008C7D10008C7D10008B0
:1000D000C7D10008C7D1000827210008D54C000867
:1000E000C7D10008C7D10008C7D10008C7D1000890
:1000F000C7D10008C7D10008C7D10008C7D1000880
:10010000C7D10008C7D10008C7D10008C7D100086F
:10011000C7D10008C7D10008C7D10008C7D100085F
:10012000C7D10008C7D10008C7D10008C7D100084F
:10013000C7D10008C7D10008C7D10008C7D100083F
:100140003112000881140008C7D10008C7D1000887
:10015000C7D10008C7D10008F11F0008C7D10008A7
:10016000C7D10008C7D10008C7D10008C7D100080F
:10017000C7D10008C7D10008C7D10008C7D10008FF
:10018000C7D10008C7D10008DFF80CD00FF0EEFC93
:10019000004800475B1E000808B1002030BF72B65F
:1001A000704762B6704780F30888704710B5082022
:1001B00010F034F9044600206060204610BD012094
:1001C00044494871704710B506F062F8424806F09D
:1001D00012F907F059FE404807F0EDFE04F0E2FE88
:1001E00007F07AFBFFF7EBFF002019E0002100EB9E
:1001F00080023A4B03EB4202517000EB800203EBAA
:10020000420291714FF47A7100EB800203EB4202DB
:100210005180002100EB800203EB42029180401CE0
:100220000228E3DBFFF7C2FF2D49486010BD002222
:100230000A7803780B700270704770B506460C465A
:10024000354600E06D6815B16868A042FAD14CB13E
:1002500060686860204610F0B9F821480078401EB8
:100260001F49087070BD02460B46114605E008881C
:10027000984201D10846704749680029F7D100200B
:10028000F9E72DE9F041074688463C4641462046BD
:10029000FFF7E9FF08B1BDE8F081002602E06468DD
:1002A000701CC6B20E480078B04201DD002CF6D1B9
:1002B0006CB1082010F0B2F80546A5F8008060681F
:1002C0006860656006480078401C0549087000BFFA
:1002D000E1E70000C603002000680040280100207C
:1002E000040000201FB5012108460BF0ECFC41F68C
:1002F000573002900520ADF804000020ADF806004C
:10030000ADF80C0001A94FF080400BF094FE0122E3
:10031000114690070CF030FB012188070BF014FF09
:100320001C208DF8000002208DF801008DF80200DD
:1003300001208DF8030068460AF0A7FA1FBD70B5CA
:10034000012188070CF02FFB01287DD100247DE0DE
:10035000C4EB0410BC4901EB800090F83200012886
:100360002BD1C4EB041011F8200030B30FF00CF8BF
:10037000C4EB0411B44A02EB8101C96A411AC4EB0F
:10038000041002EB8000008E814216D9C4EB0410E9
:10039000114601EB800090F8320001280DD1C4EB2A
:1003A000041001EB800090F82800401CC4EB0411FD
:1003B00002EB810181F8280007E00020C4EB041162
:1003C000A14A02EB810181F82800C4EB04109E4988
:1003D00001EB800090F82800642818DD0121C4EBAF
:1003E0000410994A02EB800080F82510022009F0E1
:1003F0009FFB621C032343EA021242F48071934A7A
:100400005068FFF73EFF022009F080FE1AE000204E
:1004100009F07CFE0021C4EB04108B4A02EB800043
:1004200080F82510621C032343EA021242F4807113
:10043000864A5068FFF717FF0546844948682946F1
:10044000FFF7FBFE601C00E0F9E0C4B2042CFFF6ED
:100450007FAF00246FE0C4EBC40000EB40007C4998
:1004600001EB80004078002864D00EF08DFFC4EBD3
:10047000C40101EB4101764A02EB8101096C411A8A
:10048000C4EBC40000EB400002EB8000B0F8440075
:1004900081421BD9C4EBC40000EB4000114601EBC4
:1004A000800090F84700012810D1C4EBC40000EB95
:1004B000400001EB8000808F401C81B2C4EBC4007F
:1004C00000EB400002EB8000818708E00021C4EBD4
:1004D000C40000EB40005E4A02EB80008187C4EB61
:1004E000C40000EB40005A4901EB8000808FB0F55A
:1004F0007A7F13DD0121C4EBC40000EB4000544AB5
:1005000002EB8000C177022009F012FB032009F002
:10051000FDFD4FF4FA7009F012FC0BE0002009F029
:10052000F5FD0021C4EBC40000EB4000484A02EB9B
:100530008000C177641C042C8DD3002404E0204685
:1005400005F079FD601CC4B2082CF8DB002474E0CF
:1005500004EBC40000EB04103E4901EB800040783E
:1005600090B30EF011FF04EBC40101EB0411394A02
:1005700002EB8101096D411A04EBC40000EB041089
:1005800002EB8000B0F8540081421ED904EBC40095
:1005900000EB0410114601EB800090F85700012891
:1005A00013D104EBC40000EB041001EB8000B0F8A1
:1005B0004C00401C81B204EBC40000EB041002EBC1
:1005C0008000A0F84C100AE035E0002104EBC400E4
:1005D00000EB04101F4A02EB8000A0F84C1004EB63
:1005E000C40000EB04101B4901EB8000B0F84C0084
:1005F000642813DD012104EBC40000EB0410154A4C
:1006000002EB800080F82F10022009F091FA0420FC
:1006100009F07CFDC82009F092FB0CE0002009F0F5
:1006200075FD002104EBC40000EB0410094A02EB45
:10063000800080F82F10601CC4B2042C88DB0121DC
:1006400088070CF0C1F970BD302F00200400002095
:10065000702D00205C3000201FB5012102200BF01E
:1006600032FB42F6DF6002900720ADF80400002064
:10067000ADF80600ADF80C0001A980480BF0DBFCDA
:10068000012211467D480CF077F901217B480BF0DF
:100690005BFD1D208DF8000001208DF80100002079
:1006A0008DF8020001208DF8030068460AF0EDF88D
:1006B0001FBD70B5012171480CF075F901287AD180
:1006C00005F062FA002432E004EBC40000EB4000C5
:1006D0006B4911F8300028B304EBC40000EB400074
:1006E00001EBC0004078F0B104EBC40000EB400027
:1006F00001EBC0008078012806D0022805D004282C
:100700000BD005280DD104E00CE020B204F073FFFB
:1007100008E020B204F0CAFF04E020B205F083F93B
:1007200000E000BF02E020B204F0C0FF641C082C0F
:10073000CADB04F0E1FB524CB4F99032B4F9B821B1
:10074000B4F9E010B4F9080004F07DFBB4F9F03519
:10075000B4F91825B4F94014B4F9680304F01AFB8D
:10076000002477E0C4EB0410464911F8200000286B
:1007700068D0C4EB041001EB80004078F0B3C4EB08
:10078000041001EB80008078B0B1012804D0022869
:1007900021D0032845D135E0C4EB0411394A02EBDE
:1007A0008101D1ED010AB0EE600A611CC8B20021DE
:1007B00007F0E1F936E05FE0C4EB0411314A02EBE7
:1007C0008101D1ED040AB0EE600A611CC8B20021BB
:1007D00007F019F926E0C4EB04122A4B03EB82025E
:1007E0009268C4EB0413274D05EB830393F838306C
:1007F00002FB03F1621CD0B2002200E013E007F01C
:1008000064F90FE0C4EB04111E4A02EB8101D1ED43
:100810000D0AB0EE600A611CC8B2002107F00FFAA1
:1008200000E000BF15E0C4EB0411164A02EB8101A1
:10083000D1ED0D0AB0EE600A611CC8B2002107F0CC
:10084000FEF906E0611CC8B200219FED0F0A07F017
:1008500092F9641C082C85DB0C490D4809F09FF8BF
:100860000C490D4809F09BF80C49094809F097F824
:10087000012102480CF0A8F870BD000000040040FF
:1008800084260020302F0020000000006865002032
:100890000068004084630020006400404C67002032
:1008A00000B58BB0012148060BF00DFA0121084676
:1008B0000BF0D6F909220B21FE480BF016F809229D
:1008C0000C21FC480BF011F802208DF818004FF4B1
:1008D000C050059005A9F7480AF07CFF14208DF858
:1008E000280003208DF8290000208DF82A0001201F
:1008F0008DF82B000AA809F0C8FFEF480AF030F87D
:1009000007A80AF051F900208DF822008DF8230085
:100910008DF824008DF825008DF826008DF827002D
:100920008DF81E008DF81F0008208DF82000032090
:100930008DF82100ADF81C0007A9DF480AF029F85E
:1009400001208DF80E008DF80F0000208DF81000AA
:1009500046F2A000ADF8040046F2C000ADF8060073
:1009600046F2E000ADF808004FF4C240ADF80A00CE
:100970000020ADF80C0001208DF8110001A80AF04C
:1009800092F803208DF80E0001208DF80F00002052
:100990008DF810004FF4C840ADF8040046F2200076
:1009A000ADF8060046F24000ADF8080046F26000DF
:1009B000ADF80A000020ADF80C0001208DF8110000
:1009C00001A80AF070F804208DF80E0000208DF8C0
:1009D0000F0001208DF810000820ADF8040042F649
:1009E0000400ADF806004FF6FF70ADF80800ADF852
:1009F0000A000020ADF80C0001208DF8110001A8BC
:100A00000AF051F801220221AB480AF04BFB0BB06F
:100A100000BD10B50446A9484088401C1E2190FB2B
:100A2000F1F201FB1200A5490988884203D1012097
:100A3000A349887110BD20688038A0494A88091DE3
:100A400001EB02110860A17A9C484288001D00EB6E
:100A500002100171A27A99494B88091D01EB03111B
:100A6000481D04F10B010EF051FE94484088401CD3
:100A70001E2190FBF1F201FB12009049488000BF5B
:100A8000D8E710B501468D484088401C1E2290FBD7
:100A9000F2F302FB1300894A1288904203D101202D
:100AA000874A907110BDA1F18002844B5C881B1DA8
:100AB00003EB04131A600523804A5488121D02EBCD
:100AC0000412137142237D4A5488121D02EB041252
:100AD00053717A4A5488121D02EB04129371472312
:100AE000764A5488121D02EB0412D3714A1FD0B209
:100AF00000EBC00202EB4202724B03EBC2029269AE
:100B000000EE102AB8EEC00AF3EE0E0A20EE200A1C
:100B100000EBC00202EB420203EBC202D2ED350A47
:100B200080EE201ABDEEC10A10EE102A12B2664BFA
:100B300023F810201A4632F81030604A5488121DEB
:100B400002EB0412138100BF5C484088401C1E2247
:100B500090FBF2F302FB1300584A508000BFA1E75C
:100B600010B586B0022154480AF004FB00287CD05E
:100B7000022151480AF099FB02214F480AF0D7FAA6
:100B800001AA00214C480AF072F99DF80C000028D7
:100B90006CD19DF80D000028FAD140F20531019882
:100BA00088420BD0491C0198884207D0491C019803
:100BB000884203D00198B0F5427F79D10198401F57
:100BC000C4B29DF80F0043280FD19DF8100057289C
:100BD0000BD19DF81100482807D19DF81200552827
:100BE00003D101A8FFF715FFC7E09DF80F004328C8
:100BF00028D19DF81000482824D1BDF811003249B1
:100C000021F81400084630F9140000EE100AB8EE7E
:100C1000C00AF3EE0E0A80EE201ABDEEC10A10EEF5
:100C2000100A04EBC40101EB4101264A02EBC101A9
:100C30004860012004EBC40101EB410102EBC1015A
:100C400048709AE09DF80F0053281BD19DF81000C2
:100C5000502817D1BDF811001C4921F8140008468E
:100C600030F8141004EBC40001E046E1F9E000EBB9
:100C70004000144A02EBC000A0F8A21001A8FFF740
:100C8000C8FE7AE09DF80F004D2833D19DF8100082
:100C90004F282FD19DF8110001282BD1052004EBFE
:100CA000C40101EB4101074A02EBC10188700FE06A
:100CB00064E0000000000240006400408463002003
:100CC000C6030020842600200C0000201400002011
:100CD000012004EBC40101EB410102EBC1014870AA
:100CE00004EBC40101EB410102F8310001A8FFF758
:100CF00090FE42E09DF80F004D2819D19DF810009C
:100D00004F2815D19DF8110090B9002004EBC401C3
:100D100001EB41017A4A02F8310004EBC40101EB16
:100D2000410102EBC101487001A8FFF772FE24E007
:100D30009DF80F00532810D19DF8100054280CD1B5
:100D4000002004EBC40101EB41016D4A02EBC1013B
:100D5000487001A8FFF75DFE0FE09DF80F004228E4
:100D60000BD19DF81000422807D19DF811004728AB
:100D700003D1019988B2FFF784FE00BF0198B0F556
:100D8000487F6ED1BDF80F005E490880BDF81100A4
:100D90004880BDF813008880BDF81500C88008465B
:100DA000B0F9000000EE100AB8EEC00AF3EE0E0A29
:100DB00080EE201ABDEEC10A10EE100A50494860BC
:100DC00001204870052088704E48B0F9020000EEFE
:100DD000100AB8EEC00AF3EE0E0A80EE201ABDEE3D
:100DE000C10A10EE100AC1F8DC000121444880F865
:100DF000D910052180F8DA104248B0F9040000EE5D
:100E0000100AB8EEC00AF3EE0E0A80EE201ABDEE0C
:100E1000C10A10EE100A3A49C1F8B401012138485C
:100E200080F8B111052180F8B2113648B0F90400FC
:100E300000EE100AB8EEC00AF3EE0E0A80EE201A99
:100E4000BDEEC10A10EE100A2D49C1F88C02012135
:100E50002B4880F88912052180F88A1201A8FFF733
:100E6000D8FD9DF80C00042847D1274902988842F4
:100E700043D19DF810006B283FD19DF811004C28FC
:100E80003BD19DF8120001280CD1AA211C48C0F8C2
:100E900064134942C0F83C14AA21C0F81415494211
:100EA000C0F8EC159DF8120060B95F211448C0F835
:100EB00064134942C0F83C145F21C0F8141549423C
:100EC000C0F8EC15BDF8130081B20D48A0F802146B
:100ED000BDF8130081B20A48A0F8DA14BDF8130077
:100EE00081B20748A0F8B215BDF8130081B20448DA
:100EF000A0F88A1601A8FFF78CFD06B010BD00000F
:100F0000842600200C000020000501002DE9F0419E
:100F10008AB004460D4616461F46DDF84080012182
:100F200002200AF09DFE012188060AF0CCFEFE4850
:100F300009F016FD09220521FC480AF0D6FC092219
:100F40000621FA480AF0D1FC02208DF82400602026
:100F5000089008A9F5480AF03DFC40208DF80000F3
:100F600002208DF8010000208DF8020001208DF88C
:100F70000300684609F089FC41208DF8000002203A
:100F80008DF8010001208DF802008DF803006846FD
:100F900009F07BFC00208DF81A008DF81B008DF8FD
:100FA0001C008DF81D008DF81E008DF81F008DF8B7
:100FB00016808DF817408DF818608DF81950ADF82F
:100FC000147005A9D84809F0E4FC0E208DF80E0035
:100FD00001208DF80F0000208DF8100044F2200051
:100FE000ADF8040044F24000ADF8060044F26000A1
:100FF000ADF808004FF48140ADF80A000020ADF8CC
:101000000C0001208DF8110001A809F04CFD0F2003
:101010008DF80E0001208DF80F0000208DF81000D3
:1010200044F2A000ADF8040044F2C000ADF80600A0
:1010300044F2E000ADF808004FF48240ADF80A0039
:101040000020ADF80C0001208DF8110001A809F076
:101050002AFD10208DF80E0001208DF80F000020D1
:101060008DF8100045F22000ADF8040045F2400074
:10107000ADF8060045F26000ADF808004FF4A1405D
:10108000ADF80A000120ADF80C008DF8110001A8A0
:1010900009F009FD11208DF80E0001208DF80F00D8
:1010A00000208DF8100045F2A000ADF8040045F2D4
:1010B000C000ADF8060045F2E000ADF808004FF4BE
:1010C000A240ADF80A000120ADF80C008DF8110027
:1010D00001A809F0E8FC12208DF80E0001208DF81F
:1010E0000F0000208DF810004FF48150ADF804007F
:1010F0004FF48250ADF806004FF48350ADF808006D
:101100004FF48450ADF80A000120ADF80C008DF8C2
:10111000110001A809F0C7FC13208DF80E00012072
:101120008DF80F0000208DF810004FF48550ADF8B9
:1011300004004FF48650ADF806004FF48750ADF828
:1011400008004FF48850ADF80A000120ADF80C00FB
:101150008DF8110001A809F0A6FC14208DF80E00EE
:1011600000208DF80F0001208DF810000020ADF850
:1011700004004FF49040ADF806004FF6FF70ADF854
:1011800008004FF47840ADF80A000120ADF80C00DB
:101190008DF8110001A809F086FC15208DF80E00CD
:1011A00001208DF80F0000208DF810004BF2200078
:1011B000ADF804004BF24000ADF806004BF26000C1
:1011C000ADF808004BF28000ADF80A000120ADF840
:1011D0000C008DF8110001A809F065FC16208DF8AF
:1011E0000E0001208DF80F0000208DF810004FF444
:1011F0000150ADF804004FF40250ADF80600ADF810
:101200000800ADF80A000120ADF80C008DF81100BF
:1012100001A809F048FC01221021434809F042FFCF
:1012200001220221404809F03DFF0AB0BDE8F081EB
:1012300010B586B001AA00213B4809F018FE9DF8C0
:101240000C0000286FD19DF80C0000286BD19DF890
:101250000E00082867D10198B0F5007F63D9019886
:10126000B0F5027F5FD80198401EC4B2304850F8F4
:101270002400304941F824000EF086F82C4941F84A
:1012800024009DF812109DF8110041EA002001B2DF
:1012900004EBC40000EB4000274A02EBC000C1830E
:1012A0009DF810009DF80F1040EA012104EBC400E6
:1012B00000EB400002EBC00041629DF814109DF865
:1012C000130041EA002001B204EBC40000EB40002F
:1012D00002EBC00081839DF8151004EBC40000EB05
:1012E000400002EBC000018504EBC40000EB4000AD
:1012F000114601EBC000006A00EE100AB8EEC00A09
:10130000DFED0E0A60EE200A04EBC40000EB4000A3
:1013100001EBC00090F8CE0000EE100AB8EE401AC3
:1013200080EE810A0CE04BE00068004000040240BF
:10133000F4030020D4030020842600200000B443DE
:1013400004EBC40000EB400001EBC00090ED351A47
:10135000C0EE010A04EBC40000EB400001EBC0004A
:10136000B0F8CC0000EE100AB8EE400A80EE801A09
:10137000BDEEC10A10EE100A04EBC40101EB4101FD
:1013800002EBC101886104EBC40000EB4000114690
:1013900001EBC00090F8460088B9012104EBC400BD
:1013A00000EB400002EBC00080F84610002104EB87
:1013B000C40000EB400002EBC000A0F8B41000BF76
:1013C0000221FE4809F071FF0221FC4809F0AFFE3E
:1013D00006B010BDF0B585B007460D4600241220BA
:1013E0000090019000208DF808008DF809008DF81C
:1013F0000A5000BF05E0395D0DF10B000155601C7E
:1014000084B2AC42F7DB6946EC4809F03BFC064687
:10141000002401E0601C84B23146E84809F0CAFCAF
:1014200018B940F6FF708442F4DB40F6FF70844246
:1014300002DB012005B0F0BD0020FBE74168491C3C
:101440004160002101730169491E0161818A491CC3
:101450001E2291FBF2F302FB131181827047416857
:10146000491C4160002101730169491E0161818AA3
:10147000491C1E2291FBF2F302FB1311818270477B
:1014800010B586B01021CD4809F074FE002874D044
:1014900001AA0121C94809F0EAFC1021C74809F056
:1014A00004FF1021C54809F042FE0198B0F5B06F65
:1014B00074D940F28551019888426FD89DF80D008B
:1014C00000286BD10198A0F28150C4B2002104EB36
:1014D000C40000EB0410BA4A02EB800080F85710F9
:1014E0009DF80F004F2809D19DF81000602805D104
:1014F0009DF81100602801D1012000E000209DF836
:101500000F10432909D19DF81010622905D19DF8CB
:101510001110602901D1012100E0002108439DF84C
:101520000F10432909D19DF81010642905D19DF8A9
:101530001110602901D1012100E0002108439DF82C
:101540000F10432909D19DF810106B2905D19DF882
:101550001110602901D1012100E0002108439DF80C
:101560000F1043290AD19DF810106C2906D19DF85F
:101570001110602902D1012101E063E30021084339
:101580009DF80F104B290AD19DF81010402906D163
:101590009DF81110602902D1012101E047E10021ED
:1015A00008439DF80F104B2909D19DF81010772999
:1015B00005D19DF81110602901D1012100E0002121
:1015C000084330B1C4EB84117E4A02EBC100FFF73F
:1015D00046FF9DF80F004B2816D19DF810004028BB
:1015E00012D19DF8110060280ED19DF81300C01093
:1015F00008B1012000E0002004EBC40101EB04115C
:101600006F4A02EB810148709DF80F004F2810D1FE
:101610009DF8100060280CD19DF81100602808D1B9
:101620009DF8130004EBC40101EB0411644A02F8B5
:1016300021009DF80F00432849D19DF81000622831
:1016400045D19DF81100602841D1DDF8131004EB5D
:10165000C40000EB04105A4A02EB8000016104EB65
:10166000C40000EB0410114601EB800090ED180A55
:101670001FEDCE1AC1EE000A04EBC40000EB04100B
:1016800001EB8000006900EE100AB8EEC00A20EEFF
:10169000800AB1EE001AC0EE010A04EBC40000EBB0
:1016A000041001EB8000B0F85C0000EE100AB8EE08
:1016B000400A80EE801ABDEEC10A10EE100A00B298
:1016C00004EBC40101EB041102EB810188809DF859
:1016D0000F00432849D19DF81000642845D19DF89A
:1016E0001100602841D1DDF8131004EBC40000EBB9
:1016F0000410334A02EB8000416204EBC40000EBAB
:101700000410114601EB800090ED180A1FEDF51A48
:10171000C1EE000A04EBC40000EB041001EB8000F2
:10172000406A00EE100AB8EEC00A20EE800AB1EE60
:10173000001AC0EE010A04EBC40000EB041001EB38
:101740008000B0F85C0000EE100AB8EE400A80EEAF
:10175000801ABDEEC10A10EE100A00B204EBC401FB
:1017600001EB041102EB810108839DF80F0043286F
:1017700011D19DF810006B280DD19DF81100602843
:1017800009D1DDF8131004EBC40000EB04100C4A7F
:1017900002EB8000C1609DF80F00432818D19DF82E
:1017A00010006C2814D19DF81100602810D1DDF8CC
:1017B000131004EBC40000EB041005E000680040C7
:1017C0005C300020D0550020FE4A02EB8000016210
:1017D0009DF80F004B2829D19DF81000772825D1BE
:1017E0009DF81100602821D1DDF8131004EBC4002E
:1017F00000EB0410F34A02EB8000816204EBC400AA
:1018000000EB0410114601EB8000806A00EE100A24
:10181000B8EEC00ADFEDEC0A80EE201A04EBC4003B
:1018200000EB041001EB800080ED071A00BF019867
:10183000B0F5207F7ED90198B0F5227F7AD89DF847
:101840000D00002876D10198A0F28120C4B20021B9
:10185000C4EBC40000EB4000DC4A02EB800080F8DF
:1018600047109DF80F0041280BD19DF81000432828
:1018700007D19DF8120000F04000012801D001209E
:1018800000E000209DF80F1042290BD19DF81010A8
:10189000472907D19DF8121001F04001012901D01C
:1018A000012100E0002108439DF80F104A290BD1C7
:1018B0009DF81010562907D19DF8121001F0400133
:1018C000012901D0012100E0002108439DF80F10FB
:1018D0004D290BD19DF810104F2907D19DF81210FA
:1018E00001F04001012901D0012100E0002108435D
:1018F0009DF80F1050290BD19DF81010522907D1D7
:101900009DF8121001F04001012901D0012100E0F1
:10191000002108439DF80F1053290CD19DF8101099
:10192000442908D19DF8121001F04001012902D08C
:10193000012101E0EFE0002108439DF80F10532939
:101940000BD19DF81010542907D19DF8121001F009
:101950004001012901D0012100E0002108439DF848
:101960000F1054290BD19DF81010432907D19DF871
:10197000121001F04001012901D0012100E00021F5
:1019800008439DF80F1055290BD19DF810104D29D3
:1019900007D19DF8121001F04001012901D0012169
:1019A00000E00021084330B1C4EB8411884A02EB07
:1019B000C100FFF743FD9DF80F004D2817D19DF89A
:1019C00010004F2813D19DF8120000F040000128AC
:1019D0000DD09DF8130008B1012000E00020C4EBF9
:1019E000C40101EB4101794A02EB810148709DF885
:1019F0000F0056282FD19DF8100058282BD19DF8A4
:101A0000120000F04000012825D0DDF81310C4EBCF
:101A1000C40000EB40006D4A02EB80004161C4EB62
:101A2000C40000EB4000114601EB8000B0F84C0010
:101A30003C2190FBF1F1C4EBC40000EB400002EB51
:101A40008000406990FBF1F1C4EBC40000EB400062
:101A500002EB800041619DF80F00502841D19DF8B4
:101A6000100058283DD19DF8120000F040000128D8
:101A700037D0DDF81300C4EBC40101EB4101534A38
:101A800002EB81018861C4EBC40101EB410102EB6F
:101A9000810191ED140A9FED4F1AC1EE000A00EE8C
:101AA000100AB8EEC00A60EE800AC4EBC40101EB74
:101AB000410102EB8101B1F84C1000EE101AB8EEB2
:101AC000400A80EE801ABDEEC10A10EE101A09B26B
:101AD000C4EBC40202EB42023C4B03EB82021182D4
:101AE00000BF9DF80F00492814D19DF8100051281F
:101AF00010D19DF8120000F0400001280AD0BDF876
:101B0000130001B2C4EBC40000EB40002F4A02EB0B
:101B10008000418200BF0198812821D30198882844
:101B20001ED89DF80D00D8B901988138C4B2621C46
:101B3000022343EA021242F44071274A5068FEF73A
:101B4000A0FB4FF08051019841EA00409DF80F1032
:101B500040EA01209DF8101008432049086000BFAA
:101B60009DF80C0004286CD19DF80D00D0BB00201E
:101B700000900021029800F0FE00C0EB0010184A0F
:101B800002EB800080F8321009210298B1EB102F8F
:101B900056D16946B7EE000A0DF10F0008F0AFF814
:101BA0000298C0B2C0EB00100D4901EB800090F824
:101BB000380000EE900AF8EE600A80EE201ABDEEC2
:101BC000C10A10E05C30002000000843702D0020A6
:101BD000004A00200000B443040000206000002000
:101BE000302F00202DE010EE100A029901F0FE01C6
:101BF000C1EB0111234A02EB810188616946B2EE13
:101C0000040A0DF10F0008F08AF8029800F0FE00B7
:101C1000C0EB00101B4901EB800080ED050A69460E
:101C20009FED190A0DF10F0008F079F8029800F005
:101C3000FE00C0EB0010134901EB800080ED080AA4
:101C400000BF00BF06B010BD30B585B0054600210D
:101C50000E4809F08FF910B9002005B030BD6A4672
:101C600000210B4809F003F9002404E00DF10B00FA
:101C7000005D2855641C9DF80A00A042F6D89DF826
:101C80000A00EAE7302F002000007A440064004098
:101C90000068004042E00120B7EE000A08F052FD63
:101CA0000220B0EE000A08F04DFD0320B0EE080A55
:101CB00008F048FD04209FED830A08F043FD05204D
:101CC000B1EE040A08F03EFD0620B1EE080A08F065
:101CD00039FD0720B1EE0C0A08F034FD0820B2EE01
:101CE000000A08F02FFD0920B2EE020A08F02AFDD2
:101CF0007549096800EE901AF8EE600AB0EE600AC5
:101D00000A2008F01FFD0A2008F06DFD01466F480B
:101D100000F057F94FF4FA700DF086FABBE705E0D2
:101D200004F0FEF940F24C400DF07EFAF8E706E0D0
:101D3000012006F05FF84FF47A700DF075FAF7E7BE
:101D400003E04FF47A700DF06FFAFAE71CE001201F
:101D500005F050FD012411E00121204605F079FC39
:101D60000121204605F075FA0121204605F0A7FB68
:101D70000121204605F0D9FA601CC4B2052CEBDB2A
:101D80004FF496600DF050FAE1E707E008F061F9D2
:101D900008F0CDF84FF496700DF046FAF6E705E03E
:101DA00001F0B8FA40F6B8300DF03EFAF8E770B539
:101DB0000446002500BF022007F0BAFE002008F00C
:101DC000A5F901F0A7FA0DF06EFC0DF003FB054636
:101DD0000D233F4A00213F480CF0E0FE1E233E4AFF
:101DE00000213E480CF0DAFE0A233D4A00213D481E
:101DF0000CF0D4FE0F233C4A00213C480CF0CEFEF0
:101E000010233B4A00213B480CF0C8FE09233A4A04
:101E100000213A480CF0C2FE0E23394A002139480D
:101E20000CF0BCFE0120384981F8600381F83804C9
:101E300081F8100581F8E8050121334880F8611325
:101E400080F8391480F8111580F8E91505200DF097
:101E500023F928460DF0C2FA70BD08B54FF4FA60B8
:101E600007F06DFF0BF008F94FF4A06008F008FDD3
:101E700007F044FE08F02AF900F0DCF800F04AF818
:101E800007F080FF08F0C4F8FEF70AFD00200323E6
:101E9000082219460090FFF739F807F075FDFEF7A4
:101EA00021FAFEF7D9FBFEF78EF90BF0C9FA0523EC
:101EB000164A002116480CF071FE0BF0E8FB0020DA
:101EC00008BD00000000C843240400403069002021
:101ED000141000209F1D0008141200208B1D000804
:101EE000141A00204D1D0008141E0020411D00087A
:101EF000142200202F1D0008141600201F1D0008AA
:101F000014260020951C00088426002014080020B8
:101F1000AF1D00081CB54048006840F010003E4965
:101F200008603D481438006840F480003A4914398C
:101F300008600120022100230A46CDE900104FF479
:101F4000C061364808F08AFA07220921334808F0B0
:101F500065FA07220A21314808F060FA40F2D920D8
:101F60002F4908814FF4037088810846008820F0CB
:101F700020000880032325220121062008F0C0F953
:101F80004FF48070274B264A121D042100902648EA
:101F900008F0FAF801221021234809F042FB03233C
:101FA00046220021072008F0ABF91D48808A40F046
:101FB00080001B4988820846808940F4005088814F
:101FC0001CBD70B504460D461848807A78B92A467B
:101FD000214614480DF09AFB2946134809F0B5FA3A
:101FE0000121114809F090FA01201049887270BD52
:101FF00010B50F490C4809F031FB01280AD10C49F2
:10200000094809F0FAFA0A49074809F051FB00208B
:102010000649887210BD00004438024000000240AA
:102020000010014046010020B8640240C6030020B1
:10203000008000281CB5F748006840F40030F549DE
:102040000860F4481038006840F40010F149103975
:1020500008600120022100230A46CDE900100C216E
:10206000ED4808F0FBF907220221EB4808F0D6F909
:1020700007220321E84808F0D1F94FF4B670E74988
:1020800008800C20091D0880E4480838008820F0EA
:102090002000E24908390880E048001D008840F02F
:1020A0002000DE49091D0880032326220121042087
:1020B00008F026F94FF48070D94BD84A121F04213A
:1020C0000090D84808F060F801221021D54809F0A6
:1020D000A8FA032311220121072008F011F9CF48A3
:1020E0000C30008840F08000CC490C310880CB488F
:1020F000001D008840F40050C849091D08801CBD1F
:1021000010B5C949C74809F0A9FA01280AD1C6493A
:10211000C44809F072FAC449C24809F0C9FA00205B
:10212000C249C87210BD10B52DED028B002440F2DB
:102130002531BA4808380AF0EAFE60B1B7480838D5
:102140000AF023FE0020BA4908702021B9480DF09A
:10215000F6FA01F0CBB840F22551B04808380AF041
:10216000D6FE0028F5D02021AC4808380AF0C6FE7B
:1021700040F22551A94808380AF000FFA74808385E
:102180000AF003FEC4B2AA48007800F0400008B389
:10219000A748007800F0800020BBFF2C06D1A4489F
:1021A000007840F08000A24908701BE0A048007849
:1021B00000F03F019F4844549D480078401C9C49D2
:1021C00008700846007800F03F0028280ADD00204B
:1021D000087007E0EE2C05D19548007840F04000EB
:1021E000934908709248007800F080000028B0D031
:1021F000914890F8200212287ED1012007F098FC27
:102200008D4890F82102102877D2DFE800F00812FC
:102210001C28343F4A5560778C9DAEBCC8C901204C
:102220008649087081F8D80081F8B00181F88802E9
:10223000BAE000208149087081F8D80081F8B00127
:1022400081F88802B0E001207C49487001217B4878
:1022500080F8D91080F8B11180F88912A4E000202C
:10226000764948700021754880F8D91080F8B1117E
:1022700080F8891298E00120704981F8600381F8A4
:10228000380481F8100581F8E8058DE000206B49DD
:1022900081F8600381F8380481F8100581F8E805B9
:1022A00082E00121654880F8611380F8391480F8D4
:1022B000111580F8E91577E00021604880F8611376
:1022C00080F8391480F8111580F8E9156CE00122C6
:1022D0001146104604F091F901221146022004F043
:1022E0008CF901221146032004F087F901221146DE
:1022F000042004F082F957E057E054E00122002165
:10230000104604F07AF901220021104604F075F914
:1023100001220021032004F070F901220021042091
:1023200004F06BF940E00121084604F08FF9012127
:10233000022004F08BF90121032004F087F9012128
:10234000042004F083F92FE00121084604F0FAF993
:102350000121022004F0F6F90121032004F0F2F932
:102360000121042004F0EEF91EE02D2033494860DD
:1023700041423248C0F8DC102D21C0F8B411494266
:10238000C0F88C1210E000202C49486000212B4836
:10239000C0F8DC10C0F8B411C0F88C1204E003E0FF
:1023A00007F0F8FB00E000BF00BF234890F82102CF
:1023B000012804D1204890F82302214908701E48C2
:1023C00090F8230209287DD2DFE800F00540414261
:1023D000FCFB7CFAF900184890F82502082815D172
:1023E000012080F3138800BF00BFBFF34F8F154853
:1023F000006800F4E06014490843001D11490860BA
:10240000BFF34F8F00BF00BF00BFFDE700BF00BF9D
:10241000F2E300004038024000000240084400405F
:1024200066020020A060024000802020C603002039
:102430001D000020660300204601002084260020A5
:102440001C0000200CED00E00000FA05E0E7DFE7EB
:10245000F74890F82502C01E0B2842D2DFE800F0B2
:1024600006C0C0424C63C0C0C06F7B00F1480DF095
:1024700007FEB0EE408AF0EE608A51EC180B0DF0CA
:1024800079F9ED498860EB480DF0FAFDB0EE408A2D
:10249000F0EE608A51EC180B0DF06CF90146E6483D
:1024A0004164E4480DF0ECFDB0EE408AF0EE608A45
:1024B00051EC180B0DF05EF90146DF48C0F88010B2
:1024C000DC4800E09CE30DF0DBFDB0EE408AF0EE6E
:1024D000608A51EC180B0DF04DF90146D648C0F852
:1024E000BC107DE00120D449087081F83C0081F8DF
:1024F000780081F8B40073E00220CF49887002218F
:10250000CD4880F83E1080F87A1080F8B61001208F
:10251000C94948700121C84880F83D1080F87910F9
:1025200080F8B5105CE00320C34988700321C248DD
:1025300080F83E1080F87A1080F8B61050E0002045
:10254000BD4948700021BC4880F83D1080F87910E2
:1025500080F8B51044E0B7480DF092FDB0EE408A27
:10256000F0EE608A51EC180B0DF03CF900EE100A09
:10257000B14880ED040AAF480DF082FDB0EE408A0C
:10258000F0EE608A51EC180B0DF02CF900EE100AF9
:10259000A94880ED130AA7480DF072FDB0EE408AFD
:1025A000F0EE608A51EC180B0DF01CF900EE100AE9
:1025B000A14880ED220A9F480DF062FD03E0F1E39F
:1025C0001FE396E10EE0B0EE408AF0EE608A51EC37
:1025D000180B0DF007F900EE100A974880ED310A4C
:1025E00000BF00BF924890F82502C01E1A2879D279
:1025F000DFE800F00D1B2939495968798999A7B698
:10260000C578D4E4FEFCFBFAF9F8F7F6F5F40020FF
:1026100008E0002100EBC00202EB4202874B03F806
:102620003210401C0828F4DB61E182480DF028FDDF
:10263000B0EE408AF0EE608A51EC180B0DF0B9F85C
:102640007E49887053E17B480DF01AFDB0EE408A58
:10265000F0EE608A51EC180B0DF0ABF8C1B2774880
:1026600080F8DA1043E173480DF00AFDB0EE408ABD
:10267000F0EE608A51EC180B0DF09BF8C1B26F4878
:1026800080F8B21133E16B480DF0FAFCB0EE408AED
:10269000F0EE608A51EC180B0DF08BF8C1B2674870
:1026A00080F88A1223E163480DF0EAFCB0EE408A1C
:1026B000F0EE608A51EC180B0DF05CF801B25F4847
:1026C000418114E15B480DF0DBFCB0EE408AF0EE96
:1026D000608A51EC180B0DF04DF801B25748A0F884
:1026E000E21004E102E153480DF0CAFCB0EE408A6A
:1026F000F0EE608A51EC180B0DF03CF801B24F4837
:10270000A0F8BA11F3E04B480DF0BAFCB0EE408AE5
:10271000F0EE608A51EC180B0DF02CF801B247482E
:10272000A0F89212E3E043480DF0AAFCB0EE408A14
:10273000F0EE608A51EC180B0DF01CF83F49486030
:10274000D5E03C480DF09CFCB0EE408AF0EE608A8B
:1027500051EC180B0DF00EF83849C1F8DC00C6E05A
:1027600034480DF08DFCB0EE408AF0EE608A51ECFA
:10277000180B0CF0FFFF3149C1F8B401B7E02D4848
:102780000DF07EFCB0EE408AF0EE608A51EC180B42
:102790000CF0F0FF2949C1F88C02A8E025480DF0A3
:1027A0006FFCB0EE408AF0EE608A51EC180B0DF031
:1027B00000F881B22148A0F8A21098E01D480DF061
:1027C0005FFCB0EE408AF0EE608A51EC180B0CF022
:1027D000F0FF81B21948A0F87A1188E07BE06FE041
:1027E00063E058E04CE040E034E029E010E0FFE72F
:1027F00010480DF045FCB0EE408AF0EE608A51ECD6
:10280000180B0CF0D6FF81B20C48A0F852126EE003
:1028100008480DF035FCB0EE408AF0EE608A51ECCD
:10282000180B0CF0C6FF81B20448A0F82A135EE032
:10283000460100206D030020302F00208426002058
:10284000FE4890F8280208B1012000E00020FC4971
:1028500008704CE0F94890F8280208B1012000E027
:102860000020F74981F8D80041E0F44890F82802A8
:1028700008B1012000E00020F14981F8B00136E004
:10288000EE4890F8280208B1012000E00020EC4951
:1028900081F888022BE0E94890F8280208B101206D
:1028A00000E00020E649487021E0E44890F8280262
:1028B00008B1012100E00021E14880F8D91016E0BC
:1028C000DE4890F8280208B1012100E00021DC4830
:1028D00080F8B1110BE0D94890F8280208B1012125
:1028E00000E00021D64880F8891200E000BF00BF58
:1028F0008EE5D24890F82502C01E1A287CD2DFE867
:1029000000F00D1B2B3B4B5B6B7C8C9CABBAC97BEB
:10291000D8F3F1F0EFEEEDECEBEAE9E8002008E0A7
:10292000002100EBC00202EB4202C54B03F832105B
:10293000401C0828F4DB61E1C2480DF0A1FBB0EEB9
:10294000408AF0EE608A51EC180B0CF032FFC1B2F5
:10295000BB4880F8621351E1BA480DF091FBB0EE2C
:10296000408AF0EE608A51EC180B0CF022FFC1B2E5
:10297000B34880F83A1441E1B2480DF081FBB0EE63
:10298000408AF0EE608A51EC180B0CF012FFC1B2D5
:10299000AB4880F8121531E1AA480DF071FBB0EE9A
:1029A000408AF0EE608A51EC180B0CF002FFC1B2C5
:1029B000A34880F8EA1521E1A2480DF061FBB0EED2
:1029C000408AF0EE608A51EC180B0CF0D3FE01B295
:1029D0009B48A0F86A1311E19A480DF051FBB0EE44
:1029E000408AF0EE608A51EC180B0CF0C3FE01B285
:1029F0009348A0F8421401E1FFE092480DF040FB3B
:102A0000B0EE408AF0EE608A51EC180B0CF0B2FE8A
:102A100001B28B48A0F81A15F0E08A480DF030FB9F
:102A2000B0EE408AF0EE608A51EC180B0CF0A2FE7A
:102A300001B28348A0F8F215E0E082480DF020FBD7
:102A4000B0EE408AF0EE608A51EC180B0CF092FE6A
:102A50007B49C1F86403D1E07A480DF011FBB0EE78
:102A6000408AF0EE608A51EC180B0CF083FE74493A
:102A7000C1F83C04C2E073480DF002FBB0EE408A9E
:102A8000F0EE608A51EC180B0CF074FE6C49C1F842
:102A90001405B3E06B480DF0F3FAB0EE408AF0EEA7
:102AA000608A51EC180B0CF065FE6549C1F8EC0525
:102AB000A4E064480DF0E4FAB0EE408AF0EE608ADB
:102AC00051EC180B0CF075FE81B25D48A0F80214B1
:102AD00094E086E07AE06EE062E056E04AE03EE0B4
:102AE00032E021E010E0FFE756480DF0C9FAB0EE01
:102AF000408AF0EE608A51EC180B0CF05AFE81B25D
:102B00004F48A0F8DA1479E04E480DF0B9FAB0EE6B
:102B1000408AF0EE608A51EC180B0CF04AFE81B24C
:102B20004748A0F8B21569E046480DF0A9FAB0EEA2
:102B3000408AF0EE608A51EC180B0CF03AFE81B23C
:102B40003F48A0F88A1659E03C4890F8280208B19E
:102B5000012000E000203A4981F860034EE0374848
:102B600090F8280208B1012000E00020344981F8E3
:102B7000380443E0314890F8280208B1012000E011
:102B800000202F4981F8100538E02C4890F82802E1
:102B900008B1012000E00020294981F8E8052DE076
:102BA000264890F8280208B1012100E000212448BD
:102BB00080F8611322E0214890F8280208B1012131
:102BC00000E000211E4880F8391417E01B4890F8F7
:102BD000280208B1012100E00021194880F81115F0
:102BE0000CE0164890F8280208B1012100E000210D
:102BF000134880F8E91501E06FE300BF00BF6CE304
:102C000000BF0E4890F82502C01E0B281ED2DFE838
:102C100000F0061E1D2F4051667BA1CAF300012162
:102C2000084605F012FD0121022005F00EFD0121EC
:102C3000032005F00AFD0121042005E046010020E3
:102C4000842600206D03002005F0FFFCE5E0012153
:102C5000084605F0D2FA0121022005F0CEFA012142
:102C6000032005F0CAFA0121042005F0C6FAD4E0D9
:102C70000121084605F041FA0121022005F03DFA44
:102C80000121032005F039FA0121042005F035FA6D
:102C9000C3E00121084605F0ACFB0121022005F04C
:102CA000A8FB0121032005F0A4FB0121042005F06D
:102CB000A0FBB2E001220321104605F0A0F9012299
:102CC0000321022005F09BF901220321084605F0AB
:102CD00096F901220321042005F091F99DE00122DB
:102CE0001146104605F08BF901221146022005F02D
:102CF00086F901221146032005F081F901221146CF
:102D0000042005F07CF988E0FA480DF0B9F9B0EE3E
:102D1000408AF0EE608A51EC180B0CF02BFDF6495E
:102D20000860012208460168104605F087FE01226E
:102D3000F1480168022005F081FE0122EE48016899
:102D4000032005F07BFE0122EB480168042005F01A
:102D500075FE62E0E7480DF093F9B0EE408AF0EEC0
:102D6000608A51EC180B0CF005FDE4490860012263
:102D700008460168104605F0D6FE0122DF480068CB
:102D80004142022005F0CFFE0122DC4800684142AA
:102D9000032005F0C8FE0122D8480168042005F090
:102DA000C2FE3AE03BE0D3480DF06AF9B0EE408A4B
:102DB000F0EE608A51EC180B0CF0DCFCD049086096
:102DC000012208460168104605F0C9FC0122CC48E2
:102DD00000684142022005F0C2FC0122C848006898
:102DE0004142032005F0BBFC0122C54801680420D4
:102DF00005F0B5FC11E0FFE70121084605F09DFD57
:102E00000121022005F099FD0121032005F095FD27
:102E10000121042005F091FD00BF00BF00BFB948AB
:102E200090F825021A2821D2DFE800F0200D213782
:102E30004D6393C5EFEEEDECEBEAE9E8E7E6E5E498
:102E4000E3E2E1E0DFDEAB480DF01AF9B0EE408AD4
:102E5000F0EE608A51EC180B0CF0ABFCAA4908703C
:102E6000084601780122104603F0E9FA34E2A1484D
:102E70000DF006F9B0EE408AF0EE608A51EC180BC6
:102E80000CF097FCA04981F85400084690F85410C3
:102E90000122022003F0D3FA1EE296480DF0F0F86A
:102EA000B0EE408AF0EE608A51EC180B0CF081FC19
:102EB000954981F8A800084690F8A810012203203F
:102EC00003F0BDFA08E28B480DF0DAF8B0EE408A64
:102ED000F0EE608A51EC180B0CF06BFC8A4981F81B
:102EE000FC00084690F8FC100122042003F0A7FA29
:102EF000F2E185480078022813D17E480DF0C0F831
:102F0000B0EE408AF0EE608A51EC180B0CF032FC07
:102F10007E490860012208460168104603F0E9FD79
:102F200016E079480078052812D172480DF0A8F80B
:102F3000B0EE408AF0EE608A51EC180B0CF01AFCEF
:102F400073490860012208460168104603F05FFCDF
:102F5000C2E16D4890F85400022813D165480DF085
:102F60008FF8B0EE408AF0EE608A51EC180B0CF04E
:102F700001FC66490860012208460168022003F04E
:102F8000B8FD17E0604890F85400052812D1594860
:102F90000DF076F8B0EE408AF0EE608A51EC180B36
:102FA0000CF0E8FB5A49086001220846016802203B
:102FB00003F02DFC90E1544890F8A800022825D198
:102FC0004C480DF05DF8B0EE408AF0EE608A51ECAE
:102FD000180B0CF0CFFB4D49086001220846016830
:102FE000032003F086FD29E065E15AE15EE14EE150
:102FF0000AE151E13AE128E116E1F1E0DCE0C7E065
:10300000B2E09DE088E060E04BE018E03E4890F8D8
:10301000A800052812D137480DF032F8B0EE408AEA
:10302000F0EE608A51EC180B0CF0A4FB38490860F4
:10303000012208460168032003F0E9FB4CE1324815
:1030400090F8FC00022813D12A480DF019F8B0EED0
:10305000408AF0EE608A51EC180B0CF08BFB2B4988
:103060000860012208460168042003F042FD17E0D1
:10307000254890F8FC00052812D11E480DF000F8F4
:10308000B0EE408AF0EE608A51EC180B0CF072FB47
:103090001F490860012208460168042003F0B7FBBD
:1030A0001AE114480CF0ECFFB0EE408AF0EE608AB2
:1030B00051EC180B0CF05EFB164908600122084623
:1030C0000168104603F022FC06E10A480CF0D8FF24
:1030D000B0EE408AF0EE608A51EC180B0CF04AFB1F
:1030E0000C490860012208460168022003F00EFC2A
:1030F000F2E000006D0300208C000020880000201A
:103100008400002046010020702D0020580000207F
:103110004C00002054000020FE480CF0B1FFB0EE3F
:10312000408AF0EE608A51EC180B0CF023FBFA4950
:103130000860012208460168032003F0E7FBCBE0AA
:10314000F4480CF09DFFB0EE408AF0EE608A51EC3E
:10315000180B0CF00FFBF14908600122EE480168E2
:10316000042003F0D3FBB7E0EA480CF089FFB0EE8F
:10317000408AF0EE608A51EC180B0CF0FBFAE7493C
:103180000860012208460168104603F03EFCA3E0F7
:10319000E0480CF075FFB0EE408AF0EE608A51EC2A
:1031A000180B0CF0E7FADD490860012208460168B7
:1031B000022003F02AFC8FE0D6480CF061FFB0EE4D
:1031C000408AF0EE608A51EC180B0CF0D3FAD34928
:1031D0000860012208460168032003F016FC7BE02A
:1031E000CC480CF04DFFB0EE408AF0EE608A51EC16
:1031F000180B0CF0BFFAC9490860012208460168A3
:10320000042003F002FC67E0C54890F8280208B1EA
:10321000012000E00020C34948700846417801229F
:10322000104603F0EAF957E0BD4890F8280208B1CB
:10323000012100E00021BB4880F8551090F855109E
:103240000122022003F0D9F946E0B54890F828029F
:1032500008B1012100E00021B24880F8A91090F8DF
:10326000A9100122032003F0C8F935E0AC4890F81A
:10327000280208B1012100E00021AA4880F8FD10D1
:1032800090F8FD100122042003F0B7F924E0012199
:10329000084603F0DBF91FE00121022003F0D6F914
:1032A0001AE00121032003F0D1F915E001210420E7
:1032B00003F0CCF910E00121084603F043FA0121A4
:1032C000022003F03FFA0121032003F03BFA012121
:1032D000042003F037FA00BF00BF00BF002092496E
:1032E000087020218B48C01F0CF029FABDEC028B1E
:1032F00010BD10B504468D48C07A50B921468C489F
:1033000008F023F901218A4808F0FEF801208749D6
:10331000C87210BD10B50024EE222146641C8548F9
:103320004254B1222146641C425410222146641C9E
:10333000425400222146641C42542146641C4254DB
:103340002146641C425405222146641C4254012239
:103350002046611CCCB277490A54FF222046611CEA
:10336000CCB274490A54FC222046611CCCB271498B
:103370000A54FF222046611CCCB26E490A542046F2
:10338000611CCCB26B490A546B480078092881F063
:10339000CA83DFE810F0C80B09000B000C000D0019
:1033A0006604C80BC80BB70801F0BEBBFCE7FBE71F
:1033B000EE222046611CCCB25E490A54B12220465E
:1033C000611CCCB25B490A5412222046611CCCB26B
:1033D00058490A5400222046611CCCB255490A546F
:1033E00004222046611CCCB252490A5453488078CA
:1033F00000287DD000222046611CCCB24D490A54E1
:1034000004222046611CCCB24A490A5400222046BC
:10341000611CCCB247490A544848827848A14948BF
:103420000CF018FE47480CF095F9C2B22046611C1A
:10343000CCB240490A54081942490CF092F941486B
:103440000CF088F92044C4B200222046611CCCB2A2
:1034500038490A5408222046611CCCB235490A5426
:1034600000222046611CCCB232490A543348B0F9DC
:103470001E2033A133480CF0EDFD32480CF06AF900
:10348000C2B22046611CCCB22A490A5408192D49FF
:103490000CF067F92B480CF05DF92044C4B200220F
:1034A0002046611CCCB223490A540C222046611CE0
:1034B000CCB220490A5400222046611CCCB21D49DE
:1034C0000A541E4882691EA11E480CF0C3FD1D4807
:1034D0000CF040F9C2B22046611CCCB215490A5426
:1034E000081918490CF03DF916480CF033F900E0C2
:1034F00086E02044C4B200222046611CCCB20D49B3
:103500000A5411222046611CCCB20A490A540022F6
:10351000204619E06D030020540000205C000020CC
:1035200046010020702D00201D000020C603002051
:10353000A0600240660200201C00002084260020BB
:103540002564000018260020611CCCB2FE490A54F4
:10355000FE48B0F8A220AFF21801FD480CF07AFD49
:10356000FB480CF0F7F8C2B22046611CCCB2F64919
:103570000A540819F6490CF0F4F8F5480CF0EAF88A
:103580002044C4B200222046611CCCB2EE490A5449
:1035900015222046611CCCB2EB490A540022204679
:1035A000611CCCB2E8490A5401222046611CCCB20D
:1035B000E5490A54E54802782046611CCCB2E2494C
:1035C0000A5400222046611CCCB2DF490A54192259
:1035D0002046611CCCB2DC490A5400222046611C02
:1035E000CCB2D9490A5401222046611CCCB2D6493A
:1035F0000A54D64842782046611CCCB2D2490A54BB
:10360000D24890F8DA0000287DD000222046611CC4
:10361000CCB2CD490A5405222046611CCCB2CA491D
:103620000A5400222046611CCCB2C7490A54C7483C
:1036300090F8DA20AFF2F801C5480CF00BFDC44851
:103640000CF088F8C2B22046611CCCB2BE490A54C4
:103650000819BF490CF085F8BD480CF07BF82044F0
:10366000C4B200222046611CCCB2B7490A540922D8
:103670002046611CCCB2B4490A5400222046611C89
:10368000CCB2B1490A54B148B0F9F620AFF25011AA
:10369000AF480CF0DFFCAE480CF05CF8C2B220463C
:1036A000611CCCB2A8490A540819A9490CF059F870
:1036B000A7480CF04FF82044C4B200222046611CF9
:1036C000CCB2A1490A540D222046611CCCB29E49BD
:1036D0000A5400222046611CCCB29B490A549B48E4
:1036E000D0F8F020AFF2A81199480CF0B3FC98483C
:1036F0000CF030F8C2B22046611CCCB292490A5498
:103700000819934900E072E00CF02BF890480CF097
:1037100021F82044C4B200222046611CCCB28A4960
:103720000A5412222046611CCCB287490A54002256
:103730002046611CCCB284490A548448B0F87A21EE
:10374000AFF2042182480CF085FC81480CF002F8AD
:10375000C2B22046611CCCB27B490A5408197C498C
:103760000BF0FFFF7A480BF0F5FF2044C4B20022B3
:103770002046611CCCB274490A5416222046611CB2
:10378000CCB271490A5400222046611CCCB26E4969
:103790000A5401222046611CCCB26B490A546B4882
:1037A00090F8D8202046611CCCB267490A54002208
:1037B0002046611CCCB264490A541A222046611C7E
:1037C000CCB261490A5400222046611CCCB25E4949
:1037D0000A5401222046611CCCB25B490A545B4862
:1037E00090F8D9202046611CCCB257490A5457485A
:1037F00090F8B20100287DD000222046611CCCB296
:1038000051490A5406222046611CCCB24E490A5442
:1038100000222046611CCCB24B490A544B4890F818
:10382000B221AFF2E4214A480CF014FC48480BF0F6
:1038300091FFC2B22046611CCCB243490A54081918
:1038400043490BF08EFF42480BF084FF2044C4B282
:1038500000222046611CCCB23B490A540A22204671
:10386000611CCCB238490A5400222046611CCCB2FB
:1038700035490A543548B0F9CE21AFF23C313448CD
:103880000CF0E8FB32480BF065FFC2B22046611C29
:10389000CCB22D490A5408192D490BF062FF2C486F
:1038A0000BF058FF2044C4B200222046611CCCB269
:1038B00025490A540E222046611CCCB222490A54E2
:1038C00000222046611CCCB21F490A541F48D0F880
:1038D000C821AFF294311E480CF0BCFB1C480BF021
:1038E00039FFC2B22046611CCCB217490A540819EC
:1038F000174900E079E00BF034FF15480BF02AFF80
:103900002044C4B200222046611CCCB20E490A54A5
:1039100013222146601CC4B20B48425400222046A8
:10392000611CCCB208490A540848B0F85222AFF2E0
:10393000F03107480CF08EFB05480BF00BFFC2B2CC
:103940002046611CCCB205E06602002084260020DF
:1039500018260020FE490A540819FE490BF001FF01
:10396000FC480BF0F7FE2044C4B200222046611C44
:10397000CCB2F7490A5417222046611CCCB2F44954
:103980000A5400222046611CCCB2F1490A5401229B
:103990002046611CCCB2EE490A54EF4890F8B021A1
:1039A0002146601CC4B2EA48425400222046611CF1
:1039B000CCB2E7490A541B222046611CCCB2E44930
:1039C0000A5400222046611CCCB2E1490A5401226B
:1039D0002046611CCCB2DE490A54DF4890F8B12180
:1039E0002046611CCCB2DA490A54DB4890F88A02BE
:1039F00000287DD000222046611CCCB2D4490A5454
:103A000007222146601CC4B2D148425400222046FD
:103A1000611CCCB2CE490A54CF4890F88A22AFF24A
:103A2000E041CC480CF016FBCA480BF093FEC2B242
:103A30002046611CCCB2C6490A540819C5490BF08E
:103A400090FEC4480BF086FE2044C4B200222046FB
:103A5000611CCCB2BE490A540B222046611CCCB278
:103A6000BB490A5400222046611CCCB2B8490A5412
:103A7000B948B0F9A622AFF23851B6480CF0EAFACC
:103A8000B4480BF067FEC2B22046611CCCB2B0490C
:103A90000A540819AF490BF064FEAE480BF05AFE09
:103AA0002044C4B200222046611CCCB2A8490A546A
:103AB0000F222146601CC4B2A54842540022204671
:103AC000611CCCB2A2490A54A348D0F8A022AFF29C
:103AD0009051A0480CF0BEFA9E480BF03BFEC2B2DB
:103AE0002046611CCCB29A490A540819994900E051
:103AF00072E00BF036FE97480BF02CFE2044C4B267
:103B000000222046611CCCB291490A54142220465E
:103B1000611CCCB28E490A5400222046611CCCB2F2
:103B20008B490A548C48B0F82A23AFF2EC518948EB
:103B30000CF090FA87480BF00DFEC2B22046611CD3
:103B4000CCB283490A54081982490BF00AFE814815
:103B50000BF000FE2044C4B200222046611CCCB20F
:103B60007B490A5418222046611CCCB278490A5479
:103B700000222046611CCCB275490A54012220461D
:103B8000611CCCB272490A54734890F888222046CE
:103B9000611CCCB26E490A5400222046611CCCB292
:103BA0006B490A541C222046611CCCB268490A5455
:103BB00000222046611CCCB265490A5401222046ED
:103BC000611CCCB262490A54634890F889222046AD
:103BD000611CCCB25E490A5400222046611CCCB262
:103BE0005B490A5410222046611CCCB258490A5441
:103BF00000222046611CCCB255490A5457484068FF
:103C00004068028856A153480CF024FA51480BF042
:103C1000A1FDC2B22046611CCCB24D490A5408191C
:103C20004C490BF09EFD4B480BF094FD2044C4B270
:103C3000FF222046611CCCB245490A54FC22204692
:103C4000611CCCB242490A54FF222046611CCCB20E
:103C50003F490A542046611CCCB23D490A5400F049
:103C600063BFEE222046611CCCB239490A54B1220E
:103C70002046611CCCB236490A5412222046611CEF
:103C8000CCB233490A5400222046611CCCB23049E0
:103C90000A5405222046611CCCB22D490A542E48F4
:103CA00090F8620300287DD000222046611CCCB22F
:103CB00027490A5404222046611CCCB224490A54E4
:103CC00000222046611CCCB221490A54224890F8B7
:103CD0006223AFF294711F480CF0BCF91D480BF041
:103CE00039FDC2B22046611CCCB219490A540819E8
:103CF00018490BF036FD17480BF02CFD2044C4B2D8
:103D000000222046611CCCB211490A5408222046E8
:103D1000611CCCB20E490A5400222046611CCCB270
:103D20000B490A540C48B0F97E23AFF2EC710948F4
:103D30000CF090F907480BF00DFDC2B22046611C53
:103D4000CCB203490A54081902490BF00AFD09E0F4
:103D5000660200201826002084260020040000208F
:103D600025780000FE480BF0F5FC2044C4B2002288
:103D70002046611CCCB2FB490A540C222046611C2F
:103D8000CCB2F8490A5400222046611CCCB2F54955
:103D90000A54F548D0F87823AFF65C01F0480CF0EF
:103DA00059F900E07DE0EE480BF0D4FCC2B22046A9
:103DB000611CCCB2EB490A540819E9490BF0D1FC5B
:103DC000E7480BF0C7FC2044C4B200222046611C27
:103DD000CCB2E4490A5411222046611CCCB2E1491C
:103DE0000A5400222046611CCCB2DE490A54DE4847
:103DF000B0F80224AFF6B801D9480CF02BF9D84836
:103E00000BF0A8FCC2B22046611CCCB2D5490A54C2
:103E10000819D3490BF0A5FCD1480BF09BFC2044BA
:103E2000C4B200222046611CCCB2CE490A541522ED
:103E30002046611CCCB2CB490A5400222046611CAA
:103E4000CCB2C8490A5401222046611CCCB2C549F3
:103E50000A54C54890F860232046611CCCB2C14981
:103E60000A5400222046611CCCB2BE490A541922D1
:103E70002046611CCCB2BB490A5400222046611C7A
:103E8000CCB2B8490A5401222046611CCCB2B549D3
:103E90000A54B54890F861232046611CCCB2B14960
:103EA0000A54B14890F83A0400287DD000222046F8
:103EB000611CCCB2AB490A5405222046611CCCB22D
:103EC000A8490A5400222046611CCCB2A5490A54D4
:103ED000A54890F83A24AFF69811A1480CF0BAF82A
:103EE0009F480BF037FCC2B22046611CCCB29D4902
:103EF0000A5408199A490BF034FC99480BF02AFC33
:103F00002044C4B200222046611CCCB295490A5418
:103F100009222046611CCCB292490A540022204654
:103F2000611CCCB28F490A548F48B0F95624AFF6C1
:103F3000F0118B480CF08EF889480BF00BFCC2B2E4
:103F40002146601CC4B2874842540146081984497E
:103F50000BF007FC82480BF0FDFB2044C4B20022AA
:103F60002046611CCCB27F490A540D222046611CB8
:103F7000CCB27C490A5400222046611CCCB279495B
:103F80000A547948D0F85024AFF64C2174480CF00C
:103F900061F873480BF0DEFBC2B22046611CCCB264
:103FA00070490A54081900E073E06D490BF0D9FB21
:103FB0006B480BF0CFFB2044C4B200222046611CAA
:103FC000CCB268490A5412222046611CCCB2654921
:103FD0000A5400222146601CC4B26248425462481E
:103FE000B0F8DA24AFF6A8215D480CF033F85C484D
:103FF0000BF0B0FBC2B22046611CCCB259490A5446
:10400000081957490BF0ADFB55480BF0A3FB2044B2
:10401000C4B200222046611CCCB252490A54162276
:104020002046611CCCB24F490A5400222046611C34
:10403000CCB24C490A5401222046611CCCB24949F9
:104040000A54494890F838242046611CCCB24549AE
:104050000A5400222046611CCCB242490A541A225A
:104060002046611CCCB23F490A5400222046611C04
:10407000CCB23C490A5401222046611CCCB23949D9
:104080000A54394890F839242046611CCCB235498D
:104090000A54354890F81205002867D000222046BF
:1040A000611CCCB22F490A5406222046611CCCB2B6
:1040B0002C490A5400222046611CCCB229490A54DA
:1040C000294890F81225AFF6883125480BF0C2FF39
:1040D00023480BF03FFBC2B22046611CCCB2214901
:1040E0000A5408191E490BF03CFB1D480BF032FB2B
:1040F0002044C4B200222046611CCCB219490A54A3
:104100000A222046611CCCB216490A5400222046DD
:10411000611CCCB213490A541348B0F92E25AFF6EE
:10412000E0310F480BF096FF0D480BF013FBC2B2C5
:104130002046611CCCB20B490A54081908490BF0FF
:1041400010FB07480BF006FB2044C4B200222046B7
:10415000611CCCB203490A540E222046611C06E0C1
:104160001826002066020020842600208EE0CCB2B3
:10417000FE490A5400222046611CCCB2FB490A5475
:10418000FB48D0F82825AFF64841FA480BF062FF0B
:10419000F8480BF0DFFAC2B22046611CCCB2F349FA
:1041A0000A540819F3490BF0DCFAF2480BF0D2FA82
:1041B0002044C4B200222046611CCCB2EB490A5410
:1041C00013222046611CCCB2E8490A540022204642
:1041D000611CCCB2E5490A54E548B0F8B225AFF607
:1041E000A041E4480BF036FFE2480BF0B3FAC2B24C
:1041F0002046611CCCB2DD490A540819DD490BF098
:10420000B0FADC480BF0A6FA2044C4B200222046E3
:10421000611CCCB2D5490A5417222046611CCCB28D
:10422000D2490A5400222046611CCCB2CF490A541C
:1042300001222046611CCCB2CC490A54CC4890F8EB
:1042400010252046611CCCB2C8490A5400222046E1
:10425000611CCCB2C5490A541B222146601CC4B261
:10426000C248425400222146601CC4B2BF48425496
:1042700001222046611CCCB2BC490A54BC4890F8CB
:1042800011252046611CCCB2B8490A54B84890F8B0
:10429000EA0500287DD000222046611CCCB2B3493B
:1042A0000A5407222046611CCCB2B0490A540022AD
:1042B0002046611CCCB2AD490A54AD4890F8EA25BD
:1042C000AFF68451AB480BF0C5FEAA480BF042FA9A
:1042D000C2B22046611CCCB2A4490A540819A549AF
:1042E0000BF03FFAA3480BF035FA2044C4B2002289
:1042F0002046611CCCB29D490A540B222046611C09
:10430000CCB29A490A5400222046611CCCB297498B
:104310000A549748B0F90626AFF6DC5195480BF0E1
:1043200099FE94480BF016FAC2B22046611CCCB23A
:104330008E490A5408198F490BF013FA8D480BF077
:1043400009FA2044C4B200222046611CCCB287493D
:104350000A540F222046611CCCB284490A54002220
:104360002046611CCCB281490A548148D0F800260D
:10437000AFF634617F480BF06DFE7E480BF0EAF932
:10438000C2B22046611CCCB278490A540819794956
:1043900000E072E00BF0E5F976480BF0DBF9204421
:1043A000C4B200222046611CCCB270490A541422C7
:1043B0002046611CCCB26D490A5400222046611C83
:1043C000CCB26A490A546A48B0F88A26AFF69061BE
:1043D00068480BF03FFE67480BF0BCF9C2B22046BC
:1043E000611CCCB261490A54081962490BF0B9F951
:1043F00060480BF0AFF92044C4B200222046611C93
:10440000CCB25A490A5418222046611CCCB25749F2
:104410000A5400222046611CCCB254490A5401229D
:104420002046611CCCB251490A54514890F8E82505
:104430002046611CCCB24D490A5400222046611C22
:10444000CCB24A490A541C222046611CCCB24749CE
:104450000A5400222046611CCCB244490A5401226D
:104460002046611CCCB241490A54414890F8E925E4
:104470002146601CC4B23D48425400222046611CC3
:10448000CCB23A490A5410222046611CCCB23749BA
:104490000A5400222046611CCCB234490A543648E2
:1044A000406840680288AFF2487132480BF0D2FD94
:1044B00030480BF04FF9C2B22046611CCCB22B49F8
:1044C0000A5408192B490BF04CF92A480BF042F911
:1044D0002044C4B2FF222046611CCCB223490A54B6
:1044E000FC222046611CCCB220490A54FF222046FF
:1044F000611CCCB21D490A542046611CCCB21B4938
:104500000A5411E3EE222046611CCCB217490A542A
:10451000B1222046611CCCB214490A541222204612
:10452000611CCCB211490A5400222046611CCCB255
:104530000E490A5408222046611CCCB20B490A5489
:104540000E48007800287DD000222046611CCCB2A5
:1045500006490A5401222046611CCCB203490A5480
:1045600000222046611CCCB2004909E0660200200E
:10457000842600201826002004000020702D002032
:104580000A54FE480278FEA1FE480BF063FDFD4888
:104590000BF0E0F8C2B22046611CCCB2FA490A54D2
:1045A0000819F8490BF0DDF8F6480BF0D3F8204471
:1045B000C4B200222046611CCCB2F3490A54052241
:1045C0002046611CCCB2F0490A5400222046611CEE
:1045D000CCB2ED490A54E9484269E9A1E9480BF037
:1045E00039FDE8480BF0B6F8C2B22046611CCCB2E7
:1045F000E5490A540819E3490BF0B3F8E1480BF018
:10460000A9F82044C4B200222046611CCCB2DE4985
:104610000A5409222046611CCCB2DB490A5400220C
:104620002046611CCCB2D8490A54D4488269D4A12E
:10463000D4480BF00FFDD3480BF08CF8C2B22046E3
:10464000611C00E02AE0CCB2CF490A540819CD49D8
:104650000BF087F8CB480BF07DF82044C4B2002261
:104660002046611CCCB2C8490A5415222046611C60
:10467000CCB2C5490A5400222046611CCCB2C249C2
:104680000A5401222046611CCCB2BF490A54BB48DF
:1046900042782046611CCCB2BB490A54B74890F816
:1046A000540000287ED000222046611CCCB2B649BE
:1046B0000A5402222046611CCCB2B3490A5400229B
:1046C0002046611CCCB2B0490A54AC4890F8542042
:1046D000ABA1AC480BF0BEFCAA480BF03BF8C2B251
:1046E0002046611CCCB2A8490A540819A5490BF010
:1046F00038F8A4480BF02EF82044C4B2002220461B
:10470000611CCCB2A0490A5406222046611CCCB2DE
:104710009D490A5400222046611CCCB29A490A5491
:104720009648826E96A197480BF094FC95480BF042
:1047300011F8C2B22046611CCCB293490A54081940
:1047400090490BF00EF88F480BF004F82044C4B2E7
:1047500000222046611CCCB28B490A540A22204612
:10476000611CCCB288490A5400222046611CCCB29C
:1047700085490A548148C26E81A182480BF06AFCC7
:1047800080480AF0E7FFC2B22146601CC4B27E48EE
:104790004254014608197B490AF0E3FF79480AF0C0
:1047A000D9FF00E021E02044C4B200222046611C71
:1047B000CCB275490A5411222046611CCCB2724910
:1047C0000A5400222046611CCCB26F490A540122CF
:1047D0002046611CCCB26C490A54684890F85520B8
:1047E0002046611CCCB268490A54644890F8A8007D
:1047F00000287DD000222046611CCCB262490A54B8
:1048000003222046611CCCB25F490A540022204694
:10481000611CCCB25C490A54584890F8A82058A1B1
:1048200058480BF017FC57480AF094FFC2B22046D4
:10483000611CCCB254490A54081952490AF091FF3C
:1048400050480AF087FF2044C4B200222046611C71
:10485000CCB24D490A5407222046611CCCB24A49C9
:104860000A5400222046611CCCB247490A544348EE
:10487000D0F8BC2042A143480BF0ECFB41480AF0C1
:1048800069FFC2B22046611CCCB23F490A540819E4
:104890003C490AF066FF3B480AF05CFF2044C4B282
:1048A00000222046611CCCB237490A540B22204614
:1048B000611CCCB234490A5400222046611CCCB29F
:1048C00031490A542D48D0F8C0202DA12D480BF0B5
:1048D000C1FB2C480AF03EFFC2B22046611CCCB29C
:1048E00029490A54081927490AF03BFF254800E0E6
:1048F00023E00AF02FFF2044C4B200222046611CAE
:10490000CCB221490A5412222146601CC4B21E486E
:10491000425400222146601CC4B21B48425401226A
:104920002046611CCCB218490A54144890F8A920BA
:104930002146601CC4B214484254104890F8FC0050
:1049400000287CD000222146601CC4B20E4842548C
:1049500004222046611CCCB20B490A540022204696
:10496000611CCCB208490A54044890F8FC2004A108
:1049700004480BF06FFB034808E00000702D002096
:104980002564000018260020660200200AF0E2FEDE
:10499000C2B22046611CCCB266490A540819664965
:1049A0000AF0DFFE64480AF0D5FE2044C4B20022BB
:1049B0002146601CC4B25F48425408222146601C54
:1049C000C4B25C48425400222046611CCCB2594912
:1049D0000A545A48D0F81021AFF25C0156480BF047
:1049E00039FB55480AF0B6FEC2B22046611CCCB273
:1049F00050490A54081950490AF0B3FE4E480AF0CB
:104A0000A9FE2044C4B200222046611CCCB2494910
:104A10000A540C222046611CCCB246490A5400229A
:104A20002046611CCCB243490A544448B0F90C21D9
:104A3000AFF2B40140480BF00DFB3F4800E030E01E
:104A40000AF088FEC2B22046611CCCB239490A5431
:104A5000081939490AF085FE37480AF07BFE2044E0
:104A6000C4B200222146601CC4B232484254132210
:104A70002146601CC4B22F48425400222146601CCB
:104A8000C4B22C48425401222046611CCCB22949B0
:104A90000A542A4890F8FD202046611CCCB22549D2
:104AA0000A5400222046611CCCB222490A541E221C
:104AB0002146601CC4B21F48425400222046611C9B
:104AC000CCB21C490A541E481EA102681A480BF0B9
:104AD000C1FA19480AF03EFEC2B22046611CCCB2AF
:104AE00014490A54081914490AF03BFE12480AF006
:104AF00031FE2044C4B2FF222146601CC4B20D48DE
:104B00004254FC222046611CCCB20A490A54FF22BE
:104B10002146601CC4B2074842542046611CCCB2F6
:104B200004490A5400E000BF00BF2046FEF7E1FB45
:104B300010BD00006602002018260020702D002005
:104B4000600000202523580A0000000000B597B03F
:104B50000121042007F084F80121880407F0B3F84C
:104B60000121480507F07CF807220A21634806F076
:104B7000BCFE07220B21614806F0B7FE4FF44060EF
:104B8000119002208DF8480000208DF84A00032083
:104B90008DF8490000208DF84B0011A9574806F008
:104BA00019FE4FF4E13013900020ADF85000ADF83D
:104BB0005200ADF85400ADF858000C20ADF8560086
:104BC00013A94F4808F02AF8012240F225514C4819
:104BD00008F062F927208DF8400004208DF841008C
:104BE00000208DF8420001208DF8430010A805F048
:104BF0004CFE444806F0ACFB4FF0006001900020F2
:104C0000059040200490404803903D48001D0290CC
:104C10000015079000200690099008900A904FF424
:104C200040300B9000200C9001200D9000200F9040
:104C30000E9001A9334806F02DFC3449314806F0A6
:104C4000DCFC32492F4806F033FD0E208DF8400081
:104C500002208DF8410004208DF8420001208DF8DB
:104C6000430010A805F011FE01221021254806F08E
:104C7000D8FC01228021224808F005F917B000BDB8
:104C800010B522491F4806F0E9FC01280AD11F4946
:104C90001C4806F0B2FC1D491A4806F009FD002028
:104CA0001B49087310BD70B504460D461848007BBB
:104CB00078B92A46214614480AF028FD29461148A9
:104CC00006F043FC01210F4806F01EFC01201049AC
:104CD000087370BD10B540F22551094808F017F966
:104CE00050B12021064808F009F940F22551044846
:104CF00008F044F904F04EFF10BD00000008024027
:104D000000480040586002408603002000800018E0
:104D1000C6030020002282610160C2610023036299
:104D2000436280ED031A80ED010AC0ED020AC0ED76
:104D3000041A704701688269891AC161C269016AEF
:104D4000511A00EE101AB8EEC00AD0ED010A20EE9A
:104D5000200A90ED021AC16900EE901AF8EEE00AFE
:104D600001EE200AC269416A0A44016AA2EB4101CC
:104D700000EE901AF8EEE00A90ED031A01EE200A18
:104D8000BDEEC00A10EE101A4161026A4262C269A9
:104D9000026270472DE9F04186B004460D46164682
:104DA0001F464FF0000800208DF80C008DF80D0014
:104DB00008208DF80E0040F2FF18CDF80480042082
:104DC00001F00BF828B9200A8DF80F008DF810407B
:104DD00005E000208DF80F0000218DF8101005204F
:104DE00000F0FBFF28B9290A8DF811108DF8125038
:104DF00004E000218DF811108DF81210062000F04B
:104E0000ECFF28B9310A8DF813108DF8146004E016
:104E100000218DF813108DF81410072000F0DDFF2D
:104E200028B9390A8DF815108DF8167004E00021A4
:104E30008DF815108DF8161001A9584805F022FFBD
:104E400006B0BDE8F0812DE9F04186B004460D467C
:104E500016461F464FF0000800208DF80C008DF814
:104E60000D0008208DF80E004FF40078CDF8048076
:104E7000002000F0B2FF28B9200A8DF80F008DF84D
:104E8000104005E000208DF80F0000218DF8101073
:104E9000012000F0A2FF28B9290A8DF811108DF821
:104EA000125004E000218DF811108DF8121002202C
:104EB00000F093FF28B9310A8DF813108DF81460B3
:104EC00004E000218DF813108DF81410032000F079
:104ED00084FF28B9390A8DF815108DF8167004E092
:104EE00000218DF815108DF8161001A92B4805F03A
:104EF000C9FE06B0BDE8F08100204BE000EBC00128
:104F000001EB4101264A02EBC101B1F90810002969
:104F100008DD00EBC00101EB410102EBC101B1F979
:104F2000081009E000EBC00101EB41011C4A02EB53
:104F3000C101B1F90810494200EBC00202EB420284
:104F4000174B03EBC202B2F8D020914220DD00EBF8
:104F5000C00101EB41011A4602EBC101B1F9081091
:104F6000002902DA4FF0FF3100E0012100EBC0021E
:104F700002EB42020A4B03EBC202B2F8D0205143CB
:104F80000AB200EBC00101EB410103EBC1010A8150
:104F9000411CC8B20828B1DB70470000006800401F
:104FA0008426002010B54FF40050FE490880FE49C9
:104FB00008801320FB4988702420FB49887043F641
:104FC0009910F849888042F22830F74988809FED8F
:104FD000F70AF44880ED020A9FEDF50A084680EDD5
:104FE000020A0020F34908709FEDF30A084680ED9D
:104FF000010A012008724FF47A7048810120087379
:105000004FF47A70C8814000088201208874C87407
:105010004FF4FA60E949888300204860E848E24B91
:105020000ECB4C300EC00020E54980390870487026
:1050300005208870002048606421E1488038418163
:1050400032210181C168DFEDDF1A9FEDDF1ADFED4C
:10505000DF0AB0EE0C0A4830FFF75CFED848803813
:10506000B0F90A10F7EE001A9FEDD91ADFEDD90A50
:10507000B1EE040A7030FFF74DFE1422CD49D0483E
:1050800018300AF043FBCE48D830C74B0ECB4C301B
:105090000EC00020CA49803981F8D8000021C848D4
:1050A000803880F8D910052180F8DA100021C0F886
:1050B000DC106421A0F8E2103221A0F8E010C168F1
:1050C000DFEDC01A9FEDC01ADFEDC00AB0EE0C0A8A
:1050D00000F59070FFF71EFEB9488038B0F90A104D
:1050E000F7EE001A9FEDBA1ADFEDBA0AB1EE040A24
:1050F00000F5A470FFF70EFE1422AE49B048F03060
:105100000AF004FBB448A84B0ECB4C300EC0002074
:10511000AB49803981F8B0010021A948803880F876
:10512000B111052180F8B2110021C0F8B411642139
:10513000A0F8BA113221A0F8B811C168DFEDA11AA8
:105140009FEDA11ADFEDA10AB0EE0C0A00F5FC708C
:10515000FFF7E0FD9A488038B0F90A10F7EE001A20
:105160009FED9B1ADFED9B0AB1EE040A00F5087073
:10517000FFF7D0FD14228F49974818300AF0C6FA7D
:105180009548D830884B0ECB4C300EC000208C494F
:10519000803981F8880200218948803880F8891296
:1051A000052180F88A120021C0F88C126421A0F831
:1051B00092123221A0F89012C168DFED821A9FEDA1
:1051C000821ADFED820AB0EE0C0A00F53470FFF7A8
:1051D000A1FD7B488038B0F90A10F7EE001A9FED68
:1051E0007C1ADFED7C0AB1EE040A00F53E70FFF791
:1051F00091FD14226F497848F0300AF087FA774819
:10520000684B0ECB4C300EC000206D49803981F8C0
:10521000600300216A48803880F86113052180F816
:1052200062135F21C0F864136421A0F86A1332216D
:10523000A0F86813C168DFED631A9FED631ADFED14
:10524000650AB2EE000A00F56A70FFF763FD5C487C
:105250008038B0F90A10F7EE001A9FED5B1ADFED07
:105260005D0AB2EE000A00F57470FFF753FD1422D8
:1052700050495A4818300AF049FA5848D830494B32
:105280000ECB4C300EC000204D49803981F83804D7
:1052900000214B48803880F83914052180F83A14F1
:1052A0006FF05E01C0F83C146421A0F84214322172
:1052B000A0F84014C168DFED431A9FED431ADFEDFB
:1052C000450AB2EE000A00F59060FFF723FD3C4866
:1052D0008038B0F90A10F7EE001A9FED3B1ADFEDA7
:1052E0003D0AB2EE000A00F59560FFF713FD1422A7
:1052F00030493A48F0300AF009FA3948294B0ECBC8
:105300004C300EC000202E49803981F81005002154
:105310002B48803880F81115052180F812155F217F
:10532000C0F814156421A0F81A153221A0F8181538
:10533000C168DFED241A9FED241ADFED260AB2EED4
:10534000000A00F5AB60FFF7E5FC1D488038B0F9B6
:105350000A10F7EE001A9FED1C1ADFED1E0AB2EEDE
:10536000000A00F5B060FFF7D5FC142211491C4873
:1053700018300AF0CBF91A48D8300A4B0ECB4C3013
:105380000EC000200E49803981F8E80500210C4844
:10539000803880F8E915052180F8EA156FF05E0184
:1053A00020E000004426002038260020F6283C405B
:1053B00077BEC340502600200000E1446426002050
:1053C00004270020CDCCCC3E000000008FC2F53D6C
:1053D000CDCC4C3E9A99993EB4280020642A0020F6
:1053E000142C0020C0F8EC156421A0F8F21532212D
:1053F000A0F8F015C1685FED0D1A1FED0D1A5FEDF5
:105400000B0AB2EE000A00F5C660FFF783FCFB480A
:10541000B0F90A10F7EE001A1FED151A5FED130A26
:10542000B2EE000A00F5CB60FFF774FC1422F449D9
:10543000F4480AF06BF90024BBE004EBC40000EB75
:105440004000EE4901EBC000EF490968C0F8AC101C
:10545000ED48416804EBC40000EB4000E74A02EB72
:10546000C000C0F8B01004EBC40101EB410102EB35
:10547000C10101F1B4000A22E34908310AF046F9FA
:10548000E148418A04EBC40000EB4000DB4A02EB38
:10549000C000A0F8BE1004EBC40000EB40001146B1
:1054A00001EBC000AC30D84A53699169D269C0E9B8
:1054B0000531C26104EBC40000EB4000CF4901EBB1
:1054C000C000D0ED270A04EBC40000EB400001EB64
:1054D000C00090F8CE0000EE100AB8EE400A20EEB0
:1054E000800A04EBC40000EB400001EBC000D0EDEB
:1054F000350A60EE200A04EBC40000EB400001EB2B
:10550000C000B0F8CC0000EE100AB8EE400A20EE61
:10551000800ADFEDBE0A80EE201ABCEEC10A04EB61
:10552000C40000EB400001EBC00080ED2B0A04EB4F
:10553000C40000EB400001EBC000406800EE100A20
:10554000B8EEC00A04EBC40000EB400001EBC00061
:10555000D0ED350A60EE200A04EBC40000EB4000F9
:1055600001EBC00090F8CE0000EE100AB8EE400A41
:1055700060EE800A04EBC40000EB400001EBC000C9
:10558000B0F8CC0000EE100AB8EE400A20EE800A17
:10559000DFED9E0A80EE201ABDEEC10A10EE100A61
:1055A00004EBC40101EB4101944A02EBC101C86064
:1055B000641C082CFFF641AF00209549C870887024
:1055C00048700871087000BF0BE044F62C4200EBF5
:1055D000C00101EB4101894B03EBC101A1F8A220FD
:1055E000401C0428F1DB10BD002245210A54026250
:1055F00000218161704710B5044604EBC40000EB44
:1056000040007E4901EBC000D0ED200A04EBC4004D
:1056100000EB400001EBC000B0F90A0000EE100AF8
:10562000B8EEC00A20EE800ABDEEC00A10EE100AE5
:1056300004EBC40101EB4101704A02EBC1010867B0
:1056400004EBC40000EB4000114601EBC000B0F9D0
:105650001E1004EBC40000EB400002EBC000C0F8D9
:10566000881004EBC40101EB410102EBC10101F11F
:105670007000FFF75FFB04EBC40000EB40005F49E4
:1056800001EBC000018904EBC40000EB40005B4A61
:1056900002EBC000D0F88400084401B204EBC4005F
:1056A00000EB400002EBC000018110BD10B50446C4
:1056B00004EBC40000EB4000504901EBC00040681F
:1056C00000EE100AB8EEC00A04EBC40000EB400084
:1056D00001EBC000D0ED350A60EE200A04EBC400F7
:1056E00000EB400001EBC00090F8CE0000EE100A85
:1056F000B8EE400A60EE800A04EBC40000EB400004
:1057000001EBC000B0F8CC0000EE100AB8EE400A81
:1057100020EE800ADFED3D0A80EE201ABDEEC10AC0
:1057200010EE100A04EBC40101EB4101334A02EB15
:10573000C101C86004EBC40000EB4000114601EB5E
:10574000C000C06804EBC40101EB410102EBC101E0
:10575000886404EBC40000EB4000114601EBC0007C
:10576000407870B904EBC40000EB400001EBC000CE
:10577000D0F8B00004EBC40101EB410102EBC10120
:10578000886404EBC40000EB40001C4901EBC0003E
:1057900090F8980088B304EBC40000EB400001EBE4
:1057A000C000806C002807DD04EBC40000EB400063
:1057B00001EBC000806C08E004EBC40000EB40008B
:1057C0000E4901EBC000806C404204EBC40101EBC8
:1057D00041010A4A02EBC101D1F8AC1088422BD931
:1057E00004EBC40000EB4000114601EBC000806CEC
:1057F00000280FDA4FF0FF300DE01DE08426002076
:1058000050260020042D0020642600200000B44310
:1058100020000020012004EBC40101EB4101FE4AFD
:1058200002EBC101D1F8AC10484304EBC40101EB19
:10583000410102EBC101886404EBC40000EB4000AD
:10584000F54901EBC000016A04EBC40000EB400025
:10585000F14A02EBC000016604EBC40101EB410117
:1058600002EBC10101F14800FFF764FA04EBC40048
:1058700000EB4000E84901EBC000D0ED160A04EB54
:10588000C40000EB400001EBC000C06D00EE100A48
:10589000B8EEC00A20EE800ABDEEC00A10EE100A73
:1058A00004EBC40101EB4101DB4A02EBC1010867D3
:1058B00004EBC40000EB4000114601EBC00090F87F
:1058C000A00088B304EBC40000EB400001EBC00073
:1058D000006F002807DD04EBC40000EB400001EB83
:1058E000C000006F08E004EBC40000EB4000CA49B0
:1058F00001EBC000006F404204EBC40101EB410129
:10590000C54A02EBC101B1F8A21088421FDD04EBC9
:10591000C40000EB4000114601EBC000006F0028FE
:1059200003DA4FF0FF3001E011E0012004EBC40185
:1059300001EB4101B84A02EBC101B1F8A2104843A2
:1059400004EBC40101EB410102EBC101086704EB68
:10595000C40000EB4000B04901EBC000B0F91E10DC
:1059600004EBC40000EB4000AB4A02EBC000C0F8FF
:10597000881004EBC40101EB410102EBC10101F10C
:105980007000FFF7D7F904EBC40000EB4000A24918
:1059900001EBC000018904EBC40000EB40009E4A0B
:1059A00002EBC000D0F88400084401B204EBC4004C
:1059B00000EB400002EBC000018104EBC40000EBEF
:1059C0004000114601EBC000D0F8B800002808DD07
:1059D00004EBC40000EB400001EBC000D0F8B800BD
:1059E00009E004EBC40000EB40008B4901EBC00070
:1059F000D0F8B80040423C280ADA012004EBC40188
:105A000001EB4101844A02EBC10181F8400009E049
:105A1000002004EBC40101EB41017F4A02EBC1010C
:105A200081F8400010BD10B5044604EBC40000EB43
:105A30004000794901EBC000B0F9A60004EBC401B5
:105A400001EB4101744A02EBC101086704EBC40099
:105A500000EB4000114601EBC000B0F91E1004EB52
:105A6000C40000EB400002EBC000C0F8881004EB5B
:105A7000C40101EB410102EBC10101F17000FFF72C
:105A800059F904EBC40000EB4000634901EBC0008E
:105A9000018904EBC40000EB40005F4A02EBC00048
:105AA000D0F88400084401B204EBC40000EB4000CD
:105AB00002EBC000018104EBC40000EB4000114682
:105AC00001EBC000B0F8B400F0B904EBC40000EB87
:105AD000400001EBC000006A41F28831884213DDCA
